S01900006275696C642F75636D696E692F6D61696E2E7372656373
S11300000C94A4010C94C3010C94C3010C94C3017B
S11300100C94C3010C94C3010C94C3010C94C3014C
S11300200C94C3010C94BE0B0C94C3010C94C30137
S11300300C94C3010C94C3010C94C3010C94C3012C
S11300400C94B2040C9494040C949E040C94A80490
S11300500C9471040C94C3010C94C3010C94C3015B
S11300600C94C3010C94F0040C94C3010C94020589
S11300700C94C3010C94EB0A0C94C3010C94C301BB
S11300800C94C3010C94C3010C94C3010C94C301DC
S11300900C9402070C94C3010C94DA070C94C3016A
S11300A00C94C3010C94C3010C94C3010C94C301BC
S11300B00C94C3010C94C3010C94C3010C94C301AC
S11300C00C94C3010C94C3010C94C3010C94C3019C
S11300D00C94C3010C94C3010C94C3010C94C3018C
S11300E00C94C3010C94C3010C94C3010C94C3017C
S11300F00C94C3010C94C3010C94C3010C94C3016C
S11301000C94C3010C9420030C945C030C946603BC
S11301100C94CB010C94C3010C94C3010C94C30143
S1130120F2104C137F13011419147614A514C0147F
S1130130CB14D614B815C215C415D215F915341636
S1130140891600002110422063308440A550C66007
S1130150E770088129914AA16BB18CC1ADD1CEE180
S1130160EFF13112100273325222B5529442F772F7
S1130170D662399318837BB35AA3BDD39CC3FFF3D0
S1130180DEE36224433420040114E664C774A44407
S113019085546AA54BB528850995EEE5CFF5ACC520
S11301A08DD55336722611163006D776F6669556D7
S11301B0B4465BB77AA719973887DFF7FEE79DD770
S11301C0BCC7C448E5588668A77840086118022867
S11301D02338CCC9EDD98EE9AFF9488969990AA9C0
S11301E02BB9F55AD44AB77A966A711A500A333A37
S11301F0122AFDDBDCCBBFFB9EEB799B588B3BBB10
S11302001AABA66C877CE44CC55C222C033C600CC6
S1130210411CAEED8FFDECCDCDDD2AAD0BBD688D5F
S1130220499D977EB66ED55EF44E133E322E511E16
S1130230700E9FFFBEEFDDDFFCCF1BBF3AAF599FAF
S1130240788F8891A981CAB1EBA10CD12DC14EF14F
S11302506FE18010A100C230E320045025404670B5
S11302606760B9839893FBA3DAB33DC31CD37FE3E0
S11302705EF3B1029012F322D23235421452776205
S11302805672EAB5CBA5A89589856EF54FE52CD5B0
S11302900DC5E234C324A014810466744764245455
S11302A00544DBA7FAB79987B8975FE77EF71DC7C0
S11302B03CD7D326F2369106B016576676761546A5
S11302C034564CD96DC90EF92FE9C899E9898AB910
S11302D0ABA94458654806782768C018E1088238F5
S11302E0A3287DCB5CDB3FEB1EFBF98BD89BBBAB20
S11302F09ABB754A545A376A167AF10AD01AB32A45
S1130300923A2EFD0FED6CDD4DCDAABD8BADE89D6F
S1130310C98D267C076C645C454CA23C832CE01C94
S1130320C10C1FEF3EFF5DCF7CDF9BAFBABFD98FFF
S1130330F89F176E367E554E745E932EB23ED10EE4
S1130340F01E00020E060C0411241FBECFEFD1E4F0
S1130350DEBFCDBF14E0A0E0B2E0E4E3F9E300E0E7
S11303600BBF02C007900D92A83BB107D9F716E066
S1130370A8EBB4E001C01D92A233B107E1F70E94DB
S11303804F170C94991C0C9400008FB7F89499277C
S113039008958FBF08951F920F920FB60F921124E4
S11303A08F93809180058F5F809380058F910F904C
S11303B00FBE0F901F901895282F9FB7F894E82F21
S11303C0FF27EE50FB4F80818F3F81F4E09126069A
S11303D0E21771F40BC02093190604C0FF27EE50F6
S11303E0FB4F20832093260620E007C025E005C0AC
S11303F0809119068F3F91F7EECF892F99278FBFF0
S1130400822F99270895EF92FF920F931F937FB73E
S1130410F894609180052091E100822F2091E20000
S1130420922F2091E300A22F2091E400B22F9C018F
S1130430AD018091E00083FF0FC06F5F8091E10008
S1130440E82E8091E200F82E8091E300082F80913D
S1130450E400182FA8019701872F99278FBF7727CA
S113046088279927FAE1660F771F881F991FFA9545
S1130470D1F7E6E05695479537952795EA95D1F754
S1130480622B732B842B952B1F910F91FF90EF9070
S113049008956F927F928F929F92AF92BF92CF9264
S11304A0DF92EF92FF920F931F930E9403027B014E
S11304B08C01209168053091690540916A0550913D
S11304C06B058091630590916405A0916505B091D9
S11304D06605820F931FA41FB51FE216F3060407D7
S11304E0150730F082179307A407B50758F005C025
S11304F082179307A407B507E0F5E816F9060A077B
S11305001B07B8F59C01AD012E193F09400B510B97
S1130510213060E0360760E0460762E0560768F184
S113052080E090E0A0E0B2E0E80EF91E0A1F1B1F75
S1130530E0926805F092690500936A0510936B05D3
S113054080E090E0A0E0BEEFE80EF91E0A1F1B1F3A
S1130550205030404040524020936305309364055E
S1130560409365055093660520E030E040E052E09A
S113057014C020E030E040E050E0809368059093A0
S11305806905A0936A05B0936B05109263051092F8
S11305906405109265051092660539014A01B6E0BA
S11305A0660C771C881C991CBA95D1F7A6E0EE0C52
S11305B0FF1C001F111FAA95D1F78091E100A82EFE
S11305C08091E200B82E8091E300C82E8091E4006F
S11305D0D82EA60195012E5F3F4F4F4F5F4FDA0192
S11305E0C9018E199F09A00BB10B86159705A805A3
S11305F0B90530F4A8019701260D371D481D591D72
S11306005093F8004093F7003093F6002093F500E0
S113061081E08093E0008091DF0081608093DF00BF
S11306208FEF80939D041F910F91FF90EF90DF90C7
S1130630CF90BF90AF909F908F907F906F900895D0
S11306401F920F920FB60F9211242F933F934F9343
S11306505F936F937F938F939F93AF93BF93EF9326
S1130660FF938091DF008E7F8093DF008FEF809374
S11306709D048091630590916405A0916505B091F6
S113068066050097A105B10521F481E00E94DC0113
S113069002C00E944902FF91EF91BF91AF919F91D7
S11306A08F917F916F915F914F913F912F910F9017
S11306B00FBE0F901F9018951F920F920FB60F92B6
S11306C011240F900FBE0F901F9018951F920F9238
S11306D00FB60F9211240F900FBE0F901F90189514
S11306E0809160052091840030918500B09B05C005
S11306F08F5F2091840030918500992799278695F2
S11307009795882736952795822B932B0895FF92EA
S11307100F931F93CF93DF93EC01FFB6F8940E94DD
S113072070038C0180E8C130D80768F0C050D0480D
S11307300E947003801B910BC817D907C8F70C0FD0
S11307401D1FC0E0D0E80E947003801B910BC817E6
S1130750D907C8F78F2D99278FBFDF91CF911F91AC
S11307600F91FF90089580917C0090917B008F7190
S11307709927089590917C00907E282F2F71922BB9
S113078090937C0085FF04C080917B00886003C047
S113079080917B00877F80937B000895ECE7F0E0F5
S11307A090818295880F880F807C9F73982B90830B
S11307B00895DF92EF92FF920F931F9380911D068D
S11307C0882321F08FE1FF24EE2405C078E0F72E82
S11307D062E0E62E82E0082FDFB6F89480910705E8
S11307E08E7F8093070510917C000E94B303282F0D
S11307F01295169516951370E11619F080E090E0A5
S11308000AC0802F8850863120F480E090E00217DF
S113081011F481E090E0982F9170990F8091070571
S11308208170202F220F220F892B822B80930705A2
S1130830802F0E94BA0380917C008F7D80937C007E
S11308408E2D0E94CE0320910705217038E0F31607
S113085081F580911A0690911B0631E68038930742
S113086018F087E090E024C030E3803C930718F050
S113087086E090E01DC038E18034930718F085E0ED
S113088090E016C03CE08030930718F084E090E0DC
S11308900FC036E08030930718F083E090E008C082
S11308A08050934018F082E090E002C080E090E035
S11308B0F82E87E0F822187F1F2918612295220F4D
S11308C0207E1F7D122B106C812F992780937A0034
S11308D08D2D99278FBF1F910F91FF90EF90DF907F
S11308E008951F920F920FB60F9211248F939F9326
S11308F080911F0690912006019690932006809384
S11309001F06892B29F4809162058F5F809362050D
S1130910809160058F5F809360059F918F910F9008
S11309200FBE0F901F9018951F920F920FB60F9243
S113093011240F900FBE0F901F9018951F920F92C5
S11309400FB60F9211240F900FBE0F901F901895A1
S11309501F920F920FB60F9211240F900FBE0F909B
S11309601F9018951F920F920FB60F9211240F909B
S11309700FBE0F901F90189521E030E002C0220FA7
S1130980331F8A95E2F780917205822B809372055A
S1130990EBE6F0E08081282B2083E8E6F0E080811C
S11309A08160808380E090E0089521E030E002C01F
S11309B0220F331F8A95E2F7922F9095809172054A
S11309C0892380937205EBE6F0E08081282B208355
S11309D0E8E6F0E080818160808380E090E0089523
S11309E01F920F920FB60F9211248F938091C00023
S11309F087FF02C08091C6008F910F900FBE0F90A9
S1130A001F90189578941F920F920FB60F9211248D
S1130A100F900FBE0F901F901895E2E4F1E0692744
S1130A20660FF11DE60FF11DC895982F802D3196A4
S1130A30C89590250895982F8091C704882389F537
S1130A40992379F531E03093C7048091A20480930F
S1130A50C8042091BC04822F81708093F10480919A
S1130A60A7049091A8049093CA048093C904809128
S1130A70BD048093CB0432273170267EE32FFF27F9
S1130A80EE0FFF1FED55FB4F808191819093A804D9
S1130A908093A704232B2093BC048EE00E94DC01E6
S1130AA008958091BC0480FF02C08B7F01C08D7FBC
S1130AB08093BC0408951F931FB7F8948091250672
S1130AC0882341F489E00E94DC01882319F481E041
S1130AD080932506812F99278FBF1F9108959FB773
S1130AE0F8948091FF058A3011F020E006C020E0E0
S1130AF080914A05843009F421E0892F99278FBF1A
S1130B00222349F08BE00E94DC018FB7F8949927E7
S1130B101092BB0406C08FB7F894992721E0209364
S1130B20BB048FBF08950F931F93082F162F809136
S1130B304A058130D9F0813038F0823009F44AC056
S1130B40833009F028C159C0002309F458C1109218
S1130B500C0610920B0610920306109214061092C3
S1130B605E05109282051092810539C1002309F0B7
S1130B7046C180918105909182050E940D05909354
S1130B8082058093810582E080934A0510931406C0
S1130B90143409F000C125C18695869503C080915F
S1130BA0BC048695817009F0F6C08091BC04992339
S1130BB011F0846001C082608093BC048091BC0405
S1130BC0877E88608093BC041092BD048FEF80936D
S1130BD0A20415C1002309F0DEC060935E05809174
S1130BE08105909182050E940D0590938205809362
S1130BF0810583E080934A0502C1809103068F3FFB
S1130C0009F4C9C0002309F461C0823008F4C3C0E8
S1130C10E0910B06EE2309F4EBC04E2F4150E42F74
S1130C20FF27E55FF94F82819927382F2227442334
S1130C3011F4E2E002C0E42FE150FF27E55FF94F31
S1130C4082819927282B392B8091810590918205E7
S1130C502817390709F09FC080E00E941B053091D6
S1130C605E058091780520917905982F9F5F9630D5
S1130C7008F090E0921771F0E82FFF27E858FA4F38
S1130C8032838F5F80937805863010F01092780558
S1130C900E945B0510920C0610920B0694E0909350
S1130CA04A05109203061092140610925E051092E3
S1130CB08205109281058091CC048D7F8093CC04B1
S1130CC08091BB04882309F49AC084C0823008F45C
S1130CD04EC0E0910C06FF27E55FF94F8281482F53
S1130CE05527342F2091BC04822F869586958695AE
S1130CF0837099278130910519F00297F9F40EC099
S1130D00277E20612093BC04442311F485E001C0B4
S1130D1080E08093BD043093A20410C08091BD0490
S1130D208F3260F4E091A704F091A804E80FF11D5C
S1130D3040838091BD048F5F8093BD0480910C0635
S1130D40E82FFF27E55FF94F62818F5F80930C06E0
S1130D50833010F010920C067727809181059091D2
S1130D6082050E940D0590938205809381058091F0
S1130D700B06E82FFF27E55FF94F12838F5F8093FF
S1130D800B06833010F010920B06809103068F5FE0
S1130D908093030634C010920C0610920B0614E0E4
S1130DA010934A05109203061092140610925E05E1
S1130DB010928205109281058091CC048D7F8093DE
S1130DC0CC0481E00E941B058091BB04882329F098
S1130DD010934A050E946F0512C0002381F081E040
S1130DE009CF8091BC04982F917080FDD5CED7CEC9
S1130DF080910F069927382F222742E01CCF1F919C
S1130E000F9108951F920F920FB60F9211242F93F2
S1130E103F934F935F936F937F938F939F93AF937E
S1130E20BF93EF93FF938091C80087FF42C0609106
S1130E30CE00E0918305F0918405309719F18091FB
S1130E40230690912406E80FF91F6083019690937E
S1130E5024068093230620912A0630912B068217BC
S1130E60930738F110928405109283058091FC0554
S1130E708330F9F08091C9008F778093C900109274
S1130E80FC0517C06E3719F460E081E010C0809152
S1130E90CC046D3721F482608093CC040AC081FFB6
S1130EA005C08D7F8093CC0480E2682780E00E9497
S1130EB09305FF91EF91BF91AF919F918F917F9196
S1130EC06F915F914F913F912F910F900FBE0F90B3
S1130ED01F9018952FB7F89433278093CE00E8EC31
S1130EE0F0E08081806480832FBF0895FC01611548
S1130EF0710519F481E090E0089580916C0590915A
S1130F006D05892B19F085E090E008957093130620
S1130F1060931206F0936D05E0936C0510924C05F6
S1130F2010924B0581E080934D058091C800806448
S1130F308093C8008091C90080648093C900808137
S1130F4021E030E030934C0520934B050E946A0762
S1130F5080E090E00895982F8D57823068F4809156
S1130F60CC0481608093CC0480E2892780930206BC
S1130F708DE78093030502C09093030561E070E060
S1130F8083E095E00E947607992708958FB7F89437
S1130F9099272091CC042E7F2093CC042EE7209314
S1130FA003058FBF61E070E083E095E00E9476075F
S1130FB09927089578941F920F920FB60F921124D7
S1130FC0FF920F931F932F933F934F935F936F93CE
S1130FD07F938F939F93AF93BF93CF93DF93EF93BD
S1130FE0FF9320914B0530914C058091120690910E
S1130FF013062817390780F4E0916C05F0916D050C
S1131000E20FF31F80812F5F3F4F30934C052093F5
S11310104B050E946A07D1C010926D0510926C05B1
S113102010924D058091C9008F7B8093C900FFB653
S1131030F8948091CC0480FF0EC08E7F8093CC0402
S1131040809102068093030561E070E083E095E0FF
S11310500E947607AFC08091FF05843009F48CC0EC
S1131060853040F4823021F18330B8F5813009F0C5
S11310709CC00DC0863009F48DC0863008F483C04E
S1131080873009F48EC0883009F08FC091C08091F8
S113109067050E94AB07082F83E08093FF056091EA
S11310A0670580912806909129060E940D0510C0BD
S11310B080911C060E94AB07082F83E08093FF05F4
S11310C060911C0680912806909129060E940D05C6
S11310D0909329068093280666C0E0918505FF2732
S11310E0EE0FFF1FE159FA4F80810E94AB07082FD2
S11310F010918505C12FDD27FE01EE0FFF1FE15979
S1131100FA4F608180912806909129060E940D056E
S11311109093290680932806209161052F5F2093E0
S11311206105113039F58091C304E091BE04F0915A
S1131130BF04E80FF11DE0818F5F8093C304909199
S1131140C204981730F482E08093700540E050E0C8
S113115002C04E2F5527DE01AA0FBB1FFD01E25925
S1131160FA4F8081823031F02F3F21F0A159BA4FDC
S11311704C9319C084E012C0809128060E94AB07EA
S1131180082F85E00BC0809129060E94AB07082F29
S113119086E004C00E94C607082F87E08093FF05FD
S11311A002C088E003C0002329F089E08093FF0592
S11311B00E945B058F2D99278FBFFF91EF91DF91DF
S11311C0CF91BF91AF919F918F917F916F915F91DB
S11311D04F913F912F911F910F91FF900F900FBE50
S11311E00F901F901895EF920F931F93AE2D99E0D7
S11311F0899FF0011124E957FA4F40835183628398
S113120073830483158326833783A17080858E7F3F
S11312108A2B8260808782E00E94DC011F910F91FB
S1131220EF9008959FB7F89480914A05882319F4A4
S113123084E080934A05892F99278FBF9FB7F8943C
S11312408091FF05882319F48AE08093FF05892F94
S113125099278FBF0E946F0580E090E00895E9EC24
S1131260F0E080818F7B808380818F7780831092F0
S1131270FC0510924D0580818860808380818F7B7E
S113128080838081806180838FEF80939D0480813F
S11312908068808380E090E008958FB7F894282FC9
S11312A03327922F8091FF058A3041F080914A05BF
S11312B0843021F02FBF89E090E008959FBF8AE039
S11312C00E94DC0180E090E00895992780FF02C02D
S11312D0749801C0749A81FF02C0759801C0759A10
S11312E082FF02C0769801C0769A83FF02C0779885
S11312F00895779A0895982F969596959695E6E889
S1131300F5E0E90FF11D877021E030E002C0220F03
S1131310331F8A95E2F78081822399270895CF931A
S1131320DF93882309F050C060931E06662311F4EE
S11313301D994AC08FB7F894282F3327922F809194
S1131340BA04882311F581E08093BA0410925F05F2
S11313502FBF8FB7F894C82FDD279C2F8091A1044D
S1131360813059F58091BA04813021F486E00E94DD
S1131370DC0109C0823009F580915F058093A104E6
S113138083E08093BA04CFBF1FC080915F05882398
S113139011F42FBF19C0809108058F3F71F4E091BB
S11313A0A004EE2351F00BC010929F0404C0FF2749
S11313B0E85FFA4F10821092A0049FBF05C080918D
S11313C09F048F3FA1F7F0CFDF91CF9108950F9342
S11313D01F930FB7F89411276093680570936905FC
S11313E080936A0590936B0520936305309364059D
S11313F040936505509366050E9449020FBF1F91F3
S11314000F910895813049F0813028F0823039F00D
S1131410833041F406C074980895759808957698B9
S113142008957798089580E090E00895CF93DF932E
S1131430982F80914D05882319F0CFEFDFEF0BC073
S1131440C92FDD27C7FDD0958C2F0E946A07809194
S1131450C80086FFFCCFCE01DF91CF9108950F9392
S11314601F93CF93DF93CDB7DEB722970FB6F894CF
S1131470DEBF0FBECDBF8C0180E00E94020A80E077
S113148090E89A8389831F930F9380E092E09F935F
S11314908F930E9462190F900F900F900F90898183
S11314A09A8101979A83898389819A81892BB9F7D3
S11314B0E6CF0F931F93CF93DF93EC019F938F930A
S11314C085E092E09F938F930E9462190F900F9092
S11314D00F900F908091040690910506C031D105BC
S11314E0A4F59C012D5C3440C217D30729F18AE18D
S11314F092E09F938F9389E292E09F938F933F931F
S11315002F93DF93CF938DEC90E09F938F938EE294
S113151092E09F938F9309E015E01F930F930E942D
S1131520AC19C8010E942F0A8DB79EB70E960FB64C
S1131530F8949EBF0FBE8DBFDF93CF938AE192E0F4
S11315409F938F9389E292E031C09C012D5C3440DB
S113155029F18AE192E09F938F9382E692E09F9330
S11315608F933F932F931F921F928FEC90E09F9342
S11315708F938EE292E09F938F9309E015E01F937F
S11315800F930E94AC19C8010E942F0A8DB79EB711
S11315900E960FB6F8949EBF0FBE8DBF1F921F927A
S11315A08AE192E09F938F9382E692E09F938F93D8
S11315B08CE492E09F938F930E9462198DB79EB73B
S11315C008960FB6F8949EBF0FBE8DBFDF91CF91E2
S11315D01F910F9108951F920F920FB60F9211242D
S11315E00F931F932F933F934F935F936F937F9327
S11315F08F939F93AF93BF93EF93FF9340917800A2
S11316005091790078948FB7F89499272091070521
S1131610322F3695317021708FBF222319F58091B6
S11316207A00877F80937A0080917305813021F05E
S1131630823009F047C00AC0332351F05093FE05AD
S11316404093FD0584E00E94DC013CC0332339F45F
S11316508DE790E00E9487030E94D90333C0109263
S1131660730530C00FB7F894112780917C000E9455
S1131670B3030FBF2FB7F894332780917A00582F04
S11316805770482F4072087D042B052B8074077B0C
S1131690082B00610F77802F992780937A00087DAB
S11316A0042B052B07730061802F992780937A0000
S11316B0087D042B052B077B0069802F99278093D5
S11316C07A002FBFFF91EF91BF91AF919F918F91BE
S11316D07F916F915F914F913F912F911F910F9146
S11316E00F900FBE0F901F9018958091F90590915F
S11316F0FA0501969093FA058093F9052091000666
S1131700309101068217930719F480E00E94DC01EE
S113171080910006909101069F938F938091F90523
S11317209091FA059F938F9384E692E09F938F9311
S11317300E9462198DB79EB706960FB6F8949EBFA5
S11317400FBE8DBF08958091FB051D9B0CC088239F
S1131750A1F481E08093FB0587E00E94DC0185E031
S11317600E94BC040895882341F01092FB0588E090
S11317700E94DC0185E00E94D50408951F920F9217
S11317800FB60F9211242F933F934F935F936F9350
S11317907F938F939F93AF93BF93EF93FF93209186
S11317A06B0093B1809172058927822385FF02C063
S11317B00E94A30BFF91EF91BF91AF919F918F91E5
S11317C07F916F915F914F913F912F910F900FBE39
S11317D00F901F901895AF92BF92CF92DF92EF9225
S11317E0FF920F931F93CF93DF935C011092FA053E
S11317F01092F90510927705109276058DEC94E01D
S113180090930506809304069F938F9382E792E05A
S11318109F938F938BE792E09F938F93CFE7D2E0D0
S1131820DF93CF930E94621920917605309177055A
S11318308DB79EB708960FB6F8949EBF0FBE8DBFA6
S11318402115310531F185E992E09F938F9382E66A
S113185092E09F938F933F932F931F921F9288E957
S113186090E09F938F938EE292E09F938F9309E091
S113187015E01F930F930E94AC19C8010E942F0A10
S11318802DB73EB7225F3F4F0FB6F8943EBF0FBE51
S11318902DBF1F921F9285E992E09F938F9382E65A
S11318A092E09F938F938CE492E09F938F930E9496
S11318B06219B0920106A09200068FB7F894992796
S11318C0C0900706D09008068FBF8FB7F894992769
S11318D020910405309105058FBF8DB79EB70896FA
S11318E00FB6F8949EBF0FBE8DBFC216D30631F15A
S11318F088EA92E09F938F938BEC92E09F938F936F
S11319003F932F93DF92CF9282EA90E09F938F933D
S113191084ED92E09F938F9309E015E01F930F935A
S11319200E94AC19C8010E942F0A2DB73EB7225F4E
S11319303F4F0FB6F8943EBF0FBE2DBFDF92CF923C
S113194088EA92E09F938F938BEC92E09F938F931E
S1131950DF93CF930E946219BF92AF9282EF92E01D
S11319609F938F930E946219C0E0D0E08DB79EB719
S11319700C960FB6F8949EBF0FBE8DBF5CC05FB7C8
S1131980F894E0910706F091080640E0309709F0DA
S113199041E0309739F12091040530910505211576
S11319A0310501F1CF010196909308068093070653
S11319B08E55954030F08EE495E090930806809320
S11319C0070680910706909108068217930729F469
S11319D0109205051092040505C09E012F5B20831B
S11319E000E001C0042F852F99278FBF442319F0ED
S11319F080E10E94DC010023E9F00AE010E01F937B
S1131A000F9380E193E09F938F930E946219109348
S1131A102206009321068091760590917705019620
S1131A2090937705809376050E94750B0F900F9025
S1131A300F900F902196CA15DB050CF4A0CF8FB739
S1131A40F8949927C0910706D09108068FBF35E016
S1131A50CE34D307E8F488E293E09F938F938AEA25
S1131A6090E09F938F938BE393E09F938F9309E090
S1131A7015E01F930F930E94AC19C8010E942F0A0E
S1131A808DB79EB708960FB6F8949EBF0FBE8DBF54
S1131A9088E293E09F938F9361E5E62E63E0F62E50
S1131AA0FF92EF920E9462190F900F900F900F9087
S1131AB0CE55D540F0F08CE593E09F938F938BEA5D
S1131AC090E09F938F938BE393E09F938F9309E030
S1131AD015E01F930F930E94AC19C8010E942F0AAE
S1131AE02DB73EB7285F3F4F0FB6F8943EBF0FBEE9
S1131AF02DBF8CE593E09F938F93FF92EF920E940A
S1131B0062190F900F900F900F90209176053091ED
S1131B10770560E1A616B1040CF082C021153105E9
S1131B2029F185E992E09F938F9382E692E09F9357
S1131B308F933F932F931F921F9283EB90E09F9379
S1131B408F938EE292E09F938F9309E015E01F93A9
S1131B500F930E94AC19C8010E942F0A8DB79EB73B
S1131B600E960FB6F8949EBF0FBE8DBF1F921F92A4
S1131B7085E992E09F938F9382E692E09F938F93FF
S1131B808CE492E09F938F930E9462198FB7F8942C
S1131B90992720910405309105058FBF8DB79EB715
S1131BA008960FB6F8949EBF0FBE8DBFC216D3061B
S1131BB031F188EA92E09F938F938BEC92E09F93AC
S1131BC08F933F932F93DF92CF9284EB90E09F9378
S1131BD08F9384ED92E09F938F9309E015E01F9318
S1131BE00F930E94AC19C8010E942F0A2DB73EB76B
S1131BF0225F3F4F0FB6F8943EBF0FBE2DBFDF925A
S1131C00CF9288EA92E09F938F938BEC92E09F931C
S1131C108F938FE792E09F938F930E9462191EC166
S1131C20E5012F97C217D30731F185E992E09F931D
S1131C308F9383E893E09F938F933F932F93DF9346
S1131C40CF9387EB90E09F938F938EE292E09F93E4
S1131C508F9309E015E01F930F930E94AC19C801FC
S1131C600E942F0A2DB73EB7225F3F4F0FB6F8945C
S1131C703EBF0FBE2DBFDF93CF9355E9E52E52E053
S1131C80F52EFF92EF9283E893E09F938F934CE4B9
S1131C90C42E42E0D42EDF92CF920E946219C091EA
S1131CA0F905D091FA0520917605309177058DB725
S1131CB09EB708960FB6F8949EBF0FBE8DBFC2178D
S1131CC0D30721F1FF92EF928FE993E09F938F93D3
S1131CD03F932F93DF93CF9389EB90E09F938F9360
S1131CE08EE292E09F938F9309E015E01F930F9388
S1131CF00E94AC19C8010E942F0A2DB73EB7225F7B
S1131D003F4F0FB6F8943EBF0FBE2DBFDF93CF9366
S1131D10FF92EF923FE9E32E33E0F32EFF92EF922E
S1131D20DF92CF920E9462198FB7F894992720917D
S1131D300405309105058FBF8DB79EB708960FB681
S1131D40F8949EBF0FBE8DBF2115310531F188EA8D
S1131D5092E09F938F9382E692E09F938F933F93B9
S1131D602F931F921F928BEB90E09F938F9384EDA0
S1131D7092E09F938F9309E015E01F930F930E94C5
S1131D80AC19C8010E942F0A2DB73EB7225F3F4FFE
S1131D900FB6F8943EBF0FBE2DBF1F921F9288EA64
S1131DA092E09F938F9382E692E09F938F938FE7C5
S1131DB092E09F938F930E946219C091F905D0918C
S1131DC0FA052F96D093FA05C093F90520910006E1
S1131DD0309101068DB79EB708960FB6F8949EBF52
S1131DE00FBE8DBFC217D30721F18AEA93E09F93F8
S1131DF08F93FF92EF923F932F93DF93CF9380ECD7
S1131E0090E09F938F938EE292E09F938F9309E0EB
S1131E1015E01F930F930E94AC19C8010E942F0A6A
S1131E202DB73EB7225F3F4F0FB6F8943EBF0FBEAB
S1131E302DBFDF93CF938AEA93E09F938F93FF9212
S1131E40EF92DF92CF920E946219809100069091E6
S1131E500106019690930106809300068DB79EB704
S1131E6008960FB6F8949EBF0FBE8DBFDF91CF9139
S1131E701F910F91FF90EF90DF90CF90BF90AF90A4
S1131E800895FF920F931F93CF93DF93F82EEB01E6
S1131E908FB7F894282F33278091BA04833021F028
S1131EA02FBF8FEF90E004C08091A1042FBF99272A
S1131EB0082F8FB7F894182F8091BA04833091F5C6
S1131EC08091A104801771F580919F0420E030E097
S1131ED08F3F11F421E030E0232BF9F48F3F19F404
S1131EE02FEF30E00EC0282F3327F901E85FFA4FB7
S1131EF0808180939F048F3F11F48093A0048FEF1F
S1131F00808320935F058FEF8093A10481E0809309
S1131F10BA0486E00E94DC0105C081E08093A1043C
S1131F201092BA041FBF002309F051C0FF2009F02A
S1131F304EC080911E06882399F5C051DE4008F0FA
S1131F4046C00FB7F89480E00E946509759880E553
S1131F5093EC0E94870310E08EB190E289278EB93A
S1131F608EB190E489278EB980E593EC0E948703B3
S1131F701F5F143089F780E00E9465098FEF80931A
S1131F806400809365008093630083B7816083BF9E
S1131F90889583B78E7F83BF802F99278FBF17C003
S1131FA08130A9F4C158DC4090F08FB7F89480E0F8
S1131FB00E946509749880E593EC0E9487038EB1B2
S1131FC090E189278EB98EB180588EB9F4CFDF9114
S1131FD0CF911F910F91FF9008959F92AF92BF925E
S1131FE0CF92DF92EF92FF920F931F935B016C01EC
S1131FF090908F0591FE20C020918705309188052F
S11320004091890550918A05E0908B05F0908C05EC
S113201000918D0510918E05DC01CB01821B930B81
S1132020A40BB50B8E159F05A007B10728F0E7E8B0
S1132030F5E060E070E022C0E0E9F5E090909805FA
S113204091FEA5C020919005309191054091920593
S113205050919305E0909405F090950500919605B4
S113206010919705A21AB30AC40AD50AAE14BF0484
S1132070C006D10608F48BC061E070E090FE04C095
S113208080858D7F808708C02E0D3F1D401F511F06
S11320902083318342835383662321F0613009F026
S11320A076C01AC0559B0FC055980E940302AB011D
S11320B0BC01E1E0EE2E01E010E020E030E080E041
S11320C00E94F30864C04D9B02C061E001C060E05F
S11320D080E00E948F095BC08FB7F894282F3327C4
S11320E0122F8091B904882381F581E08093B9048B
S11320F0109206062FBF2FB7F894332780917A00E9
S1132100806880937A008FEF80939D042FBF8FB7F0
S1132110F894082F1127902F80919E04813099F410
S11321208091B904813021F483E00E94DC0109C06C
S1132130823049F48091060680939E0483E0809364
S1132140B9040FBF22C09FBF20C080910606882318
S113215011F42FBF1AC080E00E947B09882319F074
S113216085E090E007C080918605816080938605B4
S113217080E090E01FBF80932706882341F0809879
S113218060E070E00E94410F02C01092270682E0D6
S11321900E94DC011F910F91FF90EF90DF90CF9090
S11321A0BF90AF909F9008954F925F926F927F92ED
S11321B08F929F92AF92BF92CF92DF92EF92FF9253
S11321C00F931F93CF93DF93E82FFF27E131F1059E
S11321D008F037C6E057FF4FEE0FFF1F0590F4914C
S11321E0E02D0994C091F705D091F8052196D0937C
S11321F0F805C093F705C330D10509F42AC2C430E9
S1132200D10534F4C130D10591F1229761F41AC299
S1132210C530D10509F42DC2C530D1050CF422C254
S1132220269709F42DC2B6EBEB2EB3E0FB2EFF92FA
S1132230EF9288ED90E09F938F938BE393E09F93CD
S11322408F9309E015E01F930F930E94AC19C80106
S11322500E942F0AFF92EF9281E593E09F938F9360
S11322600E9462192DB73EB7245F3F4FE5C180E15C
S113227090E09F938F9382ED93E09F938F938FEFE2
S113228093E09F938F93ACE4AA2EA2E0BA2EBF9260
S1132290AF920E94621980E194E09F938F9381E54D
S11322A093E09F938F930E9462198FB7F8949927B4
S11322B020910706309108068FBF4DB75EB7445F83
S11322C05F4F0FB6F8945EBF0FBE4DBF21153105A9
S11322D029F18FE194E09F938F9382E692E09F939C
S11322E08F933F932F931F921F928FE790E09F93BA
S11322F08F9384ED92E09F938F9309E015E01F93F1
S11323000F930E94AC19C8010E942F0A8DB79EB783
S11323100E960FB6F8949EBF0FBE8DBF1F921F92EC
S1132320FFE14F2EF4E05F2E5F924F92E2E6CE2E55
S1132330E2E0DE2EDF92CF927FE7872E72E0972EC7
S11323409F928F920E9462198FB7F89499272091D7
S11323500405309105058FBF4DB75EB7485F5F4FE9
S11323600FB6F8945EBF0FBE4DBF2115310519F1AC
S113237088EA92E09F938F93DF92CF923F932F93BB
S11323801F921F9280E890E09F938F9384ED92E0D8
S11323909F938F9309E015E01F930F930E94AC194C
S11323A0C8010E942F0A8DB79EB70E960FB6F894F7
S11323B09EBF0FBE8DBF1F921F9268EA662E62E019
S11323C0762E7F926F92DF92CF929F928F920E948D
S11323D062192091090630910A064DB75EB7485F2D
S11323E05F4F0FB6F8945EBF0FBE4DBF2115310588
S11323F019F183E494E09F938F93DF92CF923F93FC
S11324002F931F921F9282E890E09F938F938EE206
S113241092E09F938F9309E015E01F930F930E941E
S1132420AC19C8010E942F0A8DB79EB70E960FB63D
S1132430F8949EBF0FBE8DBF1F921F9253E4E52EEA
S113244054E0F52EFF92EF92DF92CF92BF92AF92BB
S11324500E9462198091090690910A060196909350
S11324600A06809309068FB7F89499274EE4C42E80
S113247045E0D42ED0920505C0920405D0920806FA
S1132480C09207068FBF2091090630910A064DB706
S11324905EB7485F5F4F0FB6F8945EBF0FBE4DBF87
S11324A02130310519F1FF92EF9283E594E09F9377
S11324B08F933F932F93DF93CF9384E890E09F9380
S11324C08F938EE292E09F938F9309E015E01F9320
S11324D00F930E94AC19C8010E942F0A8DB79EB7B2
S11324E00E960FB6F8949EBF0FBE8DBFDF93CF93A9
S11324F0FF92EF9283E594E09F938F93BF92AF9204
S11325000E9462191F921F9285E594E09F938F9316
S113251088E594E09F938F93BF92AF920E946219D3
S11325208FB7F894992720910706309108068FBF3A
S11325304DB75EB7405F5F4F0FB6F8945EBF0FBEF6
S11325404DBF55E02E34350719F15F924F9280E666
S113255094E09F938F933F932F93DF92CF9287E8DA
S113256090E09F938F9384ED92E09F938F9309E083
S113257015E01F930F930E94AC19C8010E942F0A03
S11325808DB79EB70E960FB6F8949EBF0FBE8DBF43
S1132590DF92CF925F924F92C0E6D4E0DF93CF9365
S11325A09F928F920E9462198FB7F8949927209175
S11325B00405309105058FBF4DB75EB7485F5F4F87
S11325C00FB6F8945EBF0FBE4DBF55E02E343507ED
S11325D009F17F926F92DF93CF933F932F93DF9212
S11325E0CF9288E890E09F938F9384ED92E09F933D
S11325F08F9309E015E01F930F930E94AC19C80153
S11326000E942F0A8DB79EB70E960FB6F8949EBF00
S11326100FBE8DBFDF92CF927F926F92DF93CF93E5
S11326209F928F920E94621981E090E00E94EB0BCE
S11326302DB73EB7285F3F4F0FB6F8943EBF0FBE8D
S11326402DBFFFC381E090E00E94590A88E090E02A
S113265006C088E090E00E94590A8FE090E00E9452
S1132660EB0BEFC38FE090E00E94590A80E190E009
S1132670F6CF80E190E00E94590A80E290E0EFCF2B
S113268080E290E00E94590A81E00E94020A8CE6EE
S113269094E00E947919FFCF80910605882361F5A3
S11326A02091150630911606409117065091180690
S11326B0EFB7F894FF2760916805709169058091E0
S11326C06A0590916B05E0906305F09064050091B4
S11326D06505109166056E0D7F1D801F911FEFBF6C
S11326E02093150630931606409317065093180648
S11326F0109206050E94E7090E9403026FC00E941F
S113270003025B016C018091DF008E7F8093DF0008
S11327108FEF80939D0480918F0581FF25C0809168
S1132720870590918805A0918905B0918A05A60135
S11327309501281B390B4A0B5B0BE0908B05F0903D
S11327408C0500918D0510918E05E21AF30A040B95
S1132750150B3FEFE3163FEFF3063FEF03073FE7A9
S1132760130711F061E009C03FEFE32E3FEFF32EB2
S11327703FEF032F3FE7132F60E08091980581FF1F
S113278021C08091900590919105A0919205B091FE
S11327909305A6019501281B390B4A0B5B0BDA0143
S11327A0C901209194053091950540919605509169
S11327B09705281B390B4A0B5B0B2E153F05400769
S11327C051072CF0662309F43CC3A80197011216A3
S11327D01306140615062CF0C601B5010E94ED0F70
S11327E030C3209315063093160640931706509372
S11327F0180681E080930605C601B5010E94E70929
S113280020C32FB7F89433278091060680939E0443
S113281083E08093B9042FBF80919E04882309F03C
S113282010C381E08093730510921D060E94D903A2
S113283008C310927305C090FD05D090FE058091E9
S11328401D06882309F0FDC28FB7F894E82E809105
S1132850B904833009F040C080919E048823E1F5D7
S113286080918605882309F0E3C2D4C2EF2DE69552
S1132870E695E695FF274F2D5527EA57FA4F9A011B
S11328802770307081E090E002C0880F991F2A956C
S1132890E2F78095208128232083C093B80411C0D7
S11328A02196C130D10511F4C0E0D0E0FC2E8C2F6C
S11328B00E947B098823D1F6C017D10789F74FEF0F
S11328C050E0409306068FEF80939E0481E080934E
S11328D0B90483E00E94DC01EFBE109227068098C1
S11328E0D092EE04C092ED0485E0A9C2809127063F
S11328F08823F1F46091ED047091EE048827992700
S11329002CED35E040E050E00E941A192AE096953B
S11329108795779567952A95D1F726E030E040E0D2
S113292050E00E941A19709375056093740504C0F1
S11329301092750510927405609174057091750577
S1132940809127060E94410F7CC22FB7F894332749
S113295080915F058093A10483E08093BA042FBF24
S11329608898809A0E940302AB01BC0101E0E02E2A
S113297001E010E020E030E081E00E94F30861C251
S11329800E944D099927882309F45BC2893009F410
S113299058C287E054C20E9412099927882309F477
S11329A050C2893009F44DC288E049C28FB7F89407
S11329B0109225062091FF0540E0283009F441E0FB
S11329C030E0293009F431E0442311F4332351F089
S11329D01092FF05E0918505FF27EE0FFF1FE259D6
S11329E0FA4F108299278FBF442311F4332331F116
S11329F09FB7F89480911C068F5F80931C0680918A
S1132A006705833479F420917905809178058217DC
S1132A1079F0822F8F5F80937905863048F0109289
S1132A20790506C0A0E0442309F4A1E071E002C0E6
S1132A30A0E070E0892F99278FBF06C0222311F0F0
S1132A4010E06CC0A0E070E08FB7F8949927209153
S1132A50BB048FBF222341F08FB7F89499272AE053
S1132A602093FF058FBF42C08FB7F89499276091D8
S1132A706E05409170058FBF8FB7F894282F3327C8
S1132A8050E09091780580917905981709F451E008
S1132A902FBF552341F5662331F55FB7F89482E0E3
S1132AA080936E058FB7F894282F332740E09091D8
S1132AB0780580917905981709F441E02FBF4423E4
S1132AC011F080E006C0E0917905FF27E858FA4F3D
S1132AD0828180936F0583E4809367051092850556
S1132AE0852F99270EC04150423010F010E00BC0E2
S1132AF08FB7F894992725E42093670521E0209364
S1132B0085058FBF11E0772349F08FB7F894992793
S1132B10A093C4048FBF8DE00E94DC018FB7F894AA
S1132B20C82FDD278091FF058A3021F40E946F05AC
S1132B30CFBF87C1CFBF112309F483C12FB7F89446
S1132B40332710922906109228061092610581E01D
S1132B508093FF052FBF0E94C607882309F471C123
S1132B608FB7F894992729E02093FF058FBFC9C038
S1132B700E942F098FB7F89499271092FF0510929D
S1132B804A05D2C08CE05BC18091C900877F8093E5
S1132B90C9008091C9008F7E8093C9008FEF809314
S1132BA09D044FC11092C1041092C0048FB7F894D1
S1132BB099272091C4048FBF8091C504811123E01B
S1132BC08091C604882309F43CC1823709F039C1D5
S1132BD0222309F033C18FB7F89488E190E029E00B
S1132BE00FB6F894A895809360000FBE2093600000
S1132BF0FFCF8FB7F89499272091C804C091C904D6
S1132C00D091CA043091CB041091F1048FBF2223D8
S1132C10A1F0223791F4333081F48881823569F44C
S1132C208981833551F48A81843539F4D093F00451
S1132C30C093EF048FE00E94DC018FB7F894E12F7A
S1132C40FF27EE0FFF1FED55FB4FD183C08320916B
S1132C50BC04112311F02B7F01C02D7F2093BC04F1
S1132C601092C704992760C0E091EF04F091F0043A
S1132C708AE5808382E4818380E582834091EF0446
S1132C805091F0048091C0049091C104892B09F003
S1132C90D5C02FB7F89433271092C3041092C404FC
S1132CA05093BF044093BE0482E090E09093C1042B
S1132CB08093C00442E74093C6041092C50483E0A5
S1132CC08093C2042FBF8FB7F894282F33278091A5
S1132CD0FF058A3011F42FBF17C02FBF9FB7F89498
S1132CE080917005882311F020E006C081E0809374
S1132CF070054093710521E0892F99278FBF222306
S1132D0019F00E945B059DC01092C1041092C0048A
S1132D1095C08FB7F8949927282FE0900706F09074
S1132D200806E114F10411F48FBF8BC0C0900405B0
S1132D30D0900505C114D10441F4F0920505E09248
S1132D400405EE24FF2401E010C0EC14FD0410F08F
S1132D5057010AC0AEE5AA2EA5E0BA2EF0EFEF2E79
S1132D60FFEFFF2EEA0CFB1C00E02FBFC114D104BF
S1132D7099F1CA14DB0480F580E10E94DC01E601CC
S1132D801991812F99279F938F938EE794E09F93B6
S1132D908F930E946219E0910406F0910506119345
S1132DA0F0930506E09304060E94750B0F900F90B4
S1132DB00F900F90CA15DB0519F72FB7F89480917F
S1132DC0040590910505892B21F0F0920505E09208
S1132DD00405822F99278FBF002399F11F921F9218
S1132DE080E193E09F938F930E94621910922206D0
S1132DF01092210680917605909177050196909323
S1132E007705809376050E94750B0F900F900F90B5
S1132E100F9017C081E080939E041092B9048091B2
S1132E207A008F7780937A008FEF80939D0454CD3E
S1132E308091B804082F1127E80132CD8FE00E9459
S1132E40DC01DF91CF911F910F91FF90EF90DF9004
S1132E50CF90BF90AF909F908F907F906F905F9036
S1132E604F900895809119068F3FB1F0282F332792
S1132E70F901EE50FB4F8081809319068F3F11F4C6
S1132E80809326068FEF80832F3F31F0822F0E949C
S1132E90D41081E090E0089580E090E00895EF92EE
S1132EA0FF920F931F93FFB6F89414BE88E10FB6F8
S1132EB0F89480936000109260000FBE41E150E0EE
S1132EC06FEF70E082EF94E00E945B198FEF8093C4
S1132ED0190680932606809135018061809335011F
S1132EE08091340180618093340180913301806149
S1132EF0809333018091320180618093320185B7E0
S1132F00806885BF85B7806885BF80E8809361004D
S1132F108FE08093610091E09093810080E2809340
S1132F20B6009093B10060E070E0EFEFFFEFA0E037
S1132F30BEEF8091B2008823E1F740918400509164
S1132F4085008091B2008034E1F7209184003091B3
S1132F508500241B350BE217F30708F4F901261743
S1132F60370708F4B901CB018E1B9F0B029720F49D
S1132F70AF5FA23330F007C0EFEFFFEFA0E060E0F7
S1132F8070E0B150B1F630931B0620931A061092EC
S1132F90B1008091B1008093810080918100809381
S1132FA0B6008091B600992783709070892BC9F779
S1132FB0809180008C7F8093800080918100807E4E
S1132FC082608093810080916F00816080936F00A4
S1132FD080E28093B6008091DC008F7C80638093D4
S1132FE0DC008091DF0088608093DF008091DF0047
S1132FF08E7F8093DF008FEF80939D048091DC00AF
S11330008E7F8093DC0010927A0080913901826077
S1133010809339016C9A6D9A6E9A6F9A749A759A24
S1133020769A779A569A5E9A5D98559A0E94030208
S1133030AB01BC0191E0E92E01E010E020E030E0BA
S113304080E00E94F3080E9432178823E1F789EA9E
S113305094E090932F0680932E060E942F0912E08D
S113306006E060911A0670911B068827992728E0CC
S113307037E040E050E00E9439192150304020935D
S1133080C400832F99278093C5001093C000009338
S1133090C2001092C1002093CC008093CD00109305
S11330A0C8000093CA001092C90010926E051092D5
S11330B070058AE08093FF05109261051092670500
S11330C010921C06109229061092280610922506CA
S11330D01092850510920C0610920B0684E08093E2
S11330E04A05109203061092140610925E0510927F
S11330F082051092810510927905109278051D9B26
S11331000AC081E08093FB0587E00E94DC0185E032
S11331100E94BC0408C01092FB0588E00E94DC01F8
S113312085E00E94D5048FEF8093080510928605F0
S11331300E9432178823E1F78F2D99278FBF789447
S113314080E00E94DC018FB7F894A82FBB2757C0FA
S113315080919D0487FF4AC08091C10083FD0FC008
S11331608091C10084FD0BC08091C90083FD07C01C
S11331708091C90084FD03C045E050E002C040E0F6
S113318050E080916F008E7219F060E070E002C030
S113319065E070E080917A0087FF03C021E030E0B1
S11331A002C025E030E08091DC0085FF03C0E3E04D
S11331B0F0E002C0E5E0F0E0862F461708F4842F23
S11331C09927821708F4282F822F99278E1708F43D
S11331D0E82FFF27E0939D0483B7FF27E7FDF095D1
S11331E0EE5BFC4FE491807F8E2B83BF83B78160BD
S11331F083BF78948895F89483B78E7F83BF80913A
S113320019068F3F09F4A4CF282F3327F901EE5074
S1133210FB4F8081809319068F3F11F4809326061B
S11332208FEF80832F3F09F493CFAFBF822F0E948B
S1133230D41089CF629FD001739FF001829FE00D6B
S1133240F11D649FE00DF11D929FF00D839FF00D21
S1133250749FF00D659FF00D9927729FB00DE11DCD
S1133260F91F639FB00DE11DF91FBD01CF011124AA
S11332700895A1E21A2EAA1BBB1BFD010DC0AA1FB3
S1133280BB1FEE1FFF1FA217B307E407F50720F0CB
S1133290A21BB30BE40BF50B661F771F881F991F46
S11332A01A9469F760957095809590959B01AC018F
S11332B0BD01CF010895DC0101C06D934150504020
S11332C0E0F70895A2E0B0E0E8E6F9E10C94721C9E
S11332D0FE01379661917191FA83E983AF01809180
S11332E02E0690912F060E94D119E2E022960C94AA
S11332F08E1C0F931F93CF93DF938C01E0912E06C6
S1133300F0912F06838181FF1FC0C0E0D0E00AC086
S1133310FD0120853185BD01F9010995892B11F045
S1133320CFEFDFEFF80181918F01A0912E06B091CC
S11333302F06882369F7FD0120853185BD018AE0C8
S1133340F9010995892B11F0CFEFDFEFCE01DF9161
S1133350CF911F910F910895A0E1B0E0E2EBF9E164
S11333600C94701C0F89188D86E08E831C830B834C
S11333708FEF9FE798878F83AE01455E5F4F5A8337
S11333804983698D7A8DCE0103960E94D1192985CE
S11333903A85020F131FF8011082E4E060960C9442
S11333A08C1CABE0B0E0E7EDF9E10C94641C3C014B
S11333B04B016A01FC0117821682838181FD03C0DF
S11333C08FEF9FEFDAC1F3013381F40133FD85916F
S11333D033FF81914F01882309F4CCC1853239F43C
S11333E033FD859133FF81914F01853229F4B30177
S11333F099270E94D71BE7CF00E0442455244AE0D4
S11334000032B0F48B3269F08C3228F4803251F0FF
S1133410833271F40BC08D3239F0803349F401608A
S113342028C00260046025C0086023C0006121C078
S113343007FD29C0282F20532A3078F406FF06C040
S1133440549EC0011124522E580E13C0449EC00134
S11334501124422E480E00620CC08E3221F406FD67
S113346089C1006406C08C3611F4006802C0883635
S113347051F4F40133FD859133FF81914F01882389
S113348009F46FC0BDCF982F8554833018F0805253
S1133490833038F424E030E0C20ED31E8FE38983F6
S11334A00FC0933631F0933799F0933509F05BC030
S11334B023C0F6018081898322E030E0C20ED31E4E
S11334C07E010894E11CF11C51E0A52EB12C12C020
S11334D0F601E080F18006FD03C06FEF7FEF02C0CC
S11334E0652D772722E030E0C20ED31EC7010E946B
S11334F0CC1B5C010F7713C0F601E080F18006FD60
S113350003C06FEF7FEF02C0652D772722E030E024
S1133510C20ED31EC7010E94C11B5C01006803FFD9
S113352007C01BC0B30180E290E00E94D71B4A94FD
S1133530842D9927A816B906A8F30FC0F70107FD33
S1133540859107FF81917F01B30199270E94D71BC1
S113355041104A940894A108B108A114B10471F768
S113356006C190E03EC0943611F0993691F507FFFC
S11335700AC0F601608171818281938124E030E088
S1133580C20ED31E0DC0F601808191819C01B90148
S1133590882777FD8095982F42E050E0C40ED51E11
S11335A04FE6B42EB02297FF09C090958095709590
S11335B061957F4F8F4F9F4F50E8B52A8E010F5F63
S11335C01F4F2AE030E0A8010E94041CA82EA01A74
S11335D04DC0953731F43FEEF32EF0222AE030E06F
S11335E023C029EFF22EF0229F3661F0903720F4A9
S11335F0983509F0BFC012C0903739F0983709F0F8
S1133600B9C005C028E030E00FC080E1F82AF4FE1C
S113361002C094E0F92A20E130E006C0F4FE02C0C2
S1133620E6E0FE2A20E132E0F7FE0AC0F6016081FE
S113363071818281938144E050E0C40ED51E0BC099
S1133640F60180819181AC01BA0188279927E2E0D3
S1133650F0E0CE0EDF1E8E010F5F1F4FA8010E9407
S1133660041CA82EA01A8FE7B82EBF20B6FE10C0E7
S1133670FEEFBF22A51460F42B2D332724FF1AC0BC
S113368022FF02C0052D09C02FEEB222052D01C074
S11336900A2D2B2D332724FF0EC0FE01EA0DF11D48
S11336A08081803319F439EEB32209C00F5F22FF01
S11336B006C004C0052D822F867809F00F5FEB2C1D
S11336C0FF24E3FC14C0E0FE0FC0041510F05A2CD4
S11336D00BC0542C501A5A0C042D06C0B30180E2BE
S11336E090E00E94D71B0F5F0415C0F304C00415BB
S11336F010F4401A01C04424E4FE10C0B30180E376
S113370090E00E94D71BE2FE1EC0E1FE03C088E5E4
S113371090E002C088E790E0B3010CC08E2D86785B
S113372091F0E1FE02C08BE201C080E2B7FC8DE2C1
S1133730B30199270E94D71B06C0B30180E390E030
S11337400E94D71B5A94A514C0F3AA94FE01EA0D53
S1133750F11D8181B30199270E94D71BAA2039F05A
S1133760F4CFB30180E290E00E94D71B4A94442036
S1133770C1F729CEF30186819781E0E12B960C9461
S1133780801CFC010590615070400110D8F78095B1
S113379090958E0F9F1F0895FC0161507040019019
S11337A00110D8F7809590958E0F9F1F08950F9361
S11337B01F93CF93DF938C01EB018B81992781FFBA
S11337C01BC082FF0DC02E813F818C819D812817F3
S11337D0390764F4E881F9810193F983E88306C029
S11337E0E885F985802F0995892B31F48E819F8195
S11337F001969F838E8302C00FEF1FEFC801DF91F4
S1133800CF911F910F910895FA01AA27283051F101
S1133810203181F1E8946F936E7F6E5F7F4F8F4FFD
S11338209F4FAF4FB1E03ED0B4E03CD0670F781F5C
S1133830891F9A1FA11D680F791F8A1F911DA11D41
S11338406A0F711D811D911DA11D20D009F468947A
S11338503F912AE0269F11243019305D3193DEF622
S1133860CF010895462F4770405D4193B3E00FD0D8
S1133870C9F7F6CF462F4F70405D4A3318F0495DC3
S113388031FD4052419302D0A9F7EACFB4E0A695A6
S11338909795879577956795BA95C9F700976105C8
S11338A0710508959B01AC010A2E0694579547951E
S11338B037952795BA95C9F7620F731F841F951F13
S11338C0A01D08952F923F924F925F926F927F9224
S11338D08F929F92AF92BF92CF92DF92EF92FF921C
S11338E00F931F93CF93DF93CDB7DEB7CA1BDB0BC8
S11338F00FB6F894DEBF0FBECDBF09942A8839886D
S113390048885F846E847D848C849B84AA84B98473
S1133910C884DF80EE80FD800C811B81AA81B9817F
S1133920CE0FD11D0FB6F894DEBF0FBECDBFED0193
S10739300895FFCF24
S113393425730D0A0056616C69646174696E6720AD
S113394466696C6C2025640D0A00727870202D2041
S113395472784275666665720073697A65004641D9
S1133964494C5B25645D3A20256420213D2025646F
S11339742028257320213D20257329005061737369
S11339843A202573203D3D20257320282564290DE4
S11339940A003000657674202564206F662025644F
S11339A40A00727842756666657200727870005017
S11339B46173733A202573203D3D20257320282507
S11339C470290D0A0068755F756172744572726FAF
S11339D4725F636F756E740063616C6C204465621E
S11339E4756744656661756C7448646C635561728B
S11339F4742E72624C6F616428290072625F73745E
S1133A04617274004641494C5B25645D3A2025701B
S1133A1420213D2025702028257320213D20257355
S1133A24290046696C6C2062756666657220776944
S1133A34746820256420656C656D656E74730A0072
S1133A4448646C63556172742E7561727445727244
S1133A546F722025640D0A0072696E675F62756671
S1133A64666572203C3D20726273004641494C5B9A
S1133A7425645D3A2025732069732066616C73653F
S1133A8400506173733A2025730D0A007262732027
S1133A943C2072696E675F627566666572202B20CE
S1133AA472696E675F6275666665725F6C656E6780
S1133AB474680073697A65202D2072696E675F6289
S1133AC475666665725F63617061636974790065C4
S1133AD476656E74436F756E7400706F73744F6E95
S1133AE44576656E7400212022556E7265636F6796
S1133AF46E697A6564207465737420737461676590
S1133B04220063616C6C2044656275674465666178
S1133B14756C7448646C63556172742E72696E6753
S1133B244275666665724C656E677468282900522E
S1133B34696E674275666665724C656E6774680083
S1133B4421212072696E675F62756666657200631F
S1133B54616C6C20446562756744656661756C7458
S1133B6448646C63556172742E726253746F726527
S1133B742829007373635F73746172745F636F7570
S1133B846E7400310072630053554343455353002C
S1133B9472696E675F62756666657200416C6C205B
S1133BA47465737473207061737365640D00486481
S1133BB46C63556172742E726563656976656442DB
S1133BC4797465203078253032780D0A00FF01FFBE
S1133BD4FF01FF9905C805990500000002000000D3
S10B3BE400160A0000000000B5
S9030000FC
