:100000000C94B0010C94CF010C94CF010C94CF014F
:100010000C94CF010C94CF010C94CF010C94CF0120
:100020000C94CF010C94EE190C94CF010C94CF01D9
:100030000C94CF010C94CF010C94CF010C94CF0100
:100040000C94EE110C94D0110C94DA110C94E41170
:100050000C94BF110C94CF010C94CF010C94CF01E0
:100060000C9437060C9443090C94CF010C941B0A92
:100070000C94CF010C94CF010C94CF010C94CF01C0
:100080000C94CF010C94CF010C94CF010C94CF01B0
:100090000C94340B0C94CF010C94460B0C94CF01B0
:1000A0000C94CF010C94CF010C94CF010C94CF0190
:1000B0000C94CF010C94CF010C94CF010C94CF0180
:1000C0000C94CF010C94CF010C94CF010C94CF0170
:1000D0000C94CF010C94CF010C94CF010C94CF0160
:1000E0000C94CF010C9442290C94CF010C947029EC
:1000F0000C949E290C94B8280C94CF010C94E628FB
:100100000C9414290C9479110C9485280C94B51135
:100110000C9468110C94CF010C94CF010C94CF0176
:100120001B402F4033404240514036415F416141C6
:100130006F41A141DE4133426642AA48C042DD42DE
:10014000C743E9433A4404460E46524657463247AF
:100150006747A147A947C347114800002110422023
:1001600063308440A550C660E770088129914AA198
:100170006BB18CC1ADD1CEE1EFF13112100273320F
:100180005222B5529442F772D662399318837BB3E8
:100190005AA3BDD39CC3FFF3DEE36224433420049F
:1001A0000114E664C774A44485546AA54BB5288538
:1001B0000995EEE5CFF5ACC58DD5533672261116EF
:1001C0003006D776F6669556B4465BB77AA7199788
:1001D0003887DFF7FEE79DD7BCC7C448E558866877
:1001E000A7784008611802282338CCC9EDD98EE9D8
:1001F000AFF9488969990AA92BB9F55AD44AB77A4F
:10020000966A711A500A333A122AFDDBDCCBBFFB27
:100210009EEB799B588B3BBB1AABA66C877CE44C5E
:10022000C55C222C033C600C411CAEED8FFDECCD77
:10023000CDDD2AAD0BBD688D499D977EB66ED55E2E
:10024000F44E133E322E511E700E9FFFBEEFDDDFC7
:10025000FCCF1BBF3AAF599F788F8891A981CAB153
:10026000EBA10CD12DC14EF16FE18010A100C23085
:10027000E3200450254046706760B9839893FBA340
:10028000DAB33DC31CD37FE35EF3B1029012F322D5
:10029000D2323542145277625672EAB5CBA5A89590
:1002A00089856EF54FE52CD50DC5E234C324A01425
:1002B00081046674476424540544DBA7FAB7998720
:1002C000B8975FE77EF71DC73CD7D326F236910675
:1002D000B01657667676154634564CD96DC90EF968
:1002E0002FE9C899E9898AB9ABA9445865480678C5
:1002F0002768C018E1088238A3287DCB5CDB3FEB80
:100300001EFBF98BD89BBBAB9ABB754A545A376A14
:10031000167AF10AD01AB32A923A2EFD0FED6CDD4F
:100320004DCDAABD8BADE89DC98D267C076C645C64
:10033000454CA23C832CE01CC10C1FEF3EFF5DCF5F
:100340007CDF9BAFBABFD98FF89F176E367E554EB4
:10035000745E932EB23ED10EF01E00020E060C0407
:1003600011241FBECFEFD1E4DEBFCDBF13E0A0E06C
:10037000B2E0EAEEF3EA00E00BBF02C007900D9294
:10038000AC3DB107D9F71FE1ACEDB3E001C01D9260
:10039000A132B107E1F70E94DD480C94F4510C94AE
:1003A0000000FC0120E030E007C082819381280F2B
:1003B000391F0480F581E02D3097B9F7C901089500
:1003C000FB01518340833383228395838483089583
:1003D000CF92DF92EF92FF920F931F93CF93DF9311
:1003E0008C01FB017A01690105C0E81BF90BE801EA
:1003F0000C811D81E8018A819B81E817F907A8F724
:100400001CC0E8018A819B818E1B9F0BE7018E1522
:100410009F0508F4EC01D8018D919C91AE01B601C5
:100420008E0F9F1F0E94E84ECC0EDD1EEC1AFD0AB7
:10043000E8010C811D81E0E0F0E00115110519F0E3
:100440001E141F04F4F280E090E0DF91CF911F9121
:100450000F91FF90EF90DF90CF9008954F925F92B1
:100460006F927F928F929F92AF92BF92CF92DF92C4
:10047000EF92FF920F931F93CF93DF938C014B0169
:100480005A013901CC24DD2404C06C01F801048137
:1004900015810115110519F44424552436C0F801BD
:1004A000828193818C0D9D1D8816990670F74424D6
:1004B000552428C07401EC18FD08F801828193814D
:1004C0008E199F09E5018A159B0508F4EC01F801D6
:1004D000608171816E0D7F1DAE01C3010E94E84EE7
:1004E0004C0E5D1EF801048115810115110569F09E
:1004F000CE0CDF1CCC0EDD1E8C0E9D1EAC1ABD0A70
:100500006C0E7D1E1A141B04ACF2C201DF91CF9158
:100510001F910F91FF90EF90DF90CF90BF90AF9021
:100520009F908F907F906F905F904F900895EF9283
:10053000FF920F931F93CF93DF93FC0120E030E0F5
:1005400040E050E0A0E0B0E02EC062817381611510
:10055000710531F1C081D18100E010E01EC08881B9
:1005600000FD0BC09927982F8827A82BB92BC8010D
:1005700001968617970771F403C09927A82BB92B0A
:100580007D01C701AA27BB27280F391F4A1F5B1F00
:10059000A0E0B0E00F5F1F4F219606171707F9F68E
:1005A0000480F581E02D309781F60BC0DA01C90196
:1005B000A070B0709A0144275527280F391F4A1F91
:1005C0005B1F203080E0380781E0480780E0580753
:1005D00068F7C90180959095DF91CF911F910F9198
:1005E000FF90EF900895EF92FF920F931F93CF9398
:1005F000DF93CDB7DEB76A970FB6F894DEBF0FBEB4
:10060000CDBFE42E08969A87898740E150E05C8749
:100610004B879E01215F3F4F3E872D874096988BE9
:100620008F875A8B498BCE0145969C8B8B8BCE0145
:1006300001969E8B8D8B88E090E0988F8F8B7A8FC0
:10064000698FCB010E94D101AA2797FDA095BA2FEF
:10065000BC01CD010E949A0469837A838B839C83B9
:10066000FF2400271127C801B7010E949A046D8357
:100670007E838F839887CE0109960E9497026A969F
:100680000FB6F894DEBF0FBECDBFDF91CF911F91A3
:100690000F91FF90EF9008958CED95E090931204E8
:1006A000809311040895A1E1B4E004969C012170A7
:1006B0003070280F391F02C0A40FB51F8D919C9177
:1006C0001197AC015F704217530710F097FF06C0F7
:1006D000CD01815194408C5D954074F389E0AD3E2D
:1006E000B80718F080E090E00895C90102979C01D6
:1006F0003F70306811963C932E93FD01E80FF91F6F
:10070000481B590B5F7051834083CD0102960895B9
:10071000CF93DF939C01E1E1F4E0C0E0D0E006C0BC
:10072000808191819F70EF01E80FF91FCF01029640
:100730008217930739F0CF01815194408C5D954029
:100740007CF327C0808191819C013F70DF01A20F63
:10075000B31F9F7791838083CD01815194408C5D3D
:1007600095404CF48D919C9197FD05C09F70280F8A
:10077000391F31832083209761F02881398137FD2B
:1007800008C03F70808191819F70280F391F398385
:100790002883DF91CF910895E1E1F4E040E050E05B
:1007A0000BC02081318137FD04C0C9019F70480F03
:1007B000591F3F70E20FF31FCF01815194408C5DB0
:1007C00095407CF3CA0108956F927F928F929F9219
:1007D000AF92BF92CF92DF92EF92FF920F931F934F
:1007E000CF93DF93FB015A018B01040F151FDC012E
:1007F000CC24DD2440E050E07AE398EF692E9FEFAF
:10080000792E600E711E6E167F0608F460C0ED0131
:10081000E980FC9024E030E08FEF882E982ECCE029
:10082000D0E0C401022E02C0969587950A94E2F7A3
:100830008E159F0530F042305105B1F4203131055D
:1008400099F4C7010C2E02C0969587950A94E2F799
:10085000682F6F708F7090700A9718F4862F805DE4
:1008600002C0862F895A81932C5F3F4F24972431F1
:100870003105B9F68D919C911197892B21F5411580
:10088000510559F471938D919C911197892B19F40D
:1008900041E050E002C042E050E087E0C816D104D9
:1008A00024F44130510509F071930894C11CD11C06
:1008B000129688E0C816D10409F0A5CF4130510541
:1008C00031F4719304C04130510539F7E4CF1192EE
:1008D0000A191B09CF01801B910BDF91CF911F914A
:1008E0000F91FF90EF90DF90CF90BF90AF909F90CF
:1008F0008F907F906F900895DC018C91837082308F
:1009000021F4FD012181328113C0833019F020E0F0
:1009100030E00EC0FD01319620E030E0AD01475FD0
:100920005F4F81919191280F391FE417F507C9F79F
:10093000C9010895EF92FF920F931F93FB01BC0131
:10094000882799272F2F3E2F44275527A901332782
:100950002227E72EF62E002711272E293F29402B8C
:10096000512BCA01B9011F910F91FF90EF9008958B
:100970009C01DB01FC0104C08D91819341505040EA
:1009800041155105C9F7C90108958F929F92AF9201
:10099000BF92CF92DF92EF92FF920F931F93CF936C
:1009A000DF936C014B01892B09F4A3C0611571051C
:1009B00009F49FC080E1EB0119928A95E9F7D6010D
:1009C00060E070E090E046C02A3301F1822F80534E
:1009D0008A3030F4332727FD3095205330400EC045
:1009E000422F552747FD50952154263020F49A0177
:1009F0002753304003C09A012755304044E0660F2A
:100A0000771F4A95E1F7622B732B0DC0E92FFF2763
:100A1000EE0FFF1FE80DF91D072F162F118300831E
:100A20009F5F60E070E0FD013196ED012981222396
:100A300059F4E92FFF27EE0FFF1FE80DF91DE72EF0
:100A4000F62EF182E08255C08C918A3311F42A335C
:100A500041F0DF012C91222309F0B6CFFD0101C046
:100A6000319680818823E1F7DF01119760E070E023
:100A700017E090E03BC02C912A3311F1822F805374
:100A80008A3030F4332727FD3095205330400EC094
:100A9000422F552747FD50952154263020F49A01C6
:100AA0002753304003C09A0127553040092E02C019
:100AB000220F331F0A94E2F7622B732B9C5F0EC048
:100AC000E12FFF27EE0FFF1FE80DF91DA72EB62E11
:100AD000B182A082115060E070E090E01197FD01BA
:100AE00081818A3319F48C918A3319F0CA16DB0696
:100AF00010F2DF91CF911F910F91FF90EF90DF9057
:100B0000CF90BF90AF909F908F900895FC0171831C
:100B1000608353834283358324830895CF92DF9289
:100B2000EF92FF920F931F93CF93DF938C016B0192
:100B3000EE24FF241AC0F80182819381E89EE0012F
:100B4000E99ED00DF89ED00D112480819181C80FAF
:100B5000D91FCE01F6010995FFEF8F3F9F0759F08E
:100B6000019759F00894E11CF11CF80184819581EA
:100B7000E816F90600F3C0E0D0E0CE01DF91CF9196
:100B80001F910F91FF90EF90DF90CF900895EF921B
:100B9000FF920F931F93CF93DF93EC017B0100E053
:100BA00010E012C08A819B819C01029FC001039FBB
:100BB000900D129F900D112428813981820F931F6F
:100BC000F70109950F5F1F4F8C819D810817190749
:100BD00048F3DF91CF911F910F91FF90EF9008950F
:100BE0008FB7F894992708958FBF0895FC01A281CB
:100BF000B3818181109751F1282F332712161306E4
:100C00002CF59C91892F829586958695837019F491
:100C100020E130E01DC0969596959695983119F093
:100C200020E030E00BC024503040121613061CF0B8
:100C300024E030E00DC0149624E030E08C918695DD
:100C4000869586958C3121F4286002C020E030E042
:100C5000C90108950895882319F08CB5806802C0F1
:100C60008CB58F778CBD8FEF8093530208951F92C0
:100C70000F920FB60F9211240F931F932F933F9350
:100C80004F935F936F937F938F939F93AF93BF9394
:100C9000CF93DF93EF93FF932EB5E091D90AF091B4
:100CA000DA0A309739F080912A1590912B15E80FC8
:100CB000F91F208380912A1590912B15019690930E
:100CC0002B1580932A1580E00E942B06C0912A15CF
:100CD000D0912B152091281530912915C217D307D3
:100CE00008F042C00091F70A1091F80A4091D90A21
:100CF0005091DA0ACE010A962817390708F4C9017B
:100D0000DA01AC0FBD1FF801EC0FFD1F9C01215053
:100D1000304015C00115110531F080818EBD0DB434
:100D200007FEFDCF04C01EBC0DB407FEFDCF8EB57F
:100D30004115510509F08C93219611963196C217F1
:100D4000D30740F381E00E942B060115110531F015
:100D50000C0F1D1FF80180818EBD01C01EBCD093F9
:100D60002B15C0932A1511C01092DA0A1092D90AD5
:100D70001092F80A1092F70A10922915109228156D
:100D800010922B1510922A158EB5FF91EF91DF91DD
:100D9000CF91BF91AF919F918F917F916F915F9113
:100DA0004F913F912F911F910F910F900FBE0F9078
:100DB0001F901895282F9FB7F894E82FFF27E85623
:100DC000F54F80818F3F81F4E0915E1EE21771F450
:100DD0000BC02093E71B04C0FF27E856F54F208384
:100DE00020935E1E20E007C025E005C08091E71B30
:100DF0008F3F91F7EECF892F99278FBF822F9927A9
:100E0000089582E00E94DA069927089583E00E94FF
:100E1000DA06992708958AE00E94DA06992708954C
:100E20008FE00E94DA069927089584E10E94DA068D
:100E30009927089521E030E002C0220F331F8A95E0
:100E4000E2F780914E0D822B80934E0DEBE6F0E0A1
:100E50008081282B2083E8E6F0E080818160808318
:100E600080E090E0089521E030E002C0220F331FBF
:100E70008A95E2F7922F909580914E0D8923809369
:100E80004E0DEBE6F0E08081282B2083E8E6F0E0D1
:100E900080818160808380E090E00895EAE5F1E060
:100EA0006927660FF11DE60FF11DC895982F802D5B
:100EB0003196C89590250895982F8091E90388234D
:100EC00089F5992379F531E03093E9038091570250
:100ED0008093EA032091DE03822F81708093910A30
:100EE00080915C0290915D029093EC038093EB0300
:100EF0008091DF038093ED0332273170267EE32F4C
:100F0000FF27EE0FFF1FE85AFD4F808191819093DC
:100F10005D0280935C02232B2093DE0389E00E9414
:100F2000DA0608958091DE0380FF02C08B7F01C046
:100F30008D7F8093DE0308951F931FB7F8948091EF
:100F40002A1E882341F484E00E94DA06882319F4DB
:100F500081E080932A1E812F99278FBF1F910895CA
:100F60009FB7F8948091F3148A3011F020E006C006
:100F700020E08091F60A843009F421E0892F992736
:100F80008FBF222349F086E00E94DA068FB7F894DB
:100F900099271092DD0306C08FB7F894992721E0B6
:100FA0002093DD038FBF08950F931F93082F162FF3
:100FB0008091F60A8130D9F0813038F0823009F41E
:100FC0004AC0833009F028C159C0002309F458C130
:100FD0001092D01B1092CF1B10920C151092E21B96
:100FE0001092C90C1092301310922F1339C10023A4
:100FF00009F046C180912F13909130130E944E0743
:101000009093301380932F1382E08093F60A10930D
:10101000E21B143409F000C125C18695869503C0F2
:101020008091DE038695817009F0F6C08091DE0321
:10103000992311F0846001C082608093DE03809167
:10104000DE03877E88608093DE031092DF038FEFDC
:101050008093570215C1002309F0DEC06093C90CCC
:1010600080912F13909130130E944E07909330136C
:1010700080932F1383E08093F60A02C180910C15B0
:101080008F3F09F4C9C0002309F461C0823008F41D
:10109000C3C0E091CF1BEE2309F4EBC04E2F4150AB
:1010A000E42FFF27E153F44E82819927382F22271E
:1010B000442311F4E2E002C0E42FE150FF27E153A2
:1010C000F44E82819927282B392B80912F139091F0
:1010D00030132817390709F09FC080E00E945C0791
:1010E0003091C90C8091141320911513982F9F5F94
:1010F000963008F090E0921771F0E82FFF27EC5E31
:10110000FC4E32838F5F80931413863010F0109260
:1011100014130E949C071092D01B1092CF1B94E0D6
:101120009093F60A10920C151092E21B1092C90CC3
:101130001092301310922F138091EE038D7F8093C5
:10114000EE038091DD03882309F49AC084C08230C5
:1011500008F44EC0E091D01BFF27E153F44E82818A
:10116000482F5527342F2091DE03822F86958695B0
:101170008695837099278130910519F00297F9F4CB
:101180000EC0277E20612093DE03442311F485E006
:1011900001C080E08093DF033093570210C080913C
:1011A000DF03873860F4E0915C02F0915D02E80FA4
:1011B000F11D40838091DF038F5F8093DF03809177
:1011C000D01BE82FFF27E153F44E62818F5F80939D
:1011D000D01B833010F01092D01B772780912F13F3
:1011E000909130130E944E079093301380932F13E9
:1011F0008091CF1BE82FFF27E153F44E12838F5FBE
:101200008093CF1B833010F01092CF1B80910C1570
:101210008F5F80930C1534C01092D01B1092CF1B9F
:1012200014E01093F60A10920C151092E21B109223
:10123000C90C1092301310922F138091EE038D7F02
:101240008093EE0381E00E945C078091DD03882398
:1012500029F01093F60A0E94B00712C0002381F013
:1012600081E009CF8091DE03982F917080FDD5CE6B
:10127000D7CE8091D31B9927382F222742E01CCF4D
:101280001F910F9108951F920F920FB60F92112484
:101290002F933F934F935F936F937F938F939F937E
:1012A000AF93BF93EF93FF938091C00087FF42C03D
:1012B0006091C600E0913113F0913213309719F12B
:1012C0008091281E9091291EE80FF91F60830196D6
:1012D0009093291E8093281E20918F1E3091901E7E
:1012E0008217930738F110923213109231138091C4
:1012F000C2148330F9F08091C1008F778093C100D0
:101300001092C21417C06E3719F460E081E010C06B
:101310008091EE036D3721F482608093EE030AC062
:1013200081FF05C08D7F8093EE0380E2682780E017
:101330000E94D407FF91EF91BF91AF919F918F9140
:101340007F916F915F914F913F912F910F900FBEC1
:101350000F901F9018952FB7F89433278093C600ED
:10136000E0ECF0E08081806480832FBF0895FC0171
:101370006115710519F481E090E008958091470DA1
:101380009091480D892B19F085E090E008957093B5
:10139000D71B6093D61BF093480DE093470D109236
:1013A000FA0A1092F90A81E08093FB0A8091C0004A
:1013B00080648093C0008091C10080648093C100EC
:1013C000808121E030E03093FA0A2093F90A0E94EC
:1013D000AB0980E090E00895982F8D57823068F433
:1013E0008091EE0381608093EE0380E289278093F1
:1013F000FB148DE78093B50A02C09093B50A61E0B3
:1014000070E085EB9AE00E94B709992708958FB79D
:10141000F89499272091EE032E7F2093EE032EE778
:101420002093B50A8FBF61E070E085EB9AE00E94DF
:10143000B7099927089578941F920F920FB60F92CB
:101440001124FF920F931F932F933F934F935F931A
:101450006F937F938F939F93AF93BF93CF93DF93BC
:10146000EF93FF932091F90A3091FA0A8091D61BED
:101470009091D71B2817390780F4E091470DF09120
:10148000480DE20FF31F80812F5F3F4F3093FA0A20
:101490002093F90A0E94AB09D1C01092480D109216
:1014A000470D1092FB0A8091C1008F7B8093C10091
:1014B000FFB6F8948091EE0380FF0EC08E7F80937C
:1014C000EE038091FB148093B50A61E070E085EB38
:1014D0009AE00E94B709AFC08091F314843009F4F8
:1014E0008CC0853040F4823021F18330B8F58130F2
:1014F00009F09CC00DC0863009F48DC0863008F418
:1015000083C0873009F48EC0883009F08FC091C045
:101510008091410D0E94EC09082F83E08093F31421
:101520006091410D80918A1E90918B1E0E944E0702
:1015300010C08091FF1B0E94EC09082F83E080936C
:10154000F3146091FF1B80918A1E90918B1E0E9464
:101550004E0790938B1E80938A1E66C0E0913413D1
:10156000FF27EE0FFF1FE55BF24F80810E94EC0921
:10157000082F10913413C12FDD27FE01EE0FFF1F3E
:10158000E55BF24F608180918A1E90918B1E0E94D4
:101590004E0790938B1E80938A1E2091ED0C2F5F37
:1015A0002093ED0C113039F58091E503E091E003D3
:1015B000F091E103E80FF11DE0818F5F8093E50377
:1015C0009091E403981730F482E080934C0D40E052
:1015D00050E002C04E2F5527DE01AA0FBB1FFD01B0
:1015E000E65BF24F8081823031F02F3F21F0A55B26
:1015F000B24F4C9319C084E012C080918A1E0E94A1
:10160000EC09082F85E00BC080918B1E0E94EC092D
:10161000082F86E004C00E94070A082F87E0809305
:10162000F31402C088E003C0002329F089E080930E
:10163000F3140E949C078F2D99278FBFFF91EF9184
:10164000DF91CF91BF91AF919F918F917F916F91DA
:101650005F914F913F912F911F910F91FF900F90AC
:101660000FBE0F901F9018951F920F920FB60F92FA
:1016700011248F938091C80087FF02C08091CE0013
:101680008F910F900FBE0F901F90189578941F9216
:101690000F920FB60F9211240F900FBE0F901F9054
:1016A0001895882319F08CB5806402C08CB58F7BA7
:1016B0008CBD8FEF8093530208952F923F924F92EB
:1016C0005F926F927F928F929F92AF92BF92CF92D2
:1016D000DF92EF92FF920F931F93CF93DF93CDB7DB
:1016E000DEB7E0970FB6F894DEBF0FBECDBF809196
:1016F0004F0290915002888B892F99278F871E86E1
:101700008FE48D878CE48C878DE68B8782E18A87D6
:101710001986DE019996FE01399688E001900D92B6
:101720008150E1F7DE011196FE01B99688E0019043
:101730000D928150E1F7DE015196FE01319688E06D
:1017400001900D928150E1F7DE019196FE017196B4
:1017500088E001900D928150E1F799A188A589A3B5
:1017600098A79AA18FA18AA39FA39BA18EA18BA3C7
:101770009EA39CA18DA18CA39DA3DE015996FE0181
:10178000B19688E001900D928150E1F798A1298CE3
:101790003A8C4B8C5C8C6D8C7E8C8F8C222D332DF7
:1017A000442D552D662D772D882DE0960FB6F89493
:1017B000DEBF0FBECDBFDF91CF911F910F91FF9084
:1017C000EF90DF90CF90BF90AF909F908F907F90E1
:1017D0006F905F904F903F902F900895AC012091B3
:1017E000040A253018F081E090E008958091F41407
:1017F000682F620F712D711DFB016530710508F0B6
:101800003597EE0FFF1FE153F54F518340832F5F54
:101810002093040A80E090E008950F931F93CF93E4
:10182000DF93DC019B0140911A1F50911B1F8D918A
:101830009C9111978E5F9048B9F5FD018285938543
:1018400080509F4FC1F4FD01848595858E3F9105A1
:1018500091F4018510855D7F04171507B9F5F9012D
:1018600080818C7F82608083FD01C785D685F901E8
:10187000D283C18316C0F901808183608083E9012E
:10188000FD013F96AD01495F5F4F808131978983AC
:101890002196E417F507C9F7F901808592E08927B9
:1018A000808780E090E014C08C918F3F79F4FD0137
:1018B00081818F70823051F4F90180818C7F826048
:1018C00080838FEF9FEF92838183EBCF81E090E065
:1018D000DF91CF911F910F910895AC0120919E0F40
:1018E0002C3018F081E090E0089580917F1C682FE3
:1018F000620F712D711DFB016C30710508F03C9772
:10190000EE0FFF1FE959F14E518340832F5F209363
:101910009E0F80E090E00895AC0120919F0F2C3045
:1019200018F081E090E008958091EB0C682F620F31
:10193000712D711DFB016C30710508F03C97EE0FA5
:10194000FF1FE35FFA4E518340832F5F20939F0F69
:1019500080E090E00895AF92BF92CF92DF92EF9235
:10196000FF920F931F93CF93DF93FC019B017A01AA
:1019700008E010E0CB0168E070E00E94324E5B01AD
:101980006F01C60ED71EC90168E070E00E94324E9A
:101990009801281B390BCFEFD0E0DE0102C0AA0F5F
:1019A000BB1F2A95E2F7CD01D6012C91282329F5FA
:1019B000C70168E070E00E94324E9B01E60FF71FFE
:1019C000C70168E070E00E94324E081B190B02C08C
:1019D000CC0FDD1F0A95E2F780818C2371F4F601AC
:1019E000B50105C08191882341F46F5F7F4F621775
:1019F0007307C4F380E090E002C08FEF9FEFDF91A8
:101A0000CF911F910F91FF90EF90DF90CF90BF90FB
:101A1000AF900895DC01FC01868181508683882384
:101A2000C1F49091BD0A9330A0F480910F0A282F41
:101A3000290F312D311DF9012330310508F033977D
:101A4000EE0FFF1FE050F44EB183A0839F5F909391
:101A5000BD0A0895AC012091B70A233018F081E047
:101A600090E0089580918E1E682F620F712D711D78
:101A7000FB016330710508F03397EE0FFF1FE25052
:101A8000F64F518340832F5F2093B70A80E090E0A8
:101A900008952091040A222319F440E050E016C072
:101AA0008091F414E82FFF27EE0FFF1FE153F54F4D
:101AB000408151811182108221502093040A8F5F4E
:101AC0008093F414853011F41092F414CA0108952F
:101AD000AC0120910F04253018F081E090E00895CA
:101AE00080910E04E82FFF27EE0FFF1FE05DFA4EF6
:101AF000518340838F5F80930E04853011F41092E0
:101B00000E042F5F20930F0480E090E00895EF9281
:101B10000F931F93AE2D99E0899FF0011124EB5C88
:101B2000FC4E408351836283738304831583268331
:101B30003783A17080858E7F8A2B826080878CE0BE
:101B40000E94DA061F910F91EF9008954FB7F89415
:101B500055272091E100622F2091E200722F209101
:101B6000E300822F2091E400922F4FBF08950F933E
:101B70001F930FB7F89410912E130E94A60D9B018E
:101B8000AC018091E00083FF05C01F5F0E94A60D9D
:101B90009B01AC01802F99278FBF612F7727882762
:101BA0009927FAE1660F771F881F991FFA95D1F7D9
:101BB000E6E05695479537952795EA95D1F7622B3C
:101BC000732B842B952B1F910F910895AF92BF9289
:101BD000CF92DF92EF92FF920F931F93F82E5A014C
:101BE0006B010E94B70DAB01BC01A1E0EA2E96018A
:101BF00085018F2D0E94870D1F910F91FF90EF900F
:101C0000DF90CF90BF90AF900895AF92BF92CF92E8
:101C1000DF92EF92FF920F931F93F82E5A016B0100
:101C20000E94B70DAB01BC01EE24960185018F2DFA
:101C30000E94870D1F910F91FF90EF90DF90CF9042
:101C4000BF90AF9008952F923F924F925F926F9204
:101C50007F928F929F92AF92BF92CF92DF92EF923C
:101C6000FF920F931F93CF93DF93CDB7DEB72997E2
:101C70000FB6F894DEBF0FBECDBF6FB76983F8947F
:101C80002090E50C3090E60C4090E70C5090E80C6A
:101C90006624772488240EE4A02E13E8B12ECC24E9
:101CA000DD24EE24FF2400E010E0222D332D442D0E
:101CB000552D662D772D882D90E00E949D4C2A830E
:101CC0003B834C835D836E837F8388879987822ED5
:101CD000932EA42EB52E2401350100E20E949B4DC7
:101CE000A22EB32EC42ED52EA30192015695479550
:101CF000379527952A0D3B1D4C1D5D1D57FF05C0CF
:101D00005F772F5F3F4F4F4F5F4F2093E50C30932E
:101D1000E60C4093E70C5093E80CE9818E2F99274D
:101D20008FBFCA01B90129960FB6F894DEBF0FBE66
:101D3000CDBFDF91CF911F910F91FF90EF90DF907A
:101D4000CF90BF90AF909F908F907F906F905F905B
:101D50004F903F902F9008950E94230EDC01CB01FD
:101D600008951092F7038FEF9FEF90938E02809368
:101D70008D029093900280938F0290936B028093D8
:101D80006A02E2E1FBE0108277968CE0EE3DF80714
:101D9000D1F70895FC01E458FF4F808191810895A7
:101DA0008091F303E82FFF27EE0FFF1FE156F44E5B
:101DB0000190F081E02D2091F503222351F08F5FF7
:101DC0008093F3038C3011F41092F303215020938D
:101DD000F503CF010895EF92FF920F931F93CF93D6
:101DE000DF937B018C018FB7F894C82FDD270E9409
:101DF000A60D9B01AC01C801B701623071058105D8
:101E0000910520F462E070E080E090E0260F371F3B
:101E1000481F591FDA01C901B093F400A093F300E1
:101E20009093F2002093F10082E08093E000809193
:101E3000DF0082608093DF008FEF80935302CFBF7B
:101E4000DF91CF911F910F91FF90EF90089521E0C6
:101E50002093490D2093A6140E94EB0E0895EF9253
:101E6000FF920F931F937C018FB7F89499270091ED
:101E7000F9141091FA140F5E1E4F1093FA14009388
:101E8000F914015111408FBF83E10E94DA06C801A5
:101E9000B7010E941E4E44961F910F91FF90EF9044
:101EA0000895FC0182819927982F88272181332763
:101EB000822B932B25E0969587952A95E1F78170E3
:101EC00090700895FC0140E050E082819927982F9E
:101ED000882721813327822B932B87749C7C815404
:101EE000984811F441E050E0CA010895FC0187814F
:101EF0009927982F882726813327822B932B0895A3
:101F00008093901C882311F484E001C081E08093C9
:101F1000F40A81E10E94DA06089580589F4F0895DF
:101F200020E030E0FC0181818770823011F421E0F3
:101F300030E0C9010895CF93DF93EC010E94510F67
:101F40008823D1F0CE010E94620F8823A9F0CE0130
:101F50000E94760F2FB7F894332740916102509179
:101F600062022FBF20E08417950709F021E081E08D
:101F70002827822F992702C080E090E0DF91CF913F
:101F80000895CF93DF93EC0120E00FC0E22FFF27ED
:101F9000DE01AE0FBF1FE60FF71F9C9180819817DF
:101FA00019F080E090E005C02F5F241779F781E0F9
:101FB00090E0DF91CF9108951F93982F1FB7F89469
:101FC0008091F003823099F580916602891779F546
:101FD0008091640220E030E08F3F11F421E030E096
:101FE000232BF1F49FEF909366028F3F19F42FEFAC
:101FF00030E00DC0282F3327F901EE50F34F8081D8
:10200000809364028F3F11F4909365029083209334
:10201000460D81E08093F0038EE00E94DA0605C051
:102020008FEF809366021092F00321E001C020E060
:10203000812F99278FBF90E0213009F491E081E052
:102040009827892F99271F910895AF92BF92CF9219
:10205000DF92EF92FF920F931F930E94B70D7B01C7
:102060008C012091420D3091430D4091440D5091CF
:10207000450D8091EE0C9091EF0CA091F00CB09179
:10208000F10C820F931FA41FB51FE216F30604077D
:10209000150730F082179307A407B50758F005C05D
:1020A00082179307A407B507E0F5E816F9060A07B3
:1020B0001B07B8F59C01AD012E193F09400B510BD0
:1020C000213060E0360760E0460762E0560768F1BD
:1020D00080E090E0A0E0B2E0E80EF91E0A1F1B1FAE
:1020E000E092420DF092430D0093440D1093450D84
:1020F00080E090E0A0E0BEEFE80EF91E0A1F1B1F73
:1021000020503040404052402093EE0C3093EF0C72
:102110004093F00C5093F10C20E030E040E052E0AE
:1021200014C020E030E040E050E08093420D9093F6
:10213000430DA093440DB093450D1092EE0C1092F8
:10214000EF0C1092F00C1092F10C59016A01F6E0BC
:10215000AA0CBB1CCC1CDD1CFA95D1F7E6E0EE0CFA
:10216000FF1C001F111FEA95D1F70E94A60D9B01CD
:10217000AC012E5F3F4F4F4F5F4FDA01C9018E19FF
:102180009F09A00BB10B8A159B05AC05BD0530F46A
:10219000A80197012A0D3B1D4C1D5D1D5093F800B1
:1021A0004093F7003093F6002093F50081E0809390
:1021B000E0008091DF0081608093DF008FEF8093EB
:1021C00053021F910F91FF90EF90DF90CF90BF903F
:1021D000AF9008950F931F930FB7F8941127609352
:1021E000420D7093430D8093440D9093450D2093C1
:1021F000EE0C3093EF0C4093F00C5093F10C0E94D6
:1022000025100FBF1F910F9108959FB7F8948091EB
:10221000F60A882319F484E08093F60A892F992717
:102220008FBF9FB7F8948091F314882319F48AE044
:102230008093F314892F99278FBF0E94B00780E005
:1022400090E008958FB7F894282F3327922F80912C
:10225000F3148A3041F08091F60A843021F02FBFC8
:1022600089E090E008959FBF85E00E94DA0680E053
:1022700090E00895E82F272F362F21153105D9F04A
:10228000882349F080915F1E9091601E821793070A
:10229000E1F0E13049F08091611E9091621E821759
:1022A000930799F0E23039F08091631E9091641E9B
:1022B0008217930751F0FF27EE0FFF1FE15AF14EEF
:1022C0003183208380E090E0089581E090E00895DC
:1022D0001F920F920FB60F9211248F9380912E139D
:1022E0008F5F80932E138F910F900FBE0F901F90D2
:1022F00018951F920F920FB60F9211242F933F93B0
:102300004F935F936F937F938F939F93AF93BF93FD
:10231000EF93FF938091DF008E7F8093DF008FEF3C
:10232000809353028091EE0C9091EF0CA091F00CF1
:10233000B091F10C0097A105B10521F48BE00E944A
:10234000DA0602C00E942510FF91EF91BF91AF9174
:102350009F918F917F916F915F914F913F912F91BD
:102360000F900FBE0F901F9018951F920F920FB6EF
:102370000F9211240F900FBE0F901F9018951F926F
:102380000F920FB60F9211248F938091EC0C8F5FF8
:102390008093EC0C8F910F900FBE0F901F901895AB
:1023A0001F920F920FB60F9211240F900FBE0F9035
:1023B0001F9018951F920F920FB60F9211240F9035
:1023C0000FBE0F901F9018951F920F920FB60F928D
:1023D00011240F900FBE0F901F9018951F920F920F
:1023E0000FB60F9211240F900FBE0F901F901895EB
:1023F000FC013F968BE0DF011D928A95E9F73F973C
:1024000082E082871782168208958F929F92AF9200
:10241000BF92CF92DF92EF92FF920F931F93CF93D1
:10242000DF935C01EB016A01A901F70110822881A9
:102430003981F0E82E3F3F0709F08DC08A819B81EA
:10244000892B09F088C08C819D81892B09F083C07C
:102450008E819F81892B09F07EC0288539852115C1
:10246000310591F48A859B85892B71F48C859D8536
:10247000892B51F482E0F70180838E859F85F501D9
:10248000819391935F01DDC0C8019D7F892E982EB5
:1024900028153905B9F48A859B8580509F4F91F4A2
:1024A0008C859D858E3F910569F4FA01808183704A
:1024B000823041F4A281B1818E859F858A179B0766
:1024C000F1F53BC0FA01808183708330C1F5DE01F4
:1024D00018969A012F5F3F4FF901878192E0892773
:1024E0009885981761F5FD019181F901868198170A
:1024F00031F5FD019281F9018581981701F5FD0102
:102500009381F90184819817D1F4FD019481F90137
:1025100083819817A1F4FD019581F90182819817B3
:1025200071F4FD019681F9018181981741F4FD0153
:102530009781FA018181981711F483E072C081E0DC
:10254000F7018083D501FE01389688E001900D9255
:102550008150E1F739C01C141D040CF043C084E025
:10256000F7018083F0E8CF16D10431F487E0F7015A
:10257000808380E090E063C040E750E0B601CE0188
:102580000E94AB0C892B61F4F7018081826080830B
:102590008E859F85F5019183808382E090E04FC016
:1025A00040E450E0B601CE010E94AB0CF70120815F
:1025B000892B69F421602083D501FE01389688E0DB
:1025C00001900D928150E1F788E090E038C02B7FB8
:1025D000F7012083D501FE0180E101900D92815029
:1025E000E1F72BC0232B01F58A819B81892BE1F434
:1025F0008C819D81892BC1F48E819F81892BA1F4CF
:1026000088859985892B81F48A859B85892B61F43E
:102610008C859D85892B41F48E859F85892B21F49E
:1026200084E0F70180830DC0F7011082D501FE011F
:1026300080E101900D928150E1F780E190E0A80ED9
:10264000B91EC501DF91CF911F910F91FF90EF90BF
:10265000DF90CF90BF90AF909F908F9008950F9391
:102660001F93CF93DF93CDB7DEB722970FB6F894C1
:10267000DEBF0FBECDBFBC01DA01AC014A5F5F4FC8
:10268000FD0181858370823049F4828593859A8328
:102690008983FB01978386838B010EC0CA018D015C
:1026A000065F1F4F28E0F80101908F01FC010192A5
:1026B000CF012150C1F78A01085F1F4F8C918370B1
:1026C000823051F4FD01818192819A838983F801DE
:1026D00081939193AF010FC09801CD01019648E01D
:1026E000FC010190CF01F90101929F014150C1F716
:1026F000A801485F5F4F2C912370332730E4239F5C
:10270000302D222711242164FD01818583709927B2
:10271000982F8827990F990F822B932BFB01818388
:10272000892F99278283FD018289FB018483FD0122
:1027300082899389892F9927FB018583CA01229673
:102740000FB6F894DEBF0FBECDBFDF91CF911F91C2
:102750000F9108954F925F926F927F928F929F9206
:10276000AF92BF92CF92DF92EF92FF920F931F939F
:10277000CF93DF93CDB7DEB760970FB6F894DEBF87
:102780000FBECDBFDC013A01A901280180E1FD01A6
:1027900011928A95E9F777279B012370307062FDCB
:1027A00055C02130310571F022303105C1F0232BA5
:1027B000E1F4FA0180E101900D928150E1F7405F70
:1027C0005F4FBEC08EEF90E811969C938E93189643
:1027D000FA0188E001900D928150E1F774C08EEF0C
:1027E00090E811969C938E9371C08EEF90E81196AD
:1027F0009C938E93F201808183708330A9F49D01B4
:1028000067E070E08201085F1F4FF801808101508E
:102810001040F9018087615070402F5F3F4FFFEFFC
:102820006F3F7F0791F776C0C7019D7FC92ED82ED5
:10283000FD01D186C0868FEF83878EEF8487F201FA
:10284000A280B180FD01B786A6867AC02115310528
:1028500009F476C08E010F5F1F4F6CE173E180E1D8
:10286000FB010190BF01F80101928F018150C1F776
:102870008091EF03882391F0662081F4CD018E01D1
:102880000F5F1F4F68E0F80101908F01FC0101927A
:10289000CF016150C1F780E490E002C080E090E099
:1028A0002230310599F023303105C1F02130310556
:1028B00019F040E050E044C01896FA0188E0019019
:1028C0000D928150E1F7485F5F4F3AC0FA01819164
:1028D0009191AF01FD019787868732C081349105C0
:1028E000FCF4F201808183708330E9F49D0167E09C
:1028F00070E08201085F1F4FF80180810150104095
:10290000F9018087615070402F5F3F4FFFEF6F3FAD
:102910007F0791F7FD01808592E08927808710C0AD
:10292000813791056CF4189688E0FD0111928A9523
:10293000E9F71897F20182809180FD0197868686DB
:10294000CA0160960FB6F894DEBF0FBECDBFDF910F
:10295000CF911F910F91FF90EF90DF90CF90BF909C
:10296000AF909F908F907F906F905F904F90089561
:10297000AF92BF92CF92DF92EF92FF920F931F938D
:10298000CF93DF936C015B018A01EE24FF2415C015
:10299000F8018191C82FDD27AE01BF01C6010E9459
:1029A000DB4E892B29F4CC0DDD1D8881882359F05D
:1029B0000894E11CF11C055F1F4FEA14FB0444F36B
:1029C0009EEFE92EF12CC701DF91CF911F910F915E
:1029D000FF90EF90DF90CF90BF90AF9008950F934E
:1029E0001F93CF93DF93CDB7DEB760970FB6F89400
:1029F000DEBF0FBECDBF9C018B01DE011196ECE165
:102A0000F3E180E101900D928150E1F78091EF03B5
:102A1000882371F048E050E0B901CE0101960E9490
:102A2000DB4E892B29F4F801108280E490E002C08B
:102A300080E090E060960FB6F894DEBF0FBECDBF89
:102A4000DF91CF911F910F9108956F927F928F9296
:102A50009F92AF92BF92CF92DF92EF92FF920F932D
:102A60001F93CF93DF93CDB7DEB768970FB6F89477
:102A7000DEBF0FBECDBF8C01E0901A1FF0901B1F70
:102A800080901213909013130E945D0B298B3A8B48
:102A90004B8B5C8B6D8B7E8B8F8B988FDE011996A9
:102AA000FE01719688E001900D928150E1F7DE0100
:102AB0001196FE01399688E001900D928150E1F760
:102AC00069807A807B816C815D814E813F81288520
:102AD000D8018D919C918E5F904809F045C08091FE
:102AE00060028823E9F0F8018285938580509F4F2A
:102AF000B9F4F801848595858E3F910589F4C184E8
:102B0000D0848FEF9DEFE822F922CE14DF0449F53F
:102B100090E0F801A784B684A814B904E9F01BC0BA
:102B200082E02827F80180858217D9F481858317F0
:102B3000C1F482858417A9F48385851791F484856F
:102B4000861779F48585871761F48685871549F49A
:102B500090E08785861191E081E09827892F992759
:102B600023C080E090E020C0D8018C918F3F69F4B1
:102B700020E030E0F801818199278F7090700397F1
:102B800014F421E030E0C9010FC0EE24FF2440E13D
:102B900050E06CE173E1C8010E94DB4E892B19F40F
:102BA00021E0E22EF12CC70168960FB6F894DEBF43
:102BB0000FBECDBFDF91CF911F910F91FF90EF908E
:102BC000DF90CF90BF90AF909F908F907F906F904D
:102BD00008958F929F92AF92BF92CF92DF92EF9221
:102BE000FF920F931F93CF93DF934C01EB01AA2425
:102BF000BB244BE3E42E40E1F42E87010351104047
:102C000033E0C32ED12CC00ED11EF801808180FF8D
:102C100018C0F7018081882391F09927C817D90738
:102C20000CF4CE0168E070E00E94324EAB01B601B8
:102C3000C4010E94DB4E892B21F4209711F0C801BA
:102C400011C00894A11CB11C85E290E0C80ED91EE9
:102C50000B5D1F4FE80EF91E94E1A916B104A9F609
:102C600080E090E0DF91CF911F910F91FF90EF9066
:102C7000DF90CF90BF90AF909F908F900895CF92AC
:102C8000DF92EF92FF920F931F93CF93DF936C012C
:102C90008091F703882311F180E090E002E11BE0CE
:102CA0005AEEE52E5FEFF52EE00EF11EEC0140E14D
:102CB00050E0B601C7010E94DB4E892B21F4F801D8
:102CC0008081882369F4CE01019627E130E0E20E8D
:102CD000F31E095E1F4F8431910541F7C4E1D0E036
:102CE000CE01DF91CF911F910F91FF90EF90DF9078
:102CF000CF9008950F931F93CF93DF93CDB7DEB797
:102D000060970FB6F894DEBF0FBECDBF8C01DE0119
:102D10001196ECE1F3E180E101900D928150E1F731
:102D200040E150E0B801CE0101960E94DB4E892BB4
:102D300089F48091FB03882341F0809151029091A6
:102D4000520290936B0280936A0280916A02909182
:102D50006B0217C0C8010E943F16843119F484E346
:102D600092E10FC0282F332787E190E0289FF001E0
:102D7000299FF00D389FF00D1124E450F54F808904
:102D8000918960960FB6F894DEBF0FBECDBFDF917C
:102D9000CF911F910F91089580E89CE10E947A16CF
:102DA0000895DF92EF92FF920F931F93CF93DF93DB
:102DB000CDB7DEB7D090F703DD2009F446C000E0C0
:102DC00010E06CEFE62E6AE0F62E40E150E0BE0126
:102DD000665F7F4FC7010E94DB4E892B51F00F5F6A
:102DE0001F4F27E130E0E20EF31E0431110569F1B7
:102DF000ECCF043151F1402F552787E190E0489FF7
:102E0000D001499FB00D589FB00D1124A450B54F6B
:102E10009E01265F3F4F87E1F90101909F010D92CE
:102E20008150D1F787E190E0489FF001499FF00D74
:102E3000589FF00D1124E450F54F8AE090E0958BF7
:102E4000848BD394D092F70323C040E050E0E2E1BA
:102E5000FBE06D2D6F5F9091F70320E030E0808103
:102E6000882361F4F901E450F54FDE011A9687E1F9
:102E70000D9001928150E1F7962F08C04F5F5F4F90
:102E8000295E3F4F77964431510549F79093F703F8
:102E9000DF91CF911F910F91FF90EF90DF900895F8
:102EA000CF93DF93EC01A0E0B0E0E9E2F0E19F0115
:102EB00021503040B9016B5D7F4F4FEB52E0808174
:102EC00091818C179D0759F4C9010E94F14E8091A0
:102ED000E7128E7F8093E71280E090E00DC011969C
:102EE000455250406B5D7F4F2B5D3F4FB596A431EF
:102EF000B10529F781E090E0DF91CF9108959F928D
:102F0000AF92BF92CF92DF92EF92FF920F931F93F7
:102F1000CF93DF936C018B015A01922ECB01877006
:102F20009070892B09F0A8C0613871050CF0A4C01D
:102F3000C6010E94E915EC01892B31F08B89992794
:102F40008017910709F47DC08091E71280FD6FC062
:102F5000EE24FF24EBE3F0E1BF0163517040DB019D
:102F6000C0E0D0E08C91959680FF24C080819927A5
:102F7000801791076CF00894E11CF11CA5966B5D1D
:102F80007F4FB59684E1E816F10409F450C0EACF0A
:102F900083E190E08E199F0925E230E0829FA00135
:102FA000839F500D929F500D1124CE01835B9F4E45
:102FB0000E94F14E85E290E0E89EF001E99EF00D5E
:102FC000F89EF00D1124E85DFF4E808181608083C2
:102FD00020915E0230915F02A9014F5F5F4FA9E22D
:102FE000B0E1FD0131978081B59680FF08C08D91D9
:102FF0009C9111978217930711F49A01EDCF959642
:1030000083E1EC30F80779F750935F0240935E025A
:1030100085E290E0E89EF001E99EF00DF89EF00D4B
:103020001124E85DFF4E32832183EF0102C0C0E02E
:10303000D0E00115110519F48DE00E94DA06209701
:10304000D9F00B8B9CA2C80168E070E00E94324E60
:10305000AB01B601CE0103960E94E84EA114B10463
:1030600041F0DE015496F50180E101900D9281500E
:10307000E1F789819A8102C08FEF9FEFDF91CF91B5
:103080001F910F91FF90EF90DF90CF90BF90AF9086
:103090009F900895BF92CF92DF92EF92FF920F938D
:1030A0001F93CF93DF93CDB7DEB724970FB6F89475
:1030B000DEBF0FBECDBF6C017B01B42E9E012F5F22
:1030C0003F4F42E050E00E942E02029729F587010F
:1030D0000E5F1F4F13C09E012D5F3F4F42E050E037
:1030E000B801C6010E942E020297B1F48B818B15A4
:1030F000A9F08C8199270296080F191F98012E19A3
:103100003F098A81992773E0880F991F7A95E1F723
:10311000089628173907FCF20FEF1FEFC801249615
:103120000FB6F894DEBF0FBECDBFDF91CF911F91D8
:103130000F91FF90EF90DF90CF90BF900895CF92C6
:10314000DF92EF92FF920F931F93CF93DF93CDB750
:10315000DEB722970FB6F894DEBF0FBECDBF6C016D
:103160007A0100E010E016C09E012F5F3F4F42E061
:1031700050E0B801C6010E942E02029709F569814C
:103180008A819927E3E0880F991FEA95E1F708966D
:10319000080F191FF70180818F3F59F4662321F32F
:1031A0006B3211F36C3201F36C33F1F26738E1F2F8
:1031B00003C08617C9F602C0F70160836B3311F4B0
:1031C0000FEF1FEFC80122960FB6F894DEBF0FBEB7
:1031D000CDBFDF91CF911F910F91FF90EF90DF90C6
:1031E000CF9008950F931F93CF93DF93CDB7DEB7A2
:1031F00060970FB6F894DEBF0FBECDBFFB010297FC
:103200006CF18E010F5F1F4FB801828193810E9484
:10321000C50480918E1381FD21C040E054E060E040
:1032200070E089E00E94050EA9E4BEE1F80180E1AA
:1032300001900D928150E1F78AE090E090932D1576
:1032400080932C1510928D1E10928C1E1092271EAA
:103250001092261E1092DE0A1092DD0A60960FB6BA
:10326000F894DEBF0FBECDBFDF91CF911F910F91BC
:103270000895CF93DF93EC018A85813061F081302E
:1032800038F0833019F0843081F405C084E001C047
:1032900081E08A870AC08E819F81009711F00E9489
:1032A000880382E08A871F821E82DF91CF91089572
:1032B0009C018091F703882319F481E090E0089540
:1032C0006091910287E1689FB00111246450754FAD
:1032D00040E150E0C9010E94B80480E090E0089508
:1032E0001F932FB7F89433278091BA0A8093560220
:1032F00082E08093DC032FBF80915602882309F07F
:1033000050C0209A289889EB8EBD0DB407FEFDCFE2
:103310008EB5289A1FB7F8948091DC03823081F52E
:1033200080915602882361F58091540220E030E0BC
:103330008F3F11F421E030E0232BE9F49FEF9093CD
:1033400056028F3F19F42FEF30E00DC0282F33279E
:10335000F901E253F54F8081809354028F3F11F4BD
:103360009093550290832093BA0A81E08093DC0306
:103370000E94DA0605C08FEF809356021092DC039C
:10338000812F99278FBF1FB7F8948091DC03882382
:1033900029F40E94510B8FEF80935302812F9927BC
:1033A0008FBF1F9108958091C1141D9B0CC088236D
:1033B000A1F481E08093C11482E00E94DA0685E0E6
:1033C0000E941A070895882341F01092C11483E0E7
:1033D0000E94DA0685E00E94330708951F920F923B
:1033E0000FB60F9211242F933F934F935F936F93D8
:1033F0007F938F939F93AF93BF93EF93FF9320910E
:103400006B0093B180914E0D8927822385FF02C006
:103410000E94D319FF91EF91BF91AF919F918F912E
:103420007F916F915F914F913F912F910F900FBEC0
:103430000F901F9018958091F40A823031F481E04A
:103440008093F40A81E10E94DA0608950F931F9396
:10345000CF93DF93EC018091ED098F5F8093ED09AD
:103460008E010F5F1F4FF80182838091F103882343
:1034700019F085E090E023C0CE010E94CA0E892B8E
:1034800071F0F80121813327322F22278981992772
:103490008062282B392B2983232F33272183D09334
:1034A0002715C09326151092F8141092F71481E096
:1034B0008093F1038FE00E94DA0680E090E0DF91D4
:1034C000CF911F910F9108958F929F92AF92BF92CB
:1034D000CF92DF92EF92FF920F931F93CF93DF93E0
:1034E000CDB7DEB7A8970FB6F894DEBF0FBECDBF3D
:1034F0008C01A0901A1FB0901B1F80901213909007
:1035000013130E945D0B29A33AA34BA35CA36DA3E5
:103510007EA38FA398A7DE015996FE01B19688E09D
:1035200001900D928150E1F7DE011196FE0179962E
:1035300088E001900D928150E1F7DE011996FE01BD
:10354000319688E001900D928150E1F7DE015196AD
:10355000FE01399688E001900D928150E1F780E1FB
:10356000F80111928A95E9F78EEF90E8F8019183BE
:10357000808380916002882399F0EB2CFA2CF186ED
:10358000E08680E09FEF938782878EEF90E09587BB
:103590008487C92CD82CD786C68680858D7F13C09A
:1035A000F80127E030E0DE0158968C911197808772
:1035B0002150304031968FEF2F3F3807B1F7F80197
:1035C000808592E08927808781E090E0A8960FB6F9
:1035D000F894DEBF0FBECDBFDF91CF911F910F9149
:1035E000FF90EF90DF90CF90BF90AF909F908F9023
:1035F0000895FC01808D9F01285F3F4F8F3F39F474
:10360000818D99278F709070039754F00EC08E3F74
:1036100061F4818D9927807F9070813891052CF419
:10362000C9010E94641A99270895F901ACE1B3E138
:1036300080E10D9001928150E1F78091EF0399278D
:1036400008952F923F924F925F926F927F928F9246
:103650009F92AF92BF92CF92DF92EF92FF920F9321
:103660001F93CF93DF93CDB7DEB7CB54D0400FB6C7
:10367000F894DEBF0FBECDBF26961FAE1EAE2697B6
:1036800028961FAE1EAE28972A961FAE1EAE2A970A
:103690002C961FAE1EAE2C977C011B016A018091F7
:1036A0001A1F90911B1F9BAB8AAB8E01005F1F4FAF
:1036B000C8010E94641ABE01605E7F4FC8010E946B
:1036C0000D0C882309F0F5C4BE01675D7F4FC7016B
:1036D0000E940D0C882309F0ECC4809167028823B6
:1036E00019F084E090E00EC5F10184818F7080664E
:1036F00084838091F203282F33273FAB2EAB8F5F5B
:103700008093F2039091BD0A992309F4CEC480916D
:103710000F0AE82FFF27EE0FFF1FE050F44E408105
:1037200051815FAF4EAF1182108291509093BD0ACC
:103730008F5F80930F0A833011F410920F0A8EADC1
:103740009FAD892B09F4B1C481E0EEADFFAD868356
:103750001582138212821482D182C082CC24DD248D
:1037600092C480917F1CE82FFF27EE0FFF1FE959BD
:10377000F14E2081318124963FAF2EAF24971182E4
:103780001082915090939E0F8F5F80937F1C8C309E
:1037900011F410927F1C90919F0F992329F4229687
:1037A0001FAE1EAE22971AC08091EB0CE82FFF27A8
:1037B000EE0FFF1FE35FFA4E4081518122965FAF0B
:1037C0004EAF229711821082915090939F0F8F5F7E
:1037D0008093EB0C8C3011F41092EB0C24968EAD90
:1037E0009FAD2497009749F02296AEADBFAD2297CA
:1037F000AB2B91F40E946D0C09C02296EEADFFAD8B
:103800002297309719F0CF010E948C0C81E0EEAD29
:10381000FFAD858317E041C48E01005E1F4FA801F4
:103820006AE770E022968EAD9FAD22970E942F131B
:103830002C01C114D10409F022C3F1018481807FDD
:10384000803609F056C4D2018D93BDAFACAFF20102
:10385000118292012E5F3F4F3DAB2CABA1014C5F1B
:103860005F4F5BAF4AAFF1016481758186819781BB
:103870000E949A047B018C012FEF3FEF4FE050E054
:10388000E222F32204231523F101648175818681EC
:1038900097810E949A04A4E19695879577956795FC
:1038A000AA95D1F7462FE114F10401051105C9F4D9
:1038B000D2012C91662329F428612C93ACA8BDA8D1
:1038C00047C02061F2012083862F8295880F880FE0
:1038D000807C46954695482B4283F3E0AF2EB12C71
:1038E00035C0862F99279C0123703070BC01E6E01B
:1038F000660F771FEA95E1F75801CC24DD246F2C81
:10390000702E812E99242817390789F4D2018C91C1
:1039100088608C938A2D8F70862BF2018283ECA9AC
:10392000FDA96182E282B5E0AB2EB12C0FC04695B5
:103930004695462BF20142838A2D8F70ECA9FDA992
:1039400081836282E382A6E0AA2EB12CA40CB51C6E
:10395000EAADFBAD8681882361F08B3251F08C3269
:1039600041F08C3331F0873821F0893211F0813108
:1039700029F4D2018C9184608C9303C0F50181936A
:103980005F01EAADFBAD8781813021F4D2018C91DA
:1039900081600CC0803429F4F201808182608083D0
:1039A0000AC08F3F29F4D2018C9183608C9303C0AD
:1039B000F50181935F01FCE0CF2ED12CC20CD31C0A
:1039C0004E010894811C911CB401C6010E94EF14A1
:1039D00019820AA91BA9992774019E01205E3F4FF5
:1039E000AC01B601C5010E9405125C018981829576
:1039F000807FACADBDAD9C91892B8C93F101848D02
:103A0000ECE1CE2ED12CC20CD31C8F3FB1F0B4010F
:103A1000C6010E94EF1419820AA91BA999279E01C9
:103A2000275D3F4FAC01B601C5010E9405127C0124
:103A3000ACADBDAD8C91998160C01982F101848DCE
:103A4000958D8F5F924091F448E750E060E170E01F
:103A5000C6010E94AB0C892B49F48981836089835C
:103A6000F6018785D5018D937D0142C048E650E07F
:103A700060E170E0C6010E94AB0C892B91F4898152
:103A800082608983F6018181F5018193D6011D96BB
:103A900083E00D9001928150E1F774E0E72EF12C64
:103AA00025C048E550E060E170E0C6010E94AB0C23
:103AB000892B91F4898181608983F6018181F501E7
:103AC0008193D6011B9685E00D9001928150E1F71C
:103AD00066E0E62EF12C0AC0D501F60180E10190E6
:103AE0000D928150E1F750E1E52EF12CEA0CFB1C20
:103AF00099819860ACADBDAD8C91892B8C93E1140C
:103B0000F10409F4F6C2C7012296EEADFFAD22978B
:103B10008E1B9F0B2AE730E0281B390B39AF28AFEB
:103B2000F101D284AA24BB24D4C09E012E5F3F4F52
:103B300042E050E0B501F101828193810E942E02A2
:103B4000029709F0CDC28B81992728AD39AD28178E
:103B5000390708F4C5C280EED7018C93BCE2DB16AE
:103B600091F0BD1538F0DD20A9F0EBE2DE1609F08A
:103B7000B7C207C0FCE3DF1641F027E8D21649F0D0
:103B8000AFC282EE03C084EE05C086EEF7018083EB
:103B900003C088EED7018C93F1016280738042E00C
:103BA000842E912C8A0C9B1C9E012C5F3F4F42E07F
:103BB00050E0B501C3010E942E02029709F07CC2B9
:103BC000DD2049F0FCE3DF1631F08D81880F880F8E
:103BD000880F885F30C0840164018D81992733E0AC
:103BE000880F991F3A95E1F7089608171907DCF432
:103BF0009E012A5F3F4F42E050E0B801C3010E949E
:103C00002E02029709F058C22E81222319F40F5F69
:103C10001F4FE3CF8F8199270296080F191F21307C
:103C2000E1F26801DACF0A191B090817190709F030
:103C300057C28C2D8A199927082F882309F450C25E
:103C4000DA80DD2091F02BE2D21679F03CE2D31637
:103C500061F04CE3D41649F057E8D51631F089E20B
:103C6000D81619F091E1D91629F4D7018C91816009
:103C70008C9304C0D7011196F701D182FD01018315
:103C800011270250104012969D01A801B401F101C4
:103C9000828193810E942E028017910709F020C231
:103CA0008B81992723E0880F991F2A95E1F70896C1
:103CB000D7012C9120952170FC01E20FF11DEE0E31
:103CC000FF1EA80EB91E28AD39AD281B390B39AF20
:103CD00028AFDD2009F429CF3BE2D31609F425CF24
:103CE0004CE2D41609F421CF5CE3D51609F41DCFBC
:103CF00087E8D81609F419CF99E2D91609F415CF37
:103D0000A1E1DA1659F5E8ADF9AD379708F4E8C145
:103D10009E01285F3F4F48E050E0B501F1018281EC
:103D200093810E942E02089709F0DAC180EFD70133
:103D30008C9388859985AA85BB85F70181839283B9
:103D4000A383B4838E859F859683858328E030E0A6
:103D5000A20EB31E47E050E0E40EF51EB7FCC0C152
:103D6000F101F1852596FFAF2597F101F0852696A3
:103D7000FFAF269726960EAD1FAD26970A191B0991
:103D8000970122964EAD5FAD2297241B350B8AE733
:103D900090E0821B930B8017910708F053C0A70196
:103DA00044195509B201C20104960E94F14E411412
:103DB0005104C1F180ECD2018C93F101F185279679
:103DC000FFAF2797F101F0852896FFAF2897289637
:103DD0002EAD3FAD2897285D3F4F28963FAF2EAFC1
:103DE0002897377028964EAD5FAD289748525040BF
:103DF00028965FAF4EAF2897832F9927806C8C93BE
:103E0000ACADBDAD2C93F20160816695669566956B
:103E1000683111F06C3131F4ACA9BDA91C922EA906
:103E2000FD01218344E050E0E40EF51EC701229617
:103E3000AEADBFAD22978A1B9B0B0AE710E0081BB3
:103E4000190B087F9701A801B501F10182819381C7
:103E50000E942E028017910709F033C1085D1F4FA1
:103E60006501C00ED11E08521040970122964EAD3A
:103E70005FAD2297241B350B200F311F90C0A80186
:103E80006AE770E022968EAD9FAD22970E942F13B5
:103E90007C01892B09F418C180EED7018C93F101C4
:103EA000F1852996FFAF2997F101F0852A96FFAF9A
:103EB0002A972A962EAD3FAD2A97285D3F4F2A9626
:103EC0003FAF2EAF2A9737702A964EAD5FAD2A9737
:103ED000485250402A965FAF4EAF2A97832F9927BA
:103EE000806E8C93F701218386958695869588311F
:103EF00019F08C3109F0EBC0F70112822EA923834F
:103F000080818695869586958C3109F0E3C0C6013F
:103F100003E0969587950A95E1F7848397012B5FD7
:103F20003F4FF101F1852B96FFAF2B97F101F08503
:103F30002C96FFAF2C972C960EAD1FAD2C970C191D
:103F40001D09085D1F4FC90122964EAD5FAD229736
:103F5000841B950B4AE750E0481B590B401751074B
:103F600010F48A01087FB60168527040A801F1017F
:103F7000828193810E942E028017910709F0ADC0C3
:103F8000009709F49BC0C80ED91E970122964EAD2A
:103F90005FAD2297241B350B0596280F391F822F02
:103FA0008F5F2296AEADBFAD22978C93121613068B
:103FB0006CF022968EAD9FAD22970E948C0C2496B9
:103FC0008EAD9FAD24970E946D0C91C09091F5032A
:103FD0009C3008F088C08091F403E82FFF27EE0F93
:103FE000FF1FE156F44E24962EAD3FAD249731834A
:103FF00020838F5F8093F4038C3011F41092F403CC
:104000009F5F9093F503EEADFFAD82818F5F82835A
:1040100022962EAD3FAD22972496EEADFFAD2497AC
:10402000338322834EAD5FAD5183408389A5837076
:10403000823059F48AA59BA58F5F9F4F31F4245895
:104040003F4FD9011D921C920CC02496EEADFFADDE
:104050002497A281B381A458BF4F85E090E08D934F
:104060009C932496EEADFFAD2497A281B381A45812
:10407000BF4F87E690E0FD0193838283EEADFFADF5
:1040800086818F5F868390919E0F992309F069CB7B
:1040900024961FAE1EAE24977ECB8EAD9FAD0E94A0
:1040A0000A0D84E10E94DA0601C017E0812F9927EA
:1040B00029C081E090E026C00FEFC2CD80E090E003
:1040C0001AC08DEF9FEF17C08BEF9FEF14C08AEFE0
:1040D0009FEF11C089EF9FEF0EC08CEF9FEF0BC0D9
:1040E0008EEF9FEF08C081E0EEADFFAD858310E05D
:1040F000D4CF8FEF9FEF8F5F2296AEADBFAD2297EB
:104100008C9357CFC55BDF4F0FB6F894DEBF0FBE61
:10411000CDBFDF91CF911F910F91FF90EF90DF9076
:10412000CF90BF90AF909F908F907F906F905F9057
:104130004F903F902F9008950F931F93CF93DF934D
:10414000982F8B01BA012091B70A222319F4C0E0FD
:10415000D0E020C080918E1EE82FFF27EE0FFF1FBA
:10416000E250F64FC081D1811182108221502093FC
:10417000B70A8F5F80938E1E833011F410928E1ECB
:10418000209741F0DE01F801389688E001900D9209
:104190008150E1F7913011F080E004C0AE01C80118
:1041A0000E94211B9927182F882329F0209719F0A6
:1041B000CE010E942A0D812F9927DF91CF911F9167
:1041C0000F910895EF92FF920F931F93CF93DF9378
:1041D000EB0180E68C8380E18B874CE1E42EF12CAF
:1041E000E60EF71E60E870E0C7010E94E9158C0139
:1041F000C7010E942515882319F08C8D8F3F81F50A
:104200008C8D9D8D8E5F904851F08C8D8F3F59F530
:10421000F701818199278F709070039724F501151C
:10422000110521F0F801838987FD10C081E08B879B
:104230008C8D8F3F21F0AE01B70181E00DC040E0D1
:1042400050E0BE01C7010E94211B08C0B8016C5E8E
:104250007F4FAE01F80184A10E949C20992707C0DE
:1042600081E090E004C00115110581F7F9CFDF91DD
:10427000CF911F910F91FF90EF9008956F927F92D1
:104280008F929F92BF92CF92DF92EF92FF920F9305
:104290001F93CF93DF93CDB7DEB7C054D0400FB696
:1042A000F894DEBF0FBECDBFB82E6B015A83498391
:1042B0003C832B831E821D82CE0101960E94D10178
:1042C0004C0188E2FE01799611928A95E9F78DE01A
:1042D000682E712C6C0E7D1E88E0F30111928A9578
:1042E000E9F7DE01D196F601329680E101900D9258
:1042F0008150E1F7CE0149960E94F91AAB2DBB27F8
:10430000FD01EE0FFF1FE15AF14E80819181892B53
:1043100079F58091680290916902F6ED873D9F07DB
:1043200018F020E537EC03C09C012F5F3F4F092FA9
:10433000182F309369022093680266C086ED273DEE
:10434000380718F020E537EC02C02F5F3F4F032FEE
:10435000122F5AC03093690220936802FD01EE0FBC
:10436000FF1FE15AF14E31832083232B09F465C0EE
:10437000AA0FBB1FA15AB14E8D919C919E878D872C
:10438000F60180819181988B8F87C4010896E92E70
:10439000F82EFA8AE98A1C8A1B8A80E6898F81E1D5
:1043A0008F8FFE8EED8E78866F8288E090E09A8700
:1043B0008987CE0101969C878B87E7E0EE2EF12C52
:1043C000EC0EFD1EF88EEF8A79E1C72ED12CCC0EB3
:1043D000DD1E41E1B701C6010E94F3028C0141E1FB
:1043E000B701C6010E94F302102F0027892F9927D9
:1043F000082B192B1C8B0B8BBE016B5E7F4F81E151
:104400000E94E22099271BC080915F1E9091601E40
:104410008017910709F492CF8091611E9091621EDE
:104420008017910709F48ACF8091631E9091641ED2
:104430008017910709F08ECF81CF81E090E0C05CBA
:10444000DF4F0FB6F894DEBF0FBECDBFDF91CF9127
:104450001F910F91FF90EF90DF90CF90BF909F90B2
:104460008F907F906F900895AF92BF92CF92DF921E
:10447000EF92FF920F931F93CF93DF935C0182E043
:10448000A816B104ECF17B0191E0C92ED12C00E11A
:104490001AE0E701EA81FB81EF0109900020E9F7CA
:1044A0002197CE1BDF0B82E090E0E80EF91ECE01D3
:1044B0008F509A40800F911F813891058CF4AE0186
:1044C000BF01C8010E94E84EF801EC0FFD1F80E219
:1044D00081938F010894C11CD11CCA14DB04C9F656
:1044E0008AE0E8018A938E010F5F1F4F00511A4046
:1044F000980140E15AE068EB7BE182E00E943E21B6
:10450000DF91CF911F910F91FF90EF90DF90CF90AF
:10451000BF90AF900895CF93DF93A091D002B09158
:10452000D102FD0101900020E9F73197EA1BFB0B56
:104530009F01AD0168EB7BE182E00E943E2160E0DB
:1045400072E080E19AE00E94134F80917F1E482F15
:104550005527CA0104968D3791056CF460E87EE119
:1045600083E19AE00E94E84E80917F1EA82FBB272E
:10457000AD5EB54F09C08EE28093130A8093140A92
:104580008093150AA6E1BAE0FD018DE581938AE0EA
:10459000ED018983EF50FA409F0140E15AE068EB5A
:1045A0007BE182E00E943E21DF91CF910895A091AE
:1045B0005E03B0915F03FD0101900020E9F73197A0
:1045C000EA1BFB0B9F01AD0168EB7BE182E00E94DF
:1045D0003E210895CF92DF92EF92FF920F931F93A7
:1045E000CF93DF93EB01AA81BB81CD90DC90119733
:1045F000FD0182819381049700F18A858A33E9F471
:10460000F6011382128244E0E42EF12CE60EF71E2E
:104610004AE3BD01C7010E94F3028C016A817B81DC
:104620004AE3C7010E94F302102F0027892F992720
:10463000082B192BF60113830283BE018AE30E9423
:10464000E2209927DF91CF911F910F91FF90EF907A
:10465000DF90CF9008952F923F924F925F926F928A
:104660007F928F929F92AF92BF92CF92DF92EF9202
:10467000FF920F931F93CF93DF93CDB7DEB72497AD
:104680000FB6F894DEBF0FBECDBF2C018091B60AE5
:10469000882309F027C18091A00F853009F022C13D
:1046A00080918E1B882309F01DC154E8252E312CE2
:1046B000240C351CD1018C9182FD02C090E00BC00E
:1046C000E5E8F0E04E0E5F1EF20191812BE73FEF2F
:1046D000420E531E9F7080913313981729F09093C8
:1046E0003313906C90934501C2010E94620F88239E
:1046F000A9F08091460199278F7190702091061C36
:104700004091900A240F312D311D43E035952795B6
:104710004A95E1F7281739070CF4E4C089E0809343
:104720004201D1018C9184FD03C01C821B8208C010
:10473000F201808185509201280F311D3C832B832B
:10474000D2018C919927282F80938001809141017B
:104750008F71893021F086E080934201C3C0F2015D
:104760003196FA83E9838EEFF82EF20E0FB7F894A4
:1047700011270E94A60D3B014C0182E0809342016B
:104780000FBF8BE090E0A0E0B0E0680E791E8A1EBB
:104790009B1E6F2D7727AB81BC81109709F483C0D6
:1047A0002C91FD01E1808281A3809927AA27BB2754
:1047B000BA2FA92F982F8827332744275527522F00
:1047C000442733272227FF24002711278701FF24AE
:1047D000EE242E293F29402B512BBB24CC24DD2451
:1047E0002A293B294C295D29822B932BA42BB52BFD
:1047F00086199709A809B9098383292F3A2F4B2FC6
:10480000552722839D014427552721838B2F9927E4
:10481000AA27BB278083AB0169817A8181E891E077
:104820000E94E84E86E080934201AB81BC812C91CE
:10483000FD01E1808281A3809927AA27BB27BA2F97
:10484000A92F982F8827332744275527522F4427ED
:1048500033272227FF24002711278701FF24EE2476
:104860002E293F29402B512BBB24CC24DD242A297F
:104870003B294C295D29822B932BA42BB52B860D2C
:10488000971DA81DB91D8383292F3A2F4B2F55271C
:1048900022839D014427552721838B2F9927AA27FF
:1048A000BB2780830AC0AB0169817A8181E891E0EE
:1048B0000E94E84E86E080934201D1018C91826093
:1048C0008C93C2010E948D0FFC01608271828282F2
:1048D000938286E08093A00F84E08093B60A80E004
:1048E00090E002C085E090E024960FB6F894DEBF19
:1048F0000FBECDBFDF91CF911F910F91FF90EF9031
:10490000DF90CF90BF90AF909F908F907F906F90EF
:104910005F904F903F902F9008958F929F92AF920B
:10492000BF92CF92DF92EF92FF920F931F93CF939C
:10493000DF9380918E1B882309F4F5C02FB7F8947C
:1049400033278091E900A82E8091EA00B82E80914B
:10495000EB00C82E8091EC00D82EF0908E1B1092A8
:104960008E1B2FBFF7FE0DC08091B60A833011F069
:10497000873039F485E08093A00F88E08093B60AF1
:1049800045C08091B60A843009F040C0F1FE3EC0B7
:1049900085E08093A00F1092B60A8091920A83302E
:1049A00019F41092920A32C00091651E1091661E91
:1049B000C8010E94510F882311F1C8010E94620FA3
:1049C0008823E9F0C8010E94760F8F5F9F4FB9F0EE
:1049D00090E08091A614882309F491E0992379F05E
:1049E00012E01093490D81E08093A6146BEB70E008
:1049F00080E090E00E94EB0E1093920A07C01092A4
:104A0000920A1092F50A80E00E94800FCF2DDD27D8
:104A1000C5FF4EC08091B60A863019F41092B60ACE
:104A200003C0882309F044C02091181F3091191F3A
:104A300040E2F41651F5109146011F718091900AE1
:104A4000982F96959695E12FE91B8E0F8093900AEB
:104A5000F901EC57FF4F808182608083C9010E9479
:104A60008D0FFC01A082B182C282D382E091181F17
:104A7000F091191FDF01AC57BF4F8C918B7F88607D
:104A80008C93EB57FF4F11830FC0F901EC57FF4F89
:104A900080818D7F8083E091181FF091191FEC5762
:104AA000FF4F8081877F808385E08093B60A04C0B2
:104AB0008091B60A853089F4C4FF0FC02091061C8E
:104AC000809146018F71922F96959695891B280F9C
:104AD0002093061C89E08093B60AC0FF0CC0809129
:104AE000A00F823041F48091B60A8250823018F4CF
:104AF00083E08093A00FC3FF16C08091B60A863072
:104B000091F4809155018F77809355011092B60AE8
:104B100080914101992787709070892B09F422C2F6
:104B2000809141011FC29091B60A992309F41AC2DB
:104B3000993009F09BC140917B018091460187FF2C
:104B400051C0433008F44EC0842F99278E37910509
:104B50000CF048C0E091181FF091191F419342508A
:104B6000552760E871E0CF010E94E84E8091181F40
:104B70009091191F0E94900F882349F020E030E0A7
:104B80008091920A823081F421E030E00DC08FB72D
:104B9000F894282F332790E08091B71B833008F4D6
:104BA00091E02FBF292F3327232BE1F0E0917B01E8
:104BB000FF27E058FE4F8081E091181FF091191FE8
:104BC000EB57FF4F808385E08093A00F1092B60AC9
:104BD000C091181FD091191FCE010E94900F8823F9
:104BE00039F430C085E08093A00F1092B60AB6C1A8
:104BF0008091920A823009F034C19B81E091651E58
:104C0000F091661E8381981709F02BC18981877006
:104C1000823009F026C18091DF008D7F8093DF0014
:104C20008FEF809353021092A614EC57FF4F8081B0
:104C3000816080831092920A1092F50A80E00E94AF
:104C4000800F0FC18091920A8823C9F4CE010E947F
:104C50009B0F8823A1F085E08093A10F82E08093D1
:104C6000A20F1092A30F8B818093A40F81EA9FE083
:104C70000E942B23882319F483E08093920A0E94D8
:104C8000A60D8B01CE010E949B0F882311F00A5CB8
:104C90001F4F10932D1300932C130E94A60D061B7B
:104CA000170BB80110161106E4F48091F50A882359
:104CB000A9F490E08091A614882309F491E0992347
:104CC00081F081E08093490D8093A614882777FDB9
:104CD0008095982F0E94EB0E80E801C08068809339
:104CE000F50A4E010894811C911C89852885992715
:104CF000582F44273327422B532B8091970A282F74
:104D00003327F901EE0FFF1FE852F44E80819181A5
:104D10000091A7148417950749F4F901E75AF14E59
:104D20008081801709F468C0802F1BC0EE24FF2407
:104D300080E090E0A8EDBBE1E9E5FEE1BF01182FBE
:104D40009C018D919C9111978417950789F420936C
:104D5000970A9091A714FB018081891709F44CC030
:104D6000892F8F5F8093A7148083E0E8EE2E2AC0FE
:104D70008081902F981BE91610F4E92EF22E1F5F08
:104D8000C90101966F5F7F4F12963196853091056C
:104D9000B1F61530B9F4F092970AAF2DBB27FD019B
:104DA000EE0FFF1FE852F44E518340838091A71409
:104DB0008F5F8093A714FD01E75AF14E8083A45EB4
:104DC000B04E1C929091A714892F8F778F3781F462
:104DD000EEE7EE1568F4E9E5FEE1292F2078808101
:104DE0008F678913208331964EE1EE35F407B9F7CA
:104DF0008091970A282F3327F4019281A22FBB2795
:104E0000FD01E45EF04E808180FF07C0FD01E653A6
:104E1000F44E8081981729F102C081608083A653E7
:104E2000B44E9C93FFB6F8948091B71B8330B0F4D6
:104E3000E091FE1BE80FE33008F0E350FF27EE0F90
:104E4000FF1FEB5FF54F00811181D183C0838F5F1E
:104E50008093B71B82E10E94DA06E8018F2D992723
:104E60008FBFD093191FC093181F6FC0292F2150D7
:104E7000233008F057C0892F8250823098F48091F7
:104E8000A00F813079F49FEF90934F0180E88093D9
:104E90004E01809139018D7F8093390190935302A7
:104EA00082E010C0933089F48091A00F833069F4C0
:104EB0008DE580934E018FEF8093530286E08093BF
:104EC000420184E08093A00F10C0223070F48091E2
:104ED000A00F853051F493E09093420110924E015F
:104EE0008FEF809353029093A00F9091B60A913068
:104EF00069F48091A00F833009F04EC08091390190
:104F00008260809339019093A00F1BC09230E9F426
:104F10008091A00F833011F510924E018FEF809396
:104F200053020FC0973089F48091401E80648093B3
:104F300048018091A00F853021F484E08093A00F78
:104F400004C088E08093B60A04C08091B60A883015
:104F500029F41092B60A80E10E94DA068091B60A1E
:104F60008823D1F48091A00F8530B1F480918E1BFD
:104F7000882391F48091920A882371F48091F50A34
:104F8000882351F490E08091A614882309F491E0DD
:104F9000992311F00E941B1A8091A614823009F007
:104FA00083C01092A614F090490DF1E0FF1629F08D
:104FB00022E0F21609F078C070C000912C13109115
:104FC0002D130E94A60D2091F50A203829F4109285
:104FD000F50A0E941B1A68C0E801C61BD70B27FF01
:104FE00003C01C161D0604F10091DB0A1091DC0AB7
:104FF0008091920A8823C1F4C8010E942B2399272B
:10500000882369F4F801EC57FF4F80818E7F8083FD
:10501000F092920A1093661E0093651E3AC099277B
:10502000182F8823B1F101C015E02091F50A822FD5
:1050300099278F770197A1F4207822602093F50AB1
:105040008CE890E00E942F0F21E02093490D2093DF
:10505000A614AA27BB27BC01CD010E94EB0E24C0D9
:1050600027FF13C01C161D0684F480E88093F50A00
:1050700081E08093490D8093A614BE01882777FDB7
:105080008095982F0E94EB0E02C01092F50A812F96
:1050900009C083E08093F50A07C01092920A10922B
:1050A000F50A80E00E94800F8FB7F894282F3327ED
:1050B0008091B90A813029F081E08093B90A2FBF2D
:1050C00038CC1092B90A2FBFDF91CF911F910F9169
:1050D000FF90EF90DF90CF90BF90AF909F908F9018
:1050E00008958FB7F894282F33278091B90A882321
:1050F00029F080688093B90A2FBF089581E08093DA
:10510000B90A2FBF0E948D2408951F920F920FB6E7
:105110000F9211242F933F934F935F936F937F933D
:105120008F939F93AF93BF93EF93FF938091DF0093
:105130008D7F8093DF008FEF809353028091A614C0
:10514000813019F482E08093A6140E947128FF91A7
:10515000EF91BF91AF919F918F917F916F915F91EF
:105160004F913F912F910F900FBE0F901F90189568
:1051700078941F920F920FB60F9211242F933F93A2
:105180004F935F936F937F938F939F93AF93BF934F
:10519000EF93FF932FB7F894332780918E1B88608D
:1051A00080938E1B2FBF0E947128FF91EF91BF91BA
:1051B000AF919F918F917F916F915F914F913F91AF
:1051C0002F910F900FBE0F901F90189578941F92FB
:1051D0000F920FB60F9211242F933F934F935F932B
:1051E0006F937F938F939F93AF93BF93EF93FF93AF
:1051F0002FB7F894332780918E1B826080938E1B8B
:105200002FBF0E947128FF91EF91BF91AF919F91A5
:105210008F917F916F915F914F913F912F910F905F
:105220000FBE0F901F90189578941F920F920FB693
:105230000F9211242F933F934F935F936F937F931C
:105240008F939F93AF93BF93EF93FF932FB7F894F0
:10525000332780918E1B816080938E1B2FBF0E940D
:105260007128FF91EF91BF91AF919F918F917F91A5
:105270006F915F914F913F912F910F900FBE0F90C3
:105280001F90189578941F920F920FB60F921124C9
:105290002F933F934F935F936F937F938F939F933E
:1052A000AF93BF93EF93FF932FB7F8943327809179
:1052B0008E1B806880938E1B2FBF0E947128FF91E8
:1052C000EF91BF91AF919F918F917F916F915F917E
:1052D0004F913F912F910F900FBE0F901F901895F7
:1052E00078941F920F920FB60F9211242F933F9331
:1052F0004F935F936F937F938F939F93AF93BF93DE
:10530000EF93FF932FB7F894332780918E1B806221
:1053100080938E1B2FBF0E947128FF91EF91BF9148
:10532000AF919F918F917F916F915F914F913F913D
:105330002F910F900FBE0F901F90189578941F9289
:105340000F920FB60F9211242F933F934F935F93B9
:105350006F937F938F939F93AF93BF93EF93FF933D
:105360002FB7F894332780918E1B806180938E1B1A
:105370002FBF0E947128FF91EF91BF91AF919F9134
:105380008F917F916F915F914F913F912F910F90EE
:105390000FBE0F901F9018958FB7F894282F3327C2
:1053A0008091B90A81508093B90A803811F02FBFDB
:1053B000089581E08093B90A2FBF0E948D2408953B
:1053C0001F938FB7F89499272091B90A2F5F2093E4
:1053D000B90A8FBF8091F40A882311F015E018C034
:1053E0008091B60A882389F48091A00F853019F442
:1053F00089E090E00CC083E08093B60A0E94712897
:1054000085E08093F40A10E003C085E090E0182F57
:105410000E94CC29812F99271F9108952F923F92A6
:105420004F925F926F927F928F929F92AF92BF92B4
:10543000CF92DF92EF92FF920F931F93CF93DF9360
:10544000CDB7DEB7A1970FB6F894DEBF0FBECDBFC4
:105450001B861A861D861C861F861E86198A188A38
:105460001B8A1A8A1D8A1C8A1F8A1E8A198E188E08
:105470001B8E1A8E1D8E1C8E1F8E1E8E4C015B0184
:105480006A0179014115510531F480E090E020E096
:1054900030E01B8237C03327121613061CF080E061
:1054A00090E0E4C3FA019081892F829586958695D4
:1054B000837009F4D6C3969596959695983119F010
:1054C00040E050E00AC024503040121613060CF0A1
:1054D000CBC3FA01349644E050E0808186958695EE
:1054E00086958C3109F44860242F403109F4B9C302
:1054F0004B83822F99279C012470307082FF02C059
:1055000004E001C000E083FD0B5F222381F1C114A0
:10551000D10491F1A114B10479F0F601808186954E
:1055200086958695883111F08C3131F4F601A3818E
:10553000B281F501B183A083A5014C5F5F4FE1F01B
:10554000D6012C91822F869586958695883111F00B
:105550008C3191F427703327322F2227F601818175
:105560009927282B392BDA012D933C9305C081ED27
:1055700090E0F50195838483F501848195810E94F3
:105580005303F50197838683009719F48EEF9FEFFD
:1055900070C32601400E511CE01AF108FA82E9821C
:1055A000F5014481558160E070E00E94034FF501F0
:1055B00014861386D2018C91C680D780813481F401
:1055C00009811A81015010400894411C511CA80106
:1055D000B201C6010E94E84EF50126813781FFC263
:1055E000F5010480F581E02DF987E887282F33271E
:1055F000C901807E90708036910509F0F5C2A20144
:105600004E5F5F4F59A348A312010894211C311C1F
:10561000F201818187FD05C0662477241D821C82EA
:1056200012C0F2019281892F82958F70482F5527E1
:105630005D834C83692E77245FE065227724C20165
:10564000039699A388A3C901887190708830910549
:10565000C9F08031910521F0892B11F160E00EC075
:10566000A8A1B9A18D91B9A3A8A3982F990F990FBB
:10567000682F6295669566956370692BB0E0A0E02F
:1056800020E022C0E8A1F9A18081682F629566958B
:1056900066956370282F2F70A181B281339612C056
:1056A000A8A1B9A18C91982F990F990F682F629595
:1056B000669566956370692BFD0121812F70A2812B
:1056C000B3813496F9A3E8A377278827992714E1B3
:1056D000660F771F881F991F1A95D1F73327442724
:1056E0005527A90133272227622B732B842B952B57
:1056F0002B2F332744275527622B732B842B952B75
:105700002A2F332744275527542F432F322F222760
:105710005066622B732B842B952B0E949A04D60122
:105720006D937D938D939C931397F201808182FDFD
:1057300007C0A8A1B9A18D91B9A3A8A3F60186833A
:10574000D2018C919927837090708230910539F045
:105750008330910531F0019731F481E009C080E494
:1057600007C08FEF05C0A8A1B9A18D91B9A3A8A3C7
:10577000F6018783F401E288F388D1016C91629588
:105780006F70840128A139A14C815D81C601089602
:105790000E94AA1399A388A3892B09F425C2F101B9
:1057A0006081262F3327D601589623FF54C080E10D
:1057B000FD0111928A95E9F722FD16C2C901837095
:1057C000907081309105E9F0823091051CF4892BAD
:1057D00051F00AC28230910519F0039769F104C2B1
:1057E00003E010E010C0E8A1F9A180E101900D9262
:1057F0008150E1F768A079A020E130E0620E731ECD
:1058000039C005E010E08FEF8C9328A139A1F90190
:1058100081919F01FD018183A01BB10BA801B901FA
:10582000CD0140960E94E84E68A079A0600E711EDE
:105830000894611C711C1EC08FEF92E0F601918FDD
:10584000808FE8A1F9A18191F9A3E8A3FD018787E1
:1058500068A079A00FC0F401E288F38829E030E065
:10586000820E931E840128A139A1A301CD010E94BB
:10587000AA133C016114710409F4B6C178E2E72E61
:10588000F12CEC0CFD1CD2018C9182FF9BC1E885B0
:10589000F985B897FF83EE8386010A5F1F4F4301A6
:1058A000F501F686E586D3018C91482F5527CA016C
:1058B000807F9070803E910509F092C0CA018E7081
:1058C000907084309105B9F08530910534F40097DB
:1058D00069F0029709F088C10CC08830910579F011
:1058E0008E30910581F0069741F07EC1F80110825B
:1058F0000DC08BE209C08CE203C08CE305C087E8D1
:10590000F801808303C089E2D8018C93F301808180
:1059100080FF02C0D30106C0D3011196F30181813B
:10592000F70180831D010894211C311CFD01C180F9
:105930002C2D332739A328A32770307088E090E0FE
:10594000821B930B68E070E00E94324ED82E68A054
:1059500079A0680E711CC30102974E815F814817C0
:10596000590708F441C10894211C311C48A159A1D0
:1059700042505040B101C70102960E94E84ED80142
:105980008C91882311F08C33C9F4B1E0DB1641F41B
:10599000E8A1F9A1EE0DFF1DF9A3E8A310820EC046
:1059A000F1E0FD1558F4E8A1F9A1EE0DFF1D81E02D
:1059B00080832EEFD20ED18232E0D30EC30168E095
:1059C00070E00E94324E6150F701618331016C0C2E
:1059D000711C6D0C711C2EEF3FEF620E731EBCC06C
:1059E000CA01887F9070803F910509F0FDC008943E
:1059F000611C711C81E1D8018C93F701158214821E
:105A000017821682CA01837090708130910599F1D6
:105A1000823091051CF4892B49F087C082309105B2
:105A200009F44BC0039709F080C060C0F4012181E4
:105A30003327322F2227F30181819927282B392BF5
:105A40003A872B87EA85FB85D701ED93FC93F30119
:105A500022813327322F222783819927282B392B24
:105A60003C872D872C853D85F7013383228335E0E4
:105A7000632E712C1FC0F40181819927982F8827EC
:105A8000F30121813327822B932B9E878F87EE850D
:105A9000FF85D701ED93FC93F30182819927906FE5
:105AA000988B898B28893989F7013383228394E085
:105AB000692E712C680C791C38C0F40181819927FA
:105AC000906F9A8B8B8BEA89FB89D701ED93FC93BE
:105AD000F30121813327322F222782819927282B16
