:100000000C94A8010C94C7010C94C7010C94C7016F
:100010000C94C7010C94C7010C94C7010C94C70140
:100020000C94C7010C9472110C94C7010C94C70175
:100030000C94C7010C94C7010C94C7010C94C70120
:100040000C94230A0C94050A0C940F0A0C94190AB8
:100050000C94E2090C94C7010C94C7010C94C701DD
:100060000C94C7010C94610A0C94C7010C94730A98
:100070000C94C7010C9457090C94C7010C94C70148
:100080000C94C7010C94C7010C94C7010C94C701D0
:100090000C94840C0C94C7010C94600D0C94C70153
:1000A0000C94C7010C94C7010C94C7010C94C701B0
:1000B0000C94C7010C94C7010C94C7010C94C701A0
:1000C0000C94C7010C94C7010C94C7010C94C70190
:1000D0000C94C7010C94C7010C94C7010C94C70180
:1000E0000C94C7010C9497160C94C7010C94C51678
:1000F0000C94F3160C944F170C94C7010C94211711
:100100000C9436160C940B070C9464160C943A0855
:100110000C94B3050C94C7010C94C7010C94C7014F
:10012000991AA31AC51B831CA21C7E1A011A0E1A47
:1001300023191B1A7F1C491A571A9A1B4B1B281C80
:10014000DD1B181CC1199D19F31A00002110422053
:1001500063308440A550C660E770088129914AA1A8
:100160006BB18CC1ADD1CEE1EFF13112100273321F
:100170005222B5529442F772D662399318837BB3F8
:100180005AA3BDD39CC3FFF3DEE3622443342004AF
:100190000114E664C774A44485546AA54BB5288548
:1001A0000995EEE5CFF5ACC58DD5533672261116FF
:1001B0003006D776F6669556B4465BB77AA7199798
:1001C0003887DFF7FEE79DD7BCC7C448E558866887
:1001D000A7784008611802282338CCC9EDD98EE9E8
:1001E000AFF9488969990AA92BB9F55AD44AB77A5F
:1001F000966A711A500A333A122AFDDBDCCBBFFB38
:100200009EEB799B588B3BBB1AABA66C877CE44C6E
:10021000C55C222C033C600C411CAEED8FFDECCD87
:10022000CDDD2AAD0BBD688D499D977EB66ED55E3E
:10023000F44E133E322E511E700E9FFFBEEFDDDFD7
:10024000FCCF1BBF3AAF599F788F8891A981CAB163
:10025000EBA10CD12DC14EF16FE18010A100C23095
:10026000E3200450254046706760B9839893FBA350
:10027000DAB33DC31CD37FE35EF3B1029012F322E5
:10028000D2323542145277625672EAB5CBA5A895A0
:1002900089856EF54FE52CD50DC5E234C324A01435
:1002A00081046674476424540544DBA7FAB7998730
:1002B000B8975FE77EF71DC73CD7D326F236910685
:1002C000B01657667676154634564CD96DC90EF978
:1002D0002FE9C899E9898AB9ABA9445865480678D5
:1002E0002768C018E1088238A3287DCB5CDB3FEB90
:1002F0001EFBF98BD89BBBAB9ABB754A545A376A25
:10030000167AF10AD01AB32A923A2EFD0FED6CDD5F
:100310004DCDAABD8BADE89DC98D267C076C645C74
:10032000454CA23C832CE01CC10C1FEF3EFF5DCF6F
:100330007CDF9BAFBABFD98FF89F176E367E554EC4
:10034000745E932EB23ED10EF01E00020E060C0417
:1003500011241FBECFEFD1E4DEBFCDBF12E0A0E07D
:10036000B2E0E4EBF6E400E00BBF02C007900D92B0
:10037000A431B107D9F716E0A4E1B2E001C01D92A3
:10038000A33BB107E1F70E94F71E0C9459230C948C
:100390000000FC01892B61F020E030E08281938134
:1003A000280F391F0480F581E02D3097B9F702C07E
:1003B00020E030E0C9010895FB015183408333837D
:1003C0002283958384830895CF92DF92EF92FF92E8
:1003D0000F931F93CF93DF938C01FB017A01690187
:1003E000EC014A815B816417750758F0E41BF50B3B
:1003F000E8010C811D81E8014A815B81E417F50762
:10040000A8F70115110531F11E141F045CF022C07C
:10041000EC1AFD0AE0E0F0E01E141F04DCF4E80131
:100420004A815B81EA01CE1BDF0BEC16FD0608F466
:10043000E701D8018D919C91AE01B6018E0F9F1FEF
:100440000E944923CC0EDD1EF8010481158101159F
:100450001105F1F680E090E0DF91CF911F910F91AF
:10046000FF90EF90DF90CF9008954F925F926F9240
:100470007F928F929F92AF92BF92CF92DF92EF9234
:10048000FF920F931F93CF93DF938C015B014A017F
:1004900039010097B9F0FC0142815381CA01641708
:1004A000750750F412C07C01F80142815381840F1A
:1004B000951FA816B90658F0F80104811581011599
:1004C000110589F74424552433C0EE24FF24181461
:1004D0001904C4F74424552408C08C1A9D0A181422
:1004E000190434F5F801428153816501CE18DF0803
:1004F000EA01CC19DD098C169D0608F4E401F80127
:10050000608171816C0D7D1DAE01C3010E94492384
:10051000EC0CFD1CEC0EFD1EAC0EBD1E4C0E5D1E4B
:100520006C0E7D1EF8010481158101151105A9F6D7
:10053000C201DF91CF911F910F91FF90EF90DF905B
:10054000CF90BF90AF909F908F907F906F905F9073
:100550004F900895EF92FF920F931F93CF93DF93E5
:100560008C01892B09F460C040E050E060E070E04D
:10057000A0E0B0E0F801C281D381209781F1E08052
:10058000F18020E030E0E0E0F0E011C0EE0DFF1D72
:1005900080819927982F8827A82BB92B2F5F3F4F51
:1005A000F901C217D30769F02C173D07C0F4E0FF2B
:1005B000EDCFEE0DFF1D80819927A82BB92B2F5F62
:1005C0003F4FFD01CF01AA27BB27480F591F6A1FC4
:1005D0007B1FF901A0E0B0E02C173D0740F3F801C4
:1005E000048115810115110529F64030F0E05F07FF
:1005F000F1E06F07F0E07F0798F0DB01CA01A0701F
:10060000B070AB0166277727480F591F6A1F7B1F01
:10061000403080E0580781E0680780E0780768F79D
:10062000CA018095909502C08FEF9FEFDF91CF9127
:100630001F910F91FF90EF900895EF92FF920F930B
:100640001F93CF93DF93CDB7DEB76A970FB6F894B9
:10065000DEBF0FBECDBFE42E08969A87898740E1A2
:1006600050E05C874B879E01215F3F4F3E872D877F
:100670004096988B8F875A8B498BCE0145969C8BE1
:100680008B8BCE0101969E8B8D8B88E090E0988FAE
:100690008F8B7A8F698FCB010E94C901AA2797FDA2
:1006A000A095BA2FBC01CD010E942D0469837A83E5
:1006B0008B839C83FF2400271127C801B7010E9468
:1006C0002D046D837E838F839887CE0109960E94C7
:1006D000AA026A960FB6F894DEBF0FBECDBFDF91B7
:1006E000CF911F910F91FF90EF9008955F926F92BD
:1006F0007F928F929F92AF92BF92CF92DF92EF92B2
:10070000FF920F931F93CF93DF93DB013A015A01BE
:10071000A60EB71E28EF822E2FEF922E8A0C9B1C5E
:10072000EC01CC24DD2440E050E09AE3592E8A16F7
:100730009B0608F45EC00981188164E070E08FEFC9
:10074000E82EF82EECE0F0E0C701062E02C09695E8
:1007500087950A94E2F78017910770F142305105AE
:1007600041F16C5F7F4F34976431710569F788817F
:100770009981892BB9F54115510539F45D9288812C
:100780009981892B91F541E050E087E0C816D104AA
:1007900024F44130510509F05D920894C11CD11C2C
:1007A000229688E0C816D10411F64130510509F5AA
:1007B0001FC060317105A9F698010E2E02C0369552
:1007C00027950A94E2F7C9018F7090700A9728F470
:1007D000822F8F70805D8D93C4CF822F8F70895A46
:1007E0008D93BFCF4130510581F642E050E0CDCF2F
:1007F0005D921D92A618B708CD018A199B09DF9159
:10080000CF911F910F91FF90EF90DF90CF90BF900D
:10081000AF909F908F907F906F905F900895DC01D4
:100820008C9183708230A1F0833019F020E030E0A9
:1008300012C0FD01319620E030E0AD01475F5F4F0F
:1008400081919191280F391FE417F507C9F703C06B
:10085000FD0121813281C9010895EF92FF920F932A
:100860001F93FB01BC01882799272F2F3E2F442778
:100870005527A90133272227E72EF62E0027112717
:100880002E293F29402B512BCA01B9011F910F91ED
:10089000FF90EF9008959C014115510539F0DB015F
:1008A000FC018D91819341505040D9F7C9010895C1
:1008B000AF92BF92CF92DF92EF92FF920F931F936E
:1008C000CF93DF938C017B01892B09F4C3C06115A1
:1008D000710509F4BFC080E1FB0111928A95E9F727
:1008E000D80160E070E090E0FD012081222329F131
:1008F0002A3309F46AC0822F80538A3008F05BC023
:10090000332727FD30952053304062957295707FD4
:100910007627607F7627622B732B9D012F5F3F4FD9
:10092000FD014181442309F465C08C918A33D9F1DA
:10093000D901FD0120812223D9F6DF0111970A1781
:100940001B0708F087C040E050E097E060E018C067
:10095000332727FD309520533040062E02C0220F4A
:10096000331F0A94E2F7422B532B6C5F1197FD0162
:1009700081818A3309F463C00A171B0708F06AC033
:100980002C912A3309F447C0822F80538A3000F318
:10099000822F8154863008F057C0332727FD3095C9
:1009A00027533040DACF4A3319F6F9013196808166
:1009B0008823E1F7C2CF822F8154863030F5332768
:1009C00027FD309527533040A0CFE92FFF27EE0FAA
:1009D000FF1FEE0DFF1DC72FD62FD183C0839F5F52
:1009E00060E070E09D012F5F3F4FFD014181442396
:1009F00009F09BCFE92FFF27EE0FFF1FEE0DFF1D24
:100A0000A72EB62EB182A08225C0332727FD3095B0
:100A1000275530407ACFE92FFF27EE0FFF1FEE0D4D
:100A2000FF1DC52ED42ED182C082915040E050E0EF
:100A300060E01197FD0181818A3309F09DCF8C918F
:100A40008A3309F099CF06C0332727FD3095275503
:100A5000304083CFDF91CF911F910F91FF90EF90A6
:100A6000DF90CF90BF90AF900895FC0171836083B9
:100A700053834283358324830895CF92DF92EF928C
:100A8000FF920F931F93CF93DF938C017B01FC01A7
:100A900084819581892B29F1CC24DD2420E030E06C
:100AA000F80182819381289FE001299FD00D389F12
:100AB000D00D112480819181C80FD91FCE01F7017B
:100AC0000995FFEF8F3F9F0761F0019761F0960155
:100AD0002F5F3F4F6901F8018481958128173907FD
:100AE000F8F2C0E0D0E0CE01DF91CF911F910F91DD
:100AF000FF90EF90DF90CF900895EF92FF920F93C9
:100B00001F93CF93DF93EC017B018C819D81892B17
:100B1000E9F000E010E020E030E08A819B81AC0148
:100B2000249FC001259F900D349F900D1124288192
:100B30003981820F931FF701099598012F5F3F4F6D
:100B400089018C819D812817390738F3DF91CF9176
:100B50001F910F91FF90EF9008958FB7F894992708
:100B600008958FBF08951F920F920FB60F92112410
:100B70008F93809111038F5F809311038F910F905A
:100B80000FBE0F901F901895282F9FB7F894E82F4D
:100B9000FF27E65CFD4F80818F3F19F025E030E0B4
:100BA00016C0E0911D062E17C9F3809174048F3F83
:100BB00049F0FF27E65CFD4F208320931D0620E0CF
:100BC00030E005C02093740420931D06F8CF892FD0
:100BD00099278FBFC90108954FB7F89455272091E1
:100BE000E100622F2091E200722F2091E300822F1A
:100BF0002091E400922F4FBF08950F931F930FB7DA
:100C0000F894109111030E94EC059B01AC018091B6
:100C1000E00083FF05C01F5F0E94EC059B01AC0153
:100C2000802F99278FBFF6E05695479537952795E2
:100C3000FA95D1F7612F772788279927EAE1660F80
:100C4000771F881F991FEA95D1F7622B732B842B8E
:100C5000952B1F910F910895AF92BF92CF92DF9283
:100C6000EF92FF920F931F930E94FD052091700257
:100C7000309171024091720250917302E0906A02C9
:100C8000F0906B0200916C0210916D02E20EF31E67
:100C9000041F151F6217730784079507A8F1E21652
:100CA000F30604071507A8F5A8019701261B370BC3
:100CB000480B590B2130E0E03E07E0E04E07E2E050
:100CC0005E0780F16050704080409E4F60937002DC
:100CD000709371028093720290937302605070401F
:100CE00080409240205030404040524020936A0261
:100CF00030936B0240936C0250936D02A12CB12C87
:100D0000C12C50E8D52E38C0E216F30604071507AB
:100D100028F46E157F058007910730F220E030E05F
:100D200040E050E0E0927002F09271020093720293
:100D30001093730210926A0210926B0210926C026E
:100D400010926D0259016A01AA0CBB1CCC1CDD1C5F
:100D5000AA0CBB1CCC1CDD1CAA0CBB1CCC1CDD1CB7
:100D6000AA0CBB1CCC1CDD1CAA0CBB1CCC1CDD1CA7
:100D7000AA0CBB1CCC1CDD1C7B018C01EE0CFF1CE7
:100D8000001F111FEE0CFF1C001F111FEE0CFF1C9B
:100D9000001F111FEE0CFF1C001F111FEE0CFF1C8B
:100DA000001F111FEE0CFF1C001F111F0E94EC05FD
:100DB0009B01AC012E5F3F4F4F4F5F4FDA01C901DE
:100DC0008E199F09A00BB10B8A159B05AC05BD05BB
:100DD00030F4A60195012E0D3F1D401F511F509369
:100DE000F8004093F7003093F6002093F50081E07F
:100DF0008093E0008091DF0081608093DF008FEFBF
:100E0000809302021F910F91FF90EF90DF90CF909F
:100E1000BF90AF9008951F920F920FB60F921124BA
:100E20002F933F934F935F936F937F938F939F93F2
:100E3000AF93BF93EF93FF938091DF008E7F8093FA
:100E4000DF008FEF8093020280916A0290916B0223
:100E5000A0916C02B0916D020097A105B10521F43B
:100E600080E00E94C40502C00E942C06FF91EF9111
:100E7000BF91AF919F918F917F916F915F914F91B2
:100E80003F912F910F900FBE0F901F901895FC016E
:100E900082819927982F882721813327822B932BB2
:100EA00096958795929582958F7089279F7089274F
:100EB000817090700895FC0140E050E08281992794
:100EC000982F882721813327822B932B87749C7C32
:100ED0008154984811F441E050E0CA010895FC01A2
:100EE00087819927982F882726813327822B932B58
:100EF0000895EF92FF920F931F93CF93DF937B019F
:100F00008C018FB7F894C82FDD270E94EC059B0158
:100F1000AC01C801B701623071058105910520F46B
:100F200062E070E080E090E0260F371F481F591FF5
:100F3000DA01C901B093F400A093F3009093F2009A
:100F40002093F10082E08093E0008091DF008260D6
:100F50008093DF008FEF80930202CFBFDF91CF91AC
:100F60001F910F91FF90EF90089583E090E0089516
:100F7000FB01EC57FF4F21E030E002C0220F331F8E
:100F80008A95E2F7209580818223808308958B578C
:100F90009F4F08950196089520E030E0FC01818183
:100FA0008770823011F421E030E0C90108952FB735
:100FB000F894332780910E0290910F022FBF08956D
:100FC0000F931F93CF93DF93EC010E944707882371
:100FD00019F480E090E014C0CE010E945B078823E2
:100FE000C1F3CE010E946F078C010E94D70720E059
:100FF0000817190709F021E081E02827822F992797
:10100000DF91CF911F910F910895FB01EC57FF4F96
:1010100021E030E002C0220F331F8A95E2F7808181
:10102000822399270895FC01808182509927089591
:10103000EF92FF920F931F937C018FB7F89499273B
:1010400000914E0410914F040F5E1E4F10934F04F9
:1010500000934E04015111408FBF84E10E94C405EA
:10106000C801B7010E94DC2244961F910F91FF90A6
:10107000EF9008951F920F920FB60F9211240F90C8
:101080000FBE0F901F9018954091670280918400C9
:1010900090918500B09B06C04F5F209184003091F5
:1010A000850001C09C0136952795842F99279927A3
:1010B000869597958827822B932B0895FF920F93FF
:1010C0001F93CF93DF938C01FFB6F8940E944408DE
:1010D000EC0180E80130180768F0005010480E94C9
:1010E00044088C1B9D0B08171907C8F7C00FD11FA8
:1010F00000E010E80E9444088C1B9D0B081719079C
:10110000C8F78F2D99278FBFDF91CF911F910F9136
:10111000FF90089580917C0090917B008F719927BA
:10112000089590917C00907E282F2F71922B9093A0
:101130007C0085FF06C080917B00886080937B00E7
:10114000089580917B00877F80937B000895ECE772
:10115000F0E090818295880F880F807C9F73982B98
:1011600090830895DF92EF92FF920F931F93CF9396
:10117000DF93CDB7DEB721970FB6F894DEBF0FBE71
:10118000CDBF809179048823B1F11982FF24EFE16A
:10119000EE2E0FE1DFB6F894809152028E7F80939D
:1011A000520210917C000E948A08282F12951695F1
:1011B00016951370F11689F190E0990F8091520203
:1011C0008D7F892B000F000F8370802B809352023C
:1011D0008E2D0E94910880917C008F7D80937C00F1
:1011E0008F2D0E94A708209152022170898188309A
:1011F00051F087703EC038E0398372E0F72E62E02C
:10120000E62E02E0C7CF8091750490917604E1E666
:1012100080389E0758F087E02CC08E2D885086318C
:1012200078F490E0E216D1F09170C7CFF0E3803C03
:101230009F0740F438E18034930730F085E019C00F
:1012400091E0BBCF86E015C0ECE080309E0748F40B
:10125000F6E080309F0738F083E00BC091E091709A
:10126000ACCF84E006C08050934010F082E001C013
:1012700080E0187F182B18612295220F207E1F7D99
:10128000122B106C812F992780937A008D2D99272E
:101290008FBF21960FB6F894DEBF0FBECDBFDF9192
:1012A000CF911F910F91FF90EF90DF9008951F92C3
:1012B0000F920FB60F9211240F931F932F933F930A
:1012C0004F935F936F937F938F939F93AF93BF934E
:1012D000EF93FF93409178005091790078948FB705
:1012E000F894992720915202322F3695317021704F
:1012F0008FBF2223C1F480917A00877F80937A0088
:1013000080917C02813021F0823009F048C043C0D6
:10131000332309F439C0509349044093480483E0CF
:101320000E94C4053CC00FB7F894112780917C003F
:101330000E948A080FBF2FB7F894332780917A0054
:10134000582F5770482F4072087D042B052B80744E
:10135000077B082B00610F77802F992780937A00F5
:10136000087D042B052B07730061802F992780933C
:101370007A00087D042B052B077B0069802F9927B5
:1013800080937A002FBF0BC08DE790E00E945E082B
:101390000E94B20804C03323B9F310927C02FF917B
:1013A000EF91BF91AF919F918F917F916F915F91DD
:1013B0004F913F912F911F910F910F900FBE0F9062
:1013C0001F9018951F920F920FB60F9211248F93B2
:1013D0009F9380917C0490917D04019690937D046D
:1013E00080937C04892B29F4809169028F5F80931C
:1013F0006902809167028F5F809367029F918F914E
:101400000F900FBE0F901F9018951F920F920FB65E
:101410000F9211240F900FBE0F901F9018951F92DE
:101420000F920FB60F9211240F900FBE0F901F90C6
:1014300018951F920F920FB60F9211240F900FBEA6
:101440000F901F9018951F920F920FB60F921124B4
:101450000F900FBE0F901F90189521E030E002C052
:10146000220F331F8A95E2F780917B02822B8093B3
:101470007B02EBE6F0E08081282B2083E8E6F0E0B9
:1014800080818160808380E090E0089521E030E0F9
:1014900002C0220F331F8A95E2F7922F9095809118
:1014A0007B02892380937B02EBE6F0E08081282B8E
:1014B0002083E8E6F0E080818160808380E090E036
:1014C00008951F920F920FB60F9211248F9380915F
:1014D000C00087FF02C08091C6008F910F900FBEA1
:1014E0000F901F90189578941F920F920FB60F923D
:1014F00011240F900FBE0F901F901895EAE4F1E0B1
:101500006927660FF11DE60FF11DC895982F802DF4
:101510003196C89590250895982F809123028823AD
:1015200011F4992361F08091180280FD04C08D7F31
:101530008093180208958B7F80931802089531E0FC
:101540003093230280910702809324022091180295
:10155000822F81708093370280910C0290910D024E
:10156000909326028093250280911902809327028E
:1015700032273170267EE32FFF27EE0FFF1FE85F33
:10158000FD4F8081918190930D0280930C02232B5B
:10159000209318028DE00E94C40508951F931FB781
:1015A000F89480911606882341F488E00E94C405CF
:1015B000882319F481E080931606812F99278FBF25
:1015C0001F9108959FB7F894809147048A30C1F025
:1015D00020E0892F99278FBF222341F48FB7F894F9
:1015E000992721E0209317028FBF08958AE00E9477
:1015F000C4058FB7F8949927109217028FBF0895EA
:1016000020E080915D02843021F721E0E2CFFF925B
:101610000F931F93182F062F80915D02813009F4DC
:1016200042C08130A8F4112309F46AC110925D040C
:1016300010925C041092510410926F041092610297
:10164000109213031092120381E080935D0258C13F
:10165000823009F4C6C0833009F456C010925D048C
:1016600010925C0404E000935D0210925104109209
:101670006F04109261021092130310921203809172
:1016800028028D7F8093280281E00E948C0A80913D
:101690001702882309F0A0C0112309F431C181E0A9
:1016A00080935D022DC1112309F02AC1809112039C
:1016B000909113030E947E0A909313038093120368
:1016C00082E080935D0200936F04043439F68091C8
:1016D0001802282F217080FFDBC0982F96959695D1
:1016E0009170992309F0BACF222309F4DDC08460F8
:1016F00080931802877E88608093180210921902E6
:101700008FEF80930702FCC0F09051048FEFF81622
:1017100009F4A4CF112309F477C081E08F1508F0F4
:101720009DCFE0915C04EE2309F4B6C02E2F21502A
:10173000E22FFF27E45AFB4F82819927582F442735
:10174000222309F0C1C0E2E0F0E0E45AFB4F8281BD
:101750009927842B952B2091120330911303821724
:10176000930709F07BCF80E00E948C0A30916102E0
:10177000E0910703209108038E2F8F5F982F86300A
:1017800008F090E0921761F0FF27E95FFC4F328389
:1017900080930703863010F0109207030E94CE0A50
:1017A00010925D0410925C0494E090935D0210929C
:1017B000510410926F041092610210921303109260
:1017C0001203809128028D7F809328028091170256
:1017D000882309F495C002C000935D020E94E20ACA
:1017E0008FC0112309F03ACF6093610280911203F8
:1017F000909113030E947E0A909313038093120327
:1018000083E080935D027CC081E08F1578F5309194
:101810005D04E32FFF27E45AFB4F8281482F5527B1
:10182000642F20911802822F869586958695837065
:10183000992781309105E1F1029709F449C0E32F1E
:10184000FF27E45AFB4F62813F5F30935D043330E2
:1018500010F010925D04772780911203909113038A
:101860000E947E0A909313038093120380915C047C
:10187000E82FFF27E45AFB4F02838F5F80935C04BD
:10188000833010F010925C04F394F092510438C04D
:10189000982F9695917025CF809160049927582FA5
:1018A0004427E1E0FF2751CF82608093180222CFC6
:1018B000277E206120931802442301F585E0809360
:1018C000190260930702BBCFE22FE150FF273DCF03
:1018D00080911902873808F0B2CFE0910C02F091A4
:1018E0000D02E80FF11D4083809119028F5F8093F4
:1018F0001902F090510430915D04A1CF80E0DFCF58
:101900001F910F91FF9008951F920F920FB60F92A3
:1019100011242F933F934F935F936F937F938F93F4
:101920009F93AF93BF93EF93FF938091C80087FF7E
:1019300046C06091CE00E0911403F09115033097FA
:1019400019F18091140690911506E80FF91F608334
:1019500001969093150680931406209123063091EA
:1019600024068217930758F110921503109214035E
:1019700080914604833019F18091C9008F7780935C
:10198000C900109246041BC06E37A9F06D3769F08C
:101990008091280281FF05C08D7F8093280280E21C
:1019A000682780E00E94070B0AC0809128028260AD
:1019B0008093280204C060E081E00E94070BFF9141
:1019C000EF91BF91AF919F918F917F916F915F91B7
:1019D0004F913F912F910F900FBE0F901F90189530
:1019E0002FB7F89433278093CE00E8ECF0E08081A5
:1019F000806480832FBF0895FC016115710571F12A
:101A00008091740290917502892B19F085E090E025
:101A100008957093640460936304F0937502E093F7
:101A2000740210925F0210925E0281E08093600265
:101A30008091C80080648093C8008091C900806450
:101A40008093C900808121E030E030935F022093D1
:101A50005E020E94F00C80E090E0089581E090E04A
:101A60000895982F8D57823018F090934F020CC034
:101A70008091280281608093280280E289278093E8
:101A800050048DE780934F0261E070E08FE492E0B4
:101A90000E94FC0C992708958FB7F89499272091FC
:101AA00028022E7F209328022EE720934F028FBF1B
:101AB00061E070E08FE492E00E94FC0C99270895A9
:101AC00078941F920F920FB60F921124FF920F93EA
:101AD0001F932F933F934F935F936F937F938F93B6
:101AE0009F93AF93BF93CF93DF93EF93FF93209197
:101AF0005E0230915F028091630490916404281724
:101B0000390708F43AC010927502109274021092CC
:101B100060028091C9008F7B8093C900FFB6F89462
:101B20008091280280FD18C080914704843009F418
:101B300050C0853090F1863009F49EC0863008F49C
:101B40007DC0873009F49FC0883019F089E0809308
:101B500047040E94CE0A0DC08E7F80932802809198
:101B6000500480934F0261E070E08FE492E00E94A5
:101B7000FC0C8F2D99278FBFAEC0E0917402F091BD
:101B80007502E20FF31F80812F5F3F4F30935F029A
:101B900020935E020E94F00C9EC0823009F457C070
:101BA000833010F5813091F680916F020E94310DE3
:101BB000082F83E08093470460916F028091210693
:101BC000909122060E947E0A90932206809321061D
:101BD00008C0809121060E94310D082F85E0809376
:101BE0004704002331F2B2CFE0911703FF27EE0F35
:101BF000FF1FE858FD4F80810E94310D082F109182
:101C00001703C12FDD27CC0FDD1FFE01E858FD4F64
:101C1000608180912106909122060E947E0A909315
:101C2000220680932106209168022F5F209368028C
:101C3000113069F184E080934704D3CF809122066C
:101C40000E94310D082F86E080934704CACF80910F
:101C500078040E94310D082F83E08093470460913F
:101C6000780480912106909122060E947E0A90932A
:101C7000220680932106B5CF0E944C0D082F87E0E5
:101C800080934704AECF88E08093470462CF809171
:101C90001F02E0911A02F0911B02E80FF11DE08192
:101CA0008F5F80931F0290911E02981790F482E03C
:101CB0008093790290E0FE01E958FD4F80818230E7
:101CC00009F4B8CF2F3F09F4B5CFC858DD4F98833A
:101CD00088CF9E2FF0CFFF91EF91DF91CF91BF91F1
:101CE000AF919F918F917F916F915F914F913F91B4
:101CF0002F911F910F91FF900F900FBE0F901F908B
:101D00001895EF920F931F93AE2D99E0899FF001E4
:101D10001124E75EFC4F4083518362837383048305
:101D2000158326833783A17080858E7F8A2B8260FE
:101D3000808781E00E94C4051F910F91EF90089564
:101D40008AE090E008951F93982F1FB7F894809130
:101D50002902823011F020E034C0809113029817DC
:101D6000D1F78091110220E030E08F3F21F1232B49
:101D7000D9F49FEF909313028F3F61F0282F332700
:101D8000F901E259FD4F8081809311028F3FB1F03C
:101D90009083822F8093540281E0809329028FE008
:101DA0000E94C40521E00DC08FEF809313021092B2
:101DB000290221E006C021E030E0D9CF9093120241
:101DC000E7CF812F99278FBF81E02827822F99277E
:101DD0001F9108959FB7F89480915D02882319F4AC
:101DE00084E080935D02892F99278FBF9FB7F89475
:101DF00080914704882319F48AE080934704892F4F
:101E000099278FBF0E94E20A80E090E008958FB783
:101E1000F894282F3327922F809147048A3041F07D
:101E200080915D02843021F02FBF89E090E0089519
:101E30009FBF89E00E94C40580E090E00895992743
:101E400080FF0BC0749881FF0BC0759882FF0BC098
:101E5000769883FF0BC077980895749A81FDF5CF2B
:101E6000759A82FDF5CF769A83FDF5CF779A08951E
:101E7000982F969596959695E8E1F3E0E90FF11D78
:101E8000877021E030E002C0220F331F8A95E2F70D
:101E900080818223992708950F931F930FB7F89499
:101EA0001127609370027093710280937202909375
:101EB000730220936A0230936B0240936C0250933A
:101EC0006D020E942C060FBF1F910F9108953F9243
:101ED0004F925F926F927F928F929F92AF92BF923A
:101EE000CF92DF92EF92FF920F931F93CF93DF93E6
:101EF000CDB7DEB724970FB6F894DEBF0FBECDBFC7
:101F00009C838B8380915002882341F480917D02D1
:101F1000853021F480915504882319F085E090E004
:101F20002FC16B817C8182E00E940508882309F023
:101F30004DC090E080911603981729F090931603F6
:101F4000906C909345018B819C810E945B07882354
:101F5000A9F08091460199278F71907020917B04A0
:101F600040913602240F312D311D35952795359539
:101F70002795359527952817390784F289E08093AE
:101F800042016B817C8184E00E9405088823A1F4D2
:101F900088249924AB81BC818C919927082F809348
:101FA0008001809141018F718930C1F086E080937A
:101FB000420185E090E0E4C08B819C810E9413087F
:101FC00083508B809C80880E911CE4CF8B819C81F8
:101FD0000E94C707FC0191819F70ACCF8B819C81CF
:101FE0000E94CA079A8389838EEF382E300E0FB76E
:101FF000F89411270E94EC052B013C0182E08093AC
:1020000042010FBF8BE090E0A0E0B0E0480E591E07
:102010006A1E7B1E8114910409F4A6C0D4012C9180
:10202000F401E1808281A3809927AA27BB27BA2FD8
:10203000A92F982F8827332744275527522F442725
:1020400033272227FF24002711278701FF24EE24AE
:102050002E293F29402B512BBB24CC24DD242A29B7
:102060003B294C295D29822B932BA42BB52B84195A
:102070009509A609B7098383292F3A2F4B2F552796
:1020800022839D014427552721838B2F9927AA2737
:10209000BB278083432D552769817A8181E891E0B0
:1020A0000E94492386E080934201D4012C91F401DF
:1020B000E1808281A3809927AA27BB27BA2FA92F65
:1020C000982F8827332744275527522F4427332713
:1020D0002227FF24002711278701FF24EE242E2921
:1020E0003F29402B512BBB24CC24DD242A293B291A
:1020F0004C295D29822B932BA42BB52B840D951D88
:10210000A61DB71D8383292F3A2F4B2F55272283D6
:102110009D014427552721838B2F9927AA27BB2769
:102120008083EB81FC81EC57FF4F8081826080834C
:102130008B819C810E94B5078C5F2B813C81281B81
:1021400031093C832B8329573F4FD9014D925D9232
:102150006D927C92139786E080937D0284E0809359
:10216000500280E090E00CC0432D552769817A81B0
:1021700081E891E00E94492386E080934201D1CF1B
:1021800024960FB6F894DEBF0FBECDBFDF91CF917E
:102190001F910F91FF90EF90DF90CF90BF90AF9085
:1021A0009F908F907F906F905F904F903F90089599
:1021B00021E020937602209342040E94790708953B
:1021C000CF93DF93882309F051C060937A0466238C
:1021D00099F08FB7F894282F3327922F8091160209
:1021E000882369F080916202882339F18091570237
:1021F0008F3F29F19FBF3AC01D9BEBCF37C081E0D5
:1022000080931602109262022FBF8FB7F894C82FE6
:10221000DD279C2F80910602813061F780911602A4
:102220008130E1F0823031F78091620280930602C2
:1022300083E080931602CFBF19C02FBF17C0E09173
:102240000502EE23B9F2809104028F3F61F0FF276F
:10225000E95AFD4F108210920502CCCF85E00E9412
:10226000C405CFBF03C010920402F5CFDF91CF9118
:10227000089580915B02823009F0089581E0809397
:102280005B0282E10E94C405089580937E04882346
:1022900021F484E080935B0203C081E080935B02C1
:1022A00082E10E94C40508951D9B05C080914504EC
:1022B000882371F00895809145048823D9F3109202
:1022C000450487E00E94C40585E00E94460A0895FF
:1022D00081E08093450486E00E94C40585E00E9469
:1022E0002D0A08951F920F920FB60F9211242F936B
:1022F0003F934F935F936F937F938F939F93AF938E
:10230000BF93EF93FF9320916B0093B180917B0279
:102310008927822385FF02C00E945411FF91EF910B
:10232000BF91AF919F918F917F916F915F914F91ED
:102330003F912F910F900FBE0F901F9018955F92B5
:102340006F927F928F929F92AF92BF92CF92DF92C5
:10235000EF92FF920F931F93CF93DF9380915504D9
:10236000882309F46EC02FB7F89433278091E900D1
:10237000A82E8091EA00B82E8091EB00C82E8091A3
:10238000EC00D82E00915504109255042FBF07FD84
:10239000E8C020915002243009F402C1C02FDD278B
:1023A000C5FF92C0263009F4ECC0222309F08CC08E
:1023B000003209F464C16091AC067091AD0681E011
:1023C0000E94B8076091AC067091AD0683E00E9450
:1023D000B80725E020935002C4FDB3C020915002FD
:1023E000C0FD77C0C3FF2FC0263069F5809155012D
:1023F0008F77809355011092500280914101992767
:1024000087709070892B09F014C180917D0285300E
:1024100009F43EC020914204223009F468C08FB70D
:10242000F894282F332780915302813009F4B2C3E6
:1024300081E0809353022FBF80915504882309F0D7
:1024400092CF20915002222301F3293009F49CC03D
:10245000922F9150933008F05CC0822F82508230CE
:1024600008F468C1233009F443C1923008F486C1EE
:10247000213009F44FC1223009F472C1283009F427
:1024800058C0222339F680917D02853009F0C2CFF1
:1024900080915504882309F0BDCF809138028823AC
:1024A00009F0B8CF80915C02882309F0B3CF209166
:1024B0004204222309F481E0882309F4ADCF0E946D
:1024C000391120914204A8CF253009F485CFC0FFEF
:1024D00089CF80917D02823009F084CF822F825093
:1024E000823008F07FCF83E080937D027BCF109213
:1024F000420410917602113009F475C0123009F0CF
:102500008ECF1092380210925C0280E00E9445113A
:1025100086CF273009F0B2CF809117068064809370
:10252000480180917D02853009F491C128E0209313
:1025300050021092500281E10E94C4052091500285
:10254000A0CF8091460190917B048F71292F269511
:102550002695821B980F90937B0429E020935002CC
:10256000B6CF20915002233019F0273009F013CF55
:1025700085E080937D0228E020935002C02FDD2764
:102580000FCF1092500214CF10917B018091460121
:1025900087FD04C185E080937D021092500235CF03
:1025A000C02FDD27C1FFFCCE85E080937D0220E0B7
:1025B0001092500280913802833009F43DC0E090BF
:1025C0001F06F0902006C7010E944707882309F0E4
:1025D00047C11092380210925C0280E00E944511BF
:1025E00020915002DDCEC0910F03D09110030E94C4
:1025F000EC0520915C02203809F42DC17E01E61A19
:10260000F70A27FD1FC1C0915802D091590280914D
:1026100038028823A1F015E0822F99278F77019740
:10262000F1F027FD44C110925C02812F0E944511F8
:10263000F6CE80914101E9CE10923802B1CECE01A2
:102640000E94670F9927882309F440C19927182F02
:10265000882309F09CC223E020935C02E0CE822F05
:102660008078826080935C028CE890E00E94180879
:10267000AA27BB27BC01CD010E94D810D0CEF09074
:1026800046018FE1F82280913602982F9695969513
:10269000EF2DE91B8E0F809336020091AC0610914E
:1026A000AD06F801EC57FF4F808182608083C8013E
:1026B0000E94B5078C5F081B110909571F4FF801CD
:1026C000A082B182C282D3820091AC061091AD0685
:1026D000B80182E00E94B807F801EC57FF4F8081F3
:1026E00088608083C8010E94C707FC01F18271CE17
:1026F00080917D02833009F0B8CE8DE580934E0144
:102700008FEF8093020286E08093420184E0809301
:102710007D0280CE80917D02833009F07BCE809156
:10272000390182608093390120937D0228E0209353
:102730005002FFCE80917D02813009F093CE9FEF51
:1027400090934F0180E880934E01809139018D7FF5
:10275000809339019093020282E080937D0288CEBB
:1027600080917D02833009F055CE10924E018FEF9B
:102770008093020228E020935002DBCE80917D02FC
:10278000853009F075CE93E09093420110924E018E
:102790008FEF8093020290937D026ACE133008F48B
:1027A000F9CE812F99278E3791050CF0F3CEE09169
:1027B000AC06F091AD061083CF010E94CA071250FB
:1027C000412F552760E871E00E9449238091AC06B3
:1027D0009091AD060E94CC07882309F481C020E0C7
:1027E00030E080913802823009F488C0232B09F44C
:1027F000D1CEE0917B01FF27E058FE4F1081809100
:10280000AC069091AD060E94C707FC01108385E0DD
:1028100080937D0210925002E090AC06F090AD06DD
:10282000C7010E94CC07882309F46BC0809138024D
:10283000823009F43DC1F092AD06E092AC062091E1
:1028400050021CCE1E141F040CF4E5CEDCCE84E036
:1028500080937D02DFCD10925C020E943911DFCDA2
:10286000C7010E945B07882309F4B3CEC7010E9409
:102870006F078F5F9F4F09F4ACCE90E080914204C8
:10288000882309F491E0992309F4A3CE12E0109370
:10289000760221E0209342046EE370E080E090E055
:1028A0000E947907109338022091500279CD1E14AE
:1028B0001F040CF0B8CE20E820935C02B7018827F3
:1028C00077FD8095982F0E94D810AFCEBE010E9450
:1028D000B80710933802D0932006C0931F06BBCED2
:1028E0008FB7F894282F332790E0809156048330D7
:1028F00008F491E02FBF292F332778CF21E030E073
:1029000075CF80913802882309F4B1C0470108943B
:10291000811C911C0E94EC05EB01C7010E94E0079D
:102920008111E696D0931003C0930F030E94EC052B
:10293000C61BD70BBE011C161D06B4F420915C0209
:10294000222309F090C080E020914204222309F460
:1029500081E0882349F0882777FD8095982F0E9491
:10296000D81020E820935C02E40188852F81992704
:10297000782F66273327622B732B60903902262D20
:102980003327F901EE0FFF1FEB59FB4F8081918137
:102990006817790709F4C4C040914304772455248B
:1029A000E0E0F0E0C5E6D4E0A8E1B6E08D015E2FFE
:1029B0009F01888199816817790709F4C2C08C91B9
:1029C000F42FF81B7F1610F47F2E522E852F8F5F69
:1029D000F90131960F5F1F4F22961196E530F105F0
:1029E00031F7853009F4BCC0842F8F778F3709F415
:1029F00085C0262D3327E4014A81822F9927FC01C7
:102A0000E255F94F208120FF28C0FC01E95AFB4F15
:102A10008081481709F40FCF40839FB6F8948091C6
:102A200056048330B0F4E0917704E80FE33008F007
:102A3000E350FF27EE0FFF1FE45DFD4F0081118182
:102A4000F182E0828F5F8093560483E10E94C40587
:102A50007801892D99278FBFEECE21602083FC015C
:102A6000E95AFB4FD9CF206820935C027DCFC70184
:102A70000E94E007882309F449CF85E080937E0215
:102A800082E080937F021092800247010894811CAB
:102A9000911CF7018381809381028EE792E00E946E
:102AA000670F882309F036CF83E08093380232CF56
:102AB000E7019B81E0911F06F09120068381981722
:102AC00009F0B9CE89818770823009F0B4CE809147
:102AD000DF008D7F8093DF008FEF809302021092E2
:102AE0004204EC57FF4F808181608083109238024E
:102AF00010925C0280E00E9445119DCE2EE72715C2
:102B000008F077CFE8E1F6E0942F907880818F6726
:102B100084139083319686E0ED31F807B9F769CFD9
:102B200090914304F901E85EF94F8081891709F417
:102B300062CF492F4F5F40934304408380E8782E53
:102B400053CF622E20933902F8018081841709F453
:102B500052CF4F5F40934304408300E8702E44CF30
:102B6000652C50923902E52DFF27DF01AA0FBB1F0C
:102B7000AB59BB4F6D937C934F5F40934304DF0190
:102B8000A85EB94F4C93E255F94F10822DCF20919A
:102B90005C0242CD109253022FBFDF91CF911F9163
:102BA0000F91FF90EF90DF90CF90BF90AF909F90EC
:102BB0008F907F906F905F9008958FB7F894282F33
:102BC000332780915302815080935302803811F053
:102BD0002FBF089581E0809353022FBF0E949F1161
:102BE00008958FB7F894282F3327809153028823B4
:102BF00029F08068809353022FBF089581E080936D
:102C000053022FBF0E949F110895CF93DF938FB778
:102C1000F8949927209153022F5F209353028FBF7E
:102C200080915B028823B9F480915002882321F0BF
:102C300085E0C82FDD2714C080917D02853071F0BA
:102C400083E0809350020E94F11585E080935B023F
:102C5000C0E0D0E005C0C5E0D0E002C089E0E9CF27
:102C60000E94DD15CE01DF91CF91089578941F92D7
:102C70000F920FB60F9211242F933F934F935F93B0
:102C80006F937F938F939F93AF93BF93EF93FF9334
:102C90002FB7F894332780915504816080935504B1
:102CA0002FBF0E94F115FF91EF91BF91AF919F91BE
:102CB0008F917F916F915F914F913F912F910F90E5
:102CC0000FBE0F901F9018951F920F920FB60F9284
:102CD00011242F933F934F935F936F937F938F9321
:102CE0009F93AF93BF93EF93FF938091DF008D7F0E
:102CF0008093DF008FEF8093020280914204813045
:102D000019F482E0809342040E94F115FF91EF9143
:102D1000BF91AF919F918F917F916F915F914F91F3
:102D20003F912F910F900FBE0F901F9018957894A0
:102D30001F920F920FB60F9211242F933F934F9330
:102D40005F936F937F938F939F93AF93BF93EF9313
:102D5000FF932FB7F89433278091550480688093B0
:102D600055042FBF0E94F115FF91EF91BF91AF91D4
:102D70009F918F917F916F915F914F913F912F9193
:102D80000F900FBE0F901F90189578941F920F927E
:102D90000FB60F9211242F933F934F935F936F932E
:102DA0007F938F939F93AF93BF93EF93FF932FB72F
:102DB000F8943327809155048062809355042FBF87
:102DC0000E94F115FF91EF91BF91AF919F918F916B
:102DD0007F916F915F914F913F912F910F900FBE17
:102DE0000F901F90189578941F920F920FB60F9224
:102DF00011242F933F934F935F936F937F938F9300
:102E00009F93AF93BF93EF93FF932FB7F89433271C
:102E1000809155048061809355042FBF0E94F11565
:102E2000FF91EF91BF91AF919F918F917F916F91A2
:102E30005F914F913F912F910F900FBE0F901F9078
:102E4000189578941F920F920FB60F9211242F931A
:102E50003F934F935F936F937F938F939F93AF9322
:102E6000BF93EF93FF932FB7F894332780915504C6
:102E70008260809355042FBF0E94F115FF91EF915E
:102E8000BF91AF919F918F917F916F915F914F9182
:102E90003F912F910F900FBE0F901F90189578942F
:102EA0001F920F920FB60F9211242F933F934F93BF
:102EB0005F936F937F938F939F93AF93BF93EF93A2
:102EC000FF932FB7F894332780915504886080933F
:102ED00055042FBF0E94F115FF91EF91BF91AF9163
:102EE0009F918F917F916F915F914F913F912F9122
:102EF0000F900FBE0F901F901895EF92FF920F93B7
:102F00001F93CF93DF93F82EEB018FB7F894282F00
:102F1000332780911602833009F444C02FBF1FEF7E
:102F20008FB7F894082F80911602833081F00FBF7D
:102F3000112309F092C0FF2009F08FC080917A041C
:102F40008823A9F5C051DE4008F087C04DC08091AC
:102F50000602811761F78091040220E030E08F3F84
:102F600011F421E030E0232B09F06EC08F3F71F0A7
:102F7000282F3327F901E95AFD4F808180930402FD
:102F80008F3F09F467C08FEF8083822F80936202A6
:102F90008FEF8093060281E08093160285E00E9405
:102FA000C405C5CF809106022FBF182FB9CF81303D
:102FB00009F053C0C158DC4008F44FC08FB7F894F3
:102FC00080E00E941F0F749880E593EC0E945E08D9
:102FD00010E18EB181278EB98EB180588EB980E50F
:102FE00093EC0E945E08F5CF0FB7F89480E00E9442
:102FF0001F0F759880E593EC0E945E0850E2F52E55
:1030000040E4E42E8EB18F258EB98EB18E258EB917
:1030100080E593EC0E945E081F5F143099F780E012
:103020000E941F0F8FEF8093640080936500809350
:10303000630083B7816083BF889583B78E7F83BF2A
:10304000802F99278FBF09C081E0809306021092DC
:1030500016026DCF8093050296CFDF91CF911F911D
:103060000F91FF90EF900895AF92BF92CF92DF92B1
:10307000EF92FF920F931F93CF93DF935B016C014D
:10308000C0E0D0E0E9E1F3E0608561FF13C020819A
:10309000318142815381E480F58006811781D60118
:1030A000C501821B930BA40BB50B8E159F05A007C2
:1030B000B10730F421963996C330D10529F78DC078
:1030C00060FF0DC06D7F6087C130D9F0C13080F0E6
:1030D000C23009F082C080E10E94C4057EC02E0D7E
:1030E0003F1D401F511F2083318342835383ECCF08
:1030F000559939C04D9932C060E080E00E94E010DF
:103100006CC08FB7F894282F3327122F80911502A7
:103110008823F1F481E080931502109254042FBFAC
:103120002FB7F894332780917A00806880937A00D3
:103130008FEF809302022FBF8FB7F894C82FDD273F
:10314000809103028130F1F0CFBF10921E0645C07E
:1031500080915404882329F52FBFF7CF61E080E0E8
:103160000E94E0103AC055980E94FD05AB01BC01D9
:10317000E1E0EE2E01E010E020E030E080E00E948F
:10318000810E2BC080911502813019F18230E1F659
:10319000809154048093030283E080931502CFBF93
:1031A000D4CF80E00E94380F882361F085E01FBFF4
:1031B00080931E06882389F0809860E070E00E946A
:1031C0007D170BC08091180381608093180380E005
:1031D000EECF82E00E94C405B7CF81E00E94C40513
:1031E000DF91CF911F910F91FF90EF90DF90CF90E3
:1031F000BF90AF9008952F923F924F925F926F923F
:103200007F928F929F92AF92BF92CF92DF92EF9276
:10321000FF920F931F93CF93DF93CDB7DEB729971C
:103220000FB6F894DEBF0FBECDBFE82FFF27E53104
:10323000F10508F0A5C5E057FF4FEE0FFF1F059001
:10324000F491E02D09948FB7F8941092160620910E
:10325000470440E0283009F42CC430E0293009F458
:1032600026C4442311F4332351F010924704E09113
:103270001703FF27EE0FFF1FE958FD4F1082992714
:103280008FBF442309F08BC3332309F088C3222363
:1032900009F49FC410E08FB7F894E82EFF248091C2
:1032A00047048A3009F498C4EFBE112309F468C5B5
:1032B0002FB7F8943327109222061092210610920D
:1032C000680281E0809347042FBF0E944C0D882341
:1032D00009F456C58FB7F894992729E0209347043D
:1032E0008FBF0E94CE0A4CC5C7010E946F078C0198
:1032F0000E94D7070817190709F43EC00F5F1F4F38
:1033000009F43AC09FB7F89480917704E82FFF271B
:10331000EE0FFF1FE45DFD4FF182E0828F5F80932F
:103320007704833010F01092770480915604815016
:1033300080935604892F99278FBF8FB7F894982FC1
:1033400080915604882309F428C3E0917704FF276D
:10335000EE0FFF1FE45DFD4FE080F1809FBFC701CE
:103360000E94A00EF701E80FF11D80818F3309F054
:10337000BBCF0E94D707C6CF8FB7F89499278FBFCE
:10338000C1CF2FB7F8943327809153028F5F80937A
:1033900053022FBF40915B02413009F031C380914D
:1033A00044048F5F80934404863008F029C3209141
:1033B0004A0430914B0480915C02882309F0D8C301
:1033C00090E080914204882309F491E0992309F464
:1033D000CFC3309359022093580240935C0286E396
:1033E00091E00E941808AA27BB27BC01CD010E94CA
:1033F000D81010927E0483E080935B020E94DD155A
:10340000BFC40E94070F9927882309F4B9C48930E3
:1034100009F4B6C486E00E94C405B2C40E94EA0E54
:103420009927882309F4ACC4893009F4A9C487E03A
:103430000E94C405A5C48091C9008F7B8093C900F8
:103440008091C9008F778093C90010924604109232
:1034500060028091C90088608093C9008091C90092
:103460008F7B8093C9008091C90080618093C900DF
:103470008FEF809302028091C90080688093C90019
:103480008FB7F89499271092470410925D028FBF6E
:1034900077C48091C900877F8093C9008091C9005B
:1034A0008F7E8093C9008FEF8093020269C41092CF
:1034B0001D0210921C028FB7F894992720912002C8
:1034C0008FBF80912102811123E080912202882305
:1034D00009F456C4823709F053C4222309F026C1E7
:1034E0008FB7F89488E190E029E00FB6F894A8959A
:1034F000809360000FBE20936000FFCF2FB7F89439
:103500003327809162028093060283E08093160243
:103510002FBF8898809A0E94FD05AB01BC01E1E0B5
:10352000EE2E01E010E020E030E081E00E94810E0C
:1035300027C480915102882309F4BDC20E94FD0571
:103540000E9434181DC40E94FD055B016C0180912E
:10355000DF008E7F8093DF008FEF809302022FEFDA
:103560003FEF4FEF5FE760E0E9E1F3E0808581FF47
:103570001CC080819181A281B38186017501E81A06
:10358000F90A0A0B1B0BD801C701E480F5800681FC
:103590001781E81AF90A0A0B1B0BE216F306040757
:1035A00015071CF4A801970161E0399603E0E433A4
:1035B000F007E1F6662309F4E3C3121613061406B6
:1035C00015060CF010C320937004309371044093DF
:1035D00072045093730481E080935102C601B501D7
:1035E0000E944C0FCDC3EFB6E982F894209063029D
:1035F0003090640240906502509066026624772401
:103600008824BEE4AB2EA3E8BA2ECC24DD24EE241D
:10361000FF2400E010E0222D332D442D552D662D82
:10362000772D882D90E00E943C212A833B834C8398
:103630005D836E837F8388879987822E932EA42E45
:10364000B52E24013501769467945794479400E28F
:103650000E943A22A22EB32EC42ED52EA30192018F
:103660002A0D3B1D4C1D5D1D57FD89C22093630231
:10367000309364024093650250936602F9808F2D67
:1036800099278FBF8FB7F894992730934F042093D1
:103690004E048FBF75C3E0913402F09135028AE584
:1036A000808382E4818380E582834091340250915B
:1036B000350280911C0290911D02892B09F036C0C1
:1036C0002FB7F894332710921F02109220025093C4
:1036D0001B0240931A0282E090E090931D028093B7
:1036E0001C0242E7409322021092210283E0809361
:1036F0001E022FBF8FB7F894282F332780914704DD
:103700008A3009F464C22FBF9FB7F8948091790280
:10371000882309F455C220E0892F99278FBF2223DF
:1037200009F078C210921D0210921C028EE00E94D5
:10373000C40526C38FB7F894992720912402E090FE
:103740002502F090260230912702109137028FBF98
:10375000222319F0223709F4D4C29FB7F894E12F3D
:10376000FF27EE0FFF1FE85FFD4FF182E08211237C
:1037700009F455C1809118028B7F80931802109232
:103780002302892F99278FBFFBC22FB7F8943327C5
:10379000809154048093030283E0809315022FBF2D
:1037A00080910302882309F0EBC281E080937C02C0
:1037B000109279040E94B208E3C2E0905204F090A3
:1037C0005304C7010E94B507885FF701E81BF109A0
:1037D000E957FF4F0081118180912A02823009F45C
:1037E00097C1813009F4A4C1843008F4C9C2012B07
:1037F00079F0C7010E94B507885FF701E81BF1095E
:10380000E957FF4F80914C0490914D049183808340
:1038100010922A02C7010E94A00EE80EF11CF701C7
:1038200080818F3309F0ACC280E00E94A30EA8C251
:1038300080915B0210925B02853009F4A1C2863050
:1038400009F49EC2873009F49BC280935B0298C240
:103850002FB7F8943327809154028093130282E0AB
:10386000809329022FBF80911302882309F088C218
:10387000E0905502F0905602C7010E94A00EF70199
:10388000E80FF11D8FE3808380912B028F5F80937F
:103890002B0287010F5F1F4FF701838380912A025C
:1038A000882309F083C1C7010E94B507885FF7012B
:1038B000E81BF109E957FF4F80819181892B81F045
:1038C000F8018181F70121819927982F88273327D3
:1038D0002062822B932B8183892F9927F801818382
:1038E000F0925304E092520410924D0410924C0452
:1038F00081E080932A0280E10E94C40541C28BE0EE
:103900000E94C4053DC210927C02C0904804D09031
:10391000490480917904882309F032C28FB7F89462
:10392000082F80911502833009F477C10FBF1092E0
:103930001E068098D0923302C092320284E00E9428
:10394000C4051EC280911E06882309F06EC06091D6
:10395000320270913302882799272CED35E040E040
:1039600050E00E94BD22FAE096958795779567957D
:10397000FA95D1F726E030E040E050E00E94BD2209
:10398000709306036093050360910503709106032D
:1039900080911E060E947D17F3C19FBFF1C19FB7A2
:1039A000F894809178048F5F8093780480916F02FF
:1039B000833409F4EAC070E0442309F471E0A1E023
:1039C000892F99278FBF8FB7F894992720911702D5
:1039D0008FBF222379F18FB7F89499272AE020939B
:1039E00047048FBF10E0AA2309F455CC8FB7F89491
:1039F0009927709320028FBF8CE00E94C4054BCCA6
:103A000010925B020E94DD1580917E04882319F0DC
:103A10008C5F80932A0280E10E94C405B1C180912D
:103A200018028D7F80931802AACE1092060310927E
:103A30000503AACF8FB7F894992750917702409148
:103A400079028FBF8FB7F894282F332760E09091C9
:103A5000070380910803981709F40CC12FBF662350
:103A600009F060C0552309F05DC05FB7F89482E0AB
:103A7000809377028FB7F894282F332740E09091F6
:103A8000070380910803981709F40DC12FBF442341
:103A900009F4E9C080E08093780283E480936F02A8
:103AA00010921703852F99278FBF11E09CCF31E02B
:103AB000D8CB41E0D2CB2091700430917104409179
:103AC000720450917304EFB7F894FF27609170026D
:103AD000709171028091720290917302E0906A027B
:103AE000F0906B0200916C0210916D026E0D7F1DC3
:103AF000801F911FEFBF2093700430937104409397
:103B0000720450937304109251020E944C0F16CD10
:103B10000115110509F0B0C084E080932A0280915C
:103B20002A0262CE4150423008F468C010E05BCFF8
:103B300082E080932A022FB7F894332780915302B2
:103B40008F5F809353022FBF80915B02882309F01F
:103B50004FC0F0924B04E0924A0481E080935B02F4
:103B60001092440482E10E94C4050E94DD1508C140
:103B700085E080937E0482E080935B023FCC5F7798
:103B80002F5F3F4F4F4F5F4F71CD209108038091C2
:103B90000703821729F1822F8F5F809308038630F5
:103BA000F8F01092080370E0A0E00ACF80E00E94D5
:103BB000A30E80915502909156020E94A00EE0C083
:103BC00081E08093790240937A0221E0A5CD2FBF56
:103BD000A9CD70E0A0E0F7CE0E94E20AEFBED0C00F
:103BE00070E0A0E0EDCEC601B5010E943418C8C057
:103BF0000E94DD1580E10E94C405C2C08FB7F89411
:103C0000992725E420936F0221E0209317038FBFAB
:103C100011E0E9CE0E94CE0AB3C08091030288234E
:103C200009F084CE80911803882309F45CC0809148
:103C30001402E82EFF2457010BC01A2D812F0E9479
:103C4000380F882309F082C0AE14BF0409F471C094
:103C50000894A11CB11C11E0A116B10471F7AA24AB
:103C6000BB2410E0EBCFE0910803FF27E95FFC4F96
:103C7000828111CF61E0F2CEB70180E00E94050899
:103C8000882309F049CF80914C0490914D0401960E
:103C900090934D0480934C048017910730F085E099
:103CA00080932A023CCF41E0F1CE81E080932A024A
:103CB000C7010E94B507885FF701E81BF109E957C2
:103CC000FF4F028113810115110509F431CF0E94C4
:103CD000FD05AB01BC012227332781E0E82E82E0FD
:103CE0000E94810E4DC081E0809303021092150264
:103CF00080917A008F7780937A008FEF8093020211
:103D000015CE333009F029CDF7018081823509F0D5
:103D100024CD8181833509F020CD8281843509F05D
:103D20001CCDF0923502E09234028EE00E94C40570
:103D300014CD4FEF409354048FEF8093030281E042
:103D40008093150282E00E94C405F0CDE12FE69534
:103D5000E695E695FF27412F5527E85EFC4F9A012F
:103D60002770307081E090E002C0880F991F2A957B
:103D7000E2F7809520812823208310931402DACF64
:103D800029960FB6F894DEBF0FBECDBFDF91CF915D
:103D90001F910F91FF90EF90DF90CF90BF90AF9069
:103DA0009F908F907F906F905F904F903F902F905B
:103DB0000895809174048F3FA1F0282F3327F901D3
:103DC000E65CFD4F8081809374048F3F69F08FEF34
:103DD00080832F3F31F0822F0E94FB1881E090E01A
:103DE000089580E090E0089580931D06F0CFEF9253
:103DF000FF920F931F93FFB6F89414BE88E10FB69D
:103E0000F89480936000109260000FBE45E150E08E
:103E10006FEF70E08AE392E00E9452238FEF80936D
:103E2000740480931D0685E296E09093AD0680931E
:103E3000AC0610927B048AE58093360280913501AE
:103E400080618093350180913401806180933401D9
:103E500080913301806180933301809132018061D0
:103E60008093320185B7806885BF85B7806885BF3C
:103E700080E8809361008FE08093610091E09093EF
:103E8000810080E28093B6009093B100AEEFE0E055
:103E9000F0E06FEF7FEFB0E08091B2008823E1F7B0
:103EA00040918400509185008091B2008034E1F708
:103EB0002091840030918500241B350B6217730715
:103EC00008F4B9012E173F0708F4F901CF01861B4A
:103ED000970B029708F46CC1B0E06FEF7FEFE0E062
:103EE000F0E0A150C9F63093760420937504109247
:103EF000B1008091B1008093810080918100809316
:103F0000B6008091B600992783709070892BC9F70D
:103F10008091DF008D7F8093DF008091DC008D7FBA
:103F20008093DC00809180008C7F80938000809162
:103F30008100807E82608093810080916F0081602B
:103F400080936F0080E28093B6008091DC008F7CCC
:103F500080638093DC008091DF0088608093DF00C5
:103F60008091DF008E7F8093DF008FEF80930202CD
:103F70008091DC008E7F8093DC0010927A006C9A36
:103F80006D9A6E9A6F9A749A759A769A779A569AEB
:103F90005E9A5D98559A0E94FD05AB01BC0111E047
:103FA000E12E01E010E020E030E080E00E94810E90
:103FB0000E94D91E8823E1F787EC8093490180ECA9
:103FC00080934501109216038DE08093170680912F
:103FD00044018062809344018DE480934801809184
:103FE00039018260809339018091DC00877F88608D
:103FF0008093DC00B1E0EB2EE0927D022091000284
:10400000309101022F5F3F4FC901AA27BB272150E2
:1040100030408093630290936402A0936502B09352
:1040200066028FE794E090932D0280932C0286E045
:1040300095E090932F0280932E028DE895E0909367
:104040003102809330028FEF9FEF9093660480934C
:104050006504909368048093670490936A04809346
:10406000690490936C0480936B0490936E04809326
:104070006D042295207F20932B028FEF80936E0298
:1040800012E006E060917504709176048827992704
:1040900028E037E040E050E00E94F022215030401C
:1040A0002093C400832F99278093C5001093C000EC
:1040B0000093C2001092C1002093CC008093CD00E9
:1040C0001093C8000093CA001092C90010927702A2
:1040D000109279028AE0809347041092680210924D
:1040E0006F0210927804109222061092210610920C
:1040F00016061092170310925D0410925C0484E07F
:1041000080935D021092510410926F04109261022C
:1041100010921303109212031092080310920703D7
:104120001D9B4BC0E092450486E00E94C40585E0DB
:104130000E942D0A8FEF80935702109218030E945D
:10414000D91E8823E1F78F2D99278FBF78940E947D
:1041500005168FB7F894482F552711C08FEF80832D
:104160002F3F09F58091020287FD30C083B781603F
:1041700083BF78948895F89483B78E7F83BF8091AE
:1041800074048F3F79F3282F3327F901E65CFD4F44
:104190008081809374048F3F09F780931D068FEF11
:1041A00080832F3FF9F24FBF822F0E94FB18D1CF9F
:1041B000BF5FB23308F495CE96CE1092450487E0E7
:1041C0000E94C40585E00E94460AB4CF80914E014A
:1041D00087FD50C095E08091C10083FD36C080917D
:1041E000C10084FD32C08091C90083FD2EC0809142
:1041F000C90084FD2AC0892F963008F085E0982FE9
:1042000080916F008E7231F190E080917A0087FD8D
:104210002AC025E08091DC0085FF2AC0E3E0822FE0
:10422000921708F4892F99278E1708F4E82FFF2793
:10423000E093020283B7FF27E7FDF095E65BFC4FB2
:10424000E491807F8E2B83BF91CF90E080916F00AF
:104250008E72D1F6892F963008F085E0982F8091E4
:104260007A0087FFD6CF21E08091DC0085FDD6CF94
:10427000E5E0D5CF92E0AFCFACE2B0E0E2E4F1E22E
:104280000C941223222E332E442E552E662E772E7A
:10429000882E992EFE013196A8E01192AA95E9F791
:1042A00029823A824B825C826D827E828F829886DE
:1042B000FE013996B8E01192BA95E9F7A986BA8657
:1042C000CB86DC86ED86FE860F87188B89819A81E6
:1042D000AB81BC8189A79AA7ABA7BCA77C018D0144
:1042E0008FEF9FEFA0E0B0E0E822F9220A231B2322
:1042F00089A59AA5ABA5BCA51D0144245524898593
:104300009A85AB85BC858DA39EA3AFA3B8A75C019E
:104310006D018FEF9FEFA0E0B0E0A822B922CA2282
:10432000DB228DA19EA1AFA1B8A53D0188249924CF
:10433000C801B701A60195010E94BD2269A37AA315
:104340008BA39CA3C801B701A40193010E94BD22C5
:104350007B018C01C201B101A60195010E94BD2221
:104360005B016C01C201B101A40193010E94BD2255
:104370003B014C01EA0CFB1C0C1D1D1D89A19AA1DF
:10438000ABA1BCA19D01442755272E0D3F1D401F09
:10439000511F2A153B054C055D0540F480E090E077
:1043A000A1E0B0E0680E791E8A1E9B1ECA01AA27F2
:1043B000BB27860D971DA81DB91D8D8F9E8FAF8FB2
:1043C000B8A3A9013327222789A19AA1ABA1BCA137
:1043D000A070B070280F391F4A1F5B1F298F3A8FBA
:1043E0004B8F5C8FA98CBA8CCB8CDC8CED8CFE8CCB
:1043F0000F8D18A1FE01719698E011929A95E9F738
:10440000ED8AFE8A0F8B188F2D813E814F81588552
:104410006DA17EA18FA198A50E94BD223B014C01F8
:104420002D853E854F85588969A57AA58BA59CA5C4
:104430000E94BD222D893E894F89588D260F371F36
:10444000481F591F260D371D481D591D2D8B3E8BAA
:104450004F8B588F6D887E888F88988C2A2D3B2DA6
:104460004C2D5D2D662D772D882D992DE2E1AC9692
:104470000C942E23A0E1B0E0E0E4F2E20C941223CD
:10448000222E332E442E552E662E772E882E992ED0
:10449000002309F466C088E0FE01319611928A95E6
:1044A000E9F729833A834B835C836D837E838F8214
:1044B0009887E0E2E01B1E16CCF52D813E814F81EE
:1044C0005885602F772767FD7095DA01C901062EA0
:1044D00004C0B695A795979587950A94D2F78D87CE
:1044E0009E87AF87B88B04C0220F331F441F551F10
:1044F000EA95D2F789819A81AB81BC8104C0B695D7
:10450000A795979587956A95D2F7282B392B4A2B33
:104510005B2B29873A874B875C8729843A844B84B5
:104520005C846D847E848F8498881BC01D861E8663
:104530001F86188A2E2F332727FD30953095219519
:104540003F4F8D819E81AF81B88504C0B695A795F8
:10455000979587952A95D2F789879A87AB87BC87E5
:10456000DCCF222D332D442D552D662D772D882D12
:10457000992DE2E160960C942E23629FD001739FE7
:10458000F001829FE00DF11D649FE00DF11D929FEF
:10459000F00D839FF00D749FF00D659FF00D99272E
:1045A000729FB00DE11DF91F639FB00DE11DF91F52
:1045B000BD01CF0111240895AA1BBB1B51E107C007
:1045C000AA1FBB1FA617B70710F0A61BB70B881FA3
:1045D000991F5A95A9F780959095BC01CD01089532
:1045E000A1E21A2EAA1BBB1BFD010DC0AA1FBB1FF7
:1045F000EE1FFF1FA217B307E407F50720F0A21B69
:10460000B30BE40BF50B661F771F881F991F1A94D5
:1046100069F760957095809590959B01AC01BD01FF
:10462000CF0108952F923F924F925F926F927F92A7
:104630008F929F92AF92BF92CF92DF92EF92FF92B2
:104640000F931F93CF93DF93CDB7DEB7CA1BDB0B5E
:104650000FB6F894DEBF0FBECDBF09942A88398803
:1046600048885F846E847D848C849B84AA84B9840A
:10467000C884DF80EE80FD800C811B81AA81B98116
:10468000CE0FD11D0FB6F894DEBF0FBECDBFED012A
:104690000895FB01DC0102C001900D924150504091
:1046A000D8F70895DC0101C06D9341505040E0F708
:0446B0000895FFCF9B
:1046B4000100FF01FFFF01FF3403BB0334030100CA
:0446C40022FFFFFFD3
:00000001FF
