:100000000C94B0010C94CF010C94CF010C94CF014F
:100010000C94CF010C94CF010C94CF010C94CF0120
:100020000C94CF010C9477400C94CF010C94CF0129
:100030000C94CF010C94CF010C94CF010C94CF0100
:100040000C9483090C9465090C946F090C9479093C
:100050000C9454090C94CF010C94CF010C94CF0153
:100060000C9403060C94820B0C94CF010C945A0C44
:100070000C94CF010C94CF010C94CF010C94CF01C0
:100080000C94CF010C94CF010C94CF010C94CF01B0
:100090000C94730D0C94CF010C94850D0C94CF012E
:1000A0000C94CF010C94CF010C94CF010C94CF0190
:1000B0000C94CF010C94CF010C94CF010C94CF0180
:1000C0000C94CF010C94CF010C94CF010C94CF0170
:1000D0000C94CF010C94CF010C94CF010C94CF0160
:1000E0000C94CF010C94A8200C94CF010C948F1F7A
:1000F0000C94F01F0C944C200C94CF010C941E20F7
:100100000C947A200C94B7060C94FB070C94BD1F3A
:100110000C94A6060C94CF010C94CF010C94CF0143
:10012000D640EA4040414E415C413F4268426A420B
:100130007842A742E44239436C438849C643E943C5
:10014000D844FA44524566477147BB47C0479A486E
:10015000CF48094911492B497A4900002110422012
:1001600063308440A550C660E770088129914AA198
:100170006BB18CC1ADD1CEE1EFF13112100273320F
:100180005222B5529442F772D662399318837BB3E8
:100190005AA3BDD39CC3FFF3DEE36224433420049F
:1001A0000114E664C774A44485546AA54BB5288538
:1001B0000995EEE5CFF5ACC58DD5533672261116EF
:1001C0003006D776F6669556B4465BB77AA7199788
:1001D0003887DFF7FEE79DD7BCC7C448E558866877
:1001E000A7784008611802282338CCC9EDD98EE9D8
:1001F000AFF9488969990AA92BB9F55AD44AB77A4F
:10020000966A711A500A333A122AFDDBDCCBBFFB27
:100210009EEB799B588B3BBB1AABA66C877CE44C5E
:10022000C55C222C033C600C411CAEED8FFDECCD77
:10023000CDDD2AAD0BBD688D499D977EB66ED55E2E
:10024000F44E133E322E511E700E9FFFBEEFDDDFC7
:10025000FCCF1BBF3AAF599F788F8891A981CAB153
:10026000EBA10CD12DC14EF16FE18010A100C23085
:10027000E3200450254046706760B9839893FBA340
:10028000DAB33DC31CD37FE35EF3B1029012F322D5
:10029000D2323542145277625672EAB5CBA5A89590
:1002A00089856EF54FE52CD50DC5E234C324A01425
:1002B00081046674476424540544DBA7FAB7998720
:1002C000B8975FE77EF71DC73CD7D326F236910675
:1002D000B01657667676154634564CD96DC90EF968
:1002E0002FE9C899E9898AB9ABA9445865480678C5
:1002F0002768C018E1088238A3287DCB5CDB3FEB80
:100300001EFBF98BD89BBBAB9ABB754A545A376A14
:10031000167AF10AD01AB32A923A2EFD0FED6CDD4F
:100320004DCDAABD8BADE89DC98D267C076C645C64
:10033000454CA23C832CE01CC10C1FEF3EFF5DCF5F
:100340007CDF9BAFBABFD98FF89F176E367E554EB4
:10035000745E932EB23ED10EF01E00020E060C0407
:1003600011241FBECFEFD1E4DEBFCDBF13E0A0E06C
:10037000B2E0E4ECF5EA00E00BBF02C007900D929A
:10038000AC3DB107D9F710E2ACEDB3E001C01D926E
:10039000A630B107E1F70E94BB490C94E1520C94DE
:1003A0000000FC0120E030E007C082819381280F2B
:1003B000391F0480F581E02D3097B9F7C901089500
:1003C000FB01518340833383228395838483089583
:1003D000CF92DF92EF92FF920F931F93CF93DF9311
:1003E0008C01FB017A01690105C0E81BF90BE801EA
:1003F0000C811D81E8018A819B81E817F907A8F724
:100400001CC0E8018A819B818E1B9F0BE7018E1522
:100410009F0508F4EC01D8018D919C91AE01B601C5
:100420008E0F9F1F0E94D54FCC0EDD1EEC1AFD0AC9
:10043000E8010C811D81E0E0F0E00115110519F0E3
:100440001E141F04F4F280E090E0DF91CF911F9121
:100450000F91FF90EF90DF90CF9008954F925F92B1
:100460006F927F928F929F92AF92BF92CF92DF92C4
:10047000EF92FF920F931F93CF93DF938C014B0169
:100480005A013901CC24DD2404C06C01F801048137
:1004900015810115110519F44424552436C0F801BD
:1004A000828193818C0D9D1D8816990670F74424D6
:1004B000552428C07401EC18FD08F801828193814D
:1004C0008E199F09E5018A159B0508F4EC01F801D6
:1004D000608171816E0D7F1DAE01C3010E94D54FF9
:1004E0004C0E5D1EF801048115810115110569F09E
:1004F000CE0CDF1CCC0EDD1E8C0E9D1EAC1ABD0A70
:100500006C0E7D1E1A141B04ACF2C201DF91CF9158
:100510001F910F91FF90EF90DF90CF90BF90AF9021
:100520009F908F907F906F905F904F900895EF9283
:10053000FF920F931F93CF93DF93FC0120E030E0F5
:1005400040E050E0A0E0B0E02EC062817381611510
:10055000710531F1C081D18100E010E01EC08881B9
:1005600000FD0BC09927982F8827A82BB92BC8010D
:1005700001968617970771F403C09927A82BB92B0A
:100580007D01C701AA27BB27280F391F4A1F5B1F00
:10059000A0E0B0E00F5F1F4F219606171707F9F68E
:1005A0000480F581E02D309781F60BC0DA01C90196
:1005B000A070B0709A0144275527280F391F4A1F91
:1005C0005B1F203080E0380781E0480780E0580753
:1005D00068F7C90180959095DF91CF911F910F9198
:1005E000FF90EF900895EF92FF920F931F93CF9398
:1005F000DF93CDB7DEB76A970FB6F894DEBF0FBEB4
:10060000CDBFE42E08969A87898740E150E05C8749
:100610004B879E01215F3F4F3E872D874096988BE9
:100620008F875A8B498BCE0145969C8B8B8BCE0145
:1006300001969E8B8D8B88E090E0988F8F8B7A8FC0
:10064000698FCB010E94D101AA2797FDA095BA2FEF
:10065000BC01CD010E949A0469837A838B839C83B9
:10066000FF2400271127C801B7010E949A046D8357
:100670007E838F839887CE0109960E9497026A969F
:100680000FB6F894DEBF0FBECDBFDF91CF911F91A3
:100690000F91FF90EF9008958CED95E090931204E8
:1006A000809311040895A1E1B4E004969C012170A7
:1006B0003070280F391F02C0A40FB51F8D919C9177
:1006C0001197AC015F704217530710F097FF06C0F7
:1006D000CD01815194408C5D954074F389E0AD3E2D
:1006E000B80718F080E090E00895C90102979C01D6
:1006F0003F70306811963C932E93FD01E80FF91F6F
:10070000481B590B5F7051834083CD0102960895B9
:10071000CF93DF939C01E1E1F4E0C0E0D0E006C0BC
:10072000808191819F70EF01E80FF91FCF01029640
:100730008217930739F0CF01815194408C5D954029
:100740007CF327C0808191819C013F70DF01A20F63
:10075000B31F9F7791838083CD01815194408C5D3D
:1007600095404CF48D919C9197FD05C09F70280F8A
:10077000391F31832083209761F02881398137FD2B
:1007800008C03F70808191819F70280F391F398385
:100790002883DF91CF910895E1E1F4E040E050E05B
:1007A0000BC02081318137FD04C0C9019F70480F03
:1007B000591F3F70E20FF31FCF01815194408C5DB0
:1007C00095407CF3CA0108956F927F928F929F9219
:1007D000AF92BF92CF92DF92EF92FF920F931F934F
:1007E000CF93DF93FB015A018B01040F151FDC012E
:1007F000CC24DD2440E050E07AE398EF692E9FEFAF
:10080000792E600E711E6E167F0608F460C0ED0131
:10081000E980FC9024E030E08FEF882E982ECCE029
:10082000D0E0C401022E02C0969587950A94E2F7A3
:100830008E159F0530F042305105B1F4203131055D
:1008400099F4C7010C2E02C0969587950A94E2F799
:10085000682F6F708F7090700A9718F4862F805DE4
:1008600002C0862F895A81932C5F3F4F24972431F1
:100870003105B9F68D919C911197892B21F5411580
:10088000510559F471938D919C911197892B19F40D
:1008900041E050E002C042E050E087E0C816D104D9
:1008A00024F44130510509F071930894C11CD11C06
:1008B000129688E0C816D10409F0A5CF4130510541
:1008C00031F4719304C04130510539F7E4CF1192EE
:1008D0000A191B09CF01801B910BDF91CF911F914A
:1008E0000F91FF90EF90DF90CF90BF90AF909F90CF
:1008F0008F907F906F900895DC018C91837082308F
:1009000021F4FD012181328113C0833019F020E0F0
:1009100030E00EC0FD01319620E030E0AD01475FD0
:100920005F4F81919191280F391FE417F507C9F79F
:10093000C9010895EF92FF920F931F93FB01BC0131
:10094000882799272F2F3E2F44275527A901332782
:100950002227E72EF62E002711272E293F29402B8C
:10096000512BCA01B9011F910F91FF90EF9008958B
:100970009C01DB01FC0104C08D91819341505040EA
:1009800041155105C9F7C90108958F929F92AF9201
:10099000BF92CF92DF92EF92FF920F931F93CF936C
:1009A000DF936C014B01892B09F4A3C0611571051C
:1009B00009F49FC080E1EB0119928A95E9F7D6010D
:1009C00060E070E090E046C02A3301F1822F80534E
:1009D0008A3030F4332727FD3095205330400EC045
:1009E000422F552747FD50952154263020F49A0177
:1009F0002753304003C09A012755304044E0660F2A
:100A0000771F4A95E1F7622B732B0DC0E92FFF2763
:100A1000EE0FFF1FE80DF91D072F162F118300831E
:100A20009F5F60E070E0FD013196ED012981222396
:100A300059F4E92FFF27EE0FFF1FE80DF91DE72EF0
:100A4000F62EF182E08255C08C918A3311F42A335C
:100A500041F0DF012C91222309F0B6CFFD0101C046
:100A6000319680818823E1F7DF01119760E070E023
:100A700017E090E03BC02C912A3311F1822F805374
:100A80008A3030F4332727FD3095205330400EC094
:100A9000422F552747FD50952154263020F49A01C6
:100AA0002753304003C09A0127553040092E02C019
:100AB000220F331F0A94E2F7622B732B9C5F0EC048
:100AC000E12FFF27EE0FFF1FE80DF91DA72EB62E11
:100AD000B182A082115060E070E090E01197FD01BA
:100AE00081818A3319F48C918A3319F0CA16DB0696
:100AF00010F2DF91CF911F910F91FF90EF90DF9057
:100B0000CF90BF90AF909F908F900895FC0171831C
:100B1000608353834283358324830895CF92DF9289
:100B2000EF92FF920F931F93CF93DF938C016B0192
:100B3000EE24FF241AC0F80182819381E89EE0012F
:100B4000E99ED00DF89ED00D112480819181C80FAF
:100B5000D91FCE01F6010995FFEF8F3F9F0759F08E
:100B6000019759F00894E11CF11CF80184819581EA
:100B7000E816F90600F3C0E0D0E0CE01DF91CF9196
:100B80001F910F91FF90EF90DF90CF900895EF921B
:100B9000FF920F931F93CF93DF93EC017B0100E053
:100BA00010E012C08A819B819C01029FC001039FBB
:100BB000900D129F900D112428813981820F931F6F
:100BC000F70109950F5F1F4F8C819D810817190749
:100BD00048F3DF91CF911F910F91FF90EF9008950F
:100BE0008FB7F894992708958FBF089508958823A3
:100BF00019F08CB5806802C08CB58F778CBD8FEFF3
:100C00008093530208951F920F920FB60F921124F2
:100C10000F931F932F933F934F935F936F937F9304
:100C20008F939F93AF93BF93CF93DF93EF93FF93F4
:100C30002EB5E091DA0AF091DB0A309739F0809115
:100C40004F1590915015E80FF91F208380914F1593
:100C50009091501501969093501580934F1580E018
:100C60000E94F705C0914F15D091501520914D1558
:100C700030914E15C217D30708F042C00091F80A10
:100C80001091F90A4091DA0A5091DB0ACE010A96D6
:100C90002817390708F4C901DA01AC0FBD1FF801A4
:100CA000EC0FFD1F9C012150304015C001151105AE
:100CB00031F080818EBD0DB407FEFDCF04C01EBC97
:100CC0000DB407FEFDCF8EB54115510509F08C938B
:100CD000219611963196C217D30740F381E00E9406
:100CE000F7050115110531F00C0F1D1FF80180816A
:100CF0008EBD01C01EBCD0935015C0934F1511C0BE
:100D00001092DB0A1092DA0A1092F90A1092F80A8D
:100D100010924E1510924D151092501510924F15BD
:100D20008EB5FF91EF91DF91CF91BF91AF919F91E0
:100D30008F917F916F915F914F913F912F911F9173
:100D40000F910F900FBE0F901F9018951F920F924A
:100D50000FB60F9211248F938091ED0C8F5F8093CB
:100D6000ED0C8F910F900FBE0F901F9018951F9252
:100D70000F920FB60F9211248F93EF93FF93EFED25
:100D8000F0E080818E7F80838FEF80935302FF910C
:100D9000EF918F910F900FBE0F901F901895282FF5
:100DA0009FB7F894E82FFF27E856F54F80818F3FD3
:100DB00081F4E091371FE21771F40BC020939C1C63
:100DC00004C0FF27E856F54F20832093371F20E00B
:100DD00007C025E005C080919C1C8F3F91F7EECFA6
:100DE000892F99278FBF822F992708954FB7F8949D
:100DF00055272091E100622F2091E200722F20916F
:100E0000E300822F2091E400922F4FBF08950F93AB
:100E10001F930FB7F8941091ED0C0E94F6069B01FA
:100E2000AC018091E00083FF05C01F5F0E94F606C1
:100E30009B01AC01802F99278FBF612F77278827CF
:100E40009927FAE1660F771F881F991FFA95D1F746
:100E5000E6E05695479537952795EA95D1F7622BA9
:100E6000732B842B952B1F910F910895AF92BF92F6
:100E7000CF92DF92EF92FF920F931F930E9407078A
:100E80007B018C012091430D3091440D4091450D23
:100E90005091460D8091EF0C9091F00CA091F10CC7
:100EA000B091F20C820F931FA41FB51FE216F30638
:100EB0000407150730F082179307A407B50758F009
:100EC00005C082179307A407B507E0F5E816F906F1
:100ED0000A071B07B8F59C01AD012E193F09400B0D
:100EE000510B213060E0360760E0460762E05607AC
:100EF00068F180E090E0A0E0B2E0E80EF91E0A1F81
:100F00001B1FE092430DF092440D0093450D10938A
:100F1000460D80E090E0A0E0BEEFE80EF91E0A1F4B
:100F20001B1F20503040404052402093EF0C309324
:100F3000F00C4093F10C5093F20C20E030E040E0D4
:100F400052E014C020E030E040E050E08093430DD8
:100F50009093440DA093450DB093460D1092EF0C65
:100F60001092F00C1092F10C1092F20C59016A01DF
:100F7000B6E0AA0CBB1CCC1CDD1CBA95D1F7A6E0D0
:100F8000EE0CFF1C001F111FAA95D1F70E94F60658
:100F90009B01AC012E5F3F4F4F4F5F4FDA01C901FC
:100FA0008E199F09A00BB10B8A159B05AC05BD05D9
:100FB00030F4A80197012A0D3B1D4C1D5D1D509377
:100FC000F4004093F3003093F2002093F10082E0AC
:100FD0008093E0008091DF0082608093DF008FEFDC
:100FE000809353021F910F91FF90EF90DF90CF906D
:100FF000BF90AF9008951F920F920FB60F921124D9
:101000002F933F934F935F936F937F938F939F9310
:10101000AF93BF93EF93FF938091DF008D7F809319
:10102000DF008FEF809353028091EF0C9091F00CD2
:10103000A091F10CB091F20C0097A105B10521F43B
:101040008BE00E94CF0602C00E943607FF91EF910D
:10105000BF91AF919F918F917F916F915F914F91D0
:101060003F912F910F900FBE0F901F901895FC018C
:1010700082819927982F882721813327822B932BD0
:1010800025E0969587952A95E1F7817090700895EF
:10109000FC0140E050E082819927982F8827218128
:1010A0003327822B932B87749C7C8154984811F4AE
:1010B00041E050E0CA010895FC0187819927982FEB
:1010C000882726813327822B932B0895EF92FF9256
:1010D0000F931F93CF93DF937B018C018FB7F8940D
:1010E000C82FDD270E94F6069B01AC01C801B7019D
:1010F000623071058105910520F462E070E080E0C6
:1011000090E0260F371F481F591FDA01C901B0931D
:10111000F000A093EF009093EE002093ED0084E0A8
:101120008093E0008091DF0084608093DF008FEF88
:1011300080935302CFBFDF91CF911F910F91FF900A
:10114000EF900895FB01E057FF4F21E030E002C02F
:10115000220F331F8A95E2F72095808182238083B6
:10116000089520E030E0FC0181818770823011F425
:1011700021E030E0C9010895CF93DF93EC010E9494
:1011800037088823D1F0CE010E9448088823A9F0AF
:10119000CE010E945C082FB7F8943327409161027A
:1011A000509162022FBF20E08417950709F021E0DB
:1011B00081E02827822F992702C080E090E0DF910C
:1011C000CF910895FB01E057FF4F21E030E002C0CE
:1011D000220F331F8A95E2F7808182239927089591
:1011E0008091F50A823031F481E08093F50A81E143
:1011F0000E94CF060895EF92FF920F931F937C01F8
:101200008FB7F894992700911E1510911F150F5E46
:101210001E4F10931F1500931E15015111408FBFD3
:1012200083E10E94CF06C801B7010E940B4F44968C
:101230001F910F91FF90EF90089521E030E002C0E0
:10124000220F331F8A95E2F780914F0D822B8093F6
:101250004F0DEBE6F0E08081282B2083E8E6F0E0FC
:1012600080818160808380E090E0089521E030E01B
:1012700002C0220F331F8A95E2F7922F909580913A
:101280004F0D892380934F0DEBE6F0E08081282BF2
:101290002083E8E6F0E080818160808380E090E058
:1012A00008950E94F60608951F920F920FB60F92AE
:1012B00011248F9380913B138F5F80933B138F9109
:1012C0000F900FBE0F901F9018951F920F920FB6A0
:1012D0000F9211240F900FBE0F901F9018951F9220
:1012E0000F920FB60F9211240F900FBE0F901F9008
:1012F00018951F920F920FB60F9211240F900FBEE8
:101300000F901F9018951F920F920FB60F921124F5
:101310000F900FBE0F901F901895EAE5F1E0692736
:10132000660FF11DE60FF11DC895982F802D31969F
:10133000C89590250895982F8091E903882389F511
:10134000992379F531E03093E90380915702809336
:10135000EA032091DE03822F81708093910A8091AD
:101360005C0290915D029093EC038093EB0380917B
:10137000DF038093ED0332273170267EE32FFF27B2
:10138000EE0FFF1FE85AFD4F8081918190935D021F
:1013900080935C02232B2093DE0389E00E94CF061A
:1013A00008958091DE0380FF02C08B7F01C08D7F96
:1013B0008093DE0308951F931FB7F8948091031F55
:1013C000882341F484E00E94CF06882319F481E049
:1013D0008093031F812F99278FBF1F9108959FB777
:1013E000F894809118158A3011F020E006C020E0B2
:1013F0008091F70A843009F421E0892F99278FBF63
:10140000222349F086E00E94CF068FB7F8949927EF
:101410001092DD0306C08FB7F894992721E020933E
:10142000DD038FBF08950F931F93082F162F809110
:10143000F70A8130D9F0813038F0823009F44AC09F
:10144000833009F028C159C0002309F458C1109213
:10145000851C1092841C109231151092971C1092CA
:10146000CA0C10923D1310923C1339C1002309F0AD
:1014700046C180913C1390913D130E948D09909339
:101480003D1380933C1382E08093F70A1093971CDE
:10149000143409F000C125C18695869503C080915A
:1014A000DE038695817009F0F6C08091DE039923F2
:1014B00011F0846001C082608093DE038091DE03BE
:1014C000877E88608093DE031092DF038FEF809326
:1014D000570215C1002309F0DEC06093CA0C809149
:1014E0003C1390913D130E948D0990933D1380937E
:1014F0003C1383E08093F70A02C1809131158F3F3E
:1015000009F4C9C0002309F461C0823008F4C3C0E3
:10151000E091841CEE2309F4EBC04E2F4150E42FE0
:10152000FF27EC57F34E82819927382F2227442337
:1015300011F4E2E002C0E42FE150FF27EC57F34E34
:1015400082819927282B392B80913C1390913D1350
:101550002817390709F09FC080E00E949B0930914D
:10156000CA0C8091211320912213982F9F5F9630EF
:1015700008F090E0921771F0E82FFF27EF5DFC4E26
:1015800032838F5F80932113863010F010922113E5
:101590000E94DB091092851C1092841C94E09093A9
:1015A000F70A109231151092971C1092CA0C1092E3
:1015B0003D1310923C138091EE038D7F8093EE03D8
:1015C0008091DD03882309F49AC084C0823008F436
:1015D0004EC0E091851CFF27EC57F34E8281482FC7
:1015E0005527342F2091DE03822F86958695869588
:1015F000837099278130910519F00297F9F40EC094
:10160000277E20612093DE03442311F485E001C08E
:1016100080E08093DF033093570210C08091DF0396
:10162000833960F4E0915C02F0915D02E80FF11DF6
:1016300040838091DF038F5F8093DF038091851C5F
:10164000E82FFF27EC57F34E62818F5F8093851C54
:10165000833010F01092851C772780913C13909175
:101660003D130E948D0990933D1380933C1380910C
:10167000841CE82FFF27EC57F34E12838F5F809373
:10168000841C833010F01092841C809131158F5F80
:101690008093311534C01092851C1092841C14E084
:1016A0001093F70A109231151092971C1092CA0CE1
:1016B00010923D1310923C138091EE038D7F809326
:1016C000EE0381E00E949B098091DD03882329F0CD
:1016D0001093F70A0E94EF0912C0002381F081E005
:1016E00009CF8091DE03982F917080FDD5CED7CEA3
:1016F0008091881C9927382F222742E01CCF1F9108
:101700000F9108951F920F920FB60F9211242F93ED
:101710003F934F935F936F937F938F939F93AF9379
:10172000BF93EF93FF938091C00087FF42C0609109
:10173000C600E0913E13F0913F13309719F180916C
:10174000011F9091021FE80FF91F6083019690938B
:10175000021F8093011F2091681F3091691F82171B
:10176000930738F110923F1310923E138091E714C3
:101770008330F9F08091C1008F778093C10010927F
:10178000E71417C06E3719F460E081E010C0809153
:10179000EE036D3721F482608093EE030AC081FF6F
:1017A00005C08D7F8093EE0380E2682780E00E9471
:1017B000130AFF91EF91BF91AF919F918F917F910C
:1017C0006F915F914F913F912F910F900FBE0F90AE
:1017D0001F9018952FB7F89433278093C600E0EC3C
:1017E000F0E08081806480832FBF0895FC01611543
:1017F000710519F481E090E008958091480D909171
:10180000490D892B19F085E090E0089570938C1CA8
:1018100060938B1CF093490DE093480D1092FB0AE6
:101820001092FA0A81E08093FC0A8091C0008064E3
:101830008093C0008091C10080648093C10080814A
:1018400021E030E03093FB0A2093FA0A0E94EA0B71
:1018500080E090E00895982F8D57823068F4809151
:10186000EE0381608093EE0380E289278093201548
:101870008DE78093B50A02C09093B50A61E070E0ED
:1018800085EB9AE00E94F60B992708958FB7F8949C
:1018900099272091EE032E7F2093EE032EE72093CD
:1018A000B50A8FBF61E070E085EB9AE00E94F60B0D
:1018B0009927089578941F920F920FB60F921124D2
:1018C000FF920F931F932F933F934F935F936F93C9
:1018D0007F938F939F93AF93BF93CF93DF93EF93B8
:1018E000FF932091FA0A3091FB0A80918B1C909112
:1018F0008C1C2817390780F4E091480DF091490DB0
:10190000E20FF31F80812F5F3F4F3093FB0A20933C
:10191000FA0A0E94EA0BD1C01092490D1092480DAC
:101920001092FC0A8091C1008F7B8093C100FFB6AA
:10193000F8948091EE0380FF0EC08E7F8093EE03BB
:10194000809120158093B50A61E070E085EB9AE004
:101950000E94F60BAFC080911815843009F48CC03A
:10196000853040F4823021F18330B8F5813009F0C0
:101970009CC00DC0863009F48DC0863008F483C049
:10198000873009F48EC0883009F08FC091C08091F3
:10199000420D0E942B0C082F83E080931815609154
:1019A000420D8091631F9091641F0E948D0910C0A9
:1019B0008091B41C0E942B0C082F83E08093181593
:1019C0006091B41C8091631F9091641F0E948D09E7
:1019D0009093641F8093631F66C0E0914113FF27BB
:1019E000EE0FFF1FE45BF24F80810E942B0C082F4B
:1019F00010914113C12FDD27FE01EE0FFF1FE45BA5
:101A0000F24F60818091631F9091641F0E948D0945
:101A10009093641F8093631F2091EE0C2F5F20939F
:101A2000EE0C113039F58091E503E091E003F0917F
:101A3000E103E80FF11DE0818F5F8093E503909152
:101A4000E403981730F482E080934D0D40E050E0BD
:101A500002C04E2F5527DE01AA0FBB1FFD01E55B1B
:101A6000F24F8081823031F02F3F21F0A45BB24FE2
:101A70004C9319C084E012C08091631F0E942B0C0C
:101A8000082F85E00BC08091641F0E942B0C082F4B
:101A900086E004C00E94460C082F87E0809318154A
:101AA00002C088E003C0002329F089E08093181564
:101AB0000E94DB098F2D99278FBFFF91EF91DF9156
:101AC000CF91BF91AF919F918F917F916F915F91D6
:101AD0004F913F912F911F910F91FF900F900FBE4B
:101AE0000F901F9018951F920F920FB60F9211240E
:101AF0008F938091C80087FF02C08091CE008F91A4
:101B00000F900FBE0F901F90189578941F920F9210
:101B10000FB60F9211240F900FBE0F901F901895C3
:101B2000882319F08CB5806402C08CB58F7B8CBD86
:101B30008FEF80935302089580E00E94900D229AC7
:101B40002398219A209A8CB580618CBD80E00E94F8
:101B5000F7058CB5877F8CBD8CB58B7F8CBD81E004
:101B60000E94900D8DB58E7F8DBD8CB58C7F816070
:101B70008CBD8FEF80935302089580913B13209189
:101B8000840030918500B09B05C08F5F2091840058
:101B900030918500992799278695979588273695BE
:101BA0002795822B932B0895FF920F931F93CF932A
:101BB000DF93EC01FFB6F8940E94BD0D8C0180E824
:101BC000C130D80768F0C050D0480E94BD0D801BBE
:101BD000910BC817D907C8F70C0F1D1FC0E0D0E83C
:101BE0000E94BD0D801B910BC817D907C8F78F2D18
:101BF00099278FBFDF91CF911F910F91FF9008958B
:101C00000F931F93982F1FB7F8948091DC038230B5
:101C100091F580915602891771F58091540220E068
:101C200030E08F3F11F421E030E0232BE9F49FEF07
:101C3000909356028F3F19F42FEF30E00DC0282FFC
:101C40003327F901E253F54F8081809354028F3F8F
:101C500011F49093550290832093BA0A81E0809307
:101C6000DC030E94CF0605C08FEF809356021092CE
:101C7000DC0301E001C000E0812F99278FBF1FB76F
:101C8000F8948091DC03882329F40E94900D8FEF53
:101C900080935302812F99278FBF90E0013009F480
:101CA00091E081E09827892F99271F910F9108953E
:101CB0002F923F924F925F926F927F928F929F925C
:101CC000AF92BF92CF92DF92EF92FF920F931F934A
:101CD000CF93DF93CDB7DEB7E0970FB6F894DEBFB2
:101CE0000FBECDBF80914F0290915002888B892FFB
:101CF00099278F871E868FE48D878CE48C878DE6ED
:101D00008B8782E18A871986DE019996FE013996D2
:101D100088E001900D928150E1F7DE011196FE01FD
:101D2000B99688E001900D928150E1F7DE0151965D
:101D3000FE01319688E001900D928150E1F7DE01BD
:101D40009196FE01719688E001900D928150E1F725
:101D500099A188A589A398A79AA18FA18AA39FA3D7
:101D60009BA18EA18BA39EA39CA18DA18CA39DA3BF
:101D7000DE015996FE01B19688E001900D928150E6
:101D8000E1F798A1298C3A8C4B8C5C8C6D8C7E8C05
:101D90008F8C222D332D442D552D662D772D882D9A
:101DA000E0960FB6F894DEBF0FBECDBFDF91CF91A6
:101DB0001F910F91FF90EF90DF90CF90BF90AF9069
:101DC0009F908F907F906F905F904F903F902F905B
:101DD0000895AC012091040A253018F081E090E0CC
:101DE000089580911915682F620F712D711DFB01E7
:101DF0006530710508F03597EE0FFF1FE053F54F82
:101E0000518340832F5F2093040A80E090E008957F
:101E10000F931F93CF93DF93DC019B014091FF1F32
:101E2000509100208D919C9111978E5F9048B9F54B
:101E3000FD018285938580509F4FC1F4FD0184850B
:101E400095858E3F910591F4018510855D7F04177E
:101E50001507B9F5F90180818C7F82608083FD01CF
:101E6000C785D685F901D283C18316C0F901808167
:101E700083608083E901FD013F96AD01495F5F4FBB
:101E80008081319789832196E417F507C9F7F90115
:101E9000808592E08927808780E090E014C08C9153
:101EA0008F3F79F4FD0181818F70823051F4F90107
:101EB00080818C7F826080838FEF9FEF928381830C
:101EC000EBCF81E090E0DF91CF911F910F910895CA
:101ED000AC0120919F0F2C3018F081E090E0089524
:101EE0008091341D682F620F712D711DFB016C30C4
:101EF000710508F03C97EE0FFF1FE05CF04E518338
:101F000040832F5F20939F0F80E090E00895AC0105
:101F10002091A00F2C3018F081E090E0089580917E
:101F2000EC0C682F620F712D711DFB016C30710577
:101F300008F03C97EE0FFF1FEE5CFA4E5183408392
:101F40002F5F2093A00F80E090E00895AF92BF92A2
:101F5000CF92DF92EF92FF920F931F93CF93DF9375
:101F6000FC019B017A0108E010E0CB0168E070E021
:101F70000E941F4F5B016F01C60ED71EC90168E0AA
:101F800070E00E941F4F9801281B390BCFEFD0E063
:101F9000DE0102C0AA0FBB1F2A95E2F7CD01D601D0
:101FA0002C91282329F5C70168E070E00E941F4F9B
:101FB0009B01E60FF71FC70168E070E00E941F4F0A
:101FC000081B190B02C0CC0FDD1F0A95E2F78081B8
:101FD0008C2371F4F601B50105C08191882341F489
:101FE0006F5F7F4F62177307C4F380E090E002C019
:101FF0008FEF9FEFDF91CF911F910F91FF90EF90A7
:10200000DF90CF90BF90AF900895DC01FC018681F6
:10201000815086838823C1F49091BD0A9330A0F447
:1020200080910F0A282F290F312D311DF9012330FE
:10203000310508F03397EE0FFF1FEB54F34EB183D9
:10204000A0839F5F9093BD0A0895AC012091B70AC9
:10205000233018F081E090E008958091671F682F89
:10206000620F712D711DFB016330710508F033970C
:10207000EE0FFF1FE250F64F518340832F5F2093F6
:10208000B70A80E090E008952091040A222319F411
:1020900040E050E016C080911915E82FFF27EE0FA1
:1020A000FF1FE053F54F4081518111821082215072
:1020B0002093040A8F5F80931915853011F41092D4
:1020C0001915CA010895AC0120910F04253018F0AC
:1020D00081E090E0089580910E04E82FFF27EE0F35
:1020E000FF1FEB5AFA4E518340838F5F80930E049B
:1020F000853011F410920E042F5F20930F0480E0BE
:1021000090E00895EF920F931F93AE2D99E0899F71
:10211000F0011124EE5BFC4E408351836283738394
:102120000483158326833783A17080858E7F8A2B55
:10213000826080878CE00E94CF061F910F91EF9004
:102140000895AF92BF92CF92DF92EF92FF920F93DA
:102150001F93F82E5A016B010E940707AB01BC01C7
:10216000EE24960185018F2D0E9482101F910F9100
:10217000FF90EF90DF90CF90BF90AF9008952F9297
:102180003F924F925F926F927F928F929F92AF9207
:10219000BF92CF92DF92EF92FF920F931F93CF9354
:1021A000DF93CDB7DEB729970FB6F894DEBF0FBE29
:1021B000CDBF6FB76983F8942090E60C3090E70CA0
:1021C0004090E80C5090E90C662477248824FEE4C3
:1021D000AF2EE3E8BE2ECC24DD24EE24FF2400E065
:1021E00010E0222D332D442D552D662D772D882D71
:1021F00090E00E948A4D2A833B834C835D836E83EB
:102200007F8388879987822E932EA42EB52E240152
:10221000350100E20E94884EA22EB32EC42ED52E88
:10222000A301920156954795379527952A0D3B1D99
:102230004C1D5D1D57FF05C05F772F5F3F4F4F4F10
:102240005F4F2093E60C3093E70C4093E80C5093DB
:10225000E90CE9818E2F99278FBFCA01B901299610
:102260000FB6F894DEBF0FBECDBFDF91CF911F91A7
:102270000F91FF90EF90DF90CF90BF90AF909F9025
:102280008F907F906F905F904F903F902F90089528
:102290001092F7038FEF9FEF90938E0280938D0241
:1022A0009093900280938F0290936B0280936A02C6
:1022B000E3E1FBE0108277968CE0EF3DF807D1F781
:1022C0000895FC01E857FF4F808191810895809126
:1022D000F303E82FFF27EE0FFF1FEC5AF34E019098
:1022E000F081E02D2091F503222351F08F5F809340
:1022F000F3038C3011F41092F30321502093F50373
:10230000CF010895CF93DF93EC0120E00FC0E22FBF
:10231000FF27DE01AE0FBF1FE60FF71F9C918081E4
:10232000981719F080E090E005C02F5F241779F727
:1023300081E090E0DF91CF9108951F93982F1FB710
:10234000F8948091F003823099F5809166028917A4
:1023500079F58091640220E030E08F3F11F421E0B4
:1023600030E0232BF1F49FEF909366028F3F19F436
:102370002FEF30E00DC0282F3327F901ED50F34F38
:102380008081809364028F3F11F490936502908363
:102390002093470D81E08093F0038EE00E94CF06EA
:1023A00005C08FEF809366021092F00321E001C018
:1023B00020E0812F99278FBF90E0213009F491E030
:1023C00081E09827892F99271F9108950F931F93D4
:1023D0000FB7F89411276093430D7093440D8093C9
:1023E000450D9093460D2093EF0C3093F00C4093E5
:1023F000F10C5093F20C0E9436070FBF1F910F9102
:1024000008959FB7F8948091F70A882319F484E01F
:102410008093F70A892F99278FBF9FB7F8948091EF
:102420001815882319F48AE080931815892F9927A5
:102430008FBF0E94EF0980E090E008958FB7F89475
:10244000282F3327922F809118158A3041F08091E0
:10245000F70A843021F02FBF89E090E008959FBFF4
:1024600085E00E94CF0680E090E00895E82F272FB6
:10247000362F21153105D9F0882349F08091381F76
:102480009091391F82179307E1F0E13049F0809174
:102490003A1F90913B1F8217930799F0E23039F071
:1024A00080913C1F90913D1F8217930751F0FF27A9
:1024B000EE0FFF1FE85CF04E3183208380E090E058
:1024C000089581E090E008958F929F92AF92BF921D
:1024D000CF92DF92EF92FF920F931F93CF93DF93F0
:1024E000CDB7DEB7A8970FB6F894DEBF0FBECDBF4D
:1024F0008C01A090FF1FB090002080901F1390903F
:1025000020130E94580E29A33AA34BA35CA36DA3EA
:102510007EA38FA398A7DE015996FE01B19688E0AD
:1025200001900D928150E1F7DE011196FE0179963E
:1025300088E001900D928150E1F7DE011996FE01CD
:10254000319688E001900D928150E1F7DE015196BD
:10255000FE01399688E001900D928150E1F780E10B
:10256000F80111928A95E9F78EEF90E8F8019183CE
:10257000808380916002882399F0EB2CFA2CF186FD
:10258000E08680E09FEF938782878EEF90E09587CB
:102590008487C92CD82CD786C68680858D7F13C0AA
:1025A000F80127E030E0DE0158968C911197808782
:1025B0002150304031968FEF2F3F3807B1F7F801A7
:1025C000808592E08927808781E090E0A8960FB609
:1025D000F894DEBF0FBECDBFDF91CF911F910F9159
:1025E000FF90EF90DF90CF90BF90AF909F908F9033
:1025F0000895FC01808D9F01285F3F4F8F3F39F484
:10260000818D99278F709070039754F00EC08E3F84
:1026100061F4818D9927807F9070813891052CF429
:10262000C9010E94641299270895F901A9E2B3E152
:1026300080E10D9001928150E1F78091EF0399279D
:102640000895FC013F968BE0DF011D928A95E9F722
:102650003F9782E082871782168208958F929F9219
:10266000AF92BF92CF92DF92EF92FF920F931F93A0
:10267000CF93DF935C01EB016A01A901F70110829E
:1026800028813981F0E82E3F3F0709F08DC08A810B
:102690009B81892B09F088C08C819D81892B09F051
:1026A00083C08E819F81892B09F07EC02885398562
:1026B0002115310591F48A859B85892B71F48C85D0
:1026C0009D85892B51F482E0F70180838E859F855B
:1026D000F501819391935F01DDC0C8019D7F892E33
:1026E000982E28153905B9F48A859B8580509F4F0F
:1026F00091F48C859D858E3F910569F4FA01808166
:102700008370823041F4A281B1818E859F858A17C2
:102710009B07F1F53BC0FA01808183708330C1F5DE
:10272000DE0118969A012F5F3F4FF901878192E0F1
:1027300089279885981761F5FD019181F9018681B6
:10274000981731F5FD019281F9018581981701F5FE
:10275000FD019381F90184819817D1F4FD019481E1
:10276000F90183819817A1F4FD019581F901828116
:10277000981771F4FD019681F9018181981741F450
:10278000FD019781FA018181981711F483E072C0ED
:1027900081E0F7018083D501FE01389688E0019041
:1027A0000D928150E1F739C01C141D040CF043C098
:1027B00084E0F7018083F0E8CF16D10431F487E09C
:1027C000F701808380E090E063C040E750E0B6010D
:1027D000CE010E94A60F892B61F4F70180818260EF
:1027E00080838E859F85F5019183808382E090E0D0
:1027F0004FC040E450E0B601CE010E94A60FF701A1
:102800002081892B69F421602083D501FE0138964F
:1028100088E001900D928150E1F788E090E038C0A7
:102820002B7FF7012083D501FE0180E101900D92FD
:102830008150E1F72BC0232B01F58A819B81892BE5
:10284000E1F48C819D81892BC1F48E819F81892B3C
:10285000A1F488859985892B81F48A859B85892BAC
:1028600061F48C859D85892B41F48E859F85892B0C
:1028700021F484E0F70180830DC0F7011082D501B7
:10288000FE0180E101900D928150E1F780E190E03E
:10289000A80EB91EC501DF91CF911F910F91FF9036
:1028A000EF90DF90CF90BF90AF909F908F90089562
:1028B0000F931F93CF93DF93CDB7DEB722970FB659
:1028C000F894DEBF0FBECDBFBC01DA01AC014A5F98
:1028D0005F4FFD0181858370823049F48285938545
:1028E0009A838983FB01978386838B010EC0CA017B
:1028F0008D01065F1F4F28E0F80101908F01FC0158
:102900000192CF012150C1F78A01085F1F4F8C91BE
:102910008370823051F4FD01818192819A83898391
:10292000F80181939193AF010FC09801CD010196F9
:1029300048E0FC010190CF01F90101929F01415053
:10294000C1F7A801485F5F4F2C912370332730E413
:10295000239F302D222711242164FD01818583705E
:102960009927982F8827990F990F822B932BFB017A
:102970008183892F99278283FD018289FB018483CA
:10298000FD0182899389892F9927FB018583CA01DB
:1029900022960FB6F894DEBF0FBECDBFDF91CF9168
:1029A0001F910F9108952F923F924F925F926F92D5
:1029B0007F928F929F92AF92BF92CF92DF92EF92CF
:1029C000FF920F931F93CF93DF934C018091B60A30
:1029D000882309F01FC18091A10F853009F01AC129
:1029E0008091431C882309F015C1B40182E00E9444
:1029F000E208882311F490E00BC021E930E0820E58
:102A0000931EF40191812FE63FEF820E931E9F707B
:102A100080914013981729F090934013906C9093F5
:102A20004501C4010E9448088823A9F0809146010D
:102A300099278F7190702091BB1C4091900A240FB0
:102A4000312D311D43E0359527954A95E1F728173B
:102A500039070CF4DFC089E080934201B40184E0BF
:102A60000E94E208882319F4C0E0D0E006C0D40137
:102A70008C918550E401C80FD11DF4018081992704
:102A8000282F80938001809141018F71893021F03E
:102A900086E080934201BEC014010894211C311CC1
:102AA0000EEFF02EF20E0FB7F89411270E94F606E3
:102AB0002B013C0182E0809342010FBF8BE090E04C
:102AC000A0E0B0E0480E591E6A1E7B1E6F2D7727CE
:102AD000209709F47EC02881E9808A81AB809927FC
:102AE000AA27BB27BA2FA92F982F88273327442737
:102AF0005527522F442733272227FF240027112749
:102B00008701FF24EE242E293F29402B512BBB2483
:102B1000CC24DD242A293B294C295D29822B932BA7
:102B2000A42BB52B84199509A609B7098B83292FE6
:102B30003A2F4B2F55272A839D0144275527298358
:102B40008B2F9927AA27BB278883AB01B10181E886
:102B500091E00E94D54F86E0809342012881E98070
:102B60008A81AB809927AA27BB27BA2FA92F982F34
:102B70008827332744275527522F442733272227D6
:102B8000FF24002711278701FF24EE242E293F2947
:102B9000402B512BBB24CC24DD242A293B294C2952
:102BA0005D29822B932BA42BB52B840D951DA61D7F
:102BB000B71D8B83292F3A2F4B2F55272A839D0131
:102BC0004427552729838B2F9927AA27BB2788833A
:102BD00009C0AB01B10181E891E00E94D54F86E0C8
:102BE00080934201F401E057FF4F8081826080832F
:102BF000ACE8B0E08A0E9B1EF401408251826282F2
:102C0000738286E08093A10F84E08093B60A80E00F
:102C100090E002C085E090E0DF91CF911F910F918D
:102C2000FF90EF90DF90CF90BF90AF909F908F90EC
:102C30007F906F905F904F903F902F9008954F92AC
:102C40005F926F927F928F929F92AF92BF92CF923C
:102C5000DF92EF92FF920F931F93CF93DF93CDB745
:102C6000DEB760970FB6F894DEBF0FBECDBFDC01B4
:102C70003A01A901280180E1FD0111928A95E9F745
:102C800077279B012370307062FD55C021303105DC
:102C900071F022303105C1F0232BE1F4FA0180E11B
:102CA00001900D928150E1F7405F5F4FBEC08EEF03
:102CB00090E811969C938E931896FA0188E0019003
:102CC0000D928150E1F774C08EEF90E811969C93BD
:102CD0008E9371C08EEF90E811969C938E93F201C3
:102CE000808183708330A9F49D0167E070E08201E8
:102CF000085F1F4FF801808101501040F901808763
:102D0000615070402F5F3F4FFFEF6F3F7F0791F79C
:102D100076C0C7019D7FC92ED82EFD01D186C08601
:102D20008FEF83878EEF8487F201A280B180FD014F
:102D3000B786A6867AC02115310509F476C08E01C2
:102D40000F5F1F4F69E273E180E1FB010190BF015A
:102D5000F80101928F018150C1F78091EF03882320
:102D600091F0662081F4CD018E010F5F1F4F68E066
:102D7000F80101908F01FC010192CF016150C1F770
:102D800080E490E002C080E090E02230310599F0CC
:102D900023303105C1F02130310519F040E050E019
:102DA00044C01896FA0188E001900D928150E1F735
:102DB000485F5F4F3AC0FA0181919191AF01FD01E7
:102DC0009787868732C081349105FCF4F2018081B7
:102DD00083708330E9F49D0167E070E08201085F51
:102DE0001F4FF801808101501040F9018087615028
:102DF00070402F5F3F4FFFEF6F3F7F0791F7FD015F
:102E0000808592E08927808710C0813791056CF416
:102E1000189688E0FD0111928A95E9F71897F2015A
:102E200082809180FD0197868686CA0160960FB6E2
:102E3000F894DEBF0FBECDBFDF91CF911F910F91F0
:102E4000FF90EF90DF90CF90BF90AF909F908F90CA
:102E50007F906F905F904F900895AF92BF92CF9206
:102E6000DF92EF92FF920F931F93CF93DF936C014A
:102E70005B018A01EE24FF2415C0F8018191C82F5F
:102E8000DD27AE01BF01C6010E94C84F892B29F47E
:102E9000CC0DDD1D8881882359F00894E11CF11CBC
:102EA000055F1F4FEA14FB0444F35EEFE52EF12C9F
:102EB000C701DF91CF911F910F91FF90EF90DF90AD
:102EC000CF90BF90AF9008950F931F93CF93DF9350
:102ED000CDB7DEB760970FB6F894DEBF0FBECDBF9B
:102EE0009C018B01DE011196E9E2F3E180E10190A2
:102EF0000D928150E1F78091EF03882371F048E053
:102F000050E0B901CE0101960E94C84F892B29F4E7
:102F1000F801108280E490E002C080E090E06096CA
:102F20000FB6F894DEBF0FBECDBFDF91CF911F91DA
:102F30000F9108958F929F92AF92BF92CF92DF929E
:102F4000EF92FF920F931F93CF93DF934C01EB010E
:102F5000AA24BB2478E4E72E70E1F72E8701035101
:102F6000104063E0C62ED12CC00ED11EF801808126
:102F700080FF18C0F7018081882391F09927C81736
:102F8000D9070CF4CE0168E070E00E941F4FAB013E
:102F9000B601C4010E94C84F892B21F4209711F07B
:102FA000C80111C00894A11CB11C85E290E0C80EB4
:102FB000D91E0B5D1F4FE80EF91E94E1A916B1044E
:102FC000A9F680E090E0DF91CF911F910F91FF90E3
:102FD000EF90DF90CF90BF90AF909F908F9008952B
:102FE000CF92DF92EF92FF920F931F93CF93DF93D5
:102FF0006C018091F703882311F180E090E003E1F8
:103000001BE0EAEEEE2EEFEFFE2EE00EF11EEC01DD
:1030100040E150E0B601C7010E94C84F892B21F45E
:10302000F8018081882369F4CE01019627E130E020
:10303000E20EF31E095E1F4F8431910541F7C4E192
:10304000D0E0CE01DF91CF911F910F91FF90EF90D3
:10305000DF90CF9008950F931F93CF93DF93CDB759
:10306000DEB760970FB6F894DEBF0FBECDBF8C0100
:10307000DE011196E9E2F3E180E101900D928150C9
:10308000E1F740E150E0B801CE0101960E94C84F3F
:10309000892B89F48091FB03882341F080915102B0
:1030A0009091520290936B0280936A0280916A021F
:1030B00090916B0217C0C8010E94F017843119F477
:1030C00084E392E10FC0282F332787E190E0289F07
:1030D000F001299FF00D389FF00D1124E350F54FBA
:1030E0008089918960960FB6F894DEBF0FBECDBF80
:1030F000DF91CF911F910F910895DF92EF92FF9290
:103100000F931F93CF93DF93CDB7DEB7D090F70324
:10311000DD2009F446C000E010E0FDEFEF2EFAE0FC
:10312000FF2E40E150E0BE01665F7F4FC7010E9465
:10313000C84F892B51F00F5F1F4F27E130E0E20E9F
:10314000F31E0431110569F1ECCF043151F1402F28
:10315000552787E190E0489FD001499FB00D589FC7
:10316000B00D1124A350B54F9E01265F3F4F87E15C
:10317000F90101909F010D928150D1F787E190E014
:10318000489FF001499FF00D589FF00D1124E35026
:10319000F54F8AE090E0958B848BD394D092F7031F
:1031A00023C040E050E0E3E1FBE06D2D6F5F9091C4
:1031B000F70320E030E08081882361F4F901E350D7
:1031C000F54FDE011A9687E10D9001928150E1F7EB
:1031D000962F08C04F5F5F4F295E3F4F779644316F
:1031E000510549F79093F703DF91CF911F910F910C
:1031F000FF90EF90DF900895CF93DF93EC01A0E074
:10320000B0E0E6E3F0E19F0121503040B9016B5D91
:103210007F4F4FEB52E0808191818C179D0759F4CD
:10322000C9010E94DE4F8091F4128E7F8093F412C8
:1032300080E090E00DC01196455250406B5D7F4F8D
:103240002B5D3F4FB596A431B10529F781E090E0A1
:10325000DF91CF9108959F92AF92BF92CF92DF926C
:10326000EF92FF920F931F93CF93DF936C018B012B
:103270005A01922ECB0187709070892B09F0A8C05B
:10328000613871050CF0A4C0C6010E949A17EC01C8
:10329000892B31F08B8999278017910709F47DC01C
:1032A0008091F41280FD6FC0EE24FF24E8E4F0E189
:1032B000BF0163517040DB01C0E0D0E08C91959676
:1032C00080FF24C080819927801791076CF00894B3
:1032D000E11CF11CA5966B5D7F4FB59684E1E81665
:1032E000F10409F450C0EACF83E190E08E199F0900
:1032F00025E230E0829FA001839F500D929F500DE8
:103300001124CE01865A9F4E0E94DE4F85E290E046
:10331000E89EF001E99EF00DF89EF00D1124EB5CA3
:10332000FF4E80818160808320915E0230915F0238
:10333000A9014F5F5F4FA6E3B0E1FD0131978081A6
:10334000B59680FF08C08D919C91119782179307C5
:1033500011F49A01EDCF959683E1E931F80779F7F9
:1033600050935F0240935E0285E290E0E89EF00198
:10337000E99EF00DF89EF00D1124EB5CFF4E3283B8
:103380002183EF0102C0C0E0D0E00115110519F45E
:103390008DE00E94CF062097D9F00B8B9CA2C8012C
:1033A00068E070E00E941F4FAB01B601CE010396AA
:1033B0000E94D54FA114B10441F0DE015496F501ED
:1033C00080E101900D928150E1F789819A8102C0DC
:1033D0008FEF9FEFDF91CF911F910F91FF90EF90B3
:1033E000DF90CF90BF90AF909F900895BF92CF9203
:1033F000DF92EF92FF920F931F93CF93DF93CDB79E
:10340000DEB724970FB6F894DEBF0FBECDBF6C01B8
:103410007B01B42E9E012F5F3F4F42E050E00E949F
:103420002E02029729F587010E5F1F4F13C09E01E0
:103430002D5F3F4F42E050E0B801C6010E942E02CE
:103440000297B1F48B818B15A9F08C819927029694
:10345000080F191F98012E193F098A819927A3E0A7
:10346000880F991FAA95E1F7089628173907FCF2EB
:103470000FEF1FEFC80124960FB6F894DEBF0FBE02
:10348000CDBFDF91CF911F910F91FF90EF90DF9013
:10349000CF90BF900895CF92DF92EF92FF920F935B
:1034A0001F93CF93DF93CDB7DEB722970FB6F89473
:1034B000DEBF0FBECDBF6C017A0100E010E016C088
:1034C0009E012F5F3F4F42E050E0B801C6010E94CD
:1034D0002E02029709F569818A819927B3E0880F46
:1034E000991FBA95E1F70896080F191FF701808117
:1034F0008F3F59F4662321F36B3211F36C3201F3E1
:103500006C33F1F26738E1F203C08617C9F602C0E6
:10351000F70160836B3311F40FEF1FEFC8012296A0
:103520000FB6F894DEBF0FBECDBFDF91CF911F91D4
:103530000F91FF90EF90DF90CF9008950F931F931E
:10354000CF93DF93CDB7DEB760970FB6F894DEBFA9
:103550000FBECDBFFB0102976CF18E010F5F1F4FB5
:10356000B801828193810E94C50480919B1381FDE3
:1035700021C040E054E060E070E089E00E94A110CA
:10358000A2E2BFE1F80180E101900D928150E1F7E4
:103590008AE090E090935215809351151092661F27
:1035A0001092651F1092001F1092FF1E1092DF0AEA
:1035B0001092DE0A60960FB6F894DEBF0FBECDBF44
:1035C000DF91CF911F910F910895CF93DF93EC017D
:1035D0008A85813061F0813038F0833019F0843091
:1035E00081F405C084E001C081E08A870AC08E8131
:1035F0009F81009711F00E94880382E08A871F82D2
:103600001E82DF91CF9108959C018091F70388235A
:1036100019F481E090E008956091910287E1689F3C
:10362000B00111246350754F40E150E0C9010E9480
:10363000B80480E090E0089521E020934A0D2093A3
:10364000CB140E94660808951F93182F8091DC0305
:10365000882371F40E949C0D8091DC03882341F43F
:1036600081E08093DC031093BA0A0E94CF0615C054
:10367000E12FFF27E253F54F80818F3F89F4E091DE
:103680005502E11781F40CC01093540204C0FF27C7
:10369000E253F54F10831093550280E090E008C08C
:1036A00085E090E005C0809154028F3F81F7ECCF18
:1036B0001F9108958093451D882311F484E001C073
:1036C00081E08093F50A81E10E94CF0608958F92F0
:1036D0009F92AF92BF92CF92DF92EF92FF920F93A1
:1036E0001F93CF93DF938091431C882309F4F5C087
:1036F0002FB7F89433278091E900A82E8091EA0033
:10370000B82E8091EB00C82E8091EC00D82EF0905E
:10371000431C1092431C2FBFF7FE0DC08091B60AC8
:10372000833011F0873039F485E08093A10F88E071
:103730008093B60A45C08091B60A843009F040C033
:10374000F1FE3EC085E08093A10F1092B60A8091F1
:10375000920A833019F41092920A32C000913E1FEF
:1037600010913F1FC8010E943708882311F1C8013A
:103770000E9448088823E9F0C8010E945C088F5F16
:103780009F4FB9F090E08091CB14882309F491E029
:10379000992379F012E010934A0D81E08093CB14C5
:1037A0006BEB70E080E090E00E9466081093920A54
:1037B00007C01092920A1092F60A80E00E945A1BEB
:1037C000CF2DDD27C5FF4EC08091B60A863019F493
:1037D0001092B60A03C0882309F044C0A091FD1FCF
:1037E000B091FE1F80E2F81671F5F09046019FE15E
:1037F000F9228091900A982F96959695EF2DE91BC6
:103800008E0F8093900AFD01E057FF4F8081826008
:103810008083A457BF4FAD92BD92CD92DC92139797
:103820000091FD1F1091FE1FB80182E00E94A208C6
:10383000F801E057FF4F8081886080830F561F4F4B
:10384000F801F1820BC0BD0181E00E94A2086091E5
:10385000FD1F7091FE1F83E00E94A20885E0809307
:10386000B60A04C08091B60A853089F4C4FF0FC03F
:103870002091BB1C809146018F71922F9695969551
:10388000891B280F2093BB1C89E08093B60AC0FFD8
:103890000CC08091A10F823041F48091B60A825011
:1038A000823018F483E08093A10FC3FF16C080918B
:1038B000B60A863091F4809155018F778093550137
:1038C0001092B60A80914101992787709070892BD8
:1038D00009F41DC2809141011AC29091B60A992340
:1038E00009F415C2993009F096C140917B0180918D
:1038F000460187FF51C0433008F44EC0842F9927FA
:103900008E3791050CF048C0E091FD1FF091FE1F2D
:1039100041934250552760E871E0CF010E94D54F96
:103920008091FD1F9091FE1F0E94B108882349F0ED
:1039300020E030E08091920A823081F421E030E092
:103940000DC08FB7F894282F332790E080916C1C1E
:10395000833008F491E02FBF292F3327232BE1F088
:10396000E0917B01FF27E058FE4F8081E091FD1F31
:10397000F091FE1FEF56FF4F808385E08093A10FEB
:103980001092B60AC091FD1FD091FE1FCE010E9479
:10399000B108882339F430C085E08093A10F1092DC
:1039A000B60AB1C18091920A823009F02FC19B8181
:1039B000E0913E1FF0913F1F8381981709F026C1C7
:1039C00089818770823009F021C18091DF008B7F6F
:1039D0008093DF008FEF809353021092CB14E05757
:1039E000FF4F8081816080831092920A1092F60AC4
:1039F00080E00E945A1B0AC18091920A8823C9F470
:103A0000CE010E94BC088823A1F085E08093A20F1C
:103A100082E08093A30F1092A40F8B818093A50F57
:103A200082EA9FE00E94D314882319F483E08093F4
:103A3000920A0E94F6068B01CE010E94BC088823E0
:103A400011F00A5C1F4F10933A13009339130E9430
:103A5000F606061B170BB80110161106BCF4809170
:103A6000F60A882381F490E08091CB14882309F42E
:103A700091E0992359F0882777FD8095982F0E942F
:103A80001C1B80E801C080688093F60A4E010894F0
:103A9000811C911C898528859927582F4427332715
:103AA000422B532B8091970A282F3327F901EE0FD1
:103AB000FF1FE357F34E808191810091CC1484174E
:103AC000950749F4F901EE5CF04E8081801709F406
:103AD00068C0802F1BC0EE24FF2480E090E0ADE89A
:103AE000BCE1E2E3FFE1BF01182F9C018D919C91A5
:103AF00011978417950789F42093970A9091CC1415
:103B0000FB018081891709F44CC0892F8F5F809356
:103B1000CC14808380E8E82E2AC08081902F981BE7
:103B2000E91610F4E92EF22E1F5FC90101966F5FAE
:103B30007F4F1296319685309105B1F61530B9F464
:103B4000F092970AAF2DBB27FD01EE0FFF1FE35741
:103B5000F34E518340838091CC148F5F8093CC14BB
:103B6000FD01EE5CF04E8083AF5FBF4D1C929091E3
:103B7000CC14892F8F778F3781F4EEE7EE1568F438
:103B8000E2E3FFE1292F207880818F67891320836A
:103B900031968FE1E733F807B9F78091970A282F1C
:103BA0003327F4019281A22FBB27FD01EF5FFF4D68
:103BB000808180FF07C0FD01E158F34E8081981796
:103BC00029F102C081608083A158B34E9C93FFB657
:103BD000F89480916C1C8330B0F4E091B31CE80F32
:103BE000E33008F0E350FF27EE0FFF1FEB5FF54FC8
:103BF00000811181D183C0838F5F80936C1C82E12F
:103C00000E94CF06E8018F2D99278FBFD093FE1F0A
:103C1000C093FD1F6FC0292F2150233008F057C0DB
:103C2000892F8250823098F48091A10F813079F4ED
:103C30009FEF90934F0180E880934E01809139016E
:103C40008D7F809339019093530282E010C09330AE
:103C500089F48091A10F833069F48DE580934E0142
:103C60008FEF8093530286E08093420184E080933B
:103C7000A10F10C0223070F48091A10F853051F453
:103C800093E09093420110924E018FEF8093530284
:103C90009093A10F9091B60A913069F48091A10F91
:103CA000833009F04EC080913901826080933901E0
:103CB0009093A10F1BC09230E9F48091A10F833043
:103CC00011F510924E018FEF809353020FC0973081
:103CD00089F48091191F8064809348018091A10F1D
:103CE000853021F484E08093A10F04C088E08093A4
:103CF000B60A04C08091B60A883029F41092B60A38
:103D000080E10E94CF068091B60A8823D1F4809189
:103D1000A10F8530B1F48091431C882391F48091E8
:103D2000920A882371F48091F60A882351F490E076
:103D30008091CB14882309F491E0992311F00E941B
:103D4000F0088091CB14823009F076C01092CB1429
:103D5000F0904A0DF1E0FF1629F022E0F21609F08A
:103D60006BC063C00091391310913A130E94F6069C
:103D70002091F60A203829F41092F60A0E94F008E1
:103D80005BC0E801C61BD70B27FF03C01C161D062E
:103D9000ECF00091DC0A1091DD0A8091920A8823F0
:103DA000A9F4C8010E94D3149927882351F4B801BB
:103DB0000E94A208F092920A10933F1F00933E1FA8
:103DC00030C09927182F882361F101C015E0209198
:103DD000F60A822F99278F77019779F4207822604D
:103DE0002093F60A8CE890E00E94FB08AA27BB27E4
:103DF000BC01CD010E941C1B1FC027FF0EC01C165A
:103E00001D065CF480E88093F60ABE01882777FDE2
:103E10008095982F0E941C1B02C01092F60A812FD9
:103E200009C083E08093F60A07C01092920A1092AC
:103E3000F60A80E00E945A1B8FB7F894282F332788
:103E40008091B90A813029F081E08093B90A2FBFAF
:103E50004ACC1092B90A2FBFDF91CF911F910F91D9
:103E6000FF90EF90DF90CF90BF90AF909F908F909A
:103E700008958FB7F894282F33278091B90A81507D
:103E80008093B90A803811F02FBF089581E08093A4
:103E9000B90A2FBF0E94671B08958FB7F894282F87
:103EA00033278091B90A882329F080688093B90A62
:103EB0002FBF089581E08093B90A2FBF0E94671B2E
:103EC00008951F938FB7F89499272091B90A2F5F0F
:103ED0002093B90A8FBF8091F50A882311F015E06D
:103EE00018C08091B60A882389F48091A10F85308B
:103EF00019F489E090E00CC083E08093B60A0E9438
:103F00004D1F85E08093F50A10E003C085E090E046
:103F1000182F0E94391F812F99271F910895789497
:103F20001F920F920FB60F9211242F933F934F932E
:103F30005F936F937F938F939F93AF93BF93EF9311
:103F4000FF932FB7F89433278091431C80628093AE
:103F5000431C2FBF0E944D1FFF91EF91BF91AF9166
:103F60009F918F917F916F915F914F913F912F9191
:103F70000F900FBE0F901F9018951F920F920FB6C3
:103F80000F9211242F933F934F935F936F937F93DF
:103F90008F939F93AF93BF93EF93FF938091DF0035
:103FA0008B7F8093DF008FEF809353028091CB143F
:103FB000813019F482E08093CB140E944D1FFF9151
:103FC000EF91BF91AF919F918F917F916F915F9191
:103FD0004F913F912F910F900FBE0F901F9018950A
:103FE00078941F920F920FB60F9211242F933F9344
:103FF0004F935F936F937F938F939F93AF93BF93F1
:10400000EF93FF932FB7F89433278091431C80617F
:104010008093431C2FBF0E944D1FFF91EF91BF91D2
:10402000AF919F918F917F916F915F914F913F9150
:104030002F910F900FBE0F901F90189578941F929C
:104040000F920FB60F9211242F933F934F935F93CC
:104050006F937F938F939F93AF93BF93EF93FF9350
:104060002FB7F89433278091431C82608093431CC0
:104070002FBF0E944D1FFF91EF91BF91AF919F9174
:104080008F917F916F915F914F913F912F910F9001
:104090000FBE0F901F90189578941F920F920FB635
:1040A0000F9211242F933F934F935F936F937F93BE
:1040B0008F939F93AF93BF93EF93FF932FB7F89492
:1040C00033278091431C88608093431C2FBF0E943C
:1040D0004D1FFF91EF91BF91AF919F918F917F9174
:1040E0006F915F914F913F912F910F900FBE0F9065
:1040F0001F90189578941F920F920FB60F9211246B
:104100002F933F934F935F936F937F938F939F93DF
:10411000AF93BF93EF93FF932FB7F894332780911A
:10412000431C81608093431C2FBF0E944D1FFF9151
:10413000EF91BF91AF919F918F917F916F915F911F
:104140004F913F912F910F900FBE0F901F90189598
:1041500078941F920F920FB60F9211242F933F93D2
:104160004F935F936F937F938F939F93AF93BF937F
:10417000EF93FF932FB7F89433278091431C806807
:104180008093431C2FBF0E944D1FFF91EF91BF9161
:10419000AF919F918F917F916F915F914F913F91DF
:1041A0002F910F900FBE0F901F9018958091E614DD
:1041B0001D9B0CC08823A1F481E08093E61482E06B
:1041C0000E94CF0685E00E941D090895882341F0D2
:1041D0001092E61483E00E94CF0685E00E94360923
:1041E0000895CF93DF93EC018091F103882319F0B8
:1041F00085E090E024C0CE010E946111892B79F006
:10420000FE01319621813327322F22278981992778
:104210008062282B392B2983232F33272183D093A6
:104220004C15C0934B1510921D1510921C1581E072
:104230008093F1038FE00E94CF0680E090E0DF9151
:10424000CF9108952F923F924F925F926F927F92FB
:104250008F929F92AF92BF92CF92DF92EF92FF9296
:104260000F931F93CF93DF93CDB7DEB7CB54D040DE
:104270000FB6F894DEBF0FBECDBF26961FAE1EAEA2
:10428000269728961FAE1EAE28972A961FAE1EAE02
:104290002A972C961FAE1EAE2C977C011B016A013B
:1042A0008091FF1F909100209BAB8AAB8E01005F35
:1042B0001F4FC8010E946412BE01605E7F4FC8019B
:1042C0000E94080F882309F0F5C4BE01675D7F4F87
:1042D000C7010E94080F882309F0ECC4809167028F
:1042E000882319F084E090E00EC5F10184818F707D
:1042F000806684838091F203282F33273FAB2EAB57
:104300008F5F8093F2039091BD0A992309F4CEC484
:1043100080910F0AE82FFF27EE0FFF1FEB54F34E9B
:10432000408151815FAF4EAF1182108291509093C6
:10433000BD0A8F5F80930F0A833011F410920F0A29
:104340008EAD9FAD892B09F4B1C481E0EEADFFAD18
:1043500086831582138212821482D182C082CC2479
:10436000DD2492C48091341DE82FFF27EE0FFF1F3C
:10437000E05CF04E2081318124963FAF2EAF249730
:1043800011821082915090939F0F8F5F8093341D04
:104390008C3011F41092341D9091A00F992329F4C0
:1043A00022961FAE1EAE22971AC08091EC0CE82F09
:1043B000FF27EE0FFF1FEE5CFA4E408151812296DF
:1043C0005FAF4EAF22971182108291509093A00F51
:1043D0008F5F8093EC0C8C3011F41092EC0C2496CF
:1043E0008EAD9FAD2497009749F02296AEADBFAD3C
:1043F0002297AB2B91F40E94680F09C02296EEAD74
:10440000FFAD2297309719F0CF010E94870F81E00E
:10441000EEADFFAD858317E041C48E01005E1F4FF6
:10442000A8016AE770E022968EAD9FAD22970E94A8
:1044300058142C01C114D10409F022C3F101848164
:10444000807F803609F056C4D2018D93BDAFACAFEA
:10445000F201118292012E5F3F4F3DAB2CABA101C7
:104460004C5F5F4F5BAF4AAFF1016481758186811C
:1044700097810E949A047B018C012FEF3FEF4FE060
:1044800050E0E222F32204231523F10164817581B7
:10449000868197810E949A04B4E1969587957795D5
:1044A0006795BA95D1F7462FE114F104010511057E
:1044B000C9F4D2012C91662329F428612C93ACA86D
:1044C000BDA847C02061F2012083862F8295880F06
:1044D000880F807C46954695482B4283A3E0AA2E00
:1044E000B12C35C0862F99279C0123703070BC01F8
:1044F000F6E0660F771FFA95E1F75801CC24DD242A
:104500006F2C702E812E99242817390789F4D20137
:104510008C9188608C938A2D8F70862BF201828318
:10452000ECA9FDA96182E28255E0A52EB12C0FC055
:1045300046954695462BF20142838A2D8F70ECA951
:10454000FDA981836282E38246E0A42EB12CA40CF3
:10455000B51CEAADFBAD8681882361F08B3251F04A
:104560008C3241F08C3331F0873821F0893211F0F0
:10457000813129F4D2018C9184608C9303C0F501C0
:1045800081935F01EAADFBAD8781813021F4D201D7
:104590008C9181600CC0803429F4F20180818260AA
:1045A00080830AC08F3F29F4D2018C9183608C9361
:1045B00003C0F50181935F013CE0C32ED12CC20CF6
:1045C000D31C4E010894811C911CB401C6010E94A9
:1045D000641719820AA91BA9992774019E01205EFC
:1045E0003F4FAC01B601C5010E942E135C018981C9
:1045F0008295807FACADBDAD9C91892B8C93F101F0
:10460000848D2CE1C22ED12CC20CD31C8F3FB1F073
:10461000B401C6010E94641719820AA91BA999272F
:104620009E01275D3F4FAC01B601C5010E942E13CC
:104630007C01ACADBDAD8C91998160C01982F10156
:10464000848D958D8F5F924091F448E750E060E152
:1046500070E0C6010E94A60F892B49F4898183600E
:104660008983F6018785D5018D937D0142C048E697
:1046700050E060E170E0C6010E94A60F892B91F422
:10468000898182608983F6018181F5018193D60158
:104690001D9683E00D9001928150E1F794E0E92EA0
:1046A000F12C25C048E550E060E170E0C6010E94B1
:1046B000A60F892B91F4898181608983F60181811C
:1046C000F5018193D6011B9685E00D9001928150F2
:1046D000E1F786E0E82EF12C0AC0D501F60180E171
:1046E00001900D928150E1F700E1E02EF12CEA0CEF
:1046F000FB1C99819860ACADBDAD8C91892B8C93DE
:10470000E114F10409F4F6C2C7012296EEADFFAD43
:1047100022978E1B9F0B2AE730E0281B390B39AFFD
:1047200028AFF101D284AA24BB24D4C09E012E5FFD
:104730003F4F42E050E0B501F101828193810E9438
:104740002E02029709F0CDC28B81992728AD39AD91
:104750002817390708F4C5C280EED7018C93BCE254
:10476000DB1691F0BD1538F0DD20A9F0EBE2DE1686
:1047700009F0B7C207C0FCE3DF1641F027E8D21604
:1047800049F0AFC282EE03C084EE05C086EEF701A9
:10479000808303C088EED7018C93F101628073801F
:1047A00012E0812E912C8A0C9B1C9E012C5F3F4FA6
:1047B00042E050E0B501C3010E942E02029709F0C9
:1047C0007CC2DD2049F0FCE3DF1631F08D81880FDB
:1047D000880F880F885F30C0640184018D8199271C
:1047E000B3E0880F991FBA95E1F7089608171907E3
:1047F000DCF49E012A5F3F4F42E050E0B801C30164
:104800000E942E02029709F058C22E81222319F429
:104810000F5F1F4FE3CF8F8199270296080F191F53
:104820002130E1F26801DACF0A191B0908171907CC
:1048300009F057C28C2D8A199927082F882309F46B
:1048400050C2DA80DD2091F02BE2D21679F03CE202
:10485000D31661F04CE3D41649F057E8D51631F081
:1048600089E2D81619F091E1D91629F4D7018C9173
:1048700081608C9304C0D7011196F701D182FD01AC
:10488000018311270250104012969D01A801B40126
:10489000F101828193810E942E028017910709F015
:1048A00020C28B819927A3E0880F991FAA95E1F771
:1048B0000896D7012C9120952170FC01E20FF11D83
:1048C000EE0EFF1EA80EB91E28AD39AD281B390B00
:1048D00039AF28AFDD2009F429CF3BE2D31609F424
:1048E00025CF4CE2D41609F421CF5CE3D51609F4A8
:1048F0001DCF87E8D81609F419CF99E2D91609F423
:1049000015CFA1E1DA1659F5E8ADF9AD379708F4FE
:10491000E8C19E01285F3F4F48E050E0B501F1013A
:10492000828193810E942E02089709F0DAC180EFFC
:10493000D7018C9388859985AA85BB85F7018183EA
:104940009283A383B4838E859F859683858328E095
:1049500030E0A20EB31E47E050E0E40EF51EB7FCB7
:10496000C0C1F101F1852596FFAF2597F101F085D2
:104970002696FFAF269726960EAD1FAD26970A19ED
:104980001B09970122964EAD5FAD2297241B350B74
:104990008AE790E0821B930B8017910708F053C0C1
:1049A000A70144195509B201C20104960E94DE4FC5
:1049B00041145104C1F180ECD2018C93F101F185D5
:1049C0002796FFAF2797F101F0852896FFAF28972C
:1049D00028962EAD3FAD2897285D3F4F28963FAFD4
:1049E0002EAF2897377028964EAD5FAD2897485266
:1049F000504028965FAF4EAF2897832F9927806C41
:104A00008C93ACADBDAD2C93F2016081669566953B
:104A10006695683111F06C3131F4ACA9BDA91C92D6
:104A20002EA9FD01218344E050E0E40EF51EC701EC
:104A30002296AEADBFAD22978A1B9B0B0AE710E012
:104A4000081B190B087F9701A801B501F1018281AC
:104A500093810E942E028017910709F033C1085DEF
:104A60001F4F6501C00ED11E0852104097012296BB
:104A70004EAD5FAD2297241B350B200F311F90C028
:104A8000A8016AE770E022968EAD9FAD22970E9442
:104A900058147C01892B09F418C180EED7018C933E
:104AA000F101F1852996FFAF2997F101F0852A964A
:104AB000FFAF2A972A962EAD3FAD2A97285D3F4F2C
:104AC0002A963FAF2EAF2A9737702A964EAD5FAD2C
:104AD0002A97485250402A965FAF4EAF2A97832FAD
:104AE0009927806E8C93F70121838695869586950C
:104AF000883119F08C3109F0EBC0F70112822EA930
:104B0000238380818695869586958C3109F0E3C054
:104B1000C60173E0969587957A95E1F784839701AE
:104B20002B5F3F4FF101F1852B96FFAF2B97F101E2
:104B3000F0852C96FFAF2C972C960EAD1FAD2C97C1
:104B40000C191D09085D1F4FC90122964EAD5FADBE
:104B50002297841B950B4AE750E0481B590B4017DE
:104B6000510710F48A01087FB60168527040A8010D
:104B7000F101828193810E942E028017910709F032
:104B8000ADC0009709F49BC0C80ED91E97012296AC
:104B90004EAD5FAD2297241B350B0596280F391FAC
:104BA000822F8F5F2296AEADBFAD22978C931216E7
:104BB00013066CF022968EAD9FAD22970E94870F50
:104BC00024968EAD9FAD24970E94680F91C090915E
:104BD000F5039C3008F088C08091F403E82FFF278C
:104BE000EE0FFF1FEC5AF34E24962EAD3FAD2497E7
:104BF000318320838F5F8093F4038C3011F4109203
:104C0000F4039F5F9093F503EEADFFAD82818F5F5C
:104C1000828322962EAD3FAD22972496EEADFFAD56
:104C20002497338322834EAD5FAD5183408389A5A2
:104C30008370823059F48AA59BA58F5F9F4F31F412
:104C400028573F4FD9011D921C920CC02496EEADFF
:104C5000FFAD2497A281B381A857BF4F85E090E0B4
:104C60008D939C932496EEADFFAD2497A281B381E2
:104C7000A857BF4F87E690E0FD0193838283EEAD96
:104C8000FFAD86818F5F868390919F0F992309F0F6
:104C900069CB24961FAE1EAE24977ECB8EAD9FAD02
:104CA0000E94051084E10E94CF0601C017E0812F09
:104CB000992729C081E090E026C00FEFC2CD80E0A7
:104CC00090E01AC08DEF9FEF17C08BEF9FEF14C0DD
:104CD0008AEF9FEF11C089EF9FEF0EC08CEF9FEF1F
:104CE0000BC08EEF9FEF08C081E0EEADFFAD858376
:104CF00010E0D4CF8FEF9FEF8F5F2296AEADBFADA8
:104D000022978C9357CFC55BDF4F0FB6F894DEBF69
:104D10000FBECDBFDF91CF911F910F91FF90EF900C
:104D2000DF90CF90BF90AF909F908F907F906F90CB
:104D30005F904F903F902F9008950F931F93CF93C4
:104D4000DF93982F8B01BA012091B70A222319F41F
:104D5000C0E0D0E020C08091671FE82FFF27EE0F52
:104D6000FF1FE250F64FC081D18111821082215085
:104D70002093B70A8F5F8093671F833011F41092DE
:104D8000671F209741F0DE01F801389688E0019016
:104D90000D928150E1F7913011F080E004C0AE0136
:104DA000C8010E9422219927182F882329F02097D3
:104DB00019F0CE010E942510812F9927DF91CF9104
:104DC0001F910F9108956F927F928F929F92AF9251
:104DD000BF92CF92DF92EF92FF920F931F93CF93E8
:104DE000DF93CDB7DEB768970FB6F894DEBF0FBE7E
:104DF000CDBF8C01E090FF1FF090002080901F132A
:104E0000909020130E94580E298B3A8B4B8B5C8B11
:104E10006D8B7E8B8F8B988FDE011996FE017196BC
:104E200088E001900D928150E1F7DE011196FE01BC
:104E3000399688E001900D928150E1F769807A807F
:104E40007B816C815D814E813F812885D8018D9168
:104E50009C918E5F904809F045C080916002882344
:104E6000E9F0F8018285938580509F4FB9F4F801ED
:104E7000848595858E3F910589F4C184D0848FEF18
:104E80009DEFE822F922CE14DF0449F590E0F80105
:104E9000A784B684A814B904E9F01BC082E02827CF
:104EA000F80180858217D9F481858317C1F4828542
:104EB0008417A9F48385851791F48485861779F47E
:104EC0008585871761F48685871549F490E0878585
:104ED000861191E081E09827892F992723C080E0EF
:104EE00090E020C0D8018C918F3F69F420E030E041
:104EF000F801818199278F709070039714F421E055
:104F000030E0C9010FC0EE24FF2440E150E069E227
:104F100073E1C8010E94C84F892B19F441E0E42EC7
:104F2000F12CC70168960FB6F894DEBF0FBECDBF57
:104F3000DF91CF911F910F91FF90EF90DF90CF9075
:104F4000BF90AF909F908F907F906F900895EF9259
:104F5000FF920F931F93CF93DF93EB0180E68C8337
:104F600080E18B875CE1E52EF12CE60EF71E60E810
:104F700070E0C7010E949A178C01C7010E94E326C6
:104F8000882319F08C8D8F3F81F58C8D9D8D8E5FE0
:104F9000904851F08C8D8F3F59F5F7018181992709
:104FA0008F709070039724F50115110521F0F80119
:104FB000838987FD10C081E08B878C8D8F3F21F026
:104FC000AE01B70181E00DC040E050E0BE01C70175
:104FD0000E94222108C0B8016C5E7F4FAE01F8012B
:104FE00084A10E949D26992707C081E090E004C01B
:104FF0000115110581F7F9CFDF91CF911F910F9125
:10500000FF90EF9008956F927F928F929F92BF9240
:10501000CF92DF92EF92FF920F931F93CF93DF9384
:10502000CDB7DEB7C054D0400FB6F894DEBF0FBE88
:10503000CDBFB82E6B015A8349833C832B831E82DC
:105040001D82CE0101960E94D1014C0188E2FE0131
:10505000799611928A95E9F79DE0692E712C6C0E74
:105060007D1E88E0F30111928A95E9F7DE01D19661
:10507000F601329680E101900D928150E1F7CE0168
:1050800049960E94F912AB2DBB27FD01EE0FFF1FC1
:10509000E85CF04E80819181892B79F580916802DE
:1050A00090916902F6ED873D9F0718F020E537ECF7
:1050B00003C09C012F5F3F4F092F182F30936902C7
:1050C0002093680266C086ED273D380718F020E57A
:1050D00037EC02C02F5F3F4F032F122F5AC030937F
:1050E000690220936802FD01EE0FFF1FE85CF04E9D
:1050F00031832083232B09F465C0AA0FBB1FA85C52
:10510000B04E8D919C919E878D87F6018081918113
:10511000988B8F87C4010896E92EF82EFA8AE98ABF
:105120001C8A1B8A80E6898F81E18F8FFE8EED8E2F
:1051300078866F8288E090E09A878987CE01019611
:105140009C878B87F7E0EF2EF12CEC0EFD1EF88E7E
:10515000EF8AE9E1CE2ED12CCC0EDD1E41E1B70164
:10516000C6010E94F3028C0141E1B701C6010E9411
:10517000F302102F0027892F9927082B192B1C8B3E
:105180000B8BBE016B5E7F4F81E10E94A7279927A1
:105190001BC08091381F9091391F8017910709F427
:1051A00092CF80913A1F90913B1F8017910709F48D
:1051B0008ACF80913C1F90913D1F8017910709F085
:1051C0008ECF81CF81E090E0C05CDF4F0FB6F894C6
:1051D000DEBF0FBECDBFDF91CF911F910F91FF902A
:1051E000EF90DF90CF90BF909F908F907F906F90C7
:1051F0000895AF92BF92CF92DF92EF92FF920F93FA
:105200001F93CF93DF935C0182E0A816B104ECF109
:105210007B0121E0C22ED12C00E11AE0E701EA81F6
:10522000FB81EF0109900020E9F72197CE1BDF0BEE
:1052300082E090E0E80EF91ECE018F509A40800F78
:10524000911F813891058CF4AE01BF01C8010E9405
:10525000D54FF801EC0FFD1F80E281938F01089478
:10526000C11CD11CCA14DB04C9F68AE0E8018A9388
:105270008E010F5F1F4F00511A40980140E15AE024
:105280006DE67CE182E00E940328DF91CF911F91BF
:105290000F91FF90EF90DF90CF90BF90AF90089567
:1052A000CF93DF93A091D002B091D102FD01019084
:1052B0000020E9F73197EA1BFB0B9F01AD016DE67A
:1052C0007CE182E00E94032860E072E080E19AE0E5
:1052D0000E9400508091581F482F5527CA010496FC
:1052E0008D3791056CF469E57FE183E19AE00E94D6
:1052F000D54F8091581FA82FBB27AD5EB54F09C071
:105300008EE28093130A8093140A8093150AA6E113
:10531000BAE0FD018DE581938AE0ED018983EF50CC
:10532000FA409F0140E15AE06DE67CE182E00E9494
:105330000328DF91CF910895A0915E03B0915F03A0
:10534000FD0101900020E9F73197EA1BFB0B9F015B
:10535000AD016DE67CE182E00E9403280895CF92C2
:10536000DF92EF92FF920F931F93CF93DF93EB01A6
:10537000AA81BB81CD90DC901197FD018281938140
:10538000049700F18A858A33E9F4F60113821282C8
:1053900054E0E52EF12CE60EF71E4AE3BD01C701ED
:1053A0000E94F3028C016A817B814AE3C7010E945B
:1053B000F302102F0027892F9927082B192BF601AC
:1053C00013830283BE018AE30E94A7279927DF91F6
:1053D000CF911F910F91FF90EF90DF90CF900895A4
:1053E0002F923F924F925F926F927F928F929F92F5
:1053F000AF92BF92CF92DF92EF92FF920F931F93E3
:10540000CF93DF93CDB7DEB7A1970FB6F894DEBF89
:105410000FBECDBF1B861A861D861C861F861E8664
:10542000198A188A1B8A1A8A1D8A1C8A1F8A1E8A50
:10543000198E188E1B8E1A8E1D8E1C8E1F8E1E8E20
:105440004C015B016A0179014115510531F480E09D
:1054500090E020E030E01B8237C03327121613069D
:105460001CF080E090E0E4C3FA019081892F8295DE
:1054700086958695837009F4D6C3969596959695EC
:10548000983119F040E050E00AC024503040121624
:1054900013060CF0CBC3FA01349644E050E080814F
:1054A0008695869586958C3109F44860242F403185
:1054B00009F4B9C34B83822F99279C012470307063
:1054C00082FF02C004E001C000E083FD0B5F2223E5
:1054D00081F1C114D10491F1A114B10479F0F60164
:1054E0008081869586958695883111F08C3131F4CE
:1054F000F601A381B281F501B183A083A5014C5FC0
:105500005F4FE1F0D6012C91822F86958695869586
:10551000883111F08C3191F427703327322F2227F4
:10552000F60181819927282B392BDA012D933C93A1
:1055300005C081ED90E0F50195838483F5018481B8
:1055400095810E945303F50197838683009719F490
:105550008EEF9FEF70C32601400E511CE01AF10838
:10556000FA82E982F5014481558160E070E00E9491
:10557000F04FF50114861386D2018C91C680D78036
:10558000813481F409811A81015010400894411C32
:10559000511CA801B201C6010E94D54FF501268118
:1055A0003781FFC2F5010480F581E02DF987E88796
:1055B000282F3327C901807E90708036910509F02D
:1055C000F5C2A2014E5F5F4F59A348A31201089490
:1055D000211C311CF201818187FD05C066247724DE
:1055E0001D821C8212C0F2019281892F82958F70D8
:1055F000482F55275D834C83692E77245FE0652211
:105600007724C201039699A388A3C9018871907079
:1056100088309105C9F08031910521F0892B11F175
:1056200060E00EC0A8A1B9A18D91B9A3A8A3982F3D
:10563000990F990F682F6295669566956370692B2F
:10564000B0E0A0E020E022C0E8A1F9A18081682FAD
:105650006295669566956370282F2F70A181B2813F
:10566000339612C0A8A1B9A18C91982F990F990FC8
:10567000682F6295669566956370692BFD0121819F
:105680002F70A281B3813496F9A3E8A377278827E6
:10569000992714E1660F771F881F991F1A95D1F774
:1056A000332744275527A90133272227622B732B41
:1056B000842B952B2B2F332744275527622B732BB5
:1056C000842B952B2A2F332744275527542F432FDC
:1056D000322F22275066622B732B842B952B0E942E
:1056E0009A04D6016D937D938D939C931397F20149
:1056F000808182FD07C0A8A1B9A18D91B9A3A8A3FB
:10570000F6018683D2018C91992783709070823044
:10571000910539F08330910531F0019731F481E042
:1057200009C080E407C08FEF05C0A8A1B9A18D9181
:10573000B9A3A8A3F6018783F401E288F388D10115
:105740006C9162956F70840128A139A14C815D81B3
:10575000C60108960E941F1699A388A3892B09F4F5
:1057600025C2F1016081262F3327D601589623FFE9
:1057700054C080E1FD0111928A95E9F722FD16C21D
:10578000C9018370907081309105E9F082309105F4
:105790001CF4892B51F00AC28230910519F003974D
:1057A00069F104C203E010E010C0E8A1F9A180E1B2
:1057B00001900D928150E1F768A079A020E130E0DE
:1057C000620E731E39C005E010E08FEF8C9328A1A4
:1057D00039A1F90181919F01FD018183A01BB10BCA
:1057E000A801B901CD0140960E94D54F68A079A0CB
:1057F000600E711E0894611C711C1EC08FEF92E038
:10580000F601918F808FE8A1F9A18191F9A3E8A316
:10581000FD01878768A079A00FC0F401E288F388B2
:1058200029E030E0820E931E840128A139A1A30152
:10583000CD010E941F163C016114710409F4B6C128
:1058400028E2E22EF12CEC0CFD1CD2018C9182FF9F
:105850009BC1E885F985B897FF83EE8386010A5FCF
:105860001F4F4301F501F686E586D3018C91482F41
:105870005527CA01807F9070803E910509F092C043
:10588000CA018E70907084309105B9F08530910511
:1058900034F4009769F0029709F088C10CC0883091
:1058A000910579F08E30910581F0069741F07EC127
:1058B000F80110820DC08BE209C08CE203C08CE3BA
:1058C00005C087E8F801808303C089E2D8018C9382
:1058D000F301808180FF02C0D30106C0D30111967D
:1058E000F3018181F70180831D010894211C311C83
:1058F000FD01C1802C2D332739A328A327703070D8
:1059000088E090E0821B930B68E070E00E941F4FDC
:10591000D82E68A079A0680E711CC30102974E8131
:105920005F814817590708F441C10894211C311CB4
:1059300048A159A142505040B101C70102960E94AE
:10594000D54FD8018C91882311F08C33C9F4B1E084
:10595000DB1641F4E8A1F9A1EE0DFF1DF9A3E8A3C0
:1059600010820EC0F1E0FD1558F4E8A1F9A1EE0D8A
:10597000FF1D81E080832EEFD20ED18232E0D30E64
:10598000C30168E070E00E941F4F6150F70161831E
:1059900031016C0C711C6D0C711C2EEF3FEF620E0F
:1059A000731EBCC0CA01887F9070803F910509F0CA
:1059B000FDC00894611C711C81E1D8018C93F70132
:1059C0001582148217821682CA018370907081300A
:1059D000910599F1823091051CF4892B49F087C01B
:1059E0008230910509F44BC0039709F080C060C074
:1059F000F40121813327322F2227F3018181992756
:105A0000282B392B3A872B87EA85FB85D701ED9325
:105A1000FC93F30122813327322F22278381992798
:105A2000282B392B3C872D872C853D85F701338327
:105A3000228305E0602E712C1FC0F401818199271B
:105A4000982F8827F30121813327822B932B9E8760
:105A50008F87EE85FF85D701ED93FC93F30182815B
:105A60009927906F988B898B28893989F70133831F
:105A70002283B4E06B2E712C680C791C38C0F401C1
:105A800081819927906F9A8B8B8BEA89FB89D7014B
:105A9000ED93FC93F30121813327322F222782815A
:105AA0009927282B392B3C8B2D8B2C893D89DECFD8
:105AB000F401818182958F709927806B906F9E8B06
:105AC0008F8BEE89FF89D701ED93FC93F4018181DF
:105AD00099278F709070806B906F988F898F288D29
