:100000000C947F000C949E000C949E000C949E0017
:100010000C949E000C949E000C949E000C949E00E8
:100020000C949E000C949E000C949E000C949E00D8
:100030000C949E000C940A130C949E000C949C0A41
:100040000C94F2260C9428270C94530B0C945E0B02
:100050000C94690B0C949E000C949E000C949E00D2
:100060000C94B00A0C949E000C949E000C949E007C
:100070000C949E000C949E000C949E000C949E0088
:100080000C949E000C949E000C949E000C949E0078
:100090000C949E000C949E000C949E000C949E0068
:1000A0000C949E000C949E000C949E000C949E0058
:1000B0000C949E000C949E000C949E000C949E0048
:1000C0000C949E000C949E000C949E007A37AD37E1
:1000D000963F07382A3819393B399439C13BCC3B14
:1000E000DE3C043C193CE53C2F3D343D0E3E433E96
:1000F0007D3E853E9F3EF13E00020E060C0411241B
:100100001FBECFEFD1E2DEBFCDBF13E0A0E0B2E073
:10011000E6E3F2E900E00BBF02C007900D92A837BA
:10012000B107D9F71CE1A8E7B3E001C01D92A93CD3
:10013000B107E1F70E94C93F0C941A490C940000E2
:10014000FC0120E030E007C082819381280F391F35
:100150000480F581E02D3097B9F7C9010895FB01BE
:100160005183408333832283958384830895CF9280
:10017000DF92EF92FF920F931F93CF93DF938C0147
:10018000FB017A01690105C0E81BF90BE8010C814C
:100190001D81E8018A819B81E817F907A8F71CC037
:1001A000E8018A819B818E1B9F0BE7018E159F05BD
:1001B00008F4EC01D8018D919C91AE01B6018E0F2F
:1001C0009F1F0E943546CC0EDD1EEC1AFD0AE80189
:1001D0000C811D81E0E0F0E00115110519F01E14FD
:1001E0001F04F4F280E090E0DF91CF911F910F9116
:1001F000FF90EF90DF90CF9008954F925F926F92B3
:100200007F928F929F92AF92BF92CF92DF92EF92A6
:10021000FF920F931F93CF93DF938C014B015A01F1
:100220003901CC24DD2404C06C01F801048115815E
:100230000115110519F44424552436C0F8018281B2
:1002400093818C0D9D1D8816990670F744245524C2
:1002500028C07401EC18FD08F801828193818E1981
:100260009F09E5018A159B0508F4EC01F8016081FE
:1002700071816E0D7F1DAE01C3010E9435464C0E8B
:100280005D1EF801048115810115110569F0CE0C80
:10029000DF1CCC0EDD1E8C0E9D1EAC1ABD0A6C0E32
:1002A0007D1E1A141B04ACF2C201DF91CF911F9185
:1002B0000F91FF90EF90DF90CF90BF90AF909F9005
:1002C0008F907F906F905F904F900895EF92FF9284
:1002D0000F931F93CF93DF93FC0120E030E040E0C9
:1002E00050E0A0E0B0E02EC062817381611571051D
:1002F00031F1C081D18100E010E01EC0888100FD95
:100300000BC09927982F8827A82BB92BC8010196D5
:100310008617970771F403C09927A82BB92B7D0185
:10032000C701AA27BB27280F391F4A1F5B1FA0E060
:10033000B0E00F5F1F4F219606171707F9F60480EC
:10034000F581E02D309781F60BC0DA01C901A0706C
:10035000B0709A0144275527280F391F4A1F5B1F89
:10036000203080E0380781E0480780E0580768F7D0
:10037000C90180959095DF91CF911F910F91FF90CA
:10038000EF900895EF92FF920F931F93CF93DF9317
:10039000CDB7DEB76A970FB6F894DEBF0FBECDBFFC
:1003A000E42E08969A87898740E150E05C874B8766
:1003B0009E01215F3F4F3E872D874096988B8F8708
:1003C0005A8B498BCE0145969C8B8B8BCE01019627
:1003D0009E8B8D8B88E090E0988F8F8B7A8F698FC2
:1003E000CB010E94A000AA2797FDA095BA2FBC01BF
:1003F000CD010E94690369837A838B839C83FF24E8
:1004000000271127C801B7010E9469036D837E830D
:100410008F839887CE0109960E9466016A960FB66F
:10042000F894DEBF0FBECDBFDF91CF911F910F912A
:10043000FF90EF9008958CED95E090939C0380934E
:100440009B030895ABE9B3E004969C0121703070E2
:10045000280F391F02C0A40FB51F8D919C911197D1
:10046000AC015F704217530710F097FF06C0CD0133
:100470008B5993408C5D954074F389E0A737B8079A
:1004800018F080E090E00895C90102979C013F7048
:10049000306811963C932E93FD01E80FF91F481B1D
:1004A000590B5F7051834083CD0102960895CF931D
:1004B000DF939C01EBE9F3E0C0E0D0E006C080816F
:1004C00091819F70EF01E80FF91FCF01029682170B
:1004D000930739F0CF018B5993408C5D95407CF3A5
:1004E00027C0808191819C013F70DF01A20FB31F63
:1004F0009F7791838083CD018B5993408C5D95408C
:100500004CF48D919C9197FD05C09F70280F391F69
:1005100031832083209761F02881398137FD08C01D
:100520003F70808191819F70280F391F3983288304
:10053000DF91CF910895EBE9F3E040E050E00BC08C
:100540002081318137FD04C0C9019F70480F591FB8
:100550003F70E20FF31FCF018B5993408C5D9540A4
:100560007CF3CA0108956F927F928F929F92AF920F
:10057000BF92CF92DF92EF92FF920F931F93CF9390
:10058000DF93FB015A018B01040F151FDC01CC2402
:10059000DD2440E050E07AE398EF692E9FEF792E5A
:1005A000600E711E6E167F0608F460C0ED01E980D2
:1005B000FC9024E030E08FEF882E982ECCE0D0E045
:1005C000C401022E02C0969587950A94E2F78E1513
:1005D0009F0530F042305105B1F42031310599F4D6
:1005E000C7010C2E02C0969587950A94E2F7682FF2
:1005F0006F708F7090700A9718F4862F805D02C01C
:10060000862F895A81932C5F3F4F249724313105DF
:10061000B9F68D919C911197892B21F541155105C2
:1006200059F471938D919C911197892B19F441E0A4
:1006300050E002C042E050E087E0C816D10424F444
:100640004130510509F071930894C11CD11C1296D8
:1006500088E0C816D10409F0A5CF4130510531F426
:10066000719304C04130510539F7E4CF11920A1952
:100670001B09CF01801B910BDF91CF911F910F912F
:10068000FF90EF90DF90CF90BF90AF909F908F90B2
:100690007F906F900895DC018C918370823021F4FB
:1006A000FD012181328113C0833019F020E030E058
:1006B0000EC0FD01319620E030E0AD01475F5F4F95
:1006C00081919191280F391FE417F507C9F7C901E6
:1006D0000895EF92FF920F931F93FB01BC018827AF
:1006E00099272F2F3E2F44275527A901332722274B
:1006F000E72EF62E002711272E293F29402B512BBC
:10070000CA01B9011F910F91FF90EF9008959C01CC
:10071000DB01FC0104C08D91819341505040411593
:100720005105C9F7C90108958F929F92AF92BF9268
:10073000CF92DF92EF92FF920F931F93CF93DF93AD
:100740006C014B01892B09F4A3C06115710509F4F3
:100750009FC080E1EB0119928A95E9F7D60160E02C
:1007600070E090E046C02A3301F1822F80538A3036
:1007700030F4332727FD3095205330400EC0422FF0
:10078000552747FD50952154263020F49A012753D0
:10079000304003C09A012755304044E0660F771F70
:1007A0004A95E1F7622B732B0DC0E92FFF27EE0F5F
:1007B000FF1FE80DF91D072F162F118300839F5F80
:1007C00060E070E0FD013196ED012981222359F4AA
:1007D000E92FFF27EE0FFF1FE80DF91DE72EF62E7C
:1007E000F182E08255C08C918A3311F42A3341F0B2
:1007F000DF012C91222309F0B6CFFD0101C0319613
:1008000080818823E1F7DF01119760E070E017E055
:1008100090E03BC02C912A3311F1822F80538A3013
:1008200030F4332727FD3095205330400EC0422F3F
:10083000552747FD50952154263020F49A0127531F
:10084000304003C09A0127553040092E02C0220FC4
:10085000331F0A94E2F7622B732B9C5F0EC0E12FCB
:10086000FF27EE0FFF1FE80DF91DA72EB62EB18250
:10087000A082115060E070E090E01197FD0181814D
:100880008A3319F48C918A3319F0CA16DB0610F2F8
:10089000DF91CF911F910F91FF90EF90DF90CF905C
:1008A000BF90AF909F908F900895FC0171836083FB
:1008B00053834283358324830895CF92DF92EF924E
:1008C000FF920F931F93CF93DF938C016B01EE2464
:1008D000FF241AC0F80182819381E89EE001E99E1D
:1008E000D00DF89ED00D112480819181C80FD91FA1
:1008F000CE01F6010995FFEF8F3F9F0759F0019751
:1009000059F00894E11CF11CF80184819581E816E6
:10091000F90600F3C0E0D0E0CE01DF91CF911F9146
:100920000F91FF90EF90DF90CF900895EF92FF929C
:100930000F931F93CF93DF93EC017B0100E010E056
:1009400012C08A819B819C01029FC001039F900D70
:10095000129F900D112428813981820F931FF70176
:1009600009950F5F1F4F8C819D810817190748F368
:10097000DF91CF911F910F91FF90EF9008958FB766
:10098000F894992708958FBF089508952F923F9264
:100990004F925F926F927F928F929F92AF92BF928F
:1009A000CF92DF92EF92FF920F931F93CF93DF933B
:1009B000CDB7DEB7E0970FB6F894DEBF0FBECDBF60
:1009C00080912E0290912F02888B892F99278F87F3
:1009D0001E868FE48D878CE48C878DE68B8782E181
:1009E0008A871986DE019996FE01399688E0019082
:1009F0000D928150E1F7DE011196FE01B99688E073
:100A000001900D928150E1F7DE015196FE01319681
:100A100088E001900D928150E1F7DE019196FE0190
:100A2000719688E001900D928150E1F799A188A517
:100A300089A398A79AA18FA18AA39FA39BA18EA106
:100A40008BA39EA39CA18DA18CA39DA3DE0159968F
:100A5000FE01B19688E001900D928150E1F798A1D6
:100A6000298C3A8C4B8C5C8C6D8C7E8C8F8C222DDF
:100A7000332D442D552D662D772D882DE0960FB6FC
:100A8000F894DEBF0FBECDBFDF91CF911F910F91C4
:100A9000FF90EF90DF90CF90BF90AF909F908F909E
:100AA0007F906F905F904F903F902F900895AC0192
:100AB00020919009253018F081E090E00895809110
:100AC000BF12682F620F712D711DFB01653071051A
:100AD00008F03597EE0FFF1FE85AF54F518340831A
:100AE0002F5F2093900980E090E008950F931F936B
:100AF000CF93DF93DC019B014091C21C5091C31C3A
:100B00008D919C9111978E5F9048B9F5FD0182857A
:100B1000938580509F4FC1F4FD01848595858E3F5C
:100B2000910591F4018510855D7F04171507B9F5CE
:100B3000F90180818C7F82608083FD01C785D68525
:100B4000F901D283C18316C0F9018081836080835B
:100B5000E901FD013F96AD01495F5F4F808131970B
:100B600089832196E417F507C9F7F901808592E09A
:100B70008927808780E090E014C08C918F3F79F4C2
:100B8000FD0181818F70823051F4F90180818C7F69
:100B9000826080838FEF9FEF92838183EBCF81E030
:100BA00090E0DF91CF911F910F910895AC012091BA
:100BB000100F2C3018F081E090E008958091BF1A5A
:100BC000682F620F712D711DFB016C30710508F0EB
:100BD0003C97EE0FFF1FE955F34E518340832F5F83
:100BE0002093100F80E090E00895AC012091110F48
:100BF0002C3018F081E090E0089580916F0C682F00
:100C0000620F712D711DFB016C30710508F03C976E
:100C1000EE0FFF1FE852FD4E518340832F5F20935C
:100C2000110F80E090E00895AF92BF92CF92DF92D3
:100C3000EF92FF920F931F93CF93DF93FC019B01E1
:100C40007A0108E010E0CB0168E070E00E949D4569
:100C50005B016F01C60ED71EC90168E070E00E94FB
:100C60009D459801281B390BCFEFD0E0DE0102C073
:100C7000AA0FBB1F2A95E2F7CD01D6012C9128239C
:100C800029F5C70168E070E00E949D459B01E60FD1
:100C9000F71FC70168E070E00E949D45081B190B13
:100CA00002C0CC0FDD1F0A95E2F780818C2371F41E
:100CB000F601B50105C08191882341F46F5F7F4F34
:100CC00062177307C4F380E090E002C08FEF9FEFDC
:100CD000DF91CF911F910F91FF90EF90DF90CF9018
:100CE000BF90AF900895DC01FC018681815086831E
:100CF0008823C1F49091460A9330A0F48091A00912
:100D0000282F290F312D311DF9012330310508F02D
:100D10003397EE0FFF1FE05CF54EB183A0839F5F1A
:100D20009093460A0895282F9FB7F894E82FFF273D
:100D3000E65DF54F80818F3F81F4E091A01CE217C2
:100D400071F40BC02093281A04C0FF27E65DF54F0D
:100D500020832093A01C20E007C025E005C08091DF
:100D6000281A8F3F91F7EECF892F99278FBF822FB7
:100D700099270895AC012091400A233018F081E0B2
:100D800090E008958091C11C682F620F712D711D34
:100D9000FB016330710508F03397EE0FFF1FE65734
:100DA000F64F518340832F5F2093400A80E090E00C
:100DB000089520919009222319F440E050E016C0D4
:100DC0008091BF12E82FFF27EE0FFF1FE85AF54F63
:100DD00040815181118210822150209390098F5FB0
:100DE0008093BF12853011F41092BF12CA0108958A
:100DF000AC0120919903253018F081E090E008952E
:100E000080919803E82FFF27EE0FFF1FEB50FD4E58
:100E1000518340838F5F80939803853011F4109243
:100E200098032F5F2093990380E090E00895EF925C
:100E30000F931F93AE2D99E0899FF0011124E85E76
:100E4000FD4E40835183628373830483158326831D
:100E50003783A17080858E7F8A2B8260808781E0B6
:100E60000E9493061F910F91EF9008957FB7F89419
:100E70006091B2002091250A3091260A4091270AFC
:100E80005091280AB99B11C08091B3009091B20093
:100E9000280F311D411D511D2F5F3F4F4F4F5F4F99
:100EA000290F311D411D511D04C0260F311D411D4B
:100EB000511D872F99278FBFCA01B9010895AF929D
:100EC000BF92CF92DF92EF92FF920F931F93F82E73
:100ED0005A016B010E943607AB01BC01EE2496015A
:100EE00085018F2D0E9417071F910F91FF90EF90A2
:100EF000DF90CF90BF90AF9008952F923F924F9286
:100F00005F926F927F928F929F92AF92BF92CF9299
:100F1000DF92EF92FF920F931F93CF93DF93CDB7A2
:100F2000DEB729970FB6F894DEBF0FBECDBF6FB7FF
:100F30006983F8942090690C30906A0C40906B0C97
:100F400050906C0C662477248824FEE4AF2EE3E8EE
:100F5000BE2ECC24DD24EE24FF2400E010E0222D60
:100F6000332D442D552D662D772D882D90E00E9430
:100F700086422A833B834C835D836E837F8388878D
:100F80009987822E932EA42EB52E2401350100E2DE
:100F90000E948443A22EB32EC42ED52EA30192010B
:100FA00056954795379527952A0D3B1D4C1D5D1D80
:100FB00057FF05C05F772F5F3F4F4F4F5F4F209325
:100FC000690C30936A0C40936B0C50936C0CE98164
:100FD0008E2F99278FBFCA01B90129960FB6F894B1
:100FE000DEBF0FBECDBFDF91CF911F910F91FF905C
:100FF000EF90DF90CF90BF90AF909F908F907F90B9
:101000006F905F904F903F902F90089510928103C2
:101010008FEF9FEF90936502809364029093670235
:10102000809366029093420280934102E6E9FAE0DF
:10103000108277968CE0E236F807D1F70895FC012C
:10104000E458FF4F80819181089580917D03E82FBE
:10105000FF27EE0FFF1FED59F64E0190F081E02DB6
:1010600020917F03222351F08F5F80937D038C308A
:1010700011F410927D03215020937F03CF01089536
:10108000882319F08CB5806402C08CB58F7B8CBD31
:1010900008950F931F93982F1FB7F89480917B03A7
:1010A000823099F580913D02891779F580913B0254
:1010B00020E030E08F3F11F421E030E0232BF1F409
:1010C0009FEF90933D028F3F19F42FEF30E00DC05A
:1010D000282F3327F901E059F34F808180933B0299
:1010E0008F3F11F490933C0290832093BF0C81E0DA
:1010F00080937B038CE00E94930605C08FEF809362
:101100003D0210927B0301E001C000E0812F99278E
:101110008FBF1FB7F89480917B03882311F40E943E
:101120004008812F99278FBF90E0013009F491E0AA
:1011300081E09827892F99271F910F91089588237F
:1011400019F08CB5806802C08CB58F778CBD08957E
:101150000F931F9380E00E9440080FB7F894112767
:10116000229A2398219A209A8CB580618CBD80E0C8
:101170000E949F088CB5877F8CBD8CB58B7F8CBD02
:1011800081E00E9440088DB581608DBD8CB58C7F5B
:101190008CBD0FBF1F910F910895FC01828199278B
:1011A000982F882721813327822B932BB5E09695A2
:1011B0008795BA95E1F78170907008958FB7F8948C
:1011C000209114123091151240911612509117125D
:1011D000E0918400F0918500B09B08C02F5F3F4FE5
:1011E0004F4F5F4FE0918400F091850099278FBFAA
:1011F000C901772766279F0144275527622B732B48
:10120000842B952B0895FC01EC57FF4F8081816062
:101210008083089580589F4F0895FC018781992706
:10122000982F882726813327822B932B0895AC0192
:10123000EFB7F8942091840030918500C901841B98
:10124000950B03968617970720F0B9016D5F7F4FC6
:1012500002C0640F751F6115710511F461E070E043
:1012600061507040709389006093880082E086BB73
:1012700080916F00826080936F008E2F99278FBFBF
:101280000895EF92FF920F931F937C018FB7F8940C
:1012900099270091C6121091C7120F5E1E4F10932E
:1012A000C7120093C612015111408FBF88E00E94FF
:1012B0009306C801B7010E9489458A5D9E4F1F9120
:1012C0000F91FF90EF900895CF93DF93EC0120E012
:1012D0000FC0E22FFF27DE01AE0FBF1FE60FF71F83
:1012E0009C918081981719F080E090E005C02F5FF5
:1012F000241779F781E090E0DF91CF9108951F9353
:10130000982F1FB7F89480917903823099F58091D6
:101310003A02891779F58091380220E030E08F3F5A
:1013200011F421E030E0232BF1F49FEF90933A0287
:101330008F3F19F42FEF30E00DC0282F3327F9012C
:10134000E95AF54F8081809338028F3F11F49093D2
:10135000390290832093430A81E08093790383E0EC
:101360000E94930605C08FEF80933A021092790392
:1013700021E001C020E0812F99278FBF90E021302C
:1013800009F491E081E09827892F99271F9108950A
:10139000DF92EF92FF920F931F938FB7F894282F4D
:1013A0003327D22E9091B3008091B20047B39817A3
:1013B00011F041FF02C02FBF71C080914D0C8823F6
:1013C000E1F10E943607E0909A09F0909B090091A4
:1013D0009C0910919D092091D01A3091D11A409109
:1013E000D21A5091D31A6E197F09800B910B621794
:1013F00073078407950720F010924D0C71E01EC012
:101400002E0D3F1D401F511F8091250A9091260AE5
:10141000A091270AB091280A281B390B4A0B5B0BB5
:10142000273E31054105510540F4822F223010F04E
:1014300070E005C070E082E002C070E086EE682FC8
:1014400061508091B60083FDFCCF8091B200681797
:1014500009F46F5F2091250A3091260A4091270AEE
:101460005091280ADA01C9010196A11DB11D860F0C
:10147000911DA11DB11D82179307A407B50710F494
:10148000622F60958091B60083FDFCCF6093B3001E
:10149000DFBE772319F080E00E9493061F910F9121
:1014A000FF90EF90DF900895AFB7F894BB27E1E08D
:1014B000E0934D0C60939A0970939B0980939C096B
:1014C00090939D092093D01A3093D11A4093D21A49
:1014D0005093D31AAFBF0E94C8090895E82F272F51
:1014E000362F21153105D9F0882349F08091A11CB0
:1014F0009091A21C82179307E1F0E13049F08091AE
:10150000A31C9091A41C8217930799F0E23039F044
:101510008091A51C9091A61C8217930751F0FF277C
:10152000EE0FFF1FEF55F34E3183208380E090E0F4
:10153000089581E090E008951F920F920FB60F92E8
:1015400011248F938091B0008093B0008091B600F9
:1015500081FDFCCF8F910F900FBE0F901F901895BB
:101560001F920F920FB60F9211240F931F932F9378
:101570003F934F935F936F937F938F939F93AF931B
:10158000BF93CF93DF93EF93FF932EB5E091721249
:10159000F0917312309739F08091FE119091FF1104
:1015A000E80FF91F20838091FE119091FF110196A1
:1015B0009093FF118093FE1180E00E949F08C091DC
:1015C000FE11D091FF112091880930918909C2172D
:1015D000D30708F042C000916C1C10916D1C409123
:1015E000721250917312CE010A962817390708F427
:1015F000C901DA01AC0FBD1FF801EC0FFD1F9C0102
:101600002150304015C00115110531F080818EBD8B
:101610000DB407FEFDCF04C01EBC0DB407FEFDCF08
:101620008EB54115510509F08C932196119631968E
:10163000C217D30740F381E00E949F0801151105EE
:1016400031F00C0F1D1FF80180818EBD01C01EBC42
:10165000D093FF11C093FE1111C01092731210921B
:10166000721210926D1C10926C1C109289091092CB
:1016700088091092FF111092FE118EB5FF91EF9123
:10168000DF91CF91BF91AF919F918F917F916F919A
:101690005F914F913F912F911F910F910F900FBE2E
:1016A0000F901F90189578941F920F920FB60F927B
:1016B00011240F900FBE0F901F90189578941F92D1
:1016C0000F920FB60F9211240F900FBE0F901F9024
:1016D000189578941F920F920FB60F9211242F93A2
:1016E0003F938F939F93AF93BF932FB7F894332774
:1016F0008091141290911512A0911612B0911712A8
:101700000196A11DB11D8093141290931512A09300
:101710001612B09317122FBFBF91AF919F918F9167
:101720003F912F910F900FBE0F901F901895FC01C5
:101730003F968BE0DF011D928A95E9F73F9782E0A3
:1017400082871782168208958F929F92AF92BF92DE
:10175000CF92DF92EF92FF920F931F93CF93DF937D
:101760005C01EB016A01A901F7011082288139812E
:10177000F0E82E3F3F0709F08DC08A819B81892BBD
:1017800009F088C08C819D81892B09F083C08E81EE
:101790009F81892B09F07EC0288539852115310567
:1017A00091F48A859B85892B71F48C859D85892B85
:1017B00051F482E0F70180838E859F85F501819346
:1017C00091935F01DDC0C8019D7F892E982E281559
:1017D0003905B9F48A859B8580509F4F91F48C859B
:1017E0009D858E3F910569F4FA0180818370823076
:1017F00041F4A281B1818E859F858A179B07F1F5FF
:101800003BC0FA01808183708330C1F5DE011896F8
:101810009A012F5F3F4FF901878192E089279885D0
:10182000981761F5FD019181F9018681981731F5CD
:10183000FD019281F9018581981701F5FD019381E0
:10184000F90184819817D1F4FD019481F901838114
:101850009817A1F4FD019581F9018281981771F41F
:10186000FD019681F9018181981741F4FD0197816D
:10187000FA018181981711F483E072C081E0F701C9
:101880008083D501FE01389688E001900D92815049
:10189000E1F739C01C141D040CF043C084E0F701CB
:1018A0008083F0E8CF16D10431F487E0F70180831C
:1018B00080E090E063C040E750E0B601CE010E94B6
:1018C0001406892B61F4F7018081826080838E8504
:1018D0009F85F5019183808382E090E04FC040E4D2
:1018E00050E0B601CE010E941406F7012081892B39
:1018F00069F421602083D501FE01389688E00190CB
:101900000D928150E1F788E090E038C02B7FF7011D
:101910002083D501FE0180E101900D928150E1F715
:101920002BC0232B01F58A819B81892BE1F48C81CB
:101930009D81892BC1F48E819F81892BA1F488859B
:101940009985892B81F48A859B85892B61F48C8507
:101950009D85892B41F48E859F85892B21F484E018
:10196000F70180830DC0F7011082D501FE0180E1EF
:1019700001900D928150E1F780E190E0A80EB91E30
:10198000C501DF91CF911F910F91FF90EF90DF90F4
:10199000CF90BF90AF909F908F9008950F931F931B
:1019A000CF93DF93CDB7DEB722970FB6F894DEBFA3
:1019B0000FBECDBFBC01DA01AC014A5F5F4FFD0134
:1019C00081858370823049F4828593859A838983E7
:1019D000FB01978386838B010EC0CA018D01065FD0
:1019E0001F4F28E0F80101908F01FC010192CF0107
:1019F0002150C1F78A01085F1F4F8C91837082309C
:101A000051F4FD01818192819A838983F801819348
:101A10009193AF010FC09801CD01019648E0FC0100
:101A20000190CF01F90101929F014150C1F7A80136
:101A3000485F5F4F2C912370332730E4239F302D74
:101A4000222711242164FD01818583709927982F15
:101A50008827990F990F822B932BFB018183892F64
:101A600099278283FD018289FB018483FD0182899C
:101A70009389892F9927FB018583CA0122960FB686
:101A8000F894DEBF0FBECDBFDF91CF911F910F91B4
:101A900008954F925F926F927F928F929F92AF9232
:101AA000BF92CF92DF92EF92FF920F931F93CF934B
:101AB000DF93CDB7DEB760970FB6F894DEBF0FBEE9
:101AC000CDBFDC013A01A901280180E1FD0111929D
:101AD0008A95E9F777279B012370307062FD55C026
:101AE0002130310571F022303105C1F0232BE1F4B2
:101AF000FA0180E101900D928150E1F7405F5F4F64
:101B0000BEC08EEF90E811969C938E931896FA01C2
:101B100088E001900D928150E1F774C08EEF90E85B
:101B200011969C938E9371C08EEF90E811969C93C2
:101B30008E93F201808183708330A9F49D0167E068
:101B400070E08201085F1F4FF80180810150104052
:101B5000F9018087615070402F5F3F4FFFEF6F3F6B
:101B60007F0791F776C0C7019D7FC92ED82EFD0152
:101B7000D186C0868FEF83878EEF8487F201A280A3
:101B8000B180FD01B786A6867AC02115310509F41A
:101B900076C08E010F5F1F4F60E072E180E1FB01B4
:101BA0000190BF01F80101928F018150C1F780912E
:101BB0007803882391F0662081F4CD018E010F5FB8
:101BC0001F4F68E0F80101908F01FC010192CF01E5
:101BD0006150C1F780E490E002C080E090E02230E4
:101BE000310599F023303105C1F02130310519F06C
:101BF00040E050E044C01896FA0188E001900D9250
:101C00008150E1F7485F5F4F3AC0FA0181919191AD
:101C1000AF01FD019787868732C081349105FCF4BE
:101C2000F201808183708330E9F49D0167E070E008
:101C30008201085F1F4FF801808101501040F901B7
:101C40008087615070402F5F3F4FFFEF6F3F7F07EE
:101C500091F7FD01808592E08927808710C0813748
:101C600091056CF4189688E0FD0111928A95E9F7C8
:101C70001897F20182809180FD0197868686CA01BD
:101C800060960FB6F894DEBF0FBECDBFDF91CF9147
:101C90001F910F91FF90EF90DF90CF90BF90AF908A
:101CA0009F908F907F906F905F904F900895AF922C
:101CB000BF92CF92DF92EF92FF920F931F93CF9339
:101CC000DF936C015B018A01EE24FF2415C0F8014B
:101CD0008191C82FDD27AE01BF01C6010E942846B1
:101CE000892B29F4CC0DDD1D8881882359F00894B7
:101CF000E11CF11C055F1F4FEA14FB0444F39EEF47
:101D0000E92EF12CC701DF91CF911F910F91FF9028
:101D1000EF90DF90CF90BF90AF9008950F931F93F7
:101D2000CF93DF93CDB7DEB760970FB6F894DEBFE1
:101D30000FBECDBF9C018B01DE011196E0E0F2E108
:101D400080E101900D928150E1F780917803882322
:101D500071F048E050E0B901CE0101960E9428469A
:101D6000892B29F4F801108280E490E002C080E021
:101D700090E060960FB6F894DEBF0FBECDBFDF9146
:101D8000CF911F910F9108956F927F928F929F92A2
:101D9000AF92BF92CF92DF92EF92FF920F931F9379
:101DA000CF93DF93CDB7DEB768970FB6F894DEBF59
:101DB0000FBECDBF8C01E090C21CF090C31C809080
:101DC000FC119090FD110E94C604298B3A8B4B8B1D
:101DD0005C8B6D8B7E8B8F8B988FDE011996FE014D
:101DE000719688E001900D928150E1F7DE01119625
:101DF000FE01399688E001900D928150E1F76980EB
:101E00007A807B816C815D814E813F812885D801FC
:101E10008D919C918E5F904809F045C0809134026D
:101E20008823E9F0F8018285938580509F4FB9F4AB
:101E3000F801848595858E3F910589F4C184D0840D
:101E40008FEF9DEFE822F922CE14DF0449F590E0F0
:101E5000F801A784B684A814B904E9F01BC082E095
:101E60002827F80180858217D9F481858317C1F46A
:101E700082858417A9F48385851791F48485861754
:101E800079F48585871761F48685871549F490E094
:101E90008785861191E081E09827892F992723C0B3
:101EA00080E090E020C0D8018C918F3F69F420E061
:101EB00030E0F801818199278F709070039714F4B6
:101EC00021E030E0C9010FC0EE24FF2440E150E0E2
:101ED00060E072E1C8010E942846892B19F421E0D4
:101EE000E22EF12CC70168960FB6F894DEBF0FBE44
:101EF000CDBFDF91CF911F910F91FF90EF90DF90B9
:101F0000CF90BF90AF909F908F907F906F900895EB
:101F10008F929F92AF92BF92CF92DF92EF92FF92F9
:101F20000F931F93CF93DF934C01EB01AA24BB24A3
:101F300045E2E42E4FE0F42E87010351104033E0D8
:101F4000C32ED12CC00ED11EF801808180FF18C095
:101F5000F7018081882391F09927C817D9070CF4DD
:101F6000CE0168E070E00E949D45AB01B601C4015E
:101F70000E942846892B21F4209711F0C80111C036
:101F80000894A11CB11C85E290E0C80ED91E0B5D1F
:101F90001F4FE80EF91E94E1A916B104A9F680E0DE
:101FA00090E0DF91CF911F910F91FF90EF90DF9024
:101FB000CF90BF90AF909F908F900895CF92DF9277
:101FC000EF92FF920F931F93CF93DF936C01809159
:101FD0008103882311F180E090E006E91AE05AEECF
:101FE000E52E5FEFF52EE00EF11EEC0140E150E032
:101FF000B601C7010E942846892B21F4F80180818F
:10200000882369F4CE01019627E130E0E20EF31E49
:10201000095E1F4F8431910541F7C4E1D0E0CE0144
:10202000DF91CF911F910F91FF90EF90DF90CF90B4
:1020300008950F931F93CF93DF93CDB7DEB76097CB
:102040000FB6F894DEBF0FBECDBF8C01DE01119636
:10205000E0E0F2E180E101900D928150E1F740E192
:1020600050E0B801CE0101960E942846892B89F4E0
:1020700080918503882341F0809130029091310254
:1020800090934202809341028091410290914202DA
:1020900017C0C8010E94DE0F843119F484E392E175
:1020A0000FC0282F332787E190E0289FF001299F58
:1020B000F00D389FF00D1124E058F54F808991897B
:1020C00060960FB6F894DEBF0FBECDBFDF91CF9103
:1020D0001F910F910895DF92EF92FF920F931F933C
:1020E000CF93DF93CDB7DEB7D0908103DD2009F425
:1020F00046C000E010E060E8E62E6AE0F62E40E11F
:1021000050E0BE01665F7F4FC7010E942846892BC1
:1021100051F00F5F1F4F27E130E0E20EF31E043154
:10212000110569F1ECCF043151F1402F552787E1BA
:1021300090E0489FD001499FB00D589FB00D1124E9
:10214000A058B54F9E01265F3F4F87E1F9010190EE
:102150009F010D928150D1F787E190E0489FF001F7
:10216000499FF00D589FF00D1124E058F54F8AE07B
:1021700090E0958B848BD394D092810323C040E070
:1021800050E0E6E9FAE06D2D6F5F9091810320E069
:1021900030E08081882361F4F901E058F54FDE01D9
:1021A0001A9687E10D9001928150E1F7962F08C0B1
:1021B0004F5F5F4F295E3F4F77964431510549F796
:1021C00090938103DF91CF911F910F91FF90EF903A
:1021D000DF900895CF93DF93EC01A0E0B0E0E3E15E
:1021E000FFE09F0121503040B9016B5D7F4F4FEB05
:1021F00052E0808191818C179D0759F4C9010E949A
:102200003E468091D1118E7F8093D11180E090E085
:102210000DC01196455250406B5D7F4F2B5D3F4F77
:10222000B596A431B10529F781E090E0DF91CF9117
:1022300008959F92AF92BF92CF92DF92EF92FF925A
:102240000F931F93CF93DF936C018B015A01922E52
:10225000CB0187709070892B09F0A8C06138710597
:102260000CF0A4C0C6010E94880FEC01892B31F04C
:102270008B8999278017910709F47DC08091D1112E
:1022800080FD6FC0EE24FF24E5E2FFE0BF01635153
:102290007040DB01C0E0D0E08C91959680FF24C0B7
:1022A00080819927801791076CF00894E11CF11C3C
:1022B000A5966B5D7F4FB59684E1E816F10409F4AD
:1022C00050C0EACF83E190E08E199F0925E230E00B
:1022D000829FA001839F500D929F500D1124CE012B
:1022E000895C904F0E943E4685E290E0E89EF001B6
:1022F000E99EF00DF89EF00D1124EE5EF04F808106
:10230000816080832091320230913302A9014F5FB6
:102310005F4FA3E1BFE0FD0131978081B59680FF5B
:1023200008C08D919C9111978217930711F49A011F
:10233000EDCF959681E1E63FF80779F750933302A8
:102340004093320285E290E0E89EF001E99EF00DB4
:10235000F89EF00D1124EE5EF04F32832183EF01E1
:1023600002C0C0E0D0E00115110519F482E00E941E
:1023700093062097D9F00B8B9CA2C80168E070E00F
:102380000E949D45AB01B601CE0103960E943546E1
:10239000A114B10441F0DE015496F50180E10190F1
:1023A0000D928150E1F789819A8102C08FEF9FEFF2
:1023B000DF91CF911F910F91FF90EF90DF90CF9021
:1023C000BF90AF909F900895BF92CF92DF92EF920F
:1023D000FF920F931F93CF93DF93CDB7DEB7249770
:1023E0000FB6F894DEBF0FBECDBF6C017B01B42EDB
:1023F0009E012F5F3F4F42E050E00E94FD00029798
:1024000029F587010E5F1F4F13C09E012D5F3F4FBF
:1024100042E050E0B801C6010E94FD000297B1F40D
:102420008B818B15A9F08C8199270296080F191FB3
:1024300098012E193F098A81992773E0880F991F07
:102440007A95E1F7089628173907FCF20FEF1FEF8E
:10245000C80124960FB6F894DEBF0FBECDBFDF9142
:10246000CF911F910F91FF90EF90DF90CF90BF9091
:102470000895CF92DF92EF92FF920F931F93CF9325
:10248000DF93CDB7DEB722970FB6F894DEBF0FBE4D
:10249000CDBF6C017A0100E010E016C09E012F5FF5
:1024A0003F4F42E050E0B801C6010E94FD00029794
:1024B00009F569818A819927E3E0880F991FEA95D8
:1024C000E1F70896080F191FF70180818F3F59F433
:1024D000662321F36B3211F36C3201F36C33F1F2AA
:1024E0006738E1F203C08617C9F602C0F7016083BE
:1024F0006B3311F40FEF1FEFC80122960FB6F8945B
:10250000DEBF0FBECDBFDF91CF911F910F91FF9026
:10251000EF90DF90CF9008950F931F93CF93DF93A9
:10252000CDB7DEB760970FB6F894DEBF0FBECDBF54
:10253000FB0102976CF18E010F5F1F4FB801828182
:1025400093810E9494038091711281FD21C040E02B
:1025500054E060E070E089E00E945F07ABE8BCE116
:10256000F80180E101900D928150E1F78AE090E05E
:102570009093F4128093F3121092C01C1092BF1C1F
:1025800010926B1C10926A1C1092650A1092640AD9
:1025900060960FB6F894DEBF0FBECDBFDF91CF912E
:1025A0001F910F910895CF93DF93EC018A858130BD
:1025B00061F0813038F0833019F0843081F405C047
:1025C00084E001C081E08A870AC08E819F810097E4
:1025D00011F00E94570282E08A871F821E82DF91DB
:1025E000CF9108959C0180918103882319F481E0A3
:1025F00090E008956091680287E1689FB00111241E
:102600006058754F40E150E0C9010E94870380E0A7
:1026100090E008951F920F920FB60F9211242F93FE
:102620003F934F935F936F937F938F939F93AF935A
:10263000BF93EF93FF938091B0008093B00080919F
:10264000B60081FDFCCF8091B30099270196AA279F
:10265000BB272091250A3091260A4091270A5091E4
:10266000280A280F391F4A1F5B1F2093250A309321
:10267000260A4093270A5093280A78940E94C80992
:10268000FF91EF91BF91AF919F918F917F916F914A
:102690005F914F913F912F910F900FBE0F901F9020
:1026A0001895BC0182E08093C00C81E08093741285
:1026B00080918400909185000E94170908950F93DE
:1026C0001F93CF93DF93182F0FB7F89480917B035C
:1026D000882311F40E94A808802F99278FBF8FB7F5
:1026E000F894C82FDD272C2F80917B03882361F479
:1026F00081E080937B031093BF0C8CE00E949306D3
:10270000CFBF80E090E021C0E12FFF27E059F34FD9
:1027100080818F3F89F4E0913C02E11789F40CC07D
:1027200010933B0204C0FF27E059F34F108310932E
:102730003C0280E090E002C085E090E02FBF05C041
:1027400080913B028F3F79F7EBCFDF91CF911F91C3
:102750000F9108958FB7F894282F3327922F8091E7
:102760003D02882331F480917B03823011F42FBF26
:1027700013C09FBF8FB7F894282F332780917B0316
:10278000882369F482E080937B0310923D022FBF7F
:102790000E94A808209A289A81E090E008952FBF0F
:1027A00080E00E945F1380E090E0089580917B0AB2
:1027B000823031F481E080937B0A86E00E949306A8
:1027C00008958093D41A882311F484E001C081E035
:1027D00080937B0A86E00E9493060895CF93DF934F
:1027E000EC0180917A03882319F085E090E024C001
:1027F000CE010E941F08892B79F0FE0131962181BC
:102800003327322F2227898199278062282B392B61
:102810002983232F33272183D093F212C093F112FF
:102820001092C3121092C21281E080937A0384E066
:102830000E94930680E090E0DF91CF9108958F92FF
:102840009F92AF92BF92CF92DF92EF92FF920F933F
:102850001F93CF93DF93CDB7DEB7A8970FB6F89449
:10286000DEBF0FBECDBF8C01A090C21CB090C31CB8
:102870008090FC119090FD110E94C60429A33AA3F8
:102880004BA35CA36DA37EA38FA398A7DE015996EB
:10289000FE01B19688E001900D928150E1F7DE01D2
:1028A0001196FE01799688E001900D928150E1F732
:1028B000DE011996FE01319688E001900D9281505B
:1028C000E1F7DE015196FE01399688E001900D9204
:1028D0008150E1F780E1F80111928A95E9F78EEFD6
:1028E00090E8F8019183808380913402882399F0E5
:1028F000EB2CFA2CF186E08680E09FEF93878287AD
:102900008EEF90E095878487C92CD82CD786C68611
:1029100080858D7F13C0F80127E030E0DE015896F6
:102920008C91119780872150304031968FEF2F3F47
:102930003807B1F7F801808592E08927808781E028
:1029400090E0A8960FB6F894DEBF0FBECDBFDF9122
:10295000CF911F910F91FF90EF90DF90CF90BF909C
:10296000AF909F908F900895FC01808D9F01285F0C
:102970003F4F8F3F39F4818D99278F709070039767
:1029800054F00EC08E3F61F4818D9927807F907046
:10299000813891052CF4C9010E941F1499270895CC
:1029A000F901A0E0B2E180E10D9001928150E1F7E0
:1029B00080917803992708952F923F924F925F92CA
:1029C0006F927F928F929F92AF92BF92CF92DF923F
:1029D000EF92FF920F931F93CF93DF93CDB7DEB7A4
:1029E000CB54D0400FB6F894DEBF0FBECDBF2696B5
:1029F0001FAE1EAE269728961FAE1EAE28972A96AB
:102A00001FAE1EAE2A972C961FAE1EAE2C977C01D1
:102A10001B016A018091C21C9091C31C9BAB8AABC5
:102A20008E01005F1F4FC8010E941F14BE01605E2F
:102A30007F4FC8010E947605882309F0F5C4BE01C6
:102A4000675D7F4FC7010E947605882309F0ECC4BB
:102A500080913E02882319F084E090E00EC5F101D8
:102A600084818F708066848380917C03282F332734
:102A70003FAB2EAB8F5F80937C039091460A9923E6
:102A800009F4CEC48091A009E82FFF27EE0FFF1FA5
:102A9000E05CF54E408151815FAF4EAF11821082F4
:102AA00091509093460A8F5F8093A009833011F470
:102AB0001092A0098EAD9FAD892B09F4B1C481E0BD
:102AC000EEADFFAD86831582138212821482D1820D
:102AD000C082CC24DD2492C48091BF1AE82FFF2746
:102AE000EE0FFF1FE955F34E2081318124963FAF51
:102AF0002EAF24971182108291509093100F8F5F08
:102B00008093BF1A8C3011F41092BF1A9091110F5C
:102B1000992329F422961FAE1EAE22971AC08091E7
:102B20006F0CE82FFF27EE0FFF1FE852FD4E40818C
:102B3000518122965FAF4EAF229711821082915041
:102B40009093110F8F5F80936F0C8C3011F4109263
:102B50006F0C24968EAD9FAD2497009749F0229676
:102B6000AEADBFAD2297AB2B91F40E94D60509C044
:102B70002296EEADFFAD2297309719F0CF010E945B
:102B8000F50581E0EEADFFAD858317E041C48E0110
:102B9000005E1F4FA8016AE770E022968EAD9FADE0
:102BA00022970E94CE0C2C01C114D10409F022C33B
:102BB000F1018481807F803609F056C4D2018D9363
:102BC000BDAFACAFF201118292012E5F3F4F3DAB22
:102BD0002CABA1014C5F5F4F5BAF4AAFF101648149
:102BE0007581868197810E9469037B018C012FEF9B
:102BF0003FEF4FE050E0E222F32204231523F101DE
:102C000064817581868197810E946903A4E196950C
:102C1000879577956795AA95D1F7462FE114F1042A
:102C200001051105C9F4D2012C91662329F428610C
:102C30002C93ACA8BDA847C02061F2012083862F49
:102C40008295880F880F807C46954695482B428355
:102C5000F3E0AF2EB12C35C0862F99279C0123704D
:102C60003070BC01E6E0660F771FEA95E1F7580186
:102C7000CC24DD246F2C702E812E9924281739073F
:102C800089F4D2018C9188608C938A2D8F70862B69
:102C9000F2018283ECA9FDA96182E282B5E0AB2E4C
:102CA000B12C0FC046954695462BF20142838A2DE2
:102CB0008F70ECA9FDA981836282E382A6E0AA2E2F
:102CC000B12CA40CB51CEAADFBAD8681882361F064
:102CD0008B3251F08C3241F08C3331F0873821F057
:102CE000893211F0813129F4D2018C9184608C9366
:102CF00003C0F50181935F01EAADFBAD87818130AF
:102D000021F4D2018C9181600CC0803429F4F2014D
:102D10008081826080830AC08F3F29F4D2018C9128
:102D200083608C9303C0F50181935F01FCE0CF2E9B
:102D3000D12CC20CD31C4E010894811C911CB401EF
:102D4000C6010E948E0E19820AA91BA99927740137
:102D50009E01205E3F4FAC01B601C5010E94A40B4D
:102D60005C0189818295807FACADBDAD9C91892B42
:102D70008C93F101848DECE1CE2ED12CC20CD31CAE
:102D80008F3FB1F0B401C6010E948E0E19820AA9CC
:102D90001BA999279E01275D3F4FAC01B601C501D4
:102DA0000E94A40B7C01ACADBDAD8C91998160C03B
:102DB0001982F101848D958D8F5F924091F448E7DF
:102DC00050E060E170E0C6010E941406892B49F4CE
:102DD000898183608983F6018785D5018D937D0183
:102DE00042C048E650E060E170E0C6010E9414066F
:102DF000892B91F4898182608983F6018181F501B3
:102E00008193D6011D9683E00D9001928150E1F7E8
:102E100074E0E72EF12C25C048E550E060E170E059
:102E2000C6010E941406892B91F4898181608983EF
:102E3000F6018181F5018193D6011B9685E00D9005
:102E400001928150E1F766E0E62EF12C0AC0D5012F
:102E5000F60180E101900D928150E1F750E1E52EFD
:102E6000F12CEA0CFB1C99819860ACADBDAD8C9146
:102E7000892B8C93E114F10409F4F6C2C701229660
:102E8000EEADFFAD22978E1B9F0B2AE730E0281B8B
:102E9000390B39AF28AFF101D284AA24BB24D4C0A6
:102EA0009E012E5F3F4F42E050E0B501F10182816B
:102EB00093810E94FD00029709F0CDC28B81992772
:102EC00028AD39AD2817390708F4C5C280EED701FF
:102ED0008C93BCE2DB1691F0BD1538F0DD20A9F033
:102EE000EBE2DE1609F0B7C207C0FCE3DF1641F0E3
:102EF00027E8D21649F0AFC282EE03C084EE05C0C7
:102F000086EEF701808303C088EED7018C93F10130
:102F10006280738042E0842E912C8A0C9B1C9E015F
:102F20002C5F3F4F42E050E0B501C3010E94FD001D
:102F3000029709F07CC2DD2049F0FCE3DF1631F096
:102F40008D81880F880F880F885F30C084016401ED
:102F50008D81992733E0880F991F3A95E1F70896FC
:102F600008171907DCF49E012A5F3F4F42E050E04A
:102F7000B801C3010E94FD00029709F058C22E81DA
:102F8000222319F40F5F1F4FE3CF8F8199270296F9
:102F9000080F191F2130E1F26801DACF0A191B0965
:102FA0000817190709F057C28C2D8A199927082F7D
:102FB000882309F450C2DA80DD2091F02BE2D2168A
:102FC00079F03CE2D31661F04CE3D41649F057E8AF
:102FD000D51631F089E2D81619F091E1D91629F405
:102FE000D7018C9181608C9304C0D7011196F701B1
:102FF000D182FD01018311270250104012969D01DC
:10300000A801B401F101828193810E94FD00801723
:10301000910709F020C28B81992723E0880F991F1F
:103020002A95E1F70896D7012C9120952170FC0193
:10303000E20FF11DEE0EFF1EA80EB91E28AD39AD30
:10304000281B390B39AF28AFDD2009F429CF3BE22B
:10305000D31609F425CF4CE2D41609F421CF5CE352
:10306000D51609F41DCF87E8D81609F419CF99E2CF
:10307000D91609F415CFA1E1DA1659F5E8ADF9AD85
:10308000379708F4E8C19E01285F3F4F48E050E0C1
:10309000B501F101828193810E94FD00089709F03A
:1030A000DAC180EFD7018C9388859985AA85BB8585
:1030B000F70181839283A383B4838E859F85968352
:1030C000858328E030E0A20EB31E47E050E0E40E16
:1030D000F51EB7FCC0C1F101F1852596FFAF25971C
:1030E000F101F0852696FFAF269726960EAD1FAD0F
:1030F00026970A191B09970122964EAD5FAD2297BC
:10310000241B350B8AE790E0821B930B80179107F5
:1031100008F053C0A70144195509B201C201049631
:103120000E943E4641145104C1F180ECD2018C93BF
:10313000F101F1852796FFAF2797F101F0852896D9
:10314000FFAF289728962EAD3FAD2897285D3F4FBB
:1031500028963FAF2EAF2897377028964EAD5FADBB
:1031600028974852504028965FAF4EAF2897832F3C
:103170009927806C8C93ACADBDAD2C93F20160812E
:10318000669566956695683111F06C3131F4ACA99D
:10319000BDA91C922EA9FD01218344E050E0E40E5C
:1031A000F51EC7012296AEADBFAD22978A1B9B0BC1
:1031B0000AE710E0081B190B087F9701A801B50169
:1031C000F101828193810E94FD008017910709F02F
:1031D00033C1085D1F4F6501C00ED11E085210405B
:1031E000970122964EAD5FAD2297241B350B200F21
:1031F000311F90C0A8016AE770E022968EAD9FADA6
:1032000022970E94CE0C7C01892B09F418C180EE14
:10321000D7018C93F101F1852996FFAF2997F10130
:10322000F0852A96FFAF2A972A962EAD3FAD2A97B2
:10323000285D3F4F2A963FAF2EAF2A9737702A96C8
:103240004EAD5FAD2A97485250402A965FAF4EAFC1
:103250002A97832F9927806E8C93F7012183869577
:1032600086958695883119F08C3109F0EBC0F7010D
:1032700012822EA9238380818695869586958C312E
:1032800009F0E3C0C60103E0969587950A95E1F73A
:10329000848397012B5F3F4FF101F1852B96FFAFA0
:1032A0002B97F101F0852C96FFAF2C972C960EAD45
:1032B0001FAD2C970C191D09085D1F4FC9012296DF
:1032C0004EAD5FAD2297841B950B4AE750E0481B3B
:1032D000590B4017510710F48A01087FB601685254
:1032E0007040A801F101828193810E94FD00801746
:1032F000910709F0ADC0009709F49BC0C80ED91E14
:10330000970122964EAD5FAD2297241B350B059693
:10331000280F391F822F8F5F2296AEADBFAD229747
:103320008C93121613066CF022968EAD9FAD2297E9
:103330000E94F50524968EAD9FAD24970E94D60578
:1033400091C090917F039C3008F088C080917E03EB
:10335000E82FFF27EE0FFF1FED59F64E24962EADF6
:103360003FAD2497318320838F5F80937E038C3021
:1033700011F410927E039F5F90937F03EEADFFAD3B
:1033800082818F5F828322962EAD3FAD2297249655
:10339000EEADFFAD2497338322834EAD5FAD5183F5
:1033A000408389A58370823059F48AA59BA58F5FDD
:1033B0009F4F31F424583F4FD9011D921C920CC0ED
:1033C0002496EEADFFAD2497A281B381A458BF4FE0
:1033D00085E090E08D939C932496EEADFFAD24970D
:1033E000A281B381A458BF4F87E690E0FD0193838B
:1033F0008283EEADFFAD86818F5F86839091100F43
:10340000992309F069CB24961FAE1EAE24977ECB7C
:103410008EAD9FAD0E9473068DE00E94930601C0A1
:1034200017E0812F992729C081E090E026C00FEF97
:10343000C2CD80E090E01AC08DEF9FEF17C08BEFF8
:103440009FEF14C08AEF9FEF11C089EF9FEF0EC06E
:103450008CEF9FEF0BC08EEF9FEF08C081E0EEADC9
:10346000FFAD858310E0D4CF8FEF9FEF8F5F229663
:10347000AEADBFAD22978C9357CFC55BDF4F0FB674
:10348000F894DEBF0FBECDBFDF91CF911F910F919A
:10349000FF90EF90DF90CF90BF90AF909F908F9074
:1034A0007F906F905F904F903F902F9008950F9373
:1034B0001F93CF93DF93982F8B01BA012091400A7D
:1034C000222319F4C0E0D0E020C08091C11CE82F75
:1034D000FF27EE0FFF1FE657F64FC081D181118203
:1034E000108221502093400A8F5F8093C11C83304B
:1034F00011F41092C11C209741F0DE01F8013896BA
:1035000088E001900D928150E1F7913011F080E058
:1035100004C0AE01C8010E94DC149927182F88232B
:1035200029F0209719F0CE010E94BA06812F992721
:10353000DF91CF911F910F910895EF92FF920F931A
:103540001F93CF93DF93EB0180E68C8380E18B8721
:103550004CE1E42EF12CE60EF71E60E870E0C701A6
:103560000E94880F8C01C7010E94C40E882319F0A5
:103570008C8D8F3F81F58C8D9D8D8E5F904851F0A5
:103580008C8D8F3F59F5F701818199278F7090704D
:10359000039724F50115110521F0F801838987FDB2
:1035A00010C081E08B878C8D8F3F21F0AE01B70179
:1035B00081E00DC040E050E0BE01C7010E94DC1474
:1035C00008C0B8016C5E7F4FAE01F80184A10E9473
:1035D000571A992707C081E090E004C00115110532
:1035E00081F7F9CFDF91CF911F910F91FF90EF906D
:1035F00008956F927F928F929F92BF92CF92DF92A7
:10360000EF92FF920F931F93CF93DF93CDB7DEB767
:10361000C054D0400FB6F894DEBF0FBECDBFB82E59
:103620006B015A8349833C832B831E821D82CE010A
:1036300001960E94A0004C0188E2FE017996119249
:103640008A95E9F78DE0682E712C6C0E7D1E88E05E
:10365000F30111928A95E9F7DE01D196F6013296CF
:1036600080E101900D928150E1F7CE0149960E94D0
:10367000B414AB2DBB27FD01EE0FFF1FEF55F34E2A
:1036800080819181892B79F580913F029091400250
:10369000F6ED873D9F0718F020E537EC03C09C014D
:1036A0002F5F3F4F092F182F3093400220933F0286
:1036B00066C086ED273D380718F020E537EC02C0DC
:1036C0002F5F3F4F032F122F5AC030934002209399
:1036D0003F02FD01EE0FFF1FEF55F34E31832083B4
:1036E000232B09F465C0AA0FBB1FAF55B34E8D91B4
:1036F0009C919E878D87F60180819181988B8F8721
:10370000C4010896E92EF82EFA8AE98A1C8A1B8AD7
:1037100080E6898F81E18F8FFE8EED8E78866F82B5
:1037200088E090E09A878987CE0101969C878B87F5
:10373000E7E0EE2EF12CEC0EFD1EF88EEF8A79E11B
:10374000C72ED12CCC0EDD1E41E1B701C6010E946F
:10375000C2018C0141E1B701C6010E94C201102FD4
:103760000027892F9927082B192B1C8B0B8BBE0147
:103770006B5E7F4F81E10E949D1A99271BC080914B
:10378000A11C9091A21C8017910709F492CF8091FF
:10379000A31C9091A41C8017910709F48ACF8091F3
:1037A000A51C9091A61C8017910709F08ECF81CFA0
:1037B00081E090E0C05CDF4F0FB6F894DEBF0FBE33
:1037C000CDBFDF91CF911F910F91FF90EF90DF90D0
:1037D000CF90BF909F908F907F906F900895AF9201
:1037E000BF92CF92DF92EF92FF920F931F93CF93EE
:1037F000DF935C0182E0A816B104ECF17B0191E05B
:10380000C92ED12C01EA19E0E701EA81FB81EF0121
:1038100009900020E9F72197CE1BDF0B82E090E0B2
:10382000E80EF91ECE01805A9940800F911F813811
:1038300091058CF4AE01BF01C8010E943546F80124
:10384000EC0FFD1F80E281938F010894C11CD11CF5
:10385000CA14DB04C9F68AE0E8018A938E010F5F7F
:103860001F4F015A1940980141EA59E06CE779E18C
:1038700082E00E94F91ADF91CF911F910F91FF9082
:10388000EF90DF90CF90BF90AF900895A091350357
:10389000B0913603FD0101900020E9F73197EA1B52
:1038A000FB0B9F01AD016CE779E182E00E94F91A00
:1038B0000895A091A702B091A802FD0101900020F7
:1038C000E9F73197EA1BFB0B9F01AD016CE779E14A
:1038D00082E00E94F91A0895CF92DF92EF92FF9250
:1038E0000F931F93CF93DF93EB01AA81BB81CD9000
:1038F000DC901197FD0182819381049700F18A8504
:103900008A33E9F4F6011382128244E0E42EF12CAA
:10391000E60EF71E4AE3BD01C7010E94C2018C01F9
:103920006A817B814AE3C7010E94C201102F0027F0
:10393000892F9927082B192BF60113830283BE01C7
:103940008AE30E949D1A9927DF91CF911F910F91D1
:10395000FF90EF90DF90CF9008952F923F924F927B
:103960005F926F927F928F929F92AF92BF92CF920F
:10397000DF92EF92FF920F931F93CF93DF93CDB718
:10398000DEB7A1970FB6F894DEBF0FBECDBF1B8682
:103990001A861D861C861F861E86198A188A1B8A0F
:1039A0001A8A1D8A1C8A1F8A1E8A198E188E1B8EDF
:1039B0001A8E1D8E1C8E1F8E1E8E4C015B016A019D
:1039C00079014115510531F480E090E020E030E0CC
:1039D0001B8237C03327121613061CF080E090E0DC
:1039E000E4C3FA019081892F82958695869583702C
:1039F00009F4D6C3969596959695983119F040E0BE
:103A000050E00AC024503040121613060CF0CBC30D
:103A1000FA01349644E050E080818695869586953B
:103A20008C3109F44860242F403109F4B9C34B8329
:103A3000822F99279C012470307082FF02C004E01D
:103A400001C000E083FD0B5F222381F1C114D1048A
:103A500091F1A114B10479F0F601808186958695E3
:103A60008695883111F08C3131F4F601A381B28151
:103A7000F501B183A083A5014C5F5F4FE1F0D60152
:103A80002C91822F869586958695883111F08C3100
:103A900091F427703327322F2227F601818199274D
:103AA000282B392BDA012D933C9305C081ED90E052
:103AB000F50195838483F501848195810E9422021A
:103AC000F50197838683009719F48EEF9FEF70C3FB
:103AD0002601400E511CE01AF108FA82E982F50134
:103AE0004481558160E070E00E945046F5011486E3
:103AF0001386D2018C91C680D780813481F40981EC
:103B00001A81015010400894411C511CA801B201B7
:103B1000C6010E943546F50126813781FFC2F501B5
:103B20000480F581E02DF987E887282F3327C90124
:103B3000807E90708036910509F0F5C2A2014E5F3B
:103B40005F4F59A348A312010894211C311CF201B4
:103B5000818187FD05C0662477241D821C8212C0E6
:103B6000F2019281892F82958F70482F55275D83AE
:103B70004C83692E77245FE065227724C201039687
:103B800099A388A3C9018871907088309105C9F004
:103B90008031910521F0892B11F160E00EC0A8A1C0
:103BA000B9A18D91B9A3A8A3982F990F990F682F48
:103BB0006295669566956370692BB0E0A0E020E0A1
:103BC00022C0E8A1F9A18081682F6295669566956B
:103BD0006370282F2F70A181B281339612C0A8A1E3
:103BE000B9A18C91982F990F990F682F62956695BE
:103BF00066956370692BFD0121812F70A281B381CD
:103C00003496F9A3E8A377278827992714E1660F4C
:103C1000771F881F991F1A95D1F7332744275527F7
:103C2000A90133272227622B732B842B952B2B2F53
:103C3000332744275527622B732B842B952B2A2F50
:103C4000332744275527542F432F322F22275066DE
:103C5000622B732B842B952B0E946903D6016D93E5
:103C60007D938D939C931397F201808182FD07C011
:103C7000A8A1B9A18D91B9A3A8A3F6018683D20109
:103C80008C919927837090708230910539F0833040
:103C9000910531F0019731F481E009C080E407C05B
:103CA0008FEF05C0A8A1B9A18D91B9A3A8A3F60172
:103CB0008783F401E288F388D1016C9162956F707B
:103CC000840128A139A14C815D81C60108960E941A
:103CD000490D99A388A3892B09F425C2F1016081BC
:103CE000262F3327D601589623FF54C080E1FD01CB
:103CF00011928A95E9F722FD16C2C901837090706E
:103D000081309105E9F0823091051CF4892B51F046
:103D10000AC28230910519F0039769F104C203E0E9
:103D200010E010C0E8A1F9A180E101900D9281504E
:103D3000E1F768A079A020E130E0620E731E39C07F
:103D400005E010E08FEF8C9328A139A1F901819152
:103D50009F01FD018183A01BB10BA801B901CD0119
:103D600040960E94354668A079A0600E711E0894A6
:103D7000611C711C1EC08FEF92E0F601918F808F45
:103D8000E8A1F9A18191F9A3E8A3FD01878768A0C3
:103D900079A00FC0F401E288F38829E030E0820EB8
:103DA000931E840128A139A1A301CD010E94490DD0
:103DB0003C016114710409F4B6C108E2E02EF12C53
:103DC000EC0CFD1CD2018C9182FF9BC1E885F9852A
:103DD000B897FF83EE8386010A5F1F4F4301F50109
:103DE000F686E586D3018C91482F5527CA01807F3E
:103DF0009070803E910509F092C0CA018E7090705B
:103E000084309105B9F08530910534F4009769F05C
:103E1000029709F088C10CC08830910579F08E3086
:103E2000910581F0069741F07EC1F80110820DC026
:103E30008BE209C08CE203C08CE305C087E8F8017F
:103E4000808303C089E2D8018C93F301808180FFD5
:103E500002C0D30106C0D3011196F3018181F7019D
:103E600080831D010894211C311CFD01C1802C2D73
:103E7000332739A328A32770307088E090E0821B95
:103E8000930B68E070E00E949D45D82E68A079A051
:103E9000680E711CC30102974E815F814817590754
:103EA00008F441C10894211C311C48A159A1425079
:103EB0005040B101C70102960E943546D8018C914D
:103EC000882311F08C33C9F4B1E0DB1641F4E8A18A
:103ED000F9A1EE0DFF1DF9A3E8A310820EC0F1E0D9
:103EE000FD1558F4E8A1F9A1EE0DFF1D81E08083D6
:103EF0002EEFD20ED18232E0D30EC30168E070E023
:103F00000E949D456150F701618331016C0C711C69
:103F10006D0C711C2EEF3FEF620E731EBCC0CA0108
:103F2000887F9070803F910509F0FDC00894611C66
:103F3000711C81E1D8018C93F701158214821782DC
:103F40001682CA01837090708130910599F1823098
:103F500091051CF4892B49F087C08230910509F442
:103F60004BC0039709F080C060C0F4012181332762
:103F7000322F2227F30181819927282B392B3A8769
:103F80002B87EA85FB85D701ED93FC93F301228112
:103F90003327322F222783819927282B392B3C87DF
:103FA0002D872C853D85F70133832283A5E06A2E7A
:103FB000712C1FC0F40181819927982F8827F30164
:103FC00021813327822B932B9E878F87EE85FF8558
:103FD000D701ED93FC93F30182819927906F988B21
:103FE000898B28893989F70133832283E4E06E2E97
:103FF000712C680C791C38C0F40181819927906F6D
:104000009A8B8B8BEA89FB89D701ED93FC93F301A3
:1040100021813327322F222782819927282B392B80
:104020003C8B2D8B2C893D89DECFF40181818295DB
:104030008F709927806B906F9E8B8F8BEE89FF8995
:10404000D701ED93FC93F401818199278F709070D3
:10405000806B906F988F898F288D398DF70133830E
:1040600022830894611C711C42FD15C0D3012C9160
:104070003327322F2227F30181819927282B392BCF
:104080003A8F2B8F2A8D3B8DF7013783268342E0B1
:1040900050E0640E751E6114710409F444C0D4012B
:1040A0008C91282F3327C901807F9070803E910525
:1040B000D1F4D701F7018181992753E0880F991F27
:1040C0005A95E1F7E80EF91E48E050E0E40EF51EBF
:1040D00020FF17C0EE81FF81E81BF90B3897FF83A3
:1040E000EE838D017BCE287F3070203F310549F46F
:1040F00024E030E0E20EF31EF501F486E386E20EE2
:10410000F31EC3018419950909811A81081B190B33
:10411000A801B301C7010E9435469701200F311F46
:104120002115310541F4F501868197810E945702DE
:104130008DEF9FEF3DC0FB81F2FD08C0F501868148
:104140009781A901481B590B55834483F501A6812A
:10415000B7812A1B3B0B3187208784819581889703
:104160009C8F8D8F2C8D3D8DFD0135832483F50132
:10417000A385B485109789F0F501858596852681FC
:104180003781821B930B24813581281B390B3E8F8D
:104190002F8F2E8D3F8D2D933C9380E090E008C0B3
:1041A0008FEF9FEF05C084E090E0282F8B8340CCF9
:1041B000A1960FB6F894DEBF0FBECDBFDF91CF91B1
:1041C0001F910F91FF90EF90DF90CF90BF90AF9035
:1041D0009F908F907F906F905F904F903F902F9027
:1041E00008954F925F926F927F928F929F92AF92BB
:1041F000BF92CF92DF92EF92FF920F931F93CF93D4
:10420000DF938091C412882309F4AFC00E94AA13DF
:10421000882309F4AAC08FB7F8949927C0919E0902
:10422000D0919F098FBF1092C41228988FE88EBD3D
:104230000DB407FEFDCF8EB51EBC0DB407FEFDCF3D
:104240008EB5289A83FF91C090917D0A9430C1F574
:10425000289882E88EBD0DB407FEFDCF8EB51EBC3A
:104260000DB407FEFDCF0EB5289A007EC0917E0AE0
:10427000D0917F0ACE010E94CD08882391F0FE01E3
:10428000EC57FF4F003A21F080818260808309C0A3
:1042900080818D7F808385E08093461A10927D0A0D
:1042A00007C085E08093461A10927D0A003611F00F
:1042B00080E001C085E010927C0A0E94E11355C0A5
:1042C000992309F035C58830D1F5289887E88EBD47
:1042D0000DB407FEFDCF8EB51EBC0DB407FEFDCF9D
:1042E0009EB5289AE0911212F0911312DF01AC579B
:1042F000BF4F8C918B7F88608C93EB57FF4F9183DE
:104300000E94DE086B017C010091121210911312C1
:10431000C8010E940309C8010E940A09FC01CC19C6
:10432000DD09CE01AA2797FDA095BA2F8C0D9D1D02
:10433000AE1DBF1D80839183A283B38312C0E09121
:104340001212F0911312EC57FF4F8081877F808308
:10435000E0911212F0911312EC57FF4F80818E7F83
:10436000808389E080937D0AE3C490917D0A99233C
:1043700009F4C6C2993009F0BDC1289880E28EBD0B
:104380000DB407FEFDCF8EB51EBC0DB407FEFDCFEC
:104390008EB5482F5527433008F4CDC4842F992774
:1043A0008E3791050CF0C7C41EBCE0911212F0913B
:1043B00013124083642F6250673010F4962F01C0AF
:1043C00097E0AF014F5F5F4F292FFA010DB407FE51
:1043D000FDCF8EB51EBC81932150C1F79150FA01DB
:1043E000E90FF11D9F5F31968FB7F894282F33277F
:1043F00040E080917B19833008F441E02FBF4423D3
:1044000031F1691B962F06C00DB407FEFDCF8EB5A6
:104410001EBC81939150C0F70DB407FEFDCF8EB541
:104420001EBC0DB407FEFDCF8EB51EBC0DB407FE3D
:10443000FDCF8EB5E0911212F0911312EB57FF4FA2
:104440008083289A8091C412882331F075C40DB4FA
:1044500007FEFDCF8EB56FC4C0911212D09113121A
:10446000CC57DF4F8881C458D04080FF6BC4CE0149
:104470000E940A094C0108811127602F772767FDE8
:104480007095872F972F0E949A4407FF06C020E05F
:1044900030E040E853E40E9408442AEF3DEE4BEE42
:1044A00051E40E9426450E946C44645D7F4FCB011D
:1044B000AA27BB27F401E080F18002811381E81A6A
:1044C000F90A0A0B1B0BCE010E940309D401ED92DD
:1044D000FD920D931C93139735C4F40182812181C1
:1044E0009927982F88273327822B932B87749C7CBE
:1044F0008154984881F4C4010E940D092FB7F894A3
:10450000332740913502509136022FBF841795070B
:1045100011F4C45EDC4FD0931112C093101280913D
:10452000840090918500BE01681B790B1616170652
:10453000E4F480917C0A8823A9F490E080917412BD
:10454000882309F491E0992381F081E08093C00CE5
:104550008093741280918400909185000E941709C5
:1045600080E801C0806880937C0A74010894E11C93
:10457000F11CF401818520859927582F4427332782
:10458000422B532B8091290A282F3327F901EE0F54
:10459000FF1FED56F64E8081918170917512841740
:1045A000950769F4F901E556F34E8081871709F400
:1045B00067C0872F8F5F8093751280831DC010E0C6
:1045C00000E080E090E0C3E9D9E1EBE9FCE1DF0144
:1045D000682F9C01888199818417950779F420932D
:1045E000290A909175128C91891709F449C0892F75
:1045F0008F5F809375128C9310E829C08081972F6C
:10460000981B191710F4192F022F6F5FC90101961B
:1046100011962296319685309105D1F66530B9F420
:104620000093290AA02FBB27FD01EE0FFF1FED56B7
:10463000F64E51834083809175128F5F809375127F
:10464000FD01E556F34E8083AC53B34E1C9290911E
:104650007512892F8F778F3779F41F3768F0EBE960
:10466000FCE1292F207880818F6789132083319680
:10467000ACE1E03AFA07B9F78091290A282F3327ED
:10468000F7019281A22FBB27FD01EC53F34E8081ED
:1046900080FF07C0FD01E257F64E8081981729F18F
:1046A00002C081608083A257B64E9C93FFB6F894F7
:1046B00080917B198330B0F4E0913F1AE80FE3302A
:1046C00008F0E350FF27EE0FFF1FEF56F64F008173
:1046D0001181918280828F5F80937B1987E00E9495
:1046E000930648018F2D99278FBF909213128092C5
:1046F0001212F9C0892F8150833008F0C6C0815052
:10470000823098F48091461A813079F420E08091CB
:104710007412882309F421E0222339F02F988BE2C8
:1047200093E00E94511382E09AC0933009F074C064
:104730008091461A833009F094C00E94AA138823FE
:1047400009F46AC090E080917412882309F491E022
:10475000992309F461C028988FE88EBD0DB407FE37
:10476000FDCF8EB51EBC0DB407FEFDCF8EB5289AC9
:104770008091810080648093810080E286BB80917B
:104780006F00806280936F0090919709289888EC61
:104790008EBD0DB407FEFDCF8EB590669EBD0DB4E7
:1047A00007FEFDCF8EB5289A8FB7F89499272091F0
:1047B0003502309136028FBF289880EE8EBD0DB441
:1047C00007FEFDCF8EB52EBD0DB407FEFDCF8EB515
:1047D000289A289881EE8EBD0DB407FEFDCF8EB5C8
:1047E000832F99278EBD0DB407FEFDCF8EB5289A75
:1047F00085EA90E00E945113289882EC8EBD0DB49A
:1048000007FEFDCF8EB586E18EBD0DB407FEFDCF50
:104810008EB5289A84E023C080917D0A8150823031
:1048200000F58091461A8530E1F40E94AA1388238E
:10483000C1F0289882EC8EBD0DB407FEFDCF8EB579
:1048400083E08EBD0DB407FEFDCF8EB5289A809112
:104850006F008F7D80936F001092C41283E080936D
:10486000461A90917D0A913049F48091461A83301E
:1048700009F042C02F9A9093461A31C0923099F5B0
:104880008091461A8330C1F52AC0973061F50E94A5
:10489000AA13882341F190E080917412882309F4CF
:1048A00091E0992301F190919709289888EC8EBDA9
:1048B0000DB407FEFDCF8EB590669EBD0DB407FE0C
:1048C000FDCF8EB5289A8091461A853041F485EA4D
:1048D00090E00E94511384E08093461A04C088E05F
:1048E00080937D0A04C080917D0A883029F410925B
:1048F0007D0A85E00E94930680917D0A8823E9F471
:104900008091461A8530B1F48091C412882391F4C5
:1049100080917C0A882371F490E08091741288233E
:1049200009F491E0992331F00E94D61380917D0A19
:10493000882319F48AE00E949306809174128230D1
:1049400009F0E9C1109274128091C00C813021F0FD
:10495000823009F0E0C1B9C180911012909111121A
:10496000609184007091850020917C0A203829F4A0
:1049700010927C0A0E94D613CEC14C01861A970A67
:1049800027FF04C0181419040CF467C14090620A90
:104990005090630A80917D0A882309F05EC180915E
:1049A000461A853009F059C10E94AA13882309F4D8
:1049B00054C18091C412882309F04FC1E201CC5741
:1049C000DF4F888182FD02C090E00BC025E830E017
:1049D000420E531EF20191812BE73FEF420E531E10
:1049E0009F708091C512981781F09093C5122898F6
:1049F00085EC8EBD0DB407FEFDCF8EB590689EBDD3
:104A00000DB407FEFDCF8EB5289A289882EC8EBD96
:104A10000DB407FEFDCF8EB589E18EBD0DB407FE46
:104A2000FDCF8EB5289A0E94DE086B017C0188813B
:104A300084FD03C0E0E0F0E006C0D2018C91855017
:104A4000F201E80FF11D289881E88EBD0DB407FE34
:104A5000FDCF8EB51EBC0DB407FEFDCF8EB5289AD6
:104A60008F71893179F0289882EC8EBD0DB407FEE4
:104A7000FDCF8EB586E18EBD0DB407FEFDCF8EB5A0
:104A8000289AEBC08FB7F89499272F9A2091840029
:104A9000309185008FBF2F98289880E68EBDD20177
:104AA0009C910DB407FEFDCF8EB59EBD792F72503F
:104AB000773010F4672F01C067E0A2014F5F5F4FAE
:104AC000DA01962F0D910DB407FEFDCF8EB50EBD08
:104AD0009150C1F76150EA01C60FD11D6F5F219659
:104AE0002C193D09215E3E4F3901882477FC8094C2
:104AF000982C6C0C7D1C8E1C9F1C3097D1F1208152
:104B0000E1808281A3809927AA27BB27BA2FA92FEA
:104B1000982F8827332744275527522F4427332798
:104B20002227FF24002711278701FF24EE242E29A6
:104B30003F29402B512BBB24CC24DD242A293B299F
:104B40004C295D29822B932BA42BB52B8619970911
:104B5000A809B9098383292F3A2F4B2F5527228380
:104B60009D014427552721838B2F9927AA27BB27EF
:104B70008083972F961B07C028810DB407FEFDCFB9
:104B800021968EB52EBD9150B8F70DB407FEFDCF1E
:104B90008EB5289A289882EC8EBD0DB407FEFDCF05
:104BA0008EB586E18EBD0DB407FEFDCF8EB5289A79
:104BB0003097D1F12081E1808281A3809927AA27B3
:104BC000BB27BA2FA92F982F88273327442755278B
:104BD000522F442733272227FF240027112787013C
:104BE000FF24EE242E293F29402B512BBB24CC241B
:104BF000DD242A293B294C295D29822B932BA42BC8
:104C0000B52B860D971DA81DB91D8383292F3A2F1B
:104C10004B2F552722839D014427552721838B2F16
:104C20009927AA27BB278083C2010E940309C201DA
:104C30000E940A09FC0160827182828293825092F2
:104C40007F0A40927E0A86E08093461A84E0809331
:104C50007D0A83E080937C0A5EC020917C0A822FCB
:104C600099278F770197B1F42078226020937C0AEE
:104C700080E198E00E94410921E02093C00C20933C
:104C800074122091840030918500BC01C9010E94FA
:104C9000170941C027FF13C01814190484F480E8D1
:104CA00080937C0A81E08093C00C80937412809181
:104CB000840090918500B4010E94170902C01092EF
:104CC0007C0A85E00E94E11326C08091461A82305A
:104CD00021F483E08093461A1CC0843039F485E0C7
:104CE0008093461A88E080937D0A13C080917D0AE4
:104CF000863079F410927D0A289881E88EBD0DB433
:104D000007FEFDCF8EB51EBC0DB407FEFDCF8EB5E0
:104D1000289A0E94DE268FB7F894282F3327809197
:104D2000420A813019F181E08093420A2FBF69CA9B
:104D300090917D0A1FCB289A85E08093461A1092A5
:104D40007D0ADACD85E08093461A10927D0A809024
:104D5000121290901312C0918400D0918500C4016A
:104D60000E94CD08882309F4D6CBB7CB1092420A13
:104D70002FBFDF91CF911F910F91FF90EF90DF90A8
:104D8000CF90BF90AF909F908F907F906F905F90EB
:104D90004F9008958FB7F894282F33278091420AB7
:104DA00081508093420A803811F02FBF089581E02E
:104DB0008093420A2FBF0E94F12008958FB7F89484
:104DC000282F33278091420A882329F08068809316
:104DD000420A2FBF089581E08093420A2FBF0E94AC
:104DE000F120089578941F920F920FB60F9211241C
:104DF0002F933F934F935F936F937F938F939F93E3
:104E0000AF93BF93EF93FF93E6E8F0E08081918149
:104E1000208131818FB7F894992730939F0920938F
:104E20009E0921E02093C4128FBF0E94DE26FF91CD
:104E3000EF91BF91AF919F918F917F916F915F9112
:104E40004F913F912F910F900FBE0F901F9018958B
:104E500078941F920F920FB60F9211242F933F93C5
:104E60004F935F936F937F938F939F93AF93BF9372
:104E7000EF93FF9380916F008D7F80936F00789404
:104E80009FB7F89480917412813019F482E0809376
:104E90007412892F99278FBF0E94DE26FF91EF9110
:104EA000BF91AF919F918F917F916F915F914F9142
:104EB0003F912F910F900FBE0F901F9018951F9349
:104EC0008FB7F89499272091420A2F5F2093420AC6
:104ED0008FBF80917B0A882311F015E023C0809159
:104EE0007D0A8823E1F48091461A813049F490E0EC
:104EF00080917412882309F491E0992381F005C010
:104F0000853019F489E090E00CC083E080937D0A3D
:104F10000E94DE2685E080937B0A10E003C085E0D6
:104F200090E0182F0E94CA26812F99271F9108957B
:104F3000AF92BF92CF92DF92EF920F931F935B01DC
:104F40006C010E943607AB01BC01F1E0EF2E960127
:104F5000850187E00E9417071F910F91EF90DF9066
:104F6000CF90BF90AF900895AF92BF92CF92DF9253
:104F7000EF920F931F935B016C010E943607AB0108
:104F8000BC01A1E0EA2E9601850183E00E9417078B
:104F90001F910F91EF90DF90CF90BF90AF90089549
:104FA000EF92FF920F931F9380918A038823A9F1B8
:104FB00080913B128D7F80933B128091210A9091CA
:104FC000220AA091230AB091240AB695A795979535
:104FD000879580932B1A90932C1AA0932D1AB09337
:104FE0002E1A0E947D07E0902B1AF0902C1A009147
:104FF0002D1A10912E1AA80197010E94B0456E0D2E
:105000007F1D801F911F60932B1A70932C1A809321
:105010002D1A90932E1A0E94B4271F910F91FF9082
:10502000EF90089580913B128D7F80933B122091E9
:10503000510233272150304082E090E002C0880FB7
:10504000991F2A95E2F7AA2797FDA095BA2F80937A
:10505000210A9093220AA093230AB093240A109263
:105060004F0210928E030E94D0270895992727E1BE
:1050700030E0829FF001839FF00D929FF00D11248C
:10508000E058F54F168A8091810381508093810307
:10509000882311F40E9412280895409141025091F2
:1050A0004202209168023091690287E1289FF00155
:1050B0001124E058F54F2431310579F48FEF9FEF3B
:1050C0009093650280936402909342028093410220
:1050D00020914302309144023FC084899589909386
:1050E0006B0280936A0220916C0230916D0280897C
:1050F0009189820F931F90936502809364028217B7
:10510000930730F48FEF9FEF9093650280936402D2
:1051100080919A032091640230916502882359F0AE
:1051200010929A033093420220934102309344023A
:10513000209343020895C901309342022093410213
:1051400020914302309144028217930728F49093F0
:1051500044028093430208954817590748F5409147
:10516000450250914602821B930B4817590700F5E0
:10517000452BF1F08FEF9FEF909342028093410215
:105180009093440280934302809190039091910305
:10519000019690939103809390030E9406080E94C9
:1051A00012280895409381038EE00E94930608958B
:1051B000CF010E94DE0F582F409181036091410280
:1051C00070914202E0E8FAE020E030E0868988232E
:1051D00049F0808991898617970720F0168A4150F7
:1051E000521701F32F5F3F4F77962431310571F746
:1051F0004093810308957F928F929F92AF92BF92C6
:10520000CF92DF92EF92FF920F931F93CF93DF9392
:1052100047E95AE0FA01779720E030E003C0FA014D
:10522000495E5F4FE22E8689882359F42431310587
:1052300041F02F5F3F4F808991898F5F9F4F79F7B2
:105240002EC1248935894089518984E1E81611F5F8
:105250000FEF1FEF10936502009364021093670233
:105260000093660280919003909191030196909330
:105270009103809390030E9406080E941228809157
:105280006E0290916F020E94EA1010936F020093D9
:105290006E02ABC0CA01F3E0880F991FFA95E1F7DF
:1052A000BA01660F771F680F791F620F731FC091D5
:1052B0006802D09169027C2E87E1C89F8001112489
:1052C0000058154FF80186859785892BA1F08089B4
:1052D00091899C0153E0220F331F5A95E1F7880F03
:1052E000991F820F931F24893589280F391F309306
:1052F0006702209366028E2D99278C179D0721F453
:105300007093670260936602FE2CF394A09064028F
:10531000B090650297E1892E912CA0916602B09120
:10532000670239C0CF2CDD24C89CF001C99CF00D68
:10533000D89CF00D1124E058F54F8689882321F17F
:10534000408951899A01220F331FCA01880F991F82
:10535000880F991F880F991F280F391F84899589F5
:10536000280F391F2617370778F44A155B0560F4B4
:105370004F5F5F4F49F0CC16DD0611F0B90102C056
:10538000B901D901EF2C06C08E2D99278C179D07E6
:1053900009F4DB01F39483E18F1520F6B0936702E3
:1053A000A09366022E2D332787E190E0289FF0011D
:1053B000299FF00D389FF00D1124E058F54FC0895A
:1053C000D189EFEFCF3FDE0799F484E190E090932D
:1053D00069028093680280916E0290916F020E9430
:1053E000EA10D0936F02C0936E0280E090E05CC040
:1053F000AB01440F551FCB0123E0880F991F2A955D
:10540000E1F7480F591F4B5F5F4FCD01880F991F80
:105410009D01E3E0220F331FEA95E1F7820F931F0E
:105420004817590740F0109731F0F8018689882312
:1054300011F0BD01E72C70936702609366028E2D18
:105440009927909369028093680227E1829FE00187
:105450001124C058D54F21E0AE0160E070E080E03B
:1054600090E00E94191190936F0280936E02209138
:105470006D0C30916E0C8E859F852817390731F0A1
:1054800081E080939A0385E10E9493068E859F8533
:1054900090936E0C80936D0C81E090E005C0648960
:1054A00075896A50704003CFDF91CF911F910F91A2
:1054B000FF90EF90DF90CF90BF90AF909F908F9034
:1054C0007F9008956F927F928F929F92AF92BF923A
:1054D000CF92DF92EF92FF920F931F93CF93DF93C0
:1054E000CDB7DEB760970FB6F894DEBF0FBECDBF65
:1054F000482FDB018D909C90119780E1FE01319641
:1055000011928A95E9F78114910409F491C08EEF04
:1055100090E89A8389839E01275F3F4FB40188E01A
:10552000FB010190BF01F90101929F018150C1F778
:10553000413009F07AC0FD017380A4808091680237
:1055400027E1829FC00111248058954F0E94DE0FF1
:10555000682E209141023091420280913002909158
:1055600031022817390709F460C0EE24FF2406E948
:105570001AE08AEEC82E8FEFD82EC00ED11EBE2C98
:10558000F8018081882351F040E150E0BE016F5F57
:105590007F4FC6010E942846892B89F0B394089456
:1055A000E11CF11C87E190E0C80ED91E095E1F4F77
:1055B00094E1E916F10419F7E4E1BE16B1F12B2DDF
:1055C000332787E190E0289FF001299FF00D389F55
:1055D000F00D1124E058F54F24893589220F331F2F
:1055E000220F331F6A2D77278AE0789EC00111248D
:1055F0000E949D45260F371FC901880F991F6AE039
:1056000070E00E948945758B648B6F31710558F08D
:105610008B2D0E943628B61431F4809181038823A3
:1056200011F00E94FB280E944D28C4010E94BA0676
:1056300060960FB6F894DEBF0FBECDBFDF91CF915D
:105640001F910F91FF90EF90DF90CF90BF90AF90A0
:105650009F908F907F906F9008954F925F926F927E
:105660007F928F929F92AF92BF92CF92DF92EF92F2
:10567000FF920F931F93CF93DF93CDB7DEB726979B
:105680000FB6F894DEBF0FBECDBF3B014C014424E2
:10569000552468E172E1FB01A084A1FE26C22081AD
:1056A000318142815381E480F58006811781D401E4
:1056B000C301821B930BA40BB50B8E159F05A0078E
:1056C000B10708F412C2A0FE05C0FDEFAF22FB0136
:1056D000A08609C02E0D3F1D401F511FFB012083D6
:1056E000318342835383F4E04F1609F4ADC0F415BF
:1056F00078F081E0481609F46DC0481618F192E080
:10570000491609F469C0E3E04E1609F0F8C16BC010
:10571000F7E04F1609F4A4C0F41548F085E04816E8
:1057200009F494C096E0491609F0E9C197C0E8E091
:105730004E1629F0F9E04F1609F0E1C118C1EE2428
:10574000FF240EC18091C10C882349F440E058E247
:1057500060E070E00E945F0781E08093C10C80915F
:10576000660A9927982F88272091670A3327822B6A
:10577000932B01968093670A892F99278093660A55
:1057800080912E0290912F028093690A892F992788
:105790008093680A8AE080936B0A10926A0AACE6EA
:1057A000BAE0EEE4FCE089E001900D928150E1F76F
:1057B0008FB7F894992722B132E0232722B98FBFFF
:1057C00025E130E046E65AE067E57CE081E00E94B2
:1057D000F91A95C184E035C063ED72E186EF91E17D
:1057E0000E9496048CC180918703882331F1109226
:1057F000870390918E03809150029817B8F49F5FB1
:1058000090938E038091210A9091220AA091230AFD
:10581000B091240A880F991FAA1FBB1F8093210AE9
:105820009093220AA093230AB093240A80913B12FA
:1058300081FD65C10E94D02762C18FE00E9493065E
:1058400083E10E9493065BC180E1FBCF80918D03D1
:105850008F5F80938D030E94122851C184E1F1CFA4
:105860000E947D077B018C01A0905802B0905902E4
:10587000C0905A02D0905B0285E10E9493060027F7
:105880001127C601B5012AE030E040E050E00E9457
:10589000B045C801B7010E94B045A60EB71EC81E8C
:1058A000D91EC601B5010E94982729C1812F9927C9
:1058B000FC01EE0FFF1FE80FF91FEE0FFF1FE95B62
:1058C000F54E82819381A481B5812091600230914F
:1058D00061024091620250916302821B930BA40B00
:1058E000B50B82839383A483B583281739074A07AE
:1058F0005B0798F1808191810E94EA106091950385
:10590000462F55274150504013C0C901880F991F99
:10591000820F931F880F991FDC01A95BB54EFC0114
:10592000E35BF54E86E001900D928150E1F71F5F39
:10593000212F33272417350744F3FA01EE0FFF1FF9
:10594000E40FF51FEE0FFF1FE95BF54E1282138285
:10595000148215826150609395030894E11CF11C38
:105960001E2D80919503E81608F4A0CFC8C0E090E2
:10597000BF1CF090C01C8091F3129091F412E816B5
:10598000F90689F520916A1C30916B1C8091640A9C
:10599000882319F53F932F93FF92EF928091F002A5
:1059A0009091F1029F938F9380E890E09F938F9363
:1059B00001EA19E01F930F930E9457469C01A8012A
:1059C0006CE779E182E00E94F91A8DB79EB70A96DA
:1059D0000FB6F8949EBF0FBE8DBF809171128D7F60
:1059E000809371128CC088E390E00E9422028C01A7
:1059F000892B09F470C0045D1F4F1A8309830C5270
:105A000010408CE090E09C838B831E821D82CE012F
:105A10000196F8019383828380E884A715A64EE25D
:105A2000642E712C600E711E3FE2832E912C800E2D
:105A3000911E17A616A68091640A9091650A81AB03
:105A4000892F992780ABE3AA8F2D992782AB0E94DB
:105A50003607F80167AB272F382F492F552726AB7C
:105A60009C014427552725AB692F7727882799273D
:105A700064AB34E0E32EF12CE00EF11E88E2F70176
:105A800011928A95E9F780E6F80184838AE3828798
:105A9000CC80DB80D186C0867C96ABE8BCE180E11F
:105AA0000D9001928150E1F7C7010E94B414F801F2
:105AB000628173814AE3C7010E94C201F4018083BD
:105AC000892F9927F3018083B80181E80E946C1C1B
:105AD000C8010E9457028091BF1C9091C01C019682
