:100000000C94AC010C94CB010C94CB010C94CB015F
:100010000C94CB010C94CB010C94CB010C94CB0130
:100020000C94CB010C948D160C94CB010C94CB0149
:100030000C94CB010C94CB010C94CB010C94CB0110
:100040000C9492060C9474060C947E060C9488060C
:100050000C9451060C94CB010C94CB010C94CB0165
:100060000C94CB010C94D0060C94CB010C94E206BA
:100070000C94CB010C94EB130C94CB010C94CB019E
:100080000C94CB010C94CB010C94CB010C94CB01C0
:100090000C94E2080C94CB010C94EE090C94CB0167
:1000A0000C94CB010C94CB010C94CB010C94CB01A0
:1000B0000C94CB010C94CB010C94CB010C94CB0190
:1000C0000C94CB010C94CB010C94CB010C94CB0180
:1000D0000C94CB010C94CB010C94CB010C94CB0170
:1000E0000C94CB010C94CB010C94CB010C94CB0160
:1000F0000C94CB010C94CB010C94CB010C94CB0150
:100100000C94CB010C9428030C94DA040C9446054F
:100110000C94D3010C94CB010C94CB010C94CB0127
:10012000FE1D311EB91ED31E361F661F821F901F73
:100130009E1F81208B208D209B20C220FE205321DA
:1001400089211C22C123CD233E24152518253825BD
:10015000B22600002110422063308440A550C660C2
:10016000E770088129914AA16BB18CC1ADD1CEE174
:10017000EFF13112100273325222B5529442F772EB
:10018000D662399318837BB35AA3BDD39CC3FFF3C4
:10019000DEE36224433420040114E664C774A444FB
:1001A00085546AA54BB528850995EEE5CFF5ACC514
:1001B0008DD55336722611163006D776F6669556CB
:1001C000B4465BB77AA719973887DFF7FEE79DD764
:1001D000BCC7C448E5588668A7784008611802285B
:1001E0002338CCC9EDD98EE9AFF9488969990AA9B4
:1001F0002BB9F55AD44AB77A966A711A500A333A2B
:10020000122AFDDBDCCBBFFB9EEB799B588B3BBB03
:100210001AABA66C877CE44CC55C222C033C600CBA
:10022000411CAEED8FFDECCDCDDD2AAD0BBD688D53
:10023000499D977EB66ED55EF44E133E322E511E0A
:10024000700E9FFFBEEFDDDFFCCF1BBF3AAF599FA3
:10025000788F8891A981CAB1EBA10CD12DC14EF143
:100260006FE18010A100C230E320045025404670A9
:100270006760B9839893FBA3DAB33DC31CD37FE3D4
:100280005EF3B1029012F322D232354214527762F9
:100290005672EAB5CBA5A89589856EF54FE52CD5A4
:1002A0000DC5E234C324A014810466744764245449
:1002B0000544DBA7FAB79987B8975FE77EF71DC7B4
:1002C0003CD7D326F2369106B01657667676154699
:1002D00034564CD96DC90EF92FE9C899E9898AB904
:1002E000ABA94458654806782768C018E1088238E9
:1002F000A3287DCB5CDB3FEB1EFBF98BD89BBBAB14
:100300009ABB754A545A376A167AF10AD01AB32A38
:10031000923A2EFD0FED6CDD4DCDAABD8BADE89D63
:10032000C98D267C076C645C454CA23C832CE01C88
:10033000C10C1FEF3EFF5DCF7CDF9BAFBABFD98FF3
:10034000F89F176E367E554E745E932EB23ED10ED8
:10035000F01E00020E060C0411241FBECFEFD1E4E4
:10036000DEBFCDBF12E0A0E0B2E0EEEDFAE500E0C6
:100370000BBF02C007900D92A635B107D9F710E167
:10038000A6E5B2E001C01D92AB33B107E1F70E94D0
:10039000F4270C946E2D0C9400008FB7F8949927D5
:1003A00008958FBF08951F920F920FB60F921124D8
:1003B0008F93809124058F5F809324058F910F90F8
:1003C0000FBE0F901F901895282F9FB7F894E82F15
:1003D000FF27EA55FC4F80818F3F81F4E091280B85
:1003E000E21771F40BC02093130604C0FF27EA55EF
:1003F000FC4F20832093280B20E007C025E005C098
:10040000809113068F3F91F7EECF892F99278FBFE9
:10041000822F99270895EF92FF920F931F937FB732
:10042000F894609124052091E100822F2091E20050
:10043000922F2091E300A22F2091E400B22F9C0183
:10044000AD018091E00083FF0FC06F5F8091E100FC
:10045000E82E8091E200F82E8091E300082F809131
:10046000E400182FA8019701872F99278FBF7727BE
:1004700088279927FAE1660F771F881F991FFA9539
:10048000D1F7E6E05695479537952795EA95D1F748
:10049000622B732B842B952B1F910F91FF90EF9064
:1004A00008956F927F928F929F92AF92BF92CF9258
:1004B000DF92EF92FF920F931F930E940B027B013A
:1004C0008C012091F4043091F5044091F604509190
:1004D000F7048091EF049091F004A091F104B091A1
:1004E000F204820F931FA41FB51FE216F306040740
:1004F000150730F082179307A407B50758F005C019
:1005000082179307A407B507E0F5E816F9060A076E
:100510001B07B8F59C01AD012E193F09400B510B8B
:10052000213060E0360760E0460762E0560768F178
:1005300080E090E0A0E0B2E0E80EF91E0A1F1B1F69
:10054000E092F404F092F5040093F6041093F7049B
:1005500080E090E0A0E0BEEFE80EF91E0A1F1B1F2E
:1005600020503040404052402093EF043093F0043C
:100570004093F1045093F20420E030E040E052E078
:1005800014C020E030E040E050E08093F404909309
:10059000F504A093F604B093F7041092EF041092C0
:1005A000F0041092F1041092F20439014A01B6E00D
:1005B000660C771C881C991CBA95D1F7A6E0EE0C46
:1005C000FF1C001F111FAA95D1F78091E100A82EF2
:1005D0008091E200B82E8091E300C82E8091E40063
:1005E000D82EA60195012E5F3F4F4F4F5F4FDA0186
:1005F000C9018E199F09A00BB10B86159705A80597
:10060000B90530F4A8019701260D371D481D591D65
:100610005093F8004093F7003093F6002093F500D4
:1006200081E08093E0008091DF0081608093DF00B3
:100630008FEF809317021F910F91FF90EF90DF9043
:10064000CF90BF90AF909F908F907F906F900895C4
:100650001F920F920FB60F9211242F933F934F9337
:100660005F936F937F938F939F93AF93BF93EF931A
:10067000FF938091DF008E7F8093DF008FEF809368
:1006800017028091EF049091F004A091F104B091D1
:10069000F2040097A105B10521F480E00E94E40175
:1006A00002C00E945102FF91EF91BF91AF919F91C3
:1006B0008F917F916F915F914F913F912F910F900B
:1006C0000FBE0F901F9018956F927F928F929F92FE
:1006D000AF92BF92CF92DF92EF92FF920F931F9350
:1006E0000E940B027B018C0120916B0230916C0205
:1006F00040916D0250916E028091C7039091C803A2
:10070000A091C903B091CA03820F931FA41FB51F04
:10071000E216F3060407150730F082179307A407C3
:10072000B50758F005C082179307A407B507E0F591
:10073000E816F9060A071B07B8F59C01AD012E194A
:100740003F09400B510B213060E0360760E046075F
:1007500062E0560768F180E090E0A0E0B2E0E80EC9
:10076000F91E0A1F1B1FE0926B02F0926C020093AD
:100770006D0210936E0280E090E0A0E0BEEFE80E04
:10078000F91E0A1F1B1F205030404040524020934A
:10079000C7033093C8034093C9035093CA0320E0B2
:1007A00030E040E052E014C020E030E040E050E0B3
:1007B00080936B0290936C02A0936D02B0936E02D3
:1007C0001092C7031092C8031092C9031092CA0373
:1007D00039014A0196E0660C771C881C991C9A9591
:1007E000D1F786E0EE0CFF1C001F111F8A95D1F790
:1007F0008091E100A82E8091E200B82E8091E30064
:10080000C82E8091E400D82EA60195012E5F3F4F9F
:100810004F4F5F4FDA01C9018E199F09A00BB10B31
:1008200086159705A805B90530F4A8019701260D8E
:10083000371D481D591D5093F4004093F300309329
:10084000F2002093F10082E08093E0008091DF00CD
:1008500082608093DF008FEF809317021F910F91CA
:10086000FF90EF90DF90CF90BF90AF909F908F90D0
:100870007F906F9008955F926F927F928F929F9278
:10088000AF92BF92CF92DF92EF92FF920F931F939E
:10089000CF93DF938091F505882309F07BC00E94F8
:1008A0000B023B014C0155246CEE75E0EB012896E0
:1008B0004FEFA42E4FEFB42E4FEFC42E4FEFD42E98
:1008C000FB0140C088818823C9F180819181A28188
:1008D000B38184017301E81AF90A0A0B1B0B248106
:1008E000358146815781E216F3060407150788F023
:1008F000820F931FA41FB51F80839183A283B383AC
:10090000148215821682178220E030E040E050E029
:1009100011C060827182828293822E193F09400B3E
:10092000510B2483358346835783A216B306C4062E
:10093000D50620F059016A0131E0532E685F7F4FE0
:100940003896219685E0643F780709F0BBCF5520A3
:10095000C9F0D7FE04C0D694C794B794A794609208
:100960006B0270926C0280926D0290926E02A09265
:10097000C703B092C803C092C903D092CA030E94B1
:10098000640308C08091DF008D7F8093DF008FEFCC
:1009900080931702DF91CF911F910F91FF90EF90FD
:1009A000DF90CF90BF90AF909F908F907F906F908F
:1009B0005F9008951F920F920FB60F921124EF923D
:1009C000FF920F931F932F933F934F935F936F93D8
:1009D0007F938F939F93AF93BF93EF93FF938091F8
:1009E000DF008D7F8093DF008FEF8093170280916F
:1009F000C7039091C803A091C903B091CA0300979F
:100A0000A105B10561F581E08093F5058091F405BC
:100A1000882301F1E090EC05F090ED050091EE05E2
:100A20001091EF050E940B026E197F09800B910B4C
:100A30002091F0053091F1054091F2055091F305B8
:100A4000621773078407950728F01092F40586E172
:100A50000E94E4011092F5050E943B0402C00E942E
:100A60006403FF91EF91BF91AF919F918F917F911F
:100A70006F915F914F913F912F911F910F91FF9037
:100A8000EF900F900FBE0F901F9018951F920F922E
:100A90000FB60F9211240F900FBE0F901F90189554
:100AA0008091EC042091840030918500B09B05C0BA
:100AB0008F5F209184003091850099279927869532
:100AC0009795882736952795822B932B0895FF922B
:100AD0000F931F93CF93DF93EC01FFB6F8940E941E
:100AE00050058C0180E8C130D80768F0C050D0486C
:100AF0000E945005801B910BC817D907C8F70C0F2F
:100B00001D1FC0E0D0E80E945005801B910BC81744
:100B1000D907C8F78F2D99278FBFDF91CF911F91EC
:100B20000F91FF90089580917C0090917B008F71D0
:100B30009927089590917C00907E282F2F71922BF9
:100B400090937C0085FF04C080917B00886003C087
:100B500080917B00877F80937B000895ECE7F0E035
:100B600090818295880F880F807C9F73982B90834B
:100B70000895DF92EF92FF920F931F9380911706D3
:100B8000882321F08FE1FF24EE2405C0E8E0FE2E4B
:100B900072E0E72E82E0082FDFB6F8948091C5035B
:100BA0008E7F8093C50310917C000E949305282FAF
:100BB0001295169516951370E11619F080E090E0E5
:100BC0000AC0802F8850863120F480E090E0021720
:100BD00011F481E090E0982F9170990F8091C503F6
:100BE0008170202F220F220F892B822B8093C50327
:100BF000802F0E949A0580917C008F7D80937C00DD
:100C00008E2D0E94AE052091C503217038E0F316A9
:100C100081F5809114069091150631E6803893078E
:100C200018F087E090E024C030E3803C930718F090
:100C300086E090E01DC038E18034930718F085E02D
:100C400090E016C03CE08030930718F084E090E01C
:100C50000FC036E08030930718F083E090E008C0C2
:100C60008050934018F082E090E002C080E090E075
:100C7000F82E87E0F822187F1F2918612295220F8D
:100C8000207E1F7D122B106C812F992780937A0074
:100C90008D2D99278FBF1F910F91FF90EF90DF90BF
:100CA00008951F920F920FB60F9211248F939F9366
:100CB00080911B0690911C06019690931C068093D0
:100CC0001B06892B29F48091EE048F5F8093EE043C
:100CD0008091EC048F5F8093EC049F918F910F9033
:100CE0000FBE0F901F9018951F920F920FB60F9284
:100CF00011240F900FBE0F901F9018951F920F9206
:100D00000FB60F9211240F900FBE0F901F901895E1
:100D10001F920F920FB60F9211240F900FBE0F90DB
:100D20001F9018951F920F920FB60F9211240F90DB
:100D30000FBE0F901F90189521E030E002C0220FE7
:100D4000331F8A95E2F78091FE04822B8093FE0484
:100D5000EBE6F0E08081282B2083E8E6F0E080815C
:100D60008160808380E090E0089521E030E002C05F
:100D7000220F331F8A95E2F7922F90958091FE04FF
:100D800089238093FE04EBE6F0E08081282B20830A
:100D9000E8E6F0E080818160808380E090E0089563
:100DA0001F920F920FB60F9211248F938091C00063
:100DB00087FF02C08091C6008F910F900FBE0F90E9
:100DC0001F90189578941F920F920FB60F921124CE
:100DD0000F900FBE0F901F901895E2E5F1E0692784
:100DE000660FF11DE60FF11DC895982F802D3196E5
:100DF000C89590250895982F80916502882389F5DC
:100E0000992379F531E03093650280911C0280933B
:100E1000660220915A02822F81708093A4028091F1
:100E20002102909122029093680280936702809140
:100E30005B028093690232273170267EE32FFF2701
:100E4000EE0FFF1FE35EFD4F8081918190932202A0
:100E500080932102232B20935A028DE00E94E4010B
:100E6000089580915A0280FF02C08B7F01C08D7F60
:100E700080935A0208951F931FB7F8948091250B11
:100E8000882341F488E00E94E401882319F481E07A
:100E90008093250B812F99278FBF1F9108959FB7AE
:100EA000F8948091C3058A3011F020E006C020E05C
:100EB0008091CF03843009F421E0892F99278FBFD7
:100EC000222349F08AE00E94E4018FB7F894992721
:100ED0001092590206C08FB7F894992721E0209309
:100EE00059028FBF08950F931F93082F162F8091DB
:100EF000CF038130D9F0813038F0823009F44AC014
:100F0000833009F028C159C0002309F458C1109258
:100F100000061092FF051092E0051092080610924C
:100F2000D304109226051092250539C1002309F03B
:100F300046C180912505909126050E94ED0690936B
:100F400026058093250582E08093CF031093080641
:100F5000143409F000C125C18695869503C080919F
:100F60005A028695817009F0F6C080915A02992341
:100F700011F0846001C0826080935A0280915A020D
:100F8000877E886080935A0210925B028FEF809375
:100F90001C0215C1002309F0DEC06093D3048091C8
:100FA0002505909126050E94ED06909326058093D5
:100FB000250583E08093CF0302C18091E0058F3F38
:100FC00009F4C9C0002309F461C0823008F4C3C029
:100FD000E091FF05EE2309F4EBC04E2F4150E42FC2
:100FE000FF27E150FA4F82819927382F2227442387
:100FF00011F4E2E002C0E42FE150FF27E150FA4F84
:1010000082819927282B392B8091250590912605DF
:101010002817390709F09FC080E00E94FB06309135
:10102000D30480911A0520911B05982F9F5F96305D
:1010300008F090E0921771F0E82FFF27E65EFA4F74
:1010400032838F5F80931A05863010F010921A0554
:101050000E943B07109200061092FF0594E09093C7
:10106000CF031092E005109208061092D30410925C
:1010700026051092250580916A028D7F80936A0271
:1010800080915902882309F49AC084C0823008F400
:101090004EC0E0910006FF27E150FA4F8281482FB1
:1010A0005527342F20915A02822F86958695869552
:1010B000837099278130910519F00297F9F40EC0D9
:1010C000277E206120935A02442311F485E001C059
:1010D00080E080935B0230931C0210C080915B0221
:1010E0008F3260F4E0912102F0912202E80FF11DAD
:1010F000408380915B028F5F80935B02809100064A
:10110000E82FFF27E150FA4F62818F5F809300063E
:10111000833010F01092000677278091250590917A
:1011200026050E94ED069093260580932505809163
:10113000FF05E82FFF27E150FA4F12838F5F80935E
:10114000FF05833010F01092FF058091E0058F5F5E
:101150008093E00534C0109200061092FF0514E061
:101160001093CF031092E005109208061092D3045A
:10117000109226051092250580916A028D7F80933A
:101180006A0281E00E94FB0680915902882329F0BF
:101190001093CF030E944F0712C0002381F081E01B
:1011A00009CF80915A02982F917080FDD5CED7CE6D
:1011B000809103069927382F222742E01CCF1F91E8
:1011C0000F9108951F920F920FB60F9211241F9343
:1011D0002F933F934F935F936F937F938F939F933F
:1011E000AF93BF93EF93FF938091C80087FF74C0C4
:1011F0001091CE00E0912705F0912805309729F154
:101200008091230B9091240BE80FF91F1083019616
:101210009093240B8093230B20912F0B3091300B54
:101220008217930708F458C01092280510922705DA
:101230008091BE05833009F44FC08091C9008F773B
:101240008093C9001092BE0547C0E091FB05F09164
:10125000FC05309721F12091C1033091C203211583
:101260003105B1F1CF0101969093FC058093FB0508
:10127000835D944030F083ED93E09093FC05809380
:10128000FB058091FB059091FC058217930729F4DB
:101290001092C2031092C1031BC0108319C01E37E5
:1012A00019F460E081E011C080916A021D3721F4D9
:1012B000826080936A0210C081FF05C08D7F809399
:1012C0006A0280E21827612F80E00E94730704C041
:1012D00087E10E94E401E3CFFF91EF91BF91AF91CD
:1012E0009F918F917F916F915F914F913F912F913E
:1012F0001F910F900FBE0F901F9018952FB7F89465
:1013000033278093CE00E8ECF0E080818064808316
:101310002FBF0895FC016115710519F481E090E07B
:1013200008958091F8049091F904892B19F085E0D3
:1013300090E008957093070660930606F093F90411
:10134000E093F8041092D1031092D00381E08093CF
:10135000D2038091C80080648093C8008091C90046
:1013600080648093C900808121E030E03093D10314
:101370002093D0030E947E0980E090E00895982F8A
:101380008D57823068F480916A02816080936A028E
:1013900080E289278093CB058DE78093BF0302C04D
:1013A0009093BF0361E070E08FEB93E00E948A09A5
:1013B000992708958FB7F894992720916A022E7F74
:1013C00020936A022EE72093BF038FBF61E070E095
:1013D0008FEB93E00E948A099927089578941F92D1
:1013E0000F920FB60F921124FF920F931F932F931A
:1013F0003F934F935F936F937F938F939F93AF939D
:10140000BF93CF93DF93EF93FF932091D00330915D
:10141000D10380910606909107062817390780F4BA
:10142000E091F804F091F904E20FF31F80812F5F3F
:101430003F4F3093D1032093D0030E947E09DAC03E
:101440001092F9041092F8041092D2038091C9000E
:101450008F7B8093C9008FB7F89499271092F60577
:101460008FBF84E10E94E401FFB6F89480916A0284
:1014700080FF0EC08E7F80936A028091CB0580939F
:10148000BF0361E070E08FEB93E00E948A09AFC078
:101490008091C305843009F48CC0853040F48230DB
:1014A00021F18330B8F5813009F09CC00DC0863041
:1014B00009F48DC0863008F483C0873009F48EC0EB
:1014C000883009F08FC091C08091F3040E94BF0959
:1014D000082F83E08093C3056091F30480912D0B66
:1014E00090912E0B0E94ED0610C0809116060E946E
:1014F000BF09082F83E08093C30560911606809191
:101500002D0B90912E0B0E94ED0690932E0B809345
:101510002D0B66C0E0914305FF27EE0FFF1FE5503E
:10152000FB4F80810E94BF09082F10914305C12FF6
:10153000DD27FE01EE0FFF1FE550FB4F608180911C
:101540002D0B90912E0B0E94ED0690932E0B809305
:101550002D0B2091ED042F5F2093ED04113039F510
:1015600080916102E0915C02F0915D02E80FF11D53
:10157000E0818F5F8093610290916002981730F450
:1015800082E08093FC0440E050E002C04E2F5527DB
:10159000DE01AA0FBB1FFD01E650FB4F80818230A8
:1015A00031F02F3F21F0A550BB4F4C9319C084E080
:1015B00012C080912D0B0E94BF09082F85E00BC03F
:1015C00080912E0B0E94BF09082F86E004C00E9464
:1015D000DA09082F87E08093C30502C088E003C0C2
:1015E000002329F089E08093C3050E943B078F2DDB
:1015F00099278FBFFF91EF91DF91CF91BF91AF916D
:101600009F918F917F916F915F914F913F912F911A
:101610001F910F91FF900F900FBE0F901F90189584
:10162000EF920F931F93AE2D99E0899FF001112443
:10163000EB5BFA4F4083518362837383048315838A
:1016400026833783A17080858E7F8A2B8260808776
:1016500081E00E94E4011F910F91EF900895EF92B5
:10166000FF920F931F93CF93DF938091C30388233F
:1016700009F068C0A7E0B5E020E030E043E3E42EE5
:101680004BE0F42E0FE116E04CEC55E0C5E0D0E065
:101690006BE872E02115310509F441C021303105B4
:1016A000B1F111961C921E922115310521F02130C5
:1016B000310521F438C084E090E037C0FD01138289
:1016C00012821BC0F182E08211C011830083ED9170
:1016D000FC9111970EC0118210822115310531F055
:1016E0002130310531F080E090E005C082E095E0E6
:1016F00002C084E095E0938382832F5F3F4F14966E
:101700002230310539F681E08093C3031BC0119666
:101710005C934E93FD01D383C283FA01D6CF119619
:101720007C936E93C8CF85E090E0FD019383828324
:10173000ED91FC9111972115310521F221303105F0
:1017400051F6C3CFDF91CF911F910F91FF90EF9092
:101750000895BF92CF92DF92EF92FF920F931F9363
:10176000CF93DF93EC017B016A0189018FB7F89475
:10177000B82E8091C303882311F40E942F0BFE0121
:10178000EE0FFF1FEE0FFF1FE95FFA4FA081B1813F
:1017900082819381880F991F880F991F8A0F9B1F41
:1017A0009801E0E0F0E00CC0ED014A815B81141685
:1017B00015062CF44217530710F0FD019A011496F8
:1017C000A817B90788F3309721F4BFBE8AE090E0EC
:1017D00016C080819181D7018D939C9380819181E6
:1017E00022813381820F931FE6019983888330958C
:1017F00021953F4F33832283BFBE80E090E0DF918D
:10180000CF911F910F91FF90EF90DF90CF90BF90FD
:101810000895BF92CF92DF92EF92FF920F931F93A2
:10182000CF93DF938C016B01B42E7901209151028B
:1018300030915202C9E2D5E004C08C81882321F0A6
:101840002596C217D307C8F3C217D30708F043C0C1
:10185000AE014E5F5F4F20E130E0BE0180E090E0DE
:101860000E94A90B8823B9F591E09C83BB2011F05D
:1018700081E88C8380912302882319F420E030E0F2
:1018800006C080E0B11081E08927282F3327E114BA
:10189000F10429F088819981F70191838083A881DF
:1018A000B981C114D10429F08A819B81E601998311
:1018B00088830F3F110509F028F4222319F00D93B6
:1018C000CD010BC0812F9927FD018193ED01098383
:1018D000CF01019602C080E090E0DF91CF911F918F
:1018E0000F91FF90EF90DF90CF90BF900895AC01E3
:1018F0002091510230915202E9E2F5E006C0808168
:1019000091818417950731F03596E217F307B8F304
:10191000E0E0F0E0CF010895CF93DF9320915302F0
:1019200030915402C7EDD4E001C02596C217D30709
:1019300018F48C818823C9F7C217D30718F08AE0FE
:1019400090E025C0AE014E5F5F4F22E130E0BE0166
:1019500081E090E00E94A90B9927882311F0992734
:1019600016C0888199819093700280936F022A81BA
:101970003B81281B390B3093270B2093260BD093E8
:101980004205C093410581E08C8380E090E0DF91C7
:10199000CF9108951F931FB7F894809141059091BE
:1019A0004205892B11F40E948C0C812F99278FBF3F
:1019B0001F9108958F929F92BF92CF92DF92EF92E4
:1019C000FF920F931F93CF93DF936C01FC01EE0FF7
:1019D000FF1FEE0FFF1FE95FFA4FA081B181028167
:1019E0001381000F111F000F111F0A0F1B1F8FB74C
:1019F000F894B82E01C01496A017B10730F48D9159
:101A00009C91119768177907B1F7A017B10721F4D6
:101A1000BFBE86E090E084C0ED018A819B8197FD86
:101A200004C0BFBE89E090E07BC0909581959F4F38
:101A3000FD0193838283F601EE0FFF1FEE0FFF1F60
:101A4000E95FFA4F808191818A179B0748F4FD0175
:101A50003497828193811816190614F4BF0101C0CE
:101A6000BD01FD013496E017F10728F482819381CE
:101A7000181619060CF0FD016E177F0708F044C018
:101A8000AF01461B570B55954795559547957A01DC
:101A9000EE0CFF1CEE0CFF1C4B018E0C9F1CFB017F
:101AA0000AC0EB018A819B8126813781820F931FB7
:101AB0009B838A83FD01DF011496E815F90588F3FD
:101AC000ED01CA01880F991F880F991FFD01E81BBE
:101AD000F90B0DC088819981AA81BB818193919373
:101AE000A193B1938A819B81892B21F02496C01701
:101AF000D10780F3FE01EE19FF0903C013821282A1
:101B00003496EC17FD07D0F3FB0182819381BFBEB1
:101B1000F1E0CF16D10411F40E94CA0C80E090E0ED
:101B2000DF91CF911F910F91FF90EF90DF90CF90B9
:101B3000BF909F908F900895EF92FF920F931F9305
:101B4000A82FEFB6F894FF24BB278CEE95E0FD019B
:101B5000EE0FFF1FEE0FFF1FEE0FFF1FE80FF91F25
:101B60004083518362837383048315832683378381
:101B7000A80FB91F81E0FD0180870E943B04EFBEE2
:101B80001F910F91FF90EF900895FC016827262F79
:101B90002295207F2627422F5527942F8827EF2F25
:101BA000FF278E2B9F2B33E0440F551F3A95E1F70B
:101BB00022952F703327422753278427952708958E
:101BC00060933D0570933E0580933F0590934005DB
:101BD000603021E0720720E0820720E0920729F4BC
:101BE00080913E0290913F020CC0603020E172076C
:101BF00020E0820720E0920749F480913C02909116
:101C00003D029093A5038093A40312C060507044DA
:101C10008040904029F41092A5031092A40308C0BC
:101C200010923D0510923E0510923F05109240051E
:101C30008FB7F89499271092F4058FBF0895AC01DF
:101C40008FB7F894FA01A9E2B2E02AE00D90019270
:101C50002150E1F78FBFCA0108952FB7F89400977C
:101C600049F0A9E2B2E0FC018AE001900D928150B6
:101C7000C9F0FBCF10922A02109229028FEF9FEF3A
:101C8000AFEFBFEF80932F0290933002A093310209
:101C9000B093320280932B0290932C02A0932D02DA
:101CA000B0932E02822F99278FBF80E090E0089595
:101CB000009749F0A3E2B2E0FC0186E001900D92AA
:101CC000815079F0FBCF109224021092230280E021
:101CD00095E09093280280932702909326028093A8
:101CE000250280E090E00895CF93DF93CDB7DEB773
:101CF0006E970FB6F894DEBF0FBECDBFDC019E011C
:101D0000295F3F4F43E252E086E0FA010190AF01C4
:101D1000F90101929F018150C1F79E01275E3F4F5B
:101D2000AE01495F5F4F86E0FA010190AF01F90112
:101D300001929F018150C1F79E012F5F3F4FAE017D
:101D4000475E5F4F86E0FA010190AF01F901019211
:101D50009F018150C1F79E01235F3F4FAE014F5F4E
:101D60005F4F86E0FA010190AF01F90101929F01F6
:101D70008150C1F79E012D5E3F4FAE01435F5F4F23
:101D800086E0FA010190AF01F90101929F018150B3
:101D9000C1F7109719F420E035E009C08C9199271C
:101DA000382F2227FD0181819927282B392B388F45
:101DB0002F8BCE0143960E94580E6E960FB6F89464
:101DC000DEBF0FBECDBFDF91CF910895CF92DF92DE
:101DD000EF92FF920F931F93CF93DF93CDB7DEB7B0
:101DE0006E970FB6F894DEBF0FBECDBF6C018E01AB
:101DF0000B5E1F4FC8010E941F0EDE011196F801F5
:101E00008AE001900D928150E1F7DE011B96FE0100
:101E100031968AE001900D928150E1F7C114D1040E
:101E200049F40FEFE02E0FEFF02E0FEF002F0FEF22
:101E3000102F28C0F60182819927AA27BB27EE24FC
:101E4000F82E092F1A2F2081332744275527522F88
:101E500044273327222781819927AA27BB27DC0122
:101E600099278827282B392B4A2B5B2B838199278D
:101E7000AA27BB27282B392B4A2B5B2BE22AF32AD4
:101E8000042B152BE98AFA8A0B8B1C8BCE010B963F
:101E90000E942D0E6E960FB6F894DEBF0FBECDBF1A
:101EA000DF91CF911F910F91FF90EF90DF90CF9036
:101EB0000895CF93DF93CDB7DEB76E970FB6F89442
:101EC000DEBF0FBECDBFDC019E01295F3F4F43E265
:101ED00052E086E0FA010190AF01F90101929F0101
:101EE0008150C1F79E01275E3F4FAE01495F5F4FB2
:101EF00086E0FA010190AF01F90101929F01815042
:101F0000C1F79E012F5F3F4FAE01475E5F4F86E0F6
:101F1000FA010190AF01F90101929F018150C1F7CF
:101F20009E01235F3F4FAE014F5F5F4F86E0FA0196
:101F30000190AF01F90101929F018150C1F79E010B
:101F40002D5E3F4FAE01435F5F4F86E0FA01019087
:101F5000AF01F90101929F018150C1F7109719F467
:101F600020E035E009C08C919927382F2227FD0108
:101F700081819927282B392B3E8B2D8BCE014396BF
:101F80000E94580E6E960FB6F894DEBF0FBECDBFFE
:101F9000DF91CF9108959C01FB016091C405809170
:101FA000C7059091C805A091C905B091CA050097D1
:101FB000A105B10509F090C26F3009F48DC241E06E
:101FC00050E0062E02C0440F551F0A94E2F76093BA
:101FD0008A02609389022430310509F4ACC02530AF
:101FE000310578F42130310589F121303105D0F007
:101FF0002230310509F43FC02330310509F06FC2AA
:102000005BC02630310509F4B2C12630310508F431
:10201000E0C02730310509F4D9C12830310509F075
:102020005EC22BC240FDAEC041FF59C280E191E0CB
:10203000A0E0B0E08093C7059093C805A093C905C0
:10204000B093CA0586E080938A0249C2CA018471AE
:102050009070892B09F044C0CA0183709070892B5D
:1020600009F03DC243FD09C051FF13C082E090E07A
:10207000A0E0B0E006C040FF0EC080E090E0A0E02D
:10208000B2E08093C7059093C805A093C905B093AB
:10209000CA0581E0D8CF42FDC9CFCA0188739270CA
:1020A000892B09F41CC280914202882309F017C2CF
:1020B00044FF15C285E0C7CFCA0185719070892B96
:1020C00009F00DC241FF0FC081E090E0A0E0B0E058
:1020D0008093C7059093C805A093C905B093CA051E
:1020E00010928A02FCC143FD4DC051FF0CC082E03A
:1020F00090E0A0E0B0E08093C7059093C805A0935E
:10210000C905B093CA05407C5370452B91F080916E
:10211000C7059091C805A091C905B091CA05806214
:1021200090618093C7059093C805A093C905B093AB
:10213000CA0584E088CF309711F460E001C0608167
:10214000CA0180739070892BF9F0662369F080E0F2
:1021500090E1A0E0B0E08093C7059093C805A093FC
:10216000C905B093CA05BBC181E090E0A0E0B0E032
:102170008093C7059093C805A093C905B093CA057D
:1021800044FF25C082E05FCFCA01807C9170892B1B
:1021900009F4A5C1662379F080E091E0A0E0B0E009
:1021A0008093C7059093C805A093C905B093CA054D
:1021B00047FF95C147CF81E090E0A0E0B0E0809379
:1021C000C7059093C805A093C905B093CA0583E0DD
:1021D0003ACFCA0183709070892B09F0B4C0CA014C
:1021E00080739070892B09F0AEC042FF0DC080E073
:1021F00090E2A0E0B0E08093C7059093C805A0935B
:10220000C905B093CA059FC043FF19C080E191E0A2
:10221000A0E0B0E08093C7059093C805A093C905DE
:10222000B093CA058081882329F080E193E0A0E083
:10223000B0E04DC080E195E0A0E0B0E079C0CA0117
:1022400080749170892B69F08081882329F080E067
:1022500092E0A0E0B0E03BC080E094E0A0E0B0E01D
:1022600067C047FF1FC08081882371F080E092E043
:10227000A0E0B1E08093C7059093C805A093C9057D
:10228000B093CA0589E02CC080E094E0A0E0B0E003
:102290008093C7059093C805A093C905B093CA055C
:1022A00087E04FC051FF4FC082E091E0A0E0B0E076
:1022B0008093C7059093C805A093C905B093CA053C
:1022C0008081882389F182E093E0A0E0B0E08093F0
:1022D000C7059093C805A093C905B093CA0588E0C7
:1022E00080938A028091C7059091C805A091C90585
:1022F000B091CA058068A0628093C7059093C80515
:10230000A093C905B093CA0582E080930F0582812E
:1023100093819093EA058093E90584819581909358
:10232000A3028093A20220C082E095E0A0E0B0E08A
:102330008093C7059093C805A093C905B093CA05BB
:1023400086E080938A028091C7059091C805A0918C
:10235000C905B091CA0580688093C7059093C805E8
:10236000A093C905B093CA0586819781B0C0CA0100
:102370008C709070892B79F5CA0180739070892BCD
:1023800009F05AC046FF0EC080E190E0A0E0B0E046
:102390008093C7059093C805A093C905B093CA055B
:1023A00087E011C047FD25C050FF38C080E190E0B4
:1023B000A0E0B1E08093C7059093C805A093C9053C
:1023C000B093CA0589E080938A0236C0CA018C7036
:1023D0009070892B29F080E090E2A0E0B0E024C06A
:1023E000CA0180739070892B39F546FD12C047FFF2
:1023F0000EC080E091E0A0E0B0E08093C70590932C
:10240000C805A093C905B093CA0586E0DCCF50FF8C
:1024100005C080E191E0A0E0B0E006C051FF0CC033
:1024200082E091E0A0E0B0E08093C7059093C805FA
:10243000A093C905B093CA058091C7059091C805BE
:10244000A091C905B091CA05A0618093C70590937A
:10245000C805A093C905B093CA05848180930F0570
:10246000808191819093EA058093E905828193812F
:102470009093A3028093A20232C0CA018C7F937012
:10248000892B69F151FF0EC086E090E4A0E0B0E036
:102490008093C7059093C805A093C905B093CA055A
:1024A00085E011C080E090E4A0E0B0E08093C70533
:1024B0009093C805A093C905B093CA0540785170A0
:1024C000452B19F086E080938A028581968190934E
:1024D000320B8093310B03C087E090E0089580E0D9
:1024E00090E00895982F8D57823018F481E090E0A5
:1024F0000895903218F080E090E0089504C0769539
:102500006795579547959A95D2F7CA018170907053
:1025100008959FB7F8948091CF03882319F484E03D
:102520008093CF03892F99278FBF9FB7F89480910D
:10253000C305882319F48AE08093C305892F99275E
:102540008FBF0E944F0780E090E00895E9ECF0E033
:1025500080818F7B808380818F7780831092BE05FE
:102560001092D20380818860808380818F7B8083FA
:102570008081806180838FEF8093170280818068E3
:10258000808380E090E008958FB7F894282F332758
:10259000922F8091C3058A3041F08091CF0384301F
:1025A00021F02FBF89E090E008959FBF89E00E944D
:1025B000E40180E090E00895992780FF02C07498BC
:1025C00001C0749A81FF02C0759801C0759A82FF9C
:1025D00002C0769801C0769A83FF02C0779808956A
:1025E000779A0895982F969596959695E4E4F5E058
:1025F000E90FF11D877021E030E002C0220F331F88
:102600008A95E2F780818223992708950F931F937B
:102610000FB7F89411276093F4047093F504809336
:10262000F6049093F7042093EF043093F004409362
:10263000F1045093F2040E9451020FBF1F910F91B9
:1026400008956F927F928F929F92BF92CF92DF9266
:10265000EF92FF920F931F93CF93DF936C014B0187
:10266000FC01EE0FFF1FEE0FFF1FE95FFA4F6080C6
:1026700071800280F381E02DEE0FFF1FEE0FFF1F30
:10268000E60DF71D8FB7F894B82E04C084E090E0F3
:10269000680E791E6E167F0630F4D3018D919C91E1
:1026A0008816990699F76E167F0671F0E301888106
:1026B00099816A817B814817590730F09C01261B5C
:1026C000370B2417350720F4BFBE86E090E075C0B5
:1026D0007901E41AF50AE0FE03C00894E108F10864
:1026E0008417950711F481E056C0E114F10431F12B
:1026F00083010C5F1F4F0E171F0701F1E8018A814C
:102700009B811816190694F46E0D7F1DF3017383D7
:102710006283848195818E199F09958384838A8140
:102720009B818E0D9F1D9B838A8331C0892BF1F085
:102730003497828193813496892B19F0BFBE3BC0B8
:10274000FD019301285F3F4F2E173F0738F4DF014B
:102750001497ED018A819B81892B91F3E619F70982
:102760003497AF01B801C9010E94762AF301228192
:1027700033812E0D3F1D3383228380819181821B03
:10278000930BD8018D939C93E801FB82EA82F801B8
:10279000E280F38080E0BFBE882331F0B401C6013F
:1027A0000E94DA0C992709C0F1E0CF16D10419F480
:1027B000C7010E94CA0C80E090E0DF91CF911F9189
:1027C0000F91FF90EF90DF90CF90BF909F908F90F0
:1027D0007F906F9008951F920F920FB60F92112461
:1027E0000F931F932F933F934F935F936F937F9319
:1027F0008F939F93AF93BF93EF93FF934091780094
:102800005091790078948FB7F89499272091C50357
:10281000322F3695317021708FBF222319F58091A8
:102820007A00877F80937A0080910605813021F0BD
:10283000823009F047C00AC0332351F05093C205DB
:102840004093C10583E00E94E4013CC0332339F486
:102850008DE790E00E9467050E94B90533C0109291
:10286000060530C00FB7F894112780917C000E94B4
:1028700093050FBF2FB7F894332780917A00582F14
:102880005770482F4072087D042B052B8074077BFE
:10289000082B00610F77802F992780937A00087D9D
:1028A000042B052B07730061802F992780937A00F2
:1028B000087D042B052B077B0069802F99278093C7
:1028C0007A002FBFFF91EF91BF91AF919F918F91B0
:1028D0007F916F915F914F913F912F911F910F9138
:1028E0000F900FBE0F901F901895CF93DF93882302
:1028F00009F050C060931806662311F41D994AC070
:102900008FB7F894282F3327922F8091580288236D
:1029100011F581E0809358021092D6042FBF8FB733
:10292000F894C82FDD279C2F80911B02813059F528
:1029300080915802813021F485E00E94E40109C0B1
:10294000823009F58091D60480931B0283E0809346
:102950005802CFBF1FC08091D604882311F42FBF27
:1029600019C08091CB038F3F71F4E0911A02EE23DE
:1029700051F00BC01092190204C0FF27E553FC4F21
:10298000108210921A029FBF05C0809119028F3FDA
:10299000A1F7F0CFDF91CF9108950E94770CDC0171
:1029A000009719F486E090E00895FC018481807F0F
:1029B000836084838091C505E82FFF27EE0FFF1FFA
:1029C000EF51FA4FB183A0838F5F8093C50580E1FB
:1029D0000E94E40180E090E008951F93CF93DF937D
:1029E000C82FDD27C7FDD0951FB7F8948091B70594
:1029F000882379F48091C0038F3F59F0E82FFF2797
:102A0000EB55FD4FC0838F5F8093C00388E10E9428
:102A1000E401812F99278FBFCE01DF91CF911F91C4
:102A20000895BF92CF92DF92EF92FF920F931F9380
:102A3000CF93DF936C01B62E442309F44AC0FC0106
:102A4000C081D1811FB7F8948091190690911A0620
:102A50008C179D0779F410921A061092190680912E
:102A6000B705882339F48091C003882319F088E1E1
:102A70000E94E401812F99278FBF809118059091C2
:102A800019058C179D07A9F41092190510921805C5
:102A9000E0903802F090390200913A0210913B0226
:102AA0000E940B02AB01BC019801870180E00E94EB
:102AB0009C0D8091B5059091B6058C179D0749F442
:102AC000B092A1021092B6051092B50585E10E9460
:102AD000E401F6016081718180E090E00E94DA0CEF
:102AE000F60114821382128211821082DF91CF913B
:102AF0001F910F91FF90EF90DF90CF90BF900895BE
:102B00000E94770C009719F486E090E0089540E069
:102B100060E00E94111580E090E00895FF920F930D
:102B20001F93CF93DF938B010E94770CEC01892BCD
:102B300019F486E090E019C068817981A80180E0ED
:102B400090E00E942113682F7727F62E662339F430
:102B50001B830A838C81807F82608C8304C040E069
:102B6000CE010E9411158F2D9927DF91CF911F91D2
:102B70000F91FF900895AF92BF92CF92DF92EF92A4
:102B8000FF920F931F93CF93DF93CDB7DEB72497B8
:102B90000FB6F894DEBF0FBECDBF8C017B015A018A
:102BA00069011A8219829E012D5F3F4F41E0BE01EB
:102BB0006F5F7F4F81E290EC0E94090C9C010097AF
:102BC00019F485E090E057C0DC011196011511055C
:102BD000A1F088E0F901808380919B028183AD019F
:102BE0004F5F5F4F8F5F80939B02812F9927FD017D
:102BF00083830483D901169613C087E0F90180838B
:102C000080919C028183AD014F5F5F4F8F5F809306
:102C10009C02D901149604C0F70181917F018D9324
:102C200089819A81A817B90718F4EA14FB04A0F364
:102C3000CD01821B930B292F3327FA012083818337
:102C4000BD018B819C810E948E159927282F882396
:102C500081F48B819C810E94CD149927282F882391
:102C600041F4C114D10429F08B819C81F601918338
:102C70008083822F992724960FB6F894DEBF0FBE6B
:102C8000CDBFDF91CF911F910F91FF90EF90DF901B
:102C9000CF90BF90AF900895FF920F931F93CF9363
:102CA000DF93EC018A010E948E159927F82E882364
:102CB00039F4CE010E94CD149927F82E882321F0F3
:102CC000CE010E94801506C00115110519F0F8010A
:102CD000D183C0838F2D9927DF91CF911F910F91C1
:102CE000FF9008958091BD051D9B0CC08823A1F421
:102CF00081E08093BD0586E00E94E40185E00E94AA
:102D00009C060895882341F01092BD0587E00E943B
:102D1000E40185E00E94B50608951F920F920FB658
:102D20000F9211242F933F934F935F936F937F9351
:102D30008F939F93AF93BF93EF93FF9320916B007B
:102D400093B18091FE048927822385FF02C00E94EF
:102D50007216FF91EF91BF91AF919F918F917F91EB
:102D60006F915F914F913F912F910F900FBE0F90F8
:102D70001F901895EF92FF920F931F93CF93DF93BD
:102D8000CDB7DEB76E970FB6F894DEBF0FBECDBFDE
:102D90007C018E010B5E1F4FC8010E941F0EDE01D9
:102DA0001196F8018AE001900D928150E1F7DE0161
:102DB0001B96FE0131968AE001900D928150E1F759
:102DC0001C86EF2811F081E08C87CE010B960E94C3
:102DD0002D0E6E960FB6F894DEBF0FBECDBFDF91FD
:102DE000CF911F910F91FF90EF900895CF92DF92B6
:102DF000EF92FF920F931F93CF93DF93CDB7DEB780
:102E00006E970FB6F894DEBF0FBECDBF6C018E017A
:102E10000B5E1F4FC8010E941F0EDE011196F801C4
:102E20008AE001900D928150E1F7DE011B96FE01D0
:102E300031968AE001900D928150E1F7C114D104DE
:102E400049F40FEFE02E0FEFF02E0FEF002F0FEFF2
:102E5000102F28C0F60182819927AA27BB27EE24CC
:102E6000F82E092F1A2F2081332744275527522F58
:102E700044273327222781819927AA27BB27DC01F2
:102E800099278827282B392B4A2B5B2B838199275D
:102E9000AA27BB27282B392B4A2B5B2BE22AF32AA4
:102EA000042B152BED86FE860F87188BCE010B9613
:102EB0000E942D0E6E960FB6F894DEBF0FBECDBFEA
:102EC000DF91CF911F910F91FF90EF90DF90CF9006
:102ED0000895EF92FF920F931F93CF93DF93CDB797
:102EE000DEB76E970FB6F894DEBF0FBECDBF7C0184
:102EF0008E010B5E1F4FC8010E941F0EDE0111964E
:102F0000F8018AE001900D928150E1F7DE011B96F5
:102F1000FE0131968AE001900D928150E1F71B8607
:102F2000EF2811F081E08B87CE010B960E942D0EC9
:102F30006E960FB6F894DEBF0FBECDBFDF91CF9176
:102F40001F910F91FF90EF9008959F92AF92BF92C3
:102F5000CF92DF92EF92FF920F931F93CF93DF9365
:102F6000DC015B01C42E922E892B09F0E2C0C1E185
:102F7000D5E038C09920D9F0823059F0883081F0FE
:102F8000813079F560E070E080E090E00E94740E9E
:102F900028C060E070E080E090E00E94E60E21C072
:102FA00060E070E080E090E00E94BA161AC08230C3
:102FB00059F0883081F08130A1F460E070E080E069
:102FC00090E00E94590F0DC060E070E080E090E05A
:102FD0000E94F61606C060E070E080E090E00E947B
:102FE000691721968881882329F6AEC0FD01819159
:102FF000ED01D9809EEFD90EEF012196813008F4C2
:1030000095C0833008F49CC0883009F08FC098C008
:1030100093E0C916F1F094E0C91609F45FC092E09C
:10302000C91609F083C0BE016D0D711D823049F0D3
:10303000883059F0813009F079C0CE010E94740EB9
:1030400075C0CE010E94E60E71C0CE010E94BA1674
:103050006DC0823099F0883009F450C0813009F099
:1030600065C088819927982F882729813327822B4B
:10307000932B909335028093340258C0EA80FF244A
:1030800000271127102F0F2DFE2CEE242881332727
:1030900044275527522F44273327222789819927F0
:1030A000AA27BB27DC0199278827282B392B4A2BF5
:1030B0005B2B8B819927AA27BB27282B392B4A2BDF
:1030C0005B2BE22AF32A042B152BE0920F06F092D9
:1030D0001006009311061093120628C0823051F09A
:1030E000883061F0813011F5809133028B7F8093BD
:1030F00033021CC080913302877FF9CF8091330265
:103100008E7FF5CFBE016D0D711D823041F088308C
:1031100051F0813059F4CE010E94590F07C0CE0101
:103120000E94F61603C0CE010E946917DE01AD0DA4
:10313000B11DCD010296A816B90608F057CF04C0FC
:10314000992009F065CFDECFDF91CF911F910F91CC
:10315000FF90EF90DF90CF90BF90AF909F90089539
:103160006F927F929F92AF92BF92CF92DF92EF9237
:10317000FF920F931F93CF93DF93CDB7DEB76E9778
:103180000FB6F894DEBF0FBECDBF1A821982D09061
:10319000A1021092A10299242091C7053091C8057F
:1031A0004091C9055091CA052115310541055105C8
:1031B000E1F0F1E0EF2EF12C012D112D60E070E037
:1031C00009C0EE0CFF1C001F111F6F5F7F4F6032A4
:1031D000710559F0DA01C9018E219F21A023B12385
:1031E0000097A105B10569F303C0EE24FF24870110
:1031F000D801C70180959095A095B09528233923D3
:103200004A235B232093C7053093C8054093C90523
:103210005093CA05E092B905F092BA050093BB0538
:103220001093BC0580913D0590913E05A0913F050E
:10323000B09140058E159F05A007B10749F4809114
:10324000A4039091A50301979093A5038093A403F1
:1032500020E0E21621E0F20620E0020720E012075B
:1032600009F4D2C081E0E81681E0F80680E00807A2
:1032700080E0180758F590E1E916F1040105110501
:1032800009F4AFC0E1E1EE16F1040105110578F48F
:10329000F1E0EF16F1040105110509F45EC024E028
:1032A000E216F1040105110509F036C28BC080E277
:1032B000E816F1040105110509F498C090E8E91633
:1032C000F1040105110509F027C297C0E0E0EE16F0
:1032D000E0E2FE06E0E00E07E0E01E0709F499C117
:1032E000F1E0EF16F0E2FF06F0E00F07F0E01F0755
:1032F000A8F420E0E21622E0F20620E0020720E037
:10330000120709F4C4C180E0E81684E0F80680E002
:10331000080780E0180709F0FFC1B9C190E0E9167D
:1033200090E0F90690E1090790E0190709F4D9C186
:10333000E0E0EE16E0E0FE06E0E20E07E0E01E0749
:1033400009F4CFC1F0E0EF16F0E4FF06F0E00F075C
:10335000F0E01F0709F0E0C19AC1E1E1F5E09091CA
:103360003302609134027091350220910F06309142
:103370001006409111065091120612C0823041F0A1
:10338000883061F0813059F4946060E075E007C0E6
:10339000986020E030E040E050E001C0916031965C
:1033A0008081882359F720930F06309310064093AD
:1033B0001106509312067093350260933402909375
:1033C0003302AFC160E070E480E090E00E94E00D65
:1033D0008091310B9091320B9093190580931805D1
:1033E000A0C160E071E080E090E004C060E070E1C6
:1033F00080E090E00E94E00D94C120E042E060E0B7
:1034000070E080E090E081C1DD2009F0F0C021E0B3
:1034100042E060E070E080E090E00E94A5179E012D
:103420002D5F3F4F41E0BE016B5F7F4F81E290EC2B
:103430000E94090C7C01009709F4D7C0DC0181E0EF
:103440008D9380911D068F5F80931D06F701818308
:103450005D010894A11CB11CB7016C5F7F4F41E175
:10346000C42E45E0D42EA0C0423009F43EC04830FE
:1034700009F441C0413011F080E040C0FE013796B0
:10348000A3E2B2E086E00D9001928150E1F7FE01E7
:103490007996DE01179686E00D9001928150E1F752
:1034A000FE013D96DE01599686E00D900192815015
:1034B000E1F7FE017396DE011D9686E00D90019204
:1034C0008150E1F72F89388D8091330282FD03C04E
:1034D00080E090E013C090E02C5D354009F491E06D
:1034E00081E09827892F992709C08091330286951A
:1034F0008695869502C0809133028170882309F4F5
:1035000050C0FB0141938F013F010894611C711C65
:103510002D813E814230D1F04830D9F1413009F05F
:1035200040C0CB01049628173907D8F180913402A6
:1035300090913502892F9927818380913402F3017C
:10354000818382E090E0680E791E23C0C30101965A
:103550002817390730F180910F0690911006A0913D
:103560001106B09112068483292F3A2F4B2F55272D
:1035700023839D0144275527F30121838B2F99270E
:10358000AA27BB27F801818336E0632E712C660ED3
:10359000771E6114710429F0862D861BF801808343
:1035A000B3010894C11CD11CF6014081442309F0E9
:1035B0005BCFCB018E199F09292F3327F50120837B
:1035C0008183AE014F5F5F4F8B819C810E944C16BF
:1035D0009927D82E882359F489819A81009739F048
:1035E00090931905809318054BC005E0D02EE0900C
:1035F0003802F090390200913A0210913B020E9489
:103600000B02AB01BC019801870180E00E949C0D78
:1036100088C0DD2009F08AC09E012B5F3F4F41E04A
:10362000BE016D5F7F4F81E290EC0E94090CFC01AE
:10363000009709F4BAC0DC0186E08D9380911005F3
:103640008F5F8093100581839D012F5F3F4FFD01A8
:10365000118282E0F90181832E5F3F4FAE014F5FFF
:103660005F4FB9018D819E810E944C169927D82EFB
:10367000882309F056C089819A81009709F451C0C6
:103680009093B6058093B50511E0912E4AC0DD20D8
:10369000A9F48091310B9091320B0E94CD1499279F
:1036A000D82E882359F48091310B9091320B90934E
:1036B000B6058093B505B1E09B2E0EC0109219059A
:1036C000109218051092B6051092B5058091310B35
:1036D0009091320B0E9480151092320B1092310B98
:1036E0001BC06091A2027091A3028091E9059091A4
:1036F000EA05F0E0EF16F0E0FF06F0E10F07F0E07A
:103700001F0731F421E040910F050E94A51709C061
:1037100020E042E00E94A517E114F1040105110523
:1037200029F0DD2019F4992019F436CD992021F0E3
:103730008FE08093C4053CC0DD2019F480918A029B
:1037400002C0809189028093C40510E081E090E07E
:103750000090C40502C0880F991F0A94E2F7807F89
:103760009170892B29F411E0109219051092180517
:103770001092A3021092A2021092EA051092E9059B
:103780008091310B9091320B009711F00E948015BF
:103790001092320B1092310B112351F08FB7F89425
:1037A00099271092F4058FBF03C0A5E0DA2EBECF93
:1037B0008D2D99276E960FB6F894DEBF0FBECDBF44
:1037C000DF91CF911F910F91FF90EF90DF90CF90FD
:1037D000BF90AF909F907F906F9008950E94CB0F05
:1037E000873019F487E090E008950E94B018992777
:1037F0000895CF93DF93CDB7DEB727970FB6F89430
:10380000DEBF0FBECDBF85E08D837A8369835C8385
:103810004B833F832E83BE016F5F7F4F88E090E034
:103820000E94EE1B992727960FB6F894DEBF0FBEB5
:10383000CDBFDF91CF910895CF93DF93CDB7DEB7A2
:1038400025970FB6F894DEBF0FBECDBF982F80919D
:103850001D06861719F080E090E00DC09D835A8305
:1038600049833C832B83BE016F5F7F4F87E090E0ED
:103870000E94EE1B992725960FB6F894DEBF0FBE67
:10388000CDBFDF91CF910895FF920F931F93CF93F8
:10389000DF93F82EEB018FB7F894282F3327809110
:1038A0005802833021F02FBF8FEF90E004C0809149
:1038B0001B022FBF9927082F8FB7F894182F8091DC
:1038C0005802833091F580911B02801771F5809129
:1038D000190220E030E08F3F11F421E030E0232B8B
:1038E000F9F48F3F19F42FEF30E00EC0282F332763
:1038F000F901E553FC4F8081809319028F3F11F449
:1039000080931A028FEF80832093D6048FEF8093E9
:103910001B0281E08093580285E00E94E40105C00B
:1039200081E080931B02109258021FBF002309F010
:1039300051C0FF2009F04EC080911806882399F5E8
:10394000C051DE4008F046C00FB7F89480E00E94F6
:10395000DC12759880E593EC0E94670510E08EB14B
:1039600090E289278EB98EB190E489278EB980E5DF
:1039700093EC0E9467051F5F143089F780E00E9476
:10398000DC128FEF80936400809365008093630066
:1039900083B7816083BF889583B78E7F83BF802F75
:1039A00099278FBF17C08130A9F4C158DC4090F02F
:1039B0008FB7F89480E00E94DC12749880E593EC55
:1039C0000E9467058EB190E189278EB98EB180582B
:1039D0008EB9F4CFDF91CF911F910F91FF90089591
:1039E0009F92AF92BF92CF92DF92EF92FF920F938E
:1039F0001F935B016C0190904D0591FE20C02091BA
:103A00004505309146054091470550914805E090A5
:103A10004905F0904A0500914B0510914C05DC01D9
:103A2000CB01821B930BA40BB50B8E159F05A00732
:103A3000B10728F0E5E4F5E060E070E022C0EEE4D4
:103A4000F5E09090560591FEA5C020914E0530916D
:103A50004F054091500550915105E0905205F0906E
:103A600053050091540510915505A21AB30AC40AD2
:103A7000D50AAE14BF04C006D10608F48BC061E0BD
:103A800070E090FE04C080858D7F808708C02E0D79
:103A90003F1D401F511F2083318342835383662380
:103AA00021F0613009F076C01AC0559B0FC05598BF
:103AB0000E940B02AB01BC01A1E0EA2E01E010E084
:103AC00020E030E080E00E94100B64C04D9B02C0FB
:103AD00061E001C060E080E00E9475145BC08FB7B8
:103AE000F894282F3327122F80915702882381F5CD
:103AF00081E0809357021092FA052FBF2FB7F894F8
:103B0000332780917A00806880937A008FEF8093CA
:103B100017022FBF8FB7F894082F1127902F80918D
:103B20001802813099F480915702813021F482E0AB
:103B30000E94E40109C0823049F48091FA05809323
:103B4000180283E0809357020FBF22C09FBF20C09E
:103B50008091FA05882311F42FBF1AC080E00E94DB
:103B6000F212882319F085E090E007C080914405A7
:103B700081608093440580E090E01FBF8093290B13
:103B8000882341F0809860E070E00E94441C02C0ED
:103B90001092290B81E00E94E4011F910F91FF9088
:103BA000EF90DF90CF90BF90AF909F9008954F928D
:103BB0005F926F927F928F929F92AF92BF92CF92BD
:103BC000DF92EF92FF920F931F93CF93DF93CDB7C6
:103BD000DEB761970FB6F894DEBF0FBECDBFE82FFA
:103BE000FF27E931F10510F00C94C027E057FF4F93
:103BF000EE0FFF1F0590F491E02D09948091C4030E
:103C0000882361F52091090630910A0640910B0640
:103C100050910C06EFB7F894FF276091F40470916F
:103C2000F5048091F6049091F704E090EF04F09091
:103C3000F0040091F1041091F2046E0D7F1D801FBD
:103C4000911FEFBF2093090630930A0640930B069D
:103C500050930C061092C4030E9406130E940B029C
:103C600071C00E940B025B016C018091DF008E7FAE
:103C70008093DF008FEF8093170280914D0581FFC5
:103C800025C08091450590914605A0914705B091CA
:103C90004805A6019501281B390B4A0B5B0BE090E8
:103CA0004905F0904A0500914B0510914C05E21A28
:103CB000F30A040B150B3FEFE3163FEFF3063FEF5C
:103CC00003073FE7130711F061E009C00FEFE02E93
:103CD0000FEFF02E0FEF002F0FE7102F60E0809115
:103CE000560581FF24C080914E0590914F05A0910B
:103CF0005005B0915105A6019501281B390B4A0BBF
:103D00005B0BDA01C90120915205309153054091B6
:103D1000540550915505281B390B4A0B5B0B2E158A
:103D20003F05400751071CF479018A0104C066234E
:103D300011F40C94C0271E141F041006110634F051
:103D4000C601B5010E94F01C0C94C027E092090640
:103D5000F0920A0600930B0610930C0681E0809304
:103D6000C403A8019701C601B5010E9406130C9473
:103D7000C0272FB7F89433278091FA058093180253
:103D800083E0809357022FBF80911802882311F09F
:103D90000C94C02781E080930605109217060E94BC
:103DA000B9050C94C02710920605A090C105B090EB
:103DB000C20580911706882311F00C94C0278FB795
:103DC000F894C82E80915702833009F044C0809146
:103DD0001802882309F03FC080914405882311F020
:103DE0000C9419270C940A27ED2DE695E695E69597
:103DF000FF274D2D5527EC5BFA4F9A012770307045
:103E000081E090E002C0880F991F2A95E2F7809523
:103E10002081282320830093560212C00F5F1F4F7A
:103E20000130110511F400E010E0D02E802F0E9427
:103E3000F2128823C9F60E151F0581F74FEF50E0E7
:103E40004093FA058FEF8093180281E08093570228
:103E500082E00E94E401CFBE1092290B8098B092BC
:103E60009E02A0929D0284E00C94BE278091290BB3
:103E70008823F1F460919D0270919E028827992712
:103E80002CED35E040E050E00E942C2A1AE0969597
:103E90008795779567951A95D1F726E030E040E051
:103EA00050E00E942C2A709317056093160504C0F9
:103EB000109217051092160560911605709117055E
:103EC0008091290B0E94441C0C94C0272FB7F894B2
:103ED00033278091D60480931B0283E0809358029D
:103EE0002FBF8898809A0E940B02AB01BC01B1E001
:103EF000EB2E01E010E020E030E081E00E94100BAA
:103F00000C94C0270E94C4129927882311F40C94A2
:103F1000C027893011F40C94C02786E00C94BE278A
:103F20000E9489129927882311F40C94C0278930A4
:103F300011F40C94C02787E00C94BE278FB7F89437
:103F40001092250B2091C30540E0283009F441E090
:103F500030E0293009F431E0442311F4332351F0E7
:103F60001092C305E0914305FF27EE0FFF1FE650B7
:103F7000FB4F108299278FBF442311F4332331F173
:103F80009FB7F894809116068F5F809316068091F4
:103F9000F304833479F420911B0580911A0582176C
:103FA00079F0822F8F5F80931B05863048F0109246
:103FB0001B0506C0A0E0442309F4A1E071E002C0A3
:103FC000A0E070E0892F99278FBF06C0222311F04F
:103FD000FF246DC0A0E070E08FB7F894992720917E
:103FE00059028FBF222341F08FB7F89499272AE016
:103FF0002093C3058FBF42C08FB7F8949927609173
:10400000FA044091FC048FBF8FB7F894282F332710
:1040100050E090911A0580911B05981709F451E022
:104020002FBF552341F5662331F55FB7F89482E041
:104030008093FA048FB7F894282F332740E09091AB
:104040001A0580911B05981709F441E02FBF4423FE
:1040500011F080E006C0E0911B05FF27E65EFA4FF5
:1040600082818093FB0483E48093F30410924305E0
:10407000852F99270EC04150423010F0FF240CC00C
:104080008FB7F894992725E42093F30421E0209337
:1040900043058FBFE1E0FE2E772349F08FB7F894F8
:1040A0009927A09362028FBF8CE00E94E4018FB732
:1040B000F894082F11278091C3058A3021F40E94BB
:1040C0004F070FBF5DC70FBFFF2009F459C72FB7B8
:1040D000F894332710922E0B10922D0B1092ED04B2
:1040E00081E08093C3052FBF0E94DA09882309F479
:1040F00047C78FB7F894992729E02093C3058FBF4E
:10410000CAC00E94A6128FB7F89499271092C305CF
:104110001092CF032EC78BE031C78091C900877FF3
:104120008093C9008091C9008F7E8093C9008FEF72
:104130008093170225C710925F0210925E028FB71C
:10414000F8949927209162028FBF809163028111B8
:1041500023E080916402882309F412C7823709F0B2
:104160000FC7222309F06CC68FB7F89488E190E05E
:1041700029E00FB6F894A895809360000FBE2093B5
:104180006000FFCF8FB7F8949927209166020091C5
:1041900067021091680230916902F090A4028FBF0B
:1041A0002223A9F0223799F4333089F4F801808171
:1041B000823569F48181833551F48281843539F403
:1041C0001093A00200939F028EE00E94E4018FB73B
:1041D000F894EF2DFF27EE0FFF1FE35EFD4F1183D5
:1041E000008320915A02FF2011F02B7F01C02D7F08
:1041F00020935A02109265029927BBC6E0919F0254
:10420000F091A0028AE5808382E4818380E5828345
:1042100040919F025091A00280915E0290915F02B6
:10422000892B09F00DC62FB7F8943327109261023D
:104230001092620250935D0240935C0282E090E033
:1042400090935F0280935E0242E740936402109273
:10425000630283E0809360022FBF8FB7F894282F0A
:1042600033278091C3058A3011F42FBF17C02FBFA9
:104270009FB7F8948091FC04882311F020E006C0D9
:1042800081E08093FC044093FD0421E0892F99276D
:104290008FBF222319F00E943B0772C610925F0263
:1042A00010925E02CDC580911E06823051F480913D
:1042B000EB04882309F064C660E070E080E090E0E1
:1042C00025C0882309F05CC68FB7F894992710920F
:1042D000C2031092C1031092FC051092FB058FBF20
:1042E0008091C900877F8093C9008091C9008F7E2B
:1042F0008093C9008FEF809317028091EB0488238D
:1043000009F03EC660E070E081E090E00E94EE1BA4
:1043100037C64091C505442309F432C68091BF05D4
:104320009091C005892B09F02BC60091E1051091F1
:10433000E20541504093C505442349F05527440FF9
:10434000551F63EE75E081EE95E00E94762AF80134
:10435000648142815381208131818091C603882309
:1043600009F064C081E08093C6038FEF9FEF9093C4
:104370002305809322053093CE032093CD03309301
:104380000505209304055093D5044093D4048EE78B
:104390008093FF0467FD07C080912902882319F0EC
:1043A00060E075E02CC06FEF8091220590912305AD
:1043B0000E94C50D63E00E94C50D90932305809374
:1043C00022058FEF8093000540912B0250912C0223
:1043D00060912D0270912E0283E00E947212882358
:1043E00049F08DE78093010583E28093020563E045
:1043F00075E005C083E08093010562E075E06F5FC2
:1044000074408FEF94E00E948A099927882331F045
:104410001092C6039927682F882349F484E0F80195
:1044200084831093C0050093BF05AAC565E041E0F1
:10443000C8010E941115A4C58FB7F894282F3327FF
:104440008091B805882311F42FBF9AC52FBF209102
:10445000710230917202D9018D91082F112700FD50
:1044600007C0F9018181102F0027080F111D119637
:10447000F0E40F341F0729F020EC0132120719F481
:10448000E1C481E041C14091730250917402809176
:10449000C405893009F037C12CC120E030E0A50106
:1044A000BD0180E090E00E94BB1521C1D6016D9155
:1044B000F601F180FEEFFF0E6D010894C11CD11CC6
:1044C000623039F0683029F0613009F436C544E0D3
:1044D0000FC082E00CC080913402909135028417A5
:1044E000950719F083E090E002C082E090E0482F49
:1044F000E41638F484010C5F1F4F1D870C87E42EEF
:1045000003C04E1509F029C598012E5F3F4F8981E0
:104510009A818217930708F4C2C4D8016D939D0154
:104520002F5F3F4F433089F5890129813A816230FD
:1045300099F0683009F1613009F012C5CD01039698
:104540002817390708F40CC585E0FD018183F801BF
:1045500011820E5F1F4F10C0C8010196281739073E
:1045600008F4FEC4FD0114821382F8011182FD01DA
:1045700011828D010B5F1F4F0115110509F4F2C463
:10458000802F8A1B8F5F8C93E8C4F2E0FF0EF80146
:10459000F182FEEFFF0E4F2D55278901040F151FE5
:1045A00089819A818017910708F479C4B601C901FD
:1045B0000E94762AD2C4C6010296A816B90608F04F
:1045C00075CF980128193909D401ED92F40171824F
:1045D000832F9927FD0181832283B8018B819C81E0
:1045E0000E948E159927F82E8823C1F41A86F2E0CE
:1045F000EF1611F481E08A87EB861F870E878B8187
:104600009C81998B888BBE01665F7F4F85E090E02F
:104610000E94EE1BF82E27E0821721F48B819C81EB
:104620000E9480158F2D992762C082E08987DE82E3
:10463000CD82B886AF82BE016B5F7F4F86E090E08F
:104640000E94EE1B45C086E0F701808371828501E0
:104650000C191D090C5F1F4F29813A81C701800F7A
:10466000911F2817390718F489010E191F09A8018D
:1046700044505040B601C70104960E946D2A812F14
:104680009927F701828303830E0D1F1DB8018B81CB
:104690009C810E948E159927882311F0992727C0A5
:1046A0002B813C81A501B60185E00E94F91B182FE2
:1046B000873021F48B819C810E948015812F99275E
:1046C00016C020E030E0A501B60186E00E94F91B8B
:1046D00099270DC08FB7F894282F33271092B7056C
:1046E000CD2819F081E08093B7052FBF80E099278E
:1046F0000BC00115110539F020E030E0BD01C80103
:104700000E94BB1501C086E0873009F436C4409191
:104710007102509172028FB7F894682F2091530262
:1047200030915402E7EDF4E001C03596E217F3074B
:1047300030F48081918184179507B9F702C06FBF6B
:1047400006C084E084836FBF83E10E94E4011FB749
:10475000F8944091B80541504093B805442371F056
:104760005527440F551F440F551F65E772E081E739
:1047700092E00E94762A81E10E94E401812F99272C
:10478000F8C38FB7F89499271092F9051092F8059D
:1047900010920E0610920D06ECC3FFB6F8944091ED
:1047A000C605442339F42091530230915402E7EDB9
:1047B000F4E02AC00091810210918202415040939E
:1047C000C605442349F05527440F551F63E872E09E
:1047D00081E892E00E94762A83E0F8018483408198
:1047E000518162817381641B750B00E010E015C07C
:1047F000008111811482138212821182108209C0F9
:1048000084818430A9F33596E217F307C8F300E0FA
:1048100010E040E050E060E070E08F2D99278FBFFE
:104820004115510511F480E01BC02FB7F8943327D0
:104830008091B805E82FFF27EE0FFF1FEE0FFF1F37
:10484000EF58FD4F8F5F8093B80551834083460F2B
:10485000571F538342832FBF81E10E94E40181E00F
:104860000115110531F0B80181E090E00E94DA0CE9
:1048700003C0882309F484C383E180C3E090CD039F
:10488000F090CE038FB7F89499276091F605609069
:104890002B0270902C0280902D0290902E028FBFE0
:1048A000B090C603662309F0A8C0F2E0BF1609F471
:1048B000AAC0C090D404D090D50403C00894E11CD1
:1048C000F11CEC14FD0440F4B401A301F701808154
:1048D0000E947212882391F30091CD031091CE03B0
:1048E000E016F106F9F40C151D05D0F5F80160810C
:1048F00080912205909123050E94C50D9093230578
:10490000809322058DE78093FF04F801819190E266
:1049100089278093000562E070E0F093CE03E09376
:10492000CD03C0C20C151D05D8F46701C01AD10A09
:104930000FC06191F093CE03E093CD0380912205E7
:10494000909123050E94C50D909323058093220525
:10495000E091CD03F091CE03EE15FF0550F344C076
:104960008091220590912305809590959093230541
:1049700080932205AFEFEA2EA4E0FA2EAA24BB24EE
:1049800000912205109123050A2C02C01695079567
:104990000A94E2F7D02EB401A301802F0E94721274
:1049A00097012F5F3F4F882359F08DE7F7018083F0
:1049B00080E2D826D18279010894E11CF11C03C061
:1049C000F7010083790128E030E0A20EB31E30E148
:1049D000A316B104A9F68EE7F7018193BF016F5FBB
:1049E0007440F2E0BF2E5EC20115110509F45DC2EC
:1049F000B601C8010E948A09682F80E0662319F475
:104A0000882309F452C21092C6038091BF05909189
:104A1000C005009709F4B4C241E00E94111510923C
:104A2000C0051092BF0580E1A9C20E94B018A8C2BB
:104A300019828091A4039091A5031816190614F405
:104A400081E08983BE016F5F7F4F84E090E00E9428
:104A5000CB0F882309F48BC20E940B02AB01BC016F
:104A600001E010E020E030E080E00E949C0D88C270
:104A70008FB7F8949927282FA090FB05B090FC05DC
:104A8000A114B10409F475C28090C1039090C203CF
:104A90008114910439F4B092C203A092C103AA24F4
:104AA000BB240DC0A814B90410F0250108C0E3ED23
:104AB0004E2EE4E05E2E73EDA72E73E0B72E2FBFCF
:104AC0008114910409F45CC28414950408F058C25E
:104AD00087E10E94E4013401F301F1903F018FB7B7
:104AE000F894282F3327C22EFFE1FF15B0F08091F4
:104AF0002F0290913002A0913102B09132020F2C1E
:104B000004C0B695A795979587950A94D2F78170BA
:104B10009070892B11F02FBF12C180912A0B843025
:104B200011F0DF2C0EC08F2D8D57823018F41092AB
:104B30002A0B27C060E2D62EDF248091F7058093F0
:104B40002A0B80912A0B8823E1F02DE7F21621F43D
:104B50008093F70584E03FC0823009F43FC0833082
:104B600028F4882371F0813039F41FC0833009F4B0
:104B70004CC0843009F4C9C040E050E010922A0BC8
:104B800002C040E050E01092FE051092FD058FEF4C
:104B90009FEF90932C0B80932B0B3EE7F31609F0BD
:104BA000B6C081E080932A0BB2C04EE7F41621F321
:104BB0005FEFD51621F083E080932A0B7BC06FEF67
:104BC00080912B0B90912C0B0E94C50D90932C0B78
:104BD00080932B0B82E080932A0B97C083E0D8163A
:104BE00031F09EE7F91641F242E050E0C7CF63E0B2
:104BF00080912B0B90912C0B0E94C50D90932C0B48
:104C000080932B0BD0922A0B80C0EEE7FE1609F0A2
:104C100051C08091FD059091FE0502971CF443E080
:104C200050E0ACCF80912B0B90912C0B885B904F78
:104C300019F044E050E0A2CF0091410510914205E7
:104C400082E0F8018483808191812091FD0530917B
:104C5000FE05820F931F02979383828383E10E9454
:104C6000E4012091C605E22FFF27EE0FFF1FEF574B
:104C7000FD4F8091410590914205918380832F5F84
:104C80002093C605109242051092410510927002C1
:104C900010926F02F8014281538160817181641723
:104CA000750719F4AB014F5F5F4F81E090E00E9400
:104CB000211362CFE0906F02F0907002E114F104D2
:104CC00009F4F6C00091FD051091FE058091260BB8
:104CD0009091270B081719071CF046E050E0EAC036
:104CE0006D2D80912B0B90912C0B0E94C50D9093F4
:104CF0002C0B80932B0BE00EF11EF701D0820F5F7F
:104D00001F4F1093FE050093FD0540E050E0CFBE1D
:104D100041155105A1F02FB7F89433275093F905A9
:104D20004093F80580910D0690910E0601969093A0
:104D30000E0680930D062FBF82E10E94E4016414E9
:104D4000750409F0C9CE2FB7F8948091C1039091F2
:104D5000C203892B21F0B092C203A092C103822F1B
:104D6000992707C18091190690911A06892B09F09D
:104D700007C19E012D5F3F4F40E0BE016F5F7F4F37
:104D80008FE490E40E94090CFC01009709F4F3C041
:104D90000FB7F89429813A81281B390B21503040F4
:104DA0008091C003E82EFF242E153F0508F47901F9
:104DB000E1926F01A70165EA72E0CF010E94762AB5
:104DC0004091C0034E194093C003442341F055273E
:104DD000B7016B557D4F85EA92E00E946D2A802FC6
:104DE00099278FBFEC0CFD1CB7018B819C810E9421
:104DF0008E15882309F0C4C08B819C810E94CD143C
:104E0000882309F0BDC08B819C8190931A06809302
:104E10001906B6C081E08093180210925702809163
:104E20007A008F7780937A008FEF809317020C942B
:104E30002B1F80915602E82EFF2487010C940E1F31
:104E40008EE09CC0A0907302B09074028C91FD0122
:104E5000718044E0C42ED12CCA0EDB1E843009F4CC
:104E60003FC0853040F4823041F18330A0F581307D
:104E700009F013CB4CC0863031F18630C0F1883058
:104E800009F00BCBFD01848125819927982F882774
:104E9000820F911D8F54904409F41CCC27CC0AE05A
:104EA000F02EBCCB0FEF14E0A4CDB092C60368C0C7
:104EB00045E050E010922A0B2ACF80911D068715FD
:104EC00009F4B3CB05C08091EB05871509F4F9CB44
:104ED00080E090E00CCC9501A601672D83E004C032
:104EE0009501A601672D84E00E941C1C00CC9E0148
:104EF0002D5F3F4F41E0BE016F5F7F4F81E290EC3D
:104F00000E94090C7C01892B09F09DCB0EC09E01EB
:104F10002D5F3F4F41E0BE016F5F7F4F81E290EC1C
:104F20000E94090C4C01892B19F485E090E0DFCB3D
:104F300011E0E12E00E010E03ECBFD018181F601A1
:104F400021819927582F44273327422B532BF5E0F3
:104F500041305F0708F0BFCAC8CACF0CD11C2BCBA9
:104F600000E010E0802F8A1B8F5F8C9398CF85E143
:104F700005C08FBF05C088E101C081E10E94E40146
:104F800061960FB6F894DEBF0FBECDBFDF91CF9113
:104F90001F910F91FF90EF90DF90CF90BF90AF9057
:104FA0009F908F907F906F905F904F900895809129
:104FB00013068F3FB1F0282F3327F901EA55FC4F34
:104FC0008081809313068F3F11F48093280B8FEF1D
:104FD00080832F3F31F0822F0E94D71D81E090E027
:104FE000089580E090E00895EF92FF920F931F9351
:104FF000FFB6F89414BE88E10FB6F8948093600071
:10500000109260000FBE49E150E06FEF70E086EA59
:1050100093E00E94882A8FEF809313068093280BD9
:1050200080913501806180933501809134018061E8
:1050300080933401809133018061809333018091AA
:10504000320180618093320185B7806885BF85B762
:10505000806885BF80E8809361008FE08093610065
:1050600091E09093810080E28093B6009093B1002C
:1050700060E070E0EFEFFFEFA0E0BEEF8091B200E4
:105080008823E1F740918400509185008091B2001F
:105090008034E1F72091840030918500241B350B8A
:1050A000E217F30708F4F9012617370708F4B901E6
:1050B000CB018E1B9F0B029720F4AF5FA23330F021
:1050C00007C0EFEFFFEFA0E060E070E0B150B1F695
:1050D00030931506209314061092B1008091B10010
:1050E00080938100809181008093B6008091B6000A
:1050F000992783709070892BC9F78091DF008D7F8D
:105100008093DF008091DC008D7F8093DC008091B4
:1051100080008C7F8093800080918100807E8260FF
:105120008093810080916F00816080936F0080E2A6
:105130008093B6008091DC008F7C80638093DC00DC
:105140008091DF0088608093DF008091DF008E7F98
:105150008093DF008FEF809317028091DC008E7FB9
:105160008093DC0010927A008091390182608093F4
:1051700039016C9A6D9A6E9A6F9A749A759A769AAA
:10518000779A569A5E9A5D98559A0E940B02AB01E7
:10519000BC0191E0E92E01E010E020E030E080E089
:1051A0000E94100B0E94D7278823E1F783E492E046
:1051B00090933810809337108AE0ECEEF5E011926E
:1051C0008A95E9F7E1E1F5E081E00AC0813030F04D
:1051D000833008F43FC1883009F43CC18F5F21F06F
:1051E00095E0E531F90790F310820E942F0B12E051
:1051F00006E060911406709115068827992728E02B
:1052000037E040E050E00E944B2A2150304020938C
:10521000C400832F99278093C5001093C00000938A
:10522000C2001092C1002093CC008093CD00109357
:10523000C8000093CA001092C9001092FA0410929C
:10524000FC048AE08093C3051092ED041092F304ED
:105250001092160610922E0B10922D0B1092250B09
:1052600010924305109200061092FF0584E080938F
:10527000CF031092E005109208061092D30410920A
:1052800026051092250510921B0510921A051D9BEC
:105290000AC081E08093BD0586E00E94E40185E0BC
:1052A0000E949C0608C01092BD0587E00E94E401A0
:1052B00085E00E94B5068FEF8093CB0310924405E2
:1052C0000E94D7278823E1F78F2D99278FBF7894E5
:1052D00060E070E082E090E00E94EE1B9927282FAA
:1052E0008823D1F40E94A6122FB7F894332783EDB8
:1052F00093E09093C2038093C1039093FC05809345
:10530000FB052FBF0FB7F89411270E948C0C0FBF1D
:105310009927282F882319F0822F992718C01092D7
:1053200023021092240280E095E09093260280935D
:105330002502909328028093270282E080931E0624
:105340001092EB048FE00E94E40180E090E09F93D4
:105350008F9380E092E09F938F930E948F2A0F900B
:105360000F900F900F908FB7F894A82FBB2757C0BE
:105370008091170287FF4AC08091C10083FD0FC052
:105380008091C10084FD0BC08091C90083FD07C0DE
:105390008091C90084FD03C045E050E002C040E0B8
:1053A00050E080916F008E7219F060E070E002C0F2
:1053B00065E070E080917A0087FF03C021E030E073
:1053C00002C025E030E08091DC0085FF03C0E3E00F
:1053D000F0E002C0E5E0F0E0862F461708F4842FE5
:1053E0009927821708F4282F822F99278E1708F4FF
:1053F000E82FFF27E093170283B7FF27E7FDF0951B
:10540000EE5AFC4FE491807F8E2B83BF83B781607F
:1054100083BF78948895F89483B78E7F83BF8091FB
:1054200013068F3F09F4A4CF282F3327F901EA553B
:10543000FC4F8081809313068F3F11F48093280BDB
:105440008FEF80832F3F09F493CFAFBF822F0E944D
:10545000D71D89CF8193C2CE629FD001739FF00187
:10546000829FE00DF11D649FE00DF11D929FF00DF4
:10547000839FF00D749FF00D659FF00D9927729F2B
:10548000B00DE11DF91F639FB00DE11DF91FBD01B6
:10549000CF0111240895A1E21A2EAA1BBB1BFD0106
:1054A0000DC0AA1FBB1FEE1FFF1FA217B307E40703
:1054B000F50720F0A21BB30BE40BF50B661F771F5B
:1054C000881F991F1A9469F760957095809590953B
:1054D0009B01AC01BD01CF010895FB01DC0102C0BD
:1054E00001900D9241505040D8F708956817790700
:1054F00068F4FB01DC01E40FF51FA40FB51F02C027
:1055000002900E9241505040D8F708950C946D2AA5
:10551000DC0101C06D9341505040E0F70895A2E0D6
:10552000B0E0E5E9FAE20C94472DFE01379661916F
:105530007191FA83E983AF0180913710909138100F
:105540000E94A62AE2E022960C94632DABE0B0E024
:10555000ECEAFAE20C94392D3C014B016A01FC01A2
:1055600017821682838181FD03C08FEF9FEFDAC11E
:10557000F3013381F40133FD859133FF81914F01B4
:10558000882309F4CCC1853239F433FD859133FF8A
:1055900081914F01853229F4B30199270E94AC2CE7
:1055A000E7CF00E0442455244AE00032B0F48B32C7
:1055B00069F08C3228F4803251F0833271F40BC0E0
:1055C0008D3239F0803349F4016028C002600460F4
:1055D00025C0086023C0006121C007FD29C0282F15
:1055E00020532A3078F406FF06C0549EC0011124CF
:1055F000522E580E13C0449EC0011124422E480E54
:1056000000620CC08E3221F406FD89C1006406C020
:105610008C3611F4006802C0883651F4F40133FD71
:10562000859133FF81914F01882309F46FC0BDCF6D
:10563000982F8554833018F08052833038F424E05A
:1056400030E0C20ED31E8FE389830FC0933631F052
:10565000933799F0933509F05BC023C0F601808140
:10566000898322E030E0C20ED31E7E010894E11C43
:10567000F11C51E0A52EB12C12C0F601E080F180A2
:1056800006FD03C06FEF7FEF02C0652D772722E094
:1056900030E0C20ED31EC7010E94A12C5C010F771F
:1056A00013C0F601E080F18006FD03C06FEF7FEFCD
:1056B00002C0652D772722E030E0C20ED31EC7015D
:1056C0000E94962C5C01006803FF07C01BC0B30159
:1056D00080E290E00E94AC2C4A94842D9927A81671
:1056E000B906A8F30FC0F70107FD859107FF819167
:1056F0007F01B30199270E94AC2C41104A94089471
:10570000A108B108A114B10471F706C190E03EC030
:10571000943611F0993691F507FF0AC0F6016081C1
:1057200071818281938124E030E0C20ED31E0DC0CE
:10573000F601808191819C01B901882777FD8095D0
:10574000982F42E050E0C40ED51E4FE6B42EB02292
:1057500097FF09C090958095709561957F4F8F4F09
:105760009F4F50E8B52A8E010F5F1F4F2AE030E0AF
:10577000A8010E94D92CA82EA01A4DC0953731F44B
:105780003FEEF32EF0222AE030E023C029EFF22E84
:10579000F0229F3661F0903720F4983509F0BFC0B1
:1057A00012C0903739F0983709F0B9C005C028E029
:1057B00030E00FC080E1F82AF4FE02C094E0F92A3C
:1057C00020E130E006C0F4FE02C0E6E0FE2A20E15F
:1057D00032E0F7FE0AC0F601608171818281938117
:1057E00044E050E0C40ED51E0BC0F60180819181CB
:1057F000AC01BA0188279927E2E0F0E0CE0EDF1E67
:105800008E010F5F1F4FA8010E94D92CA82EA01A4D
:105810008FE7B82EBF20B6FE10C0FEEFBF22A51442
:1058200060F42B2D332724FF1AC022FF02C0052D60
:1058300009C02FEEB222052D01C00A2D2B2D3327D2
:1058400024FF0EC0FE01EA0DF11D8081803319F4A2
:1058500039EEB32209C00F5F22FF06C004C0052D38
:10586000822F867809F00F5FEB2CFF24E3FC14C035
:10587000E0FE0FC0041510F05A2C0BC0542C501A27
:105880005A0C042D06C0B30180E290E00E94AC2CBB
:105890000F5F0415C0F304C0041510F4401A01C0D2
:1058A0004424E4FE10C0B30180E390E00E94AC2CDD
:1058B000E2FE1EC0E1FE03C088E590E002C088E77A
:1058C00090E0B3010CC08E2D867891F0E1FE02C00D
:1058D0008BE201C080E2B7FC8DE2B30199270E9400
:1058E000AC2C06C0B30180E390E00E94AC2C5A942B
:1058F000A514C0F3AA94FE01EA0DF11D8181B30144
:1059000099270E94AC2CAA2039F0F4CFB30180E291
:1059100090E00E94AC2C4A944420C1F729CEF301B8
:1059200086819781E0E12B960C94552DFC01059022
:10593000615070400110D8F7809590958E0F9F1F91
:105940000895FC016150704001900110D8F78095D6
:1059500090958E0F9F1F08950F931F93CF93DF9302
:105960008C01EB018B81992781FF1BC082FF0DC049
:105970002E813F818C819D812817390764F4E8814D
:10598000F9810193F983E88306C0E885F985802FC2
:105990000995892B31F48E819F8101969F838E8397
:1059A00002C00FEF1FEFC801DF91CF911F910F9140
:1059B0000895FA01AA27283051F1203181F1E894A5
:1059C0006F936E7F6E5F7F4F8F4F9F4FAF4FB1E0F2
:1059D0003ED0B4E03CD0670F781F891F9A1FA11DED
:1059E000680F791F8A1F911DA11D6A0F711D811DEE
:1059F000911DA11D20D009F468943F912AE0269FB3
:105A000011243019305D3193DEF6CF010895462F11
:105A10004770405D4193B3E00FD0C9F7F6CF462FF2
:105A20004F70405D4A3318F0495D31FD405241935B
:105A300002D0A9F7EACFB4E0A69597958795779518
:105A40006795BA95C9F700976105710508959B019F
:105A5000AC010A2E06945795479537952795BA9528
:105A6000C9F7620F731F841F951FA01D08952F9201
:105A70003F924F925F926F927F928F929F92AF92DE
:105A8000BF92CF92DF92EF92FF920F931F93CF932B
:105A9000DF93CDB7DEB7CA1BDB0B0FB6F894DEBFC2
:105AA0000FBECDBF09942A88398848885F846E84E8
:105AB0007D848C849B84AA84B984C884DF80EE8032
:105AC000FD800C811B81AA81B981CE0FD11D0FB63B
:0E5AD000F894DEBF0FBECDBFED010895FFCFED
