:100000000C9493010C94B2010C94B2010C94B201C3
:100010000C94B2010C94B2010C94B2010C94B20194
:100020000C94B2010C949A0C0C94B2010C94B20191
:100030000C94B2010C94B2010C94B2010C94B20174
:100040000C94B2010C94B2010C94B2010C94B20164
:100050000C94B2010C94B2010C94B2010C94B20154
:100060000C94C6010C94B9040C94B2010C94910543
:100070000C94B2010C94B2010C94B2010C94B20134
:100080000C94B2010C94B2010C94B2010C94B20124
:100090000C94AA060C94B2010C94BC060C94B20108
:1000A0000C94B2010C94B2010C94B2010C94B20104
:1000B0000C94B2010C94B2010C94B2010C94B201F4
:1000C0000C94B2010C94B2010C94B2010C94B201E4
:1000D0000C94B2010C94B2010C94B2010C94B201D4
:1000E0000C94B2010C94B2010C94B2010C94B201C4
:1000F0000C94B2010C94B2010C94B2010C94B201B4
:100100000C94B2010C9476080C94B2080C94BC08C0
:100110000C9465080C94B2010C94B2010C94B201D9
:1001200000002110422063308440A550C660E77073
:10013000088129914AA16BB18CC1ADD1CEE1EFF11B
:100140003112100273325222B5529442F772D662C3
:10015000399318837BB35AA3BDD39CC3FFF3DEE36B
:100160006224433420040114E664C774A444855413
:100170006AA54BB528850995EEE5CFF5ACC58DD5BB
:100180005336722611163006D776F6669556B44663
:100190005BB77AA719973887DFF7FEE79DD7BCC70B
:1001A000C448E5588668A7784008611802282338B3
:1001B000CCC9EDD98EE9AFF9488969990AA92BB95B
:1001C000F55AD44AB77A966A711A500A333A122A03
:1001D000FDDBDCCBBFFB9EEB799B588B3BBB1AABAB
:1001E000A66C877CE44CC55C222C033C600C411C53
:1001F000AEED8FFDECCDCDDD2AAD0BBD688D499DFB
:10020000977EB66ED55EF44E133E322E511E700EA2
:100210009FFFBEEFDDDFFCCF1BBF3AAF599F788F4A
:100220008891A981CAB1EBA10CD12DC14EF16FE12A
:100230008010A100C230E320045025404670676062
:10024000B9839893FBA3DAB33DC31CD37FE35EF37A
:10025000B1029012F322D2323542145277625672B2
:10026000EAB5CBA5A89589856EF54FE52CD50DC5CA
:10027000E234C324A0148104667447642454054402
:10028000DBA7FAB79987B8975FE77EF71DC73CD71A
:10029000D326F2369106B016576676761546345652
:1002A0004CD96DC90EF92FE9C899E9898AB9ABA96A
:1002B0004458654806782768C018E1088238A328A2
:1002C0007DCB5CDB3FEB1EFBF98BD89BBBAB9ABBBA
:1002D000754A545A376A167AF10AD01AB32A923AF2
:1002E0002EFD0FED6CDD4DCDAABD8BADE89DC98D0A
:1002F000267C076C645C454CA23C832CE01CC10C42
:100300001FEF3EFF5DCF7CDF9BAFBABFD98FF89F59
:10031000176E367E554E745E932EB23ED10EF01E91
:1003200000020E060C0411241FBECFEFD1E4DEBF85
:10033000CDBF12E0A0E0B2E0E8EBFDE100E00BBFD2
:1003400002C007900D92AC30B107D9F712E0ACE0D3
:10035000B2E001C01D92A73FB107E1F70E94C70CB0
:100360000C94DB0E0C9400008FB7F8949927089535
:100370008FBF0895882319F08CB5806802C08CB5B2
:100380008F778CBD8FEF8093000208951F920F929C
:100390000FB60F9211240F931F932F933F934F93F8
:1003A0005F936F937F938F939F93AF93BF93CF93FD
:1003B000DF93EF93FF932EB5E0913302F091340277
:1003C000309739F08091DB029091DC02E80FF91F41
:1003D00020838091DB029091DC0201969093DC02F5
:1003E0008093DB0280E00E94BA01C091DB02D091D1
:1003F000DC022091D9023091DA02C217D30708F04B
:1004000042C0009136021091370240913302509160
:100410003402CE010A962817390708F4C901DA0117
:10042000AC0FBD1FF801EC0FFD1F9C0121503040A7
:1004300015C00115110531F080818EBD0DB407FE88
:10044000FDCF04C01EBC0DB407FEFDCF8EB5411517
:10045000510509F08C93219611963196C217D30756
:1004600040F381E00E94BA010115110531F00C0F33
:100470001D1FF80180818EBD01C01EBCD093DC021F
:10048000C093DB0211C0109234021092330210921A
:100490003702109236021092DA021092D9021092AC
:1004A000DC021092DB028EB5FF91EF91DF91CF91CC
:1004B000BF91AF919F918F917F916F915F914F917C
:1004C0003F912F911F910F910F900FBE0F901F9092
:1004D0001895282F9FB7F894E82FFF27EE5DFD4F62
:1004E00080818F3F81F4E091F202E21771F40BC03A
:1004F0002093EB0204C0FF27EE5DFD4F2083209385
:10050000F20220E007C025E005C08091EB028F3F9A
:1005100091F7EECF892F99278FBF822F99270895C2
:1005200021E030E002C0220F331F8A95E2F780916C
:100530004C02822B80934C02EBE6F0E08081282B6A
:100540002083E8E6F0E080818160808380E090E0B5
:10055000089521E030E002C0220F331F8A95E2F7B0
:10056000922F909580914C02892380934C02EBE668
:10057000F0E08081282B2083E8E6F0E08081816034
:10058000808380E090E00895E0E2F1E06927660F63
:10059000F11DE60FF11DC895982F802D3196C89555
:1005A00090250895982F80911902882389F5992321
:1005B00079F531E0309319028091040280931A0298
:1005C00020910E02822F8170809321028091090276
:1005D00090910A0290931C0280931B0280910F025B
:1005E00080931D0232273170267EE32FFF27EE0F06
:1005F000FF1FEB5FFD4F8081918190930A028093F2
:100600000902232B20930E0289E00E9469020895BB
:1006100080910E0280FF02C08B7F01C08D7F80938E
:100620000E0208951F931FB7F8948091F10288235A
:1006300041F484E00E946902882319F481E08093E8
:10064000F102812F99278FBF1F9108959FB7F894CA
:100650008091D6028A3011F020E006C020E080911F
:100660003502843009F421E0892F99278FBF222396
:1006700049F086E00E9469028FB7F894992710929A
:100680000D0206C08FB7F894992721E020930D0240
:100690008FBF08950F931F93082F162F8091350257
:1006A0008130D9F0813038F0823009F44AC083308B
:1006B00009F028C159C0002309F458C11092DE0284
:1006C0001092DD021092D8021092E60210923B02C4
:1006D000109257021092560239C1002309F046C108
:1006E00080915602909157020E94C4029093570243
:1006F0008093560282E0809335021093E602143410
:1007000009F000C125C18695869503C080910E022F
:100710008695817009F0F6C080910E02992311F040
:10072000846001C0826080930E0280910E02877EF9
:10073000886080930E0210920F028FEF8093040264
:1007400015C1002309F0DEC060933B028091560280
:10075000909157020E94C4029093570280935602D0
:1007600083E08093350202C18091D8028F3F09F463
:10077000C9C0002309F461C0823008F4C3C0E0910D
:10078000DD02EE2309F4EBC04E2F4150E42FFF278A
:10079000E352FD4F82819927382F2227442311F4F9
:1007A000E2E002C0E42FE150FF27E352FD4F8281D7
:1007B0009927282B392B80915602909157022817A0
:1007C000390709F09FC080E00E94D20230913B02BD
:1007D00080914D0220914E02982F9F5F963008F035
:1007E00090E0921771F0E82FFF27E35BFD4F328313
:1007F0008F5F80934D02863010F010924D020E9460
:1008000012031092DE021092DD0294E09093350202
:100810001092D8021092E60210923B0210925702F8
:100820001092560280911E028D7F80931E0280914D
:100830000D02882309F49AC084C0823008F44EC0A7
:10084000E091DE02FF27E352FD4F8281482F5527BA
:10085000342F20910E02822F86958695869583707F
:1008600099278130910519F00297F9F40EC0277E7F
:10087000206120930E02442311F485E001C080E042
:1008800080930F023093040210C080910F028F32C8
:1008900060F4E0910902F0910A02E80FF11D408333
:1008A00080910F028F5F80930F028091DE02E82F0C
:1008B000FF27E352FD4F62818F5F8093DE0283301A
:1008C00010F01092DE027727809156029091570225
:1008D0000E94C40290935702809356028091DD02D9
:1008E000E82FFF27E352FD4F12838F5F8093DD02D5
:1008F000833010F01092DD028091D8028F5F8093D8
:10090000D80234C01092DE021092DD0214E010937F
:1009100035021092D8021092E60210923B02109219
:1009200057021092560280911E028D7F80931E0204
:1009300081E00E94D20280910D02882329F0109359
:1009400035020E94260312C0002381F081E009CF06
:1009500080910E02982F917080FDD5CED7CE8091D8
:10096000E1029927382F222742E01CCF1F910F91D7
:1009700008951F920F920FB60F9211242F933F9359
:100980004F935F936F937F938F939F93AF93BF9397
:10099000EF93FF938091C00087FF42C06091C60033
:1009A000E0915802F0915902309719F18091EF02CD
:1009B0009091F002E80FF91F608301969093F00286
:1009C0008093EF022091F5023091F602821793078F
:1009D00038F110925902109258028091D50283305A
:1009E000F9F08091C1008F778093C1001092D502F9
:1009F00017C06E3719F460E081E010C080911E02CC
:100A00006D3721F4826080931E020AC081FF05C009
:100A10008D7F80931E0280E2682780E00E944A0357
:100A2000FF91EF91BF91AF919F918F917F916F91C6
:100A30005F914F913F912F910F900FBE0F901F909C
:100A400018952FB7F89433278093C600E0ECF0E0B8
:100A50008081806480832FBF0895FC01611571053A
:100A600019F481E090E00895809146029091470248
:100A7000892B19F085E090E008957093E50260936A
:100A8000E402F0934702E09346021092390210927A
:100A9000380281E080933A028091C00080648093A4
:100AA000C0008091C10080648093C100808121E0FA
:100AB00030E030933902209338020E94210580E013
:100AC00090E00895982F8D57823068F480911E022F
:100AD000816080931E0280E289278093D7028DE790
:100AE00080932F0202C090932F0261E070E08FE2AA
:100AF00092E00E942D05992708958FB7F8949927C1
:100B000020911E022E7F20931E022EE720932F029B
:100B10008FBF61E070E08FE292E00E942D0599277F
:100B2000089578941F920F920FB60F921124FF929E
:100B30000F931F932F933F934F935F936F937F93E5
:100B40008F939F93AF93BF93CF93DF93EF93FF93D5
:100B500020913802309139028091E4029091E502AF
:100B60002817390780F4E0914602F0914702E20F1E
:100B7000F31F80812F5F3F4F30933902209338025B
:100B80000E942105D1C01092470210924602109295
:100B90003A028091C1008F7B8093C100FFB6F89428
:100BA00080911E0280FF0EC08E7F80931E02809176
:100BB000D70280932F0261E070E08FE292E00E9402
:100BC0002D05AFC08091D602843009F48CC08530E9
:100BD00040F4823021F18330B8F5813009F09CC0B7
:100BE0000DC0863009F48DC0863008F483C087308C
:100BF00009F48EC0883009F08FC091C08091410205
:100C00000E946205082F83E08093D6026091410222
:100C10008091F3029091F4020E94C40210C080916E
:100C2000EE020E946205082F83E08093D602609155
:100C3000EE028091F3029091F4020E94C40290931C
:100C4000F4028093F30266C0E0915A02FF27EE0F90
:100C5000FF1FE75BFD4F80810E946205082F109106
:100C60005A02C12FDD27FE01EE0FFF1FE75BFD4F8C
:100C700060818091F3029091F4020E94C4029093EB
:100C8000F4028093F30220913C022F5F20933C02F8
:100C9000113039F580911502E0911002F0911102A6
:100CA000E80FF11DE0818F5F80931502909114028F
:100CB000981730F482E080934A0240E050E002C08E
:100CC0004E2F5527DE01AA0FBB1FFD01E85BFD4F2C
:100CD0008081823031F02F3F21F0A75BBD4F4C93D4
:100CE00019C084E012C08091F3020E946205082FAF
:100CF00085E00BC08091F4020E946205082F86E017
:100D000004C00E947D05082F87E08093D60202C0B0
:100D100088E003C0002329F089E08093D6020E9476
:100D200012038F2D99278FBFFF91EF91DF91CF9104
:100D3000BF91AF919F918F917F916F915F914F91F3
:100D40003F912F911F910F91FF900F900FBE0F9029
:100D50001F9018951F920F920FB60F9211248F9328
:100D60008091C80087FF02C08091CE008F910F90C4
:100D70000FBE0F901F90189578941F920F920FB688
:100D80000F9211240F900FBE0F901F90189588237B
:100D900019F08CB5806402C08CB58F7B8CBD8FEF51
:100DA000809300020895EF92FF920F931F937FB7F5
:100DB000F894609155022091E100822F2091E20089
:100DC000922F2091E300A22F2091E400B22F9C01EA
:100DD000AD018091E00083FF0FC06F5F8091E10063
:100DE000E82E8091E200F82E8091E300082F809198
:100DF000E400182FA8019701872F99278FBF772725
:100E000088279927FAE1660F771F881F991FFA959F
:100E1000D1F7E6E05695479537952795EA95D1F7AE
:100E2000622B732B842B952B1F910F91FF90EF90CA
:100E300008956F927F928F929F92AF92BF92CF92BE
:100E4000DF92EF92FF920F931F930E94D3067B01D4
:100E50008C01209142023091430240914402509112
:100E6000450280913D0290913E02A0913F02B091D7
:100E70004002820F931FA41FB51FE216F30604075A
:100E8000150730F082179307A407B50758F005C07F
:100E900082179307A407B507E0F5E816F9060A07D5
:100EA0001B07B8F59C01AD012E193F09400B510BF2
:100EB000213060E0360760E0460762E0560768F1DF
:100EC00080E090E0A0E0B2E0E80EF91E0A1F1B1FD0
:100ED000E0924202F09243020093440210934502D2
:100EE00080E090E0A0E0BEEFE80EF91E0A1F1B1F95
:100EF000205030404040524020933D0230933E020B
:100F000040933F025093400220E030E040E052E046
:100F100014C020E030E040E050E080934202909323
:100F20004302A0934402B093450210923D021092F6
:100F30003E0210923F021092400239014A01B6E08F
:100F4000660C771C881C991CBA95D1F7A6E0EE0CAC
:100F5000FF1C001F111FAA95D1F78091E100A82E58
:100F60008091E200B82E8091E300C82E8091E400C9
:100F7000D82EA60195012E5F3F4F4F4F5F4FDA01EC
:100F8000C9018E199F09A00BB10B86159705A805FD
:100F9000B90530F4A8019701260D371D481D591DCC
:100FA0005093F8004093F7003093F6002093F5003B
:100FB00081E08093E0008091DF0081608093DF001A
:100FC0008FEF809300021F910F91FF90EF90DF90C1
:100FD000CF90BF90AF909F908F907F906F9008952B
:100FE0000F931F930FB7F8941127609342027093E9
:100FF0004302809344029093450220933D02309334
:101000003E0240933F02509340020E9419070FBFD7
:101010001F910F9108959FB7F8948091350288230E
:1010200019F484E080933502892F99278FBF9FB7E9
:10103000F8948091D602882319F48AE08093D6022E
:10104000892F99278FBF0E94260380E090E00895A2
:101050008FB7F894282F3327922F8091D6028A30A9
:1010600041F080913502843021F02FBF89E090E07B
:1010700008959FBF85E00E94690280E090E0089596
:10108000DF92EF92FF920F931F93D82E7A018B017C
:101090000E94D30629E0D29EF0011124E55AFD4FAB
:1010A0006083718382839383E482F582068317834E
:1010B00080858E7F826080878CE00E9469021F910C
:1010C0000F91FF90EF90DF9008951F920F920FB64F
:1010D0000F9211248F93809155028F5F8093550258
:1010E0008F910F900FBE0F901F9018951F920F9227
:1010F0000FB60F9211242F933F934F935F936F93EB
:101100007F938F939F93AF93BF93EF93FF938091C0
:10111000DF008E7F8093DF008FEF8093000280914D
:101120003D0290913E02A0913F02B0914002009793
:10113000A105B10521F48BE00E94690202C00E9462
:101140001907FF91EF91BF91AF919F918F917F917F
:101150006F915F914F913F912F910F900FBE0F9024
:101160001F9018951F920F920FB60F9211240F9097
:101170000FBE0F901F9018951F920F920FB60F92EF
:1011800011240F900FBE0F901F901895AF92BF9231
:10119000CF92DF92EF92FF920F931F93CF93DF9343
:1011A0005B016C01C0E0D0E0EBE5F2E0608561FF3F
:1011B00040C02081318142815381E480F5800681E5
:1011C0001781D601C501821B930BA40BB50B8E159D
:1011D0009F05A007B10768F160FF03C06D7F6087BE
:1011E00008C02E0D3F1D401F511F208331834283B5
:1011F0005383C13069F0C13018F0C23001F510C01E
:101200002FB7F89433278BB180588BB92FBF17C0F5
:101210008FB7F89499272BB130E423272BB907C057
:101220008FB7F89499272EB134E023272EB98FBFBA
:1012300006C021963996C330D10509F0B7CF8CE0AE
:101240000E946902DF91CF911F910F91FF90EF9063
:10125000DF90CF90BF90AF900895AF92BF92CF92A2
:10126000DF92EF92FF920F931F93CF93DF9386301D
:1012700009F4BFC1873090F4823009F49AC08330FA
:1012800030F4882309F1813009F011C331C0843072
:1012900009F4A5C0853008F084C196C0893009F4EE
:1012A000E7C18A3038F4873009F4A5C1883009F0E5
:1012B000FEC2AFC18B3009F46BC28B3008F413C28D
:1012C0008C3009F0F4C297C28FB7F8949927109226
:1012D00034021092330210923702109236021092AA
:1012E000DA021092D9021092DC021092DB0280C165
:1012F0002FB7F8943327809131028093030282E064
:1013000080930C022FBF80910302882309F0CFC283
:10131000209A289889EB8EBD0DB407FEFDCF8EB5BF
:10132000289A1FB7F89480910C02823081F5809141
:101330000302882361F520E030E0809101028F3FB5
:1013400011F421E030E0232BE9F49FEF90930302A6
:101350008F3F19F42FEF30E00DC0282F3327F9010C
:10136000EE5CFD4F8081809301028F3F11F49093DA
:10137000020290832093310281E080930C020E944C
:10138000690205C08FEF8093030210920C02812F37
:1013900099278FBF1FB7F89480910C02882329F4F6
:1013A0000E94C7068FEF80930002812F99278FBF7D
:1013B0007EC20E9428089927882309F478C28930C0
:1013C00009F475C282E071C20E940B089927882334
:1013D00009F46DC2893009F46AC283E066C28FB72E
:1013E000F8941092F1022091D60240E0283009F4DE
:1013F00041E030E0293009F431E0442311F4332393
:1014000051F01092D602E0915A02FF27EE0FFF1F13
:10141000E85BFD4F108299278FBF442311F43323DB
:1014200031F19FB7F8948091EE028F5F8093EE02C6
:1014300080914102833479F420914E0280914D02D3
:10144000821779F0822F8F5F80934E02863048F0AA
:1014500010924E0206C0A0E0442309F4A1E071E01E
:1014600002C0A0E070E0892F99278FBF06C0222319
:1014700011F010E06CC0A0E070E08FB7F8949927ED
:1014800020910D028FBF222341F08FB7F894992746
:101490002AE02093D6028FBF42C08FB7F8949927D5
:1014A0006091480240914A028FBF8FB7F894282F6D
:1014B000332750E090914D0280914E02981709F425
:1014C00051E02FBF552341F5662331F55FB7F894FE
:1014D00082E0809348028FB7F894282F332740E0AA
:1014E00090914D0280914E02981709F441E02FBF70
:1014F000442311F080E006C0E0914E02FF27E35B39
:10150000FD4F82818093490283E4809341021092CF
:101510005A02852F99270EC04150423010F010E03A
:101520000BC08FB7F894992725E42093410221E05E
:1015300020935A028FBF11E0772349F08FB7F894B8
:101540009927A09316028FBF88E00E9469028FB787
:10155000F894C82FDD278091D6028A3021F40E94AA
:101560002603CFBFA4C1CFBF112309F4A0C12FB759
:10157000F89433271092F4021092F30210923C0276
:1015800081E08093D6022FBF0E947D05882309F455
:101590008EC18FB7F894992729E02093D6028FBF88
:1015A000EFC08091C1008F7B8093C1008091C1000A
:1015B0008F778093C1001092D50210923A028091E9
:1015C000C10088608093C1008091C10080618093D8
:1015D000C1008FEF809300028091C10080688093EA
:1015E000C1008FB7F89499271092D6021092350255
:1015F000DECE87E05AC18091C100877F8093C10011
:101600008091C1008F7E8093C1008FEF8093000294
:101610004EC110921302109212028FB7F8949927BC
:10162000209116028FBF80911702811123E08091D3
:101630001802882309F43BC1823709F038C12223FC
:1016400009F032C18FB7F89499275F985E98729825
:10165000739A8FBF8FB7F89488E190E029E00FB6B6
:10166000F894A895809360000FBE20936000FFCF90
:101670008FB7F894992720911A02C0911B02D0913C
:101680001C0230911D02109121028FBF2223A1F074
:10169000223791F4333081F48881823569F489816D
:1016A000833551F48A81843539F4D0932002C09374
:1016B0001F028AE00E9469028FB7F894E12FFF278A
:1016C000EE0FFF1FEB5FFD4FD183C08320910E0211
:1016D000112311F02B7F01C02D7F20930E02109259
:1016E0001902992764CEE0911F02F09120028AE549
:1016F000808382E4818380E5828340911F02509140
:1017000020028091120290911302892B09F0CCC023
:101710002FB7F894332710921502109216025093A7
:1017200011024093100282E090E0909313028093A4
:10173000120242E7409318021092170283E080934E
:1017400014022FBF8FB7F894282F33278091D60229
:101750008A3011F42FBF17C02FBF9FB7F894809124
:101760004A02882311F020E006C081E080934A02FB
:1017700040934B0221E0892F99278FBF222319F034
:101780000E94120394C010921302109212028CC095
:1017900080913002882361F52091E7023091E802C0
:1017A0004091E9025091EA02EFB7F894FF27609167
:1017B0004202709143028091440290914502E09070
:1017C0003D02F0903E0200913F02109140026E0DEA
:1017D0007F1D801F911FEFBF2093E7023093E80227
:1017E0004093E9025093EA02109230020E94F007FF
:1017F0000E94D30644C00E94D3067B018C018091D5
:10180000DF008E7F8093DF008FEF809300028FEFE9
:10181000A82E8FEFB82E8FEFC82E8FE7D82E60E05E
:10182000EBE5F2E0808581FF1CC080819181A2817F
:10183000B381A8019701281B390B4A0B5B0BDA0116
:10184000C9012481358146815781281B390B4A0BF8
:101850005B0B2A153B054C055D051CF459016A011B
:1018600061E0399632E0E637F307E1F66623F9F0F6
:101870001A141B041C041D042CF0C801B7010E949B
:10188000C60815C0A092E702B092E802C092E90231
:10189000D092EA0281E080933002A6019501C8014E
:1018A000B7010E94F00703C08AE00E946902DF913D
:1018B000CF911F910F91FF90EF90DF90CF90BF904D
:1018C000AF9008958091EB028F3FB1F0282F33271E
:1018D000F901EE5DFD4F80818093EB028F3F11F4A3
:1018E0008093F2028FEF80832F3F31F0822F0E948E
:1018F0002D0981E090E0089580E090E008958091C6
:10190000D4021D9B0CC08823A1F481E08093D402F3
:1019100082E00E94690285E00E9490020895882377
:1019200041F01092D40283E00E94690285E00E9497
:10193000A90208951F920F920FB60F9211242F93B0
:101940003F934F935F936F937F938F939F93AF9347
:10195000BF93EF93FF9320916B0093B180914C0262
:101960008927822385FF02C00E947F0CFF91EF919F
:10197000BF91AF919F918F917F916F915F914F91A7
:101980003F912F910F900FBE0F901F901895FF92CF
:101990000F931F93FFB6F89414BE88E10FB6F89426
:1019A00080936000109260000FBE4DE050E06FEF3A
:1019B00070E082E292E00E94D40E8FEF8093EB02FF
:1019C0008093F2028091350180618093350180918E
:1019D0003401806180933401809133018061809370
:1019E00033018091320180618093320185B7806834
:1019F00085BF85B7806885BF80E8809361008FE0F0
:101A00008093610091E09093810080E28093B60022
:101A10009093B100E0E0F0E06FEF7FEFA0E0BEEF69
:101A20008091B2008823E1F74091840050918500B5
:101A30008091B2008034E1F72091840030918500DC
:101A4000241B350B6217730708F4B9012E173F07E3
:101A500008F4F901CF01861B970B029720F4AF5FC2
:101A6000A23330F007C0A0E0E0E0F0E06FEF7FEFDE
:101A7000B150B1F63093ED022093EC021092B10018
:101A80008091B10080938100809181008093B600A5
:101A90008091B600992783709070892BC9F780E2F6
:101AA0008093B6008091DC008F7C80638093DC00A3
:101AB0008091DF0088608093DF008091DF008E7F5F
:101AC0008093DF001FEF109300028091DC008E7F77
:101AD0008093DC0080913901826080933901579AAC
:101AE000569A6A9A6B9A5F9A5E9A729A739A8091E2
:101AF0000C02882351F50E94C706229A2398219A46
:101B0000209A8CB580618CBD80E00E94BA018CB5B2
:101B1000877F8CBD8CB58B7F8CBD81E00E94C70612
:101B20008DB58E7F8DBD8CB58C7F81608CBD109303
:101B3000000280910C02882341F481E080930C0222
:101B4000109231020E94690212C0809132028F3FCE
:101B500071F4E0910202EE2351F0FEC010920102F6
:101B600004C0FF27EE5CFD4F1082109202020E941B
:101B7000620C8823E1F712E006E06091EC027091BC
:101B8000ED028827992724E833E040E050E00E94E6
:101B9000B20E215030402093C400832F99278093A8
:101BA000C5001093C0000093C2001092C1002093A2
:101BB000CC008093CD001093C8000093CA0010920F
:101BC000C90084E490E09093E3028093E2021092D3
:101BD000480210924A028AE08093D60210923C0298
:101BE000109241021092EE021092F4021092F3024F
:101BF0001092F10210925A021092DE021092DD024F
:101C000084E0809335021092D8021092E60210927E
:101C10003B02109257021092560210924E021092FE
:101C20004D021D9B0AC081E08093D40282E00E9495
:101C3000690285E00E94900208C01092D40283E0FD
:101C40000E94690285E00E94A9028FEF8093320210
:101C50000E94620C8823E1F78F2D99278FBF78941B
:101C60004AEF50E060E070E080E00E94400844EFFE
:101C700051E060E070E081E00E94400848EE53E0EF
:101C800060E070E082E00E9440088FB7F894482F2F
:101C9000552747C08091000287FF3AC08091DC0041
:101CA00085FF03C023E030E002C025E030E08091F2
:101CB000C10083FD0FC08091C10084FD0BC08091E5
:101CC000C90083FD07C08091C90084FD03C085E081
:101CD00090E002C080E090E00CB406FE03C0E0E0BB
:101CE000F0E002C0E5E0F0E0281708F4822F992721
:101CF0008E1708F4E82FFF27E093000283B7FF2731
:101D0000E7FDF095E05EFC4FE491807F8E2B83BF72
:101D100083B7816083BF78948895F89483B78E7F6A
:101D200083BF8091EB028F3F09F4B4CF282F332774
:101D3000F901EE5DFD4F80818093EB028F3F11F43E
:101D40008093F2028FEF80832F3F09F4A3CF4FBF20
:101D5000822F0E942D0999CF809101028F3F09F0B7
:101D600000CFFCCEA1E21A2EAA1BBB1BFD010DC0A9
:101D7000AA1FBB1FEE1FFF1FA217B307E407F5073B
:101D800020F0A21BB30BE40BF50B661F771F881F17
:101D9000991F1A9469F760957095809590959B01AD
:101DA000AC01BD01CF010895DC0101C06D9341502C
:081DB0005040E0F70895FFCF59
:0C1DB800FFFFFFFFFF7602A5027602008D
:00000001FF
