S01900006275696C642F75636D696E692F6D61696E2E7372656373
S11300000C9493010C94B2010C94B2010C94B201BF
S11300100C94B2010C94B2010C94B2010C94B20190
S11300200C94B2010C94960A0C94B2010C94B20193
S11300300C94B2010C94B2010C94B2010C94B20170
S11300400C94A1040C9483040C948D040C949704D4
S11300500C9460040C94B2010C94B2010C94B2019F
S11300600C94B2010C94DF040C94B2010C94F104CE
S11300700C94B2010C94F1090C94B2010C94B201E9
S11300800C94B2010C94B2010C94B2010C94B20120
S11300900C94F1060C94B2010C94C9070C94B201AF
S11300A00C94B2010C94B2010C94B2010C94B20100
S11300B00C94B2010C94B2010C94B2010C94B201F0
S11300C00C94B2010C94B2010C94B2010C94B201E0
S11300D00C94B2010C94B2010C94B2010C94B201D0
S11300E00C94B2010C94B2010C94B2010C94B201C0
S11300F00C94B2010C94B2010C94B2010C94B201B0
S11301000C94B2010C940F030C944B030C94550300
S11301100C94BA010C94B2010C94B2010C94B20187
S113012000002110422063308440A550C660E7706F
S1130130088129914AA16BB18CC1ADD1CEE1EFF117
S11301403112100273325222B5529442F772D662BF
S1130150399318837BB35AA3BDD39CC3FFF3DEE367
S11301606224433420040114E664C774A44485540F
S11301706AA54BB528850995EEE5CFF5ACC58DD5B7
S11301805336722611163006D776F6669556B4465F
S11301905BB77AA719973887DFF7FEE79DD7BCC707
S11301A0C448E5588668A7784008611802282338AF
S11301B0CCC9EDD98EE9AFF9488969990AA92BB957
S11301C0F55AD44AB77A966A711A500A333A122AFF
S11301D0FDDBDCCBBFFB9EEB799B588B3BBB1AABA7
S11301E0A66C877CE44CC55C222C033C600C411C4F
S11301F0AEED8FFDECCDCDDD2AAD0BBD688D499DF7
S1130200977EB66ED55EF44E133E322E511E700E9E
S11302109FFFBEEFDDDFFCCF1BBF3AAF599F788F46
S11302208891A981CAB1EBA10CD12DC14EF16FE126
S11302308010A100C230E32004502540467067605E
S1130240B9839893FBA3DAB33DC31CD37FE35EF376
S1130250B1029012F322D2323542145277625672AE
S1130260EAB5CBA5A89589856EF54FE52CD50DC5C6
S1130270E234C324A01481046674476424540544FE
S1130280DBA7FAB79987B8975FE77EF71DC73CD716
S1130290D326F2369106B01657667676154634564E
S11302A04CD96DC90EF92FE9C899E9898AB9ABA966
S11302B04458654806782768C018E1088238A3289E
S11302C07DCB5CDB3FEB1EFBF98BD89BBBAB9ABBB6
S11302D0754A545A376A167AF10AD01AB32A923AEE
S11302E02EFD0FED6CDD4DCDAABD8BADE89DC98D06
S11302F0267C076C645C454CA23C832CE01CC10C3E
S11303001FEF3EFF5DCF7CDF9BAFBABFD98FF89F55
S1130310176E367E554E745E932EB23ED10EF01E8D
S113032000020E060C0411241FBECFEFD1E4DEBF81
S1130330CDBF12E0A0E0B2E0ECE6F4E200E00BBFD7
S113034002C007900D92AC30B107D9F713E0ACE0CE
S1130350B2E001C01D92A731B107E1F70E94181065
S11303600C9435120C9400008FB7F89499270895D3
S11303708FBF08951F920F920FB60F9211248F937F
S113038080915E028F5F80935E028F910F900FBE0B
S11303900F901F901895282F9FB7F894E82FFF27E8
S11303A0EA5DFD4F80818F3F81F4E0911103E217F4
S11303B071F40BC02093060304C0FF27EA5DFD4FD0
S11303C020832093110320E007C025E005C080911D
S11303D006038F3F91F7EECF892F99278FBF822F86
S11303E099270895EF92FF920F931F937FB7F89484
S11303F060915E022091E100822F2091E200922F11
S11304002091E300A22F2091E400B22F9C01AD01C2
S11304108091E00083FF0FC06F5F8091E100E82EC0
S11304208091E200F82E8091E300082F8091E4008F
S1130430182FA8019701872F99278FBF772788271F
S11304409927FAE1660F771F881F991FFA95D1F74C
S1130450E6E05695479537952795EA95D1F7622BAF
S1130460732B842B952B1F910F91FF90EF90089580
S11304706F927F928F929F92AF92BF92CF92DF92B0
S1130480EF92FF920F931F930E94F2017B018C0164
S1130490209148023091490240914A0250914B0206
S11304A08091430290914402A0914502B09146028A
S11304B0820F931FA41FB51FE216F3060407150746
S11304C030F082179307A407B50758F005C08217C8
S11304D09307A407B507E0F5E816F9060A071B0712
S11304E0B8F59C01AD012E193F09400B510B213089
S11304F060E0360760E0460762E0560768F180E096
S113050090E0A0E0B2E0E80EF91E0A1F1B1FE09283
S11305104802F092490200934A0210934B0280E091
S113052090E0A0E0BEEFE80EF91E0A1F1B1F20504A
S11305303040404052402093430230934402409361
S113054045025093460220E030E040E052E014C0FF
S113055020E030E040E050E080934802909349026C
S1130560A0934A02B0934B021092430210924402A9
S1130570109245021092460239014A01B6E0660C17
S1130580771C881C991CBA95D1F7A6E0EE0CFF1CC9
S1130590001F111FAA95D1F78091E100A82E809128
S11305A0E200B82E8091E300C82E8091E400D82E9A
S11305B0A60195012E5F3F4F4F4F5F4FDA01C901EE
S11305C08E199F09A00BB10B86159705A805B905CF
S11305D030F4A8019701260D371D481D591D50936D
S11305E0F8004093F7003093F6002093F50081E083
S11305F08093E0008091DF0081608093DF008FEFC3
S1130600809300021F910F91FF90EF90DF90CF90A5
S1130610BF90AF909F908F907F906F9008951F929E
S11306200F920FB60F9211242F933F934F935F9322
S11306306F937F938F939F93AF93BF93EF93FF93A6
S11306408091DF008E7F8093DF008FEF8093000224
S11306508091430290914402A0914502B0914602D8
S11306600097A105B10521F480E00E94CB0102C0EE
S11306700E943802FF91EF91BF91AF919F918F91AA
S11306807F916F915F914F913F912F910F900FBE8A
S11306900F901F9018951F920F920FB60F9211246E
S11306A00F900FBE0F901F9018951F920F920FB6C8
S11306B00F9211240F900FBE0F901F9018958091E8
S11306C040022091840030918500B09B05C08F5F6B
S11306D020918400309185009927992786959795D4
S11306E0882736952795822B932B0895FF920F9395
S11306F01F93CF93DF93EC01FFB6F8940E945F033E
S11307008C0180E8C130D80768F0C050D0480E94FE
S11307105F03801B910BC817D907C8F70C0F1D1F67
S1130720C0E0D0E80E945F03801B910BC817D90773
S1130730C8F78F2D99278FBFDF91CF911F910F910C
S1130740FF90089580917C0090917B008F71992790
S1130750089590917C00907E282F2F71922B909376
S11307607C0085FF04C080917B00886003C0809179
S11307707B00877F80937B000895ECE7F0E0908115
S11307808295880F880F807C9F73982B908308959F
S1130790DF92EF92FF920F931F9380910A038823B5
S11307A021F08FE1FF24EE2405C078E0F72E62E00B
S11307B0E62E82E0082FDFB6F894809137028E7F10
S11307C08093370210917C000E94A203282F129577
S11307D0169516951370E11619F080E090E00AC0A2
S11307E0802F8850863120F480E090E0021711F4C5
S11307F081E090E0982F9170990F80913702817079
S1130800202F220F220F892B822B80933702802FD7
S11308100E94A90380917C008F7D80937C008E2DA3
S11308200E94BD0320913702217038E0F31681F550
S1130830809107039091080331E68038930718F0FC
S113084087E090E024C030E3803C930718F086E012
S113085090E01DC038E18034930718F085E090E003
S113086016C03CE08030930718F084E090E00FC09D
S113087036E08030930718F083E090E008C08050A1
S1130880934018F082E090E002C080E090E0F82EFF
S113089087E0F822187F1F2918612295220F207EF5
S11308A01F7D122B106C812F992780937A008D2D38
S11308B099278FBF1F910F91FF90EF90DF900895BC
S11308C01F920F920FB60F9211248F939F938091D2
S11308D00C0390910D03019690930D0380930C03E8
S11308E0892B29F4809142028F5F80934202809188
S11308F040028F5F809340029F918F910F900FBEB3
S11309000F901F9018951F920F920FB60F921124FB
S11309100F900FBE0F901F9018951F920F920FB655
S11309200F9211240F900FBE0F901F9018951F92D5
S11309300F920FB60F9211240F900FBE0F901F90BD
S113094018951F920F920FB60F9211240F900FBE9D
S11309500F901F90189521E030E002C0220F331F42
S11309608A95E2F780915202822B80935202EBE641
S1130970F0E08081282B2083E8E6F0E0808181602C
S1130980808380E090E0089521E030E002C0220FEF
S1130990331F8A95E2F7922F909580915202892312
S11309A080935202EBE6F0E08081282B2083E8E676
S11309B0F0E080818160808380E090E008951F9260
S11309C00F920FB60F9211248F938091C00087FF6E
S11309D002C08091C6008F910F900FBE0F901F90A0
S11309E0189578941F920F920FB60F9211240F90BE
S11309F00FBE0F901F901895E0E2F1E06927660F93
S1130A00F11DE60FF11DC895982F802D3196C895DC
S1130A1090250895982F80911B02882389F59923A6
S1130A2079F531E030931B028091050280931C021A
S1130A3020911002822F81708093250280910A02F6
S1130A4090910B0290931E0280931D0280911102DB
S1130A5080931F0232273170267EE32FFF27EE0F8B
S1130A60FF1FEA5FFD4F8081918190930B02809379
S1130A700A02232B209310028DE00E94CB010895DB
S1130A808091100280FF02C08B7F01C08D7F809314
S1130A90100208951F931FB7F894809110038823C0
S1130AA041F488E00E94CB01882319F481E080930B
S1130AB01003812F99278FBF1F9108959FB7F89432
S1130AC08091F4028A3011F020E006C020E0809189
S1130AD03A02843009F421E0892F99278FBF222319
S1130AE049F08AE00E94CB018FB7F89499271092BD
S1130AF00F0206C08FB7F894992721E020930F02C4
S1130B008FBF08950F931F93082F162F80913A02D9
S1130B108130D9F0813038F0823009F44AC0833012
S1130B2009F028C159C0002309F458C11092F902F0
S1130B301092F8021092F6021092010310923E02F3
S1130B401092600210925F0239C1002309F046C17D
S1130B5080915F02909160020E94FC049093600275
S1130B6080935F0282E080933A021093010314346D
S1130B7009F000C125C18695869503C080911002B5
S1130B808695817009F0F6C080911002992311F0C6
S1130B90846001C082608093100280911002877E7D
S1130BA0886080931002109211028FEF80930502E7
S1130BB015C1002309F0DEC060933E0280915F02FC
S1130BC0909160020E94FC049093600280935F0203
S1130BD083E080933A0202C18091F6028F3F09F4C8
S1130BE0C9C0002309F461C0823008F4C3C0E09195
S1130BF0F802EE2309F4EBC04E2F4150E42FFF27F7
S1130C00E850FD4F82819927382F2227442311F47D
S1130C10E2E002C0E42FE150FF27E850FD4F82815B
S1130C209927282B392B80915F0290916002281715
S1130C30390709F09FC080E00E940A0530913E0206
S1130C408091560220915702982F9F5F963008F0AA
S1130C5090E0921771F0E82FFF27EA5AFD4F328394
S1130C608F5F80935602863010F0109256020E94D5
S1130C704A051092F9021092F80294E090933A0215
S1130C801092F6021092010310923E02109260023A
S1130C9010925F02809120028D7F809320028091C8
S1130CA00F02882309F49AC084C0823008F44EC02D
S1130CB0E091F902FF27E850FD4F8281482F552724
S1130CC0342F20911002822F869586958695837005
S1130CD099278130910519F00297F9F40EC0277E07
S1130CE0206120931002442311F485E001C080E0C8
S1130CF0809311023093050210C0809111028F324B
S1130D0060F4E0910A02F0910B02E80FF11D4083B8
S1130D10809111028F5F809311028091F902E82F74
S1130D20FF27E850FD4F62818F5F8093F902833083
S1130D3010F01092F902772780915F02909160027F
S1130D400E94FC049093600280935F028091F802F9
S1130D50E82FFF27E850FD4F12838F5F8093F8023E
S1130D60833010F01092F8028091F6028F5F809326
S1130D70F60234C01092F9021092F80214E01093B3
S1130D803A021092F6021092010310923E0210925F
S1130D90600210925F02809120028D7F8093200276
S1130DA081E00E940A0580910F02882329F01093A4
S1130DB03A020E945E0512C0002381F081E009CF4F
S1130DC080911002982F917080FDD5CED7CE80915E
S1130DD0FC029927382F222742E01CCF1F910F9144
S1130DE008951F920F920FB60F9211242F933F93E1
S1130DF04F935F936F937F938F939F93AF93BF931F
S1130E00EF93FF938091C80087FF42C06091CE00AA
S1130E10E0916102F0916202309719F180910E0322
S1130E2090910F03E80FF91F6083019690930F03CD
S1130E3080930E03209115033091160382179307B4
S1130E4038F110926202109261028091F1028330B3
S1130E50F9F08091C9008F778093C9001092F10254
S1130E6017C06E3719F460E081E010C08091200251
S1130E706D3721F48260809320020AC081FF05C08F
S1130E808D7F8093200280E2682780E00E948205A3
S1130E90FF91EF91BF91AF919F918F917F916F914E
S1130EA05F914F913F912F910F900FBE0F901F9024
S1130EB018952FB7F89433278093CE00E8ECF0E030
S1130EC08081806480832FBF0895FC0161157105C2
S1130ED019F481E090E0089580914C0290914D02C4
S1130EE0892B19F085E090E00895709300036093D6
S1130EF0FF02F0934D02E0934C0210923C021092D8
S1130F003B0281E080933D028091C800806480931D
S1130F10C8008091C90080648093C900808121E069
S1130F2030E030933C0220933B020E94590780E05A
S1130F3090E00895982F8D57823068F480912002B4
S1130F4081608093200280E289278093F5028DE7F7
S1130F508093350202C09093350261E070E085E32E
S1130F6092E00E946507992708958FB7F89499270E
S1130F70209120022E7F209320022EE72093350219
S1130F808FBF61E070E085E392E00E9465079927D6
S1130F90089578941F920F920FB60F921124FF9226
S1130FA00F931F932F933F934F935F936F937F936D
S1130FB08F939F93AF93BF93CF93DF93EF93FF935D
S1130FC020913B0230913C028091FF0290910003FA
S1130FD02817390780F4E0914C02F0914D02E20F9A
S1130FE0F31F80812F5F3F4F30933C0220933B02DD
S1130FF00E945907D1C010924D0210924C021092D7
S11310003D028091C9008F7B8093C900FFB6F8949C
S11310108091200280FF0EC08E7F809320028091F9
S1131020F5028093350261E070E085E392E00E946E
S11310306507AFC08091F402843009F48CC0853018
S113104040F4823021F18330B8F5813009F09CC03E
S11310500DC0863009F48DC0863008F483C0873013
S113106009F48EC0883009F08FC091C08091470286
S11310700E949A07082F83E08093F402609147024C
S113108080911303909114030E94FC0410C080917A
S113109009030E949A07082F83E08093F402609169
S11310A0090380911303909114030E94FC0490930C
S11310B014038093130366C0E0916302FF27EE0FCD
S11310C0FF1FE15BFD4F80810E949A07082F10915A
S11310D06302C12FDD27FE01EE0FFF1FE15BFD4F11
S11310E0608180911303909114030E94FC049093F7
S11310F0140380931303209141022F5F2093410234
S1131100113039F580911702E0911202F091130227
S1131110E80FF11DE0818F5F809317029091160212
S1131120981730F482E08093500240E050E002C00F
S11311304E2F5527DE01AA0FBB1FFD01E25BFD4FB9
S11311408081823031F02F3F21F0A15BBD4F4C9361
S113115019C084E012C0809113030E949A07082FDB
S113116085E00BC0809114030E949A07082F86E043
S113117004C00E94B507082F87E08093F40202C0E0
S113118088E003C0002329F089E08093F4020E94E0
S11311904A058F2D99278FBFFF91EF91DF91CF9152
S11311A0BF91AF919F918F917F916F915F914F917B
S11311B03F912F911F910F91FF900F900FBE0F90B1
S11311C01F901895EF920F931F93AE2D99E0899F6E
S11311D0F0011124EB59FD4F4083518362837383E3
S11311E00483158326833783A17080858E7F8A2BA1
S11311F08260808781E00E94CB011F910F91EF9064
S113120008959FB7F89480913A02882319F484E0F2
S113121080933A02892F99278FBF9FB7F8948091C2
S1131220F402882319F48AE08093F402892F992721
S11312308FBF0E945E0580E090E008958FB7F89418
S1131240282F3327922F8091F4028A3041F0809125
S11312503A02843021F02FBF89E090E008959FBFC7
S113126089E00E94CB0180E090E00895992780FFF7
S113127002C0749801C0749A81FF02C0759801C0BD
S1131280759A82FF02C0769801C0769A83FF02C0E5
S113129077980895779A0895982F969596959695A8
S11312A0E4E6F2E0E90FF11D877021E030E002C0CE
S11312B0220F331F8A95E2F78081822399270895AC
S11312C0CF93DF93882309F050C060930B03662308
S11312D011F41D994AC08FB7F894282F3327922F01
S11312E080910E02882311F581E080930E02109202
S11312F03F022FBF8FB7F894C82FDD279C2F809112
S11313000402813059F580910E02813021F485E088
S11313100E94CB0109C0823009F580913F0280937D
S1131320040283E080930E02CFBF1FC080913F026E
S1131330882311F42FBF19C0809138028F3F71F4B4
S1131340E0910302EE2351F00BC01092020204C09C
S1131350FF27E85CFD4F1082109203029FBF05C077
S1131360809102028F3FA1F7F0CFDF91CF910895D2
S11313700F931F930FB7F89411276093480270934B
S1131380490280934A0290934B0220934302309384
S1131390440240934502509346020E9438020FBF14
S11313A01F910F910895AF92BF92CF92DF92EF9267
S11313B0FF920F931F93F82E5A016B010E94F201C2
S11313C0AB01BC01EE24960185018F2D0E94E20839
S11313D01F910F91FF90EF90DF90CF90BF90AF904F
S11313E008951F920F920FB60F9211240F931F931B
S11313F02F933F934F935F936F937F938F939F9319
S1131400AF93BF93EF93FF9340917800509179008D
S113141078948FB7F894992720913702322F369514
S1131420317021708FBF222319F580917A00877F54
S113143080937A0080915302813021F0823009F048
S113144047C00AC0332351F05093F3024093F20291
S113145083E00E94CB013CC0332339F48DE790E054
S11314600E9476030E94C80333C01092530230C016
S11314700FB7F894112780917C000E94A2030FBF3C
S11314802FB7F894332780917A00582F5770482F3C
S11314904072087D042B052B8074077B082B0061A8
S11314A00F77802F992780937A00087D042B052BD2
S11314B007730061802F992780937A00087D042B9D
S11314C0052B077B0069802F992780937A002FBF13
S11314D0FF91EF91BF91AF919F918F917F916F9108
S11314E05F914F913F912F911F910F910F900FBEDC
S11314F00F901F9018958091F0021D9B0CC08823BB
S1131500A1F481E08093F00286E00E94CB0185E0A3
S11315100E94AB040895882341F01092F00287E002
S11315200E94CB0185E00E94C40408951F920F928B
S11315300FB60F9211242F933F934F935F936F93A2
S11315407F938F939F93AF93BF93EF93FF932091D8
S11315506B0093B1809152028927822385FF02C0D8
S11315600E947B0AFF91EF91BF91AF919F918F9160
S11315707F916F915F914F913F912F910F900FBE8B
S11315800F901F901895FF920F931F93CF93DF93A3
S1131590F82EEB018FB7F894282F332780910E0291
S11315A0833021F02FBF8FEF90E004C080910402BC
S11315B02FBF9927082F8FB7F894182F80910E0208
S11315C0833091F580910402801771F580910202B5
S11315D020E030E08F3F11F421E030E0232BF9F4D8
S11315E08F3F19F42FEF30E00EC0282F3327F90175
S11315F0E85CFD4F8081809302028F3F11F4809359
S113160003028FEF808320933F028FEF80930402C5
S113161081E080930E0285E00E94CB0105C081E049
S11316208093040210920E021FBF002309F062C0CF
S1131630FF2009F05FC080910B03882309F03BC0B1
S1131640C051DE4008F056C00FB7F89480E00E9405
S11316503609759880E593EC0E94760310E02FB765
S1131660F89433278EB190E289278EB92FBF2FB714
S1131670F89433278EB190E489278EB92FBF80E583
S113168093EC0E9476031F5F143049F780E00E94B8
S113169036098FEF80936400809365008093630024
S11316A083B7816083BF889583B78E7F83BF802F84
S11316B099278FBF1FC08130E9F4C158DC40D0F0B6
S11316C08FB7F89480E00E943609749880E593EC13
S11316D00E9476032FB7F89433278EB190E18927BF
S11316E08EB92FBF2FB7F89433278EB180588EB997
S11316F02FBFECCFDF91CF911F910F91FF900895F1
S1131700AF92BF92CF92DF92EF92FF920F931F930B
S1131710CF93DF935B016C01C0E0D0E0E5E6F2E03B
S1131720608561FF9BC02081318142815381E480C7
S1131730F58006811781D601C501821B930BA40B8A
S1131740B50B8E159F05A007B10708F487C060FF8D
S113175003C06D7F608708C02E0D3F1D401F511FC1
S11317602083318342835383C23009F462C0C3307F
S113177030F4CC2359F0C13009F09BC00DC0C33004
S113178009F45DC0C43009F094C05FC0559972C0BB
S11317904D996BC060E06AC08FB7F894282F332747
S11317A0122F80910D02882321F581E080930D0290
S11317B01092F7022FBF2FB7F894332780917A0045
S11317C0806880937A008FEF809300022FBF8FB7D9
S11317D0F894C82FDD2780910102813009F066C09A
S11317E080910D02813009F45EC0823009F451C049
S11317F05DC08091F702882309F453C080E00E9401
S11318004C09882319F085E090E007C080916402B8
S113181081608093640280E090E01FBF8093120394
S1131820882309F446C0809860E070E00E94C30AEF
S113183040C08FB7F89499272EB130E10BC08FB711
S1131840F89499272EB130E205C08FB7F894992700
S11318502EB130E423272EB98FBF2BC021963996A1
S1131860C530D10509F05CCF24C061E080E00E945E
S113187060091FC055980E94F201AB01BC0131E020
S1131880E32E01E010E020E030E080E00E94E20876
S113189010C08091F7028093010283E080930D02CF
S11318A005C02FBF04C082E00E94CB01CFBF1092BD
S11318B0120381E00E94CB01DF91CF911F910F9120
S11318C0FF90EF90DF90CF90BF90AF900895AF92CC
S11318D0BF92CF92DF92EF92FF920F931F93CF9319
S11318E0DF93873009F483C1883098F4833009F496
S11318F0CBC0843038F4813009F454C0823008F00D
S1131900ABC01DC0853009F44CC1863008F064C1F9
S113191019C18B3009F487C28C3038F4893009F44A
S113192053C28A3008F07DC26DC18D3009F4B0C253
S11319308D3008F486C28E3009F052C3E5C280911E
S11319403602882361F5209102033091030340910C
S1131950040350910503EFB7F894FF276091480200
S11319607091490280914A0290914B02E0904302A7
S1131970F090440200914502109146026E0D7F1DC5
S1131980801F911FEFBF2093020330930303409302
S1131990040350930503109236020E94B8090E9472
S11319A0F20145C00E94F2017B018C018091DF00AD
S11319B08E7F8093DF008FEF80930002AFEFAA2E1B
S11319C0AFEFBA2EAFEFCA2EAFE7DA2E60E0E5E64E
S11319D0F2E0808581FF1CC080819181A281B38166
S11319E0A8019701281B390B4A0B5B0BDA01C901CB
S11319F02481358146815781281B390B4A0B5B0BA7
S1131A002A153B054C055D051CF459016A0161E08A
S1131A10399632E0E239F307E1F6662309F4E0C2CD
S1131A201A141B041C041D042CF0C801B7010E94E5
S1131A30800BD6C2A0920203B0920303C0920403A7
S1131A40D092050381E080933602A6019501C80176
S1131A50B7010E94B809C4C22FB7F8943327809104
S1131A60F7028093010283E080930D022FBF8091DF
S1131A700102882309F0B4C281E0809353021092DA
S1131A800A030E94C803ACC210925302C090F2022F
S1131A90D090F30280910A03882309F0A1C28FB782
S1131AA0F894E82E80910D02833009F041C08091B2
S1131AB001028823E9F580916402882309F087C232
S1131AC078C2EF2DE695E695E695FF274F2D55272D
S1131AD0EC59FD4F9A012770307081E090E002C00C
S1131AE0880F991F2A95E2F7809520812823208367
S1131AF000930C0212C00F5F1F4F0130110511F447
S1131B0000E010E0F02E802F0E944C098823C9F6D3
S1131B100C171D0781F74FEF50E04093F7028FEF4A
S1131B208093010281E080930D0282E00E94CB0148
S1131B30EFBE109212038098D0922202C09221022A
S1131B4084E04CC2809112038823F1F46091210255
S1131B5070912202882799272CED35E040E050E06F
S1131B600E94ED11FAE09695879577956795FA9519
S1131B70D1F726E030E040E050E00E94ED11709390
S1131B8055026093540204C01092550210925402FC
S1131B906091540270915502809112030E94C30A0D
S1131BA01FC22FB7F894332780913F028093040219
S1131BB083E080930E022FBF8898809A0E94F201DE
S1131BC0AB01BC01E1E0EE2E01E010E020E030E0EA
S1131BD081E00E94E20804C20E941E09992788231A
S1131BE009F4FEC1893009F4FBC186E0F7C10E9403
S1131BF001099927882309F4F3C1893009F4F0C154
S1131C0087E0ECC18FB7F894109210032091F4028E
S1131C1040E0283009F441E030E0293009F431E0B3
S1131C20442311F4332351F01092F402E09163023F
S1131C30FF27EE0FFF1FE25BFD4F108299278FBF36
S1131C40442311F4332331F19FB7F89480910903AD
S1131C508F5F8093090380914702833479F4209144
S1131C60570280915602821779F0822F8F5F8093FA
S1131C705702863048F01092570206C0A0E0442371
S1131C8009F4A1E071E002C0A0E070E0892F992777
S1131C908FBF06C0222311F010E06CC0A0E070E0FA
S1131CA08FB7F894992720910F028FBF222341F018
S1131CB08FB7F89499272AE02093F4028FBF42C08B
S1131CC08FB7F894992760914E02409150028FBFCC
S1131CD08FB7F894282F332750E0909156028091C3
S1131CE05702981709F451E02FBF552341F5662395
S1131CF031F55FB7F89482E080934E028FB7F89481
S1131D00282F332740E0909156028091570298176C
S1131D1009F441E02FBF442311F080E006C0E091B4
S1131D205702FF27EA5AFD4F828180934F0283E4D2
S1131D308093470210926302852F99270EC0415069
S1131D40423010F010E00BC08FB7F894992725E4C7
S1131D502093470221E0209363028FBF11E0772391
S1131D6049F08FB7F8949927A09318028FBF8CE09D
S1131D700E94CB018FB7F894C82FDD278091F4021D
S1131D808A3021F40E945E05CFBF2AC1CFBF112340
S1131D9009F426C12FB7F894332710921403109234
S1131DA013031092410281E08093F4022FBF0E943A
S1131DB0B507882309F414C18FB7F894992729E04B
S1131DC02093F4028FBFEDC08091C9008F7B809374
S1131DD0C9008091C9008F778093C9001092F102E5
S1131DE010923D028091C90088608093C90080915F
S1131DF0C9008F7B8093C9008091C9008061809362
S1131E00C9008FEF809300028091C900806880939D
S1131E10C9008FB7F89499271092F40210923A02ED
S1131E2071C08BE0DBC08091C900877F8093C900BB
S1131E308091C9008F7E8093C9008FEF8093000248
S1131E40CFC010921502109214028FB7F8949927FC
S1131E50209118028FBF80911902811123E0809193
S1131E601A02882309F4BCC0823709F0B9C02223BE
S1131E7009F0B3C08FB7F89488E190E029E00FB679
S1131E80F894A895809360000FBE20936000FFCF64
S1131E908FB7F894992720911C02C0911D02D0910C
S1131EA01E0230911F02109125028FBF2223A1F040
S1131EB0223791F4333081F48881823569F4898141
S1131EC0833551F48A81843539F4D0932402C09344
S1131ED023028EE00E94CB018FB7F894E12FFF27F5
S1131EE0EE0FFF1FEA5FFD4FD183C08320911002E4
S1131EF0112311F02B7F01C02D7F2093100210922B
S1131F001B0299278FBF6CC0E0912302F091240239
S1131F108AE5808382E4818380E582834091230281
S1131F20509124028091140290911502892B09F09A
S1131F3054C02FB7F8943327109217021092180246
S1131F40509313024093120282E090E090931502A2
S1131F508093140242E740931A021092190283E01C
S1131F60809316022FBF8FB7F894282F33278091C0
S1131F70F4028A3011F42FBF17C02FBF9FB7F89413
S1131F8080915002882311F020E006C081E0809304
S1131F9050024093510221E0892F99278FBF2223B9
S1131FA019F00E944A051CC01092150210921402E6
S1131FB014C081E08093010210920D0280917A0096
S1131FC08F7780937A008FEF80930002B1CD809158
S1131FD00C02C82FDD278E018ECD8EE00E94CB012E
S1131FE0DF91CF911F910F91FF90EF90DF90CF90F1
S1131FF0BF90AF900895809106038F3FB1F0282FD2
S11320003327F901EA5DFD4F8081809306038F3FFA
S113201011F4809311038FEF80832F3F31F0822FCF
S11320200E94670C81E090E0089580E090E00895BC
S1132030EF92FF920F931F93FFB6F89414BE88E1BA
S11320400FB6F89480936000109260000FBE4FE0CA
S113205050E06FEF70E086E292E00E942E128FEF64
S113206080930603809311038091350180618093EE
S11320703501809134018061809334018091330172
S113208080618093330180913201806180933201B9
S113209085B7806885BF85B7806885BF80E88093F1
S11320A061008FE08093610091E09093810080E271
S11320B08093B6009093B100AEEFE0E0F0E06FEFF4
S11320C07FEFB0E08091B2008823E1F74091840073
S11320D0509185008091B2008034E1F72091840012
S11320E030918500241B350B6217730708F4B9017E
S11320F02E173F0708F4F901CF01861B970B0297AF
S113210030F0B0E06FEF7FEFE0E0F0E003C0BF5FDE
S1132110B23310F4A150B1F63093080320930703AF
S11321201092B1008091B100809381008091810070
S11321308093B6008091B600992783709070892BA4
S1132140C9F7809180008C7F80938000809181000A
S1132150807E82608093810080916F008160809393
S11321606F0080E28093B6008091DC008F7C8063F6
S11321708093DC008091DF0088608093DF00809191
S1132180DF008E7F8093DF008FEF809300028091C9
S1132190DC008E7F8093DC0010927A0080913901FC
S11321A08260809339016C9A6D9A6E9A6F9A749AD0
S11321B0759A769A779A569A5E9A5D98559A0E947D
S11321C0F201AB01BC0111E0E12E01E010E020E0DE
S11321D030E080E00E94E2080E94FB0F8823E1F7D0
S11321E012E006E06091070370910803882799279D
S11321F028E037E040E050E00E940C1221503040CB
S11322002093C400832F99278093C5001093C000A6
S11322100093C2001092C1002093CC008093CD00A3
S11322201093C8000093CA001092C90010924E0285
S1132230109250028AE08093F402109241021092AC
S11322404702109209031092140310921303109280
S11322501003109263021092F9021092F80284E0C3
S113226080933A021092F6021092010310923E02F9
S11322701092600210925F0210925702109256025E
S11322801D9B0AC081E08093F00286E00E94CB018E
S113229085E00E94AB0408C01092F00287E00E941F
S11322A0CB0185E00E94C4048FEF80933802109222
S11322B064020E94FB0F8823E1F78F2D99278FBFBB
S11322C078944AEF50E060E070E082E00E94D30925
S11322D044EF51E060E070E083E00E94D30948EEEF
S11322E053E060E070E084E00E94D3098FB7F89473
S11322F0A82FBB2757C08091000287FF4AC0809156
S1132300C10083FD0FC08091C10084FD0BC080918A
S1132310C90083FD07C08091C90084FD03C045E066
S113232050E002C040E050E080916F008E7219F0DE
S113233060E070E002C065E070E080917A0087FFA1
S113234003C021E030E002C025E030E08091DC00F1
S113235085FF03C0E3E0F0E002C0E5E0F0E0862F93
S1132360461708F4842F9927821708F4282F822F00
S113237099278E1708F4E82FFF27E093000283B70C
S1132380FF27E7FDF095E05EFC4FE491807F8E2B04
S113239083BF83B7816083BF78948895F89483B7AB
S11323A08E7F83BF809106038F3F09F4A4CF282F2B
S11323B03327F901EA5DFD4F8081809306038F3F47
S11323C011F4809311038FEF80832F3F09F493CF8F
S11323D0AFBF822F0E94670C89CF629FD001739F89
S11323E0F001829FE00DF11D649FE00DF11D929FAD
S11323F0F00D839FF00D749FF00D659FF00D9927EC
S1132400729FB00DE11DF91F639FB00DE11DF91F0F
S1132410BD01CF0111240895A1E21A2EAA1BBB1BF2
S1132420FD010DC0AA1FBB1FEE1FFF1FA217B3079C
S1132430E407F50720F0A21BB30BE40BF50B661FB2
S1132440771F881F991F1A9469F760957095809576
S113245090959B01AC01BD01CF010895DC0101C041
S10F24606D9341505040E0F70895FFCF09
S10F246CFF01FFFF01FF9202C102920277
S9030000FC
