S01900006275696C642F75636D696E692F6D61696E2E7372656373
S11300000C94BF010C94DE010C94DE010C94DE010F
S11300100C94DE010C94DE010C94DE010C94DE01E0
S11300200C94DE010C944A300C94DE010C94DE0135
S11300300C94DE010C94DE010C94DE010C94DE01C0
S11300400C94590C0C943B0C0C94450C0C944F0CD4
S11300500C94180C0C94DE010C94DE010C94DE015B
S11300600C94DE010C94970C0C94DE010C94A90CF6
S11300700C94DE010C948E0B0C94DE010C94DE01C6
S11300800C94DE010C94DE010C94DE010C94DE0170
S11300900C9433290C94DE010C94190F0C94DE019A
S11300A00C94DE010C94DE010C94DE010C94DE0150
S11300B00C94DE010C94DE010C94DE010C94DE0140
S11300C00C94DE010C94DE010C94DE010C94DE0130
S11300D00C94DE010C94DE010C94DE010C94DE0120
S11300E00C94DE010C94E12E0C94DE010C940F2F81
S11300F00C94F62D0C94852E0C94DE010C94572E42
S11301000C94B32E0C9484070C9424090C94242E80
S11301100C9406060C94DE010C94DE010C94DE01B2
S1130120626798679C67B667176846685B68676824
S1130130736858696269666974699D69D969DC691B
S1130140DF69726A756A786A7B6A536B566B736B84
S1130150766B796B246DA46F7C6D9B6D9E6D906E38
S1130160A06EA36EA66EB16EB46EB76EBA6EED6E6F
S1130170F06EF36EF66E456F00002110422063307E
S11301808440A550C660E770088129914AA16BB1EB
S11301908CC1ADD1CEE1EFF1311210027332522293
S11301A0B5529442F772D662399318837BB35AA33B
S11301B0BDD39CC3FFF3DEE3622443342004011463
S11301C0E664C774A44485546AA54BB5288509958B
S11301D0EEE5CFF5ACC58DD5533672261116300633
S11301E0D776F6669556B4465BB77AA719973887DB
S11301F0DFF7FEE79DD7BCC7C448E5588668A778F3
S11302004008611802282338CCC9EDD98EE9AFF92A
S1130210488969990AA92BB9F55AD44AB77A966AD2
S1130220711A500A333A122AFDDBDCCBBFFB9EEB7A
S1130230799B588B3BBB1AABA66C877CE44CC55CA2
S1130240222C033C600C411CAEED8FFDECCDCDDDCA
S11302502AAD0BBD688D499D977EB66ED55EF44E72
S1130260133E322E511E700E9FFFBEEFDDDFFCCF1A
S11302701BBF3AAF599F788F8891A981CAB1EBA16E
S11302800CD12DC14EF16FE18010A100C230E320EA
S11302900450254046706760B9839893FBA3DAB392
S11302A03DC31CD37FE35EF3B1029012F322D2323A
S11302B03542145277625672EAB5CBA5A895898562
S11302C06EF54FE52CD50DC5E234C324A01481048A
S11302D06674476424540544DBA7FAB79987B89732
S11302E05FE77EF71DC73CD7D326F2369106B016DA
S11302F057667676154634564CD96DC90EF92FE9F2
S1130300C899E9898AB9ABA9445865480678276829
S1130310C018E1088238A3287DCB5CDB3FEB1EFBD1
S1130320F98BD89BBBAB9ABB754A545A376A167A79
S1130330F10AD01AB32A923A2EFD0FED6CDD4DCDA1
S1130340AABD8BADE89DC98D267C076C645C454CC9
S1130350A23C832CE01CC10C1FEF3EFF5DCF7CDF71
S11303609BAFBABFD98FF89F176E367E554E745E19
S1130370932EB23ED10EF01E00020E060C04112480
S11303801FBECFEFD1E4DEBFCDBF16E0A0E0B2E0E8
S1130390E6EBF2EF00E00BBF02C007900D92AE3720
S11303A0B107D9F71FE2AEE7B6E001C01D92A5324E
S11303B0B107E1F70E94DA6F0C945A790C940000AB
S11303C0FC0120E030E007C082819381280F391FAF
S11303D00480F581E02D3097B9F7C9010895FB0138
S11303E05183408333832283958384830895CF92FA
S11303F0DF92EF92FF920F931F93CF93DF938C01C1
S1130400FB017A01690105C0E81BF90BE8010C81C5
S11304101D81E8018A819B81E817F907A8F71CC0B0
S1130420E8018A819B818E1B9F0BE7018E159F0536
S113043008F4EC01D8018D919C91AE01B6018E0FA8
S11304409F1F0E940476CC0EDD1EEC1AFD0AE80103
S11304500C811D81E0E0F0E00115110519F01E1476
S11304601F04F4F280E090E0DF91CF911F910F918F
S1130470FF90EF90DF90CF9008954F925F926F922C
S11304807F928F929F92AF92BF92CF92DF92EF9220
S1130490FF920F931F93CF93DF938C014B015A016B
S11304A03901CC24DD2404C06C01F80104811581D8
S11304B00115110519F44424552436C0F80182812C
S11304C093818C0D9D1D8816990670F7442455243C
S11304D028C07401EC18FD08F801828193818E19FB
S11304E09F09E5018A159B0508F4EC01F801608178
S11304F071816E0D7F1DAE01C3010E9404764C0E06
S11305005D1EF801048115810115110569F0CE0CF9
S1130510DF1CCC0EDD1E8C0E9D1EAC1ABD0A6C0EAB
S11305207D1E1A141B04ACF2C201DF91CF911F91FE
S11305300F91FF90EF90DF90CF90BF90AF909F907E
S11305408F907F906F905F904F900895EF92FF92FD
S11305500F931F93CF93DF93FC0120E030E040E042
S113056050E0A0E0B0E02EC0628173816115710596
S113057031F1C081D18100E010E01EC0888100FD0E
S11305800BC09927982F8827A82BB92BC80101964F
S11305908617970771F403C09927A82BB92B7D01FF
S11305A0C701AA27BB27280F391F4A1F5B1FA0E0DA
S11305B0B0E00F5F1F4F219606171707F9F6048066
S11305C0F581E02D309781F60BC0DA01C901A070E6
S11305D0B0709A0144275527280F391F4A1F5B1F03
S11305E0203080E0380781E0480780E0580768F74A
S11305F0C90180959095DF91CF911F910F91FF9044
S1130600EF900895EF92FF920F931F93CF93DF9390
S1130610CDB7DEB76A970FB6F894DEBF0FBECDBF75
S1130620E42E08969A87898740E150E05C874B87DF
S11306309E01215F3F4F3E872D874096988B8F8781
S11306405A8B498BCE0145969C8B8B8BCE010196A0
S11306509E8B8D8B88E090E0988F8F8B7A8F698F3B
S1130660CB010E94E001AA2797FDA095BA2FBC01F7
S1130670CD010E94A90469837A838B839C83FF2420
S113068000271127C801B7010E94A9046D837E8346
S11306908F839887CE0109960E94A6026A960FB6A8
S11306A0F894DEBF0FBECDBFDF91CF911F910F91A4
S11306B0FF90EF9008958CED95E09093BE068093A3
S11306C0BD060895ADEBB6E004969C012170307030
S11306D0280F391F02C0A40FB51F8D919C9111974B
S11306E0AC015F704217530710F097FF06C0CD01AD
S11306F08D5B96408C5D954074F38CE0A939B80706
S113070018F080E090E00895C90102979C013F70C1
S1130710306811963C932E93FD01E80FF91F481B96
S1130720590B5F7051834083CD0102960895CF9396
S1130730DF939C01EDEBF6E0C0E0D0E006C08081E1
S113074091819F70EF01E80FF91FCF010296821784
S1130750930739F0CF018D5B96408C5D95407CF317
S113076027C0808191819C013F70DF01A20FB31FDC
S11307709F7791838083CD018D5B96408C5D9540FE
S11307804CF48D919C9197FD05C09F70280F391FE3
S113079031832083209761F02881398137FD08C097
S11307A03F70808191819F70280F391F398328837E
S11307B0DF91CF910895EDEBF6E040E050E00BC0FF
S11307C02081318137FD04C0C9019F70480F591F32
S11307D03F70E20FF31FCF018D5B96408C5D954017
S11307E07CF3CA0108956F927F928F929F92AF9289
S11307F0BF92CF92DF92EF92FF920F931F93CF930A
S1130800DF93FB015A018B01040F151FDC01CC247B
S1130810DD2440E050E07AE398EF692E9FEF792ED3
S1130820600E711E6E167F0608F460C0ED01E9804B
S1130830FC9024E030E08FEF882E982ECCE0D0E0BE
S1130840C401022E02C0969587950A94E2F78E158C
S11308509F0530F042305105B1F42031310599F44F
S1130860C7010C2E02C0969587950A94E2F7682F6B
S11308706F708F7090700A9718F4862F805D02C095
S1130880862F895A81932C5F3F4F24972431310559
S1130890B9F68D919C911197892B21F5411551053C
S11308A059F471938D919C911197892B19F441E01E
S11308B050E002C042E050E087E0C816D10424F4BE
S11308C04130510509F071930894C11CD11C129652
S11308D088E0C816D10409F0A5CF4130510531F4A0
S11308E0719304C04130510539F7E4CF11920A19CC
S11308F01B09CF01801B910BDF91CF911F910F91A9
S1130900FF90EF90DF90CF90BF90AF909F908F902B
S11309107F906F900895DC018C918370823021F474
S1130920FD012181328113C0833019F020E030E0D1
S11309300EC0FD01319620E030E0AD01475F5F4F0E
S113094081919191280F391FE417F507C9F7C9015F
S11309500895EF92FF920F931F93FB01BC01882728
S113096099272F2F3E2F44275527A90133272227C4
S1130970E72EF62E002711272E293F29402B512B35
S1130980CA01B9011F910F91FF90EF9008959C0146
S1130990DB01FC0104C08D9181934150504041150D
S11309A05105C9F7C90108958F929F92AF92BF92E2
S11309B0CF92DF92EF92FF920F931F93CF93DF9327
S11309C06C014B01892B09F4A3C06115710509F46D
S11309D09FC080E1EB0119928A95E9F7D60160E0A6
S11309E070E090E046C02A3301F1822F80538A30B0
S11309F030F4332727FD3095205330400EC0422F6A
S1130A00552747FD50952154263020F49A01275349
S1130A10304003C09A012755304044E0660F771FE9
S1130A204A95E1F7622B732B0DC0E92FFF27EE0FD8
S1130A30FF1FE80DF91D072F162F118300839F5FF9
S1130A4060E070E0FD013196ED012981222359F423
S1130A50E92FFF27EE0FFF1FE80DF91DE72EF62EF5
S1130A60F182E08255C08C918A3311F42A3341F02B
S1130A70DF012C91222309F0B6CFFD0101C031968C
S1130A8080818823E1F7DF01119760E070E017E0CF
S1130A9090E03BC02C912A3311F1822F80538A308D
S1130AA030F4332727FD3095205330400EC0422FB9
S1130AB0552747FD50952154263020F49A01275399
S1130AC0304003C09A0127553040092E02C0220F3E
S1130AD0331F0A94E2F7622B732B9C5F0EC0E12F45
S1130AE0FF27EE0FFF1FE80DF91DA72EB62EB182CA
S1130AF0A082115060E070E090E01197FD018181C7
S1130B008A3319F48C918A3319F0CA16DB0610F271
S1130B10DF91CF911F910F91FF90EF90DF90CF90D5
S1130B20BF90AF909F908F900895FC017183608374
S1130B3053834283358324830895CF92DF92EF92C7
S1130B40FF920F931F93CF93DF938C016B01EE24DD
S1130B50FF241AC0F80182819381E89EE001E99E96
S1130B60D00DF89ED00D112480819181C80FD91F1A
S1130B70CE01F6010995FFEF8F3F9F0759F00197CA
S1130B8059F00894E11CF11CF80184819581E81660
S1130B90F90600F3C0E0D0E0CE01DF91CF911F91C0
S1130BA00F91FF90EF90DF90CF900895EF92FF9216
S1130BB00F931F93CF93DF93EC017B0100E010E0D0
S1130BC012C08A819B819C01029FC001039F900DEA
S1130BD0129F900D112428813981820F931FF701F0
S1130BE009950F5F1F4F8C819D810817190748F3E2
S1130BF0DF91CF911F910F91FF90EF9008958FB7E0
S1130C00F894992708958FBF089508951F920F921D
S1130C100FB60F9211248F93809150188F5F809399
S1130C2050188F910F900FBE0F901F901895282F7A
S1130C309FB7F894E82FFF27E157F14F80818F3F4A
S1130C4081F4E0915629E21771F40BC02093C2217C
S1130C5004C0FF27E157F14F20832093562920E059
S1130C6007C025E005C08091C2218F3F91F7EECFE8
S1130C70892F99278FBF822F9927089582E00E9498
S1130C8017069927089586E00E9417069927089564
S1130C9087E00E941706992708958EE00E941706A0
S1130CA09927089580E10E9417069927089583E102
S1130CB00E9417069927089580E20E941706992733
S1130CC008958DE10E941706992708958EE10E94E8
S1130CD01706992708958AE10E941706992708950F
S1130CE085E10E941706992708958AE20E94170653
S1130CF09927089589E10E941706992708954FB707
S1130D00F89455272091E100622F2091E200722F80
S1130D102091E300822F2091E400922F4FBF089589
S1130D200F931F930FB7F894109150180E947F06E9
S1130D309B01AC018091E00083FF05C01F5F0E940E
S1130D407F069B01AC01802F99278FBF612F7727E6
S1130D5088279927FAE1660F771F881F991FFA954C
S1130D60D1F7E6E05695479537952795EA95D1F75B
S1130D70622B732B842B952B1F910F910895AF92A7
S1130D80BF92CF92DF92EF92FF920F931F930E9434
S1130D9090067B018C0120914112309142124091C6
S1130DA04312509144128091ED119091EE11A09153
S1130DB0EF11B091F011820F931FA41FB51FE2161B
S1130DC0F3060407150730F082179307A407B50745
S1130DD058F005C082179307A407B507E0F5E81695
S1130DE0F9060A071B07B8F59C01AD012E193F0946
S1130DF0400B510B213060E0360760E0460762E0AB
S1130E00560768F180E090E0A0E0B2E0E80EF91E39
S1130E100A1F1B1FE0924112F092421200934312E8
S1130E201093441280E090E0A0E0BEEFE80EF91EBB
S1130E300A1F1B1F20503040404052402093ED11A8
S1130E403093EE114093EF115093F01120E030E015
S1130E5040E052E014C020E030E040E050E08093F5
S1130E60411290934212A0934312B09344121092F1
S1130E70ED111092EE111092EF111092F011590130
S1130E806A01B6E0AA0CBB1CCC1CDD1CBA95D1F7D8
S1130E90A6E0EE0CFF1C001F111FAA95D1F70E94BB
S1130EA07F069B01AC012E5F3F4F4F4F5F4FDA012E
S1130EB0C9018E199F09A00BB10B8A159B05AC05BE
S1130EC0BD0530F4A80197012A0D3B1D4C1D5D1D85
S1130ED05093F8004093F7003093F6002093F50008
S1130EE081E08093E0008091DF0081608093DF00E7
S1130EF08FEF8093AF041F910F91FF90EF90DF90DD
S1130F00CF90BF90AF9008951F920F920FB60F929B
S1130F1011242F933F934F935F936F937F938F93FA
S1130F209F93AF93BF93EF93FF938091DF008E7FE6
S1130F308093DF008FEF8093AF048091ED11909147
S1130F40EE11A091EF11B091F0110097A105B10538
S1130F5021F480E00E94170602C00E94BF06FF91A0
S1130F60EF91BF91AF919F918F917F916F915F911D
S1130F704F913F912F910F900FBE0F901F90189596
S1130F80AF92BF92CF92DF92EF92FF920F931F9393
S1130F900E9490067B018C0120919A0C30919B0C4D
S1130FA040919C0C50919D0C8091CA0E9091CB0E57
S1130FB0A091CC0EB091CD0E820F931FA41FB51F2C
S1130FC0E216F3060407150730F082179307A40707
S1130FD0B50758F005C082179307A407B507E0F5D5
S1130FE0E816F9060A071B07B8F59C01AD012E198E
S1130FF03F09400B510B213060E0360760E04607A3
S113100062E0560768F180E090E0A0E0B2E0E80E0C
S1131010F91E0A1F1B1FE0929A0CF0929B0C00937E
S11310209C0C10939D0C80E090E0A0E0BEEFE80ED5
S1131030F91E0A1F1B1F205030404040524020938D
S1131040CA0E3093CB0E4093CC0E5093CD0E20E0BD
S113105030E040E052E014C020E030E040E050E0F6
S113106080939A0C90939B0CA0939C0CB0939D0C32
S11310701092CA0E1092CB0E1092CC0E1092CD0E7E
S113108059016A0196E0AA0CBB1CCC1CDD1C9A9584
S1131090D1F786E0EE0CFF1C001F111F8A95D1F7D3
S11310A00E947F069B01AC012E5F3F4F4F4F5F4F65
S11310B0DA01C9018E199F09A00BB10B8A159B0592
S11310C0AC05BD0530F4A80197012A0D3B1D4C1D4C
S11310D05D1D5093F4004093F3003093F20020938D
S11310E0F10082E08093E0008091DF0082608093D1
S11310F0DF008FEF8093AF041F910F91FF90EF906B
S1131100DF90CF90BF90AF9008955F926F927F92DF
S11311108F929F92AF92BF92CF92DF92EF92FF9203
S11311200F931F93CF93DF938091D81A882309F0EC
S11311307BC00E9490063B014C0166EC7AE1EB0116
S113114060964FEFA42E4FEFB42E4FEFC42E4FEF07
S1131150D42E5524FB0140C088818823C9F18081A5
S11311609181A281B38184017301E81AF90A0A0BFF
S11311701B0B2481358146815781E216F30604074F
S1131180150788F0820F931FA41FB51F80839183D6
S1131190A283B383148215821682178220E030E082
S11311A040E050E011C060827182828293822E19E5
S11311B03F09400B510B2483358346835783A21682
S11311C0B306C406D50620F059016A0131E0532E56
S11311D0685F7F4F389621968AE1663D780709F06B
S11311E0BBCF5520C9F0D7FE04C0D694C794B7949A
S11311F0A79460929A0C70929B0C80929C0C909293
S11312009D0CA092CA0EB092CB0EC092CC0ED0927E
S1131210CD0E0E94C00708C08091DF008D7F8093AF
S1131220DF008FEF8093AF04DF91CF911F910F9177
S1131230FF90EF90DF90CF90BF90AF909F908F90F2
S11312407F906F905F9008951F920F920FB60F9248
S11312501124BF92CF92DF92EF92FF920F931F93CC
S11312602F933F934F935F936F937F938F939F93AA
S1131270AF93BF93CF93DF93EF93FF938091DF00FE
S11312808D7F8093DF008FEF8093AF048091CA0E2F
S11312909091CB0EA091CC0EB091CD0E0097A105EC
S11312A0B10509F043C081E08093D81ABB242B2DEB
S11312B03327E901CA53D54E8889882371F18901FE
S11312C063E0000F111F6A95E1F70A53154EF80108
S11312D0C080D180E280F3800E9490066C197D0961
S11312E08E099F09F801248135814681578162174F
S11312F073078407950788F0188ABB2021F0F1E072
S1131300BF1659F406C086E10E94170651E0B52EB7
S1131310CECF88E10E94170604C0B39481E08B15F8
S113132030F61092D81A0E94850802C00E94C007A5
S1131330FF91EF91DF91CF91BF91AF919F918F91E9
S11313407F916F915F914F913F912F911F910F91D9
S1131350FF90EF90DF90CF90BF900F900FBE0F9053
S11313601F901895FC0182819927982F8827218145
S11313703327822B932B75E0969587957A95E1F721
S1131380817090700895FC0140E050E082819927BB
S1131390982F882721813327822B932B87749C7C59
S11313A08154984811F441E050E0CA010895FC01C9
S11313B087819927982F882726813327822B932B7F
S11313C00895EF92FF920F931F93CF93DF937B01C6
S11313D08C018FB7F894C82FDD270E947F069B01EC
S11313E0AC01C801B701623071058105910520F493
S11313F062E070E080E090E0260F371F481F591F1D
S1131400DA01C901B093F000A093EF009093EE00CD
S11314102093ED0084E08093E0008091DF008460FD
S11314208093DF008FEF8093AF04CFBFDF91CF9124
S11314301F910F91FF90EF900895FB01EA57FF4F22
S113144021E030E002C0220F331F8A95E2F7209595
S1131450808182238083089520E030E0FC01818133
S11314608770823011F421E030E0C9010895CF93F0
S1131470DF93EC010E94B2098823D1F0CE010E94CF
S1131480C3098823A9F0CE010E94D7092FB7F89485
S113149033274091EC045091ED042FBF20E08417D2
S11314A0950709F021E081E02827822F992702C0BF
S11314B080E090E0DF91CF910895FB01EA57FF4F60
S11314C021E030E002C0220F331F8A95E2F78081C9
S11314D0822399270895EF92FF920F931F937C0123
S11314E08FB7F89499270091701A1091711A0F5EB2
S11314F01E4F1093711A0093701A015111408FBF3F
S113150082E20E941706C801B7010E9459754496E9
S11315101F910F91FF90EF9008958091EA1120910F
S1131520840030918500B09B05C08F5F20918400BA
S11315303091850099279927869597958827369520
S11315402795822B932B0895FF920F931F93CF938C
S1131550DF93EC01FFB6F8940E948D0A8C0180E8B9
S1131560C130D80768F0C050D0480E948D0A801B53
S1131570910BC817D907C8F70C0F1D1FC0E0D0E89E
S11315800E948D0A801B910BC817D907C8F78F2DAD
S113159099278FBFDF91CF911F910F91FF900895ED
S11315A080917C0090917B008F7199270895909190
S11315B07C00907E282F2F71922B90937C0085FFC6
S11315C004C080917B00886003C080917B00877F8A
S11315D080937B000895ECE7F0E090818295880F7A
S11315E0880F807C9F73982B90830895DF92EF92ED
S11315F0FF920F931F938091E321882321F08FE1C1
S1131600FF24EE2405C078E0F72E62E0E62E82E0A7
S1131610082FDFB6F8948091C40E8E7F8093C40E99
S113162010917C000E94D00A282F129516951695C9
S11316301370E11619F080E090E00AC0802F885002
S1131640863120F480E090E0021711F481E090E00C
S1131650982F9170990F8091C40E8170202F220FC2
S1131660220F892B822B8093C40E802F0E94D70ACD
S113167080917C008F7D80937C008E2D0E94EB0AEC
S11316802091C40E217038E0F31681F58091C321B6
S11316909091C42131E68038930718F087E090E0F8
S11316A024C030E3803C930718F086E090E01DC02E
S11316B038E18034930718F085E090E016C03CE0F0
S11316C08030930718F084E090E00FC036E080305B
S11316D0930718F083E090E008C08050934018F01E
S11316E082E090E002C080E090E0F82E87E0F822EB
S11316F0187F1F2918612295220F207E1F7D122B2F
S1131700106C812F992780937A008D2D99278FBF94
S11317101F910F91FF90EF90DF9008951F920F9209
S11317200FB60F9211240F931F932F933F934F9350
S11317305F936F937F938F939F93AF93BF93EF9335
S1131740FF93409178005091790078948FB7F89482
S113175099272091C40E322F3695317021708FBF96
S1131760222319F580917A00877F80937A008091F3
S1131770A214813021F0823009F047C00AC033231B
S113178051F05093671A4093661A83E00E9417063B
S11317903CC0332339F48DE790E00E94A40A0E94F0
S11317A0F60A33C01092A21430C00FB7F894112770
S11317B080917C000E94D00A0FBF2FB7F894332782
S11317C080917A00582F5770482F4072087D042B5F
S11317D0052B8074077B082B00610F77802F9927D6
S11317E080937A00087D042B052B07730061802FFA
S11317F0992780937A00087D042B052B077B0069C9
S1131800802F992780937A002FBFFF91EF91BF918A
S1131810AF919F918F917F916F915F914F913F9184
S11318202F911F910F910F900FBE0F901F9018953D
S11318301F920F920FB60F9211248F939F93809152
S11318406622909167220196909367228093662284
S1131850892B29F48091EC118F5F8093EC11809196
S1131860EA118F5F8093EA119F918F910F900FBEC1
S11318700F901F9018951F920F920FB60F9211247C
S11318800F900FBE0F901F9018951F920F920FB6D6
S11318900F9211240F900FBE0F901F9018951F9256
S11318A00F920FB60F9211240F900FBE0F901F903E
S11318B018951F920F920FB60F9211240F900FBE1E
S11318C00F901F90189521E030E002C0220F331FC3
S11318D08A95E2F780914C12822B80934C12EBE6AE
S11318E0F0E08081282B2083E8E6F0E080818160AD
S11318F0808380E090E0089521E030E002C0220F70
S1131900331F8A95E2F7922F909580914C12892388
S113191080934C12EBE6F0E08081282B2083E8E6EC
S1131920F0E080818160808380E090E008951F92E0
S11319300F920FB60F9211248F938091C00087FFEE
S113194002C08091C6008F910F900FBE0F901F9020
S1131950189578941F920F920FB60F9211240F903E
S11319600FBE0F901F901895E8E7F1E06927660F06
S1131970F11DE60FF11DC895982F802D3196C8955D
S113198090250895982F80919306882389F59923AB
S113199079F531E0309393068091B40480939406F2
S11319A020918806822F81708093840D8091B904E0
S11319B09091BA0490939606809395068091890637
S11319C08093970632273170267EE32FFF27EE0F90
S11319D0FF1FEB54FB4F808191819093BA04809355
S11319E0B904232B209388068DE00E9417060895DE
S11319F08091880680FF02C08B7F01C08D7F809319
S1131A00880608951F931FB7F8948091202988238E
S1131A1041F488E00E941706882319F481E080933A
S1131A202029812F99278FBF1F9108959FB7F8947C
S1131A308091651A8A3011F020E006C020E0809180
S1131A40FC0E843009F421E0892F99278FBF2223CB
S1131A5049F08AE00E9417068FB7F89499271092EC
S1131A60870606C08FB7F894992721E0209387064C
S1131A708FBF08950F931F93082F162F8091FC0E8C
S1131A808130D9F0813038F0823009F44AC0833093
S1131A9009F028C159C0002309F458C11092A321A8
S1131AA01092A2211092971A1092B5211092CE1181
S1131AB0109252181092511839C1002309F046C1EE
S1131AC080915118909152180E94B40C909352181E
S1131AD08093511882E08093FC0E1093B521143446
S1131AE009F000C125C18695869503C080918806BA
S1131AF08695817009F0F6C080918806992311F0CB
S1131B00846001C082608093880680918806877E05
S1131B10886080938806109289068FEF8093B404BE
S1131B2015C1002309F0DEC06093CE1180915118D5
S1131B30909152180E94B40C9093521880935118AB
S1131B4083E08093FC0E02C18091971A8F3F09F4C1
S1131B50C9C0002309F461C0823008F4C3C0E09115
S1131B60A221EE2309F4EBC04E2F4150E42FFF27AE
S1131B70EE55FE4D82819927382F2227442311F4F4
S1131B80E2E002C0E42FE150FF27EE55FE4D8281D2
S1131B909927282B392B8091511890915218281786
S1131BA0390709F09FC080E00E94C20C3091CE1129
S1131BB08091301820913118982F9F5F963008F04B
S1131BC090E0921771F0E82FFF27E05DF74E328323
S1131BD08F5F80933018863010F0109230180E9476
S1131BE0020D1092A3211092A22194E09093FC0E76
S1131BF01092971A1092B5211092CE111092521889
S1131C0010925118809198068D7F80939806809148
S1131C108706882309F49AC084C0823008F44EC031
S1131C20E091A321FF27EE55FE4D8281482F5527D1
S1131C30342F20918806822F869586958695837009
S1131C4099278130910519F00297F9F40EC0277E87
S1131C50206120938806442311F485E001C080E0CC
S1131C60809389063093B40410C080918906893822
S1131C7060F4E091B904F091BA04E80FF11D4083D7
S1131C80809189068F5F809389068091A321E82F34
S1131C90FF27EE55FE4D62818F5F8093A321833031
S1131CA010F01092A3217727809151189091521827
S1131CB00E94B40C90935218809351188091A221E1
S1131CC0E82FFF27EE55FE4D12838F5F8093A221EC
S1131CD0833010F01092A2218091971A8F5F809325
S1131CE0971A34C01092A3211092A22114E01093E9
S1131CF0FC0E1092971A1092B5211092CE111092E8
S1131D00521810925118809198068D7F80939806EE
S1131D1081E00E94C20C80918706882329F01093E9
S1131D20FC0E0E94160D12C0002381F081E009CF41
S1131D3080918806982F917080FDD5CED7CE809162
S1131D40A6219927382F222742E01CCF1F910F91FB
S1131D5008952FB7F89433278093CE00E8ECF0E091
S1131D608081806480832FBF0895FC016115710513
S1131D7019F481E090E00895809145129091461203
S1131D80892B19F085E090E008957093AA2160935F
S1131D90A921F0934612E09345121092FE0E109280
S1131DA0FD0E81E08093FF0E8091C80080648093D3
S1131DB0C8008091C90080648093C900808121E0BB
S1131DC030E03093FE0E2093FD0E0E94A90E80E0B9
S1131DD090E00895982F8D57823068F4809198068A
S1131DE081608093980680E289278093761A8DE734
S1131DF08093BB0E02C09093BB0E61E070E08BEB4E
S1131E009EE00E94B50E992708958FB7F8949927FC
S1131E10209198062E7F209398062EE72093BB0EE0
S1131E208FBF61E070E08BEB9EE00E94B50E9927B6
S1131E30089578941F920F920FB60F921124FF9277
S1131E400F931F932F933F934F935F936F937F93BE
S1131E508F939F93AF93BF93CF93DF93EF93FF93AE
S1131E602091FD0E3091FE0E8091A9219091AA211E
S1131E702817390780F4E0914512F0914612E20FD9
S1131E80F31F80812F5F3F4F3093FE0E2093FD0E92
S1131E900E94A90EDAC010924612109245121092B6
S1131EA0FF0E8091C9008F7B8093C9008FB7F8948F
S1131EB099271092D91A8FBF84E10E941706FFB6A2
S1131EC0F8948091980680FF0EC08E7F80939806C8
S1131ED08091761A8093BB0E61E070E08BEB9EE0FC
S1131EE00E94B50EAFC08091651A843009F48CC08D
S1131EF0853040F4823021F18330B8F5813009F027
S1131F009CC00DC0863009F48DC0863008F483C0AF
S1131F10873009F48EC0883009F08FC091C0809159
S1131F2040120E94EA0E082F83E08093651A6091A4
S1131F30401280918229909183290E94B40C10C090
S1131F408091DA210E94EA0E082F83E08093651ABB
S1131F506091DA2180918229909183290E94B40CA6
S1131F60909383298093822966C0E0918418FF2787
S1131F70EE0FFF1FE75BFD4E80810E94EA0E082FE3
S1131F8010918418C12FDD27FE01EE0FFF1FE75BC0
S1131F90FD4E608180918229909183290E94B40C26
S1131FA090938329809382292091EB112F5F2093B2
S1131FB0EB11113039F580918F06E0918A06F0918A
S1131FC08B06E80FF11DE0818F5F80938F0690915F
S1131FD08E06981730F482E080934A1240E050E075
S1131FE002C04E2F5527DE01AA0FBB1FFD01E85B7F
S1131FF0FD4E8081823031F02F3F21F0A75BBD4E32
S11320004C9319C084E012C0809182290E94EA0E88
S1132010082F85E00BC0809183290E94EA0E082FC7
S113202086E004C00E94050F082F87E08093651A9C
S113203002C088E003C0002329F089E08093651A78
S11320400E94020D8F2D99278FBFFF91EF91DF9191
S1132050CF91BF91AF919F918F917F916F915F913C
S11320604F913F912F911F910F91FF900F900FBEB1
S11320700F901F9018952F923F924F925F926F92FC
S11320807F928F929F92AF92BF92CF92DF92EF9204
S1132090FF920F931F93CF93DF93CDB7DEB7E097F3
S11320A00FB6F894DEBF0FBECDBF8091A904909106
S11320B0AA04888B892F99278F871E868FE48D87A2
S11320C08CE48C878DE68B8782E18A871986DE0112
S11320D09996FE01399688E001900D928150E1F7BE
S11320E0DE011196FE01B99688E001900D928150AF
S11320F0E1F7DE015196FE01319688E001900D92E0
S11321008150E1F7DE019196FE01719688E001901D
S11321100D928150E1F799A188A589A398A79AA166
S11321208FA18AA39FA39BA18EA18BA39EA39CA1F5
S11321308DA18CA39DA3DE015996FE01B19688E082
S113214001900D928150E1F798A1298C3A8C4B8C27
S11321505C8C6D8C7E8C8F8C222D332D442D552DD3
S1132160662D772D882DE0960FB6F894DEBF0FBE4E
S1132170CDBFDF91CF911F910F91FF90EF90DF9032
S1132180CF90BF90AF909F908F907F906F905F9013
S11321904F903F902F900895AC012091E50C25308D
S11321A018F081E090E008958091691A682F620F19
S11321B0712D711DFB016530710508F03597EE0F27
S11321C0FF1FE052F14F518340832F5F2093E50CB2
S11321D080E090E008950F931F93CF93DF93DC0189
S11321E09B014091162A5091172A8D919C91119729
S11321F08E5F9048B9F5FD018285938580509F4F8D
S1132200C1F4FD01848595858E3F910591F4018586
S113221010855D7F04171507B9F5F90180818C7F5E
S113222082608083FD01C785D685F901D283C1838D
S113223016C0F901808183608083E901FD013F9626
S1132240AD01495F5F4F8081319789832196E417FF
S1132250F507C9F7F901808592E08927808780E036
S113226090E014C08C918F3F79F4FD0181818F70CF
S1132270823051F4F90180818C7F826080838FEFFA
S11322809FEF92838183EBCF81E090E0DF91CF9148
S11322901F910F910895AC012091AD142C3018F0CA
S11322A081E090E0089580916522682F620F712D7E
S11322B0711DFB016C30710508F03C97EE0FFF1F98
S11322C0E35AF64D518340832F5F2093AD1480E091
S11322D090E00895AC012091AF142C3018F081E007
S11322E090E008958091E911682F620F712D711D9E
S11322F0FB016C30710508F03C97EE0FFF1FE856A8
S1132300F54E518340832F5F2093AF1480E090E01B
S11323100895AF92BF92CF92DF92EF92FF920F9304
S11323201F93CF93DF93FC019B017A0108E010E037
S1132330CB0168E070E00E946D755B016F01C60E11
S1132340D71EC90168E070E00E946D759801281BD2
S1132350390BCFEFD0E0DE0102C0AA0FBB1F2A95D4
S1132360E2F7CD01D6012C91282329F5C70168E0B5
S113237070E00E946D759B01E60FF71FC70168E0CE
S113238070E00E946D75081B190B02C0CC0FDD1F95
S11323900A95E2F780818C2371F4F601B50105C03A
S11323A08191882341F46F5F7F4F62177307C4F3F1
S11323B080E090E002C08FEF9FEFDF91CF911F91FB
S11323C00F91FF90EF90DF90CF90BF90AF90089562
S11323D0DC01FC018681815086838823C1F49091BD
S11323E0CE0E9330A0F48091FF0C282F290F312DAD
S11323F0311DF9012330310508F03397EE0FFF1F2B
S1132400E352FE4DB183A0839F5F9093CE0E089557
S1132410EF92FF920F931F93CF93DF938091C20E9D
S1132420882309F068C0A4EAB4E120E030E098E130
S1132430E92E9AE2F92E0BE712E24FE85AE1C2E0E4
S1132440D0E064EC7CE02115310509F441C0213071
S11324503105B1F111961C921E922115310521F01E
S11324602130310521F438C088E090E037C0FD0107
S1132470138212821BC0F182E08211C01183008397
S1132480ED91FC9111970EC0118210822115310536
S113249031F02130310531F080E090E005C082E078
S11324A095E002C084E095E0938382832F5F3F4FE1
S11324B014962230310539F681E08093C20E1BC098
S11324C011965C934E93FD01D383C283FA01D6CF58
S11324D011967C936E93C8CF82E090E0FD019383C4
S11324E08283ED91FC9111972115310521F2213060
S11324F0310551F6C3CFDF91CF911F910F91FF901A
S1132500EF900895BF92CF92DF92EF92FF920F93D4
S11325101F93CF93DF93EC017B016A0189018FB78D
S1132520F894B82E8091C20E882311F40E940812E8
S1132530FE01EE0FFF1FEE0FFF1FEC55FB4EA081B7
S1132540B18182819381880F991F880F991F8A0F07
S11325509B1F9801E0E0F0E00CC0ED014A815B8133
S1132560141615062CF44217530710F0FD019A01B6
S11325701496A817B90788F3309721F4BFBE8AE0F0
S113258090E016C080819181D7018D939C938081C6
S1132590918122813381820F931FE601998388837D
S11325A0309521953F4F33832283BFBE80E090E076
S11325B0DF91CF911F910F91FF90EF90DF90CF901B
S11325C0BF900895BF92CF92DF92EF92FF920F9344
S11325D01F93CF93DF938C016B01B42E790120916B
S11325E06B0630916C06C5E5D8E104C08C81882364
S11325F021F02596C217D307C8F3C217D30708F0F2
S113260043C0AE014E5F5F4F20E130E0BE0180E089
S113261090E00E9482128823B9F591E09C83BB204C
S113262011F081E88C838091BB04882319F420E0A5
S113263030E006C080E0B11081E08927282F3327DD
S1132640E114F10429F088819981F7019183808351
S1132650A881B981C114D10429F08A819B81E60142
S1132660998388830F3F110509F028F4222319F078
S11326700D93CD010BC0812F9927FD018193ED01AD
S11326800983CF01019602C080E090E0DF91CF91F1
S11326901F910F91FF90EF90DF90CF90BF9008951E
S11326A0AC0120916B0630916C06E5E5F8E106C0BB
S11326B0808191818417950731F03596E217F307ED
S11326C0B8F3E0E0F0E0CF010895EF92FF920F93AA
S11326D01F93A82FEFB6F894FF24BB2786EC9AE14A
S11326E0FD01EE0FFF1FEE0FFF1FEE0FFF1FE80FA0
S11326F0F91F408351836283738304831583268384
S11327003783A80FB91F81E0FD01808B0E948508E3
S1132710EFBE1F910F91FF90EF900895CF93DF9339
S113272020916D0630916E06C4EDD1E101C025966D
S1132730C217D30718F48C818823C9F7C217D307AB
S113274018F08AE090E025C0AE014E5F5F4F22E1B1
S113275030E0BE0181E090E00E9482129927882334
S113276011F0992716C0888199819093B20C8093B7
S1132770B10C2A813B81281B390B309322292093E9
S11327802129D0938218C093811881E08C8380E042
S113279090E0DF91CF9108951F931FB7F894809133
S11327A0811890918218892B11F40E948E13812F25
S11327B099278FBF1F9108958F929F92BF92CF92B6
S11327C0DF92EF92FF920F931F93CF93DF936C01ED
S11327D0FC01EE0FFF1FEE0FFF1FEC55FB4EA08117
S11327E0B18102811381000F111F000F111F0A0F05
S11327F01B1F8FB7F894B82E01C01496A017B10709
S113280030F48D919C91119768177907B1F7A0174F
S1132810B10721F4BFBE86E090E084C0ED018A8157
S11328209B8197FD04C0BFBE89E090E07BC090957A
S113283081959F4FFD0193838283F601EE0FFF1F65
S1132840EE0FFF1FEC55FB4E808191818A179B0789
S113285048F4FD013497828193811816190614F403
S1132860BF0101C0BD01FD013496E017F10728F452
S113287082819381181619060CF0FD016E177F07EB
S113288008F044C0AF01461B570B55954795559525
S113289047957A01EE0CFF1CEE0CFF1C4B018E0CCD
S11328A09F1CFB010AC0EB018A819B812681378131
S11328B0820F931F9B838A83FD01DF011496E81521
S11328C0F90588F3ED01CA01880F991F880F991F34
S11328D0FD01E81BF90B0DC088819981AA81BB8198
S11328E081939193A193B1938A819B81892B21F048
S11328F02496C017D10780F3FE01EE19FF0903C027
S1132900138212823496EC17FD07D0F3FB01828107
S11329109381BFBEF1E0CF16D10411F40E94CC1311
S113292080E090E0DF91CF911F910F91FF90EF90A5
S1132930DF90CF90BF909F908F900895AC0120912D
S1132940BE0E233018F081E090E00895809186292E
S1132950682F620F712D711DFB016330710508F042
S11329603397EE0FFF1FE554F34F518340832F5FDE
S11329702093BE0E80E090E008952091E50C222380
S113298019F440E050E016C08091691AE82FFF273F
S1132990EE0FFF1FE052F14F4081518111821082EE
S11329A021502093E50C8F5F8093691A853011F4D0
S11329B01092691ACA010895AC012091BB06253012
S11329C018F081E090E008958091BA06E82FFF277F
S11329D0EE0FFF1FEF51F54E518340838F5F8093BD
S11329E0BA06853011F41092BA062F5F2093BB0605
S11329F080E090E008952F923F924F925F926F9201
S1132A007F928F929F92AF92BF92CF92DF92EF927A
S1132A10FF920F931F93CF93DF93CDB7DEB7299720
S1132A200FB6F894DEBF0FBECDBF6FB76983F894BD
S1132A302090E3113090E4114090E5115090E6119C
S1132A40662477248824FEE4AF2EE3E8BE2ECC244B
S1132A50DD24EE24FF2400E010E0222D332D442D4C
S1132A60552D662D772D882D90E00E94B9732A8309
S1132A703B834C835D836E837F8388879987822E13
S1132A80932EA42EB52E2401350100E20E94B774C2
S1132A90A22EB32EC42ED52EA3019201569547958E
S1132AA0379527952A0D3B1D4C1D5D1D57FF05C00D
S1132AB05F772F5F3F4F4F4F5F4F2093E31130936A
S1132AC0E4114093E5115093E611E9818E2F992783
S1132AD08FBFCA01B90129960FB6F894DEBF0FBEA5
S1132AE0CDBFDF91CF911F910F91FF90EF90DF90B9
S1132AF0CF90BF90AF909F908F907F906F905F909A
S1132B004F903F902F9008950E94FB14DC01CB015D
S1132B1008951092A3068FEF9FEF90931905809369
S1132B20180590931B0580931A059093F6048093DF
S1132B30F504E6E1FFE01082779680E1E23EF807D3
S1132B40D1F7089580589F4F0895FC01E458FF4F32
S1132B50808191810895CF93DF93FC01DC0111966C
S1132B602181662351F0ED0189819927982F8827C7
S1132B7033272062822B932B09C0ED018981992789
S1132B80982F88273327822B932B8F7D8183892F3E
S1132B9099278983DF91CF91089580919F06E82F2B
S1132BA0FF27EE0FFF1FE759FE4D0190F081E02D46
S1132BB02091A106222351F08F5F80939F068C30D1
S1132BC011F410929F0621502093A106CF0108957D
S1132BD0CF93DF93EC0120E00FC0E22FFF27DE014B
S1132BE0AE0FBF1FE60FF71F9C918081981719F055
S1132BF080E090E005C02F5F241779F781E090E032
S1132C00DF91CF9108951F93982F1FB7F894809167
S1132C109A06823099F58091F104891779F58091AB
S1132C20EF0420E030E08F3F11F421E030E0232B6B
S1132C30F1F49FEF9093F1048F3F19F42FEF30E0FC
S1132C400DC0282F3327F901EF50FE4E8081809369
S1132C50EF048F3F11F49093F00490832093C70EF8
S1132C6081E080939A068CE10E94170605C08FEFDD
S1132C708093F10410929A0621E001C020E0812F94
S1132C8099278FBF90E0213009F491E081E09827E3
S1132C90892F99271F91089580E00E940316992790
S1132CA00895FC016827262F2295207F2627422F8E
S1132CB05527942F8827EF2FFF278E2B9F2B63E018
S1132CC0440F551F6A95E1F722952F703327422749
S1132CD0532784279527089560934C1870934D18B3
S1132CE080934E1890934F18603021E0720720E0D3
S1132CF0820720E0920729F48091E4049091E5048E
S1132D000CC0603020E1720720E0820720E09207C7
S1132D1049F48091E2049091E3049093FE0C809333
S1132D20FD0C12C0605070448040904029F4109211
S1132D30FE0C1092FD0C08C010924C1810924D1805
S1132D4010924E1810924F188FB7F894992710923A
S1132D50D71A8FBF08959C01FB0160918C0E80915E
S1132D60E4219091E521A091E621B091E72100971B
S1132D70A105B10509F090C26F3009F48DC241E09C
S1132D8050E0062E02C0440F551F0A94E2F76093E8
S1132D90EC216093321A2430310509F4ACC025309B
S1132DA0310578F42130310589F121303105D0F035
S1132DB02230310509F43FC02330310509F06FC2D8
S1132DC05BC02630310509F4B2C12630310508F460
S1132DD0E0C02730310509F4D9C12830310509F0A4
S1132DE05EC22BC240FDAEC041FF59C280E191E0FA
S1132DF0A0E0B0E08093E4219093E521A093E62144
S1132E00B093E72186E08093EC2149C2CA01847122
S1132E109070892B09F044C0CA0183709070892B8B
S1132E2009F03DC243FD09C051FF13C082E090E0A8
S1132E30A0E0B0E006C040FF0EC080E090E0A0E05B
S1132E40B2E08093E4219093E521A093E621B0932E
S1132E50E72181E0D8CF42FDC9CFCA0188739270BF
S1132E60892B09F41CC28091E804882309F017C255
S1132E7044FF15C285E0C7CFCA0185719070892BC4
S1132E8009F00DC241FF0FC081E090E0A0E0B0E086
S1132E908093E4219093E521A093E621B093E72168
S1132EA01092EC21FCC143FD4DC051FF0CC082E0E7
S1132EB090E0A0E0B0E08093E4219093E521A0931A
S1132EC0E621B093E721407C5370452B91F080912B
S1132ED0E4219091E521A091E621B091E72180625F
S1132EE090618093E4219093E521A093E621B0932F
S1132EF0E72184E088CF309711F460E001C060815D
S1132F00CA0180739070892BF9F0662369F080E020
S1132F1090E1A0E0B0E08093E4219093E521A093B8
S1132F20E621B093E721BBC181E090E0A0E0B0E0EE
S1132F308093E4219093E521A093E621B093E721C7
S1132F4044FF25C082E05FCFCA01807C9170892B49
S1132F5009F4A5C1662379F080E091E0A0E0B0E037
S1132F608093E4219093E521A093E621B093E72197
S1132F7047FF95C147CF81E090E0A0E0B0E08093A7
S1132F80E4219093E521A093E621B093E72183E027
S1132F903ACFCA0183709070892B09F0B4C0CA017A
S1132FA080739070892B09F0AEC042FF0DC080E0A1
S1132FB090E2A0E0B0E08093E4219093E521A09317
S1132FC0E621B093E7219FC043FF19C080E191E05F
S1132FD0A0E0B0E08093E4219093E521A093E62162
S1132FE0B093E7218081882329F080E193E0A0E079
S1132FF0B0E04DC080E195E0A0E0B0E079C0CA0146
S113300080749170892B69F08081882329F080E095
S113301092E0A0E0B0E03BC080E094E0A0E0B0E04B
S113302067C047FF1FC08081882371F080E092E071
S1133030A0E0B1E08093E4219093E521A093E62100
S1133040B093E72189E02CC080E094E0A0E0B0E0F8
S11330508093E4219093E521A093E621B093E721A6
S113306087E04FC051FF4FC082E091E0A0E0B0E0A4
S11330708093E4219093E521A093E621B093E72186
S11330808081882389F182E093E0A0E0B0E080931E
S1133090E4219093E521A093E621B093E72188E011
S11330A08093EC218091E4219091E521A091E62187
S11330B0B091E7218068A0628093E4219093E52198
S11330C0A093E621B093E72182E08093A314828148
S11330D093819093DC218093DB218481958190936B
S11330E0B40C8093B30C20C082E095E0A0E0B0E083
S11330F08093E4219093E521A093E621B093E72106
S113310086E08093EC218091E4219091E521A091C7
S1133110E621B091E72180688093E4219093E52132
S1133120A093E621B093E72186819781B0C0CA01BC
S11331308C709070892B79F5CA0180739070892BFB
S113314009F05AC046FF0EC080E190E0A0E0B0E074
S11331508093E4219093E521A093E621B093E721A5
S113316087E011C047FD25C050FF38C080E190E0E2
S1133170A0E0B1E08093E4219093E521A093E621BF
S1133180B093E72189E08093EC2136C0CA018C70AA
S11331909070892B29F080E090E2A0E0B0E024C098
S11331A0CA0180739070892B39F546FD12C047FF20
S11331B00EC080E091E0A0E0B0E08093E421909321
S11331C0E521A093E621B093E72186E0DCCF50FF10
S11331D005C080E191E0A0E0B0E006C051FF0CC062
S11331E082E091E0A0E0B0E08093E4219093E521B7
S11331F0A093E621B093E7218091E4219091E52109
S1133200A091E621B091E721A0618093E4219093FD
S1133210E521A093E621B093E72184818093A31450
S1133220808191819093DC218093DB218281938141
S11332309093B40C8093B30C32C0CA018C7F93700A
S1133240892B69F151FF0EC086E090E4A0E0B0E064
S11332508093E4219093E521A093E621B093E721A4
S113326085E011C080E090E4A0E0B0E08093E42128
S11332709093E521A093E621B093E7214078517023
S1133280452B19F086E08093EC21858196819093FB
S1133290A00C80939F0C03C087E090E0089580E029
S11332A090E008958FB7F89499271092D61A8FBF9B
S11332B0089560937D1870937E1880937F1890937F
S11332C08018603021E0720720E0820720E0920736
S11332D029F48091D6049091D7040CC0603020E189
S11332E0720720E0820720E0920749F48091D40419
S11332F09091D50490938E0E80938D0E12C06050E1
S113330070448040904029F410928E0E10928D0EDD
S113331008C010927D1810927E1810927F18109297
S113332080180E9452190895AC018FB7F894FA01DD
S1133330A1ECB4E02AE00D9001922150E1F78FBF97
S1133340CA0108952FB7F894009749F0A1ECB4E0AE
S1133350FC018AE001900D928150C9F0FBCF1092DC
S1133360C2041092C1048FEF9FEFAFEFBFEF8093C1
S1133370C7049093C804A093C904B093CA0480936B
S1133380C3049093C404A093C504B093C604822FCD
S113339099278FBF80E090E00895009749F0ABEB48
S11333A0B4E0FC0186E001900D92815079F0FBCFEE
S11333B01092BC041092BB0480E095E09093C0048A
S11333C08093BF049093BE048093BD0480E090E09A
S11333D00895CF93DF93CDB7DEB76E970FB6F89409
S11333E0DEBF0FBECDBFDC019E01295F3F4F4BEB1B
S11333F054E086E0FA010190AF01F90101929F01C6
S11334008150C1F79E01275E3F4FAE01495F5F4F78
S113341086E0FA010190AF01F90101929F01815008
S1133420C1F79E012F5F3F4FAE01475E5F4F86E0BD
S1133430FA010190AF01F90101929F018150C1F796
S11334409E01235F3F4FAE014F5F5F4F86E0FA015D
S11334500190AF01F90101929F018150C1F79E01D2
S11334602D5E3F4FAE01435F5F4F86E0FA0101904E
S1133470AF01F90101929F018150C1F7109719F42E
S113348020E035E009C08C919927382F2227FD01CF
S113349081819927282B392B388F2F8BCE01439686
S11334A00E94CD196E960FB6F894DEBF0FBECDBF45
S11334B0DF91CF910895EF92FF920F931F93CF93D3
S11334C0DF93CDB7DEB76E970FB6F894DEBF0FBEAD
S11334D0CDBF7C018E010B5E1F4FC8010E94941961
S11334E0DE011196F8018AE001900D928150E1F716
S11334F0DE011B96FE0131968AE001900D92815007
S1133500E1F71B86EF2811F081E08B87CE010B9643
S11335100E94A2196E960FB6F894DEBF0FBECDBFFF
S1133520DF91CF911F910F91FF90EF900895CF936A
S1133530DF93CDB7DEB76E970FB6F894DEBF0FBE3C
S1133540CDBFDC019E01295F3F4F4BEB54E086E089
S1133550FA010190AF01F90101929F018150C1F775
S11335609E01275E3F4FAE01495F5F4F86E0FA013F
S11335700190AF01F90101929F018150C1F79E01B1
S11335802F5F3F4FAE01475E5F4F86E0FA01019027
S1133590AF01F90101929F018150C1F79E01235FA0
S11335A03F4FAE014F5F5F4F86E0FA010190AF01DC
S11335B0F90101929F018150C1F79E012D5E3F4F99
S11335C0AE01435F5F4F86E0FA010190AF01F9015C
S11335D001929F018150C1F7109719F420E035E062
S11335E009C08C919927382F2227FD0181819927C1
S11335F0282B392B3E8B2D8BCE0143960E94CD195F
S11336006E960FB6F894DEBF0FBECDBFDF91CF919B
S113361008959C01FB016091681A8091721A90913F
S1133620731AA091741AB091751A0097A105B10587
S113363009F090C26F3009F48DC241E050E0062ECB
S113364002C0440F551F0A94E2F76093C30C6093C1
S1133650C20C2430310509F4ACC02530310578F4AE
S11336602130310589F121303105D0F02230310586
S113367009F43FC02330310509F06FC25BC0263026
S1133680310509F4B2C12630310508F4E0C0273011
S1133690310509F4D9C12830310509F05EC22BC2C5
S11336A040FDAEC041FF59C280E191E0A0E0B0E02E
S11336B08093721A9093731AA093741AB093751A24
S11336C086E08093C30C49C2CA0184719070892B2F
S11336D009F044C0CA0183709070892B09F03DC27F
S11336E043FD09C051FF13C082E090E0A0E0B0E0C8
S11336F006C040FF0EC080E090E0A0E0B2E08093FE
S1133700721A9093731AA093741AB093751A81E085
S1133710D8CF42FDC9CFCA0188739270892B09F4AE
S11337201CC28091DA04882309F017C244FF15C231
S113373085E0C7CFCA0185719070892B09F00DC24D
S113374041FF0FC081E090E0A0E0B0E08093721AE6
S11337509093731AA093741AB093751A1092C30CB1
S1133760FCC143FD4DC051FF0CC082E090E0A0E0DD
S1133770B0E08093721A9093731AA093741AB09362
S1133780751A407C5370452B91F08091721A909178
S1133790731AA091741AB091751A80629061809323
S11337A0721A9093731AA093741AB093751A84E0E2
S11337B088CF309711F460E001C06081CA01807342
S11337C09070892BF9F0662369F080E090E1A0E025
S11337D0B0E08093721A9093731AA093741AB09302
S11337E0751ABBC181E090E0A0E0B0E08093721A4A
S11337F09093731AA093741AB093751A44FF25C05A
S113380082E05FCFCA01807C9170892B09F4A5C145
S1133810662379F080E091E0A0E0B0E08093721A32
S11338209093731AA093741AB093751A47FF95C1B5
S113383047CF81E090E0A0E0B0E08093721A9093CB
S1133840731AA093741AB093751A83E03ACFCA011D
S113385083709070892B09F0B4C0CA018073907092
S1133860892B09F0AEC042FF0DC080E090E2A0E0D9
S1133870B0E08093721A9093731AA093741AB09361
S1133880751A9FC043FF19C080E191E0A0E0B0E049
S11338908093721A9093731AA093741AB093751A42
S11338A08081882329F080E193E0A0E0B0E04DC05E
S11338B080E195E0A0E0B0E079C0CA018074917025
S11338C0892B69F08081882329F080E092E0A0E0D0
S11338D0B0E03BC080E094E0A0E0B0E067C047FF08
S11338E01FC08081882371F080E092E0A0E0B1E005
S11338F08093721A9093731AA093741AB093751AE2
S113390089E02CC080E094E0A0E0B0E08093721ADB
S11339109093731AA093741AB093751A87E04FC0EA
S113392051FF4FC082E091E0A0E0B0E08093721AB2
S11339309093731AA093741AB093751A8081882394
S113394089F182E093E0A0E0B0E08093721A909352
S1133950731AA093741AB093751A88E08093C30CF9
S11339608091721A9091731AA091741AB091751A79
S11339708068A0628093721A9093731AA093741A49
S1133980B093751A82E08093AC14828193819093F2
S1133990C41A8093C31A848195819093830D809374
S11339A0820D20C082E095E0A0E0B0E08093721A1E
S11339B09093731AA093741AB093751A86E0809347
S11339C0C30C8091721A9091731AA091741AB091D9
S11339D0751A80688093721A9093731AA093741A5C
S11339E0B093751A86819781B0C0CA018C709070AB
S11339F0892B79F5CA0180739070892B09F05AC01C
S1133A0046FF0EC080E190E0A0E0B0E08093721A1F
S1133A109093731AA093741AB093751A87E011C027
S1133A2047FD25C050FF38C080E190E0A0E0B1E040
S1133A308093721A9093731AA093741AB093751AA0
S1133A4089E08093C30C36C0CA018C709070892BB6
S1133A5029F080E090E2A0E0B0E024C0CA018073C5
S1133A609070892B39F546FD12C047FF0EC080E0E7
S1133A7091E0A0E0B0E08093721A9093731AA0933F
S1133A80741AB093751A86E0DCCF50FF05C080E14C
S1133A9091E0A0E0B0E006C051FF0CC082E091E0EC
S1133AA0A0E0B0E08093721A9093731AA093741AF2
S1133AB0B093751A8091721A9091731AA091741A26
S1133AC0B091751AA0618093721A9093731AA0939F
S1133AD0741AB093751A84818093AC148081918197
S1133AE09093C41A8093C31A828193819093830D17
S1133AF08093820D32C0CA018C7F9370892B69F147
S1133B0051FF0EC086E090E4A0E0B0E08093721A0A
S1133B109093731AA093741AB093751A85E011C028
S1133B2080E090E4A0E0B0E08093721A9093731A5E
S1133B30A093741AB093751A40785170452B19F0FC
S1133B4086E08093C30C858196819093132A809399
S1133B50122A03C087E090E0089580E090E0089581
S1133B60982F8D57823018F481E090E008959032B8
S1133B7018F080E090E0089504C076956795579515
S1133B8047959A95D2F7CA018170907008959FB7AE
S1133B90F8948091FC0E882319F484E08093FC0E41
S1133BA0892F99278FBF9FB7F8948091651A88232E
S1133BB019F48AE08093651A892F99278FBF0E9490
S1133BC0160D80E090E00895E9ECF0E080818F7BB1
S1133BD0808380818F7780831092311A1092FF0E38
S1133BE080818860808380818F7B808380818061F5
S1133BF080838FEF8093AF0480818068808380E02E
S1133C0090E008958FB7F894282F3327922F80914E
S1133C10651A8A3041F08091FC0E843021F02FBF68
S1133C2089E090E008959FBF89E00E94170680E034
S1133C3090E00895992780FF02C0749801C0749A97
S1133C4081FF02C0759801C0759A82FF02C0769800
S1133C5001C0769A83FF02C077980895779A0895F1
S1133C60982F969596959695E5E8F8E1E90FF11D5C
S1133C70877021E030E002C0220F331F8A95E2F7FB
S1133C8080818223992708950F931F930FB7F89487
S1133C9011276093411270934212809343129093C0
S1133CA044122093ED113093EE114093EF11509391
S1133CB0F0110E94BF060FBF1F910F9108958F92BC
S1133CC09F92AF92BF92CF92DF92EF92FF920F93A7
S1133CD01F93CF93DF93CDB7DEB7A8970FB6F894B1
S1133CE0DEBF0FBECDBF8C01A090162AB090172A5C
S1133CF080902E1890902F180E943B1029A33AA36D
S1133D004BA35CA36DA37EA38FA398A7DE01599652
S1133D10FE01B19688E001900D928150E1F7DE0139
S1133D201196FE01799688E001900D928150E1F799
S1133D30DE011996FE01319688E001900D928150C2
S1133D40E1F7DE015196FE01399688E001900D926B
S1133D508150E1F780E1F80111928A95E9F78EEF3D
S1133D6090E8F801918380838091EB04882399F093
S1133D70EB2CFA2CF186E08680E09FEF9387828714
S1133D808EEF90E095878487C92CD82CD786C68679
S1133D9080858D7F13C0F80127E030E0DE0158965E
S1133DA08C91119780872150304031968FEF2F3FAF
S1133DB03807B1F7F801808592E08927808781E090
S1133DC090E0A8960FB6F894DEBF0FBECDBFDF918A
S1133DD0CF911F910F91FF90EF90DF90CF90BF9004
S1133DE0AF909F908F900895FC01808D9F01285F74
S1133DF03F4F8F3F39F4818D99278F7090700397CF
S1133E0054F00EC08E3F61F4818D9927807F9070AD
S1133E10813891052CF4C9010E945F1E99270895E9
S1133E20F901A8E3B8E180E10D9001928150E1F736
S1133E308091990699270895FC013F968BE0DF0154
S1133E401D928A95E9F73F9782E08287178216824E
S1133E500895CF93DF93EAEBF1E2A4EFBEE098E09C
S1133E600AC0813039F48093DB04ED01892F199263
S1133E708A95E9F731968081882399F7DF91CF916C
S1133E8008958F929F92AF92BF92CF92DF92EF925A
S1133E90FF920F931F93CF93DF935C01EB016A01B1
S1133EA0A901F701108228813981F0E82E3F3F07EC
S1133EB009F08DC08A819B81892B09F088C08C818F
S1133EC09D81892B09F083C08E819F81892B09F004
S1133ED07EC0288539852115310591F48A859B8515
S1133EE0892B71F48C859D85892B51F482E0F7012F
S1133EF080838E859F85F501819391935F01DDC059
S1133F00C8019D7F892E982E28153905B9F48A8514
S1133F109B8580509F4F91F48C859D858E3F9105A4
S1133F2069F4FA0180818370823041F4A281B18105
S1133F308E859F858A179B07F1F53BC0FA01808126
S1133F4083708330C1F5DE0118969A012F5F3F4FCD
S1133F50F901878192E089279885981761F5FD0119
S1133F609181F9018681981731F5FD019281F9015A
S1133F708581981701F5FD019381F90184819817D2
S1133F80D1F4FD019481F90183819817A1F4FD0115
S1133F909581F9018281981771F4FD019681F901E7
S1133FA08181981741F4FD019781FA018181981765
S1133FB011F483E072C081E0F7018083D501FE0132
S1133FC0389688E001900D928150E1F739C01C14B5
S1133FD01D040CF043C084E0F7018083F0E8CF16A1
S1133FE0D10431F487E0F701808380E090E063C07E
S1133FF040E750E0B601CE010E948911892B61F49B
S1134000F7018081826080838E859F85F50191838D
S1134010808382E090E04FC040E450E0B601CE01DE
S11340200E948911F7012081892B69F42160208382
S1134030D501FE01389688E001900D928150E1F798
S113404088E090E038C02B7FF7012083D501FE0182
S113405080E101900D928150E1F72BC0232B01F5F3
S11340608A819B81892BE1F48C819D81892BC1F408
S11340708E819F81892BA1F488859985892B81F470
S11340808A859B85892B61F48C859D85892B41F4D8
S11340908E859F85892B21F484E0F70180830DC0F0
S11340A0F7011082D501FE0180E101900D9281504B
S11340B0E1F780E190E0A80EB91EC501DF91CF9130
S11340C01F910F91FF90EF90DF90CF90BF90AF9032
S11340D09F908F9008950F931F93CF93DF93CDB745
S11340E0DEB722970FB6F894DEBF0FBECDBFBC017A
S11340F0DA01AC014A5F5F4FFD0181858370823034
S113410049F4828593859A838983FB019783868307
S11341108B010EC0CA018D01065F1F4F28E0F80114
S113412001908F01FC010192CF012150C1F78A0156
S1134130085F1F4F8C918370823051F4FD0181819F
S113414092819A838983F80181939193AF010FC07F
S11341509801CD01019648E0FC010190CF01F901DD
S113416001929F014150C1F7A801485F5F4F2C9114
S11341702370332730E4239F302D22271124216418
S1134180FD01818583709927982F8827990F990FAE
S1134190822B932BFB018183892F99278283FD0135
S11341A08289FB018483FD0182899389892F992760
S11341B0FB018583CA0122960FB6F894DEBF0FBEB9
S11341C0CDBFDF91CF911F910F9108952F923F9210
S11341D04F925F926F927F928F929F92AF92BF9213
S11341E0CF92DF92EF92FF920F931F93CF93DF93BF
S11341F04C018091BC0E882309F01FC18091B0143A
S1134200853009F01AC180915821882309F015C11D
S1134210B40182E00E945D0A882311F490E00BC08F
S113422027E830E0820E931EF401918129E73FEFE5
S1134230820E931E9F7080918318981729F0909393
S11342408318906C90934501C4010E94C30988238C
S1134250A9F08091460199278F7190702091E921EE
S11342604091810D240F312D311D43E03595279563
S11342704A95E1F7281739070CF4DFC089E08093E9
S11342804201B40184E00E945D0A882319F4C0E06D
S1134290D0E006C0D4018C918550E401C80FD11D33
S11342A0F40180819927282F809380018091410116
S11342B08F71893021F086E080934201BEC01401E1
S11342C00894211C311C0EEFF02EF20E0FB7F89457
S11342D011270E947F062B013C0182E0809342015A
S11342E00FBF8BE090E0A0E0B0E0480E591E6A1EBC
S11342F07B1E6F2D7727209709F47EC02881E980E3
S11343008A81AB809927AA27BB27BA2FA92F982F78
S11343108827332744275527522F4427332722271A
S1134320FF24002711278701FF24EE242E293F298B
S1134330402B512BBB24CC24DD242A293B294C2996
S11343405D29822B932BA42BB52B84199509A609DF
S1134350B7098B83292F3A2F4B2F55272A839D0189
S11343604427552729838B2F9927AA27BB2788837E
S1134370AB01B10181E891E00E94047686E080936C
S113438042012881E9808A81AB809927AA27BB272B
S1134390BA2FA92F982F8827332744275527522F20
S11343A0442733272227FF24002711278701FF24CE
S11343B0EE242E293F29402B512BBB24CC24DD2471
S11343C02A293B294C295D29822B932BA42BB52B1D
S11343D0840D951DA61DB71D8B83292F3A2F4B2FB6
S11343E055272A839D014427552729838B2F9927F5
S11343F0AA27BB27888309C0AB01B10181E891E0FA
S11344000E94047686E080934201F401EA57FF4F4C
S1134410808182608083A2E8B0E08A0E9B1EF40152
S1134420408251826282738286E08093B01484E079
S11344308093BC0E80E090E002C085E090E0DF91C4
S1134440CF911F910F91FF90EF90DF90CF90BF908D
S1134450AF909F908F907F906F905F904F903F9020
S11344602F9008954F925F926F927F928F929F92B6
S1134470AF92BF92CF92DF92EF92FF920F931F936E
S1134480CF93DF93CDB7DEB760970FB6F894DEBF56
S11344900FBECDBFDC013A01A901280180E1FD0175
S11344A011928A95E9F777279B012370307062FD9A
S11344B055C02130310571F022303105C1F0232B74
S11344C0E1F4FA0180E101900D928150E1F7405F3F
S11344D05F4FBEC08EEF90E811969C938E93189612
S11344E0FA0188E001900D928150E1F774C08EEFDB
S11344F090E811969C938E9371C08EEF90E811967C
S11345009C938E93F201808183708330A9F49D0182
S113451067E070E08201085F1F4FF801808101505D
S11345201040F9018087615070402F5F3F4FFFEFCB
S11345306F3F7F0791F776C0C7019D7FC92ED82EA4
S1134540FD01D186C0868FEF83878EEF8487F201C9
S1134550A280B180FD01B786A6867AC021153105F7
S113456009F476C08E010F5F1F4F68E378E180E1A4
S1134570FB010190BF01F80101928F018150C1F745
S113458080919906882391F0662081F4CD018E01F3
S11345900F5F1F4F68E0F80101908F01FC01019249
S11345A0CF016150C1F780E490E002C080E090E068
S11345B02230310599F023303105C1F02130310525
S11345C019F040E050E044C01896FA0188E00190E8
S11345D00D928150E1F7485F5F4F3AC0FA01819133
S11345E09191AF01FD019787868732C0813491058F
S11345F0FCF4F201808183708330E9F49D0167E06B
S113460070E08201085F1F4FF80180810150104063
S1134610F9018087615070402F5F3F4FFFEF6F3F7C
S11346207F0791F7FD01808592E08927808710C07C
S1134630813791056CF4189688E0FD0111928A95F2
S1134640E9F71897F20182809180FD0197868686AA
S1134650CA0160960FB6F894DEBF0FBECDBFDF91DE
S1134660CF911F910F91FF90EF90DF90CF90BF906B
S1134670AF909F908F907F906F905F904F90089530
S1134680AF92BF92CF92DF92EF92FF920F931F935C
S1134690CF93DF936C015B018A01EE24FF2415C0E4
S11346A0F8018191C82FDD27AE01BF01C6010E9428
S11346B0F775892B29F4CC0DDD1D8881882359F0E9
S11346C00894E11CF11C055F1F4FEA14FB0444F33A
S11346D05EEFE52EF12CC701DF91CF911F910F9171
S11346E0FF90EF90DF90CF90BF90AF9008950F931D
S11346F01F93CF93DF93CDB7DEB760970FB6F894CF
S1134700DEBF0FBECDBF9C018B01DE011196E8E335
S1134710F8E180E101900D928150E1F780919906D2
S1134720882371F048E050E0B901CE0101960E945F
S1134730F775892B29F4F801108280E490E002C017
S113474080E090E060960FB6F894DEBF0FBECDBF58
S1134750DF91CF911F910F9108958F929F92AF9205
S1134760BF92CF92DF92EF92FF920F931F93CF935A
S1134770DF934C01EB01AA24BB2477E5E72E75E116
S1134780F72E87010351104063E0C62ED12CC00ED2
S1134790D11EF801808180FF18C0F7018081882331
S11347A091F09927C817D9070CF4CE0168E070E09E
S11347B00E946D75AB01B601C4010E94F775892B87
S11347C021F4209711F0C80111C00894A11CB11C58
S11347D085E290E0C80ED91E0B5D1F4FE80EF91E4E
S11347E094E1A916B104A9F680E090E0DF91CF919D
S11347F01F910F91FF90EF90DF90CF90BF90AF90FB
S11348009F908F900895CF92DF92EF92FF920F9333
S11348101F93CF93DF936C018091A306882311F13A
S113482080E090E006E11FE0EAEEEE2EEFEFFE2ED0
S1134830E00EF11EEC0140E150E0B601C7010E9418
S1134840F775892B21F4F8018081882369F4CE015E
S1134850019627E130E0E20EF31E095E1F4F84311A
S1134860910541F7C4E1D0E0CE01DF91CF911F91D2
S11348700F91FF90EF90DF90CF9008950F931F93C7
S1134880CF93DF93CDB7DEB760970FB6F894DEBF52
S11348900FBECDBF8C01DE011196E8E3F8E180E1A3
S11348A001900D928150E1F740E150E0B801CE0152
S11348B001960E94F775892B89F48091A7068823B5
S11348C041F08091AB049091AC049093F6048093F2
S11348D0F5048091F5049091F60417C0C8010E9474
S11348E00324843119F484E392E10FC0282F332781
S11348F087E190E0289FF001299FF00D389FF00D8B
S11349001124E050F14F8089918960960FB6F89494
S1134910DEBF0FBECDBFDF91CF911F910F910895E0
S113492089E692E20E943E240895DF92EF92FF927C
S11349300F931F93CF93DF93CDB7DEB7D090A30629
S1134940DD2009F446C000E010E0F0E0EF2EFFE0C7
S1134950FF2E40E150E0BE01665F7F4FC7010E9419
S1134960F775892B51F00F5F1F4F27E130E0E20EFE
S1134970F31E0431110569F1ECCF043151F1402FDC
S1134980552787E190E0489FD001499FB00D589F7B
S1134990B00D1124A050B14F9E01265F3F4F87E117
S11349A0F90101909F010D928150D1F787E190E0C8
S11349B0489FF001499FF00D589FF00D1124E050DD
S11349C0F14F8AE090E0958B848BD394D092A30628
S11349D023C040E050E0E6E1FFE06D2D6F5F909171
S11349E0A30620E030E08081882361F4F901E050DF
S11349F0F14FDE011A9687E10D9001928150E1F7A3
S1134A00962F08C04F5F5F4F295E3F4F7796443122
S1134A10510549F79093A306DF91CF911F910F9110
S1134A20FF90EF90DF900895CF93DF93EC01A0E027
S1134A30B0E0E5E4F5E19F0121503040B9016B5D40
S1134A407F4F4FEB52E0808191818C179D0759F481
S1134A50C9010E940D76809103188E7F80930318FC
S1134A6080E090E00DC01196455250406B5D7F4F41
S1134A702B5D3F4FB596A431B10529F781E090E055
S1134A80DF91CF9108956F927F928F929F92BF9200
S1134A90CF92DF92EF92FF920F931F93CF93DF9306
S1134AA06C014B01FC01EE0FFF1FEE0FFF1FEC55D5
S1134AB0FB4E608071800280F381E02DEE0FFF1FBA
S1134AC0EE0FFF1FE60DF71D8FB7F894B82E04C044
S1134AD084E090E0680E791E6E167F0630F4D301F0
S1134AE08D919C918816990699F76E167F0671F040
S1134AF0E301888199816A817B814817590730F0E5
S1134B009C01261B370B2417350720F4BFBE86E013
S1134B1090E075C07901E41AF50AE0FE03C0089438
S1134B20E108F1088417950711F481E056C0E114F7
S1134B30F10431F183010C5F1F4F0E171F0701F1C0
S1134B40E8018A819B811816190694F46E0D7F1D65
S1134B50F30173836283848195818E199F09958300
S1134B6084838A819B818E0D9F1D9B838A8331C0A0
S1134B70892BF1F03497828193813496892B19F033
S1134B80BFBE3BC0FD019301285F3F4F2E173F0777
S1134B9038F4DF011497ED018A819B81892B91F30D
S1134BA0E619F7093497AF01B801C9010E940D76DF
S1134BB0F301228133812E0D3F1D338322838081B3
S1134BC09181821B930BD8018D939C93E801FB8206
S1134BD0EA82F801E280F38080E0BFBE882331F0EE
S1134BE0B401C6010E94DC13992709C0F1E0CF1675
S1134BF0D10419F4C7010E94CC1380E090E0DF9146
S1134C00CF911F910F91FF90EF90DF90CF90BF90C5
S1134C109F908F907F906F9008959F92AF92BF92D4
S1134C20CF92DF92EF92FF920F931F93CF93DF9374
S1134C306C018B015A01922ECB0187709070892BE5
S1134C4009F0A8C0613871050CF0A4C0C6010E9427
S1134C50AD23EC01892B31F08B89992780179107BB
S1134C6009F47DC08091031880FD6FC0EE24FF24F9
S1134C70E7E5F5E1BF0163517040DB01C0E0D0E03E
S1134C808C91959680FF24C0808199278017910785
S1134C906CF00894E11CF11CA5966B5D7F4FB596F2
S1134CA084E1E816F10409F450C0EACF83E190E00E
S1134CB08E199F0925E230E0829FA001839F500D49
S1134CC0929F500D1124CE0187599A4E0E940D7661
S1134CD085E290E0E89EF001E99EF00DF89EF00D6B
S1134CE01124EC5BFA4E8081816080832091E90479
S1134CF03091EA04A9014F5F5F4FA5E4B5E1FD01DE
S1134D0031978081B59680FF08C08D919C91119751
S1134D108217930711F49A01EDCF959688E1E83252
S1134D20F80779F75093EA044093E90485E290E0A8
S1134D30E89EF001E99EF00DF89EF00D1124EC5B65
S1134D40FA4E32832183EF0102C0C0E0D0E00115A6
S1134D50110519F48BE10E9417062097D9F00B8BEB
S1134D609CA2C80168E070E00E946D75AB01B601B9
S1134D70CE0103960E940476A114B10441F0DE0131
S1134D805496F50180E101900D928150E1F78981FB
S1134D909A8102C08FEF9FEFDF91CF911F910F9106
S1134DA0FF90EF90DF90CF90BF90AF909F900895C9
S1134DB0BF92CF92DF92EF92FF920F931F93CF9304
S1134DC0DF93CDB7DEB724970FB6F894DEBF0FBEDE
S1134DD0CDBF6C017B01B42E9E012F5F3F4F42E09B
S1134DE050E00E943D02029729F587010E5F1F4F94
S1134DF013C09E012D5F3F4F42E050E0B801C60151
S1134E000E943D020297B1F48B818B15A9F08C812D
S1134E1099270296080F191F98012E193F098A81B4
S1134E20992743E0880F991F4A95E1F708962817B8
S1134E303907FCF20FEF1FEFC80124960FB6F89460
S1134E40DEBF0FBECDBFDF91CF911F910F91FF90B9
S1134E50EF90DF90CF90BF900895CF92DF92EF92C2
S1134E60FF920F931F93CF93DF93CDB7DEB72297B3
S1134E700FB6F894DEBF0FBECDBF6C017A0100E01F
S1134E8010E016C09E012F5F3F4F42E050E0B80192
S1134E90C6010E943D02029709F569818A8199271A
S1134EA053E0880F991F5A95E1F70896080F191FC8
S1134EB0F70180818F3F59F4662321F36B3211F39C
S1134EC06C3201F36C33F1F26738E1F203C08617F8
S1134ED0C9F602C0F70160836B3311F40FEF1FEFC3
S1134EE0C80122960FB6F894DEBF0FBECDBFDF9186
S1134EF0CF911F910F91FF90EF90DF90CF90089585
S1134F00CF93DF93EC018A85813061F0813038F0F2
S1134F10833019F0843081F405C084E001C081E05D
S1134F208A870AC08E819F81009711F00E9497039F
S1134F3082E08A871F821E82DF91CF9108958FB706
S1134F40F89499272091DB1A3091DC1A1092DC1A1C
S1134F501092DB1A1092BD211092BC218FBF3F9397
S1134F602F9380E092E09F938F930E944D760F9051
S1134F700F900F900F9008959C018091A3068823B1
S1134F8019F481E090E0089560911C0587E1689F21
S1134F90B00111246050714F40E150E0C9010E94FA
S1134FA0C70480E090E0089521E020934712209305
S1134FB0101A0E94E10908950E945013DC01009721
S1134FC019F486E090E00895FC018481807F836079
S1134FD0848380916A1AE82FFF27EE0FFF1FEF5496
S1134FE0F54EB183A0838F5F80936A1A80E10E949B
S1134FF0170680E090E00895EF920F931F93AE2D73
S113500099E0899FF0011124EA57F74E40835183B8
S1135010628373830483158326833783A170808519
S11350208E7F8A2B8260808781E00E9417061F9101
S11350300F91EF900895AF92BF92CF92DF92EF92CB
S1135040FF920F931F93F82E5A016B010E94900652
S1135050AB01BC01EE24960185018F2D0E94FC2733
S11350601F910F91FF90EF90DF90CF90BF90AF9082
S113507008950F931F93CF93DF93CDB7DEB7609757
S11350800FB6F894DEBF0FBECDBFFB0102976CF1E3
S11350908E010F5F1F4FB801828193810E94D40457
S11350A08091F11881FD21C040E054E060E070E09F
S11350B08BE00E941B28A1E4B9E2F80180E1019091
S11350C00D928150E1F78AE090E09093DE1A80938C
S11350D0DD1A109285291092842910921B291092AE
S11350E01A291092ED0E1092EC0E60960FB6F894F9
S11350F0DEBF0FBECDBFDF91CF911F910F910895F9
S113510082E080930105A9E6B2E2E8E3F8E180E1F8
S113511001900D928150E1F7809107059091080567
S11351209093AC048093AB0480E1E1EAFCE011923B
S11351308A95E9F78FEF8093A10C82E08093A20C0B
S11351408AE18093B00C8091AA06882369F0AFECC1
S1135150BEE0E8E3F8E180E101900D928150E1F7CF
S113516088E20E941706089540E05CE060E070E089
S113517086E00E941B280895AF92BF92CF92DF92DF
S1135180EF92FF920F931F93F82E5A016B010E9426
S11351909006AB01BC01E1E0EE2E960185018F2D56
S11351A00E94FC271F910F91FF90EF90DF90CF900A
S11351B0BF90AF900895CF93DF93882309F050C038
S11351C06093E821662311F41D994AC08FB7F894BF
S11351D0282F3327922F80918606882311F581E0AA
S11351E0809386061092D1112FBF8FB7F894C82FE1
S11351F0DD279C2F8091B304813059F58091860678
S1135200813021F485E00E94170609C0823009F537
S11352108091D1118093B30483E080938606CFBF3D
S11352201FC08091D111882311F42FBF19C0809120
S1135230DF0E8F3F71F4E091B204EE2351F00BC006
S11352401092B10404C0FF27E152F14F1082109272
S1135250B2049FBF05C08091B1048F3FA1F7F0CF86
S1135260DF91CF9108951F920F920FB60F921124E0
S11352700F931F932F933F934F935F936F937F935A
S11352808F939F93AF93BF93EF93FF938091C80045
S113529087FF87C00091CE00E0915318F091541815
S11352A0309761F180911E2990911F29E80FF91F11
S11352B00083019690931F2980931E2920918729AA
S11352C0309188298217930708F46BC01092541800
S11352D0109253188091311A833039F08091C900AB
S11352E08F778093C9001092311A81E192E09F93E5
S11352F08F930E944D760F900F9053C0E0918121BF
S1135300F091822140E0309709F041E0309729F193
S11353102091C00E3091C10E21153105F1F0CF015D
S1135320019690938221809381218E5C914130F08B
S11353308EEC90E190938221809381218091812150
S1135340909182218217930729F41092C10E109232
S1135350C00E03C0008310E001C0142F442319F0D1
S113536089E10E941706112321F082E292E00E9453
S113537064760E3719F460E081E011C080919806DC
S11353800D3721F48260809398060BC081FF05C01D
S11353908D7F8093980680E20827602F80E00E942A
S11353A03A0DFF91EF91BF91AF919F918F917F91B2
S11353B06F915F914F913F912F911F910F910F909A
S11353C00FBE0F901F9018958091F20E823031F429
S11353D081E08093F20E80E20E9417060895809384
S11353E07A22882311F484E001C081E08093F20ED4
S11353F080E20E94170608958F929F92AF92BF9207
S1135400CF92DF92EF92FF920F931F93CF93DF938C
S113541080915821882309F4F5C02FB7F8943327D5
S11354208091E900A82E8091EA00B82E8091EB00CB
S1135430C82E8091EC00D82EF0905821109258215B
S11354402FBFF7FE0DC08091BC0E833011F0873062
S113545039F485E08093B01488E08093BC0E45C095
S11354608091BC0E843009F040C0F1FE3EC085E05E
S11354708093B0141092BC0E8091860E833019F480
S11354801092860E32C000915A2910915B29C801EE
S11354900E94B209882311F1C8010E94C30988231C
S11354A0E9F0C8010E94D7098F5F9F4FB9F090E0DF
S11354B08091101A882309F491E0992379F012E07D
S11354C01093471281E08093101A6BEB70E080E038
S11354D090E00E94E1091093860E07C01092860E98
S11354E01092F30E80E00E94EF29CF2DDD27C5FF37
S11354F04EC08091BC0E863019F41092BC0E03C0CD
S1135500882309F044C0A091142AB091152A80E29E
S1135510F81671F5F09046019FE1F9228091810D12
S1135520982F96959695EF2DE91B8E0F8093810DFC
S1135530FD01EA57FF4F808182608083AE57BF4FE1
S1135540AD92BD92CD92DC9213970091142A1091E2
S1135550152AB80182E00E941D0AF801EA57FF4F9C
S113556080818860808309571F4FF801F1820BC046
S1135570BD0181E00E941D0A6091142A7091152AD0
S113558083E00E941D0A85E08093BC0E04C08091D4
S1135590BC0E853089F4C4FF0FC02091E9218091AD
S11355A046018F71922F96959695891B280F20930B
S11355B0E92189E08093BC0EC0FF0CC08091B01437
S11355C0823041F48091BC0E8250823018F483E022
S11355D08093B014C3FF16C08091BC0E863091F442
S11355E0809155018F77809355011092BC0E809164
S11355F04101992787709070892B09F41DC280910D
S113560041011AC29091BC0E992309F415C2993034
S113561009F096C140917B018091460187FF51C0FA
S1135620433008F44EC0842F99278E3791050CF02F
S113563048C0E091142AF091152A4193425055270D
S113564060E871E0CF010E9404768091142A909161
S1135650152A0E942C0A882349F020E030E080912A
S1135660860E823081F421E030E00DC08FB7F894CB
S1135670282F332790E080918421833008F491E02F
S11356802FBF292F3327232BE1F0E0917B01FF2744
S1135690E058FE4F8081E091142AF091152AE957D1
S11356A0FF4F808385E08093B0141092BC0EC091AC
S11356B0142AD091152ACE010E942C0A882339F489
S11356C030C085E08093B0141092BC0EB1C18091BB
S11356D0860E823009F02FC19B81E0915A29F09106
S11356E05B298381981709F026C1898187708230EC
S11356F009F021C18091DF008B7F8093DF008FEF61
S11357008093AF041092101AEA57FF4F8081816092
S113571080831092860E1092F30E80E00E94EF298F
S11357200AC18091860E8823C9F4CE010E94370AEB
S11357308823A1F085E08093B11482E08093B214B1
S11357401092B3148B818093B41481EB94E10E9482
S1135750E620882319F483E08093860E0E947F0656
S11357608B01CE010E94370A882311F00A5C1F4F77
S113577010934918009348180E947F06061B170BC4
S1135780B80110161106BCF48091F30E882381F43D
S113579090E08091101A882309F491E0992359F03C
S11357A0882777FD8095982F0E94D42780E801C030
S11357B080688093F30E4E010894811C911C8985A6
S11357C028859927582F44273327422B532B809120
S11357D08B0E282F3327F901EE0FFF1FE555FE4DE1
S11357E0808191810091111A8417950749F4F90178
S11357F0EF5AF64D8081801709F468C0802F1BC0D2
S1135800EE24FF2480E090E0ABEAB1E2E1E5F9E2C6
S1135810BF01182F9C018D919C91119784179507B6
S113582089F420938B0E9091111AFB0180818917C2
S113583009F44CC0892F8F5F8093111A808300E88C
S1135840E02E2AC08081902F981BE91610F4E92ECF
S1135850F22E1F5FC90101966F5F7F4F129631963A
S113586085309105B1F61530B9F4F0928B0EAF2D59
S1135870BB27FD01EE0FFF1FE555FE4D518340830D
S11358808091111A8F5F8093111AFD01EF5AF64D22
S11358908083A65EB04D1C929091111A892F8F7748
S11358A08F3781F4EEE7EE1568F4E1E5F9E2292F8C
S11358B0207880818F6789132083319689E2E635C9
S11358C0F807B9F780918B0E282F3327F4019281C2
S11358D0A22FBB27FD01E65EF04D808180FF07C04B
S11358E0FD01E956FE4D8081981729F102C08160BF
S11358F08083A956BE4D9C93FFB6F8948091842171
S11359008330B0F4E091D921E80FE33008F0E3509C
S1135910FF27EE0FFF1FEA51F34F00811181D1835E
S1135920C0838F5F8093842181E20E941706E8017F
S11359308F2D99278FBFD093152AC093142A6FC037
S1135940292F2150233008F057C0892F82508230EC
S113595098F48091B014813079F49FEF90934F01C3
S113596080E880934E01809139018D7F80933901C5
S11359709093AF0482E010C0933089F48091B01406
S1135980833069F48DE580934E018FEF8093AF04EB
S113599086E08093420184E08093B01410C02230EA
S11359A070F48091B014853051F493E090934201E7
S11359B010924E018FEF8093AF049093B0149091A6
S11359C0BC0E913069F48091B014833009F04EC05C
S11359D0809139018260809339019093B0141BC087
S11359E09230E9F48091B014833011F510924E0195
S11359F08FEF8093AF040FC0973089F480913829DA
S1135A008064809348018091B014853021F484E04F
S1135A108093B01404C088E08093BC0E04C08091CD
S1135A20BC0E883029F41092BC0E8FE10E94170638
S1135A308091BC0E8823D1F48091B0148530B1F4E8
S1135A4080915821882391F48091860E882371F4E3
S1135A508091F30E882351F490E08091101A8823EA
S1135A6009F491E0992311F00E94E4298091101A1D
S1135A70823009F076C01092101AF0904712F1E0CB
S1135A80FF1629F022E0F21609F06BC063C0009102
S1135A904818109149180E947F062091F30E20386F
S1135AA029F41092F30E0E94E4295BC0E801C61B9E
S1135AB0D70B27FF03C01C161D06ECF00091EA0E5D
S1135AC01091EB0E8091860E8823A9F4C8010E94E0
S1135AD0E6209927882351F4B8010E941D0AF09208
S1135AE0860E10935B2900935A2930C09927182FEA
S1135AF0882361F101C015E02091F30E822F9927CC
S1135B008F77019779F4207822602093F30E88EC44
S1135B1090E00E946B0AAA27BB27BC01CD010E941A
S1135B20D4271FC027FF0EC01C161D065CF480E896
S1135B308093F30EBE01882777FD8095982F0E94ED
S1135B40D42702C01092F30E812F09C083E0809302
S1135B50F30E07C01092860E1092F30E80E00E949E
S1135B60EF298FB7F894282F33278091C50E813001
S1135B7029F081E08093C50E2FBF4ACC1092C50E48
S1135B802FBFDF91CF911F910F91FF90EF90DF9086
S1135B90CF90BF90AF909F908F9008958FB7F89457
S1135BA0282F33278091C50E81508093C50E8038ED
S1135BB011F02FBF089581E08093C50E2FBF0E947E
S1135BC0FC2908958FB7F894282F33278091C50EA8
S1135BD0882329F080688093C50E2FBF089581E043
S1135BE08093C50E2FBF0E94FC29089578941F92BC
S1135BF00F920FB60F9211242F933F934F935F93FD
S1135C006F937F938F939F93AF93BF93EF93FF9380
S1135C102FB7F894332780915821806180935821BD
S1135C202FBF0E94E22DFF91EF91BF91AF919F9101
S1135C308F917F916F915F914F913F912F910F9031
S1135C400FBE0F901F9018951F920F920FB60F92D0
S1135C5011242F933F934F935F936F937F938F936D
S1135C609F93AF93BF93EF93FF938091DF008B7F5C
S1135C708093DF008FEF8093AF048091101A8130FE
S1135C8019F482E08093101A0E94E22DFF91EF91A3
S1135C90BF91AF919F918F917F916F915F914F9140
S1135CA03F912F910F900FBE0F901F9018957894ED
S1135CB01F920F920FB60F9211242F933F934F937D
S1135CC05F936F937F938F939F93AF93BF93EF9360
S1135CD0FF932FB7F89433278091582182608093E3
S1135CE058212FBF0E94E22DFF91EF91BF91AF91F8
