:100000000C94B2010C94D1010C94D1010C94D10147
:100010000C94D1010C94D1010C94D1010C94D10118
:100020000C94D1010C9457220C94D1010C94D10161
:100030000C94D1010C94D1010C94D1010C94D101F8
:100040000C947A0A0C945C0A0C94660A0C94700A5C
:100050000C94390A0C94D1010C94D1010C94D10167
:100060000C94D1010C94B80A0C94D1010C94CA0AD6
:100070000C94D1010C94AF090C94D1010C94D101D2
:100080000C94D1010C94D1010C94D1010C94D101A8
:100090000C94CA0C0C94D1010C94A20D0C94D101B7
:1000A0000C94D1010C94D1010C94D1010C94D10188
:1000B0000C94D1010C94D1010C94D1010C94D10178
:1000C0000C94D1010C94D1010C94D1010C94D10168
:1000D0000C94D1010C94D1010C94D1010C94D10158
:1000E0000C94D1010C940E220C94D1010C94B221E9
:1000F0000C94E0210C9456210C94D1010C94F52021
:100100000C9484210C948D070C9423210C94A40846
:100110000C942D060C94D1010C94D1010C94D101B6
:100120003D437343774391439543C543D843E743E6
:10013000F643D9440645084516453D457A45D24B18
:10014000CF45EC45D446F646474724492E497249E7
:100150007749594A8E4ACA4AD24AEC4A3A4B000079
:100160002110422063308440A550C660E7700881AA
:1001700029914AA16BB18CC1ADD1CEE1EFF1311221
:10018000100273325222B5529442F772D6623993FA
:1001900018837BB35AA3BDD39CC3FFF3DEE3622471
:1001A000433420040114E664C774A44485546AA54A
:1001B0004BB528850995EEE5CFF5ACC58DD5533601
:1001C000722611163006D776F6669556B4465BB79A
:1001D0007AA719973887DFF7FEE79DD7BCC7C448D1
:1001E000E5588668A7784008611802282338CCC9EA
:1001F000EDD98EE9AFF9488969990AA92BB9F55A61
:10020000D44AB77A966A711A500A333A122AFDDB39
:10021000DCCBBFFB9EEB799B588B3BBB1AABA66C30
:10022000877CE44CC55C222C033C600C411CAEED89
:100230008FFDECCDCDDD2AAD0BBD688D499D977E40
:10024000B66ED55EF44E133E322E511E700E9FFFD9
:10025000BEEFDDDFFCCF1BBF3AAF599F788F88918F
:10026000A981CAB1EBA10CD12DC14EF16FE1801073
:10027000A100C230E3200450254046706760B98376
:100280009893FBA3DAB33DC31CD37FE35EF3B102C3
:100290009012F322D2323542145277625672EAB586
:1002A000CBA5A89589856EF54FE52CD50DC5E23413
:1002B000C324A01481046674476424540544DBA756
:1002C000FAB79987B8975FE77EF71DC73CD7D32663
:1002D000F2369106B01657667676154634564CD9E6
:1002E0006DC90EF92FE9C899E9898AB9ABA94458B3
:1002F000654806782768C018E1088238A3287DCBB6
:100300005CDB3FEB1EFBF98BD89BBBAB9ABB754A02
:10031000545A376A167AF10AD01AB32A923A2EFD45
:100320000FED6CDD4DCDAABD8BADE89DC98D267C52
:10033000076C645C454CA23C832CE01CC10C1FEF95
:100340003EFF5DCF7CDF9BAFBABFD98FF89F176EA2
:10035000367E554E745E932EB23ED10EF01E0002D4
:100360000E060C0411241FBECFEFD1E4DEBFCDBFBB
:1003700013E0A0E0B2E0E0EDF9EA00E00BBF02C05C
:1003800007900D92AE3DB107D9F71FE1AEEDB3E096
:1003900001C01D92A234B107E1F70E94054C0C94F4
:1003A000E7540C940000FC0120E030E007C082819B
:1003B0009381280F391F0480F581E02D3097B9F71C
:1003C000C9010895FB0151834083338322839583C0
:1003D00084830895CF92DF92EF92FF920F931F9341
:1003E000CF93DF938C01FB017A01690105C0E81B03
:1003F000F90BE8010C811D81E8018A819B81E817D6
:10040000F907A8F71CC0E8018A819B818E1B9F0B0E
:10041000E7018E159F0508F4EC01D8018D919C91A0
:10042000AE01B6018E0F9F1F0E94DB51CC0EDD1E68
:10043000EC1AFD0AE8010C811D81E0E0F0E00115F5
:10044000110519F01E141F04F4F280E090E0DF9112
:10045000CF911F910F91FF90EF90DF90CF90089573
:100460004F925F926F927F928F929F92AF92BF92C4
:10047000CF92DF92EF92FF920F931F93CF93DF9370
:100480008C014B015A013901CC24DD2404C06C01DC
:10049000F801048115810115110519F4442455242E
:1004A00036C0F801828193818C0D9D1D88169906B6
:1004B00070F74424552428C07401EC18FD08F80195
:1004C000828193818E199F09E5018A159B0508F4A5
:1004D000EC01F801608171816E0D7F1DAE01C301D9
:1004E0000E94DB514C0E5D1EF8010481158101153F
:1004F000110569F0CE0CDF1CCC0EDD1E8C0E9D1E8E
:10050000AC1ABD0A6C0E7D1E1A141B04ACF2C2019B
:10051000DF91CF911F910F91FF90EF90DF90CF90DF
:10052000BF90AF909F908F907F906F905F904F9013
:100530000895EF92FF920F931F93CF93DF93FC01E7
:1005400020E030E040E050E0A0E0B0E02EC062816A
:1005500073816115710531F1C081D18100E010E036
:100560001EC0888100FD0BC09927982F8827A82BD3
:10057000B92BC80101968617970771F403C0992714
:10058000A82BB92B7D01C701AA27BB27280F391F2C
:100590004A1F5B1FA0E0B0E00F5F1F4F21960617B8
:1005A0001707F9F60480F581E02D309781F60BC02E
:1005B000DA01C901A070B0709A0144275527280FAD
:1005C000391F4A1F5B1F203080E0380781E0480751
:1005D00080E0580768F7C90180959095DF91CF9129
:1005E0001F910F91FF90EF900895EF92FF920F935C
:1005F0001F93CF93DF93CDB7DEB76A970FB6F8940A
:10060000DEBF0FBECDBFE42E08969A87898740E1F2
:1006100050E05C874B879E01215F3F4F3E872D87CF
:100620004096988B8F875A8B498BCE0145969C8B31
:100630008B8BCE0101969E8B8D8B88E090E0988FFE
:100640008F8B7A8F698FCB010E94D301AA2797FDE8
:10065000A095BA2FBC01CD010E949C0469837A83C6
:100660008B839C83FF2400271127C801B7010E94B8
:100670009C046D837E838F839887CE0109960E94A8
:1006800099026A960FB6F894DEBF0FBECDBFDF9118
:10069000CF911F910F91FF90EF9008958CED95E011
:1006A00090931604809315040895A5E1B4E0049690
:1006B0009C0121703070280F391F02C0A40FB51F94
:1006C0008D919C911197AC015F704217530710F008
:1006D00097FF06C0CD01855194408C5D954074F321
:1006E00089E0A13FB80718F080E090E00895C901C3
:1006F00002979C013F70306811963C932E93FD0148
:10070000E80FF91F481B590B5F7051834083CD01DF
:1007100002960895CF93DF939C01E5E1F4E0C0E0F9
:10072000D0E006C0808191819F70EF01E80FF91F32
:10073000CF0102968217930739F0CF01855194407B
:100740008C5D95407CF327C0808191819C013F7036
:10075000DF01A20FB31F9F7791838083CD01855165
:1007600094408C5D95404CF48D919C9197FD05C013
:100770009F70280F391F31832083209761F02881D3
:10078000398137FD08C03F70808191819F70280FAB
:10079000391F39832883DF91CF910895E5E1F4E093
:1007A00040E050E00BC02081318137FD04C0C90119
:1007B0009F70480F591F3F70E20FF31FCF01855103
:1007C00094408C5D95407CF3CA0108956F927F92AE
:1007D0008F929F92AF92BF92CF92DF92EF92FF9251
:1007E0000F931F93CF93DF93FB015A018B01040FEB
:1007F000151FDC01CC24DD2440E050E07AE398EFC3
:10080000692E9FEF792E600E711E6E167F0608F41A
:1008100060C0ED01E980FC9024E030E08FEF882E8D
:10082000982ECCE0D0E0C401022E02C096958795A8
:100830000A94E2F78E159F0530F042305105B1F46D
:100840002031310599F4C7010C2E02C09695879589
:100850000A94E2F7682F6F708F7090700A9718F4FF
:10086000862F805D02C0862F895A81932C5F3F4F6F
:10087000249724313105B9F68D919C911197892BDC
:1008800021F54115510559F471938D919C91119762
:10089000892B19F441E050E002C042E050E087E0CB
:1008A000C816D10424F44130510509F0719308941D
:1008B000C11CD11C129688E0C816D10409F0A5CF3E
:1008C0004130510531F4719304C04130510539F77D
:1008D000E4CF11920A191B09CF01801B910BDF9104
:1008E000CF911F910F91FF90EF90DF90CF90BF902D
:1008F000AF909F908F907F906F900895DC018C91C6
:100900008370823021F4FD012181328113C0833054
:1009100019F020E030E00EC0FD01319620E030E01B
:10092000AD01475F5F4F81919191280F391FE41707
:10093000F507C9F7C9010895EF92FF920F931F932E
:10094000FB01BC01882799272F2F3E2F44275527CD
:10095000A90133272227E72EF62E002711272E295B
:100960003F29402B512BCA01B9011F910F91FF90D4
:10097000EF9008959C01DB01FC0104C08D918193EF
:100980004150504041155105C9F7C90108958F9252
:100990009F92AF92BF92CF92DF92EF92FF920F930E
:1009A0001F93CF93DF936C014B01892B09F4A3C0F4
:1009B0006115710509F49FC080E1EB0119928A95D8
:1009C000E9F7D60160E070E090E046C02A3301F11B
:1009D000822F80538A3030F4332727FD30952053FF
:1009E00030400EC0422F552747FD509521542630E8
:1009F00020F49A012753304003C09A012755304014
:100A000044E0660F771F4A95E1F7622B732B0DC008
:100A1000E92FFF27EE0FFF1FE80DF91D072F162FF7
:100A2000118300839F5F60E070E0FD013196ED016E
:100A30002981222359F4E92FFF27EE0FFF1FE80D2C
:100A4000F91DE72EF62EF182E08255C08C918A3393
:100A500011F42A3341F0DF012C91222309F0B6CFA3
:100A6000FD0101C0319680818823E1F7DF011197F4
:100A700060E070E017E090E03BC02C912A3311F168
:100A8000822F80538A3030F4332727FD309520534E
:100A900030400EC0422F552747FD50952154263037
:100AA00020F49A012753304003C09A012755304063
:100AB000092E02C0220F331F0A94E2F7622B732B18
:100AC0009C5F0EC0E12FFF27EE0FFF1FE80DF91D01
:100AD000A72EB62EB182A082115060E070E090E0A7
:100AE0001197FD0181818A3319F48C918A3319F0B1
:100AF000CA16DB0610F2DF91CF911F910F91FF9084
:100B0000EF90DF90CF90BF90AF909F908F9008951F
:100B1000FC0171836083538342833583248308956A
:100B2000CF92DF92EF92FF920F931F93CF93DF93B9
:100B30008C016B01EE24FF241AC0F801828193819D
:100B4000E89EE001E99ED00DF89ED00D1124808131
:100B50009181C80FD91FCE01F6010995FFEF8F3F94
:100B60009F0759F0019759F00894E11CF11CF80116
:100B700084819581E816F90600F3C0E0D0E0CE014B
:100B8000DF91CF911F910F91FF90EF90DF90CF9069
:100B90000895EF92FF920F931F93CF93DF93EC0191
:100BA0007B0100E010E012C08A819B819C01029FC2
:100BB000C001039F900D129F900D1124288139814F
:100BC000820F931FF70109950F5F1F4F8C819D8145
:100BD0000817190748F3DF91CF911F910F91FF90EC
:100BE000EF9008958FB7F894992708958FBF0895CF
:100BF000FC01A281B3818181109751F1282F332705
:100C0000121613062CF59C91892F82958695869550
:100C1000837019F420E130E01DC096959695969565
:100C2000983119F020E030E00BC02450304012160B
:100C300013061CF024E030E00DC0149624E030E0F0
:100C40008C918695869586958C3121F4286002C01A
:100C500020E030E0C901089508951F920F920FB669
:100C60000F9211248F93809138138F5F80933813E4
:100C70008F910F900FBE0F901F901895282F9FB740
:100C8000F894E82FFF27E256F54F80818F3F81F4DB
:100C9000E0917E1EE21771F40BC02093031C04C088
:100CA000FF27E256F54F208320937E1E20E007C0E9
:100CB00025E005C08091031C8F3F91F7EECF892F6F
:100CC00099278FBF822F9927089586E00E943E06BC
:100CD0009927089587E00E943E06992708958EE09F
:100CE0000E943E069927089583E10E943E069927B7
:100CF000089581E10E943E069927089586E10E94A9
:100D00003E06992708958DE10E943E069927089591
:100D10004FB7F89455272091E100622F2091E2000F
:100D2000722F2091E300822F2091E400922F4FBF79
:100D300008950F931F930FB7F894109138130E94E2
:100D400088069B01AC018091E00083FF05C01F5F16
:100D50000E9488069B01AC01802F99278FBF612FCD
:100D6000772788279927FAE1660F771F881F991F31
:100D7000FA95D1F7E6E05695479537952795EA9588
:100D8000D1F7622B732B842B952B1F910F91089514
:100D9000AF92BF92CF92DF92EF92FF920F931F9389
:100DA0000E9499067B018C0120914A0D30914B0DD8
:100DB00040914C0D50914D0D8091F60C9091F70C97
:100DC000A091F80CB091F90C820F931FA41FB51FCE
:100DD000E216F3060407150730F082179307A407FD
:100DE000B50758F005C082179307A407B507E0F5CB
:100DF000E816F9060A071B07B8F59C01AD012E1984
:100E00003F09400B510B213060E0360760E0460798
:100E100062E0560768F180E090E0A0E0B2E0E80E02
:100E2000F91E0A1F1B1FE0924A0DF0924B0D009312
:100E30004C0D10934D0D80E090E0A0E0BEEFE80E69
:100E4000F91E0A1F1B1F2050304040405240209383
:100E5000F60C3093F70C4093F80C5093F90C20E00B
:100E600030E040E052E014C020E030E040E050E0EC
:100E700080934A0D90934B0DA0934C0DB0934D0D64
:100E80001092F60C1092F70C1092F80C1092F90CCC
:100E900059016A01B6E0AA0CBB1CCC1CDD1CBA953A
:100EA000D1F7A6E0EE0CFF1C001F111FAA95D1F789
:100EB0000E9488069B01AC012E5F3F4F4F4F5F4F52
:100EC000DA01C9018E199F09A00BB10B8A159B0588
:100ED000AC05BD0530F4A80197012A0D3B1D4C1D42
:100EE0005D1D5093F8004093F7003093F600209377
:100EF000F50081E08093E0008091DF0081608093C5
:100F0000DF008FEF809353021F910F91FF90EF90BE
:100F1000DF90CF90BF90AF9008951F920F920FB6C1
:100F20000F9211242F933F934F935F936F937F936F
:100F30008F939F93AF93BF93EF93FF938091DF00C5
:100F40008E7F8093DF008FEF809353028091F60CA9
:100F50009091F70CA091F80CB091F90C0097A105B5
:100F6000B10521F480E00E943E0602C00E94C8063E
:100F7000FF91EF91BF91AF919F918F917F916F9171
:100F80005F914F913F912F910F900FBE0F901F9047
:100F90001895FC0182819927982F88272181332772
:100FA000822B932B25E0969587952A95E1F7817002
:100FB00090700895FC0140E050E082819927982FBD
:100FC000882721813327822B932B87749C7C815423
:100FD000984811F441E050E0CA010895FC0187816E
:100FE0009927982F882726813327822B932B0895C2
:100FF000EF92FF920F931F93CF93DF937B018C01AE
:101000008FB7F894C82FDD270E9488069B01AC019A
:10101000C801B701623071058105910520F462E0D5
:1010200070E080E090E0260F371F481F591FDA015B
:10103000C901B093F400A093F3009093F2002093C1
:10104000F10082E08093E0008091DF008260809375
:10105000DF008FEF80935302CFBFDF91CF911F91BD
:101060000F91FF90EF900895FB01EC57FF4F21E0A7
:1010700030E002C0220F331F8A95E2F7209580816D
:1010800082238083089520E030E0FC018181877015
:10109000823011F421E030E0C9010895CF93DF934D
:1010A000EC010E94C9078823D1F0CE010E94DA0723
:1010B0008823A9F0CE010E94EE072FB7F8943327BA
:1010C00040916202509163022FBF20E08417950780
:1010D00009F021E081E02827822F992702C080E0D3
:1010E00090E0DF91CF910895FB01EC57FF4F21E095
:1010F00030E002C0220F331F8A95E2F780818223FD
:1011000099270895EF92FF920F931F937C018FB759
:10111000F894992700911815109119150F5E1E4F1C
:101120001093191500931815015111408FBF85E1D7
:101130000E943E06C801B7010E94305144961F919B
:101140000F91FF90EF9008951F920F920FB60F929C
:1011500011240F900FBE0F901F9018958091F30CE3
:101160002091840030918500B09B05C08F5F209155
:10117000840030918500992799278695979588272F
:1011800036952795822B932B0895FF920F931F93EB
:10119000CF93DF93EC01FFB6F8940E94AE088C0168
:1011A00080E8C130D80768F0C050D0480E94AE082F
:1011B000801B910BC817D907C8F70C0F1D1FC0E083
:1011C000D0E80E94AE08801B910BC817D907C8F75A
:1011D0008F2D99278FBFDF91CF911F910F91FF9096
:1011E000089580917C0090917B008F7199270895DC
:1011F00090917C00907E282F2F71922B90937C00F1
:1012000085FF04C080917B00886003C080917B00D3
:10121000877F80937B000895ECE7F0E090818295D2
:10122000880F880F807C9F73982B90830895DF929E
:10123000EF92FF920F931F938091221C882321F03D
:101240008FE1FF24EE2405C0B8E0FB2EA2E0EA2ED9
:1012500082E0082FDFB6F8948091C10A8E7F8093D8
:10126000C10A10917C000E94F108282F1295169552
:1012700016951370E11619F080E090E00AC0802FF7
:101280008850863120F480E090E0021711F481E06C
:1012900090E0982F9170990F8091C10A8170202F52
:1012A000220F220F892B822B8093C10A802F0E944C
:1012B000F80880917C008F7D80937C008E2D0E94A9
:1012C0000C092091C10A217038E0F31681F5809154
:1012D000041C9091051C31E68038930718F087E0D4
:1012E00090E024C030E3803C930718F086E090E063
:1012F0001DC038E18034930718F085E090E016C0F7
:101300003CE08030930718F084E090E00FC036E0B6
:101310008030930718F083E090E008C0805093403D
:1013200018F082E090E002C080E090E0F82E87E0C4
:10133000F822187F1F2918612295220F207E1F7D19
:10134000122B106C812F992780937A008D2D99276D
:101350008FBF1F910F91FF90EF90DF9008951F9224
:101360000F920FB60F9211240F931F932F933F9359
:101370004F935F936F937F938F939F93AF93BF939D
:10138000EF93FF93409178005091790078948FB754
:10139000F89499272091C10A322F36953170217027
:1013A0008FBF222319F580917A00877F80937A007E
:1013B0008091A50F813021F0823009F047C00AC02A
:1013C000332351F0509312154093111583E00E947E
:1013D0003E063CC0332339F48DE790E00E94C508F7
:1013E0000E94170933C01092A50F30C00FB7F894B0
:1013F000112780917C000E94F1080FBF2FB7F8944D
:10140000332780917A00582F5770482F4072087DFB
:10141000042B052B8074077B082B00610F77802F2E
:10142000992780937A00087D042B052B07730061B0
:10143000802F992780937A00087D042B052B077B4A
:101440000069802F992780937A002FBFFF91EF9139
:10145000BF91AF919F918F917F916F915F914F91CC
:101460003F912F911F910F910F900FBE0F901F90E2
:1014700018951F920F920FB60F9211248F939F937E
:1014800080919E1C90919F1C019690939F1C80932D
:101490009E1C892B29F48091F50C8F5F8093F50CAD
:1014A0008091F30C8F5F8093F30C9F918F910F903D
:1014B0000FBE0F901F9018951F920F920FB60F92AC
:1014C00011240F900FBE0F901F9018951F920F922E
:1014D0000FB60F9211240F900FBE0F901F9018950A
:1014E0001F920F920FB60F9211240F900FBE0F9004
:1014F0001F9018951F920F920FB60F9211240F9004
:101500000FBE0F901F90189521E030E002C0220F0F
:10151000331F8A95E2F78091550D822B8093550DEC
:10152000EBE6F0E08081282B2083E8E6F0E0808184
:101530008160808380E090E0089521E030E002C087
:10154000220F331F8A95E2F7922F90958091550DC7
:1015500089238093550DEBE6F0E08081282B2083D2
:10156000E8E6F0E080818160808380E090E008958B
:101570001F920F920FB60F9211248F938091C0008B
:1015800087FF02C08091C6008F910F900FBE0F9011
:101590001F90189578941F920F920FB60F921124F6
:1015A0000F900FBE0F901F901895EEE5F1E06927A0
:1015B000660FF11DE60FF11DC895982F802D31960D
:1015C000C89590250895982F8091ED03882389F57B
:1015D000992379F531E03093ED038091580280939F
:1015E000EE032091E203822F81708093970A80910D
:1015F0005D0290915E029093F0038093EF038091DF
:10160000E3038093F10332273170267EE32FFF2717
:10161000EE0FFF1FE75AFD4F8081918190935E028C
:1016200080935D02232B2093E2038DE00E943E060F
:1016300008958091E20380FF02C08B7F01C08D7FFF
:101640008093E20308951F931FB7F89480914A1E78
:10165000882341F488E00E943E06882319F481E043
:1016600080934A1E812F99278FBF1F9108959FB79E
:10167000F894809110158A3011F020E006C020E027
:101680008091FE0A843009F421E0892F99278FBFC9
:10169000222349F08AE00E943E068FB7F8949927EA
:1016A0001092E10306C08FB7F894992721E02093A8
:1016B000E1038FBF08950F931F93082F162F80917A
:1016C000FE0A8130D9F0813038F0823009F44AC006
:1016D000833009F028C159C0002309F458C1109281
:1016E000EC1B1092EB1B10922B151092FE1B10920C
:1016F000CF0C10923A131092391339C1002309F01C
:1017000046C18091391390913A130E94D50A909363
:101710003A138093391382E08093FE0A1093FE1BE4
:10172000143409F000C125C18695869503C08091C7
:10173000E2038695817009F0F6C08091E203992357
:1017400011F0846001C082608093E2038091E20323
:10175000877E88608093E2031092E3038FEF80938B
:10176000580215C1002309F0DEC06093CF0C8091B0
:10177000391390913A130E94D50A90933A138093AB
:10178000391383E08093FE0A02C180912B158F3FAD
:1017900009F4C9C0002309F461C0823008F4C3C051
:1017A000E091EB1BEE2309F4EBC04E2F4150E42FE8
:1017B000FF27E551F44E82819927382F22274423B1
:1017C00011F4E2E002C0E42FE150FF27E551F44EAE
:1017D00082819927282B392B8091391390913A13C4
:1017E0002817390709F09FC080E00E94E30A309172
:1017F000CF0C80911E1320911F13982F9F5F96305E
:1018000008F090E0921771F0E82FFF27E25EFC4E9F
:1018100032838F5F80931E13863010F010921E1358
:101820000E94230B1092EC1B1092EB1B94E0909300
:10183000FE0A10922B151092FE1B1092CF0C1092E4
:101840003A13109239138091F2038D7F8093F20343
:101850008091E103882309F49AC084C0823008F49F
:101860004EC0E091EC1BFF27E551F44E8281482FDA
:101870005527342F2091E203822F869586958695F1
:10188000837099278130910519F00297F9F40EC001
:10189000277E20612093E203442311F485E001C0F8
:1018A00080E08093E3033093580210C08091E303FB
:1018B000873860F4E0915D02F0915E02E80FF11D5F
:1018C00040838091E3038F5F8093E3038091EC1B5F
:1018D000E82FFF27E551F44E62818F5F8093EC1B68
:1018E000833010F01092EC1B772780913913909180
:1018F0003A130E94D50A90933A138093391380913A
:10190000EB1BE82FFF27E551F44E12838F5F809386
:10191000EB1B833010F01092EB1B80912B158F5F27
:1019200080932B1534C01092EC1B1092EB1B14E02B
:101930001093FE0A10922B151092FE1B1092CF0CE2
:1019400010923A13109239138091F2038D7F809395
:10195000F20381E00E94E30A8091E103882329F0E9
:101960001093FE0A0E94370B12C0002381F081E021
:1019700009CF8091E203982F917080FDD5CED7CE0C
:101980008091EF1B9927382F222742E01CCF1F910F
:101990000F9108951F920F920FB60F9211242F935B
:1019A0003F934F935F936F937F938F939F93AF93E7
:1019B000BF93EF93FF938091C80087FF42C060916F
:1019C000CE00E0913B13F0913C13309719F18091D8
:1019D000481E9091491EE80FF91F6083019690936D
:1019E000491E8093481E2091B01E3091B11E82176F
:1019F000930738F110923C1310923B138091DF143F
:101A00008330F9F08091C9008F778093C9001092DC
:101A1000DF1417C06E3719F460E081E010C08091C8
:101A2000F2036D3721F482608093F2030AC081FFD4
:101A300005C08D7F8093F20380E2682780E00E94DA
:101A40005B0BFF91EF91BF91AF919F918F917F9130
:101A50006F915F914F913F912F910F900FBE0F901B
:101A60001F9018952FB7F89433278093CE00E8EC99
:101A7000F0E08081806480832FBF0895FC016115B0
:101A8000710519F481E090E0089580914E0D9091D8
:101A90004F0D892B19F085E090E008957093F31BAA
:101AA0006093F21BF0934F0DE0934E0D1092000BDC
:101AB0001092FF0A81E08093010B8091C80080643E
:101AC0008093C8008091C90080648093C9008081A0
:101AD00021E030E03093000B2093FF0A0E94320D8A
:101AE00080E090E00895982F8D57823068F48091BF
:101AF000F20381608093F20380E2892780931A15B4
:101B00008DE78093BD0A02C09093BD0A61E070E04A
:101B10008DEB9AE00E943E0D992708958FB7F894B7
:101B200099272091F2032E7F2093F2032EE7209332
:101B3000BD0A8FBF61E070E08DEB9AE00E943E0D20
:101B40009927089578941F920F920FB60F9211243F
:101B5000FF920F931F932F933F934F935F936F9336
:101B60007F938F939F93AF93BF93CF93DF93EF9325
:101B7000FF932091FF0A3091000B8091F21B90910E
:101B8000F31B2817390780F4E0914E0DF0914F0DAB
:101B9000E20FF31F80812F5F3F4F3093000B2093A4
:101BA000FF0A0E94320DD1C010924F0D10924E0DBF
:101BB0001092010B8091C9008F7B8093C900FFB602
:101BC000F8948091F20380FF0EC08E7F8093F20321
:101BD00080911A158093BD0A61E070E08DEB9AE068
:101BE0000E943E0DAFC080911015843009F48CC066
:101BF000853040F4823021F18330B8F5813009F02E
:101C00009CC00DC0863009F48DC0863008F483C0B6
:101C1000873009F48EC0883009F08FC091C0809160
:101C2000490D0E94730D082F83E080931015609179
:101C3000490D8091AB1E9091AC1E0E94D50A10C038
:101C400080911B1C0E94730D082F83E08093101558
:101C500060911B1C8091AB1E9091AC1E0E94D50A16
:101C60009093AC1E8093AB1E66C0E0913E13FF279D
:101C7000EE0FFF1FEE5AF24F80810E94730D082F66
:101C800010913E13C12FDD27FE01EE0FFF1FEE5A0C
:101C9000F24F60818091AB1E9091AC1E0E94D50ADC
:101CA0009093AC1E8093AB1E2091F40C2F5F209379
:101CB000F40C113039F58091E903E091E403F091DF
:101CC000E503E80FF11DE0818F5F8093E9039091B8
:101CD000E803981730F482E08093530D40E050E021
:101CE00002C04E2F5527DE01AA0FBB1FFD01EF5A80
:101CF000F24F8081823031F02F3F21F0AE5AB24F47
:101D00004C9319C084E012C08091AB1E0E94730DE9
:101D1000082F85E00BC08091AC1E0E94730D082F28
:101D200086E004C00E948E0D082F87E08093101576
:101D300002C088E003C0002329F089E080931015D9
:101D40000E94230B8F2D99278FBFFF91EF91DF9179
:101D5000CF91BF91AF919F918F917F916F915F9143
:101D60004F913F912F911F910F91FF900F900FBEB8
:101D70000F901F901895EF920F931F93AE2D99E03F
:101D8000899FF0011124E05CFC4E40835183628303
:101D900073830483158326833783A17080858E7FA8
:101DA0008A2B8260808781E00E943E061F910F91FE
:101DB000EF900895AF92BF92CF92DF92EF92FF9291
:101DC0000F931F93F82E5A016B010E949906AB01E5
:101DD000BC01E1E0EE2E960185018F2D0E94BB0E25
:101DE0001F910F91FF90EF90DF90CF90BF90AF9039
:101DF00008952F923F924F925F926F927F928F92AF
:101E00009F92AF92BF92CF92DF92EF92FF920F9389
:101E10001F93CF93DF93CDB7DEB7E0970FB6F8945B
:101E2000DEBF0FBECDBF80914F0290915002888BD4
:101E3000892F99278F871E868FE48D878CE48C8766
:101E40008DE68B8782E18A871986DE019996FE01ED
:101E5000399688E001900D928150E1F7DE011196EC
:101E6000FE01B99688E001900D928150E1F7DE0104
:101E70005196FE01319688E001900D928150E1F774
:101E8000DE019196FE01719688E001900D928150DD
:101E9000E1F799A188A589A398A79AA18FA18AA300
:101EA0009FA39BA18EA18BA39EA39CA18DA18CA37C
:101EB0009DA3DE015996FE01B19688E001900D9236
:101EC0008150E1F798A1298C3A8C4B8C5C8C6D8CFD
:101ED0007E8C8F8C222D332D442D552D662D772D04
:101EE000882DE0960FB6F894DEBF0FBECDBFDF9110
:101EF000CF911F910F91FF90EF90DF90CF90BF9007
:101F0000AF909F908F907F906F905F904F903F9099
:101F10002F900895AC012091080A253018F081E037
:101F200090E0089580911315682F620F712D711D37
:101F3000FB016530710508F03597EE0FFF1FE85281
:101F4000F54F518340832F5F2093080A80E090E093
:101F500008950F931F93CF93DF93DC019B01409172
:101F60003B1F50913C1F8D919C9111978E5F904823
:101F7000B9F5FD018285938580509F4FC1F4FD0125
:101F8000848595858E3F910591F4018510855D7F4F
:101F900004171507B9F5F90180818C7F8260808371
:101FA000FD01C785D685F901D283C18316C0F90129
:101FB000808183608083E901FD013F96AD01495F27
:101FC0005F4F8081319789832196E417F507C9F720
:101FD000F901808592E08927808780E090E014C035
:101FE0008C918F3F79F4FD0181818F70823051F4A3
:101FF000F90180818C7F826080838FEF9FEF9283D5
:102000008183EBCF81E090E0DF91CF911F910F9121
:102010000895AC012091A60F2C3018F081E090E0DB
:10202000089580919D1C682F620F712D711DFB0119
:102030006C30710508F03C97EE0FFF1FE857F14E2A
:10204000518340832F5F2093A60F80E090E0089596
:10205000AC012091A70F2C3018F081E090E008959A
:102060008091F20C682F620F712D711DFB016C3095
:10207000710508F03C97EE0FFF1FE45DFA4E5183A7
:1020800040832F5F2093A70F80E090E00895AF92E8
:10209000BF92CF92DF92EF92FF920F931F93CF9355
:1020A000DF93FC019B017A0108E010E0CB0168E0BE
:1020B00070E00E9444515B016F01C60ED71EC9013A
:1020C00068E070E00E9444519801281B390BCFEF63
:1020D000D0E0DE0102C0AA0FBB1F2A95E2F7CD01B6
:1020E000D6012C91282329F5C70168E070E00E94F1
:1020F00044519B01E60FF71FC70168E070E00E94A2
:102100004451081B190B02C0CC0FDD1F0A95E2F7E2
:1021100080818C2371F4F601B50105C0819188237B
:1021200041F46F5F7F4F62177307C4F380E090E064
:1021300002C08FEF9FEFDF91CF911F910F91FF9022
:10214000EF90DF90CF90BF90AF900895DC01FC013D
:102150008681815086838823C1F49091C60A93308A
:10216000A0F48091150A282F290F312D311DF90176
:102170002330310508F03397EE0FFF1FE45EF34E76
:10218000B183A0839F5F9093C60A0895AC0120910C
:10219000BF0A233018F081E090E008958091AF1ECF
:1021A000682F620F712D711DFB016330710508F0FE
:1021B0003397EE0FFF1FEE5FF54F518340832F5F84
:1021C0002093BF0A80E090E008952091080A22231E
:1021D00019F440E050E016C080911315E82FFF2756
:1021E000EE0FFF1FE852F54F40815181118210829E
:1021F00021502093080A8F5F80931315853011F4C6
:1022000010921315CA010895AC01209113042530D2
:1022100018F081E090E0089580911204E82FFF27E4
:10222000EE0FFF1FE55BFA4E518340838F5F809373
:102230001204853011F4109212042F5F20931304BE
:1022400080E090E00895AF92BF92CF92DF92EF923C
:10225000FF920F931F93F82E5A016B010E9499066B
:10226000AB01BC01EE24960185018F2D0E94BB0EAF
:102270001F910F91FF90EF90DF90CF90BF90AF90A4
:1022800008952F923F924F925F926F927F928F921A
:102290009F92AF92BF92CF92DF92EF92FF920F93F5
:1022A0001F93CF93DF93CDB7DEB729970FB6F8947E
:1022B000DEBF0FBECDBF6FB76983F8942090EC0CE2
:1022C0003090ED0C4090EE0C5090EF0C662477248B
:1022D0008824FEE4AF2EE3E8BE2ECC24DD24EE24D9
:1022E000FF2400E010E0222D332D442D552D662DC6
:1022F000772D882D90E00E94904F2A833B834C835A
:102300005D836E837F8388879987822E932EA42E88
:10231000B52E2401350100E20E948E50A22EB32E6C
:10232000C42ED52EA3019201569547953795279532
:102330002A0D3B1D4C1D5D1D57FF05C05F772F5FAC
:102340003F4F4F4F5F4F2093EC0C3093ED0C409379
:10235000EE0C5093EF0CE9818E2F99278FBFCA01A5
:10236000B90129960FB6F894DEBF0FBECDBFDF913D
:10237000CF911F910F91FF90EF90DF90CF90BF9082
:10238000AF909F908F907F906F905F904F903F9015
:102390002F9008950E944111DC01CB010895109205
:1023A000FB038FEF9FEF90938F0280938E029093A9
:1023B00091028093900290936C0280936B02E8E10B
:1023C000FBE0108277968CE0E43EF807D1F70895A1
:1023D000FC01E458FF4F8081918108958091F703BB
:1023E000E82FFF27EE0FFF1FE554F44E0190F08118
:1023F000E02D2091F903222351F08F5F8093F703A2
:102400008C3011F41092F70321502093F903CF017F
:102410000895CF93DF93EC0120E00FC0E22FFF2758
:10242000DE01AE0FBF1FE60FF71F9C91808198174A
:1024300019F080E090E005C02F5F241779F781E064
:1024400090E0DF91CF9108951F931FB7F89480918A
:10245000F403823099F580916702882379F58091A1
:10246000650220E030E08F3F11F421E030E0232BC3
:10247000F1F49FEF909367028F3F19F42FEF30E054
:102480000DC0282F3327F901E650F34F8081809348
:1024900065028F3F11F49093660290832093C30AE4
:1024A00081E08093F40380E10E943E0605C08FEF37
:1024B000809367021092F40321E001C020E0812F95
:1024C00099278FBF90E0213009F491E081E09827AF
:1024D000892F99271F9108959FB7F8948091FE0A3C
:1024E000882319F484E08093FE0A892F99278FBFEF
:1024F0009FB7F89480911015882319F48AE080938F
:102500001015892F99278FBF0E94370B80E090E02C
:1025100008958FB7F894282F3327922F80911015A4
:102520008A3041F08091FE0A843021F02FBF89E08B
:1025300090E008959FBF89E00E943E0680E090E011
:102540000895992780FF02C0749801C0749A81FF92
:1025500002C0759801C0759A82FF02C0769801C0CA
:10256000769A83FF02C077980895779A0895982FF6
:10257000969596959695EFE3F3E1E90FF11D877037
:1025800021E030E002C0220F331F8A95E2F78081FC
:10259000822399270895CF92DF92EF92FF920F93B3
:1025A0001F93CF93DF931092A50FC0901115D09079
:1025B00012158091221C882309F068C08FB7F89407
:1025C000E82E8091DF03833009F040C080915402EF
:1025D0008823E1F580913F13882309F051C042C060
:1025E000EF2DE695E695E695FF274F2D5527E15C03
:1025F000FC4E9A012770307081E090E002C0880F95
:10260000991F2A95E2F78095208128232083C09383
:10261000DE0311C02196C130D10511F4C0E0D0E035
:10262000FC2E8C2F0E94B7128823D1F6C017D10739
:1026300089F74FEF50E0409355158FEF8093540288
:1026400081E08093DF0382E00E943E06EFBE10929D
:10265000851E8098D092120AC092110A84E00E94CE
:102660003E0614C081E0809354021092DF038091F3
:102670007A008F7780937A008FEF80935302E6CFB2
:102680008091DE03082F1127E801C4CFDF91CF919D
:102690001F910F91FF90EF90DF90CF9008950F93CF
:1026A0001F930FB7F894112760934A0D70934B0D49
:1026B00080934C0D90934D0D2093F60C3093F70CB6
:1026C0004093F80C5093F90C0E94C8060FBF1F915D
:1026D0000F910895E82F272F362F21153105D9F0B6
:1026E000882349F080917F1E9091801E8217930766
:1026F000E1F0E13049F08091811E9091821E8217B5
:10270000930799F0E23039F08091831E9091841EF6
:102710008217930751F0FF27EE0FFF1FE158F14E8C
:102720003183208380E090E0089581E090E0089577
:102730008F929F92AF92BF92CF92DF92EF92FF92D1
:102740000F931F93CF93DF93CDB7DEB7A8970FB644
:10275000F894DEBF0FBECDBF8C01A0903B1FB090A0
:102760003C1F80901C1390901D130E94F90E29A30A
:102770003AA34BA35CA36DA37EA38FA398A7DE010E
:102780005996FE01B19688E001900D928150E1F7D3
:10279000DE011196FE01799688E001900D9281503C
:1027A000E1F7DE011996FE01319688E001900D9265
:1027B0008150E1F7DE015196FE01399688E00190E3
:1027C0000D928150E1F780E1F80111928A95E9F7C5
:1027D0008EEF90E8F80191838083809161028823D5
:1027E00099F0EB2CFA2CF186E08680E09FEF93873E
:1027F00082878EEF90E095878487C92CD82CD78666
:10280000C68680858D7F13C0F80127E030E0DE01A9
:1028100058968C91119780872150304031968FEFD8
:102820002F3F3807B1F7F801808592E0892780872C
:1028300081E090E0A8960FB6F894DEBF0FBECDBF42
:10284000DF91CF911F910F91FF90EF90DF90CF908C
:10285000BF90AF909F908F900895FC01808D9F0155
:10286000285F3F4F8F3F39F4818D99278F7090708B
:10287000039754F00EC08E3F61F4818D9927807FBD
:102880009070813891052CF4C9010E949813992702
:102890000895F901A6E2B3E180E10D900192815023
:1028A000E1F78091F30399270895FC013F968BE0AF
:1028B000DF011D928A95E9F73F9782E082871782B0
:1028C000168208958F929F92AF92BF92CF92DF921D
:1028D000EF92FF920F931F93CF93DF935C01EB0175
:1028E0006A01A901F701108228813981F0E82E3FA1
:1028F0003F0709F08DC08A819B81892B09F088C030
:102900008C819D81892B09F083C08E819F81892BC9
:1029100009F07EC0288539852115310591F48A8515
:102920009B85892B71F48C859D85892B51F482E0E0
:10293000F70180838E859F85F501819391935F01D7
:10294000DDC0C8019D7F892E982E28153905B9F460
:102950008A859B8580509F4F91F48C859D858E3F05
:10296000910569F4FA0180818370823041F4A2817B
:10297000B1818E859F858A179B07F1F53BC0FA01CF
:10298000808183708330C1F5DE0118969A012F5F34
:102990003F4FF901878192E089279885981761F563
:1029A000FD019181F9018681981731F5FD01928130
:1029B000F9018581981701F5FD019381F901848161
:1029C0009817D1F4FD019481F90183819817A1F43E
:1029D000FD019581F9018281981771F4FD019681BD
:1029E000F9018181981741F4FD019781FA018181F4
:1029F000981711F483E072C081E0F7018083D5015C
:102A0000FE01389688E001900D928150E1F739C0BF
:102A10001C141D040CF043C084E0F7018083F0E82F
:102A2000CF16D10431F487E0F701808380E090E095
:102A300063C040E750E0B601CE010E944710892BE9
:102A400061F4F7018081826080838E859F85F50126
:102A50009183808382E090E04FC040E450E0B60173
:102A6000CE010E944710F7012081892B69F4216073
:102A70002083D501FE01389688E001900D928150A7
:102A8000E1F788E090E038C02B7FF7012083D50183
:102A9000FE0180E101900D928150E1F72BC0232BC4
:102AA00001F58A819B81892BE1F48C819D81892BA1
:102AB000C1F48E819F81892BA1F488859985892B0A
:102AC00081F48A859B85892B61F48C859D85892B72
:102AD00041F48E859F85892B21F484E0F701808362
:102AE0000DC0F7011082D501FE0180E101900D9229
:102AF0008150E1F780E190E0A80EB91EC501DF9199
:102B0000CF911F910F91FF90EF90DF90CF90BF90EA
:102B1000AF909F908F9008950F931F93CF93DF9363
:102B2000CDB7DEB722970FB6F894DEBF0FBECDBF8C
:102B3000BC01DA01AC014A5F5F4FFD018185837002
:102B4000823049F4828593859A838983FB01978338
:102B500086838B010EC0CA018D01065F1F4F28E0DE
:102B6000F80101908F01FC010192CF012150C1F7C2
:102B70008A01085F1F4F8C918370823051F4FD01F0
:102B8000818192819A838983F80181939193AF0126
:102B90000FC09801CD01019648E0FC010190CF01E2
:102BA000F90101929F014150C1F7A801485F5F4FB1
:102BB0002C912370332730E4239F302D22271124BA
:102BC0002164FD01818583709927982F8827990FAB
:102BD000990F822B932BFB018183892F9927828365
:102BE000FD018289FB018483FD0182899389892FFC
:102BF0009927FB018583CA0122960FB6F894DEBFA0
:102C00000FBECDBFDF91CF911F910F9108952F92ED
:102C10003F924F925F926F927F928F929F92AF926C
:102C2000BF92CF92DF92EF92FF920F931F93CF93B9
:102C3000DF934C018091BE0A882309F01FC1809167
:102C4000A80F853009F01AC18091AA1B882309F0CA
:102C500015C1B40182E00E947408882311F490E049
:102C60000BC025E830E0820E931EF40191812BE722
:102C70003FEF820E931E9F7080913D13981729F0AD
:102C800090933D13906C90934501C4010E94DA0724
:102C90008823A9F08091460199278F719070209127
:102CA000241C4091960A240F312D311D43E03595A7
:102CB00027954A95E1F7281739070CF4DFC089E01A
:102CC00080934201B40184E00E947408882319F4BF
:102CD000C0E0D0E006C0D4018C918550E401C80F5B
:102CE000D11DF40180819927282F80938001809144
:102CF00041018F71893021F086E080934201BEC08E
:102D000014010894211C311C0EEFF02EF20E0FB7A7
:102D1000F89411270E9488062B013C0182E08093E1
:102D200042010FBF8BE090E0A0E0B0E0480E591EDA
:102D30006A1E7B1E6F2D7727209709F47EC028819D
:102D4000E9808A81AB809927AA27BB27BA2FA92FB0
:102D5000982F8827332744275527522F4427332776
:102D60002227FF24002711278701FF24EE242E2984
:102D70003F29402B512BBB24CC24DD242A293B297D
:102D80004C295D29822B932BA42BB52B84199509F3
:102D9000A609B7098B83292F3A2F4B2F55272A8352
:102DA0009D014427552729838B2F9927AA27BB27C5
:102DB0008883AB01B10181E891E00E94DB5186E09C
:102DC000809342012881E9808A81AB809927AA27D4
:102DD000BB27BA2FA92F982F882733274427552799
:102DE000522F442733272227FF240027112787014A
:102DF000FF24EE242E293F29402B512BBB24CC2429
:102E0000DD242A293B294C295D29822B932BA42BD5
:102E1000B52B840D951DA61DB71D8B83292F3A2F29
:102E20004B2F55272A839D014427552729838B2F14
:102E30009927AA27BB27888309C0AB01B10181E884
:102E400091E00E94DB5186E080934201F401EC574F
:102E5000FF4F808182608083A0E8B0E08A0E9B1ED5
:102E6000F401408251826282738286E08093A80FCF
:102E700084E08093BE0A80E090E002C085E090E0AC
:102E8000DF91CF911F910F91FF90EF90DF90CF9046
:102E9000BF90AF909F908F907F906F905F904F907A
:102EA0003F902F9008954F925F926F927F928F92F2
:102EB0009F92AF92BF92CF92DF92EF92FF920F93C9
:102EC0001F93CF93DF93CDB7DEB760970FB6F8941B
:102ED000DEBF0FBECDBFDC013A01A901280180E1B0
:102EE000FD0111928A95E9F777279B0123703070D5
:102EF00062FD55C02130310571F022303105C1F03D
:102F0000232BE1F4FA0180E101900D928150E1F769
:102F1000405F5F4FBEC08EEF90E811969C938E93FA
:102F20001896FA0188E001900D928150E1F774C083
:102F30008EEF90E811969C938E9371C08EEF90E87F
:102F400011969C938E93F201808183708330A9F453
:102F50009D0167E070E08201085F1F4FF8018081EA
:102F600001501040F9018087615070402F5F3F4F42
:102F7000FFEF6F3F7F0791F776C0C7019D7FC92E96
:102F8000D82EFD01D186C0868FEF83878EEF848790
:102F9000F201A280B180FD01B786A6867AC0211514
:102FA000310509F476C08E010F5F1F4F66E273E1B1
:102FB00080E1FB010190BF01F80101928F01815076
:102FC000C1F78091F303882391F0662081F4CD014D
:102FD0008E010F5F1F4F68E0F80101908F01FC0127
:102FE0000192CF016150C1F780E490E002C080E01F
:102FF00090E02230310599F023303105C1F02130C5
:10300000310519F040E050E044C01896FA0188E01C
:1030100001900D928150E1F7485F5F4F3AC0FA018D
:1030200081919191AF01FD019787868732C08134EC
:103030009105FCF4F201808183708330E9F49D01F5
:1030400067E070E08201085F1F4FF8018081015046
:103050001040F9018087615070402F5F3F4FFFEFB4
:103060006F3F7F0791F7FD01808592E08927808778
:1030700010C0813791056CF4189688E0FD0111921B
:103080008A95E9F71897F20182809180FD01978671
:103090008686CA0160960FB6F894DEBF0FBECDBF1C
:1030A000DF91CF911F910F91FF90EF90DF90CF9024
:1030B000BF90AF909F908F907F906F905F904F9058
:1030C0000895AF92BF92CF92DF92EF92FF920F934B
:1030D0001F93CF93DF936C015B018A01EE24FF24E1
:1030E00015C0F8018191C82FDD27AE01BF01C601CF
:1030F0000E94CE51892B29F4CC0DDD1D88818823B7
:1031000059F00894E11CF11C055F1F4FEA14FB0401
:1031100044F35EEFE52EF12CC701DF91CF911F91B3
:103120000F91FF90EF90DF90CF90BF90AF900895F8
:103130000F931F93CF93DF93CDB7DEB760970FB692
:10314000F894DEBF0FBECDBF9C018B01DE0111964E
:10315000E6E2F3E180E101900D928150E1F7809188
:10316000F303882371F048E050E0B901CE010196E5
:103170000E94CE51892B29F4F801108280E490E05E
:1031800002C080E090E060960FB6F894DEBF0FBEFC
:10319000CDBFDF91CF911F910F9108958F929F9294
:1031A000AF92BF92CF92DF92EF92FF920F931F9355
:1031B000CF93DF934C01EB01AA24BB2475E4E72EE7
:1031C00070E1F72E87010351104063E0C62ED12C29
:1031D000C00ED11EF801808180FF18C0F7018081E8
:1031E000882391F09927C817D9070CF4CE0168E01D
:1031F00070E00E944451AB01B601C4010E94CE515F
:10320000892B21F4209711F0C80111C00894A11C4A
:10321000B11C85E290E0C80ED91E0B5D1F4FE80E71
:10322000F91E94E1A916B104A9F680E090E0DF91BF
:10323000CF911F910F91FF90EF90DF90CF90BF90B3
:10324000AF909F908F900895CF92DF92EF92FF9270
:103250000F931F93CF93DF936C018091FB0388231F
:1032600011F180E090E008E11BE0EAEEEE2EEFEFD6
:10327000FE2EE00EF11EEC0140E150E0B601C70168
:103280000E94CE51892B21F4F8018081882369F4B2
:10329000CE01019627E130E0E20EF31E095E1F4FDA
:1032A0008431910541F7C4E1D0E0CE01DF91CF91A7
:1032B0001F910F91FF90EF90DF90CF9008950F93A3
:1032C0001F93CF93DF93CDB7DEB760970FB6F89417
:1032D000DEBF0FBECDBF8C01DE011196E6E2F3E149
:1032E00080E101900D928150E1F740E150E0B8019A
:1032F000CE0101960E94CE51892B89F48091FF0363
:10330000882341F0809151029091520290936C0277
:1033100080936B0280916B0290916C0217C0C80180
:103320000E942419843119F484E392E10FC0282FFC
:10333000332787E190E0289FF001299FF00D389F07
:10334000F00D1124EE5FF44F8089918960960FB6DD
:10335000F894DEBF0FBECDBFDF91CF911F910F91CB
:10336000089580EA9CE10E945F190895DF92EF9230
:10337000FF920F931F93CF93DF93CDB7DEB7D0901B
:10338000FB03DD2009F446C000E010E0F2E0EF2E80
:10339000FBE0FF2E40E150E0BE01665F7F4FC701BA
:1033A0000E94CE51892B51F00F5F1F4F27E130E073
:1033B000E20EF31E0431110569F1ECCF043151F135
:1033C000402F552787E190E0489FD001499FB00DDD
:1033D000589FB00D1124AE5FB44F9E01265F3F4F42
:1033E00087E1F90101909F010D928150D1F787E1AA
:1033F00090E0489FF001499FF00D589FF00D112477
:10340000EE5FF44F8AE090E0958B848BD394D0925A
:10341000FB0323C040E050E0E8E1FBE06D2D6F5F6F
:103420009091FB0320E030E08081882361F4F90172
:10343000EE5FF44FDE011A9687E10D900192815004
:10344000E1F7962F08C04F5F5F4F295E3F4F779699
:103450004431510549F79093FB03DF91CF911F91C0
:103460000F91FF90EF90DF900895CF93DF93EC01E1
:10347000A0E0B0E0E3E3F0E19F0121503040B9016A
:103480006B5D7F4F4FEB52E0808191818C179D07E0
:1034900059F4C9010E94E4518091F1128E7F80930A
:1034A000F11280E090E00DC01196455250406B5DE6
:1034B0007F4F2B5D3F4FB596A431B10529F781E0D1
:1034C00090E0DF91CF9108959F92AF92BF92CF92FB
:1034D000DF92EF92FF920F931F93CF93DF936C01D4
:1034E0008B015A01922ECB0187709070892B09F0C5
:1034F000A8C0613871050CF0A4C0C6010E94CE18A6
:10350000EC01892B31F08B8999278017910709F4F9
:103510007DC08091F11280FD6FC0EE24FF24E5E4B0
:10352000F0E1BF0163517040DB01C0E0D0E08C915D
:10353000959680FF24C080819927801791076CF0B1
:103540000894E11CF11CA5966B5D7F4FB59684E154
:10355000E816F10409F450C0EACF83E190E08E1937
:103560009F0925E230E0829FA001839F500D929F2A
:10357000500D1124CE01895A9F4E0E94E45185E2DC
:1035800090E0E89EF001E99EF00DF89EF00D112408
:10359000EE5CFF4E80818160808320915F023091DC
:1035A0006002A9014F5F5F4FA3E3B0E1FD013197D6
:1035B0008081B59680FF08C08D919C9111978217EC
:1035C000930711F49A01EDCF959683E1E631F80760
:1035D00079F75093600240935F0285E290E0E89EA5
:1035E000F001E99EF00DF89EF00D1124EE5CFF4E07
:1035F00032832183EF0102C0C0E0D0E00115110544
:1036000019F48FE00E943E062097D9F00B8B9CA204
:10361000C80168E070E00E944451AB01B601CE01E0
:1036200003960E94DB51A114B10441F0DE015496CF
:10363000F50180E101900D928150E1F789819A8135
:1036400002C08FEF9FEFDF91CF911F910F91FF90FD
:10365000EF90DF90CF90BF90AF909F900895BF9272
:10366000CF92DF92EF92FF920F931F93CF93DF934E
:10367000CDB7DEB724970FB6F894DEBF0FBECDBF2F
:103680006C017B01B42E9E012F5F3F4F42E050E062
:103690000E943002029729F587010E5F1F4F13C069
:1036A0009E012D5F3F4F42E050E0B801C6010E94ED
:1036B00030020297B1F48B818B15A9F08C81992788
:1036C0000296080F191F98012E193F098A81992720
:1036D000A3E0880F991FAA95E1F7089628173907E4
:1036E000FCF20FEF1FEFC80124960FB6F894DEBF6F
:1036F0000FBECDBFDF91CF911F910F91FF90EF9043
:10370000DF90CF90BF900895CF92DF92EF92FF921B
:103710000F931F93CF93DF93CDB7DEB722970FB6EA
:10372000F894DEBF0FBECDBF6C017A0100E010E05F
:1037300016C09E012F5F3F4F42E050E0B801C60126
:103740000E943002029709F569818A819927B3E0C6
:10375000880F991FBA95E1F70896080F191FF7010E
:1037600080818F3F59F4662321F36B3211F36C3261
:1037700001F36C33F1F26738E1F203C08617C9F642
:1037800002C0F70160836B3311F40FEF1FEFC80124
:1037900022960FB6F894DEBF0FBECDBFDF91CF915A
:1037A0001F910F91FF90EF90DF90CF9008950F93AE
:1037B0001F93CF93DF93CDB7DEB760970FB6F89422
:1037C000DEBF0FBECDBFFB0102976CF18E010F5F14
:1037D0001F4FB801828193810E94C7048091AB136F
:1037E00081FD21C040E054E060E070E08BE00E9489
:1037F0002311A9E6BEE1F80180E101900D9281500C
:10380000E1F78AE090E09093481580934715109275
:10381000AE1E1092AD1E1092471E1092461E1092C0
:10382000E50A1092E40A60960FB6F894DEBF0FBE68
:10383000CDBFDF91CF911F910F910895CF93DF936B
:10384000EC018A85813061F0813038F0833019F0E5
:10385000843081F405C084E001C081E08A870AC019
:103860008E819F81009711F00E948A0382E08A87EF
:103870001F821E82DF91CF9108959C018091FB03EE
:10388000882319F481E090E008956091920287E125
:10389000689FB00111246E5F744F40E150E0C90190
:1038A0000E94BA0480E090E0089521E02093500D3A
:1038B0002093C3140E94F8070895CF93DF938823C1
:1038C00009F050C06093231C662311F41D994AC06F
:1038D0008FB7F894282F3327922F8091E003882305
:1038E00011F581E08093E0031092D00C2FBF8FB7C9
:1038F000F894C82FDD279C2F80915702813059F50D
:103900008091E003813021F485E00E943E0609C0E9
:10391000823009F58091D00C8093570283E0809328
:10392000E003CFBF1FC08091D00C882311F42FBFBC
:1039300019C08091D70A8F3F71F4E0915602EE23AF
:1039400051F00BC01092550204C0FF27E952F54F09
:103950001082109256029FBF05C0809155028F3F82
:10396000A1F7F0CFDF91CF9108958091FC0A8230CA
:1039700031F481E08093FC0A83E10E943E060895C1
:103980008093B01C882311F484E001C081E080930F
:10399000FC0A83E10E943E0608958F929F92AF92A7
:1039A000BF92CF92DF92EF92FF920F931F93CF932C
:1039B000DF938091AA1B882309F4F5C02FB7F894F0
:1039C00033278091E900A82E8091EA00B82E8091DB
:1039D000EB00C82E8091EC00D82EF090AA1B10921C
:1039E000AA1B2FBFF7FE0DC08091BE0A833011F0D5
:1039F000873039F485E08093A80F88E08093BE0A71
:103A000045C08091BE0A843009F040C0F1FE3EC03E
:103A100085E08093A80F1092BE0A8091980A8330A7
:103A200019F41092980A32C00091861E1091871ED8
:103A3000C8010E94C907882311F1C8010E94DA0752
:103A40008823E9F0C8010E94EE078F5F9F4FB9F00D
:103A500090E08091C314882309F491E0992379F0D0
:103A600012E01093500D81E08093C3146BEB70E073
:103A700080E090E00E94F8071093980A07C0109227
:103A8000980A1092FD0A80E00E94C01CCF2DDD270D
:103A9000C5FF4EC08091BE0A863019F41092BE0A4E
:103AA00003C0882309F044C0A091391FB0913A1F88
:103AB00080E2F81671F5F09046019FE1F9228091BD
:103AC000960A982F96959695EF2DE91B8E0F809369
:103AD000960AFD01EC57FF4F808182608083A058D9
:103AE000BF4FAD92BD92CD92DC9213970091391FDA
:103AF00010913A1FB80182E00E943408F801EC5797
:103B0000FF4F8081886080830B571F4FF801F1823F
:103B10000BC0BD0181E00E9434086091391F709193
:103B20003A1F83E00E94340885E08093BE0A04C0F7
:103B30008091BE0A853089F4C4FF0FC02091241CF7
:103B4000809146018F71922F96959695891B280F2B
:103B50002093241C89E08093BE0AC0FF0CC0809192
:103B6000A80F823041F48091BE0A8250823018F44E
:103B700083E08093A80FC3FF16C08091BE0A8630F1
:103B800091F4809155018F77809355011092BE0A70
:103B900080914101992787709070892B09F41DC28B
:103BA000809141011AC29091BE0A992309F415C26D
:103BB000993009F096C140917B018091460187FFC1
:103BC00051C0433008F44EC0842F99278E37910599
:103BD0000CF048C0E091391FF0913A1F41934250D8
:103BE000552760E871E0CF010E94DB518091391FB9
:103BF00090913A1F0E944308882349F020E030E06A
:103C00008091980A823081F421E030E00DC08FB7B6
:103C1000F894282F332790E08091D31B833008F449
:103C200091E02FBF292F3327232BE1F0E0917B0177
:103C3000FF27E058FE4F8081E091391FF0913A1F35
:103C4000EB57FF4F808385E08093A80F1092BE0A48
:103C5000C091391FD0913A1FCE010E94430888239A
:103C600039F430C085E08093A80F1092BE0AB1C12C
:103C70008091980A823009F02FC19B81E091861EC5
:103C8000F091871E8381981709F026C1898187707A
:103C9000823009F021C18091DF008D7F8093DF00A9
:103CA0008FEF809353021092C314EC57FF4F808123
:103CB000816080831092980A1092FD0A80E00E9431
:103CC000C01C0AC18091980A8823C9F4CE010E94C1
:103CD0004E088823A1F085E08093A90F82E08093AD
:103CE000AA0F1092AB0F8B818093AC0F89EA9FE0F3
:103CF0000E940716882319F483E08093980A0E9493
:103D000088068B01CE010E944E08882311F00A5CC0
:103D10001F4F10933713009336130E948806061B1B
:103D2000170BB80110161106BCF48091FD0A882308
:103D300081F490E08091C314882309F491E09923E1
:103D400059F0882777FD8095982F0E94551C80E8B0
:103D500001C080688093FD0A4E010894811C911C6B
:103D6000898528859927582F44273327422B532BA1
:103D700080919D0A282F3327F901EE0FFF1FEC5089
:103D8000F44E808191810091C4148417950749F401
:103D9000F901E758F14E8081801709F468C0802F3F
:103DA0001BC0EE24FF2480E090E0A4EFBBE1E9E734
:103DB000FEE1BF01182F9C018D919C9111978417F2
:103DC000950789F420939D0A9091C414FB0180818A
:103DD000891709F44CC0892F8F5F8093C4148083A6
:103DE00080E8E82E2AC08081902F981BE91610F4F5
:103DF000E92EF22E1F5FC90101966F5F7F4F129669
:103E0000319685309105B1F61530B9F4F0929D0ADE
:103E1000AF2DBB27FD01EE0FFF1FEC50F44E518379
:103E200040838091C4148F5F8093C414FD01E758D0
:103E3000F14E8083A35CB04E1C929091C414892FE4
:103E40008F778F3781F4EEE7EE1568F4E9E7FEE14E
:103E5000292F207880818F678913208331968EE106
:103E6000EE37F807B9F780919D0A282F3327F40120
:103E70009281A22FBB27FD01E35CF04E808180FF81
:103E800007C0FD01EA51F44E8081981729F102C064
:103E900081608083AA51B44E9C93FFB6F8948091C0
:103EA000D31B8330B0F4E0911A1CE80FE33008F024
:103EB000E350FF27EE0FFF1FE75FF54F00811181F1
:103EC000D183C0838F5F8093D31B84E10E943E0621
:103ED000E8018F2D99278FBFD0933A1FC093391FC8
:103EE0006FC0292F2150233008F057C0892F8250EE
:103EF000823098F48091A80F813079F49FEF9093ED
:103F00004F0180E880934E01809139018D7F80932D
:103F100039019093530282E010C0933089F480916C
:103F2000A80F833069F48DE580934E018FEF809365
:103F3000530286E08093420184E08093A80F10C072
:103F4000223070F48091A80F853051F493E0909363
:103F5000420110924E018FEF809353029093A80F6D
:103F60009091BE0A913069F48091A80F833009F0D6
:103F70004EC0809139018260809339019093A80FDF
:103F80001BC09230E9F48091A80F833011F5109294
:103F90004E018FEF809353020FC0973089F48091C8
:103FA000601E8064809348018091A80F853021F4C1
:103FB00084E08093A80F04C088E08093BE0A04C008
:103FC0008091BE0A883029F41092BE0A82E10E94D4
:103FD0003E068091BE0A8823D1F48091A80F8530D7
:103FE000B1F48091AA1B882391F48091980A8823C8
:103FF00071F48091FD0A882351F490E08091C314FC
:10400000882309F491E0992311F00E94B51C809156
:10401000C314823009F076C01092C314F090500D92
:10402000F1E0FF1629F022E0F21609F06BC063C040
:1040300000913613109137130E9488062091FD0AD3
:10404000203829F41092FD0A0E94B51C5BC0E801DB
:10405000C61BD70B27FF03C01C161D06ECF00091F2
:10406000E20A1091E30A8091980A8823A9F4C80112
:104070000E9407169927882351F4B8010E9434083A
:10408000F092980A1093871E0093861E30C09927DD
:10409000182F882361F101C015E02091FD0A822FBD
:1040A00099278F77019779F4207822602093FD0A71
:1040B0008CE890E00E948208AA27BB27BC01CD01B2
:1040C0000E94551C1FC027FF0EC01C161D065CF465
:1040D00080E88093FD0ABE01882777FD8095982FA0
:1040E0000E94551C02C01092FD0A812F09C083E076
:1040F0008093FD0A07C01092980A1092FD0A80E092
:104100000E94C01C8FB7F894282F33278091C20AD1
:10411000813029F081E08093C20A2FBF4ACC1092EF
:10412000C20A2FBFDF91CF911F910F91FF90EF90A7
:10413000DF90CF90BF90AF909F908F9008958FB7F2
:10414000F894282F33278091C20A81508093C20AA5
:10415000803811F02FBF089581E08093C20A2FBFED
:104160000E94CD1C08958FB7F894282F3327809193
:10417000C20A882329F080688093C20A2FBF08955D
:1041800081E08093C20A2FBF0E94CD1C08951F9327
:104190008FB7F89499272091C20A2F5F2093C20A03
:1041A0008FBF8091FC0A882311F015E018C0809120
:1041B000BE0A882389F48091A80F853019F489E01C
:1041C00090E00CC083E08093BE0A0E94B32085E09B
:1041D0008093FC0A10E003C085E090E0182F0E9455
:1041E0009F20812F99271F91089578941F920F92F5
:1041F0000FB60F9211242F933F934F935F936F93BA
:104200007F938F939F93AF93BF93EF93FF932FB7BA
:10421000F89433278091AA1B82608093AA1B2FBF3A
:104220000E94B320FF91EF91BF91AF919F918F9129
:104230007F916F915F914F913F912F910F900FBEA2
:104240000F901F9018951F920F920FB60F92112486
:104250002F933F934F935F936F937F938F939F938E
:10426000AF93BF93EF93FF938091DF008D7F809397
:10427000DF008FEF809353028091C314813019F4D3
:1042800082E08093C3140E94B320FF91EF91BF910D
:10429000AF919F918F917F916F915F914F913F91DE
:1042A0002F910F900FBE0F901F90189578941F922A
:1042B0000F920FB60F9211242F933F934F935F935A
:1042C0006F937F938F939F93AF93BF93EF93FF93DE
:1042D0002FB7F89433278091AA1B88608093AA1B7C
:1042E0002FBF0E94B320FF91EF91BF91AF919F919B
:1042F0008F917F916F915F914F913F912F910F908F
:104300000FBE0F901F90189578941F920F920FB6C2
:104310000F9211242F933F934F935F936F937F934B
:104320008F939F93AF93BF93EF93FF932FB7F8941F
:1043300033278091AA1B81608093AA1B2FBF0E9404
:10434000B320FF91EF91BF91AF919F918F917F919A
:104350006F915F914F913F912F910F900FBE0F90F2
:104360001F90189578941F920F920FB60F921124F8
:104370002F933F934F935F936F937F938F939F936D
:10438000AF93BF93EF93FF932FB7F89433278091A8
:10439000AA1B80628093AA1B2FBF0E94B320FF91AB
:1043A000EF91BF91AF919F918F917F916F915F91AD
:1043B0004F913F912F910F900FBE0F901F90189526
:1043C00078941F920F920FB60F9211242F933F9360
:1043D0004F935F936F937F938F939F93AF93BF930D
:1043E000EF93FF932FB7F89433278091AA1B806136
:1043F0008093AA1B2FBF0E94B320FF91EF91BF9122
:10440000AF919F918F917F916F915F914F913F916C
:104410002F910F900FBE0F901F90189578941F92B8
:104420000F920FB60F9211242F933F934F935F93E8
:104430006F937F938F939F93AF93BF93EF93FF936C
:104440002FB7F89433278091AA1B80688093AA1B0A
:104450002FBF0E94B320FF91EF91BF91AF919F9129
:104460008F917F916F915F914F913F912F910F901D
:104470000FBE0F901F9018958091DE141D9B0CC0ED
:104480008823A1F481E08093DE1486E00E943E063A
:1044900085E00E94840A0895882341F01092DE147A
:1044A00087E00E943E0685E00E949D0A08951F92C3
:1044B0000F920FB60F9211242F933F934F935F9358
:1044C0006F937F938F939F93AF93BF93EF93FF93DC
:1044D00020916B0093B18091550D8927822385FF30
:1044E00002C00E943C22FF91EF91BF91AF919F913A
:1044F0008F917F916F915F914F913F912F910F908D
:104500000FBE0F901F9018952F923F924F925F927F
:104510006F927F928F929F92AF92BF92CF92DF92D3
:10452000EF92FF920F931F93CF93DF93CDB7DEB738
:10453000CB54D0400FB6F894DEBF0FBECDBF269649
:104540001FAE1EAE269728961FAE1EAE28972A963F
:104550001FAE1EAE2A972C961FAE1EAE2C977C0166
:104560001B016A0180913B1F90913C1F9BAB8AAB62
:104570008E01005F1F4FC8010E949813BE01605E4C
:104580007F4FC8010E94A90F882309F0F5C4BE011E
:10459000675D7F4FC7010E94A90F882309F0ECC413
:1045A00080916802882319F084E090E00EC5F10143
:1045B00084818F70806684838091F603282F33274F
:1045C0003FAB2EAB8F5F8093F6039091C60A992381
:1045D00009F4CEC48091150AE82FFF27EE0FFF1FC4
:1045E000E45EF34E408151815FAF4EAF1182108285
:1045F00091509093C60A8F5F8093150A833011F40F
:104600001092150A8EAD9FAD892B09F4B1C481E0DB
:10461000EEADFFAD86831582138212821482D182A1
:10462000C082CC24DD2492C480919D1CE82FFF27FA
:10463000EE0FFF1FE857F14E2081318124963FAFE6
:104640002EAF24971182108291509093A60F8F5F06
:1046500080939D1C8C3011F410929D1C9091A70F9B
:10466000992329F422961FAE1EAE22971AC080917C
:10467000F20CE82FFF27EE0FFF1FE45DFA4E40819A
:10468000518122965FAF4EAF2297118210829150D6
:104690009093A70F8F5F8093F20C8C3011F41092DF
:1046A000F20C24968EAD9FAD2497009749F0229688
:1046B000AEADBFAD2297AB2B91F40E94091009C09B
:1046C0002296EEADFFAD2297309719F0CF010E94F0
:1046D000281081E0EEADFFAD858317E041C48E0167
:1046E000005E1F4FA8016AE770E022968EAD9FAD75
:1046F00022970E948C152C01C114D10409F022C309
:10470000F1018481807F803609F056C4D2018D93F7
:10471000BDAFACAFF201118292012E5F3F4F3DABB6
:104720002CABA1014C5F5F4F5BAF4AAFF1016481DD
:104730007581868197810E949C047B018C012FEFFB
:104740003FEF4FE050E0E222F32204231523F10172
:1047500064817581868197810E949C04A4E196956D
:10476000879577956795AA95D1F7462FE114F104BF
:1047700001051105C9F4D2012C91662329F42861A1
:104780002C93ACA8BDA847C02061F2012083862FDE
:104790008295880F880F807C46954695482B4283EA
:1047A000F3E0AF2EB12C35C0862F99279C012370E2
:1047B0003070BC01E6E0660F771FEA95E1F758011B
:1047C000CC24DD246F2C702E812E992428173907D4
:1047D00089F4D2018C9188608C938A2D8F70862BFE
:1047E000F2018283ECA9FDA96182E28245E0A42E58
:1047F000B12C0FC046954695462BF20142838A2D77
:104800008F70ECA9FDA981836282E38236E0A32E3A
:10481000B12CA40CB51CEAADFBAD8681882361F0F8
:104820008B3251F08C3241F08C3331F0873821F0EB
:10483000893211F0813129F4D2018C9184608C93FA
:1048400003C0F50181935F01EAADFBAD8781813043
:1048500021F4D2018C9181600CC0803429F4F201E2
:104860008081826080830AC08F3F29F4D2018C91BD
:1048700083608C9303C0F50181935F012CE0C22E0D
:10488000D12CC20CD31C4E010894811C911CB40184
:10489000C6010E94981819820AA91BA999277401B8
:1048A0009E01205E3F4FAC01B601C5010E9462141B
:1048B0005C0189818295807FACADBDAD9C91892BD7
:1048C0008C93F101848D9CE1C92ED12CC20CD31C98
:1048D0008F3FB1F0B401C6010E94981819820AA94D
:1048E0001BA999279E01275D3F4FAC01B601C50169
:1048F0000E9462147C01ACADBDAD8C91998160C009
:104900001982F101848D958D8F5F924091F448E773
:1049100050E060E170E0C6010E944710892B49F425
:10492000898183608983F6018785D5018D937D0117
:1049300042C048E650E060E170E0C6010E944710C6
:10494000892B91F4898182608983F6018181F50147
:104950008193D6011D9683E00D9001928150E1F77D
:1049600004E0E02EF12C25C048E550E060E170E065
:10497000C6010E944710892B91F489818160898347
:10498000F6018181F5018193D6011B9685E00D909A
:1049900001928150E1F716E0E12EF12C0AC0D50119
:1049A000F60180E101900D928150E1F7B0E1EB2E2C
:1049B000F12CEA0CFB1C99819860ACADBDAD8C91DB
:1049C000892B8C93E114F10409F4F6C2C7012296F5
:1049D000EEADFFAD22978E1B9F0B2AE730E0281B20
:1049E000390B39AF28AFF101D284AA24BB24D4C03B
:1049F0009E012E5F3F4F42E050E0B501F101828100
:104A000093810E943002029709F0CDC28B819927D1
:104A100028AD39AD2817390708F4C5C280EED70193
:104A20008C93BCE2DB1691F0BD1538F0DD20A9F0C7
:104A3000EBE2DE1609F0B7C207C0FCE3DF1641F077
:104A400027E8D21649F0AFC282EE03C084EE05C05B
:104A500086EEF701808303C088EED7018C93F101C5
:104A600062807380A2E08A2E912C8A0C9B1C9E018E
:104A70002C5F3F4F42E050E0B501C3010E9430027D
:104A8000029709F07CC2DD2049F0FCE3DF1631F02B
:104A90008D81880F880F880F885F30C08401640182
:104AA0008D819927F3E0880F991FFA95E1F7089611
:104AB00008171907DCF49E012A5F3F4F42E050E0DF
:104AC000B801C3010E943002029709F058C22E813A
:104AD000222319F40F5F1F4FE3CF8F81992702968E
:104AE000080F191F2130E1F26801DACF0A191B09FA
:104AF0000817190709F057C28C2D8A199927082F12
:104B0000882309F450C2DA80DD2091F02BE2D2161E
:104B100079F03CE2D31661F04CE3D41649F057E843
:104B2000D51631F089E2D81619F091E1D91629F499
:104B3000D7018C9181608C9304C0D7011196F70145
:104B4000D182FD01018311270250104012969D0170
:104B5000A801B401F101828193810E943002801783
:104B6000910709F020C28B819927E3E0880F991FF4
:104B7000EA95E1F70896D7012C9120952170FC0168
:104B8000E20FF11DEE0EFF1EA80EB91E28AD39ADC5
:104B9000281B390B39AF28AFDD2009F429CF3BE2C0
:104BA000D31609F425CF4CE2D41609F421CF5CE3E7
:104BB000D51609F41DCF87E8D81609F419CF99E264
:104BC000D91609F415CFA1E1DA1659F5E8ADF9AD1A
:104BD000379708F4E8C19E01285F3F4F48E050E056
:104BE000B501F101828193810E943002089709F09A
:104BF000DAC180EFD7018C9388859985AA85BB851A
:104C0000F70181839283A383B4838E859F859683E6
:104C1000858328E030E0A20EB31E47E050E0E40EAA
:104C2000F51EB7FCC0C1F101F1852596FFAF2597B0
:104C3000F101F0852696FFAF269726960EAD1FADA3
:104C400026970A191B09970122964EAD5FAD229750
:104C5000241B350B8AE790E0821B930B801791078A
:104C600008F053C0A70144195509B201C2010496C6
:104C70000E94E45141145104C1F180ECD2018C93A3
:104C8000F101F1852796FFAF2797F101F08528966E
:104C9000FFAF289728962EAD3FAD2897285D3F4F50
:104CA00028963FAF2EAF2897377028964EAD5FAD50
:104CB00028974852504028965FAF4EAF2897832FD1
:104CC0009927806C8C93ACADBDAD2C93F2016081C3
:104CD000669566956695683111F06C3131F4ACA932
:104CE000BDA91C922EA9FD01218344E050E0E40EF1
:104CF000F51EC7012296AEADBFAD22978A1B9B0B56
:104D00000AE710E0081B190B087F9701A801B501FD
:104D1000F101828193810E9430028017910709F08E
:104D200033C1085D1F4F6501C00ED11E08521040EF
:104D3000970122964EAD5FAD2297241B350B200FB5
:104D4000311F90C0A8016AE770E022968EAD9FAD3A
:104D500022970E948C157C01892B09F418C180EEE2
:104D6000D7018C93F101F1852996FFAF2997F101C5
:104D7000F0852A96FFAF2A972A962EAD3FAD2A9747
:104D8000285D3F4F2A963FAF2EAF2A9737702A965D
:104D90004EAD5FAD2A97485250402A965FAF4EAF56
:104DA0002A97832F9927806E8C93F701218386950C
:104DB00086958695883119F08C3109F0EBC0F701A2
:104DC00012822EA9238380818695869586958C31C3
:104DD00009F0E3C0C60153E0969587955A95E1F72F
:104DE000848397012B5F3F4FF101F1852B96FFAF35
:104DF0002B97F101F0852C96FFAF2C972C960EADDA
:104E00001FAD2C970C191D09085D1F4FC901229673
:104E10004EAD5FAD2297841B950B4AE750E0481BCF
:104E2000590B4017510710F48A01087FB6016852E8
:104E30007040A801F101828193810E9430028017A5
:104E4000910709F0ADC0009709F49BC0C80ED91EA8
:104E5000970122964EAD5FAD2297241B350B059628
:104E6000280F391F822F8F5F2296AEADBFAD2297DC
:104E70008C93121613066CF022968EAD9FAD22977E
:104E80000E94281024968EAD9FAD24970E94091091
:104E900091C09091F9039C3008F088C08091F8038C
:104EA000E82FFF27EE0FFF1FE554F44E24962EAD9A
:104EB0003FAD2497318320838F5F8093F8038C303C
:104EC00011F41092F8039F5F9093F903EEADFFADDC
:104ED00082818F5F828322962EAD3FAD22972496EA
:104EE000EEADFFAD2497338322834EAD5FAD51838A
:104EF000408389A58370823059F48AA59BA58F5F72
:104F00009F4F31F424583F4FD9011D921C920CC081
:104F10002496EEADFFAD2497A281B381A458BF4F74
:104F200085E090E08D939C932496EEADFFAD2497A1
:104F3000A281B381A458BF4F87E690E0FD0193831F
:104F40008283EEADFFAD86818F5F86839091A60F41
:104F5000992309F069CB24961FAE1EAE24977ECB11
:104F60008EAD9FAD0E94A61086E10E943E0601C054
:104F700017E0812F992729C081E090E026C00FEF2C
:104F8000C2CD80E090E01AC08DEF9FEF17C08BEF8D
:104F90009FEF14C08AEF9FEF11C089EF9FEF0EC003
:104FA0008CEF9FEF0BC08EEF9FEF08C081E0EEAD5E
:104FB000FFAD858310E0D4CF8FEF9FEF8F5F2296F8
:104FC000AEADBFAD22978C9357CFC55BDF4F0FB609
:104FD000F894DEBF0FBECDBFDF91CF911F910F912F
:104FE000FF90EF90DF90CF90BF90AF909F908F9009
:104FF0007F906F905F904F903F902F9008950F9308
:105000001F93CF93DF93982F8B01BA012091BF0A92
:10501000222319F4C0E0D0E020C08091AF1EE82F19
:10502000FF27EE0FFF1FEE5FF54FC081D181118288
:10503000108221502093BF0A8F5F8093AF1E833070
:1050400011F41092AF1E209741F0DE01F80138965E
:1050500088E001900D928150E1F7913011F080E0ED
:1050600004C0AE01C8010E9484229927182F88230A
:1050700029F0209719F0CE010E94C610812F9927A0
:10508000DF91CF911F910F9108950F931F93CF93AD
:10509000DF93EC018091F1098F5F8093F1098E011C
:1050A0000F5F1F4FF80182838091F503882319F069
:1050B00085E090E023C0CE010E94E811892B71F0B9
:1050C000F80121813327322F222789819927806295
:1050D000282B392B2983232F33272183D09346155F
:1050E000C0934515109217151092161581E0809304
:1050F000F50381E10E943E0680E090E0DF91CF91D0
:105100001F910F9108956F927F928F929F92AF920D
:10511000BF92CF92DF92EF92FF920F931F93CF93A4
:10512000DF93CDB7DEB768970FB6F894DEBF0FBE3A
:10513000CDBF8C01E0903B1FF0903C1F80901C1372
:1051400090901D130E94F90E298B3A8B4B8B5C8B30
:105150006D8B7E8B8F8B988FDE011996FE01719679
:1051600088E001900D928150E1F7DE011196FE0179
:10517000399688E001900D928150E1F769807A803C
:105180007B816C815D814E813F812885D8018D9125
:105190009C918E5F904809F045C080916102882300
:1051A000E9F0F8018285938580509F4FB9F4F801AA
:1051B000848595858E3F910589F4C184D0848FEFD5
:1051C0009DEFE822F922CE14DF0449F590E0F801C2
:1051D000A784B684A814B904E9F01BC082E028278C
:1051E000F80180858217D9F481858317C1F48285FF
:1051F0008417A9F48385851791F48485861779F43B
:105200008585871761F48685871549F490E0878541
:10521000861191E081E09827892F992723C080E0AB
:1052200090E020C0D8018C918F3F69F420E030E0FD
:10523000F801818199278F709070039714F421E011
:1052400030E0C9010FC0EE24FF2440E150E066E2E7
:1052500073E1C8010E94CE51892B19F461E0E62E5A
:10526000F12CC70168960FB6F894DEBF0FBECDBF14
:10527000DF91CF911F910F91FF90EF90DF90CF9032
:10528000BF90AF909F908F907F906F900895EF9216
:10529000FF920F931F93CF93DF93EB0180E68C83F4
:1052A00080E18B877CE1E72EF12CEC0EFD1E60E89F
:1052B00070E0C7010E94CE188C01C7010E948328AC
:1052C000882319F08C8D8F3F81F58C8D9D8D8E5F9D
:1052D000904851F08C8D8F3F59F5F70181819927C6
:1052E0008F709070039724F50115110521F0F801D6
:1052F000838987FD10C081E08B878C8D8F3F21F0E3
:10530000AE01B70181E00DC040E050E0BE01C70131
:105310000E94842208C0B8016C5E7F4FAE01F80184
:1053200084A10E94FF27992707C081E090E004C074
:105330000115110581F7F9CFDF91CF911F910F91E1
:10534000FF90EF9008956F927F928F929F92BF92FD
:10535000CF92DF92EF92FF920F931F93CF93DF9341
:10536000CDB7DEB7C054D0400FB6F894DEBF0FBE45
:10537000CDBFB82E6B015A8349833C832B831E8299
:105380001D82CE0101960E94D3014C0188E2FE01EC
:10539000799611928A95E9F79DE0692E712C6C0E31
:1053A0007D1E88E0F30111928A95E9F7DE01D1961E
:1053B000F601329680E101900D928150E1F7CE0125
:1053C00049960E942D14AB2DBB27FD01EE0FFF1F48
:1053D000E158F14E80819181892B79F580916902A4
:1053E00090916A02F6ED873D9F0718F020E537ECB3
:1053F00003C09C012F5F3F4F092F182F30936A0283
:105400002093690266C086ED273D380718F020E535
:1054100037EC02C02F5F3F4F032F122F5AC030933B
:105420006A0220936902FD01EE0FFF1FE158F14E61
:1054300031832083232B09F465C0AA0FBB1FA15819
:10544000B14E8D919C919E878D87F60180819181CF
:10545000988B8F87C4010896E92EF82EFA8AE98A7C
:105460001C8A1B8A80E6898F81E18F8FFE8EED8EEC
:1054700078866F8288E090E09A878987CE010196CE
:105480009C878B87B7E0EB2EF12CEC0EFD1EF88E7F
:10549000EF8AA9E1CA2ED12CCC0EDD1E41E1B70165
:1054A000C6010E94F5028C0141E1B701C6010E94CC
:1054B000F502102F0027892F9927082B192B1C8BF9
:1054C0000B8BBE016B5E7F4F81E10E9447299927BC
:1054D0001BC080917F1E9091801E8017910709F458
:1054E00092CF8091811E9091821E8017910709F4BE
:1054F0008ACF8091831E9091841E8017910709F0B6
:105500008ECF81CF81E090E0C05CDF4F0FB6F89482
:10551000DEBF0FBECDBFDF91CF911F910F91FF90E6
:10552000EF90DF90CF90BF909F908F907F906F9083
:105530000895AF92BF92CF92DF92EF92FF920F93B6
:105540001F93CF93DF935C0182E0A816B104ECF1C6
:105550007B0121E0C22ED12C06E11AE0E701EA81AD
:10556000FB81EF0109900020E9F72197CE1BDF0BAB
:1055700082E090E0E80EF91ECE0185519A40800F3E
:10558000911F813891058CF4AE01BF01C8010E94C2
:10559000DB51F801EC0FFD1F80E281938F0108942D
:1055A000C11CD11CCA14DB04C9F68AE0E8018A9345
:1055B0008E010F5F1F4F06511A40980146E15AE0D5
:1055C00064ED7BE182E00E94A329DF91CF911F91DE
:1055D0000F91FF90EF90DF90CF90BF90AF90089524
:1055E000CF93DF93A091D102B091D202FD0101903F
:1055F0000020E9F73197EA1BFB0B9F01AD0164ED39
:105600007BE182E00E94A32960E072E086E19AE0FB
:105610000E9406528091A01E482F5527CA01049669
:105620008D3791056CF461EA7EE189E19AE00E9490
:10563000DB518091A01EA82FBB27A75EB54F09C0E4
:105640008EE28093190A80931A0A80931B0AACE1B8
:10565000BAE0FD018DE581938AE0ED018983E55192
:10566000FA409F0146E15AE064ED7BE182E00E944E
:10567000A329DF91CF910895A0915F03B0916003BA
:10568000FD0101900020E9F73197EA1BFB0B9F0118
:10569000AD0164ED7BE182E00E94A3290895CF92E1
:1056A000DF92EF92FF920F931F93CF93DF93EB0163
:1056B000AA81BB81CD90DC901197FD0182819381FD
:1056C000049700F18A858A33E9F4F6011382128285
:1056D00054E0E52EF12CE60EF71E4AE3BD01C701AA
:1056E0000E94F5028C016A817B814AE3C7010E9416
:1056F000F502102F0027892F9927082B192BF60167
:1057000013830283BE018AE30E9447299927DF9110
:10571000CF911F910F91FF90EF90DF90CF90089560
:10572000BC018BE90E944F2B992708952F923F923D
:105730004F925F926F927F928F929F92AF92BF92A1
:10574000CF92DF92EF92FF920F931F93CF93DF934D
:10575000CDB7DEB7A1970FB6F894DEBF0FBECDBFB1
:105760001B861A861D861C861F861E86198A188A25
:105770001B8A1A8A1D8A1C8A1F8A1E8A198E188EF5
:105780001B8E1A8E1D8E1C8E1F8E1E8E4C015B0171
:105790006A0179014115510531F480E090E020E083
:1057A00030E01B8237C03327121613061CF080E04E
:1057B00090E0E4C3FA019081892F829586958695C1
:1057C000837009F4D6C3969596959695983119F0FD
:1057D00040E050E00AC024503040121613060CF08E
:1057E000CBC3FA01349644E050E0808186958695DB
:1057F00086958C3109F44860242F403109F4B9C3EF
:105800004B83822F99279C012470307082FF02C045
:1058100004E001C000E083FD0B5F222381F1C1148D
:10582000D10491F1A114B10479F0F601808186953B
:1058300086958695883111F08C3131F4F601A3817B
:10584000B281F501B183A083A5014C5F5F4FE1F008
:10585000D6012C91822F869586958695883111F0F8
:105860008C3191F427703327322F2227F601818162
:105870009927282B392BDA012D933C9305C081ED14
:1058800090E0F50195838483F501848195810E94E0
:105890005503F50197838683009719F48EEF9FEFE8
:1058A00070C32601400E511CE01AF108FA82E98209
:1058B000F5014481558160E070E00E94F651F501E8
:1058C00014861386D2018C91C680D780813481F4EE
:1058D00009811A81015010400894411C511CA801F3
:1058E000B201C6010E94DB51F50126813781FFC25A
:1058F000F5010480F581E02DF987E887282F33270B
:10590000C901807E90708036910509F0F5C2A20130
:105910004E5F5F4F59A348A312010894211C311C0C
:10592000F201818187FD05C0662477241D821C82D7
:1059300012C0F2019281892F82958F70482F5527CE
:105940005D834C83692E77245FE065227724C20152
:10595000039699A388A3C901887190708830910536
:10596000C9F08031910521F0892B11F160E00EC062
:10597000A8A1B9A18D91B9A3A8A3982F990F990FA8
:10598000682F6295669566956370692BB0E0A0E01C
:1059900020E022C0E8A1F9A18081682F6295669578
:1059A00066956370282F2F70A181B281339612C043
:1059B000A8A1B9A18C91982F990F990F682F629582
:1059C000669566956370692BFD0121812F70A28118
:1059D000B3813496F9A3E8A377278827992714E1A0
:1059E000660F771F881F991F1A95D1F73327442711
:1059F0005527A90133272227622B732B842B952B44
:105A00002B2F332744275527622B732B842B952B61
:105A10002A2F332744275527542F432F322F22274D
:105A20005066622B732B842B952B0E949C04D6010D
:105A30006D937D938D939C931397F201808182FDEA
:105A400007C0A8A1B9A18D91B9A3A8A3F601868327
:105A5000D2018C919927837090708230910539F032
:105A60008330910531F0019731F481E009C080E481
:105A700007C08FEF05C0A8A1B9A18D91B9A3A8A3B4
:105A8000F6018783F401E288F388D1016C91629575
:105A90006F70840128A139A14C815D81C6010896EF
:105AA0000E94531799A388A3892B09F425C2F101F9
:105AB0006081262F3327D601589623FF54C080E1FA
:105AC000FD0111928A95E9F722FD16C2C901837082
:105AD000907081309105E9F0823091051CF4892B9A
