S01900006275696C642F75636D696E692F6D61696E2E7372656373
S11300000C94AE010C94CD010C94CD010C94CD0153
S11300100C94CD010C94CD010C94CD010C94CD0124
S11300200C94CD010C949C180C94CD010C94CD012E
S11300300C94CD010C94CD010C94CD010C94CD0104
S11300400C94B6060C9498060C94A2060C94AC0678
S11300500C9475060C94CD010C94CD010C94CD0137
S11300600C94CD010C94F4060C94CD010C94060769
S11300700C94CD010C94E3160C94CD010C94CD0199
S11300800C94CD010C94CD010C94CD010C94CD01B4
S11300900C948D170C94CD010C9476090C94CD011D
S11300A00C94CD010C94CD010C94CD010C94CD0194
S11300B00C94CD010C94CD010C94CD010C94CD0184
S11300C00C94CD010C94CD010C94CD010C94CD0174
S11300D00C94CD010C94CD010C94CD010C94CD0164
S11300E00C94CD010C94CD010C94CD010C94CD0154
S11300F00C94CD010C94CD010C94CD010C94CD0144
S11301000C94CD010C942A030C94DC040C946A0521
S11301100C94D5010C94CD010C94CD010C94CD011B
S113012060276427682782278627B627D227E027F7
S1130130EE27D428DF28E228F1281A295829AD29E6
S1130140B029B329822C8E2CFF2CD62DD92DF42D39
S11301506E2F712F912F00002110422063308440B4
S1130160A550C660E770088129914AA16BB18CC182
S1130170ADD1CEE1EFF13112100273325222B552F9
S11301809442F772D662399318837BB35AA3BDD3D2
S11301909CC3FFF3DEE36224433420040114E664C9
S11301A0C774A44485546AA54BB528850995EEE522
S11301B0CFF5ACC58DD55336722611163006D776D9
S11301C0F6669556B4465BB77AA719973887DFF772
S11301D0FEE79DD7BCC7C448E5588668A7784008A1
S11301E0611802282338CCC9EDD98EE9AFF94889C2
S11301F069990AA92BB9F55AD44AB77A966A711A39
S1130200500A333A122AFDDBDCCBBFFB9EEB799B11
S1130210588B3BBB1AABA66C877CE44CC55C222C88
S1130220033C600C411CAEED8FFDECCDCDDD2AAD61
S11302300BBD688D499D977EB66ED55EF44E133E18
S1130240322E511E700E9FFFBEEFDDDFFCCF1BBFB1
S11302503AAF599F788F8891A981CAB1EBA10CD18B
S11302602DC14EF16FE18010A100C230E320045093
S1130270254046706760B9839893FBA3DAB33DC306
S11302801CD37FE35EF3B1029012F322D2323542E3
S1130290145277625672EAB5CBA5A89589856EF596
S11302A04FE52CD50DC5E234C324A0148104667433
S11302B0476424540544DBA7FAB79987B8975FE7E6
S11302C07EF71DC73CD7D326F2369106B016576683
S11302D07676154634564CD96DC90EF92FE9C8996E
S11302E0E9898AB9ABA94458654806782768C018D3
S11302F0E1088238A3287DCB5CDB3FEB1EFBF98B46
S1130300D89BBBAB9ABB754A545A376A167AF10A22
S1130310D01AB32A923A2EFD0FED6CDD4DCDAABD55
S11303208BADE89DC98D267C076C645C454CA23C72
S1130330832CE01CC10C1FEF3EFF5DCF7CDF9BAF25
S1130340BABFD98FF89F176E367E554E745E932EC2
S1130350B23ED10EF01E00020E060C0411241FBE84
S1130360CFEFD1E4DEBFCDBF12E0A0E0B2E0E2E81F
S1130370FDE600E00BBF02C007900D92AA35B1075D
S1130380D9F710E1AAE5B2E001C01D92A738B10780
S1130390E1F70E9440310C94C0360C9400008FB7F2
S11303A0F894992708958FBF08951F920F920FB65E
S11303B00F9211248F93809150058F5F8093500585
S11303C08F910F900FBE0F901F901895282F9FB7F5
S11303D0F894E82FFF27E354FC4F80818F3F81F48A
S11303E0E091740BE21771F40BC02093580604C01B
S11303F0FF27E354FC4F20832093740B20E007C0B5
S113040025E005C0809158068F3F91F7EECF892FE4
S113041099278FBF822F99270895EF92FF920F9308
S11304201F937FB7F894609150052091E100822FCB
S11304302091E200922F2091E300A22F2091E4006A
S1130440B22F9C01AD018091E00083FF0FC06F5F6C
S11304508091E100E82E8091E200F82E8091E30083
S1130460082F8091E400182FA8019701872F99275E
S11304708FBF772788279927FAE1660F771F881F90
S1130480991FFA95D1F7E6E0569547953795279544
S1130490EA95D1F7622B732B842B952B1F910F9127
S11304A0FF90EF9008956F927F928F929F92AF92F8
S11304B0BF92CF92DF92EF92FF920F931F930E940D
S11304C00D027B018C0120911A0530911B0540918E
S11304D01C0550911D058091150590911605A0915C
S11304E01705B0911805820F931FA41FB51FE216BC
S11304F0F3060407150730F082179307A407B5071E
S113050058F005C082179307A407B507E0F5E8166D
S1130510F9060A071B07B8F59C01AD012E193F091E
S1130520400B510B213060E0360760E0460762E083
S1130530560768F180E090E0A0E0B2E0E80EF91E12
S11305400A1F1B1FE0921A05F0921B0500931C055D
S113055010931D0580E090E0A0E0BEEFE80EF91EC8
S11305600A1F1B1F20503040404052402093150565
S113057030931605409317055093180520E030E09A
S113058040E052E014C020E030E040E050E08093CE
S11305901A0590931B05A0931C05B0931D0510929A
S11305A015051092160510921705109218053901B9
S11305B04A01B6E0660C771C881C991CBA95D1F7E1
S11305C0A6E0EE0CFF1C001F111FAA95D1F7809125
S11305D0E100A82E8091E200B82E8091E300C82E9D
S11305E08091E400D82EA60195012E5F3F4F4F4F16
S11305F05F4FDA01C9018E199F09A00BB10B861553
S11306009705A805B90530F4A8019701260D371DF3
S1130610481D591D5093F8004093F7003093F6009D
S11306202093F50081E08093E0008091DF008160F9
S11306308093DF008FEF80930E021F910F91FF9044
S1130640EF90DF90CF90BF90AF909F908F907F906E
S11306506F9008951F920F920FB60F9211242F934B
S11306603F934F935F936F937F938F939F93AF9336
S1130670BF93EF93FF938091DF008E7F8093DF0021
S11306808FEF80930E028091150590911605A0912D
S11306901705B09118050097A105B10521F480E074
S11306A00E94E60102C00E945302FF91EF91BF91A4
S11306B0AF919F918F917F916F915F914F913F91F6
S11306C02F910F900FBE0F901F9018956F927F92ED
S11306D08F929F92AF92BF92CF92DF92EF92FF924E
S11306E00F931F930E940D027B018C0120917002D5
S11306F03091710240917202509173028091E10332
S11307009091E203A091E303B091E403820F931F5D
S1130710A41FB51FE216F3060407150730F082176D
S11307209307A407B50758F005C082179307A407D9
S1130730B507E0F5E816F9060A071B07B8F59C01AA
S1130740AD012E193F09400B510B213060E03607F3
S113075060E0460762E0560768F180E090E0A0E0C0
S1130760B2E0E80EF91E0A1F1B1FE0927002F0921D
S11307707102009372021093730280E090E0A0E093
S1130780BEEFE80EF91E0A1F1B1F205030404040E8
S113079052402093E1033093E2034093E3035093E8
S11307A0E40320E030E040E052E014C020E030E018
S11307B040E050E08093700290937102A093720223
S11307C0B09373021092E1031092E2031092E303D8
S11307D01092E40339014A0196E0660C771C881CE8
S11307E0991C9A95D1F786E0EE0CFF1C001F111F8F
S11307F08A95D1F78091E100A82E8091E200B82E6D
S11308008091E300C82E8091E400D82EA6019501C2
S11308102E5F3F4F4F4F5F4FDA01C9018E199F0979
S1130820A00BB10B86159705A805B90530F4A801EE
S11308309701260D371D481D591D5093F400409310
S1130840F3003093F2002093F10082E08093E00003
S11308508091DF0082608093DF008FEF80930E022F
S11308601F910F91FF90EF90DF90CF90BF90AF90CA
S11308709F908F907F906F9008955F926F927F9278
S11308808F929F92AF92BF92CF92DF92EF92FF929C
S11308900F931F93CF93DF9380913306882309F03E
S11308A07BC00E940D023B014C0161E276E0EB014A
S11308B060964FEFA42E4FEFB42E4FEFC42E4FEFA0
S11308C0D42E5524FB0140C088818823C9F180813E
S11308D09181A281B38184017301E81AF90A0A0B98
S11308E01B0B2481358146815781E216F3060407E8
S11308F0150788F0820F931FA41FB51F808391836F
S1130900A283B383148215821682178220E030E01A
S113091040E050E011C060827182828293822E197D
S11309203F09400B510B2483358346835783A2161A
S1130930B306C406D50620F059016A0131E0532EEE
S1130940685F7F4F3896219686E06133780709F017
S1130950BBCF5520C9F0D7FE04C0D694C794B79432
S1130960A7946092700270927102809272029092C7
S11309707302A092E103B092E203C092E303D09227
S1130980E4030E94660308C08091DF008D7F80939A
S1130990DF008FEF80930E02DF91CF911F910F91B3
S11309A0FF90EF90DF90CF90BF90AF909F908F908B
S11309B07F906F905F9008951F920F920FB60F92E1
S11309C01124BF92CF92DF92EF92FF920F931F9365
S11309D02F933F934F935F936F937F938F939F9343
S11309E0AF93BF93CF93DF93EF93FF938091DF0097
S11309F08D7F8093DF008FEF80930E028091E1035F
S1130A009091E203A091E303B091E4030097A10560
S1130A10B10509F043C081E080933306BB242B2D3C
S1130A203327E901CF5DD94F8889882371F1890182
S1130A3063E0000F111F6A95E1F70F5D194FF8018C
S1130A40C080D180E280F3800E940D026C197D0980
S1130A508E099F09F80124813581468157816217E7
S1130A6073078407950788F0188ABB2021F0F1E00A
S1130A70BF1659F406C086E10E94E60151E0B52E86
S1130A80CECF89E10E94E60104C0B39481E08B15C6
S1130A9030F6109233060E943D0402C00E946603A1
S1130AA0FF91EF91DF91CF91BF91AF919F918F9182
S1130AB07F916F915F914F913F912F911F910F9172
S1130AC0FF90EF90DF90CF90BF900F900FBE0F90EC
S1130AD01F9018951F920F920FB60F9211240F902A
S1130AE00FBE0F901F9018958091120520918400DD
S1130AF030918500B09B05C08F5F209184003091B8
S1130B00850099279927869597958827369527955F
S1130B10822B932B0895FF920F931F93CF93DF9310
S1130B20EC01FFB6F8940E9474058C0180E8C13092
S1130B30D80768F0C050D0480E947405801B910B00
S1130B40C817D907C8F70C0F1D1FC0E0D0E80E94D2
S1130B507405801B910BC817D907C8F78F2D9927E7
S1130B608FBFDF91CF911F910F91FF9008958091D6
S1130B707C0090917B008F719927089590917C005F
S1130B80907E282F2F71922B90937C0085FF04C0B8
S1130B9080917B00886003C080917B00877F809375
S1130BA07B000895ECE7F0E090818295880F880F30
S1130BB0807C9F73982B90830895DF92EF92FF922D
S1130BC00F931F9380915E06882321F08FE1FF2409
S1130BD0EE2405C0A8E0FA2EF2E0EF2E82E0082F02
S1130BE0DFB6F8948091DF038E7F8093DF0310914A
S1130BF07C000E94B705282F129516951695137040
S1130C00E11619F080E090E00AC0802F8850863108
S1130C1020F480E090E0021711F481E090E0982F36
S1130C209170990F8091DF038170202F220F220F82
S1130C30892B822B8093DF03802F0E94BE05809135
S1130C407C008F7D80937C008E2D0E94D2052091A4
S1130C50DF03217038E0F31681F5809159069091F5
S1130C605A0631E68038930718F087E090E024C0F4
S1130C7030E3803C930718F086E090E01DC038E133
S1130C808034930718F085E090E016C03CE0803093
S1130C90930718F084E090E00FC036E080309307AB
S1130CA018F083E090E008C08050934018F082E090
S1130CB090E002C080E090E0F82E87E0F822187FF0
S1130CC01F2918612295220F207E1F7D122B106C84
S1130CD0812F992780937A008D2D99278FBF1F919B
S1130CE00F91FF90EF90DF9008951F920F920FB62F
S1130CF00F9211248F939F938091670690916806B9
S1130D0001969093680680936706892B29F4809155
S1130D1014058F5F80931405809112058F5F809373
S1130D2012059F918F910F900FBE0F901F901895F1
S1130D301F920F920FB60F9211240F900FBE0F90B7
S1130D401F9018951F920F920FB60F9211240F90B7
S1130D500FBE0F901F9018951F920F920FB60F920F
S1130D6011240F900FBE0F901F9018951F920F9291
S1130D700FB60F9211240F900FBE0F901F9018956D
S1130D8021E030E002C0220F331F8A95E2F7809100
S1130D902405822B80932405EBE6F0E08081282B48
S1130DA02083E8E6F0E080818160808380E090E049
S1130DB0089521E030E002C0220F331F8A95E2F744
S1130DC0922F909580912405892380932405EBE646
S1130DD0F0E08081282B2083E8E6F0E080818160C8
S1130DE0808380E090E008951F920F920FB60F92D7
S1130DF011248F938091C00087FF02C08091C600A8
S1130E008F910F900FBE0F901F90189578941F929A
S1130E100F920FB60F9211240F900FBE0F901F90D8
S1130E201895E6E5F1E06927660FF11DE60FF11D5F
S1130E30C895982F802D3196C89590250895982FA0
S1130E4080916902882389F5992379F531E03093FB
S1130E5069028091130280936A0220915E02822FBC
S1130E6081708093B8028091180290911902909336
S1130E706C0280936B0280915F0280936D02322733
S1130E803170267EE32FFF27EE0FFF1FEC5EFD4F30
S1130E90808191819093190280931802232B2093CF
S1130EA05E028DE00E94E601089580915E0280FF5B
S1130EB002C08B7F01C08D7F80935E0208951F93D3
S1130EC01FB7F8948091710B882341F488E00E9445
S1130ED0E601882319F481E08093710B812F99270F
S1130EE08FBF1F9108959FB7F8948091F0058A30C1
S1130EF011F020E006C020E08091F203843009F470
S1130F0021E0892F99278FBF222349F08AE00E948C
S1130F10E6018FB7F894992710925D0206C08FB747
S1130F20F894992721E020935D028FBF08950F93D1
S1130F301F93082F162F8091F2038130D9F081304E
S1130F4038F0823009F44AC0833009F028C159C00E
S1130F50002309F458C110924306109242061092DD
S1130F60150610924B061092F70410925205109237
S1130F70510539C1002309F046C180915105909172
S1130F8052050E941107909352058093510582E007
S1130F908093F20310934B06143409F000C125C169
S1130FA08695869503C080915E028695817009F0CE
S1130FB0F6C080915E02992311F0846001C08260C2
S1130FC080935E0280915E02877E886080935E02D9
S1130FD010925F028FEF8093130215C1002309F072
S1130FE0DEC06093F70480915105909152050E94F0
S1130FF01107909352058093510583E08093F20387
S113100002C1809115068F3F09F4C9C0002309F479
S113101061C0823008F4C3C0E0914206EE2309F4B3
S1131020EBC04E2F4150E42FFF27EE5BF94F828136
S11310309927382F2227442311F4E2E002C0E42F39
S1131040E150FF27EE5BF94F82819927282B392B3A
S113105080915105909152052817390709F09FC0D6
S113106080E00E941F073091F7048091420520918F
S11310704305982F9F5F963008F090E0921771F027
S1131080E82FFF27EE5BFA4F32838F5F8093420590
S1131090863010F0109242050E945F0710924306BA
S11310A01092420694E09093F20310921506109267
S11310B04B061092F704109252051092510580913C
S11310C06E028D7F80936E0280915D02882309F405
S11310D09AC084C0823008F44EC0E0914306FF27D2
S11310E0EE5BF94F8281482F5527342F20915E0201
S11310F0822F8695869586958370992781309105F0
S113110019F00297F9F40EC0277E206120935E0245
S1131110442311F485E001C080E080935F023093A2
S1131120130210C080915F028F3260F4E0911802C4
S1131130F0911902E80FF11D408380915F028F5FE7
S113114080935F0280914306E82FFF27EE5BF94FFF
S113115062818F5F80934306833010F010924306C0
S1131160772780915105909152050E941107909321
S113117052058093510580914206E82FFF27EE5BCC
S1131180F94F12838F5F80934206833010F01092E0
S11311904206809115068F5F8093150634C0109225
S11311A043061092420614E01093F20310921506BF
S11311B010924B061092F7041092520510925105AA
S11311C080916E028D7F80936E0281E00E941F07E2
S11311D080915D02882329F01093F2030E94730723
S11311E012C0002381F081E009CF80915E02982F24
S11311F0917080FDD5CED7CE809146069927382FA1
S1131200222742E01CCF1F910F9108952FB7F89425
S113121033278093CE00E8ECF0E080818064808303
S11312202FBF0895FC016115710519F481E090E068
S1131230089580911E0590911F05892B19F085E072
S113124090E0089570934A0660934906F0931F0551
S1131250E0931E051092F4031092F30381E080934F
S1131260F5038091C80080648093C8008091C90010
S113127080648093C900808121E030E03093F403DE
S11312802093F3030E94060980E090E00895982FCC
S11312908D57823068F480916E02816080936E0273
S11312A080E289278093F8058DE78093D80302C0F4
S11312B09093D80361E070E088ED93E00E941209F6
S11312C0992708958FB7F894992720916E022E7F5D
S11312D020936E022EE72093D8038FBF61E070E065
S11312E088ED93E00E9412099927089578941F923B
S11312F00F920FB60F921124FF920F931F932F9307
S11313003F934F935F936F937F938F939F93AF9389
S1131310BF93CF93DF93EF93FF932091F303309127
S1131320F4038091490690914A062817390780F4FE
S1131330E0911E05F0911F05E20FF31F80812F5FDE
S11313403F4F3093F4032093F3030E940609DAC05D
S113135010921F0510921E051092F5038091C9008A
S11313608F7B8093C9008FB7F89499271092340625
S11313708FBF84E10E94E601FFB6F89480916E026B
S113138080FF0EC08E7F80936E028091F80580935B
S1131390D80361E070E088ED93E00E941209AFC0C9
S11313A08091F005843009F48CC0853040F482309B
S11313B021F18330B8F5813009F09CC00DC086302E
S11313C009F48DC0863008F483C0873009F48EC0D8
S11313D0883009F08FC091C0809119050E94470997
S11313E0082F83E08093F005609119058091790BB3
S11313F090917A0B0E94110710C080915B060E94A5
S11314004709082F83E08093F00560915B06809183
S1131410790B90917A0B0E94110790937A0B809329
S1131420790B66C0E0916F05FF27EE0FFF1FEF5D9C
S1131430FA4F80810E944709082F10916F05C12F30
S1131440DD27FE01EE0FFF1FEF5DFA4F60818091F3
S1131450790B90917A0B0E94110790937A0B8093E9
S1131460790B209113052F5F20931305113039F563
S113147080916502E0916002F0916102E80FF11D34
S1131480E0818F5F8093650290916402981730F435
S113149082E08093220540E050E002C04E2F5527A1
S11314A0DE01AA0FBB1FFD01E05EFA4F808182308E
S11314B031F02F3F21F0AF5DBA4F4C9319C084E057
S11314C012C08091790B0E944709082F85E00BC058
S11314D080917A0B0E944709082F86E004C00E947D
S11314E06209082F87E08093F00502C088E003C0FA
S11314F0002329F089E08093F0050E945F078F2D77
S113150099278FBFFF91EF91DF91CF91BF91AF9159
S11315109F918F917F916F915F914F913F912F9107
S11315201F910F91FF900F900FBE0F901F90189571
S1131530EF920F931F93AE2D99E0899FF001112430
S1131540EF58FA4F40835183628373830483158376
S113155026833783A17080858E7F8A2B8260808763
S113156081E00E94E6011F910F91EF900895EF92A0
S1131570FF920F931F93CF93DF938091DD03882312
S113158009F068C0AEE2B5E020E030E06FE7E62E97
S11315906BE0F62E0BE616E041E056E0C5E0D0E045
S11315A064E972E02115310509F441C021303105A7
S11315B0B1F111961C921E922115310521F02130B2
S11315C0310521F438C084E090E037C0FD01138276
S11315D012821BC0F182E08211C011830083ED915D
S11315E0FC9111970EC0118210822115310531F042
S11315F02130310531F080E090E005C082E095E0D3
S113160002C084E095E0938382832F5F3F4F14965A
S11316102230310539F681E08093DD031BC0119639
S11316205C934E93FD01D383C283FA01D6CF119606
S11316307C936E93C8CF85E090E0FD019383828311
S1131640ED91FC9111972115310521F221303105DD
S113165051F6C3CFDF91CF911F910F91FF90EF907F
S11316600895BF92CF92DF92EF92FF920F931F9350
S1131670CF93DF93EC017B016A0189018FB7F89462
S1131680B82E8091DD03882311F40E94B70AFE016D
S1131690EE0FFF1FEE0FFF1FE25DFA4FA081B18135
S11316A082819381880F991F880F991F8A0F9B1F2E
S11316B09801E0E0F0E00CC0ED014A815B81141672
S11316C015062CF44217530710F0FD019A011496E5
S11316D0A817B90788F3309721F4BFBE8AE090E0D9
S11316E016C080819181D7018D939C9380819181D3
S11316F022813381820F931FE60199838883309579
S113170021953F4F33832283BFBE80E090E0DF9179
S1131710CF911F910F91FF90EF90DF90CF90BF90EA
S11317200895BF92CF92DF92EF92FF920F931F938F
S1131730CF93DF938C016B01B42E79012091560273
S113174030915702C5E5D5E004C08C81882321F08F
S11317502596C217D307C8F3C217D30708F043C0AE
S1131760AE014E5F5F4F20E130E0BE0180E090E0CB
S11317700E94310B8823B9F591E09C83BB2011F0C2
S113178081E88C8380911A02882319F420E030E0E8
S113179006C080E0B11081E08927282F3327E114A7
S11317A0F10429F088819981F70191838083A881CC
S11317B0B981C114D10429F08A819B81E6019983FE
S11317C088830F3F110509F028F4222319F00D93A3
S11317D0CD010BC0812F9927FD018193ED01098370
S11317E0CF01019602C080E090E0DF91CF911F917C
S11317F00F91FF90EF90DF90CF90BF900895AC01D0
S11318002091560230915702E5E5F5E006C080814B
S113181091818417950731F03596E217F307B8F3F1
S1131820E0E0F0E0CF010895CF93DF9320915802D8
S113183030915902CDEFD4E001C02596C217D307E9
S113184018F48C818823C9F7C217D30718F08AE0EB
S113185090E025C0AE014E5F5F4F22E130E0BE0153
S113186081E090E00E94310B9927882311F0992799
S113187016C08881998190937702809376022A8199
S11318803B81281B390B3093730B2093720BD0933D
S11318906E05C0936D0581E08C8380E090E0DF915C
S11318A0CF9108951F931FB7F89480916D0590917F
S11318B06E05892B11F40E94140C812F99278FBF78
S11318C01F9108958F929F92BF92CF92DF92EF92D1
S11318D0FF920F931F93CF93DF936C01FC01EE0FE4
S11318E0FF1FEE0FFF1FE25DFA4FA081B18102815D
S11318F01381000F111F000F111F0A0F1B1F8FB739
S1131900F894B82E01C01496A017B10730F48D9145
S11319109C91119768177907B1F7A017B10721F4C3
S1131920BFBE86E090E084C0ED018A819B8197FD73
S113193004C0BFBE89E090E07BC0909581959F4F25
S1131940FD0193838283F601EE0FFF1FEE0FFF1F4D
S1131950E25DFA4F808191818A179B0748F4FD016B
S11319603497828193811816190614F4BF0101C0BB
S1131970BD01FD013496E017F10728F482819381BB
S1131980181619060CF0FD016E177F0708F044C005
S1131990AF01461B570B55954795559547957A01C9
S11319A0EE0CFF1CEE0CFF1C4B018E0C9F1CFB016C
S11319B00AC0EB018A819B8126813781820F931FA4
S11319C09B838A83FD01DF011496E815F90588F3EA
S11319D0ED01CA01880F991F880F991FFD01E81BAB
S11319E0F90B0DC088819981AA81BB818193919360
S11319F0A193B1938A819B81892B21F02496C017EE
S1131A00D10780F3FE01EE19FF0903C0138212828D
S1131A103496EC17FD07D0F3FB0182819381BFBE9E
S1131A20F1E0CF16D10411F40E94520C80E090E052
S1131A30DF91CF911F910F91FF90EF90DF90CF90A6
S1131A40BF909F908F900895EF92FF920F931F93F2
S1131A50A82FEFB6F894FF24BB2781E296E0FD019E
S1131A60EE0FFF1FEE0FFF1FEE0FFF1FE80FF91F12
S1131A70408351836283738304831583268337836E
S1131A80A80FB91F81E0FD01808B0E943D04EFBEC9
S1131A901F910F91FF90EF900895813049F08130AC
S1131AA028F0823039F0833041F406C0749A0895E6
S1131AB0759A0895769A0895779A0895813049F031
S1131AC0813028F0823039F0833041F406C07498B4
S1131AD00895759808957698089577980895609371
S1131AE04C0570934D0580934E0590934F056030DF
S1131AF021E0720720E0820720E0920729F4809118
S1131B004302909144020CC0603020E1720720E04F
S1131B10820720E0920749F48091410290914202A9
S1131B209093B4028093B30212C06050704480401A
S1131B30904029F41092B4021092B30208C010929B
S1131B404C0510924D0510924E0510924F058FB71B
S1131B50F8949927109232068FBF08959C01FB01D7
S1131B606091BA0380915F0690916006A09161062E
S1131B70B09162060097A105B10509F090C26F30DB
S1131B8009F48DC241E050E0062E02C0440F551FF7
S1131B900A94E2F7609366066093EB0524303105FE
S1131BA009F4ACC02530310578F42130310589F1D0
S1131BB021303105D0F02230310509F43FC0233003
S1131BC0310509F06FC25BC02630310509F4B2C19A
S1131BD02630310508F4E0C02730310509F4D9C1B5
S1131BE02830310509F05EC22BC240FDAEC041FF72
S1131BF059C280E191E0A0E0B0E080935F06909349
S1131C006006A0936106B093620686E08093660640
S1131C1049C2CA0184719070892B09F044C0CA0179
S1131C2083709070892B09F03DC243FD09C051FFB8
S1131C3013C082E090E0A0E0B0E006C040FF0EC018
S1131C4080E090E0A0E0B2E080935F0690936006AD
S1131C50A0936106B093620681E0D8CF42FDC9CF5C
S1131C60CA0188739270892B09F41CC280914702BF
S1131C70882309F017C244FF15C285E0C7CFCA0103
S1131C8085719070892B09F00DC241FF0FC081E06E
S1131C9090E0A0E0B0E080935F0690936006A0938C
S1131CA06106B093620610926606FCC143FD4DC006
S1131CB051FF0CC082E090E0A0E0B0E080935F06AA
S1131CC090936006A0936106B0936206407C5370C3
S1131CD0452B91F080915F0690916006A09161067A
S1131CE0B09162068062906180935F069093600673
S1131CF0A0936106B093620684E088CF309711F414
S1131D0060E001C06081CA0180739070892BF9F092
S1131D10662369F080E090E1A0E0B0E080935F0684
S1131D2090936006A0936106B0936206BBC181E004
S1131D3090E0A0E0B0E080935F0690936006A093EB
S1131D406106B093620644FF25C082E05FCFCA01FA
S1131D50807C9170892B09F4A5C1662379F080E019
S1131D6091E0A0E0B0E080935F0690936006A093BA
S1131D706106B093620647FF95C147CF81E090E0CA
S1131D80A0E0B0E080935F0690936006A0936106A4
S1131D90B093620683E03ACFCA0183709070892BB6
S1131DA009F0B4C0CA0180739070892B09F0AEC0E9
S1131DB042FF0DC080E090E2A0E0B0E080935F06B7
S1131DC090936006A0936106B09362069FC043FFA0
S1131DD019C080E191E0A0E0B0E080935F069093A9
S1131DE06006A0936106B09362068081882329F07F
S1131DF080E193E0A0E0B0E04DC080E195E0A0E098
S1131E00B0E079C0CA0180749170892B69F0808137
S1131E10882329F080E092E0A0E0B0E03BC080E0BD
S1131E2094E0A0E0B0E067C047FF1FC08081882332
S1131E3071F080E092E0A0E0B1E080935F069093BF
S1131E406006A0936106B093620689E02CC080E02E
S1131E5094E0A0E0B0E080935F0690936006A093C6
S1131E606106B093620687E04FC051FF4FC082E025
S1131E7091E0A0E0B0E080935F0690936006A093A9
S1131E806106B09362068081882389F182E093E041
S1131E90A0E0B0E080935F0690936006A093610693
S1131EA0B093620688E08093660680915F06909105
S1131EB06006A0916106B09162068068A06280937A
S1131EC05F0690936006A0936106B093620682E079
S1131ED080932D058281938190935D0680935C06A7
S1131EE084819581909379028093780220C082E066
S1131EF095E0A0E0B0E080935F0690936006A09325
S1131F006106B093620686E08093660680915F0660
S1131F1090916006A0916106B091620680688093FA
S1131F205F0690936006A0936106B0936206868173
S1131F309781B0C0CA018C709070892B79F5CA0161
S1131F4080739070892B09F05AC046FF0EC080E15F
S1131F5090E0A0E0B0E080935F0690936006A093C9
S1131F606106B093620687E011C047FD25C050FFAB
S1131F7038C080E190E0A0E0B1E080935F069093E8
S1131F806006A0936106B093620689E080936606BA
S1131F9036C0CA018C709070892B29F080E090E2E1
S1131FA0A0E0B0E024C0CA0180739070892B39F599
S1131FB046FD12C047FF0EC080E091E0A0E0B0E013
S1131FC080935F0690936006A0936106B0936206C7
S1131FD086E0DCCF50FF05C080E191E0A0E0B0E0F6
S1131FE006C051FF0CC082E091E0A0E0B0E0809315
S1131FF05F0690936006A0936106B0936206809199
S11320005F0690916006A0916106B0916206A0619E
S113201080935F0690936006A0936106B093620676
S1132020848180932D058081918190935D068093B6
S11320305C0682819381909379028093780232C006
S1132040CA018C7F9370892B69F151FF0EC086E021
S113205090E4A0E0B0E080935F0690936006A093C4
S11320606106B093620685E011C080E090E4A0E0D0
S1132070B0E080935F0690936006A0936106B093EE
S1132080620640785170452B19F086E0809366060D
S113209085819681909375028093740203C087E0D2
S11320A090E0089580E090E00895FC016827262FD1
S11320B02295207F2627422F5527942F8827EF2FFC
S11320C0FF278E2B9F2B33E0440F551F3A95E1F7E2
S11320D022952F7033274227532784279527089565
S11320E08FB7F8949927109231068FBF08956093A3
S11320F0690570936A0580936B0590936C05603055
S113210021E0720720E0820720E0920729F4809101
S11321103502909136020CC0603020E1720720E055
S1132120820720E0920749F48091330290913402AF
S11321309093BC038093BB0312C0605070448040F2
S1132140904029F41092BC031092BB0308C0109273
S1132150690510926A0510926B0510926C050E9435
S113216070100895AC018FB7F894FA01A0E2B2E0C0
S11321702AE00D9001922150E1F78FBFCA01089522
S11321802FB7F894009749F0A0E2B2E0FC018AE08E
S113219001900D928150C9F0FBCF10922102109250
S11321A020028FEF9FEFAFEFBFEF80932602909353
S11321B02702A0932802B0932902809322029093CD
S11321C02302A0932402B0932502822F99278FBF64
S11321D080E090E00895EF92FF920F931F93CF93C6
S11321E0DF93CDB7DEB76E970FB6F894DEBF0FBEA0
S11321F0CDBF7C018E010B5E1F4FC8010E94B2103F
S1132200DE011196F8018AE001900D928150E1F708
S1132210DE011B96FE0131968AE001900D928150F9
S1132220E1F71C86EF2811F081E08C87CE010B9634
S11322300E94C0106E960FB6F894DEBF0FBECDBFDD
S1132240DF91CF911F910F91FF90EF900895009728
S113225049F0AAE1B2E0FC0186E001900D928150C0
S113226079F0FBCF10921B0210921A0280E095E0E5
S113227090931F0280931E0290931D0280931C0270
S113228080E090E00895CF93DF93CDB7DEB76E97EB
S11322900FB6F894DEBF0FBECDBFDC019E01295FEF
S11322A03F4F4AE152E086E0FA010190AF01F901A3
S11322B001929F018150C1F79E01275E3F4FAE01FD
S11322C0495F5F4F86E0FA010190AF01F901019285
S11322D09F018150C1F79E012F5F3F4FAE01475EC2
S11322E05F4F86E0FA010190AF01F90101929F016D
S11322F08150C1F79E01235F3F4FAE014F5F5F4F97
S113230086E0FA010190AF01F90101929F01815029
S1132310C1F79E012D5E3F4FAE01435F5F4F86E0E4
S1132320FA010190AF01F90101929F018150C1F7B7
S1132330109719F420E035E009C08C919927382FC3
S11323402227FD0181819927282B392B388F2F8B48
S1132350CE0143960E9427116E960FB6F894DEBF05
S11323600FBECDBFDF91CF910895CF93DF93CDB74B
S1132370DEB76E970FB6F894DEBF0FBECDBFDC019B
S11323809E01295F3F4F4AE152E086E0FA01019045
S1132390AF01F90101929F018150C1F79E01275EAF
S11323A03F4FAE01495F5F4F86E0FA010190AF01F4
S11323B0F90101929F018150C1F79E012F5F3F4FA8
S11323C0AE01475E5F4F86E0FA010190AF01F9016B
S11323D001929F018150C1F79E01235F3F4FAE01DF
S11323E04F5F5F4F86E0FA010190AF01F90101925E
S11323F09F018150C1F79E012D5E3F4FAE01435FA7
S11324005F4F86E0FA010190AF01F90101929F014B
S11324108150C1F7109719F420E035E009C08C9180
S11324209927382F2227FD0181819927282B392BC1
S11324303E8B2D8BCE0143960E9427116E960FB6CC
S1132440F894DEBF0FBECDBFDF91CF9108959C01FC
S1132450FB016091F1058091F4059091F505A0913F
S1132460F605B091F7050097A105B10509F090C2F2
S11324706F3009F48DC241E050E0062E02C0440FD3
S1132480551F0A94E2F760939302609392022430FA
S1132490310509F4ACC02530310578F4213031051B
S11324A089F121303105D0F02230310509F43FC0E3
S11324B02330310509F06FC25BC02630310509F4C1
S11324C0B2C12630310508F4E0C02730310509F4E3
S11324D0D9C12830310509F05EC22BC240FDAEC01F
S11324E041FF59C280E191E0A0E0B0E08093F4059F
S11324F09093F505A093F605B093F70586E08093D5
S1132500930249C2CA0184719070892B09F044C0B6
S1132510CA0183709070892B09F03DC243FD09C044
S113252051FF13C082E090E0A0E0B0E006C040FF9D
S11325300EC080E090E0A0E0B2E08093F4059093B8
S1132540F505A093F605B093F70581E0D8CF42FDD9
S1132550C9CFCA0188739270892B09F41CC2809177
S11325603902882309F017C244FF15C285E0C7CF9A
S1132570CA0185719070892B09F00DC241FF0FC00B
S113258081E090E0A0E0B0E08093F4059093F5053D
S1132590A093F605B093F70510929302FCC143FD96
S11325A04DC051FF0CC082E090E0A0E0B0E0809309
S11325B0F4059093F505A093F605B093F705407CD8
S11325C05370452B91F08091F4059091F505A091FD
S11325D0F605B091F705806290618093F4059093BD
S11325E0F505A093F605B093F70584E088CF3097FE
S11325F011F460E001C06081CA0180739070892B7E
S1132600F9F0662369F080E090E1A0E0B0E0809307
S1132610F4059093F505A093F605B093F705BBC1B7
S113262081E090E0A0E0B0E08093F4059093F5059C
S1132630A093F605B093F70544FF25C082E05FCF71
S1132640CA01807C9170892B09F4A5C1662379F0B5
S113265080E091E0A0E0B0E08093F4059093F5056C
S1132660A093F605B093F70547FF95C147CF81E0E6
S113267090E0A0E0B0E08093F4059093F505A0937A
S1132680F605B093F70583E03ACFCA0183709070E2
S1132690892B09F0B4C0CA0180739070892B09F0AA
S11326A0AEC042FF0DC080E090E2A0E0B0E08093B5
S11326B0F4059093F505A093F605B093F7059FC034
S11326C043FF19C080E191E0A0E0B0E08093F405FD
S11326D09093F505A093F605B093F70580818823C0
S11326E029F080E193E0A0E0B0E04DC080E195E006
S11326F0A0E0B0E079C0CA0180749170892B69F0C0
S11327008081882329F080E092E0A0E0B0E03BC023
S113271080E094E0A0E0B0E067C047FF1FC0808184
S1132720882371F080E092E0A0E0B1E08093F405AA
S11327309093F505A093F605B093F70589E02CC0B6
S113274080E094E0A0E0B0E08093F4059093F50578
S1132750A093F605B093F70587E04FC051FF4FC033
S113276082E091E0A0E0B0E08093F4059093F50559
S1132770A093F605B093F7058081882389F182E060
S113278093E0A0E0B0E08093F4059093F505A09366
S1132790F605B093F70588E0809393028091F405E1
S11327A09091F505A091F605B091F7058068A062B7
S11327B08093F4059093F505A093F605B093F7057F
S11327C082E0809336058281938190931F068093E3
S11327D01E06848195819093B7028093B60220C02F
S11327E082E095E0A0E0B0E08093F4059093F505D5
S11327F0A093F605B093F70586E080939302809149
S1132800F4059091F505A091F605B091F70580685F
S11328108093F4059093F505A093F605B093F7051E
S113282086819781B0C0CA018C709070892B79F52C
S1132830CA0180739070892B09F05AC046FF0EC0FC
S113284080E190E0A0E0B0E08093F4059093F5057A
S1132850A093F605B093F70587E011C047FD25C0A6
S113286050FF38C080E190E0A0E0B1E08093F4052F
S11328709093F505A093F605B093F70589E080934E
S1132880930236C0CA018C709070892B29F080E0C5
S113289090E2A0E0B0E024C0CA0180739070892B5C
S11328A039F546FD12C047FF0EC080E091E0A0E07C
S11328B0B0E08093F4059093F505A093F605B093EA
S11328C0F70586E0DCCF50FF05C080E191E0A0E091
S11328D0B0E006C051FF0CC082E091E0A0E0B0E09F
S11328E08093F4059093F505A093F605B093F7054E
S11328F08091F4059091F505A091F605B091F70546
S1132900A0618093F4059093F505A093F605B09328
S1132910F7058481809336058081918190931F0609
S113292080931E06828193819093B7028093B602AE
S113293032C0CA018C7F9370892B69F151FF0EC09C
S113294086E090E4A0E0B0E08093F4059093F50570
S1132950A093F605B093F70585E011C080E090E4FC
S1132960A0E0B0E08093F4059093F505A093F605FC
S1132970B093F70540785170452B19F086E08093A9
S113298093028581968190937E0B80937D0B03C087
S113299087E090E0089580E090E00895982F8D57A7
S11329A0823018F481E090E00895903218F080E0CD
S11329B090E0089504C076956795579547959A9544
S11329C0D2F7CA018170907008959FB7F8948091EE
S11329D0F203882319F484E08093F203892F992762
S11329E08FBF9FB7F8948091F005882319F48AE08B
S11329F08093F005892F99278FBF0E94730780E089
S1132A0090E00895E9ECF0E080818F7B8083808101
S1132A108F7780831092EA051092F5038081886095
S1132A20808380818F7B80838081806180838FEF2E
S1132A3080930E0280818068808380E090E0089516
S1132A408FB7F894282F3327922F8091F0058A307E
S1132A5041F08091F203843021F02FBF89E090E0AF
S1132A6008959FBF89E00E94E60180E090E0089508
S1132A70992780FF02C0749801C0749A81FF02C034
S1132A80759801C0759A82FF02C0769801C0769A43
S1132A9083FF02C077980895779A0895982F9695A2
S1132AA096959695E0E7F5E0E90FF11D877021E032
S1132AB030E002C0220F331F8A95E2F7808182231F
S1132AC099270895CF92DF92EF92FF920F931F936D
S1132AD0CF93DF9310922C05C090EE05D090EF05B4
S1132AE080915E06882309F068C08FB7F894E82EB9
S1132AF080915B02833009F040C080910F028823EB
S1132B00E1F580917005882309F051C042C0EF2D92
S1132B10E695E695E695FF274F2D5527E059FA4FA0
S1132B209A012770307081E090E002C0880F991FED
S1132B302A95E2F78095208128232083C0935A02A6
S1132B4011C02196C130D10511F4C0E0D0E0FC2EB3
S1132B508C2F0E944E158823D1F6C017D10789F710
S1132B604FEF50E0409338068FEF80930F0281E0DF
S1132B7080935B0282E00E94E601EFBE1092750B27
S1132B808098D092A802C092A70284E00E94E60135
S1132B9014C081E080930F0210925B0280917A004E
S1132BA08F7780937A008FEF80930E02E6CF809127
S1132BB05A02082F1127E801C4CFDF91CF911F914A
S1132BC00F91FF90EF90DF90CF9008950F931F9394
S1132BD00FB7F894112760931A0570931B0580931F
S1132BE01C0590931D0520931505309316054093FD
S1132BF01705509318050E9453020FBF1F910F91A0
S1132C000895CF93DF93E0E5F6E0AAEEB3E098E011
S1132C100AC0813039F480933A02ED01892F199268
S1132C208A95E9F731968081882399F7DF91CF91CE
S1132C3008956F927F928F929F92BF92CF92DF926C
S1132C40EF92FF920F931F93CF93DF936C014B018D
S1132C50FC01EE0FFF1FEE0FFF1FE25DFA4F6080D5
S1132C6071800280F381E02DEE0FFF1FEE0FFF1F36
S1132C70E60DF71D8FB7F894B82E04C084E090E0F9
S1132C80680E791E6E167F0630F4D3018D919C91E7
S1132C908816990699F76E167F0671F0E30188810C
S1132CA099816A817B814817590730F09C01261B62
S1132CB0370B2417350720F4BFBE86E090E075C0BB
S1132CC07901E41AF50AE0FE03C00894E108F1086A
S1132CD08417950711F481E056C0E114F10431F131
S1132CE083010C5F1F4F0E171F0701F1E8018A8152
S1132CF09B811816190694F46E0D7F1DF3017383DE
S1132D006283848195818E199F09958384838A8146
S1132D109B818E0D9F1D9B838A8331C0892BF1F08B
S1132D203497828193813496892B19F0BFBE3BC0BE
S1132D30FD019301285F3F4F2E173F0738F4DF0151
S1132D401497ED018A819B81892B91F3E619F70988
S1132D503497AF01B801C9010E94C833F30122813D
S1132D6033812E0D3F1D3383228380819181821B09
S1132D70930BD8018D939C93E801FB82EA82F801BE
S1132D80E280F38080E0BFBE882331F0B401C60145
S1132D900E94620C992709C0F1E0CF16D10419F4FE
S1132DA0C7010E94520C80E090E0DF91CF911F9107
S1132DB00F91FF90EF90DF90CF90BF909F908F90F6
S1132DC07F906F9008951F920F920FB60F92112467
S1132DD00F931F932F933F934F935F936F937F931F
S1132DE08F939F93AF93BF93EF93FF93409178009A
S1132DF05091790078948FB7F89499272091DF0344
S1132E00322F3695317021708FBF222319F58091AE
S1132E107A00877F80937A0080912C05813021F09D
S1132E20823009F047C00AC0332351F05093EF05B4
S1132E304093EE0583E00E94E6013CC0332339F45D
S1132E408DE790E00E948B050E94DD0533C010924F
S1132E502C0530C00FB7F894112780917C000E9494
S1132E60B7050FBF2FB7F894332780917A00582FF6
S1132E705770482F4072087D042B052B8074077B04
S1132E80082B00610F77802F992780937A00087DA3
S1132E90042B052B07730061802F992780937A00F8
S1132EA0087D042B052B077B0069802F99278093CD
S1132EB07A002FBFFF91EF91BF91AF919F918F91B6
S1132EC07F916F915F914F913F912F911F910F913E
S1132ED00F900FBE0F901F9018950E94FF0BDC01FE
S1132EE0009719F486E090E00895FC018481807FC6
S1132EF0836084838091F205E82FFF27EE0FFF1F84
S1132F00EA5EF94FB183A0838F5F8093F20580E17D
S1132F100E94E60180E090E008951F920F920FB6A0
S1132F200F9211241F932F933F934F935F936F93AB
S1132F307F938F939F93AF93BF93EF93FF9380916E
S1132F40C80087FF74C01091CE00E0915305F09142
S1132F505405309729F180916F0B9091700BE80F15
S1132F60F91F108301969093700B80936F0B20913F
S1132F707B0B30917C0B8217930708F458C0109296
S1132F805405109253058091EA05833009F44FC02B
S1132F908091C9008F778093C9001092EA0547C0D9
S1132FA0E0913906F0913A06309721F12091DB0344
S1132FB03091DC0321153105B1F1CF0101969093D5
S1132FC03A0680933906875F944030F087EF93E0A8
S1132FD090933A06809339068091390690913A0687
S1132FE08217930729F41092DC031092DB031BC0B1
S1132FF0108319C01E3719F460E081E011C080917C
S11330006E021D3721F4826080936E0210C081FF2E
S113301005C08D7F80936E0280E21827612F80E0C7
S11330200E94970704C087E10E94E601E3CFFF9165
S1133030EF91BF91AF919F918F917F916F915F912C
S11330404F913F912F911F910F900FBE0F901F90A2
S11330501895CF93DF93882309F050C060936306DB
S1133060662311F41D994AC08FB7F894282F33278B
S1133070922F80915C02882311F581E080935C0299
S11330801092FA042FBF8FB7F894C82FDD279C2F16
S113309080911202813059F580915C02813021F4D3
S11330A085E00E94E60109C0823009F58091FA04A6
S11330B08093120283E080935C02CFBF1FC0809193
S11330C0FA04882311F42FBF19C08091E5038F3FC0
S11330D071F4E0911102EE2351F00BC01092100232
S11330E004C0FF27EB51FC4F1082109211029FBFC6
S11330F005C0809110028F3FA1F7F0CFDF91CF91EF
S113310008958091E9051D9B0CC08823A1F481E0FA
S11331108093E90586E00E94E60185E00E94C006EE
S11331200895882341F01092E90587E00E94E601A2
S113313085E00E94D90608951F920F920FB60F9250
S113314011242F933F934F935F936F937F938F93A8
S11331509F93AF93BF93EF93FF9320916B0093B131
S1133160809124058927822385FF02C00E9481184B
S1133170FF91EF91BF91AF919F918F917F916F914B
S11331805F914F913F912F910F900FBE0F901F9021
S113319018951F93CF93DF93C82FDD27C7FDD095D4
S11331A01FB7F8948091E305882379F48091DA03BA
S11331B08F3F59F0E82FFF27E554FD4FC0838F5F01
S11331C08093DA038AE10E94E601812F99278FBF59
S11331D0CE01DF91CF911F910895CF93DF93FC012E
S11331E0892B09F056C0C0E5D6E049EA52E098E0E0
S11331F016C0222341F0813089F4FA01892F1192FB
S11332008A95E9F70BC0813049F4A9EFB5E0E0E015
S1133210F0E088E001900D928150E1F721968881D9
S1133220882339F73FC09181DF0112968081813074
S113323061F535C04330A9F04430E1F0423029F55E
S1133240E9EAF2E0109741F0EF01FD0188E0019016
S113325009928150D1F0FBCF88E011928A95E9F769
S113326014C0CAEED3E0FD0188E0019009928150B8
S113327061F0FBCF10923A0208C0C9EFD5E0FD011E
S113328088E0019009928150E1F79250FD01E90F25
S1133290F11DCF0102966817790728F603C022238F
S11332A049F6EBCFDF91CF910895EF92FF920F9300
S11332B01F937B018C010E940D02AB01BC0198019C
S11332C0870180E00E94240D1F910F91FF90EF90E1
S11332D00895BF92CF92DF92EF92FF920F931F93C4
S11332E0CF93DF936C01B62E442309F46FC0FC0125
S11332F0C081D1818091B9029091BA028C179D0747
S1133300A9F41092BA021092B902E0903D02F09032
S11333103E0200913F02109140020E940D02AB0157
S1133320BC019801870181E00E94240D8091FB0477
S11333309091FC048C179D0749F4B092F603109207
S1133340FC041092FB0488E10E94E6011FB7F89484
S113335080916406909165068C179D0779F410920C
S11333606506109264068091E305882339F4809100
S1133370DA03882319F08AE10E94E601812F992754
S11333808FBF80914005909141058C179D0771F482
S1133390109241051092400560912F027091300205
S11333A080913102909132020E9455198091E10579
S11333B09091E2058C179D0749F4B092B5021092E2
S11333C0E2051092E10585E10E94E601F6016081C3
S11333D0718180E090E00E94620CF60114821382F5
S11333E0128211821082DF91CF911F910F91FF9071
S11333F0EF90DF90CF90BF9008950E94FF0B00974D
S113340019F486E090E0089540E060E00E946919B4
S113341080E090E00895FF920F931F93CF93DF9382
S11334208B010E94FF0BEC01892B19F486E090E0DC
S113343019C068817981A80180E090E00E94191682
S1133440682F7727F62E662339F41B830A838C8131
S1133450807F82608C8304C040E0CE010E946919A1
S11334608F2D9927DF91CF911F910F91FF90089590
S1133470AF92BF92CF92DF92EF92FF920F931F937E
S1133480CF93DF93CDB7DEB724970FB6F894DEBFA2
S11334900FBECDBF8C017B015A0169011A821982CA
S11334A09E012D5F3F4F41E0BE016F5F7F4F81E280
S11334B090EC0E94910B9C01009719F485E090E038
S11334C057C0DC01119601151105A1F088E0F9013E
S11334D080838091A4028183AD014F5F5F4F8F5F32
S11334E08093A402812F9927FD0183830483D9014A
S11334F0169613C087E0F90180838091A602818328
S1133500AD014F5F5F4F8F5F8093A602D901149680
S113351004C0F70181917F018D9389819A81A81755
S1133520B90718F4EA14FB04A0F3CD01821B930B32
S1133530292F3327FA0120838183BD018B819C814C
S11335400E940B1A9927282F882381F48B819C8150
S11335500E946D179927282F882341F4C114D104A0
S113356029F08B819C81F60191838083822F992796
S113357024960FB6F894DEBF0FBECDBFDF91CF9176
S11335801F910F91FF90EF90DF90CF90BF90AF907D
S11335900895FF920F931F93CF93DF93EC018A0159
S11335A00E940B1A9927F82E882339F4CE010E9421
S11335B06D179927F82E882321F0CE010E94FD195A
S11335C006C00115110519F0F801D183C0838F2DB0
S11335D09927DF91CF911F910F91FF900895FF924A
S11335E00F931F93CF93DF93EC018A010E940B1A70
S11335F09927F82E882339F4CE010E946D17992754
S1133600F82E882321F0CE010E94FD1906C0011571
S1133610110519F0F801D183C0838F2D9927DF910B
S1133620CF911F910F91FF9008958F929F92BF9217
S1133630CF92DF92EF92FF920F931F93CF93DF937A
S1133640CDB7DEB726970FB6F894DEBF0FBECDBF59
S11336501A821982D090F6031092F603BB242091AB
S11336605F06309160064091610650916206211513
S1133670310541055105E1F061E0E62EF12C012D03
S1133680112D60E070E009C0EE0CFF1C001F111F3B
S11336906F5F7F4F6032710559F0DA01C9018E21E5
S11336A09F21A023B1230097A105B10569F303C0AD
S11336B0EE24FF248701D801C70180959095A09539
S11336C0B095282339234A235B2320935F06309344
S11336D060064093610650936206E0923C06F092C5
S11336E03D0600933E0610933F0680914C05909151
S11336F04D05A0914E05B0914F058E159F05A0076D
S1133700B10749F48091B3029091B4020197909368
S1133710B4028093B30220E0E21621E0F20620E036
S1133720020720E0120709F4B8C081E0E81681E03E
S1133730F80680E0080780E0180790F5E4E0EE164C
S1133740F1040105110509F486C0F5E0EF16F10452
S11337500105110578F421E0E216F10401051105D3
S113376009F46FC082E0E816F1040105110509F0BF
S1133770B2C16AC0E0E2EE16F1040105110509F4D4
S11337807EC0F0E8EF16F1040105110509F47EC0CE
S113379020E1E216F1040105110509F09CC16AC09B
S11337A080E0E81680E4F80680E0080780E0180767
S11337B009F441C1E1E0EE16E0E4FE06E0E00E07A4
S11337C0E0E01E07F8F4F0E0EF16F4E0FF06F0E0A6
S11337D00F07F0E01F0709F42EC120E0E21620E2F3
S11337E0F20620E0020720E0120709F4E6C080E0B8
S11337F0E81682E0F80680E0080780E0180709F080
S11338006AC119C1E0E0EE16E0E0FE06E0E20E0750
S1133810E0E01E0709F439C1F0E0EF16F0E0FF061E
S1133820F0E00F07F1E01F0709F44BC120E0E216B6
S113383020E0F20620E1020720E0120709F04BC164
S113384024C10E9401164CC11092D90381E00E9448
S11338504D0D80E03DC160E070E480E090E00E94A6
S11338606F0D80917402909175029093BA028093C7
S1133870B90236C160E071E080E090E004C060E02D
S113388070E180E090E00E946F0D2AC120E042E0E8
S113389060E070E080E090E00CC1DD2009F07BC0C6
S11338A021E042E060E070E080E090E00E94ED18EA
S11338B09E012D5F3F4F40E0BE016B5F7F4F87E568
S11338C090E80E94910B8C01009709F462C0DC011E
S11338D081E08D9380913B068F5F80933B06F801D6
S11338E081836D010894C11CD11CB8016C5F7F4FAA
S11338F080E5E82E86E0F82E2CC0813011F090E0AF
S113390002C090913A02992309F1DB018D934D8114
S11339105E818130D9F4CD0101969B01265F3F4F32
S11339204217530798F04C014AEE53E088E0FA013D
S11339300190AF01F40101924F018150C1F72115AB
S1133940310521F0822F861B8C93B9010894E11C68
S1133950F11CF7018081882381F6CB01801B910B38
S1133960292F3327F60120838183AE014F5F5F4FF8
S11339708B819C810E94EF1A9927D82E882359F4B1
S113398089819A81009739F09093BA028093B902A1
S11339904BC0A5E0DA2EE0903D02F0903E0200918B
S11339A03F02109140020E940D02AB01BC0198013C
S11339B0870181E00E94240D93C0DD2009F095C0A9
S11339C09E012B5F3F4F40E0BE016D5F7F4F87E557
S11339D090E80E94910BFC01009709F4C5C0DC013A
S11339E086E08D938091A5028F5F8093A5028183E9
S11339F09D012F5F3F4FFD01118282E0F901818318
S1133A002E5F3F4FAE014F5F5F4FB9018D819E81A5
S1133A100E94EF1A9927D82E882309F061C0898162
S1133A209A81009709F45CC09093FC048093FB0492
S1133A30F1E0BF2E55C0DD20A9F48091740290916D
S1133A4075020E946D179927D82E882359F4809106
S1133A507402909175029093FC048093FB04E1E05E
S1133A60BE2E0EC01092BA021092B9021092FC043B
S1133A701092FB0480917402909175020E94FD19CA
S1133A80109275021092740226C0609178027091AF
S1133A90790280915C0690915D06F0E0EF16F0E00B
S1133AA0FF06F0E10F07F0E01F0731F421E0409139
S1133AB02D050E94ED1814C020E042E00E94ED188C
S1133AC00AC081E08093D90380E00E944D0D81E01B
S1133AD00E945E0D05C0E114F1040105110529F0F1
S1133AE0DD2019F4BB2019F4BACDBB2021F08FE0FE
S1133AF08093BA033CC0DD2019F48091660602C0AD
S1133B008091EB058093BA0310E081E090E000908F
S1133B10BA0302C0880F991F0A94E2F7807F91705C
S1133B20892B29F411E01092BA021092B902109272
S1133B3079021092780210925D0610925C068091D0
S1133B40740290917502009711F00E94FD19109271
S1133B50750210927402112351F08FB7F8949927CB
S1133B60109232068FBF03C075E0D72EBECF8D2DC5
S1133B70992726960FB6F894DEBF0FBECDBFDF910E
S1133B80CF911F910F91FF90EF90DF90CF90BF9056
S1133B909F908F9008950E94AE0D873019F487E0AE
S1133BA090E008950E94151B99270895CF93DF9301
S1133BB0CDB7DEB727970FB6F894DEBF0FBECDBFE3
S1133BC085E08D837A8369835C834B833F832E8373
S1133BD0BE016F5F7F4F88E090E00E94CB1D992764
S1133BE027960FB6F894DEBF0FBECDBFDF91CF91FD
S1133BF00895CF93DF93CDB7DEB725970FB6F8942A
S1133C00DEBF0FBECDBF982F80913B06861719F0FB
S1133C1080E090E00DC09D835A8349833C832B83CD
S1133C20BE016F5F7F4F87E090E00E94CB1D992714
S1133C3025960FB6F894DEBF0FBECDBFDF91CF91AE
S1133C400895CF93DF934091F205442309F489C08A
S1133C508091EC059091ED05892B09F082C0C0910B
S1133C601606D091170641504093F205442349F0BB
S1133C705527440F551F68E176E086E196E00E94DF
S1133C80C8336C814A815B81288139818091E0034A
S1133C90882309F061C081E08093E0038FEF9FEFF8
S1133CA090934B0580934A053093E9032093E803EE
S1133CB030932B0520932A055093F9044093F8047C
S1133CC08EE78093250567FD07C080912002882335
S1133CD019F066E275E02AC06FEF8FEF9FEF0E9444
S1133CE0551063E00E94551090934B0580934A054C
S1133CF08FEF809326054091220250912302609118
S1133D0024027091250283E00E94CE14882349F096
S1133D108DE78093270583E28093280569E275E0A7
S1133D2005C083E08093270568E275E0655275401D
S1133D3085E295E00E9412099927882331F01092B8
S1133D40E0039927682F882341F484E08C83D0937F
S1133D50ED05C093EC0505C065E041E0CE010E948D
S1133D606919DF91CF910895CF92DF92EF92FF927C
S1133D700F931F93CF93DF93CDB7DEB76E970FB634
S1133D80F894DEBF0FBECDBF6C018E010B5E1F4FDA
S1133D90C8010E94B210DE011196F8018AE0019078
S1133DA00D928150E1F7DE011B96FE0131968AE007
S1133DB001900D928150E1F7C114D10449F40FEF41
S1133DC0E02E0FEFF02E0FEF002F0FEF102F28C073
S1133DD0F60182819927AA27BB27EE24F82E092F02
S1133DE01A2F2081332744275527522F442733275E
S1133DF0222781819927AA27BB27DC0199278827B5
S1133E00282B392B4A2B5B2B83819927AA27BB2785
S1133E10282B392B4A2B5B2BE22AF32A042B152B54
S1133E20ED86FE860F87188BCE010B960E94C0107C
S1133E306E960FB6F894DEBF0FBECDBFDF91CF9163
S1133E401F910F91FF90EF90DF90CF900895EF9224
S1133E50FF920F931F93CF93DF93CDB7DEB76E9787
S1133E600FB6F894DEBF0FBECDBF7C018E010B5E92
S1133E701F4FC8010E94B210DE011196F8018AE0BA
S1133E8001900D928150E1F7DE011B96FE013196FF
S1133E908AE001900D928150E1F71B86EF2811F022
S1133EA081E08B87CE010B960E94C0106E960FB6F0
S1133EB0F894DEBF0FBECDBFDF91CF911F910F915C
S1133EC0FF90EF900895CF92DF92EF92FF920F93BD
S1133ED01F93CF93DF93CDB7DEB76E970FB6F894E9
S1133EE0DEBF0FBECDBF6C018E010B5E1F4FC8013C
S1133EF00E94B210DE011196F8018AE001900D9241
S1133F008150E1F7DE011B96FE0131968AE00190B3
S1133F100D928150E1F7C114D10449F40FEFE02E62
S1133F200FEFF02E0FEF002F0FEF102F28C0F60128
S1133F3082819927AA27BB27EE24F82E092F1A2F4E
S1133F402081332744275527522F442733272227FC
S1133F5081819927AA27BB27DC0199278827282B49
S1133F60392B4A2B5B2B83819927AA27BB27282B24
S1133F70392B4A2B5B2BE22AF32A042B152BE98AD3
S1133F80FA8A0B8B1C8BCE010B960E94C0106E9686
S1133F900FB6F894DEBF0FBECDBFDF91CF911F9156
S1133FA00F91FF90EF90DF90CF9008959F92AF9282
S1133FB0BF92CF92DF92EF92FF920F931F93CF9312
S1133FC0DF93DC015B01C42E922E892B09F0E2C041
S1133FD0C9E3D5E038C09920D9F0823059F088304F
S1133FE081F0813079F560E070E080E090E00E943B
S1133FF0431128C060E070E080E090E00E94631FFD
S113400021C060E070E080E090E00E94EB101AC0F4
S1134010823059F0883081F08130A1F460E070E0A2
S113402080E090E00E94B5110DC060E070E080E097
S113403090E00E94B41E06C060E070E080E090E072
S11340400E94271F21968881882329F6AEC0FD018E
S11340508191ED01D9809EEFD90EEF012196813037
S113406008F495C0833008F49CC0883009F08FC0F0
S113407098C093E0C916F1F094E0C91609F45FC042
S113408092E0C91609F083C0BE016D0D711D823026
S113409049F0883059F0813009F079C0CE010E948E
S11340A0431175C0CE010E94631F71C0CE010E94EE
S11340B0EB106DC0823099F0883009F450C0813023
S11340C009F065C088819927982F8827298133278B
S11340D0822B932B90932C0280932B0258C0EA805E
S11340E0FF2400271127102F0F2DFE2CEE242881EA
S11340F0332744275527522F4427332722278981E2
S11341009927AA27BB27DC0199278827282B392B35
S11341104A2B5B2B8B819927AA27BB27282B392B6A
S11341204A2B5B2BE22AF32A042B152BE09254062C
S1134130F0925506009356061093570628C0823015
S113414051F0883061F0813011F580912A028B7F23
S113415080932A021CC080912A02877FF9CF809124
S11341602A028E7FF5CFBE016D0D711D823041F0A4
S1134170883051F0813059F4CE010E94B51107C046
S1134180CE010E94B41E03C0CE010E94271FDE018F
S1134190AD0DB11DCD010296A816B90608F057CF92
S11341A004C0992009F065CFDECFDF91CF911F9134
S11341B00F91FF90EF90DF90CF90BF90AF909F90C2
S11341C008956F927F929F92AF92BF92CF92DF92A7
S11341D0EF92FF920F931F93CF93DF93CDB7DEB788
S11341E06E970FB6F894DEBF0FBECDBF1A82198248
S11341F0D090B5021092B50299242091F405309123
S1134200F5054091F6055091F70521153105410555
S11342105105E1F0F1E0EF2EF12C012D112D60E0BC
S113422070E009C0EE0CFF1C001F111F6F5F7F4F71
S11342306032710559F0DA01C9018E219F21A02352
S1134240B1230097A105B10569F303C0EE24FF244F
S11342508701D801C70180959095A095B095282332
S113426039234A235B232093F4053093F5054093C7
S1134270F6055093F705E092E505F092E605009304
S1134280E7051093E8058091690590916A05A0916E
S11342906B05B0916C058E159F05A007B10749F415
S11342A08091BB039091BC0301979093BC038093CE
S11342B0BB0320E0E21621E0F20620E0020720E042
S11342C0120709F4ECC081E0E81681E0F80680E00A
S11342D0080780E0180790F594E0E916F104010559
S11342E0110509F4BAC0E5E0EE16F1040105110563
S11342F078F4F1E0EF16F1040105110509F46FC03B
S113430022E0E216F1040105110509F051C29CC036
S113431080E2E816F1040105110509F4B2C090E841
S1134320E916F1040105110509F4B2C0E0E1EE1645
S1134330F1040105110509F03BC29EC0F0E0EF163F
S1134340F0E4FF06F0E00F07F0E01F0709F4E3C113
S113435021E0E21620E4F20620E0020720E0120742
S1134360F8F480E0E81684E0F80680E0080780E0CE
S1134370180709F4D0C190E0E91690E2F90690E03C
S1134380090790E0190709F488C1E0E0EE16E2E0BD
S1134390FE06E0E00E07E0E01E0709F009C2BBC11B
S11343A0F0E0EF16F0E0FF06F0E20F07F0E01F0781
S11343B009F4DBC120E0E21620E0F20620E0020767
S11343C021E0120709F4EDC180E0E81680E0F80668
S11343D080E1080780E0180709F0EAC1C6C1E9E3F3
S11343E0F5E090912A0260912B0270912C022091A9
S11343F0540630915506409156065091570612C006
S1134400823041F0883061F0813059F4946060E08A
S113441075E007C0986020E030E040E050E001C063
S1134420916031968081882359F720935406309304
S11344305506409356065093570670932C0260938A
S11344402B0290932A02B9C160E070E081E090E011
S11344500E94CB1D0E940116B0C160E070E480E0B0
S113446090E00E94771080917D0B90917E0B909349
S1134470410580934005A1C160E071E080E090E0D7
S113448004C060E070E180E090E00E94771095C184
S113449020E042E060E070E080E090E07AC1DD205E
S11344A009F0F0C021E042E060E070E080E090E0DC
S11344B00E94D61F9E012D5F3F4F41E0BE016B5FFE
S11344C07F4F81E290EC0E94910B7C01009709F4EC
S11344D0D7C0DC0181E08D93809169068F5F809362
S11344E06906F70181835D010894A11CB11CB70121
S11344F06C5F7F4F49E3C42E45E0D42EA0C0423008
S113450009F43EC0483009F441C0413011F080E064
S113451040C0FE013796AAE1B2E086E00D90019218
S11345208150E1F7FE017996DE01179686E00D9041
S113453001928150E1F7FE013D96DE01599686E035
S11345400D9001928150E1F7FE017396DE011D96F4
S113455086E00D9001928150E1F72F89388D80918A
S11345602A0282FD03C080E090E013C090E02C5D3D
S1134570354009F491E081E09827892F992709C0F3
S113458080912A0286958695869502C080912A029A
S11345908170882309F450C0FB0141938F013F01CE
S11345A00894611C711C2D813E814230D1F0483049
S11345B0D9F1413009F040C0CB01049628173907DE
S11345C0D8F180912B0290912C02892F9927818315
S11345D080912B02F301818382E090E0680E791EC2
S11345E023C0C30101962817390730F1809154067E
S11345F090915506A0915606B0915706F301838316
S1134600292F3A2F4B2F552722839D0144275527C5
S113461021838B2F9927AA27BB27F801818336E0B2
S1134620632E712C660E771E6114710429F0862D99
S1134630861BF8018083B3010894C11CD11CF601C8
S11346404081442309F05BCFCB018E199F09292FA8
S11346503327F50120838183AE014F5F5F4F8B8148
S11346609C810E94C91A9927D82E882359F48981DC
S11346709A81009739F0909341058093400544C096
S113468005E0D02E60912F027091300280913102AA
S1134690909132020E94551990C0DD2009F092C019
S11346A09E012B5F3F4F41E0BE016D5F7F4F81E272
S11346B090EC0E94910BFC01009709F4BEC0DC0150
S11346C086E08D93809137058F5F809337058183D2
S11346D09D012F5F3F4FFD01118282E0F90181832B
S11346E02E5F3F4FAE014F5F5F4FB9018D819E81B9
S11346F00E94C91A9927D82E882309F05EC089819F
S11347009A81009709F459C09093E2058093E105DA
S113471011E0912E52C0DD20A9F480917D0B90917F
S11347207E0B0E946D179927D82E882359F4809107
S11347307D0B90917E0B9093E2058093E105B1E0AF
S11347409B2E0EC010924105109240051092E20576
S11347501092E10580917D0B90917E0B0E94FD19D2
S113476010927E0B10927D0B23C06091B602709163
S1134770B70280911E0690911F06F0E0EF16F0E05C
S1134780FF06F0E10F07F0E01F0731F421E040914C
S113479036050E94D61F11C020E042E00E94D61FB9
S11347A007C060E070E080E090E00E94CB1D05C08F
S11347B0E114F1040105110529F0DD2019F4992013
S11347C019F41BCD992021F08FE08093F10538C0B6
S11347D0DD2019F48091930202C0809192028093AB
S11347E0F10510E081E090E00090F10502C0880F2F
S11347F0991F0A94E2F7807F9170892B29F411E0C4
S113480010924105109240051092B7021092B60220
S113481010921F0610921E0680917D0B90917E0BC4
S1134820009711F00E94FD1910927E0B10927D0BDF
S1134830112331F00E94701003C0A5E0DA2EC2CF1C
S11348408D2D99276E960FB6F894DEBF0FBECDBF9F
S1134850DF91CF911F910F91FF90EF90DF90CF9058
S1134860BF90AF909F907F906F9008950E94271201
S1134870873019F487E090E008950E94E120992799
S11348800895CF93DF93CDB7DEB727970FB6F8948B
S1134890DEBF0FBECDBF85E08D837A8369835C83E1
S11348A04B833F832E83BE016F5F7F4F88E090E090
S11348B00E943624992727960FB6F894DEBF0FBEC0
S11348C0CDBFDF91CF910895CF93DF93CDB7DEB7FE
S11348D025970FB6F894DEBF0FBECDBF982F8091F9
S11348E06906861719F080E090E00DC09D835A8315
S11348F049833C832B83BE016F5F7F4F87E090E049
S11349000E943624992725960FB6F894DEBF0FBE71
S1134910CDBFDF91CF91089580916A06823059F41A
S113492080911105882361F560E070E080E090E0FB
S11349300E9436240895882319F58FB7F89499278F
S11349401092DC031092DB0310923A06109239069F
S11349508FBF8091C900877F8093C9008091C9006F
S11349608F7E8093C9008FEF80930E028091110592
S1134970882331F460E070E081E090E00E94362406
S11349800895FF920F931F93CF93DF93F82EEB01BB
S11349908FB7F894282F332780915C02833021F05D
S11349A02FBF8FEF90E004C0809112022FBF992790
S11349B0082F8FB7F894182F80915C02833091F5FB
S11349C080911202801771F58091100220E030E08E
S11349D08F3F11F421E030E0232BF9F48F3F19F4D9
S11349E02FEF30E00EC0282F3327F901EB51FC4F95
S11349F08081809310028F3F11F4809311028FEF16
S1134A0080832093FA048FEF8093120281E08093D5
S1134A105C0285E00E94E60105C081E080931202F9
S1134A2010925C021FBF002309F062C0FF2009F04E
S1134A305FC080916306882309F03BC0C051DE400B
S1134A4008F056C00FB7F89480E00E9438157598A6
S1134A5080E593EC0E948B0510E02FB7F894332780
S1134A608EB190E289278EB92FBF2FB7F8943327E0
S1134A708EB190E489278EB92FBF80E593EC0E9414
S1134A808B051F5F143049F780E00E9438158FEFC3
S1134A9080936400809365008093630083B7816092
S1134AA083BF889583B78E7F83BF802F99278FBF5D
S1134AB01FC08130E9F4C158DC40D0F08FB7F894BE
S1134AC080E00E943815749880E593EC0E948B0571
S1134AD02FB7F89433278EB190E189278EB92FBF71
S1134AE02FB7F89433278EB180588EB92FBFECCFEF
S1134AF0DF91CF911F910F91FF9008959F92AF92F4
S1134B00BF92CF92DF92EF92FF920F931F935B01BC
S1134B106C019090790591FE20C02091710530912F
S1134B2072054091730550917405E0907505F090FD
S1134B3076050091770510917805DC01CB01821B85
S1134B40930BA40BB50B8E159F05A007B10728F096
S1134B50E1E7F5E060E070E022C0EAE7F5E090907C
S1134B60820591FEA5C020917A0530917B05409184
S1134B707C0550917D05E0907E05F0907F050091C5
S1134B80800510918105A21AB30AC40AD50AAE148D
S1134B90BF04C006D10608F48BC061E070E090FE4B
S1134BA004C080858D7F808708C02E0D3F1D401F67
S1134BB0511F2083318342835383662321F0613064
S1134BC009F076C01AC0559B0FC055980E940D027B
S1134BD0AB01BC01A1E0EA2E01E010E020E030E0EE
S1134BE080E00E94980A64C04D9B02C061E001C04D
S1134BF060E080E00E9429185BC08FB7F894282FEA
S1134C003327122F80915B02882381F581E0809302
S1134C105B02109238062FBF2FB7F8943327809188
S1134C207A00806880937A008FEF80930E022FBF02
S1134C308FB7F894082F1127902F80910F0281309D
S1134C4099F480915B02813021F482E00E94E601B4
S1134C5009C0823049F48091380680930F0283E0C2
S1134C6080935B020FBF22C09FBF20C08091380693
S1134C70882311F42FBF1AC080E00E944E158823A8
S1134C8019F085E090E007C0809170058160809301
S1134C90700580E090E01FBF8093750B882341F07E
S1134CA0809860E070E00E94C12402C01092750BED
S1134CB081E00E94E6011F910F91FF90EF90DF9039
S1134CC0CF90BF90AF909F900895EF92FF920F9373
S1134CD01F938091DE03882361F520914C06309167
S1134CE04D0640914E0650914F06EFB7F894FF27BA
S1134CF060911A0570911B0580911C0590911D050A
S1134D00E0901505F090160500911705109118050F
S1134D106E0D7F1D801F911FEFBF20934C063093B3
S1134D204D0640934E0650934F061092DE030E94A8
S1134D30E6150E940D020E947E251F910F91FF909F
S1134D40EF900895AF92BF92CF92DF92EF92FF92CD
S1134D500F931F930E940D025B016C018091DF0091
S1134D608E7F8093DF008FEF80930E028091790510
S1134D7081FF28C08091710590917205A0917305FF
S1134D80B0917405A6019501281B390B4A0B5B0BE6
S1134D90DA01C901209175053091760540917705B6
S1134DA050917805281B390B4A0B5B0B2F3F8FEF73
S1134DB038078FEF48078FE7580721F079018A01F8
S1134DC061E009C0BFEFEB2EBFEFFB2EBFEF0B2F4F
S1134DD0BFE71B2F60E08091820581FF24C0809192
S1134DE07A0590917B05A0917C05B0917D05A60183
S1134DF09501281B390B4A0B5B0BDA01C901209181
S1134E007E0530917F054091800550918105281BD6
S1134E10390B4A0B5B0B2E153F05400751071CF459
S1134E2079018A0102C06623D9F01E141F041006FA
S1134E3011062CF0C601B5010E947E2511C0E09236
S1134E404C06F0924D0600934E0610934F0681E0F7
S1134E508093DE03A8019701C601B5010E94E615FF
S1134E601F910F91FF90EF90DF90CF90BF90AF9084
S1134E7008954F925F926F927F928F929F92AF921A
S1134E80BF92CF92DF92EF92FF920F931F93CF9333
S1134E90DF93CDB7DEB761970FB6F894DEBF0FBED0
S1134EA0CDBFE82FFF27EB31F10510F00C940C3146
S1134EB0E057FF4FEE0FFF1F0590F491E02D09948A
S1134EC00E9465260C940C310E94A2260C940C318D
S1134ED02FB7F89433278091380680930F0283E02C
S1134EE080935B022FBF80910F02882311F00C94F2
S1134EF00C3181E080932C0510925E060E94DD0542
S1134F000C940C310E9462150C940C318091750B39
S1134F108823F1F46091A7027091A8028827992749
S1134F202CED35E040E050E00E947E33FAE09695A7
S1134F30879577956795FA95D1F726E030E040E0BC
S1134F4050E00E947E3370933F0560933E0504C099
S1134F5010923F0510923E0560913E0570913F0509
S1134F608091750B0E94C1240C940C312FB7F894D6
S1134F7033278091FA048093120283E080935C02C9
S1134F802FBF8898809A0E940D02AB01BC01E1E01A
S1134F90EE2E01E010E020E030E081E00E94980A6B
S1134FA00C940C310E9420159927882311F40C9439
S1134FB00C31893011F40C940C3186E00C940A31D4
S1134FC00E94E5149927882311F40C940C3189303C
S1134FD011F40C940C3187E00C940A318FB7F894D7
S1134FE01092710B2091F00540E0283009F441E063
S1134FF030E0293009F431E0442311F4332351F033
S11350001092F005E0916F05FF27EE0FFF1FE05EA1
S1135010FA4F108299278FBF442311F4332331F1BF
S11350209FB7F89480915B068F5F80935B068091B5
S11350301905833479F42091430580914205821740
S113504079F0822F8F5F80934305863048F0109269
S1135050430506C0A0E0442309F4A1E071E002C0C6
S1135060A0E070E0892F99278FBF06C0222311F09A
S1135070FF246DC0A0E070E08FB7F89499272091C9
S11350805D028FBF222341F08FB7F89499272AE05D
S11350902093F0058FBF42C08FB7F8949927609191
S11350A02005409122058FBF8FB7F894282F33270E
S11350B050E09091420580914305981709F451E01E
S11350C02FBF552341F5662331F55FB7F89482E08D
S11350D0809320058FB7F894282F332740E09091D0
S11350E0420580914305981709F441E02FBF4423FA
S11350F011F080E006C0E0914305FF27EE5BFA4F14
S113510082818093210583E48093190510926F05B1
S1135110852F99270EC04150423010F0FF240CC057
S11351208FB7F894992725E42093190521E020935B
S11351306F058FBF51E0F52E772349F08FB7F894B0
S11351409927A09366028FBF8CE00E94E6018FB777
S1135150F894082F11278091F0058A3029F40E94D1
S113516073070FBF0C940C310FBFFF2011F40C9484
S11351700C312FB7F894332710927A0B1092790BD5
S11351801092130581E08093F0052FBF0E946209FD
S1135190882311F40C940C318FB7F894992729E0E3
S11351A02093F0058FBFD1C00E9402158FB7F894E9
S11351B099271092F0051092F2030C9403318BE0BE
S11351C00C940A318091C900877F8093C900809133
S11351D0C9008F7E8093C9008FEF80930E020C94D8
S11351E00C3110926302109262028FB7F8949927DF
S11351F0209166028FBF80916702811123E0809124
S11352006802882311F40C940C31823711F00C9449
S11352100C31222309F0DDC68FB7F89488E190E0C1
S113522029E00FB6F894A895809360000FBE2093F0
S11352306000FFCF8FB7F894992720916A020091FC
S11352406B0210916C0230916D02F090B8028FBF26
S11352502223B1F02237A1F4333091F4D8018C9198
S1135260823571F4F8018181833551F4828184356A
S113527039F41093B2020093B1028EE00E94E60169
S11352808FB7F894EF2DFF27EE0FFF1FEC5EFD4F55
S11352901183008320915E02FF2011F02B7F01C057
S11352A02D7F20935E021092690299270C9403319A
S11352B0E091B102F091B2028AE5808382E48183B5
S11352C080E582834091B1025091B20280916202E2
S11352D090916302892B09F07CC62FB7F894332789
S11352E0109265021092660250936102409360022C
S11352F082E090E0909363028093620242E74093DD
S113530068021092670283E0809364022FBF8FB714
S1135310F894282F33278091F0058A3011F42FBF99
S113532017C02FBF9FB7F89480912205882311F0EE
S113533020E006C081E0809322054093230521E00C
S1135340892F99278FBF222319F00E945F0764C712
S113535010926302109262023CC60E948C245CC7C5
S11353600E94211E59C78FB7F894282F33278091A4
S1135370E405882311F42FBF4FC72FBFA0917A02F1
S1135380B0917B02FD0181918F01E82EFF24E0FCA6
S113539008C0FD018181FE2CEE24E80EF11C0F5F94
S11353A01F4FFFE4EF16F0E4FF06B1F020E5E2162C
S11353B020E4F20628F487E5E816F10479F451C6EE
S11353C097E5E91690E8F90609F467C6A1E2EA163A
S11353D0A0ECFA0619F4FFC581E057C240917C02A3
S11353E050917D028091F105893009F04DC242C28D
S11353F01C821B829E012F5F3F4F41E0BE016D5F07
S11354007F4F87E590E80E94910B9C01009719F467
S113541085E090E03AC2DC0187E08D938091E70358
S1135420F9018183AD014F5F5F4F8F5F8093E70385
S1135430B9016C5F7F4FD80104C08D91FB0181934A
S1135440BF018B819C816817790718F4A815B905E9
S1135450A0F3CB01821B930B292F3327DA012C9362
S1135460FA01818389819A810E940B1A9927282F36
S1135470882329F489819A810E946D17282F822F0D
S1135480992703C2D6015D91F601F180FEEFFF0E6C
S11354906D010894C11CD11C513011F044E001C0CD
S11354A042E0E41638F485010C5F1F4F1D870C871A
S11354B0E42E03C04E1509F094C698012E5F3F4FA9
S11354C089819A818217930708F4BDC5D8015D9339
S11354D0433069F4513009F08AC68D010F5F1F4FC4
S11354E009F485C6802F8A1B8F5F8C937AC622E0CD
S11354F0F20EF801F182FEEFFF0E9D012F5F3F4F88
S11355004F2D55278901040F151F89819A81801712
S1135510910708F498C5B601C9010E94C83361C651
S1135520C60102968816990608F0ACCF98012A198C
S11355303B09D501ED92F5017182832F9927FD0175
S113554081832283B8018B819C810E940B1A992745
S1135550F82E882309F021C11A86F2E0EF1611F41F
S113556081E08A87EB861F870E878B819C81998BCC
S1135570888BBE01665F7F4F85E090E00E94CB1D63
S113558008C19987DE82CD8298868F82BE016B5FC7
S11355907F4F86E090E00E94CB1D5BC186E0D7017F
S11355A08C93F701718284010C191D090C5F1F4F44
S11355B029813A81C701800F911F2817390718F4F0
S11355C089010E191F09A80144505040B601C701B2
S11355D004960E94BF33812F9927F70182830383A6
S11355E00E0D1F1DB8018B819C810E940B1A9927F7
S11355F0282F882309F012C12B813C81A401B60114
S113560085E00E94D61D14C120E030E0A401B6015B
S113561086E00E94D61D1DC120E030E0A501B8013E
S113562080E090E00E94381A23C1D6016D91F60102
S1135630F180FEEFFF0E6D010894C11CD11C623095
S113564039F0683029F0613009F4BBC544E00FC07B
S113565082E00CC080912B0290912C028417950754
S113566019F083E090E002C082E090E0482FE41655
S113567038F484010C5F1F4F1D870C87E42E03C090
S11356804E1509F0B1C598012E5F3F4F89819A816B
S11356908217930708F4D7C4D8016D939D012F5F37
S11356A03F4F433089F5890129813A81623099F06D
S11356B0683009F1613009F09DC5CD0103962817C2
S11356C0390708F497C585E0FD018183F80111824B
S11356D00E5F1F4F10C0C80101962817390708F440
S11356E089C5FD0114821382F8011182FD01118222
S11356F08D010B5F1F4F0115110509F47DC5802F26
S11357008A1B8F5F8C9370C5F2E0FF0EF801F18263
S1135710FEEFFF0E4F2D55278901040F151F8981B8
S11357209A818017910708F48EC4B601C9010E94BA
S1135730C8335AC5C6010296A816B90608F075CF33
S1135740980128193909D401ED92F4017182832F4B
S11357509927FD0181832283B8018B819C810E945A
S11357600B1A9927F82E8823C1F41A86F2E0EF1653
S113577011F481E08A87EB861F870E878B819C81D9
S1135780998B888BBE01665F7F4F85E090E00E9415
S11357903624F82E27E0821721F48B819C810E9405
S11357A0FD198F2D992764C09987DE82CD82B88632
S11357B0AF82BE016B5F7F4F86E090E00E9436248B
S11357C048C086E0D7018C93F701718285010C19DA
S11357D01D090C5F1F4F29813A81C701800F911F5A
S11357E02817390718F489010E191F09A801445014
S11357F05040B601C70104960E94BF33812F9927F8
S1135800F701828303830E0D1F1DB8018B819C81D8
S11358100E940B1A9927282F882319F0822F992781
S113582027C02B813C81A501B60185E00E9441245B
S1135830182F873021F48B819C810E94FD19812FC0
S1135840992716C020E030E0A501B60186E00E9449
S1135850412499270DC08FB7F894282F332710922D
S1135860E305CD2819F081E08093E3052FBF80E0A4
S113587099270BC0E114F10439F020E030E0B801BD
S1135880C7010E94381A01C086E0873009F4C1C4F8
S113589040917A0250917B028FB7F894682F20913F
S11358A0580230915902EDEFF4E001C03596E21749
S11358B0F30730F48081918184179507B9F702C00A
S11358C06FBF06C084E084836FBF83E10E94E6015A
S11358D01FB7F8944091E40541504093E4054423F4
S11358E071F05527440F551F440F551F6EE772E0A2
S11358F08AE792E00E94C83381E10E94E601812F89
S1135900992781C48FB7F89499271092370610927B
S11359103606109253061092520675C4FFB6F894D8
S11359204091F305442339F42091580230915902EF
S1135930EDEFF4E02AC000918A0210918B024150ED
S11359404093F305442349F05527440F551F6CE851
S113595072E08AE892E00E94C83383E0F80184830D
S11359604081518162817381641B750B00E010E0FA
S113597015C0008111811482138212821182108257
S113598009C084818430A9F33596E217F307C8F37C
S113599000E010E040E050E060E070E08F2D9927D7
S11359A08FBF4115510511F480E01BC02FB7F89447
S11359B033278091E405E82FFF27EE0FFF1FEE0F3A
S11359C0FF1FE658FD4F8F5F8093E40551834083AA
S11359D0460F571F538342832FBF81E10E94E60184
S11359E081E00115110531F0B80181E090E00E94D9
S11359F0620C03C0882309F40FC483E10BC4E09054
S1135A00E803F090E9038FB7F8949927609134067E
S1135A1060902202709023028090240290902502CC
S1135A208FBFB090E003662309F0A8C0F2E0BF1670
S1135A3009F4AAC0C090F804D090F90403C00894F3
S1135A40E11CF11CEC14FD0440F4B401A301D701E2
S1135A508C910E94CE14882391F30091E803109155
S1135A60E903E016F106F9F40C151D05D0F5F8016B
S1135A70608180914A0590914B050E945510909346
S1135A804B0580934A058DE780932505D8018D91B8
S1135A9090E289278093260562E070E0B093E903E1
S1135AA0A093E803D3C20C151D05D8F46701C01AEE
S1135AB0D10A0FC06191F093E903E093E803809168
S1135AC04A0590914B050E94551090934B05809385
S1135AD04A05E091E803F091E903EE15FF0550F360
S1135AE044C080914A0590914B0580959095909380
S1135AF04B0580934A0595E2E92E95E0F92EAA24F8
S1135B00BB2400914A0510914B050A2C02C016953E
S1135B1007950A94E2F7D02EB401A301802F0E94C6
S1135B20CE1497012F5F3F4F882359F08DE7F7017B
S1135B30808380E2D826D18279010894E11CF11C8B
S1135B4003C0D7010C937901E8E0F0E0AE0EBF1E6C
S1135B50F0E1AF16B104A9F68EE7D7018D93BD012C
S1135B606552754082E0B82E71C20115110509F421
S1135B7070C2B601C8010E941209682F80E0662332
S1135B8019F4882309F465C21092E0038091EC05AE
S1135B909091ED05009709F43FC341E00E94691913
S1135BA01092ED051092EC0580E134C30E94E120CF
S1135BB033C31B828091BB039091BC031816190652
S1135BC014F481E08B83BE016D5F7F4F84E090E02D
S1135BD00E942712882309F414C361E070E080E076
S1135BE090E00E94551918C38FB7F8949927282F6D
S1135BF0A0903906B0903A06A114B10409F403C385
S1135C008090DB039090DC038114910439F4B0920A
S1135C10DC03A092DB03AA24BB240DC0A814B9049E
S1135C2010F0250108C007EF402E04E0502E17EFB6
S1135C30A12E13E0B12E2FBF8114910409F4ECC2FC
S1135C408414950408F0E8C287E10E94E601340157
S1135C50F301F1903F018FB7F894282F3327C22E18
S1135C60FFE1FF15B0F08091260290912702A091E8
S1135C702802B09129020F2C04C0B695A7959795D8
S1135C8087950A94D2F781709070892B11F02FBFF9
S1135C9012C18091760B843011F0DF2C0EC08F2D51
S1135CA08D57823018F41092760B27C0B0E2DB2EA9
S1135CB0DF24809135068093760B8091760B8823C0
S1135CC0E1F02DE7F21621F48093350684E03FC01D
S1135CD0823009F43FC0833028F4882371F0813086
S1135CE039F41FC0833009F44CC0843009F4C9C0AE
