S01C00006275696C642F756370726F746F6E622F6D61696E2E7372656319
S11300000C9493010C94B2010C94B2010C94B201BF
S11300100C94B2010C94B2010C94B2010C94B20190
S11300200C94B2010C948A0A0C94B2010C94B2019F
S11300300C94B2010C94B2010C94B2010C94B20170
S11300400C9488040C946A040C9474040C947E0438
S11300500C9459040C94B2010C94B2010C94B201A6
S11300600C94C6010C9487060C94B2010C945F079F
S11300700C94B2010C94B2010C94B2010C94B20130
S11300800C94B2010C94B2010C94B2010C94B20120
S11300900C9478080C94B2010C948A080C94B20164
S11300A00C94B2010C94B2010C94B2010C94B20100
S11300B00C94B2010C94B2010C94B2010C94B201F0
S11300C00C94B2010C94B2010C94B2010C94B201E0
S11300D00C94B2010C94B2010C94B2010C94B201D0
S11300E00C94B2010C94B2010C94B2010C94B201C0
S11300F00C94B2010C94B2010C94B2010C94B201B0
S11301000C94B2010C947A020C94D6030C9412044D
S11301100C9469020C94B2010C94B2010C94B201D7
S113012000002110422063308440A550C660E7706F
S1130130088129914AA16BB18CC1ADD1CEE1EFF117
S11301403112100273325222B5529442F772D662BF
S1130150399318837BB35AA3BDD39CC3FFF3DEE367
S11301606224433420040114E664C774A44485540F
S11301706AA54BB528850995EEE5CFF5ACC58DD5B7
S11301805336722611163006D776F6669556B4465F
S11301905BB77AA719973887DFF7FEE79DD7BCC707
S11301A0C448E5588668A7784008611802282338AF
S11301B0CCC9EDD98EE9AFF9488969990AA92BB957
S11301C0F55AD44AB77A966A711A500A333A122AFF
S11301D0FDDBDCCBBFFB9EEB799B588B3BBB1AABA7
S11301E0A66C877CE44CC55C222C033C600C411C4F
S11301F0AEED8FFDECCDCDDD2AAD0BBD688D499DF7
S1130200977EB66ED55EF44E133E322E511E700E9E
S11302109FFFBEEFDDDFFCCF1BBF3AAF599F788F46
S11302208891A981CAB1EBA10CD12DC14EF16FE126
S11302308010A100C230E32004502540467067605E
S1130240B9839893FBA3DAB33DC31CD37FE35EF376
S1130250B1029012F322D2323542145277625672AE
S1130260EAB5CBA5A89589856EF54FE52CD50DC5C6
S1130270E234C324A01481046674476424540544FE
S1130280DBA7FAB79987B8975FE77EF71DC73CD716
S1130290D326F2369106B01657667676154634564E
S11302A04CD96DC90EF92FE9C899E9898AB9ABA966
S11302B04458654806782768C018E1088238A3289E
S11302C07DCB5CDB3FEB1EFBF98BD89BBBAB9ABBB6
S11302D0754A545A376A167AF10AD01AB32A923AEE
S11302E02EFD0FED6CDD4DCDAABD8BADE89DC98D06
S11302F0267C076C645C454CA23C832CE01CC10C3E
S11303001FEF3EFF5DCF7CDF9BAFBABFD98FF89F55
S1130310176E367E554E745E932EB23ED10EF01E8D
S113032000020E060C0411241FBECFEFD1E4DEBF81
S1130330CDBF12E0A0E0B2E0E4E9F0E200E00BBFE0
S113034002C007900D92AC30B107D9F713E0ACE0CE
S1130350B2E001C01D92A131B107E1F70E94060E7F
S11303600C9449100C9400008FB7F89499270895C1
S11303708FBF0895882319F08CB5806802C08CB5AE
S11303808F778CBD8FEF8093000208951F920F9298
S11303900FB60F9211240F931F932F933F934F93F4
S11303A05F936F937F938F939F93AF93BF93CF93F9
S11303B0DF93EF93FF932EB5E0913402F091350271
S11303C0309739F08091F5029091F602E80FF91F09
S11303D020838091F5029091F60201969093F602A3
S11303E08093F50280E00E94BA01C091F502D09199
S11303F0F6022091F3023091F402C217D30708F0F9
S113040042C0009137021091380240913402509159
S11304103502CE010A962817390708F4C901DA0112
S1130420AC0FBD1FF801EC0FFD1F9C0121503040A3
S113043015C00115110531F080818EBD0DB407FE84
S1130440FDCF04C01EBC0DB407FEFDCF8EB5411513
S1130450510509F08C93219611963196C217D30752
S113046040F381E00E94BA010115110531F00C0F2F
S11304701D1FF80180818EBD01C01EBCD093F60201
S1130480C093F50211C010923502109234021092FA
S11304903802109237021092F4021092F302109272
S11304A0F6021092F5028EB5FF91EF91DF91CF9194
S11304B0BF91AF919F918F917F916F915F914F9178
S11304C03F912F911F910F910F900FBE0F901F908E
S11304D018951F920F920FB60F9211248F9380914B
S11304E03D028F5F80933D028F910F900FBE0F905E
S11304F01F9018951F920F920FB60F9211248F938D
S1130500EF93FF93EFEDF0E080818E7F80838FEF98
S113051080930002FF91EF918F910F900FBE0F9087
S11305201F901895282F9FB7F894E82FFF27EE5DAA
S1130530FD4F80818F3F81F4E0910C03E21771F449
S11305400BC02093050304C0FF27EE5DFD4F2083FD
S113055020930C0320E007C025E005C0809105032B
S11305608F3F91F7EECF892F99278FBF822F99273D
S11305700895EF92FF920F931F937FB7F8946091C1
S11305803D022091E100822F2091E200922F2091E0
S1130590E300A22F2091E400B22F9C01AD018091D1
S11305A0E00083FF0FC06F5F8091E100E82E80912F
S11305B0E200F82E8091E300082F8091E400182FC8
S11305C0A8019701872F99278FBF77278827992715
S11305D0FAE1660F771F881F991FFA95D1F7E6E0B5
S11305E05695479537952795EA95D1F7622B732B46
S11305F0842B952B1F910F91FF90EF9008956F928C
S11306007F928F929F92AF92BF92CF92DF92EF929E
S1130610FF920F931F930E94B9027B018C012091DA
S11306204402309145024091460250914702809124
S11306303F0290914002A0914102B0914202820F88
S1130640931FA41FB51FE216F3060407150730F025
S113065082179307A407B50758F005C082179307BC
S1130660A407B507E0F5E816F9060A071B07B8F56D
S11306709C01AD012E193F09400B510B213060E064
S1130680360760E0460762E0560768F180E090E0D4
S1130690A0E0B2E0E80EF91E0A1F1B1FE09244021C
S11306A0F0924502009346021093470280E090E0E6
S11306B0A0E0BEEFE80EF91E0A1F1B1F20503040B9
S11306C04040524020933F02309340024093410205
S11306D05093420220E030E040E052E014C020E0B9
S11306E030E040E050E08093440290934502A093B0
S11306F04602B093470210923F02109240021092B9
S113070041021092420239014A01B6E0660C771C9C
S1130710881C991CBA95D1F7A6E0EE0CFF1C001FAB
S1130720111FAA95D1F78091E100A82E8091E200D3
S1130730B82E8091E300C82E8091E400D82EA60143
S113074095012E5F3F4F4F4F5F4FDA01C9018E195C
S11307509F09A00BB10B86159705A805B90530F4C0
S1130760A8019701260D371D481D591D5093F4000B
S11307704093F3003093F2002093F10082E08093E1
S1130780E0008091DF0082608093DF008FEF809330
S113079000021F910F91FF90EF90DF90CF90BF90D8
S11307A0AF909F908F907F906F9008951F920F92BB
S11307B00FB60F9211242F933F934F935F936F9330
S11307C07F938F939F93AF93BF93EF93FF93809106
S11307D0DF008D7F8093DF008FEF80930002809194
S11307E03F0290914002A0914102B09142020097D1
S11307F0A105B10521F48BE00E94920202C00E947F
S1130800FF02FF91EF91BF91AF919F918F917F91E3
S11308106F915F914F913F912F910F900FBE0F9069
S11308201F9018951F920F920FB60F9211240F90DC
S11308300FBE0F901F90189521E030E002C0220FE8
S1130840331F8A95E2F780914E02822B80934E02E9
S1130850EBE6F0E08081282B2083E8E6F0E080815D
S11308608160808380E090E0089521E030E002C060
S1130870220F331F8A95E2F7922F909580914E02B2
S1130880892380934E02EBE6F0E08081282B2083BD
S1130890E8E6F0E080818160808380E090E0089564
S11308A08091E1008091E2008091E3008091E40076
S11308B008951F920F920FB60F9211248F93809177
S11308C057028F5F809357028F910F900FBE0F9046
S11308D01F9018951F920F920FB60F9211240F902C
S11308E00FBE0F901F9018951F920F920FB60F9284
S11308F011240F900FBE0F901F9018951F920F9206
S11309000FB60F9211240F900FBE0F901F901895E1
S11309101F920F920FB60F9211240F900FBE0F90DB
S11309201F901895E0E2F1E06927660FF11DE60FCC
S1130930F11DC895982F802D3196C895902508955E
S1130940982F80911902882389F5992379F531E04C
S1130950309319028091040280931A0220910E02AE
S1130960822F8170809321028091090290910A0262
S113097090931C0280931B0280910F0280931D02AE
S113098032273170267EE32FFF27EE0FFF1FEB5F28
S1130990FD4F8081918190930A0280930902232B59
S11309A020930E0289E00E949202089580910E0223
S11309B080FF02C08B7F01C08D7F80930E0208955B
S11309C01F931FB7F89480910B03882341F484E0AC
S11309D00E949202882319F481E080930B03812FF3
S11309E099278FBF1F9108959FB7F8948091F002C3
S11309F08A3011F020E006C020E080913602843075
S1130A0009F421E0892F99278FBF222349F086E03A
S1130A100E9492028FB7F894992710920D0206C093
S1130A208FB7F894992721E020930D028FBF089582
S1130A300F931F93082F162F809136028130D9F01F
S1130A40813038F0823009F44AC0833009F028C17B
S1130A5059C0002309F458C11092F8021092F70209
S1130A601092F2021092000310923C02109259026A
S1130A701092580239C1002309F046C180915802EE
S1130A80909159020E9492049093590280935802C3
S1130A9082E08093360210930003143409F000C1FD
S1130AA025C18695869503C080910E028695817036
S1130AB009F0F6C080910E02992311F0846001C000
S1130AC0826080930E0280910E02877E88608093FC
S1130AD00E0210920F028FEF8093040215C10023BF
S1130AE009F0DEC060933C02809158029091590253
S1130AF00E949204909359028093580283E0809359
S1130B00360202C18091F2028F3F09F4C9C000236A
S1130B1009F461C0823008F4C3C0E091F702EE2307
S1130B2009F4EBC04E2F4150E42FFF27E950FD4F4D
S1130B3082819927382F2227442311F4E2E002C04E
S1130B40E42FE150FF27E950FD4F82819927282B9C
S1130B50392B80915802909159022817390709F0CE
S1130B609FC080E00E94A00430913C0280914F021B
S1130B7020915002982F9F5F963008F090E09217D2
S1130B8071F0E82FFF27E15BFD4F32838F5F809385
S1130B904F02863010F010924F020E94E00410922F
S1130BA0F8021092F70294E0909336021092F20247
S1130BB01092000310923C021092590210925802B3
S1130BC080911E028D7F80931E0280910D028823E6
S1130BD009F49AC084C0823008F44EC0E091F8024F
S1130BE0FF27E950FD4F8281482F5527342F20914C
S1130BF00E02822F8695869586958370992781307B
S1130C00910519F00297F9F40EC0277E2061209314
S1130C100E02442311F485E001C080E080930F02AA
S1130C203093040210C080910F028B3360F4E09182
S1130C300902F0910A02E80FF11D408380910F022E
S1130C408F5F80930F028091F802E82FFF27E9500D
S1130C50FD4F62818F5F8093F802833010F0109211
S1130C60F802772780915802909159020E949204C9
S1130C7090935902809358028091F702E82FFF273E
S1130C80E950FD4F12838F5F8093F702833010F099
S1130C901092F7028091F2028F5F8093F20234C0C7
S1130CA01092F8021092F70214E010933602109298
S1130CB0F2021092000310923C0210925902109218
S1130CC0580280911E028D7F80931E0281E00E9453
S1130CD0A00480910D02882329F0109336020E940B
S1130CE0F40412C0002381F081E009CF80910E0248
S1130CF0982F917080FDD5CED7CE8091FB02992795
S1130D00382F222742E01CCF1F910F9108951F9284
S1130D100F920FB60F9211242F933F934F935F932B
S1130D206F937F938F939F93AF93BF93EF93FF93AF
S1130D308091C00087FF42C06091C600E0915A02D2
S1130D40F0915B02309719F18091090390910A03A5
S1130D50E80FF91F6083019690930A0380930903B7
S1130D6020910F03309110038217930738F11092EA
S1130D705B0210925A028091EF028330F9F0809165
S1130D80C1008F778093C1001092EF0217C06E37B5
S1130D9019F460E081E010C080911E026D3721F4E7
S1130DA0826080931E020AC081FF05C08D7F8093FC
S1130DB01E0280E2682780E00E941805FF91EF91EF
S1130DC0BF91AF919F918F917F916F915F914F915F
S1130DD03F912F910F900FBE0F901F9018952FB732
S1130DE0F89433278093C600E0ECF0E080818064BF
S1130DF080832FBF0895FC016115710519F481E00A
S1130E0090E008958091480290914902892B19F04D
S1130E1085E090E008957093FF026093FE02F093E2
S1130E204902E093480210923A021092390281E09A
S1130E3080933B028091C00080648093C0008091C5
S1130E40C10080648093C100808121E030E0309350
S1130E503A02209339020E94EF0680E090E0089560
S1130E60982F8D57823068F480911E0281608093A0
S1130E701E0280E289278093F1028DE780932F027E
S1130E8002C090932F0261E070E08FE292E00E9432
S1130E90FB06992708958FB7F894992720911E028D
S1130EA02E7F20931E022EE720932F028FBF61E036
S1130EB070E08FE292E00E94FB06992708957894EF
S1130EC01F920F920FB60F921124FF920F931F934C
S1130ED02F933F934F935F936F937F938F939F933E
S1130EE0AF93BF93CF93DF93EF93FF932091390296
S1130EF030913A028091FE029091FF02281739073F
S1130F0080F4E0914802F0914902E20FF31F8081DE
S1130F102F5F3F4F30933A02209339020E94EF062D
S1130F20D1C0109249021092480210923B02809163
S1130F30C1008F7B8093C100FFB6F89480911E029C
S1130F4080FF0EC08E7F80931E028091F1028093F9
S1130F502F0261E070E08FE292E00E94FB06AFC0D6
S1130F608091F002843009F48CC0853040F48230E2
S1130F7021F18330B8F5813009F09CC00DC0863072
S1130F8009F48DC0863008F483C0873009F48EC01C
S1130F90883009F08FC091C0809143020E943007CD
S1130FA0082F83E08093F0026091430280910D0347
S1130FB090910E030E94920410C0809108030E9435
S1130FC03007082F83E08093F0026091080380913A
S1130FD00D0390910E030E94920490930E0380934C
S1130FE00D0366C0E0915C02FF27EE0FFF1FE55B77
S1130FF0FD4F80810E943007082F10915C02C12FA1
S1131000DD27FE01EE0FFF1FE55BFD4F6081809140
S11310100D0390910E030E94920490930E0380930B
S11310200D0320913E022F5F20933E02113039F5CB
S113103080911502E0911002F0911102E80FF11D68
S1131040E0818F5F8093150290911402981730F419
S113105082E080934C0240E050E002C04E2F5527BE
S1131060DE01AA0FBB1FFD01E65BFD4F80818230CC
S113107031F02F3F21F0A55BBD4F4C9319C084E0A4
S113108012C080910D030E943007082F85E00BC029
S113109080910E030E943007082F86E004C00E944E
S11310A04B07082F87E08093F00202C088E003C05A
S11310B0002329F089E08093F0020E94E0048F2D40
S11310C099278FBFFF91EF91DF91CF91BF91AF919E
S11310D09F918F917F916F915F914F913F912F914C
S11310E01F910F91FF900F900FBE0F901F901895B6
S11310F01F920F920FB60F9211248F938091C80004
S113110087FF02C08091CE008F910F900FBE0F9089
S11311101F90189578941F920F920FB60F92112476
S11311200F900FBE0F901F901895882319F08CB55F
S1131130806402C08CB58F7B8CBD8FEF80930002DE
S1131140089580E00E949508229A2398219A209A73
S11311508CB580618CBD80E00E94BA018CB5877F1C
S11311608CBD8CB58B7F8CBD81E00E9495088DB5BC
S11311708E7F8DBD8CB58C7F81608CBD8FEF80930D
S1131180000208951F93182F80910C02882371F494
S11311900E94A10880910C02882341F481E080938D
S11311A00C02109331020E94920215C0E12FFF2716
S11311B0EE5CFD4F80818F3F89F4E0910202E117DC
S11311C081F40CC01093010204C0FF27EE5CFD4FB4
S11311D010831093020280E090E008C085E090E064
S11311E005C0809101028F3F81F7ECCF1F910895D4
S11311F0809157022091840030918500B09B05C0F6
S11312008F5F2091840030918500992799278695D6
S11312109795882736952795822B932B0895FF92CF
S11312200F931F93CF93DF93EC01FFB6F8940E94C2
S1131230F8088C0180E8C130D80768F0C050D04865
S11312400E94F808801B910BC817D907C8F70C0F28
S11312501D1FC0E0D0E80E94F808801B910BC8173E
S1131260D907C8F78F2D99278FBFDF91CF911F9191
S11312700F91FF9008950F931F930FB7F8941127C0
S11312806093440270934502809346029093470210
S113129020933F0230934002409341025093420214
S11312A00E94FF020FBF1F910F9108959FB7F894FA
S11312B080913602882319F484E080933602892FC2
S11312C099278FBF9FB7F8948091F002882319F46F
S11312D08AE08093F002892F99278FBF0E94F4043B
S11312E080E090E008958FB7F894282F3327922F49
S11312F08091F0028A3041F080913602843021F0EE
S11313002FBF89E090E008959FBF85E00E9492027C
S113131080E090E00895DF92EF92FF920F931F9385
S1131320D82E7A018B010E94B90229E0D29EF001E5
S11313301124E35AFD4F6083718382839383E48293
S1131340F5820683178380858E7F826080878CE098
S11313500E9492021F910F91FF90EF90DF900895E9
S11313600F931F93982F1FB7F89480910C0282302B
S113137091F580910302891771F58091010220E0B3
S113138030E08F3F11F421E030E0232BE9F49FEFAC
S1131390909303028F3F19F42FEF30E00DC0282FF4
S11313A03327F901EE5CFD4F8081809301028F3F6A
S11313B011F49093020290832093310281E0809390
S11313C00C020E94920205C08FEF809303021092D8
S11313D00C0201E001C000E0812F99278FBF1FB7E5
S11313E0F89480910C02882329F40E9495088FEFC9
S11313F080930002812F99278FBF90E0013009F478
S113140091E081E09827892F99271F910F910895E2
S1131410AF92BF92CF92DF92EF92FF920F931F93FE
S1131420CF93DF935B016C01C0E0D0E0EDE5F2E027
S1131430608561FF40C02081318142815381E48015
S1131440F58006811781D601C501821B930BA40B7D
S1131450B50B8E159F05A007B10768F160FF03C0A7
S11314606D7F608708C02E0D3F1D401F511F2083D4
S1131470318342835383C13069F0C13018F0C230E4
S113148001F510C02FB7F89433278BB180588BB96E
S11314902FBF17C08FB7F89499272BB130E42327B7
S11314A02BB907C08FB7F89499272EB134E02327BE
S11314B02EB98FBF06C021963996C330D10509F0E5
S11314C0B7CF8CE00E949202DF91CF911F910F91D0
S11314D0FF90EF90DF90CF90BF90AF9008958091F0
S11314E0EE021D9B0CC08823A1F481E08093EE02E0
S11314F082E00E94920285E00E941C0408958823E1
S113150041F01092EE0283E00E94920285E00E9474
S1131510350408951F920F920FB60F9211242F9342
S11315203F934F935F936F937F938F939F93AF9367
S1131530BF93CF93DF93EF93FF9320916B0093B10D
S113154080914E0289278223C82FDD27C4FF02C061
S11315500E945004C5FF02C00E946F0AFF91EF91E0
S1131560DF91CF91BF91AF919F918F917F916F91B7
S11315705F914F913F912F910F900FBE0F901F904D
S11315801895AF92BF92CF92DF92EF92FF920F9392
S11315901F93CF93DF93863009F4B2C1873090F460
S11315A0823009F48CC0833030F4882309F181300F
S11315B009F004C331C0843009F497C0853008F0C1
S11315C076C188C0893009F4DAC18A3038F48730AA
S11315D009F498C1883009F0F1C2A2C18B3009F432
S11315E05EC28B3008F406C28C3009F0E7C28AC2AE
S11315F08FB7F89499271092350210923402109202
S11316003802109237021092F4021092F3021092F0
S1131610F6021092F50272C18FB7F89499272091BF
S113162031022093030222E020930C028FBF8091A9
S11316300302882321F0813009F0C0C20DC0209A32
S1131640289889EB8EBD0DB407FEFDCF8EB5289A80
S113165080E00E94B009B2C28EEF91E00E940F09AF
S1131660809A9D9A9A9A889AA598A29886E090E082
S11316700E940F09A59A889883EC8EBD0DB407FECD
S1131680FDCF8EB51EBC0DB407FEFDCF8EB5889A76
S1131690889882EC8EBD0DB407FEFDCF8EB588E030
S11316A08EBD0DB407FEFDCF8EB5889A81E00E94F1
S11316B0B0098EEF91E00E940F09A29A7FC20E94A6
S11316C073099927882309F479C2893009F476C209
S11316D082E072C20E9456099927882309F46EC2D7
S11316E0893009F46BC283E067C28FB7F894109213
S11316F00B032091F00240E0283009F441E030E08F
S1131700293009F431E0442311F4332351F01092C9
S1131710F002E0915C02FF27EE0FFF1FE65BFD4F36
S1131720108299278FBF442311F4332331F19FB7DB
S1131730F894809108038F5F80930803809143029B
S1131740833479F42091500280914F02821779F00A
S1131750822F8F5F80935002863048F0109250029F
S113176006C0A0E0442309F4A1E071E002C0A0E0B7
S113177070E0892F99278FBF06C0222311F010E053
S11317806CC0A0E070E08FB7F894992720910D0207
S11317908FBF222341F08FB7F89499272AE0209332
S11317A0F0028FBF42C08FB7F894992760914A0224
S11317B040914C028FBF8FB7F894282F332750E005
S11317C090914F0280915002981709F451E02FBF75
S11317D0552341F5662331F55FB7F89482E0809391
S11317E04A028FB7F894282F332740E090914F0294
S11317F080915002981709F441E02FBF442311F05F
S113180080E006C0E0915002FF27E15BFD4F82813A
S113181080934B0283E48093430210925C02852FF1
S113182099270EC04150423010F010E00BC08FB722
S1131830F894992725E42093430221E020935C0245
S11318408FBF11E0772349F08FB7F8949927A093BD
S113185016028FBF88E00E9492028FB7F894C82FB7
S1131860DD278091F0028A3021F40E94F404CFBF76
S1131870A5C1CFBF112309F4A1C12FB7F894332711
S113188010920E0310920D0310923E0281E0809399
S1131890F0022FBF0E944B07882309F48FC18FB732
S11318A0F894992729E02093F0028FBFF0C080912B
S11318B0C1008F7B8093C1008091C1008F7780939A
S11318C0C1001092EF0210923B028091C100886027
S11318D08093C1008091C10080618093C1008FEF2B
S11318E0809300028091C10080688093C1008FB70B
S11318F0F89499271092F002109236028FBF5EC1BD
S113190087E05AC18091C100877F8093C100809194
S1131910C1008F7E8093C1008FEF809300024EC17F
S113192010921302109212028FB7F8949927209103
S113193016028FBF80911702811123E08091180253
S1131940882309F43BC1823709F038C1222309F006
S113195032C18FB7F89499275F985E987298739AFA
S11319608FBF8FB7F89488E190E029E00FB6F89420
S1131970A895809360000FBE20936000FFCF8FB7BF
S1131980F894992720911A02C0911B02D0911C024D
S113199030911D02109121028FBF2223A1F0223722
S11319A091F4333081F48881823569F489818335F7
S11319B051F48A81843539F4D0932002C0931F02F4
S11319C08AE00E9492028FB7F894E12FFF27EE0F6E
S11319D0FF1FEB5FFD4FD183C08320910E021123C3
S11319E011F02B7F01C02D7F20930E02109219025B
S11319F0992784CFE0911F02F09120028AE5808329
S1131A0082E4818380E5828340911F025091200209
S1131A108091120290911302892B09F0CCC02FB748
S1131A20F894332710921502109216025093110263
S1131A304093100282E090E090931302809312028C
S1131A4042E7409318021092170283E08093140235
S1131A502FBF8FB7F894282F33278091F0028A3054
S1131A6011F42FBF17C02FBF9FB7F89480914C0279
S1131A70882311F020E006C081E080934C0240935B
S1131A804D0221E0892F99278FBF222319F00E944C
S1131A90E00494C010921302109212028CC0809140
S1131AA03002882361F520910103309102034091B3
S1131AB0030350910403EFB7F894FF2760914402A5
S1131AC0709145028091460290914702E0903F0256
S1131AD0F090400200914102109142026E0D7F1D70
S1131AE0801F911FEFBF20930103309302034093A3
S1131AF0030350930403109230020E943B090E9496
S1131B00B90244C00E94B9027B018C018091DF00BC
S1131B108D7F8093DF008FEF80930002AFEFAA2EBA
S1131B20AFEFBA2EAFEFCA2EAFE7DA2E60E0EDE5E5
S1131B30F2E0808581FF1CC080819181A281B38104
S1131B40A8019701281B390B4A0B5B0BDA01C90169
S1131B502481358146815781281B390B4A0B5B0B45
S1131B602A153B054C055D051CF459016A0161E029
S1131B70399632E0E837F307E1F66623F9F01A14F0
S1131B801B041C041D042CF0C801B7010E94080AA0
S1131B9015C0A0920103B0920203C0920303D09235
S1131BA0040381E080933002A6019501C801B701C6
S1131BB00E943B0903C08AE00E949202DF91CF9108
S1131BC01F910F91FF90EF90DF90CF90BF90AF9057
S1131BD00895809105038F3FB1F0282F3327F90131
S1131BE0EE5DFD4F8081809305038F3F11F4809358
S1131BF00C038FEF80832F3F31F0822F0E94C10AA4
S1131C0081E090E0089580E090E00895FF920F93C2
S1131C101F93FFB6F89414BE88E10FB6F89480932E
S1131C206000109260000FBE4DE050E06FEF70E076
S1131C3082E292E00E9442108FEF8093050380932A
S1131C400C038091350180618093350180913401CA
S1131C5080618093340180913301806180933301EA
S1131C608091320180618093320185B7806885BF9D
S1131C7085B7806885BF80E8809361008FE080939A
S1131C80610091E09093810080E28093B60090938C
S1131C90B100E0E0F0E06FEF7FEFA0E0BEEF8091F5
S1131CA0B2008823E1F7409184005091850080912F
S1131CB0B2008034E1F72091840030918500241B28
S1131CC0350B6217730708F4B9012E173F0708F4A0
S1131CD0F901CF01861B970B029720F4AF5FA23363
S1131CE030F007C0A0E06FEF7FEFE0E0F0E0B1502C
S1131CF0B1F630930703209306031092B10080914C
S1131D00B10080938100809181008093B60080911E
S1131D10B600992783709070892BC9F78091DF00F2
S1131D208D7F8093DF008091DC008D7F8093DC00C9
S1131D30809180008C7F8093800080918100807EE0
S1131D4082608093810080916F00816080936F0036
S1131D508091DF008E7F8093DF008091DC008E7F96
S1131D608093DC0080E28093B6008091DC008F7C5D
S1131D7080638093DC008FEF809300028091DF000A
S1131D8088608093DF0080913901826080933901FB
S1131D90579A569A6A9A6B9A5F9A5E9A729A739A4B
S1131DA080E00E94C20880910C02882309F044C19B
S1131DB082E080930C0281E0809303020E94A108D8
S1131DC08EEF91E00E940F09809A9D9A9A9A889AC0
S1131DD0A598A29886E090E00E940F09A59A889899
S1131DE083EC8EBD0DB407FEFDCF8EB51EBC0DB4C5
S1131DF007FEFDCF8EB5889A889882EC8EBD0DB40F
S1131E0007FEFDCF8EB588E08EBD0DB407FEFDCF75
S1131E108EB5889A81E00E94B0098EEF91E00E940D
S1131E200F09A29A0E94E90D8823E1F712E006E067
S1131E3060910603709107038827992724E833E00B
S1131E4040E050E00E942010215030402093C40014
S1131E50832F99278093C5001093C0000093C2007C
S1131E601092C1002093CC008093CD001093C80041
S1131E700093CA001092C90084E490E09093FD029C
S1131E808093FC0210924A0210924C028AE08093E2
S1131E90F00210923E021092430210920803109234
S1131EA00E0310920D0310920B0310925C02109219
S1131EB0F8021092F70284E0809336021092F20244
S1131EC01092000310923C02109259021092580290
S1131ED01092500210924F021D9B0AC081E0809321
S1131EE0EE0282E00E94920285E00E941C0408C077
S1131EF01092EE0283E00E94920285E00E94350473
S1131F0042E050E06FEF70E082E392E00E94421002
S1131F100E94E90D8823E1F78F2D99278FBF7894CC
S1131F204AEF50E060E070E080E00E948B0944EFEB
S1131F3051E060E070E081E00E948B0948EE53E0DC
S1131F4060E070E082E00E948B098FB7F894A82FBC
S1131F50BB2757C08091000287FF4AC08091C1000F
S1131F6083FD0FC08091C10084FD0BC08091C90026
S1131F7083FD07C08091C90084FD03C045E050E0A3
S1131F8002C040E050E080916F008E7219F060E072
S1131F9070E002C065E070E08091DC0085FF03C062
S1131FA083E090E002C085E090E00CB406FE03C03C
S1131FB0E0E0F0E002C0E5E0F0E0282F862F4617CD
S1131FC008F4842F9927821708F4282F822F992741
S1131FD08E1708F4E82FFF27E093000283B7FF274A
S1131FE0E7FDF095E05EFC4FE491807F8E2B83BF8C
S1131FF083B7816083BF78948895F89483B78E7F84
S113200083BF809105038F3F09F4A4CF282F332782
S1132010F901EE5DFD4F8081809305038F3F11F43C
S113202080930C038FEF80832F3F09F493CFAFBFCE
S1132030822F0E94C10A89CF81E00E94C208F2CE99
S1132040A1E21A2EAA1BBB1BFD010DC0AA1FBB1FB8
S1132050EE1FFF1FA217B307E407F50720F0A21B2A
S1132060B30BE40BF50B661F771F881F991F1A9497
S113207069F760957095809590959B01AC01BD01C1
S1132080CF010895DC0101C06D9341505040E0F749
S10720900895FFCFDD
S10F2094FFFFFFFFFF7802B30278020098
S9030000FC
