S01900006275696C642F75636D696E692F6D61696E2E7372656373
S11300000C94AF010C94CE010C94CE010C94CE014F
S11300100C94CE010C94CE010C94CE010C94CE0120
S11300200C94CE010C94D40F0C94CE010C94CE01FC
S11300300C94CE010C94CE010C94CE010C94CE0100
S11300400C94DF040C94C1040C94CB040C94D504DC
S11300500C949E040C94CE010C94CE010C94CE010D
S11300600C94CE010C941D050C94CE010C942F0518
S11300700C94CE010C94250D0C94CE010C94CE015D
S11300800C94CE010C94CE010C94CE010C94CE01B0
S11300900C942F070C94CE010C9407080C9449215E
S11300A00C94CE010C94CE010C94CE010C94CE0190
S11300B00C94CE010C94CE010C94CE010C94CE0180
S11300C00C94CE010C94CE010C94CE010C94CE0170
S11300D00C94CE010C94CE010C94CE010C94CE0160
S11300E00C94CE010C94CE010C94CE010C94CE0150
S11300F00C94CE010C94CE010C94CE010C94CE0140
S11301000C94CE010C942B030C9467030C94710390
S11301100C94D6010C94CE010C94CE010C94CE0117
S1130120B215E5153C166416A516D516EE16FE1680
S11301300B17F0171D181F182D186A18B918D018A6
S113014035194619F119111AFB1C381D831D641E3B
S11301507E1EA51EA815F71E000021104220633044
S11301608440A550C660E770088129914AA16BB10B
S11301708CC1ADD1CEE1EFF13112100273325222B3
S1130180B5529442F772D662399318837BB35AA35B
S1130190BDD39CC3FFF3DEE3622443342004011483
S11301A0E664C774A44485546AA54BB528850995AB
S11301B0EEE5CFF5ACC58DD5533672261116300653
S11301C0D776F6669556B4465BB77AA719973887FB
S11301D0DFF7FEE79DD7BCC7C448E5588668A77813
S11301E04008611802282338CCC9EDD98EE9AFF94B
S11301F0488969990AA92BB9F55AD44AB77A966AF3
S1130200711A500A333A122AFDDBDCCBBFFB9EEB9A
S1130210799B588B3BBB1AABA66C877CE44CC55CC2
S1130220222C033C600C411CAEED8FFDECCDCDDDEA
S11302302AAD0BBD688D499D977EB66ED55EF44E92
S1130240133E322E511E700E9FFFBEEFDDDFFCCF3A
S11302501BBF3AAF599F788F8891A981CAB1EBA18E
S11302600CD12DC14EF16FE18010A100C230E3200A
S11302700450254046706760B9839893FBA3DAB3B2
S11302803DC31CD37FE35EF3B1029012F322D2325A
S11302903542145277625672EAB5CBA5A895898582
S11302A06EF54FE52CD50DC5E234C324A0148104AA
S11302B06674476424540544DBA7FAB79987B89752
S11302C05FE77EF71DC73CD7D326F2369106B016FA
S11302D057667676154634564CD96DC90EF92FE912
S11302E0C899E9898AB9ABA944586548067827684A
S11302F0C018E1088238A3287DCB5CDB3FEB1EFBF2
S1130300F98BD89BBBAB9ABB754A545A376A167A99
S1130310F10AD01AB32A923A2EFD0FED6CDD4DCDC1
S1130320AABD8BADE89DC98D267C076C645C454CE9
S1130330A23C832CE01CC10C1FEF3EFF5DCF7CDF91
S11303409BAFBABFD98FF89F176E367E554E745E39
S1130350932EB23ED10EF01E00020E060C041124A0
S11303601FBECFEFD1E4DEBFCDBF12E0A0E0B2E00C
S1130370E2E3FCE400E00BBF02C007900D92AE3153
S1130380B107D9F714E0AEE1B2E001C01D92AF307D
S1130390B107E1F70E943A1F0C9418260C94000050
S11303A08FB7F894992708958FBF08951F920F92DD
S11303B00FB60F9211248F93809121038F5F809346
S11303C021038F910F900FBE0F901F901895282F27
S11303D09FB7F894E82FFF27EE57FD4F80818F3F9A
S11303E081F4E0910304E21771F40BC02093F3034A
S11303F004C0FF27EE57FD4F20832093030420E021
S113040007C025E005C08091F3038F3F91F7EECF3D
S1130410892F99278FBF822F99270895EF92FF92F2
S11304200F931F937FB7F894609121032091E1000B
S1130430822F2091E200922F2091E300A22F20919D
S1130440E400B22F9C01AD018091E00083FF0FC056
S11304506F5F8091E100E82E8091E200F82E809198
S1130460E300082F8091E400182FA8019701872F3B
S113047099278FBF772788279927FAE1660F771F77
S1130480881F991FFA95D1F7E6E056954795379559
S11304902795EA95D1F7622B732B842B952B1F910B
S11304A00F91FF90EF9008956F927F928F929F9299
S11304B0AF92BF92CF92DF92EF92FF920F931F936E
S11304C00E940E027B018C012091D4023091D5024E
S11304D04091D6025091D7028091CC029091CD02E6
S11304E0A091CE02B091CF02820F931FA41FB51F1B
S11304F0E216F3060407150730F082179307A407E2
S1130500B50758F005C082179307A407B507E0F5AF
S1130510E816F9060A071B07B8F59C01AD012E1968
S11305203F09400B510B213060E0360760E046077D
S113053062E0560768F180E090E0A0E0B2E0E80EE7
S1130540F91E0A1F1B1FE092D402F092D5020093F9
S1130550D6021093D70280E090E0A0E0BEEFE80E50
S1130560F91E0A1F1B1F2050304040405240209368
S1130570CC023093CD024093CE025093CF0220E0C0
S113058030E040E052E014C020E030E040E050E0D1
S11305908093D4029093D502A093D602B093D7024D
S11305A01092CC021092CD021092CE021092CF0281
S11305B039014A01B6E0660C771C881C991CBA956F
S11305C0D1F7A6E0EE0CFF1C001F111FAA95D1F76E
S11305D08091E100A82E8091E200B82E8091E30082
S11305E0C82E8091E400D82EA60195012E5F3F4FBE
S11305F04F4F5F4FDA01C9018E199F09A00BB10B50
S113060086159705A805B90530F4A8019701260DAC
S1130610371D481D591D5093F8004093F70030933F
S1130620F6002093F50081E08093E0008091DF00E4
S113063081608093DF008FEF809301021F910F91FF
S1130640FF90EF90DF90CF90BF90AF909F908F90EE
S11306507F906F9008951F920F920FB60F921124FE
S11306602F933F934F935F936F937F938F939F93B6
S1130670AF93BF93EF93FF938091DF008E7F8093BE
S1130680DF008FEF809301028091CC029091CD0224
S1130690A091CE02B091CF020097A105B10521F43B
S11306A080E00E94E70102C00E945402FF91EF9192
S11306B0BF91AF919F918F917F916F915F914F9176
S11306C03F912F910F900FBE0F901F9018951F927E
S11306D00F920FB60F9211240F900FBE0F901F9020
S11306E018951F920F920FB60F9211240F900FBE00
S11306F00F901F9018958091C90220918400309129
S11307008500B09B05C08F5F2091840030918500E7
S11307109927992786959795882736952795822B2B
S1130720932B0895FF920F931F93CF93DF93EC01C4
S1130730FFB6F8940E947B038C0180E8C130D8078F
S113074068F0C050D0480E947B03801B910BC817EF
S1130750D907C8F70C0F1D1FC0E0D0E80E947B0327
S1130760801B910BC817D907C8F78F2D99278FBF06
S1130770DF91CF911F910F91FF90089580917C009C
S113078090917B008F719927089590917C00907EC1
S1130790282F2F71922B90937C0085FF04C08091A9
S11307A07B00886003C080917B00877F80937B00FF
S11307B00895ECE7F0E090818295880F880F807CA3
S11307C09F73982B90830895DF92EF92FF920F937B
S11307D01F938091F803813009F492C0813008F4AA
S11307E08AC0823019F4A8E0FA2E14C0882321F0BC
S11307F0813021F4FF2486C0FF247FC0813028F09B
S1130800823039F08FE1FF2406C0FF24EE2482E019
S113081003C0FF248EE1EE24082FDFB6F894809104
S1130820A4028E7F8093A40210917C000E94BE03D8
S1130830282F1295169516951370E11619F080E07D
S113084090E00AC0802F8850863120F480E090E048
S1130850021711F481E090E0982F9170990F809124
S1130860A4028170202F220F220F892B822B8093C8
S1130870A402802F0E94C50380917C008F7D809309
S11308807C008E2D0E94D9032091A402217038E0AF
S1130890F316E1F58091F4039091F50331E6803885
S11308A0930718F087E090E024C030E3803C93077E
S11308B018F086E090E01DC038E18034930718F00A
S11308C085E090E016C03CE08030930718F084E0A7
S11308D090E00FC036E08030930718F083E090E09A
S11308E008C08050934018F082E090E002C080E09D
S11308F090E0F82E0BC0F8E0FF2EE2E0EE2E87CF5A
S113090078E0F72E63E0E62E89E286CF87E0F822CE
S1130910187F1F2918612295220F207E1F7D122B1C
S1130920106C812F992780937A008D2D99278FBF82
S11309301F910F91FF90EF90DF9008951F920F92F7
S11309400FB60F9211248F939F938091FE03909181
S1130950FF0301969093FF038093FE03892B29F4F0
S11309608091CB028F5F8093CB028091C9028F5F0D
S11309708093C9029F918F910F900FBE0F901F908B
S113098018951F920F920FB60F9211240F900FBE5D
S11309900F901F9018951F920F920FB60F9211246B
S11309A00F900FBE0F901F9018951F920F920FB6C5
S11309B00F9211240F900FBE0F901F9018951F9245
S11309C00F920FB60F9211240F900FBE0F901F902D
S11309D0189521E030E002C0220F331F8A95E2F718
S11309E08091E002822B8093E002EBE6F0E08081CC
S11309F0282B2083E8E6F0E080818160808380E01A
S1130A0090E0089521E030E002C0220F331F8A9560
S1130A10E2F7922F90958091E00289238093E0027F
S1130A20EBE6F0E08081282B2083E8E6F0E080818B
S1130A308160808380E090E008951F920F920FB64A
S1130A400F9211248F938091C00087FF02C0809180
S1130A50C6008F910F900FBE0F901F901895789439
S1130A601F920F920FB60F9211240F900FBE0F908A
S1130A701F901895E8E5F1E06927660FF11DE60F70
S1130A80F11DC895982F802D3196C895902508950D
S1130A90982F80912D02882389F5992379F531E0E7
S1130AA030932D028091060280932E02209122021F
S1130AB0822F81708093810280910B0290910C02AD
S1130AC09093300280932F0280912302809331020D
S1130AD032273170267EE32FFF27EE0FFF1FE95FD9
S1130AE0FD4F8081918190930C0280930B02232B04
S1130AF0209322028DE00E94E70108958091220252
S1130B0080FF02C08B7F01C08D7F809322020895F5
S1130B101F931FB7F89480910204882341F488E05E
S1130B200E94E701882319F481E080930204812F55
S1130B3099278FBF1F9108959FB7F8948091CD0393
S1130B408A3011F020E006C020E08091B3028430A6
S1130B5009F421E0892F99278FBF222349F08AE0E5
S1130B600E94E7018FB7F89499271092210206C0DA
S1130B708FB7F894992721E0209321028FBF08951D
S1130B800F931F93082F162F8091B3028130D9F051
S1130B90813038F0823009F44AC0833009F028C12A
S1130BA059C0002309F458C11092E5031092E403DC
S1130BB01092D0031092EE031092B7021092230306
S1130BC01092220339C1002309F046C18091220307
S1130BD0909123030E943A05909323038093220368
S1130BE082E08093B3021093EE03143409F000C141
S1130BF025C18695869503C08091220286958170D1
S1130C0009F0F6C080912202992311F0846001C09A
S1130C1082608093220280912202877E8860809382
S1130C202202109223028FEF8093060215C1002343
S1130C3009F0DEC06093B7028091220390912303F0
S1130C400E943A05909323038093220383E08093C8
S1130C50B30202C18091D0038F3F09F4C9C00023BD
S1130C6009F461C0823008F4C3C0E091E403EE23C8
S1130C7009F4EBC04E2F4150E42FFF27EC51FC4FF9
S1130C8082819927382F2227442311F4E2E002C0FD
S1130C90E42FE150FF27EC51FC4F82819927282B48
S1130CA0392B80912203909123032817390709F0E7
S1130CB09FC080E00E9448053091B7028091E6020F
S1130CC02091E702982F9F5F963008F090E09217EA
S1130CD071F0E82FFF27EA51FD4F32838F5F809335
S1130CE0E602863010F01092E6020E948805109207
S1130CF0E5031092E40394E09093B3021092D003BE
S1130D001092EE031092B702109223031092220362
S1130D10809132028D7F8093320280912102882358
S1130D2009F49AC084C0823008F44EC0E091E5030F
S1130D30FF27EC51FC4F8281482F5527342F2091F7
S1130D402202822F86958695869583709927813015
S1130D50910519F00297F9F40EC0277E20612093C3
S1130D602202442311F485E001C080E08093230231
S1130D703093060210C0809123028F3260F4E09118
S1130D800B02F0910C02E80FF11D408380912302C5
S1130D908F5F809323028091E503E82FFF27EC51B6
S1130DA0FC4F62818F5F8093E503833010F01092D3
S1130DB0E503772780912203909123030E943A054B
S1130DC090932303809322038091E403E82FFF2769
S1130DD0EC51FC4F12838F5F8093E403833010F057
S1130DE01092E4038091D0038F5F8093D00334C0CA
S1130DF01092E5031092E40314E01093B3021092EE
S1130E00D0031092EE031092B702109223031092B3
S1130E102203809132028D7F8093320281E00E940E
S1130E20480580912102882329F01093B3020E947F
S1130E309C0512C0002381F081E009CF8091220239
S1130E40982F917080FDD5CED7CE8091E803992755
S1130E50382F222742E01CCF1F910F9108951F9233
S1130E600F920FB60F9211242F933F934F935F93DA
S1130E706F937F938F939F93AF93BF93EF93FF935E
S1130E808091C80087FF42C06091CE00E0912403A6
S1130E90F0912503309719F1809100049091010499
S1130EA0E80FF91F60830196909301048093000476
S1130EB020910D0430910E048217930738F110929B
S1130EC02503109224038091C8038330F9F08091A4
S1130ED0C9008F778093C9001092C80317C06E377A
S1130EE019F460E081E010C0809132026D3721F482
S1130EF08260809332020AC081FF05C08D7F809397
S1130F00320280E2682780E00E94C005FF91EF91E1
S1130F10BF91AF919F918F917F916F915F914F910D
S1130F203F912F910F900FBE0F901F9018952FB7E0
S1130F30F89433278093CE00E8ECF0E0808180645D
S1130F4080832FBF0895FC016115710519F481E0B8
S1130F5090E008958091D8029091D902892B19F0DC
S1130F6085E090E008957093EC036093EB03F093B5
S1130F70D902E093D8021092B5021092B40281E033
S1130F808093B6028091C80080648093C8008091E9
S1130F90C90080648093C900808121E030E03093EF
S1130FA0B5022093B4020E94970780E090E0089570
S1130FB0982F8D57823068F480913202816080933B
S1130FC0320280E289278093CF038DE780939F02CA
S1130FD002C090939F0261E070E08FE992E00E946A
S1130FE0A307992708958FB7F8949927209132027F
S1130FF02E7F209332022EE720939F028FBF61E061
S113100070E08FE992E00E94A307992708957894ED
S11310101F920F920FB60F921124FF920F931F93FA
S11310202F933F934F935F936F937F938F939F93EC
S1131030AF93BF93CF93DF93EF93FF932091B402C9
S11310403091B5028091EB039091EC032817390796
S113105080F4E091D802F091D902E20FF31F80816D
S11310602F5F3F4F3093B5022093B4020E9497073D
S1131070D1C01092D9021092D8021092B602809177
S1131080C9008F7B8093C900FFB6F8948091320227
S113109080FF0EC08E7F809332028091CF038093B5
S11310A09F0261E070E08FE992E00E94A307AFC065
S11310B08091CD03843009F48CC0853040F48230B3
S11310C021F18330B8F5813009F09CC00DC0863021
S11310D009F48DC0863008F483C0873009F48EC0CB
S11310E0883009F08FC091C08091D3020E94D80744
S11310F0082F83E08093CD036091D30280910B0489
S113110090910C040E943A0510C08091F7030E944C
S1131110D807082F83E08093CD036091F703809173
S11311200B0490910C040E943A0590930C04809354
S11311300B0466C0E0912603FF27EE0FFF1FE55264
S1131140FD4F80810E94D807082F10912603C12FDC
S1131150DD27FE01EE0FFF1FE552FD4F60818091F8
S11311600B0490910C040E943A0590930C04809314
S11311700B042091CA022F5F2093CA02113039F563
S113118080912902E0912402F0912502E80FF11DDB
S1131190E0818F5F8093290290912802981730F4A0
S11311A082E08093DC0240E050E002C04E2F5527DD
S11311B0DE01AA0FBB1FFD01E652FD4F8081823084
S11311C031F02F3F21F0A552BD4F4C9319C084E05C
S11311D012C080910B040E94D807082F85E00BC031
S11311E080910C040E94D807082F86E004C00E9456
S11311F0F307082F87E08093CD0302C088E003C083
S1131200002329F089E08093CD030E9488058F2D67
S113121099278FBFFF91EF91DF91CF91BF91AF914C
S11312209F918F917F916F915F914F913F912F91FA
S11312301F910F91FF900F900FBE0F901F90189564
S1131240EF920F931F93AE2D99E0899FF001112423
S1131250E75DFC4F4083518362837383048315836A
S113126026833783A17080858E7F8A2B8260808756
S113127081E00E94E7011F910F91EF900895AF92D2
S1131280BF92CF92DF92EF92FF920F931F93F82EAB
S11312905A016B010E940E02AB01BC01EE249601BF
S11312A085018F2D0E9420091F910F91FF90EF90CF
S11312B0DF90CF90BF90AF900895582F8091260271
S11312C090912702892B19F085E090E008952FB7BB
S11312D0F894552309F446C01092290210922A0268
S11312E0709325026093240282E090E09093270299
S11312F08093260250932C0210922B02523709F04D
S113130040E080E0840F80932802822F99278FBFCA
S11313108FB7F894282F33278091CD038A3011F4A6
S11313202FBF19C02FBF9FB7F8948091DC02882388
S113133011F020E006C081E08093DC025093DD02CE
S113134021E0892F99278FBF222329F00E94880545
S113135080E090E00895109227021092260281E026
S113136090E0089585E08093290210922A027093F8
S113137025026093240282E090E0909327028093F8
S1131380260210922C0210922B0285E0495FBACFFC
S1131390CF93DF93382FDA012D3118F082E090E0FB
S11313A00FC0FA0135966183872F9927EA018D834F
S11313B036832483422FBD0180E00E945D09992772
S11313C0DF91CF9108958FB7F89499272091BC00AD
S11313D02093C6038FBF08959091C603882311F00C
S11313E0946001C09B7F9093C6038FEF80930102AA
S11313F008951F93CF93DF93982F8FB7F894282FD6
S11314003327422F80913402882309F043C011E02E
S11314101093340290939E022FBF8FB7F894C82F75
S1131420DD27809135028823C9F4589A599A10927D
S1131430B90088E98093B8001092BA001092BC00F9
S11314400E94E30981E00E94EC098091C6038E7F2B
S11314508093C6038093BC0010933502CFBF8FB72F
S1131460F894C82FDD272C2F90910F029330B1F4FC
S113147080913402813021F481E10E94E70108C0A7
S1131480823061F480919E0280930F029093340223
S1131490CFBF05C080919E02891721F42FBF80E041
S11314A090E021C0E92FFF27E053FD4F80818F3F5B
S11314B089F4E0910E02E91789F40CC090930D02AF
S11314C004C0FF27E053FD4F908390930E0280E009
S11314D090E002C085E090E04FBF05C080910D020E
S11314E08F3F79F7EBCFDF91CF911F9108950F9341
S11314F01F930FB7F89411270E94E3098091C60344
S11315008E7F80698093C6038093BC000FBF1F91B8
S11315100F910895EF92FF920F931F93E62EF22EF0
S11315209FB7F894292F332790911002981721F030
S11315302FBF81E090E061C02FBF8FB7F894282FB0
S1131540332760913502613039F582E080933502AA
S11315502FBF8FB7F89499275093BC024093BB02D6
S11315601093A7020093A602F0924202E0920A04AA
S11315701092ED03609336028FBF0E94E3099FB778
S1131580F8942091C60321682F7A2093C6036E2D08
S1131590772760FD0BC00FC0662321F42FBF84E0C2
S11315A090E02BC02FBF85E090E027C020622093FD
S11315B0C60384E00BC081E08F1520F0FF2061F0AA
S11315C062FF07C020642093C60383E08093350242
S11315D00BC081E0F816C9F361FF06C085E0809373
S11315E0350220612093C6038091C6038093BC001A
S11315F0892F99278FBF80E090E01F910F91FF9072
S1131600EF9008951F93982F8FB7F894182F809117
S11316103A028330B1F580911602891791F58091D1
S1131620140220E030E08F3F11F421E030E0232B5E
S1131630F9F48F3F19F42FEF30E00EC0282F332731
S1131640F901E455FD4F8081809314028F3F11F41A
S1131650809315028FEF8083209376028FEF80931F
S1131660160281E080933A0285E10E94E70105C0F9
S113167086E08093160210923A021FBF80E090E049
S113168003C01FBF81E090E01F910895FC016683B1
S1131690672F772765830895CF93DF93582FDB0156
S11316A0823018F081E090E038C0C82FDD27CC0FDD
S11316B0DD1FC251DD4F88819981892B19F085E0A6
S11316C090E02BC0798368839B012B5F3F4FF90126
S11316D0448380911D02823018F480E090E01DC0A4
S11316E0F9018681FB0165817727762F6627F90149
S11316F021813327622B732B50931D02242FAD01BC
S11317000E94C8099927282F882329F082E0809312
S11317101D0219821882822F9927DF91CF91089593
S1131720FF920F931F938B01F42EBC01C8010E94FA
S1131730460B8BE0F80183874F2DB80181E00E94AE
S11317404C0B99271F910F91FF900895882349F41A
S1131750E091DE02F091DF026583872F992784836D
S113176008952FB7F89433278EB180588EB92FBFC0
S113177008952F923F924F925F926F927F928F9231
S11317809F92AF92BF92CF92DF92EF92FF920F930C
S11317901F93882381F5DB01CA01BB0F880B982FA7
S11317A0DC011A012B01682E2091E2033091E3033E
S11317B040E050E060E070E080E0A22EB32EC42E42
S11317C0D52EE62EF72E082F10E0222D332D442D92
S11317D0552D662D762D862D962D0E94E52207E146
S11317E00E94E924A22EB32E80ED97E0A80EB91E24
S11317F0B50180E002C060E070E00E94A60B1F917A
S11318000F91FF90EF90DF90CF90BF90AF909F909B
S11318108F907F906F905F904F903F902F9008959E
S11318208823A1F4E091DE02F091DF024383BB2719
S1131830A72F962F852F8283CB01AA27BB278183CD
S1131840872F9927AA27BB27808308952FB7F89459
S113185033278EB180588EB92FBF08959FB7F8945F
S11318608091B302882319F484E08093B302892F12
S113187099278FBF9FB7F8948091CD03882319F4DB
S11318808AE08093CD03892F99278FBF0E949C05FE
S113189080E090E008958FB7F894282F3327922F93
S11318A08091CD038A3041F08091B302843021F0DD
S11318B02FBF89E090E008959FBF89E00E94E7016F
S11318C080E090E00895992780FF02C0749801C0D9
S11318D0749A81FF02C0759801C0759A82FF02C094
S11318E0769801C0769A83FF02C077980895779A14
S11318F00895982F969596959695E8E2F3E0E90F6A
S1131900F11D877021E030E002C0220F331F8A9559
S1131910E2F780818223992708950F931F93CF9331
S1131920DF93182F8FB7F894282F3327022F809135
S11319301F02882379F581E080931F021093D60358
S11319402FBF2FB7F894332780917A008068809353
S11319507A008FEF809301022FBF8FB7F894C82FBE
S1131960DD272C2F909102029330C1F480911F0245
S1131970813021F482E00E94E70108C0823071F4D2
S11319808091D6038093020290931F02CFBF80E020
S113199090E023C08091D603811711F42FBFF7CFB5
S11319A0812F0E94790C882319F085E090E014C0FF
S11319B0E12FE695E695E695FF27E85DFC4F177065
S11319C081E090E002C0880F991F1A95E2F7208108
S11319D0282B208380E090E00FBFDF91CF911F91EF
S11319E00F9108950F931F930FB7F89411276093E5
S11319F0D4027093D5028093D6029093D702209399
S1131A00CC023093CD024093CE025093CF020E9479
S1131A1054020FBF1F910F9108959C018091D3032D
S1131A209091D4038217930720F43093D403209326
S1131A30D3038091A8029091A9028617970720F4F6
S1131A407093A9026093A80208951F920F920FB693
S1131A500F9211240F931F932F933F934F935F93F0
S1131A606F937F938F939F93AF93BF93EF93FF9362
S1131A70409178005091790078948FB7F894992721
S1131A802091A402322F3695317021708FBF22230A
S1131A9019F580917A00877F80937A008091E10222
S1131AA0813021F0823009F047C00AC0332351F05D
S1131AB05093CC034093CB0383E00E94E7013CC0E6
S1131AC0332339F48DE790E00E9492030E94E403EB
S1131AD033C01092E10230C00FB7F89411278091FF
S1131AE07C000E94BE030FBF2FB7F8943327809168
S1131AF07A00582F5770482F4072087D042B052B0D
S1131B008074077B082B00610F77802F99278093BF
S1131B107A00087D042B052B07730061802F992719
S1131B2080937A00087D042B052B077B0069802FA6
S1131B30992780937A002FBFFF91EF91BF91AF91C6
S1131B409F918F917F916F915F914F913F912F91D1
S1131B501F910F910F900FBE0F901F9018950F9328
S1131B601F93CF93DF93082FE82FFF27EE0FFF1F5C
S1131B70E251FD4F1182108280911D029927019636
S1131B8062E070E00E949125682F80931D0210E0AE
S1131B90462F5527FA01EE0FFF1FE251FD4FA0819A
S1131BA0B181109799F0E62FE695E695E695FF2723
S1131BB0E350FC4F808199279A012770307002C04E
S1131BC0959587952A95E2F780FF0DC0CA01019685
S1131BD062E070E00E949125682F1F5F1230C1F609
S1131BE010931D021AC060931D026230B0F4FD010F
S1131BF0359624813327ED016D817727762F66276B
S1131C0081819927682B792BAD0186810E94C809AF
S1131C10882319F08BE10E94E701013059F4809187
S1131C200002882339F040E052E060E070E082E096
S1131C300E943F09DF91CF911F910F910895CF9397
S1131C40DF93982F8FB7F894282F3327422F809152
S1131C503A02882321F581E080933A029093760238
S1131C602FBF8FB7F894C82FDD279C2F80911602C1
S1131C70863099F480913A02813021F485E10E9402
S1131C80E70109C0823049F48091760280931602FC
S1131C9083E080933A02CFBF07C09FBF05C0809105
S1131CA07602891721F42FBF80E090E021C0E92F4C
S1131CB0FF27E455FD4F80818F3F89F4E0911502A1
S1131CC0E91789F40CC09093140204C0FF27E4556B
S1131CD0FD4F90839093150280E090E002C085E070
S1131CE090E04FBF05C0809114028F3F79F7EBCF8E
S1131CF0DF91CF910895282F882379F440937202BD
S1131D0050937302609374027093750282E00E9490
S1131D101F0E9927282F882339F040E050E060E017
S1131D2070E0822F0E94100C0895EF92FF920F939F
S1131D301F93CF93DF93982F8FB7F894E82E809159
S1131D401F02833009F045C080910202891709F00F
S1131D5040C080912803882309F04DC03EC0EF2D78
S1131D60E695E695E695FF274F2D5527E85DFC4F50
S1131D709A012770307081E090E002C0880F991FAB
S1131D802A95E2F78095208128232083C0931E02A0
S1131D9011C02196C330D10511F4C0E0D0E0FC2E6F
S1131DA08C2F0E94790C8823D1F6C017D10789F7AC
S1131DB04FEF50E04093D6038FEF8093020281E00F
S1131DC080931F0282E00E94E701EFBE80E090E072
S1131DD018C0EFBE81E090E014C083E0809302025B
S1131DE010921F0280917A008F7780937A008FEF90
S1131DF080930102EACF80911E02082F1127E80187
S1131E00C8CFDF91CF911F910F91FF90EF9008956C
S1131E101F93282F8FB7F894182F90913402933082
S1131E2009F04AC080910F02821709F045C08091E1
S1131E300D0220E030E08F3F11F421E030E0232B4D
S1131E40F9F48F3F19F42FEF30E00EC0282F332719
S1131E50F901E053FD4F808180930D028F3F11F40F
S1131E6080930E028FEF808320939E028FEF8093E6
S1131E700F0281E08093340281E10E94E70118C0DF
S1131E8090930F021092340280913502813081F4D4
S1131E900E94E30980E00E94EC098091C6038E76DB
S1131EA08093C6038093BC005898599810923502C9
S1131EB01FBF80E090E003C01FBF81E090E01F914E
S1131EC00895CF93DF93882309F050C06093F903FA
S1131ED0662311F41D994AC08FB7F894282F33272D
S1131EE0922F80912002882311F581E080932002B3
S1131EF01092B8022FBF8FB7F894C82FDD279C2FFC
S1131F0080910502813059F580912002813021F4BD
S1131F1085E00E94E70109C0823009F58091B8028A
S1131F208093050283E080932002CFBF1FC080917D
S1131F30B802882311F42FBF19C08091AB028F3FE0
S1131F4071F4E0910402EE2351F00BC010920302ED
S1131F5004C0FF27E555FD4F1082109204029FBF75
S1131F6005C0809103028F3FA1F7F0CFDF91CF919D
S1131F7008958091C7031D9B0CC08823A1F481E0C0
S1131F808093C70386E00E94E70185E00E94E9048C
S1131F900895882341F01092C70387E00E94E70167
S1131FA085E00E94020508951F920F920FB60F92CA
S1131FB011242F933F934F935F936F937F938F934A
S1131FC09F93AF93BF93EF93FF9320916B0093B1D3
S1131FD08091E0028927822385FF02C00E94B90F05
S1131FE0FF91EF91BF91AF919F918F917F916F91ED
S1131FF05F914F913F912F910F900FBE0F901F90C3
S113200018951F93182F0E94770A82E00E94080FE8
S1132010112311F487E103C01093E20286E10E94C8
S1132020E7011F910895AF92BF92CF92DF92EF9292
S11320300F931F935B016C010E940E02AB01BC0164
S1132040B1E0EB2E9601850185E00E9420091F91E5
S11320500F91EF90DF90CF90BF90AF900895AF9223
S1132060BF92CF92DF92EF920F931F935B016C01AB
S11320700E940E02AB01BC0111E0E12E9601850124
S113208086E00E9420091F910F91EF90DF90CF907E
S1132090BF90AF900895AF92BF92CF92DF92EF922C
S11320A00F931F935B016C010E940E02AB01BC01F4
S11320B001E0E02E9601850184E00E9420091F9131
S11320C00F91EF90DF90CF90BF90AF9008958091E3
S11320D0D70381508093D703882361F46091A802C9
S11320E07091A902882799270E944B1080E8809359
S11320F0D7030895803841F48998809155038D7FE2
S1132100809355031092D70308958091D7038F5F6E
S11321108093D703813069F4899A6091D3037091D5
S1132120D403882799270E944B1081E88093D70312
S11321300895813841F4809155038D7F8093550330
S113214081E08093D70308951F93109138021230D1
S113215018F085E090E00CC082E0809338020E9481
S11321608510113019F481E00E94F90980E090E0B3
S11321701F9108951F939C0110913802123018F09A
S113218085E090E010C086E0809338023093CA0363
S11321902093C9030E948510113019F481E00E9434
S11321A0F90980E090E01F910895FF920F931F9327
S11321B0CF93DF93F82EEB018FB7F894282F3327B2
S11321C080912002833021F02FBF8FEF90E004C074
S11321D0809105022FBF9927082F8FB7F894182FE5
S11321E080912002833091F580910502801771F56A
S11321F08091030220E030E08F3F11F421E030E0D1
S1132200232BF9F48F3F19F42FEF30E00EC0282F61
S11322103327F901E555FD4F8081809303028F3FF9
S113222011F4809304028FEF80832093B8028FEF20
S11322308093050281E08093200285E00E94E701FB
S113224005C081E080930502109220021FBF002385
S113225009F062C0FF2009F05FC08091F903882370
S113226009F03BC0C051DE4008F056C00FB7F894E7
S113227080E00E94630C759880E593EC0E949203C1
S113228010E02FB7F89433278EB190E289278EB9E6
S11322902FBF2FB7F89433278EB190E489278EB9D6
S11322A02FBF80E593EC0E9492031F5F143049F71F
S11322B080E00E94630C8FEF80936400809365003C
S11322C08093630083B7816083BF889583B78E7FD3
S11322D083BF802F99278FBF1FC08130E9F4C15875
S11322E0DC40D0F08FB7F89480E00E94630C7498BF
S11322F080E593EC0E9492032FB7F89433278EB1B4
S113230090E189278EB92FBF2FB7F89433278EB168
S113231080588EB92FBFECCFDF91CF911F910F91D1
S1132320FF900895AF92BF92CF92DF92EF92FF9207
S11323300F931F93CF93DF935B016C01C0E0D0E058
S1132340E9E2F3E0608561FF7AC120813181428155
S11323505381E480F58006811781D601C501821B73
S1132360930BA40BB50B8E159F05A007B10708F4BA
S113237066C160FF03C06D7F608708C02E0D3F1DDE
S1132380401F511F2083318342835383C33009F498
S11323905DC1C43028F4C13099F0C23000F50AC0E0
S11323A0C53009F448C1C53008F420C1C63009F06D
S11323B07FC143C155995BC14D9954C160E053C17C
S11323C080E00E948D0C992780930704882309F4E8
S11323D06FC1809860E070E00E94D51069C180915F
S11323E00002882381F46FEF7FEF83E492E00E9480
S11323F0460B8AE080934E0240E163E472E080E0A1
S11324000E944C0B02C0109200028FB7F894282F40
S11324103327922F80913F02882311F581E0809326
S11324203F02109241022FBF8FB7F894C82FDD27C7
S11324309C2F80911902813059F580913F0281309F
S113244021F488E10E94E70109C0823009F58091F6
S113245041028093190283E080933F02CFBF19C0E9
S113246080914102882311F42FBF13C080917D0213
S11324708F3F71F4E0911802EE2351F007C11092DE
S1132480170204C0FF27E358FD4F10821092180270
S11324909FBF8FB7F894282F3327922F8091400243
S11324A0882311F581E0809340021092D5032FBF59
S11324B08FB7F894C82FDD279C2F80911C028130A0
S11324C059F580914002813021F489E10E94E701AD
S11324D009C0823009F58091D50380931C0283E002
S11324E080934002CFBF19C08091D503882311F493
S11324F02FBF13C08091FB038F3F71F4E0911B0247
S1132500EE2351F0C9C010921A0204C0FF27E5500F
S1132510FC4F108210921B029FBF8FB7F894282F94
S11325203327922F80913702882311F581E080931D
S11325303702109227032FBF8FB7F894C82FDD27D7
S11325409C2F80911302813059F58091370281309C
S113255021F482E10E94E70109C0823009F58091EB
S113256027038093130283E080933702CFBF19C0FF
S113257080912703882311F42FBF13C08091FC039B
S11325808F3F71F4E0911202EE2351F08BC0109250
S1132590110204C0FF27E450FC4F10821092120273
S11325A09FBF80913B02882311F080E007C08DEB30
S11325B092E0909309048093080481E00E941F0E26
S11325C080913C02882311F083E007C088ED93E0FA
S11325D09093BA028093B90284E00E941F0E81E0B6
S11325E00E948D0C82E00E948D0C62C08091D70302
S11325F08F778093D703882369F180913D028823E4
S113260021F481E080933D0203C082E00E94F90935
S113261080913802882321F481E08093380203C03A
S113262081E00E94F90980913302823079F081E0DF
S1132630809333023DC081E00AC082E008C0219645
S11326403996C730D10509F07DCE32C080E00E94B2
S1132650F9092EC0899810923D0210923802109206
S1132660330226C061E080E00E94610F21C05598CA
S11326700E940E02AB01BC0181E0E82E01E010E0F3
S113268020E030E080E00E94200912C0809117020F
S11326908F3F09F0F7CEF3CE80911A028F3F09F0F5
S11326A035CF31CF809111028F3F09F073CF6FCFB7
S11326B081E00E94E701DF91CF911F910F91FF907C
S11326C0EF90DF90CF90BF90AF9008950F931F933A
S11326D0882341F08093AA020E94770A81E00E9435
S11326E0080F30C080913802843079F0853028F4A6
S11326F0823059F0833039F40FC0853069F08C3062
S113270010F422E00AC020E008C00E94770A81E0A9
S11327100E94080F84E117C023E001EA12E047E7B2
S113272050E063E081E00E948A0A99278093AA021C
S1132730882359F00E94770A81E00E94080F81E003
S11327408093AA0283E10E94E7011F910F910895EB
S1132750EF92FF920F931F93F62EE22E9FB7F894F9
S1132760292F332790911002981711F02FBFA6C07C
S11327702FBF8FB7F894282F3327809135028130EB
S113278041F582E0809335022FBF8FB7F8949927E3
S11327905093BC024093BB021093A7020093A6027D
S11327A0E092420260930A041092ED031092360202
S11327B08FBF0E94E3098FB7F894182F9091C60336
S11327C0916C9F7E9093C6036F2D772760FD0BC09D
S11327D011C0882321F42FBF84E090E079C02FBF7B
S11327E085E090E075C090629093C60384E0809386
S11327F0350267C0EE2009F453C083E080933502AC
S11328002091ED0340914202241778F4E091A6024E
S1132810F091A702E20FF11D80818093BB002F5F2E
S11328202093ED039093BC0050C0292F2E7F20935A
S1132830C60380910A0481FF07C08D7F80930A0438
S113284020612093C60303C09E779093C6038091B2
S1132850C6038093BC0081E0809335022091A602D8
S11328603091A7026091BB027091BC02809110026A
S1132870813071F0813018F0823039F50DC00E943A
S1132880770A80E00E94080F80E10E94E7011DC0E2
S113289080E00E94661319C080E00E94011015C0F8
S11328A061FF08C085E0809335029F7B906190931F
S11328B0C60307C081E0809335021FBF81E090E02A
S11328C007C08091C6038093BC001FBF80E090E0E6
S11328D01F910F91FF90EF9008950F931F93CF9343
S11328E0DF93E9018093AA02882309F09DC08091B7
S11328F038028730F1F1883048F4853009F494C007
S1132900863020F5833009F081C08EC0893009F407
S113291056C0893008F440C08A3009F463C08B3053
S113292009F074C00E94770A81E00E94080FE091C8
S1132930C903F091CA0388819927982F8827298190
S11329403327822B932B9387828773C0E091C9032B
S1132950F091CA0388819927982F882729813327E2
S1132960822B932B9183808387E08093380284EABF
S11329704BC0E091C903F091CA0388819927982F2D
S1132980882729813327822B932B9383828388E0A2
S11329908093380286EA38C0E091C903F091CA03F3
S11329A088819927982F882729813327822B932B75
S11329B09583848389E08093380288EA25C0E09176
S11329C0C903F091CA0388819927982F8827298100
S11329D03327822B932B978386838AE08093380254
S11329E08AEA12C0E091C903F091CA038881992749
S11329F0982F882729813327822B932B91878087CF
S1132A008BE0809338028CEA8093A10201EA12E001
S1132A1021E047E750E061E081E00E94A813992794
S1132A208093AA02882341F00E94770A81E00E94E1
S1132A30080F83E10E94E701DF91CF911F910F916D
S1132A4008951F93182F0E94E3098091C6038E7F77
S1132A508093C60380E00E94EC098091C6038093B2
S1132A60BC000E94E30981E00E94EC098091C60346
S1132A708093BC0081E080933502809136022091DE
S1132A80A6023091A702409142026091BB0270916C
S1132A90BC02909110028823C9F0913069F0913002
S1132AA018F0923071F50CC010937E020E94770AE0
S1132AB080E00E94080F1AC0812F0E946D1421C06B
S1132AC01093E20286E10E94E7011BC0913091F06D
S1132AD0913018F09230A9F411C00E94770A80E076
S1132AE00E94080F112321F010937E028FE0EBCF98
S1132AF080E1E9CF812F0E94661303C0812F0E94D9
S1132B0001101F9108956F927F928F929F92AF92BE
S1132B10BF92CF92DF92EF92FF920F931F93CF93C6
S1132B20DF93CDB7DEB7A8970FB6F894DEBF0FBE1C
S1132B30CDBFE82FFF27EC31F10510F00C94081FEE
S1132B40E057FF4FEE0FFF1F0590F491E02D09941D
S1132B508091FD03882311F40C94081F20E011E0F8
S1132B600C94D21E8091A002882361F52091EF037A
S1132B703091F0034091F1035091F203EFB7F894D0
S1132B80FF276091D4027091D5028091D602909172
S1132B90D702E090CC02F090CD020091CE021091C9
S1132BA0CF026E0D7F1D801F911FEFBF2093EF0397
S1132BB03093F0034093F1035093F2031092A00278
S1132BC00E94F20C0E940E0242C00E940E025B019F
S1132BD06C018091DF008E7F8093DF008FEF809304
S1132BE001022FEF3FEF4FEF5FE760E0E9E2F3E030
S1132BF0808581FF1CC080819181A281B38186017F
S1132C007501E81AF90A0A0B1B0BD801C701E48005
S1132C10F58006811781E81AF90A0A0B1B0BE216E4
S1132C20F306040715071CF4A801970161E039961F
S1132C3003E0E836F007E1F6662311F40C94081F6C
S1132C40121613061406150634F0C601B5010E94C7
S1132C5092110C94081F2093EF033093F0034093D8
S1132C60F1035093F20381E08093A002C601B50101
S1132C700E94F20C0C94081F8FB7F89499272091A6
S1132C80D6032093020223E020931F028FBF90916A
S1132C900202913069F0913028F0923011F00C94D6
S1132CA0081F0EC081E08093E1021092F80304C073
S1132CB09093E1029093F8030E94E4030C94081F9C
S1132CC081E08093E102F6CF1092E1020091CB0300
S1132CD01091CC038091F803813049F0813018F0D1
S1132CE0823069F408C080E00E94950E11C081E032
S1132CF00E94950E16C082E00E94950E1CC0813081
S1132D0081F0813028F0823011F00C94081F13C038
S1132D1010920704809810937A020093790284E059
S1132D2069C0E091DE02F091DF020587812F9927C7
S1132D3084870C94081FE091DE02F091DF0207877C
S1132D40812F992786870C94081F80910704882374
S1132D50F1F46091790270917A02882799272CED19
S1132D6035E040E050E00E947225FAE096958795A0
S1132D7077956795FA95D1F726E030E040E050E08A
S1132D800E9472257093E5026093E40204C01092DD
S1132D90E5021092E4026091E4027091E5028091F0
S1132DA007040E94D5100C94081F2FB7F8943327FA
S1132DB08091B8028093050283E0809320022FBFA4
S1132DC08898809A0E940E02AB01BC01E1E0EE2ECD
S1132DD001E010E020E030E081E055C20E944B0C9D
S1132DE09927882311F40C94081F893011F40C944A
S1132DF0081F86E00E94E7010C94081F0E942E0C15
S1132E009927882311F40C94081F893011F40C9429
S1132E10081F87E0EFCF8FB7F89410920204209137
S1132E20CD0340E0283009F441E030E0293009F4D2
S1132E3031E0442311F4332351F01092CD03E09197
S1132E402603FF27EE0FFF1FE652FD4F108299273E
S1132E508FBF442311F4332331F19FB7F894809149
S1132E60F7038F5F8093F7038091D302833479F45F
S1132E702091E7028091E602821779F0822F8F5F1A
S1132E808093E702863048F01092E70206C0A0E083
S1132E90442309F4A1E071E002C0A0E070E0892FAE
S1132EA099278FBF06C0222311F0FF246DC0A0E034
S1132EB070E08FB7F8949927209121028FBF2223C5
S1132EC041F08FB7F89499272AE02093CD038FBF60
S1132ED042C08FB7F89499276091DA024091DC02DE
S1132EE08FBF8FB7F894282F332750E09091E602D4
S1132EF08091E702981709F451E02FBF552341F55B
S1132F00662331F55FB7F89482E08093DA028FB7D5
S1132F10F894282F332740E09091E6028091E7024D
S1132F20981709F441E02FBF442311F080E006C054
S1132F30E091E702FF27EA51FD4F82818093DB0293
S1132F4083E48093D30210922603852F99270EC021
S1132F504150423010F0FF240CC08FB7F8949927E9
S1132F6025E42093D30221E0209326038FBF61E060
S1132F70F62E772349F08FB7F8949927A0932A0265
S1132F808FBF8CE00E94E7018FB7F894082F1127B8
S1132F908091CD038A3021F40E949C050FBF38C76D
S1132FA00FBFFF2009F434C72FB7F89433271092CA
S1132FB00C0410920B041092CA0281E08093CD039A
S1132FC02FBF0E94F307882309F422C78FB7F89410
S1132FD0992729E02093CD038FBF0E94880518C745
S1132FE08091C9008F7B8093C9008091C9008F773D
S1132FF08093C9001092C8031092B6028091C90050
S113300088608093C9008091C9008F7B8093C90038
S11330108091C90080618093C9008FEF8093010281
S11330208091C90080688093C9008FB7F89499276C
S11330301092CD031092B3029AC08BE0DBCE809144
S1133040C900877F8093C9008091C9008F7E8093D7
S1133050C9008FEF80930102DBC610922702109201
S113306026028FB7F894992740912A028FBF809146
S11330702B02811143E0209124023091250280919A
S11330802C02882321F0823709F0C2C612C0809135
S11330901D02823008F0BCC6E82FFF27EE0FFF1F89
S11330A0E251FD4F608171816217730709F0B0C668
S11330B0A9C6442309F072C08FB7F89488E190E060
S11330C029E00FB6F894A895809360000FBE209372
S11330D06000FFCF8FB7F894992720912E02E090DB
S11330E02F02F090300230913102109181028FBF93
S11330F0222321F0223791F0222319F5F701838549
S11331008B30F9F4809100028823D9F44CE062EF0B
S113311072E08FEF9FEF0E94900B13C0333089F45D
S1133120F7018081823569F48181833551F482818C
S1133130843539F4F0927C02E0927B028EE00E94A6
S1133140E7018FB7F894E12FFF27EE0FFF1FE95F28
S1133150FD4FF182E08220912202112311F02B7F96
S113316001C02D7F2093220210922D0299278FBF38
S11331704FC6E0917B02F0917C028AE5808382E471
S1133180818380E5828360917B0270917C0243E0BD
S113319082E70E945D09882309F43AC68EE02ACEAC
S11331A001E0F02EF09233020E946710D090D10318
S11331B0C090D203E0907E020091A5028FB7F894EC
S11331C0182F80913702833089F58091130280177C
S11331D069F58091110220E030E08F3F11F421E085
S11331E030E0232BF9F48F3F19F42FEF30E00EC0B9
S11331F0282F3327F901E450FC4F8081809311027A
S11332008F3F11F4809312028FEF80832093270362
S11332108FEF8093130281E08093370282E10E9452
S1133220E70104C0F0921302109237021FBF00237B
S113323009F0EEC5EE2089F48D2D9927982F882763
S11332402C2D3327822B932BE091DE02F091DF02A9
S11332508387892F99278287DBC52FB7F894332773
S11332608EB180588EB92FBFD3C583E080933302CB
S11332700E940E02AB01BC01A1E0EA2E04EB10E0B7
S113328020E030E083E00E942009C2C52FB7F89403
S1133290332780919E0280930F0283E0809334024F
S11332A02FBF20910F028FB7F89499272093100213
S11332B08FBF213071F1213020F0223009F0A8C5F0
S11332C064C080913302823069F480E28093D10338
S11332D001ED13E021E043E250E063E080E00E946E
S11332E0A81309C001ED13E022E043E250E063E0DB
S11332F080E00E948A0A80937E0280917E02882365
S113330009F486C50E94770A80E00E94080F8FE0C6
S113331071CD80913802843069F0853028F4823090
S113332071F0833029F415C0853099F08630A1F00E
S113333060E016C0909139029F7088E405C09091B6
S1133340390292959F7088E5891B8093A10263E0FE
S113335007C01092A10203C082EA8093A10261E037
S113336001EA12E021E047E750E081E00E94A8135F
S113337099278093AA02882309F44AC50E94770AF0
S113338081E00E94080F83E135CD80913D028330B6
S113339049F0843018F48230A1F40EC0843071F006
S11333A0853079F407E712E022E040E450E063E07E
S11333B082E00E948A0A0EC083EF01C085EF8093E9
S11333C0770207E712E021E040E450E061E082E0A8
S11333D00E94A81399278093E202882309F418C550
S11333E071C42FB7F8943327809127038093130275
S11333F083E0809337022FBF809113028093A5024C
S113340010913302812F8250823008F401C582E08A
S1133410809333020E948510113009F0F9C480E0D2
S1133420BEC480913802863038F4843008F047C036
S1133430823008F4EDC46CC28D3008F0E9C481E038
S1133440809338020E9467101091AA028091E302CF
S11334508430B9F0853041F1813009F0D9C40E943B
S1133460020B112341F480E00E941F0E9927182FAC
S1133470882309F4CDC440E050E060E070E0812F7F
S113348086C284E00E94020B112341F483E00E946F
S11334901F0E9927182F882309F4BAC440E050E07E
S11334A060E070E0812F92C285E00E94020B4CE044
S11334B062EF72E08FEF9FEF0E94900BA9C4C0905F
S11334C0A102B090A202E090A30281E080933802AE
S11334D00E946710D090AA028091CE03823009F036
S11334E097C40E94020BDD2031F040E050E060E020
S11334F070E08D2D0AC28091720290917302A091A6
S11335007402B09175023C014D01990C6608762C49
S1133510430189839A83AB83BC836D826E826F82FD
S11335206886FF2400271127102F0F2DFE2CEE2470
S11335302C2D332744275527522F4427332722275E
S11335408B2D9927AA27BB27DC0199278827282BAD
S1133550392B4A2B5B2B2E293F29402B512B232F10
S1133560342F452F552729873A874B875C871D863B
S11335701E861F86188A8091BD029091BE02AA27DA
S1133580BB27DC0199278827898B9A8BAB8BBC8B53
S11335901D8A1E8A1F8A188E2091C1023091C20290
S11335A040E050E060E070E080E0A22EB32EC42E34
S11335B0D52EE62EF72E082F10E029813A814B8173
S11335C05C81662D762D862D962D0E94E52207E0DE
S11335D00E94E924822E932EA42EB52EC62ED72E19
S11335E0E82EF92E2989280DB1E0F9892F1708F062
S11335F0B0E03A89390DA1E00A89301708F0A0E05B
S1133600EB2FE30FF1E0E31708F0F0E0AF2B3E2FD0
S11336104B894A0DB1E01B89411708F0B0E0EA2F4D
S1133620E40FF1E0E41708F0F0E0BF2B4E2F5C89C3
S11336305B0DA1E0EC895E1708F0A0E0EB2FE50F2D
S1133640F1E0E51708F0F0E0AF2B5E2F6D896C0D0B
S1133650B1E0FD896F1708F0B0E0EA2FE60FF1E062
S1133660E61708F0F0E0BF2B6E2F7E897D0DA1E0F8
S11336700E89701708F0A0E0EB2FE70FF1E0E717D1
S113368008F0F0E0AF2B7E2F8F898E0DB1E01F89FB
S1133690811708F0B0E0EA2FE80F11E0E81708F00E
S11336A010E01B2B988D9F0D190FA22EB32EC42E44
S11336B0D52EE62EF72E0E2F29853A854B855C856F
S11336C06D857E858F8598890E94E52205E10E949B
S11336D0E323298F3A8F4B8F5C8F6D8F7E8F8F8F73
S11336E098A38090BF029090C002AA24BB24CC244B
S11336F0DD24EE24FF2401E1282D392D4A2D5B2DF4
S11337006C2D7D2D8E2D90E00E94662429A33AA372
S11337104BA35CA36DA37EA38FA398A72091C302A0
S11337203091C40280E0A22EB32E082F10E029812C
S11337303A814B815C816D817E818F8198850E9465
S1133740E52206E00E94E924A22EB32EC42ED52E33
S1133750E62EF72E082F192F29A12A0DB1E0E9A191
S11337602E1708F0B0E03AA13B0DA1E0FAA13F17F3
S113377008F0A0E0EB2FE30FF1E0E31708F0F0E02E
S1133780AF2B3E2F4BA14C0DB1E0EBA14E1708F02F
S1133790B0E0EA2FE40FF1E0E41708F0F0E0BF2B0B
S11337A04E2F5CA15D0DA1E0FCA15F1708F0A0E025
S11337B0EB2FE50FF1E0E51708F0F0E0AF2B5E2FFB
S11337C06DA16E0DB1E0EDA16E1708F0B0E0EA2F27
S11337D0E60FF1E0E61708F0F0E0BF2B6E2F7EA1B4
S11337E07F0DA1E0FEA17F1708F0A0E0EB2FE70F0B
S11337F0F1E0E71708F0F0E0AF2B7E2F8FA1800FE8
S1133800B1E0EFA18E1708F0B0E0EA2FE80FA1E0D5
S1133810E81708F0A0E0BA2B8E2F98A5910F9B0F04
S1133820898C821AB1E0F98DF81508F0B0E09A8C11
S1133830931AA1E00A8D091508F0A0E0E92DEB1B0D
S1133840F1E09E1608F0F0E0AF2B9E2EAB8CA41A8C
S1133850B1E01B8D1A1508F0B0E0EA2DEA1BF1E087
S1133860AE1608F0F0E0BF2BAE2EBC8CB51AA1E06A
S1133870EC8DEB1508F0A0E0EB2DEB1BF1E0BE1690
S113388008F0F0E0AF2BBE2ECD8CC61AB1E0FD8D52
S1133890FC1508F0B0E0EC2DEA1BF1E0CE1608F0C0
S11338A0F0E0BF2BCE2EDE8CD71AA1E00E8D0D15C5
S11338B008F0A0E0ED2DEB1BF1E0DE1608F0F0E0DF
S11338C0AF2BDE2EEF8CE81AB1E01F8D1E1508F029
S11338D0B0E0EE2DEA1BA1E0EE1608F0A0E0BA2B52
S11338E0F8A0F91A9F2D9B1B0FE0282D392D4A2D86
S11338F05B2D6C2D7D2D8E2F0E94E323A22EB32EE3
S1133900C42ED52EB601A50180E00E94100C80C201
S1133910E090A302FF2400271127102F0F2DFE2C67
S1133920EE242091A102332744275527522F442700
S1133930332722278091A2029927AA27BB27DC01DB
S113394099278827282B392B4A2B5B2B2E293F2993
S1133950402B512BE32EF42E052F112781E0809369
S113396038020E946710D090AA028091FA0388233B
S113397021F0833009F04CC21FC080E00E94020B8A
S1133980DD2041F040E050E060E070E08D2D0E94C9
S11339907B0E3EC28091C5029091C602AA27BB2726
S11339A0BA2FA92F982F8827E81AF90A0A0B1B0B9C
S11339B0B801A70180E0EBCF83E00E94020BDD2079
S11339C041F040E050E060E070E08D2D0E94B90BC2
S11339D01FC28091E0039091E103AA27BB27BA2F6D
S11339E0A92F982F8827E81AF90A0A0B1B0BB8018C
S11339F0A70180E0EBCF90913902809138028230A8
S1133A0039F483E080933802892F82958F7005C042
S1133A1085E080933802892F8F708430C1F085301F
S1133A2030F4882351F0823009F0F2C10BC08630A3
S1133A3099F0883009F0ECC114C06AE070E080E0CD
S1133A4090E013C065E070E080E090E00EC063E0B9
S1133A5070E080E090E009C062E070E080E090E017
S1133A6004C061E070E080E090E00E941310D0C1D7
S1133A702FB7F8943327809176028093160283E05F
S1133A8080933A022FBF209116022230C1F02330D6
S1133A9030F4222361F0213009F0BAC10BC0243084
S1133AA021F12430E8F0253009F0B2C123C010928E
S1133AB0FA0318C080910804909109041FC0209350
S1133AC0CE0310913802123008F0A2C184E0809332
S1133AD038020E948510113009F09AC181E05FC15B
S1133AE08093FA030E94A41093C18091B90290912B
S1133AF0BA0204C080910404909105042093E30267
S1133B000E94BA1085C1809177029927D82ECC24BF
S1133B10809178028C7FC80ED11C10913D02809157
S1133B203E02882351F0153011F483E001C085E092
S1133B3080933D0210923E020AC081E080933D02D0
S1133B400E94770A82E00E94080F0E9467101330D7
S1133B5009F04DC0F090E202009106048FB7F8948A
S1133B60182F80913F02833091F5809119028017BC
S1133B7071F58091170220E030E08F3F11F421E0CD
S1133B8030E0232BF9F48F3F19F42FEF30E00EC00F
S1133B90282F3327F901E358FD4F808180931702C2
S1133BA08F3F11F4809318028FEF8083209341029A
S1133BB08FEF8093190281E080933F0288E10E9495
S1133BC0E70105C081E08093190210923F021FBFF4
S1133BD0002309F061C0FF2009F057C0E091DE0224
S1133BE0F091DF02C7828D2D9927868355C0153049
S1133BF009F052C0F090E2020091F6038FB7F894F6
S1133C00182F80914002833091F580911C02801717
S1133C1071F580911A0220E030E08F3F11F421E029
S1133C2030E0232BF9F48F3F19F42FEF30E00EC06E
S1133C30282F3327F901E550FC4F808180931A0225
S1133C408F3F11F480931B028FEF80832093D50361
S1133C508FEF80931C0281E08093400289E10E94EF
S1133C60E70105C081E080931C02109240021FBF4F
S1133C70002391F4FF2049F4E091DE02F091DF0289
S1133C80C1868D2D9927808707C02FB7F8943327D5
S1133C908EB180588EB92FBF80913D02853019F0C6
S1133CA0833009F0B5C007E712E022E040E450E0B9
S1133CB063E082E00E948A0A99278093E2028823C3
S1133CC009F4A6C086E196C880913D02823021F0B5
S1133CD0843009F09DC008C083E080933D0265E50F
S1133CE070E080E090E007C085E080933D0266E1EB
S1133CF070E080E090E00E942F108AC02FB7F89403
S1133D003327809141028093190283E080933F021C
S1133D102FBF809119028093060410913D02809177
S1133D203E02882321F4812F8450823038F1812F80
S1133D308250823008F46CC082E080933D020E947D
S1133D408510113009F064C029C02FB7F8943327C7
S1133D508091D50380931C0283E0809340022FBF9F
S1133D6080911C028093F60310913D0280913E02E3
S1133D70882341F4812F8250823020F481E08093A3
S1133D803E0246C0812F8450823008F441C084E052
S1133D9080933D020E9485101130D1F582E00E948B
S1133DA0F90936C09091FD03812F8923D9F0E22FC0
S1133DB0FF27EE0FFF1FE251FD4F11821082812F6A
S1133DC0809598239093FD03213061F48091000243
S1133DD08823D9F040E052E060E070E082E00E9485
S1133DE03F0913C02F5F283098F4110FDBCF809167
S1133DF01D02E82FFF27EE0FFF1FE251FD4F6081E8
S1133E00718141E00E94AF0D03C0110F22E0CACFBF
S1133E10A8960FB6F894DEBF0FBECDBFDF91CF9149
S1133E201F910F91FF90EF90DF90CF90BF90AF90D4
S1133E309F908F907F906F9008958091F3038F3FB0
S1133E40B1F0282F3327F901EE57FD4F808180937D
S1133E50F3038F3F11F4809303048FEF80832F3F8C
S1133E6031F0822F0E94831581E090E0089580E074
S1133E7090E00895EF92FF920F931F93FFB6F8948A
S1133E8014BE88E10FB6F89480936000109260002D
S1133E900FBE4CE150E06FEF70E082E892E00E94C8
S1133EA011268FEF8093F30380930304819A80910A
S1133EB03501806180933501809134018061809364
S1133EC03401809133018061809333018091320108
S1133ED080618093320185B7806885BF85B780682B
S1133EE085BF80E8809361008FE08093610091E05A
S1133EF09093810080E28093B6009093B100AEEF7E
S1133F00E0E0F0E06FEF7FEFB0E08091B200882353
S1133F10E1F740918400509185008091B200803493
S1133F20E1F72091840030918500241B350B621742
S1133F30730708F4B9012E173F0708F4F901CF01FC
S1133F40861B970B029730F0B0E06FEF7FEFE0E055
S1133F50F0E003C0BF5FB23310F4A150B1F6309368
S1133F60F5032093F4031092B1008091B100809383
S1133F708100809181008093B6008091B6009927DA
S1133F8083709070892BC9F7809180008C7F809317
S1133F90800080918100807E826080938100809186
S1133FA06F00816080936F0080E28093B6008091FF
S1133FB0DC008F7C80638093DC008091DF0088606C
S1133FC08093DF008091DF008E7F8093DF008FEF8E
S1133FD0809301028091DC008E7F8093DC0010923C
S1133FE07A00809139018260809339016C9A6D9ACC
S1133FF06E9A6F9A749A759A769A779A569A5E9A86
S11340005D98559A0E940E02AB01BC0191E0E92E25
S113401001E010E020E030E080E00E9420090E94EE
S11340201D1F8823E1F71FEF1093FB0310937D02FC
S11340306FE070E08FE090E00E940D0D46E050E0EC
S11340406FEF70E08CEA92E00E94112663E070E06A
S113405083E090E00E940D0D1093FC0343E050E0D8
S11340606FEF70E080ED92E00E9411266BE070E04B
S11340708BE090E00E940D0D12E006E06091F403E5
S11340807091F5038827992728E037E040E050E055
S11340900E94A425215030402093C400832F9927E7
S11340A08093C5001093C0000093C2001092C10019
S11340B02093CC008093CD001093C8000093CA00D5
S11340C01092C9001092DA021092DC028AE0809306
S11340D0CD031092CA021092D3021092F7031092E9
S11340E00C0410920B0410920204109226031092F6
S11340F0E5031092E40384E08093B3021092D003AA
S11341001092EE031092B70210922303109222032E
S11341101092E7021092E6021D9B0AC081E0809390
S1134120C70386E00E94E70185E00E94E90408C015
S11341301092C70387E00E94E70185E00E94020510
S11341408FEF8093AB02109228030E941D1F8823D7
S1134150E1F78F2D99278FBF78940E944B0C2EEF97
S113416032E03093800220937F028FE492E09093B8
S1134170DF028093DE02309305042093040485E07B
S11341800E941F0E8FB7F894082F112767C08091E3
S1134190010287FF5AC08091BC0082FF03C040E047
S11341A050E002C045E050E08091C10083FD0FC0A3
S11341B08091C10084FD0BC08091C90083FD07C0BC
S11341C08091C90084FD03C0A5E0B0E002C0A0E076
S11341D0B0E080916F008E7219F060E070E002C070
S11341E065E070E080917A0087FF03C021E030E051
S11341F002C025E030E08091DC0085FF03C0E3E0ED
S1134200F0E002C0E5E0F0E0322F262F8A2F4A17B3
S113421008F4842F9927821708F4282F822F9927CE
S1134220831708F4382F832F99278E1708F4E82F63
S1134230FF27E093010283B7FF27E7FDF095E85AD3
S1134240FC4FE491807F8E2B83BF83B7816083BF53
S113425078948895F89483B78E7F83BF8091F30315
S11342608F3F09F494CF282F3327F901EE57FD4FE0
S113427080818093F3038F3F11F4809303048FEFC5
S113428080832F3F09F483CF0FBF822F0E948315B1
S113429079CF1F920F920FB60F9211242F933F9351
S11342A04F935F936F937F938F939F93AF93BF933A
S11342B0EF93FF930E94E30980913502843009F45F
S11342C046C1863021F0833009F06EC188C09091D8
S11342D0B900987F80913602813009F043C0903450
S11342E009F07BC083E0809335022091ED03409177
S11342F04202241708F48CC02091C603322F3E7F5B
S11343003093C60380910A0481FF09C08D7F809396
S11343100A0430613093C6038091B90003C02E773C
S11343202093C6038091C6038093BC0081E08093F0
S113433035022091A6023091A7026091BB027091D0
S1134340BC0280911002813009F4AFC0813008F4BE
S1134350A3C0823009F028C11092E20286E10E94D3
S1134360E70122C19831C9F583E080933502909129
S1134370ED03409142022091C603941708F49FC0B4
S1134380922F9E7F9093C60380910A0481FF07C0F9
S11343908D7F80930A0490619093C60303C02E77A7
S11343A02093C6038091C6038093BC0081E0809370
S11343B035022091A6023091A7026091BB02709150
S11343C0BC0280911002813009F4B9C0813008F434
S11343D0AFC0823009F0E8C0B6C084E0CDC080919F
S11343E036029091ED03813009F063C0E091A6029A
S11343F0F091A702E90FF11D8091BB008083209109
S1134400ED032F5F2093ED03409142022417A8F49B
S11344103327842F992701972817390749F4809166
S11344200A0482FD05C08091C6038F7B8093C60376
S11344308091C6038093BC00B7C02091C603322F7D
S11344403E7F3093C60380910A0481FF09C08D7FAB
S113445080930A0430613093C6038091B90003C08D
S11344602E772093C6038091C6038093BC0081E01D
S1134470809335022091A6023091A7026091BB027D
S11344807091BC0280911002813079F0813020F06B
S1134490823009F089C060CF10927E020E94770AB0
S11344A080E00E94080F8FE05ACF80E00E946D14D4
S11344B07BC0409142022091C603941778F4E091A6
S11344C0A602F091A702E90FF11D80818093BB0041
S11344D09F5F9093ED032093BC0066C0922F9E7F54
S11344E09093C60380910A0481FF07C08D7F809357
S11344F00A0490619093C60303C02E772093C603E9
S11345008091C6038093BC0081E0809335022091A2
S1134510A6023091A7026091BB027091BC02809107
S11345201002813061F0813018F08230E9F50BC05F
S11345300E94770A80E00E94080F80E110CF80E09B
S11345400E94661331C080E00E9401102DC080914A
S11345500A048E7F80930A049091C6039F7D9093F2
S1134560C6038091B900887F883049F08091B900F2
S1134570887F803121F081E00E94211515C0392FF8
S113458030643093C6039091BB02990F20E0809170
S11345903602813009F421E0922B9093BB0086E02F
S11345A0809335023093BC00FF91EF91BF91AF919E
S11345B09F918F917F916F915F914F913F912F9137
S11345C00F900FBE0F901F901895ACE2B0E0EBEE89
S11345D0F2E20C94DA25222E332E442E552E662E2A
S11345E0772E882E992EFE013196A8E01192AA9575
S11345F0E9F729823A824B825C826D827E828F82C5
S11346009886FE013996B8E01192BA95E9F7A98621
S1134610BA86CB86DC86ED86FE860F87188B898169
S11346209A81AB81BC8189A79AA7ABA7BCA77C015F
S11346308D018FEF9FEFA0E0B0E0E822F9220A237A
S11346401B2389A59AA5ABA5BCA51D01442455240B
S113465089859A85AB85BC858DA39EA3AFA3B8A796
S11346605C016D018FEF9FEFA0E0B0E0A822B922BA
S1134670CA22DB228DA19EA1AFA1B8A53D01882449
S11346809924C801B701A60195010E94722569A366
S11346907AA38BA39CA3C801B701A40193010E9430
S11346A072257B018C01C201B101A60195010E9412
S11346B072255B016C01C201B101A40193010E9446
S11346C072253B014C01EA0CFB1C0C1D1D1D89A12C
S11346D09AA1ABA1BCA19D01442755272E0D3F1DD6
S11346E0401F511F2A153B054C055D0540F480E031
S11346F090E0A1E0B0E0680E791E8A1E9B1ECA01FC
S1134700AA27BB27860D971DA81DB91D8D8F9E8FC7
S1134710AF8FB8A3A9013327222789A19AA1ABA1FE
S1134720BCA1A070B070280F391F4A1F5B1F298FCE
S11347303A8F4B8F5C8FA98CBA8CCB8CDC8CED8C34
S1134740FE8C0F8D18A1FE01719698E011929A9536
S1134750E9F7ED8AFE8A0F8B188F2D813E814F81F8
S113476058856DA17EA18FA198A50E9472253B0159
S11347704C012D853E854F85588969A57AA58BA561
S11347809CA50E9472252D893E894F89588D260F3C
S1134790371F481F591F260D371D481D591D2D8BC6
S11347A03E8B4F8B588F6D887E888F88988C2A2DEE
S11347B03B2D4C2D5D2D662D772D882D992DE2E115
S11347C0AC960C94F625A0E1B0E0E9EEF3E20C948B
S11347D0DA25222E332E442E552E662E772E882E41
S11347E0992E002309F466C088E0FE0131961192E7
S11347F08A95E9F729833A834B835C836D837E83AF
S11348008F829887E0E2E01B1E16CCF52D813E8155
S11348104F815885602F772767FD7095DA01C901AC
S1134820062E04C0B695A795979587950A94D2F756
S11348308D879E87AF87B88B04C0220F331F441F18
S1134840551FEA95D2F789819A81AB81BC8104C056
S1134850B695A795979587956A95D2F7282B392B06
S11348604A2B5B2B29873A874B875C8729843A84B8
S11348704B845C846D847E848F8498881BC01D86E1
S11348801E861F86188A2E2F332727FD30953095D4
S113489021953F4F8D819E81AF81B88504C0B69527
S11348A0A795979587952A95D2F789879A87AB8795
S11348B0BC87DCCF222D332D442D552D662D772D2D
S11348C0882D992DE2E160960C94F625A0E1B0E0E4
S11348D0ECE6F4E20C94DA25222E332E442E552EE7
S11348E0662E772E882E992E002309F466C088E060
S11348F0FE01319611928A95E9F729833A834B8315
S11349005C836D837E838F829887E0E2E01B1E16B2
S1134910CCF529813A814B815C81602F772767FD33
S11349207095DA01C901062E04C0880F991FAA1FC9
S1134930BB1F0A94D2F789879A87AB87BC8704C0C8
S11349405695479537952795EA95D2F78D819E819F
S1134950AF81B88504C0880F991FAA1FBB1F6A9531
S1134960D2F7282B392B4A2B5B2B2D873E874F8779
S1134970588B29843A844B845C846D847E848F8430
S113498098881BC019861A861B861C862E2F3327EF
S113499027FD3095309521953F4F89819A81AB81D0
S11349A0BC8104C0880F991FAA1FBB1F2A95D2F788
S11349B08D879E87AF87B88BDCCF222D332D442D76
S11349C0552D662D772D882D992DE2E160960C9456
S11349D0F625A0E1B0E0EFEEF4E20C94DA25222E05
S11349E0332E442E552E662E772E882E992E002394
S11349F009F46CC088E0FE01319611928A95E9F7BA
S1134A0029833A834B835C836D837E838F8298876B
S1134A10E0E2E01B1E16CCF52D813E814F815885C6
S1134A20602F772767FD7095DA01C901062E04C04F
S1134A30B595A795979587950A94D2F78D879E8704
S1134A40AF87B88B04C0220F331F441F551FEA954C
S1134A50D2F789819A81AB81BC8104C0B695A795B0
S1134A60979587956A95D2F7282B392B4A2B5B2B80
S1134A7029873A874B875C8729843A844B845C84F2
S1134A806D847E848F84988821C08D819E81AF81BE
S1134A90B8859C01AD01550F220B322FA9012D873A
S1134AA03E874F87588B2E2F332727FD309530951F
S1134AB021953F4F04C0B595A795979587952A955D
S1134AC0D2F789879A87AB87BC87D6CF222D332D1F
S1134AD0442D552D662D772D882D992DE2E1609674
S1134AE00C94F625629FD001739FF001829FE00D24
S1134AF0F11D649FE00DF11D929FF00D839FF00D59
S1134B00749FF00D659FF00D9927729FB00DE11D04
S1134B10F91F639FB00DE11DF91FBD01CF011124E1
S1134B20089597FB092E07260AD077FD04D02ED0CE
S1134B3006D000201AF4709561957F4F0895F6F71A
S1134B40909581959F4F0895A1E21A2EAA1BBB1B35
S1134B50FD010DC0AA1FBB1FEE1FFF1FA217B30745
S1134B60E407F50720F0A21BB30BE40BF50B661F5B
S1134B70771F881F991F1A9469F76095709580951F
S1134B8090959B01AC01BD01CF010895AA1BBB1BED
S1134B9051E107C0AA1FBB1FA617B70710F0A61B39
S1134BA0B70B881F991F5A95A9F780959095BC015A
S1134BB0CD0108952F923F924F925F926F927F9210
S1134BC08F929F92AF92BF92CF92DF92EF92FF9219
S1134BD00F931F93CF93DF93CDB7DEB7CA1BDB0BC5
S1134BE00FB6F894DEBF0FBECDBF09942A8839886A
S1134BF048885F846E847D848C849B84AA84B98471
S1134C00C884DF80EE80FD800C811B81AA81B9817C
S1134C10CE0FD11D0FB6F894DEBF0FBECDBFED0190
S1134C200895DC0101C06D9341505040E0F70895B0
S1054C30FFCFB0
S1134C3201FF03FFFF01FF680397036803FFFF03FC
S1114C42FFFFFF01FFFF06FFFF01FFFF01025E
S9030000FC
